{
  "contractName": "CP",
  "abi": [
    {
      "anonymous": false,
      "inputs": [
        {
          "indexed": false,
          "internalType": "address",
          "name": "to",
          "type": "address"
        },
        {
          "indexed": false,
          "internalType": "uint256",
          "name": "amount",
          "type": "uint256"
        },
        {
          "indexed": false,
          "internalType": "uint256",
          "name": "fee",
          "type": "uint256"
        }
      ],
      "name": "Bid",
      "type": "event"
    },
    {
      "anonymous": false,
      "inputs": [
        {
          "indexed": false,
          "internalType": "address",
          "name": "to",
          "type": "address"
        },
        {
          "indexed": false,
          "internalType": "uint256",
          "name": "amount",
          "type": "uint256"
        }
      ],
      "name": "Cancel",
      "type": "event"
    },
    {
      "anonymous": false,
      "inputs": [
        {
          "indexed": true,
          "internalType": "address",
          "name": "previousOwner",
          "type": "address"
        },
        {
          "indexed": true,
          "internalType": "address",
          "name": "newOwner",
          "type": "address"
        }
      ],
      "name": "OwnershipTransferPrepared",
      "type": "event"
    },
    {
      "anonymous": false,
      "inputs": [
        {
          "indexed": true,
          "internalType": "address",
          "name": "previousOwner",
          "type": "address"
        },
        {
          "indexed": true,
          "internalType": "address",
          "name": "newOwner",
          "type": "address"
        }
      ],
      "name": "OwnershipTransferred",
      "type": "event"
    },
    {
      "inputs": [],
      "name": "_AVG_SETTLED_PRICE_",
      "outputs": [
        {
          "internalType": "uint256",
          "name": "",
          "type": "uint256"
        }
      ],
      "stateMutability": "view",
      "type": "function"
    },
    {
      "inputs": [],
      "name": "_BASE_TOKEN_",
      "outputs": [
        {
          "internalType": "contract IERC20",
          "name": "",
          "type": "address"
        }
      ],
      "stateMutability": "view",
      "type": "function"
    },
    {
      "inputs": [],
      "name": "_BIDDER_PERMISSION_",
      "outputs": [
        {
          "internalType": "contract IPermissionManager",
          "name": "",
          "type": "address"
        }
      ],
      "stateMutability": "view",
      "type": "function"
    },
    {
      "inputs": [
        {
          "internalType": "address",
          "name": "",
          "type": "address"
        }
      ],
      "name": "_CLAIMED_",
      "outputs": [
        {
          "internalType": "bool",
          "name": "",
          "type": "bool"
        }
      ],
      "stateMutability": "view",
      "type": "function"
    },
    {
      "inputs": [],
      "name": "_CLIFF_RATE_",
      "outputs": [
        {
          "internalType": "uint256",
          "name": "",
          "type": "uint256"
        }
      ],
      "stateMutability": "view",
      "type": "function"
    },
    {
      "inputs": [],
      "name": "_FREEZE_DURATION_",
      "outputs": [
        {
          "internalType": "uint256",
          "name": "",
          "type": "uint256"
        }
      ],
      "stateMutability": "view",
      "type": "function"
    },
    {
      "inputs": [],
      "name": "_I_",
      "outputs": [
        {
          "internalType": "uint256",
          "name": "",
          "type": "uint256"
        }
      ],
      "stateMutability": "view",
      "type": "function"
    },
    {
      "inputs": [],
      "name": "_K_",
      "outputs": [
        {
          "internalType": "uint256",
          "name": "",
          "type": "uint256"
        }
      ],
      "stateMutability": "view",
      "type": "function"
    },
    {
      "inputs": [],
      "name": "_MAINTAINER_",
      "outputs": [
        {
          "internalType": "address",
          "name": "",
          "type": "address"
        }
      ],
      "stateMutability": "view",
      "type": "function"
    },
    {
      "inputs": [],
      "name": "_MT_FEE_RATE_MODEL_",
      "outputs": [
        {
          "internalType": "contract IFeeRateModel",
          "name": "",
          "type": "address"
        }
      ],
      "stateMutability": "view",
      "type": "function"
    },
    {
      "inputs": [],
      "name": "_NEW_OWNER_",
      "outputs": [
        {
          "internalType": "address",
          "name": "",
          "type": "address"
        }
      ],
      "stateMutability": "view",
      "type": "function"
    },
    {
      "inputs": [],
      "name": "_OWNER_",
      "outputs": [
        {
          "internalType": "address",
          "name": "",
          "type": "address"
        }
      ],
      "stateMutability": "view",
      "type": "function"
    },
    {
      "inputs": [],
      "name": "_PHASE_BID_ENDTIME_",
      "outputs": [
        {
          "internalType": "uint256",
          "name": "",
          "type": "uint256"
        }
      ],
      "stateMutability": "view",
      "type": "function"
    },
    {
      "inputs": [],
      "name": "_PHASE_BID_STARTTIME_",
      "outputs": [
        {
          "internalType": "uint256",
          "name": "",
          "type": "uint256"
        }
      ],
      "stateMutability": "view",
      "type": "function"
    },
    {
      "inputs": [],
      "name": "_PHASE_CALM_ENDTIME_",
      "outputs": [
        {
          "internalType": "uint256",
          "name": "",
          "type": "uint256"
        }
      ],
      "stateMutability": "view",
      "type": "function"
    },
    {
      "inputs": [],
      "name": "_POOL_",
      "outputs": [
        {
          "internalType": "address",
          "name": "",
          "type": "address"
        }
      ],
      "stateMutability": "view",
      "type": "function"
    },
    {
      "inputs": [],
      "name": "_POOL_FACTORY_",
      "outputs": [
        {
          "internalType": "address",
          "name": "",
          "type": "address"
        }
      ],
      "stateMutability": "view",
      "type": "function"
    },
    {
      "inputs": [],
      "name": "_POOL_QUOTE_CAP_",
      "outputs": [
        {
          "internalType": "uint256",
          "name": "",
          "type": "uint256"
        }
      ],
      "stateMutability": "view",
      "type": "function"
    },
    {
      "inputs": [],
      "name": "_QUOTE_RESERVE_",
      "outputs": [
        {
          "internalType": "uint256",
          "name": "",
          "type": "uint256"
        }
      ],
      "stateMutability": "view",
      "type": "function"
    },
    {
      "inputs": [],
      "name": "_QUOTE_TOKEN_",
      "outputs": [
        {
          "internalType": "contract IERC20",
          "name": "",
          "type": "address"
        }
      ],
      "stateMutability": "view",
      "type": "function"
    },
    {
      "inputs": [],
      "name": "_SETTLED_",
      "outputs": [
        {
          "internalType": "bool",
          "name": "",
          "type": "bool"
        }
      ],
      "stateMutability": "view",
      "type": "function"
    },
    {
      "inputs": [],
      "name": "_SETTLED_TIME_",
      "outputs": [
        {
          "internalType": "uint256",
          "name": "",
          "type": "uint256"
        }
      ],
      "stateMutability": "view",
      "type": "function"
    },
    {
      "inputs": [],
      "name": "_TOTAL_BASE_",
      "outputs": [
        {
          "internalType": "uint256",
          "name": "",
          "type": "uint256"
        }
      ],
      "stateMutability": "view",
      "type": "function"
    },
    {
      "inputs": [],
      "name": "_TOTAL_LP_AMOUNT_",
      "outputs": [
        {
          "internalType": "uint256",
          "name": "",
          "type": "uint256"
        }
      ],
      "stateMutability": "view",
      "type": "function"
    },
    {
      "inputs": [],
      "name": "_TOTAL_SHARES_",
      "outputs": [
        {
          "internalType": "uint256",
          "name": "",
          "type": "uint256"
        }
      ],
      "stateMutability": "view",
      "type": "function"
    },
    {
      "inputs": [],
      "name": "_UNUSED_BASE_",
      "outputs": [
        {
          "internalType": "uint256",
          "name": "",
          "type": "uint256"
        }
      ],
      "stateMutability": "view",
      "type": "function"
    },
    {
      "inputs": [],
      "name": "_UNUSED_QUOTE_",
      "outputs": [
        {
          "internalType": "uint256",
          "name": "",
          "type": "uint256"
        }
      ],
      "stateMutability": "view",
      "type": "function"
    },
    {
      "inputs": [],
      "name": "_VESTING_DURATION_",
      "outputs": [
        {
          "internalType": "uint256",
          "name": "",
          "type": "uint256"
        }
      ],
      "stateMutability": "view",
      "type": "function"
    },
    {
      "inputs": [
        {
          "internalType": "address",
          "name": "to",
          "type": "address"
        }
      ],
      "name": "bid",
      "outputs": [],
      "stateMutability": "nonpayable",
      "type": "function"
    },
    {
      "inputs": [
        {
          "internalType": "address",
          "name": "to",
          "type": "address"
        },
        {
          "internalType": "bytes",
          "name": "data",
          "type": "bytes"
        }
      ],
      "name": "bidderClaim",
      "outputs": [],
      "stateMutability": "nonpayable",
      "type": "function"
    },
    {
      "inputs": [
        {
          "internalType": "address",
          "name": "to",
          "type": "address"
        },
        {
          "internalType": "uint256",
          "name": "amount",
          "type": "uint256"
        },
        {
          "internalType": "bytes",
          "name": "data",
          "type": "bytes"
        }
      ],
      "name": "cancel",
      "outputs": [],
      "stateMutability": "nonpayable",
      "type": "function"
    },
    {
      "inputs": [],
      "name": "claimLPToken",
      "outputs": [],
      "stateMutability": "nonpayable",
      "type": "function"
    },
    {
      "inputs": [],
      "name": "claimOwnership",
      "outputs": [],
      "stateMutability": "nonpayable",
      "type": "function"
    },
    {
      "inputs": [],
      "name": "emergencySettle",
      "outputs": [],
      "stateMutability": "nonpayable",
      "type": "function"
    },
    {
      "inputs": [],
      "name": "getClaimableLPToken",
      "outputs": [
        {
          "internalType": "uint256",
          "name": "",
          "type": "uint256"
        }
      ],
      "stateMutability": "view",
      "type": "function"
    },
    {
      "inputs": [],
      "name": "getExpectedAvgPrice",
      "outputs": [
        {
          "internalType": "uint256",
          "name": "",
          "type": "uint256"
        }
      ],
      "stateMutability": "view",
      "type": "function"
    },
    {
      "inputs": [
        {
          "internalType": "uint256",
          "name": "timestamp",
          "type": "uint256"
        }
      ],
      "name": "getRemainingLPRatio",
      "outputs": [
        {
          "internalType": "uint256",
          "name": "",
          "type": "uint256"
        }
      ],
      "stateMutability": "view",
      "type": "function"
    },
    {
      "inputs": [],
      "name": "getSettleResult",
      "outputs": [
        {
          "internalType": "uint256",
          "name": "poolBase",
          "type": "uint256"
        },
        {
          "internalType": "uint256",
          "name": "poolQuote",
          "type": "uint256"
        }
      ],
      "stateMutability": "view",
      "type": "function"
    },
    {
      "inputs": [
        {
          "internalType": "address",
          "name": "user",
          "type": "address"
        }
      ],
      "name": "getShares",
      "outputs": [
        {
          "internalType": "uint256",
          "name": "",
          "type": "uint256"
        }
      ],
      "stateMutability": "view",
      "type": "function"
    },
    {
      "inputs": [
        {
          "internalType": "address",
          "name": "newOwner",
          "type": "address"
        }
      ],
      "name": "initOwner",
      "outputs": [],
      "stateMutability": "nonpayable",
      "type": "function"
    },
    {
      "inputs": [],
      "name": "settle",
      "outputs": [],
      "stateMutability": "nonpayable",
      "type": "function"
    },
    {
      "inputs": [
        {
          "internalType": "address",
          "name": "newOwner",
          "type": "address"
        }
      ],
      "name": "transferOwnership",
      "outputs": [],
      "stateMutability": "nonpayable",
      "type": "function"
    },
    {
      "stateMutability": "payable",
      "type": "receive"
    },
    {
      "inputs": [
        {
          "internalType": "address[]",
          "name": "addressList",
          "type": "address[]"
        },
        {
          "internalType": "uint256[]",
          "name": "timeLine",
          "type": "uint256[]"
        },
        {
          "internalType": "uint256[]",
          "name": "valueList",
          "type": "uint256[]"
        }
      ],
      "name": "init",
      "outputs": [],
      "stateMutability": "nonpayable",
      "type": "function"
    }
  ],
  "bytecode": "0x608060405234801561001057600080fd5b50612e7f806100206000396000f3fe6080604052600436106102605760003560e01c80637327a88511610144578063ce90ea74116100b6578063ec2fd46d1161007a578063ec2fd46d14610628578063f04da65b1461063d578063f2fde38b1461065d578063f6b06e701461067d578063f744718414610692578063f811d692146106b25761029a565b8063ce90ea74146105b4578063d4b97046146105c9578063e44f82db146105de578063e4e327db146105fe578063eb3c2b08146106135761029a565b80639e104a21116101085780639e104a2114610536578063a65706181461054b578063bbf5ce7814610560578063bea586a214610575578063c025aa331461058a578063cd9129461461059f5761029a565b80637327a885146104b7578063832d23ec146104cc5780638456db15146104e157806395ca26fd146104f65780639cf5453d146105165761029a565b80633f253e38116101dd5780634afc0d7b116101a15780634afc0d7b146104215780634e71e0c8146104365780634ed90a641461044b57806361ce802e1461046057806368be20ad146104755780636a7ba71e146104a25761029a565b80633f253e38146103ad5780634322ec83146103cd57806344b20ee9146103e2578063486c5971146103f75780634a248d2a1461040c5761029a565b806316048bc41161022457806316048bc41461032a5780631aae38e81461034c5780632098c75b1461036e578063294dafc0146103835780632f655da7146103985761029a565b806306fe87661461029f5780630bc3b1c0146102b45780630d009297146102c957806311da60b4146102e957806312911e49146102fe5761029a565b3661029a57600154600160a01b900460ff16156102985760405162461bcd60e51b815260040161028f90612cb4565b60405180910390fd5b005b600080fd5b3480156102ab57600080fd5b506102986106c7565b3480156102c057600080fd5b506102986107f5565b3480156102d557600080fd5b506102986102e4366004612667565b610894565b3480156102f557600080fd5b506102986108f4565b34801561030a57600080fd5b50610313610d68565b604051610321929190612e26565b60405180910390f35b34801561033657600080fd5b5061033f610e2f565b6040516103219190612895565b34801561035857600080fd5b50610361610e3e565b6040516103219190612e1d565b34801561037a57600080fd5b5061033f610e44565b34801561038f57600080fd5b50610361610e53565b3480156103a457600080fd5b50610361610e59565b3480156103b957600080fd5b506103616103c8366004612802565b610e5f565b3480156103d957600080fd5b5061033f610f32565b3480156103ee57600080fd5b50610361610f41565b34801561040357600080fd5b50610361610f47565b34801561041857600080fd5b5061033f610fc9565b34801561042d57600080fd5b50610361610fdd565b34801561044257600080fd5b50610298610fe3565b34801561045757600080fd5b50610361611071565b34801561046c57600080fd5b50610361611077565b34801561048157600080fd5b50610495610490366004612667565b61107d565b604051610321919061297f565b3480156104ae57600080fd5b50610361611092565b3480156104c357600080fd5b5061036161112a565b3480156104d857600080fd5b5061033f611130565b3480156104ed57600080fd5b5061033f61113f565b34801561050257600080fd5b5061029861051136600461269f565b61114e565b34801561052257600080fd5b50610298610531366004612667565b61129a565b34801561054257600080fd5b5061033f6114c5565b34801561055757600080fd5b506103616114d4565b34801561056c57600080fd5b506103616114da565b34801561058157600080fd5b506103616114e0565b34801561059657600080fd5b506103616114e6565b3480156105ab57600080fd5b506103616114ec565b3480156105c057600080fd5b506103616114f2565b3480156105d557600080fd5b5061033f6114f8565b3480156105ea57600080fd5b506102986105f93660046126f2565b611507565b34801561060a57600080fd5b5061036161165a565b34801561061f57600080fd5b50610495611660565b34801561063457600080fd5b50610361611669565b34801561064957600080fd5b50610361610658366004612667565b61166f565b34801561066957600080fd5b50610298610678366004612667565b61168a565b34801561068957600080fd5b5061033f61170f565b34801561069e57600080fd5b506102986106ad36600461274c565b61171e565b3480156106be57600080fd5b50610361611ba4565b6004544210156106e95760405162461bcd60e51b815260040161028f90612c8d565b600154600160a81b900460ff16156107135760405162461bcd60e51b815260040161028f90612a78565b6001805460ff60a81b1916600160a81b17905560045461073c9062093a8063ffffffff611baa16565b42101561075b5760405162461bcd60e51b815260040161028f9061298a565b610763611bd8565b6007546040516370a0823160e01b81526001600160a01b03909116906370a0823190610793903090600401612895565b60206040518083038186803b1580156107ab57600080fd5b505afa1580156107bf573d6000803e3d6000fd5b505050506040513d601f19601f820116820180604052508101906107e3919061281a565b600c556001805460ff60a81b19169055565b6000546001600160a01b0316331461081f5760405162461bcd60e51b815260040161028f90612ceb565b60065460ff16801561084557506019546005546108419163ffffffff611baa16565b4210155b6108615760405162461bcd60e51b815260040161028f90612a9b565b600054610892906001600160a01b0316610879611092565b6011546001600160a01b0316919063ffffffff611c0e16565b565b600154600160a01b900460ff16156108be5760405162461bcd60e51b815260040161028f90612b93565b6001805460ff60a01b1916600160a01b179055600080546001600160a01b039092166001600160a01b0319909216919091179055565b6004544210156109165760405162461bcd60e51b815260040161028f90612c8d565b600154600160a81b900460ff16156109405760405162461bcd60e51b815260040161028f90612a78565b6001805460ff60a81b1916600160a81b17905561095b611bd8565b600080610966610d68565b6007546040516370a0823160e01b81529294509092506109fc9183916001600160a01b0316906370a08231906109a0903090600401612895565b60206040518083038186803b1580156109b857600080fd5b505afa1580156109cc573d6000803e3d6000fd5b505050506040513d601f19601f820116820180604052508101906109f0919061281a565b9063ffffffff611c6916565b600c556006546040516370a0823160e01b8152610a399184916101009091046001600160a01b0316906370a08231906109a0903090600401612895565b600b81905550600080600080600b54600014610a6057610a5b85600b54611c91565b610a64565b6017545b90506000610a728288611caf565b905085610a9f576006546007546017546001600160a01b0361010090930483169750911694509250610bb9565b86600b541415610acd576006546007546001600160a01b036101009092048216965016935060019250610bb9565b86600b541015610b5f576006546007546001600160a01b03610100909204821696501693506000610b16610b018884611cd9565b670de0b6b3a76400009063ffffffff611c6916565b9050610b576ec097ce7bc90715b34b9f1000000000610b4b83610b3f878263ffffffff611cf716565b9063ffffffff611cf716565b9063ffffffff611d3116565b935050610bb9565b86600b541115610bb9576007546006546001600160a01b03918216965061010090041693506000610b93610b018389611c91565b9050610bb583610ba9838063ffffffff611cf716565b9063ffffffff611d5e16565b9350505b60105460405163534ee7eb60e11b81526001600160a01b039091169063a69dcfd690610c009088908890660aa87bee538000908990670de0b6b3a76400009060040161292d565b602060405180830381600087803b158015610c1a57600080fd5b505af1158015610c2e573d6000803e3d6000fd5b505050506040513d601f19601f82011682018060405250810190610c529190612683565b601180546001600160a01b0319166001600160a01b039283161790819055601293909355610c8b9550919091169250859150611d889050565b601154610ca1906001600160a01b031682611dae565b601154604051634c85b42560e01b81526001600160a01b0390911690634c85b42590610cd1903090600401612895565b602060405180830381600087803b158015610ceb57600080fd5b505af1158015610cff573d6000803e3d6000fd5b505050506040513d601f19601f82011682018060405250810190610d23919061281a565b60185560405133906000906702c68af0bb1400009082818181858883f19350505050158015610d56573d6000803e3d6000fd5b50506001805460ff60a81b1916905550565b6007546040516370a0823160e01b815260009182916001600160a01b03909116906370a0823190610d9d903090600401612895565b60206040518083038186803b158015610db557600080fd5b505afa158015610dc9573d6000803e3d6000fd5b505050506040513d601f19601f82011682018060405250810190610ded919061281a565b9050600954811115610dfe57506009545b6000610e11610e0b611dd1565b83611e10565b50600854909150610e28908263ffffffff611c6916565b9250509091565b6000546001600160a01b031681565b600c5481565b6011546001600160a01b031681565b601b5481565b601a5481565b60065460009060ff168015610e885750601954600554610e849163ffffffff611baa16565b4210155b610ea45760405162461bcd60e51b815260040161028f90612a9b565b6000610ecd610ec0601954600554611baa90919063ffffffff16565b849063ffffffff611c6916565b9050601a54811015610f2157601a54600090610eef908363ffffffff611c6916565b9050610f18601a54610ba983610b3f601b54670de0b6b3a7640000611c6990919063ffffffff16565b92505050610f2d565b6000915050610f2d565b505b919050565b6013546001600160a01b031681565b600b5481565b60065460009060ff1615610f6d5760405162461bcd60e51b815260040161028f90612c64565b600080610f78610d68565b6006546040516370a0823160e01b8152929450909250610fc2918391610fbd91869161010090046001600160a01b0316906370a08231906109a0903090600401612895565b611c91565b9250505090565b60065461010090046001600160a01b031681565b60055481565b6001546001600160a01b0316331461100d5760405162461bcd60e51b815260040161028f906129dd565b600154600080546040516001600160a01b0393841693909116917f8be0079c531659141344cd1fd0a4f28419497f9722a3daafe3b4186f6b6457e091a360018054600080546001600160a01b03199081166001600160a01b03841617909155169055565b60085481565b60095481565b600f6020526000908152604090205460ff1681565b60065460009060ff1680156110bb57506019546005546110b79163ffffffff611baa16565b4210155b6110d75760405162461bcd60e51b815260040161028f90612a9b565b60006110ed6110e542610e5f565b601854611caf565b6011546040516370a0823160e01b81529192506111249183916001600160a01b0316906370a08231906109a0903090600401612895565b91505090565b60025481565b6015546001600160a01b031681565b6001546001600160a01b031681565b60065460ff166111705760405162461bcd60e51b815260040161028f90612a04565b336000908152600f602052604090205460ff16156111a05760405162461bcd60e51b815260040161028f90612df4565b336000908152600f60209081526040808320805460ff19166001179055600d54600e909252822054600b546111e09291610ba9919063ffffffff611cf716565b600d54336000908152600e6020526040812054600c5493945090926112109291610ba9919063ffffffff611cf716565b905061121c8583611d88565b6112268582611dae565b821561129357604051633e777c8b60e11b81526001600160a01b03861690637ceef91690611260903390869086908a908a906004016128f4565b600060405180830381600087803b15801561127a57600080fd5b505af115801561128e573d6000803e3d6000fd5b505050505b5050505050565b60025442101580156112ad575060035442105b6112c95760405162461bcd60e51b815260040161028f90612a29565b600154600160a81b900460ff16156112f35760405162461bcd60e51b815260040161028f90612a78565b6001805460ff60a81b1916600160a81b17905560155460405163babcc53960e01b815282916001600160a01b03169063babcc53990611336908490600401612895565b60206040518083038186803b15801561134e57600080fd5b505afa158015611362573d6000803e3d6000fd5b505050506040513d601f19601f8201168201806040525081019061138691906127e2565b6113a25760405162461bcd60e51b815260040161028f906129b1565b60006113ac611f16565b601454604051638198edbf60e01b815291925060009161143d9184916001600160a01b0390911690638198edbf906113e8908990600401612895565b60206040518083038186803b15801561140057600080fd5b505afa158015611414573d6000803e3d6000fd5b505050506040513d601f19601f82011682018060405250810190611438919061281a565b611caf565b601354909150611456906001600160a01b031682611dae565b61146f8461146a848463ffffffff611c6916565b611f57565b611477611fb3565b7f19421268847f42dd61705778018ddfc43bcdce8517e7a630acb12f122c7094818483836040516114aa9392919061295e565b60405180910390a150506001805460ff60a81b191690555050565b6010546001600160a01b031681565b60185481565b600a5481565b600d5481565b60125481565b60045481565b60195481565b6007546001600160a01b031681565b600254421015801561151a575060045442105b6115365760405162461bcd60e51b815260040161028f90612da2565b600154600160a81b900460ff16156115605760405162461bcd60e51b815260040161028f90612a78565b6001805460ff60a81b1916600160a81b179055336000908152600e60205260409020548311156115a25760405162461bcd60e51b815260040161028f90612c0f565b6115ac3384612048565b6115b68484611dae565b6115be611fb3565b8015611629576040516306430f1160e41b81526001600160a01b03851690636430f110906115f69033908790879087906004016128c2565b600060405180830381600087803b15801561161057600080fd5b505af1158015611624573d6000803e3d6000fd5b505050505b7f27f83af92b39768b17fe0c8d6922452702717efb8626d97e7a754e0b27d4f6d233846040516114aa9291906128a9565b60035481565b60065460ff1681565b60165481565b6001600160a01b03166000908152600e602052604090205490565b6000546001600160a01b031633146116b45760405162461bcd60e51b815260040161028f90612ceb565b600080546040516001600160a01b03808516939216917fdcf55418cee3220104fef63f979ff3c4097ad240c0c43dcb33ce837748983e6291a3600180546001600160a01b0319166001600160a01b0392909216919091179055565b6014546001600160a01b031681565b6007851461173e5760405162461bcd60e51b815260040161028f90612be4565b6117638686600081811061174e57fe5b90506020020160208101906102e49190612667565b8585600181811061177057fe5b90506020020160208101906117859190612667565b601380546001600160a01b0319166001600160a01b0392909216919091179055858560028181106117b257fe5b90506020020160208101906117c79190612667565b600660016101000a8154816001600160a01b0302191690836001600160a01b03160217905550858560038181106117fa57fe5b905060200201602081019061180f9190612667565b600780546001600160a01b0319166001600160a01b03929092169190911790558585600481811061183c57fe5b90506020020160208101906118519190612667565b601580546001600160a01b0319166001600160a01b03929092169190911790558585600581811061187e57fe5b90506020020160208101906118939190612667565b601480546001600160a01b0319166001600160a01b0392909216919091179055858560068181106118c057fe5b90506020020160208101906118d59190612667565b601080546001600160a01b0319166001600160a01b0392909216919091179055600583146119155760405162461bcd60e51b815260040161028f90612be4565b8383600081811061192257fe5b6020029190910135600255506119568484600181811061193e57fe5b90506020020135600254611baa90919063ffffffff16565b6003556119818484600281811061196957fe5b90506020020135600354611baa90919063ffffffff16565b6004558383600381811061199157fe5b602002919091013560195550838360048181106119aa57fe5b6020029190910135601a55506002544211156119d85760405162461bcd60e51b815260040161028f90612b48565b600481146119f85760405162461bcd60e51b815260040161028f90612be4565b81816000818110611a0557fe5b60200291909101356009555081816001818110611a1e57fe5b60200291909101356016555081816002818110611a3757fe5b60200291909101356017555081816003818110611a5057fe5b6020029190910135601b555060175415801590611a7e57506ec097ce7bc90715b34b9f100000000060175411155b611a9a5760405162461bcd60e51b815260040161028f90612bbd565b670de0b6b3a76400006016541115611ac45760405162461bcd60e51b815260040161028f90612d31565b670de0b6b3a7640000601b541115611aee5760405162461bcd60e51b815260040161028f90612c3a565b6006546040516370a0823160e01b81526101009091046001600160a01b0316906370a0823190611b22903090600401612895565b60206040518083038186803b158015611b3a57600080fd5b505afa158015611b4e573d6000803e3d6000fd5b505050506040513d601f19601f82011682018060405250810190611b72919061281a565b600855476702c68af0bb14000014611b9c5760405162461bcd60e51b815260040161028f90612b19565b505050505050565b60175481565b600082820183811015611bcf5760405162461bcd60e51b815260040161028f90612d0e565b90505b92915050565b60065460ff1615611bfb5760405162461bcd60e51b815260040161028f90612c64565b6006805460ff1916600117905542600555565b611c648363a9059cbb60e01b8484604051602401611c2d9291906128a9565b60408051601f198184030181529190526020810180516001600160e01b03166001600160e01b03199093169290921790915261209d565b505050565b600082821115611c8b5760405162461bcd60e51b815260040161028f90612b70565b50900390565b6000611bcf82610b4b85670de0b6b3a764000063ffffffff611cf716565b6000670de0b6b3a7640000611cca848463ffffffff611cf716565b81611cd157fe5b049392505050565b6000611bcf82610ba985670de0b6b3a764000063ffffffff611cf716565b600082611d0657506000611bd2565b82820282848281611d1357fe5b0414611bcf5760405162461bcd60e51b815260040161028f90612dd1565b600080611d3e8484611d5e565b905082810284038015611d5657506001019050611bd2565b509050611bd2565b6000808211611d7f5760405162461bcd60e51b815260040161028f90612af1565b818381611cd157fe5b8015611daa57600654611daa9061010090046001600160a01b03168383611c0e565b5050565b8015611daa57600754611daa906001600160a01b0316838363ffffffff611c0e16565b611dd961259e565b6017548152601654602082015260085460408201819052600060608301819052608083019190915260a0820181905260c082015290565b600080808460c001516002811115611e2457fe5b1415611e3f57611e34848461215a565b915060019050611f0f565b60018460c001516002811115611e5157fe5b1415611e6157611e348484612181565b6000611e7e85606001518660a00151611c6990919063ffffffff16565b90506000611e9d86608001518760400151611c6990919063ffffffff16565b905081851015611ec857611eb1868661219e565b93506002925080841115611ec3578093505b611f0c565b81851415611edc5780935060009250611f0c565b611f05611ef887611ef3888663ffffffff611c6916565b61215a565b829063ffffffff611baa16565b9350600192505b50505b9250929050565b600a546007546040516370a0823160e01b8152600092611f529290916001600160a01b03909116906370a08231906109a0903090600401612895565b905090565b6001600160a01b0382166000908152600e6020526040902054611f80908263ffffffff611baa16565b6001600160a01b0383166000908152600e6020526040902055600d54611fac908263ffffffff611baa16565b600d555050565b6007546040516370a0823160e01b81526000916001600160a01b0316906370a0823190611fe4903090600401612895565b60206040518083038186803b158015611ffc57600080fd5b505afa158015612010573d6000803e3d6000fd5b505050506040513d601f19601f82011682018060405250810190612034919061281a565b9050600a54811461204557600a8190555b50565b6001600160a01b0382166000908152600e6020526040902054612071908263ffffffff611c6916565b6001600160a01b0383166000908152600e6020526040902055600d54611fac908263ffffffff611c6916565b60006060836001600160a01b0316836040516120b9919061285c565b6000604051808303816000865af19150503d80600081146120f6576040519150601f19603f3d011682016040523d82523d6000602084013e6120fb565b606091505b50915091508161211d5760405162461bcd60e51b815260040161028f90612abc565b805115612154578080602001905181019061213891906127e2565b6121545760405162461bcd60e51b815260040161028f90612d58565b50505050565b6000611bcf836080015184608001518461217787600001516121d9565b87602001516121fa565b6000611bcf836080015184604001518461217787600001516121d9565b6000611bcf8360a001516121bf848660600151611baa90919063ffffffff16565b606086015186516121cf906121d9565b8760200151612494565b6000611bd26ec097ce7bc90715b34b9f10000000008363ffffffff611d5e16565b600080861161221b5760405162461bcd60e51b815260040161028f90612a50565b836122285750600061248b565b8161225557846122388486611caf565b1161224c576122478385611caf565b61224e565b845b905061248b565b670de0b6b3a764000082141561231557600080612278858763ffffffff611cf716565b90508061228857600091506122e1565b86818883028161229457fe5b0414156122c4576122bd6122ae898063ffffffff611cf716565b8289029063ffffffff611d5e16565b91506122e1565b6122de88610ba987610b3f83838c8e63ffffffff611cf716565b91505b61230c6122fc83670de0b6b3a764000063ffffffff611baa16565b610ba9898563ffffffff611cf716565b9250505061248b565b600061234e61232a858763ffffffff611cf716565b61234289610b3f8a610ba9898463ffffffff611cf716565b9063ffffffff611baa16565b9050600061236e87610b3f670de0b6b3a76400008763ffffffff611c6916565b9050600082821061239457612389828463ffffffff611c6916565b9150600090506123ab565b6123a4838363ffffffff611c6916565b9150600190505b6123c382670de0b6b3a764000063ffffffff611d5e16565b915060006123f56123e76004610b3f670de0b6b3a76400008a63ffffffff611c6916565b6114388c610b3f8a8f611caf565b905061241361240e82612342868063ffffffff611cf716565b61256d565b905060006124346002610b3f670de0b6b3a76400008a63ffffffff611c6916565b9050600083156124555761244e838663ffffffff611c6916565b9050612468565b612465858463ffffffff611baa16565b90505b6124826124758284611c91565b8c9063ffffffff611c6916565b96505050505050505b95945050505050565b60008086116124b55760405162461bcd60e51b815260040161028f90612a50565b60006124d76124ca878763ffffffff611c6916565b859063ffffffff611cf716565b9050826124fe576124f681670de0b6b3a764000063ffffffff611d5e16565b91505061248b565b600061251d61251788610ba98b8063ffffffff611cf716565b87611cd9565b9050600061252b8583611caf565b90506125606ec097ce7bc90715b34b9f1000000000610ba985610b3f85612342670de0b6b3a76400008c63ffffffff611c6916565b9998505050505050505050565b80600160028204015b81811015610f2b5780915060028182858161258d57fe5b04018161259657fe5b049050612576565b6040518060e00160405280600081526020016000815260200160008152602001600081526020016000815260200160008152602001600060028111156125e057fe5b905290565b60008083601f8401126125f6578182fd5b50813567ffffffffffffffff81111561260d578182fd5b6020830191508360208083028501011115611f0f57600080fd5b60008083601f840112612638578182fd5b50813567ffffffffffffffff81111561264f578182fd5b602083019150836020828501011115611f0f57600080fd5b600060208284031215612678578081fd5b8135611bcf81612e34565b600060208284031215612694578081fd5b8151611bcf81612e34565b6000806000604084860312156126b3578182fd5b83356126be81612e34565b9250602084013567ffffffffffffffff8111156126d9578283fd5b6126e586828701612627565b9497909650939450505050565b60008060008060608587031215612707578081fd5b843561271281612e34565b935060208501359250604085013567ffffffffffffffff811115612734578182fd5b61274087828801612627565b95989497509550505050565b60008060008060008060608789031215612764578182fd5b863567ffffffffffffffff8082111561277b578384fd5b6127878a838b016125e5565b9098509650602089013591508082111561279f578384fd5b6127ab8a838b016125e5565b909650945060408901359150808211156127c3578384fd5b506127d089828a016125e5565b979a9699509497509295939492505050565b6000602082840312156127f3578081fd5b81518015158114611bcf578182fd5b600060208284031215612813578081fd5b5035919050565b60006020828403121561282b578081fd5b5051919050565b60008284528282602086013780602084860101526020601f19601f85011685010190509392505050565b60008251815b8181101561287c5760208186018101518583015201612862565b8181111561288a5782828501525b509190910192915050565b6001600160a01b0391909116815260200190565b6001600160a01b03929092168252602082015260400190565b600060018060a01b0386168252846020830152606060408301526128ea606083018486612832565b9695505050505050565b600060018060a01b038716825285602083015284604083015260806060830152612922608083018486612832565b979650505050505050565b6001600160a01b03958616815293909416602084015260408301919091526060820152608081019190915260a00190565b6001600160a01b039390931683526020830191909152604082015260600190565b901515815260200190565b6020808252600d908201526c4e4f545f454d455247454e435960981b604082015260600190565b60208082526012908201527110925111115497d393d517d0531313d5d15160721b604082015260600190565b6020808252600d908201526c494e56414c49445f434c41494d60981b604082015260600190565b6020808252600b908201526a1393d517d4d1551513115160aa1b604082015260600190565b6020808252600d908201526c1393d517d4121054d157d09251609a1b604082015260600190565b6020808252600e908201526d5441524745545f49535f5a45524f60901b604082015260600190565b60208082526009908201526814915153951490539560ba1b604082015260600190565b6020808252600790820152661194915156915160ca1b604082015260600190565b6020808252818101527f5361666545524332303a206c6f772d6c6576656c2063616c6c206661696c6564604082015260600190565b6020808252600e908201526d2224ab24a224a723afa2a92927a960911b604082015260600190565b6020808252601590820152740a68aa8a8988abe8caa9c88be9c9ea8be9a82a8869605b1b604082015260600190565b6020808252600e908201526d54494d454c494e455f57524f4e4760901b604082015260600190565b60208082526009908201526829aaa12fa2a92927a960b91b604082015260600190565b60208082526010908201526f1113d113d7d25392551250531256915160821b604082015260600190565b6020808252600d908201526c495f56414c55455f57524f4e4760981b604082015260600190565b6020808252601190820152704c4953545f4c454e4754485f57524f4e4760781b604082015260600190565b6020808252601190820152700a69082a48aa6be9c9ea8be8a9c9eaa8e9607b1b604082015260600190565b60208082526010908201526f434c4946465f524154455f57524f4e4760801b604082015260600190565b6020808252600f908201526e1053149150511657d4d15515131151608a1b604082015260600190565b6020808252600d908201526c4e4f545f50484153455f45584560981b604082015260600190565b6020808252601a908201527f57455f4e4f545f534156455f4554485f41465445525f494e4954000000000000604082015260600190565b6020808252600990820152682727aa2fa7aba722a960b91b604082015260600190565b60208082526009908201526820a2222fa2a92927a960b91b604082015260600190565b6020808252600d908201526c4b5f56414c55455f57524f4e4760981b604082015260600190565b6020808252602a908201527f5361666545524332303a204552433230206f7065726174696f6e20646964206e6040820152691bdd081cdd58d8d9595960b21b606082015260800190565b6020808252601590820152744e4f545f50484153455f4249445f4f525f43414c4d60581b604082015260600190565b60208082526009908201526826aaa62fa2a92927a960b91b604082015260600190565b6020808252600f908201526e1053149150511657d0d31052535151608a1b604082015260600190565b90815260200190565b918252602082015260400190565b6001600160a01b038116811461204557600080fdfea26469706673582212205cc67d02988fe00c42c1e52f98f0f8aee00e640685b5a8dbe0ed5212e14e55a864736f6c63430006090033",
  "immutableReferences": {},
  "source": "/*\n\n    Copyright 2020 DODO ZOO.\n    SPDX-License-Identifier: Apache-2.0\n\n*/\n\npragma solidity 0.6.9;\npragma experimental ABIEncoderV2;\n\nimport {CPVesting} from \"./CPVesting.sol\";\nimport {IERC20} from \"../../intf/IERC20.sol\";\nimport {IPermissionManager} from \"../../lib/PermissionManager.sol\";\nimport {IFeeRateModel} from \"../../lib/FeeRateModel.sol\";\nimport {SafeMath} from \"../../lib/SafeMath.sol\";\n\n/**\n * @title DODO CrowdPooling\n * @author DODO Breeder\n *\n * @notice CrowdPooling initialization\n */\ncontract CP is CPVesting {\n    using SafeMath for uint256;\n\n    receive() external payable {\n        require(_INITIALIZED_ == false, \"WE_NOT_SAVE_ETH_AFTER_INIT\");\n    }\n\n    function init(\n        address[] calldata addressList,\n        uint256[] calldata timeLine,\n        uint256[] calldata valueList\n    ) external {\n        /*\n        Address List\n        0. owner\n        1. maintainer\n        2. baseToken\n        3. quoteToken\n        4. permissionManager\n        5. feeRateModel\n        6. poolFactory\n      */\n\n        require(addressList.length == 7, \"LIST_LENGTH_WRONG\");\n\n        initOwner(addressList[0]);\n        _MAINTAINER_ = addressList[1];\n        _BASE_TOKEN_ = IERC20(addressList[2]);\n        _QUOTE_TOKEN_ = IERC20(addressList[3]);\n        _BIDDER_PERMISSION_ = IPermissionManager(addressList[4]);\n        _MT_FEE_RATE_MODEL_ = IFeeRateModel(addressList[5]);\n        _POOL_FACTORY_ = addressList[6];\n\n        /*\n        Time Line\n        0. phase bid starttime\n        1. phase bid duration\n        2. phase calm duration\n        3. freeze duration\n        4. vesting duration\n        */\n\n        require(timeLine.length == 5, \"LIST_LENGTH_WRONG\");\n\n        _PHASE_BID_STARTTIME_ = timeLine[0];\n        _PHASE_BID_ENDTIME_ = _PHASE_BID_STARTTIME_.add(timeLine[1]);\n        _PHASE_CALM_ENDTIME_ = _PHASE_BID_ENDTIME_.add(timeLine[2]);\n\n        _FREEZE_DURATION_ = timeLine[3];\n        _VESTING_DURATION_ = timeLine[4];\n\n        require(block.timestamp <= _PHASE_BID_STARTTIME_, \"TIMELINE_WRONG\");\n\n        /*\n        Value List\n        0. pool quote cap\n        1. k\n        2. i\n        3. cliff rate\n        */\n\n        require(valueList.length == 4, \"LIST_LENGTH_WRONG\");\n\n        _POOL_QUOTE_CAP_ = valueList[0];\n        _K_ = valueList[1];\n        _I_ = valueList[2];\n        _CLIFF_RATE_ = valueList[3];\n\n        require(_I_ > 0 && _I_ <= 1e36, \"I_VALUE_WRONG\");\n        require(_K_ <= 1e18, \"K_VALUE_WRONG\");\n        require(_CLIFF_RATE_ <= 1e18, \"CLIFF_RATE_WRONG\");\n\n        _TOTAL_BASE_ = _BASE_TOKEN_.balanceOf(address(this));\n\n        require(address(this).balance == _SETTEL_FUND_, \"SETTLE_FUND_NOT_MATCH\");\n    }\n}\n",
  "sourcePath": "/Users/niutaotao/projects/dodo/contractV2/contracts/CrowdPooling/impl/CP.sol",
  "compiler": {
    "name": "solc",
    "version": "0.6.9+commit.3e3065ac.Emscripten.clang"
  },
  "schemaVersion": "3.3.2",
  "updatedAt": "2021-01-13T13:03:23.683Z",
  "devdoc": {
    "author": "DODO Breeder",
    "methods": {},
    "title": "DODO CrowdPooling"
  },
  "userdoc": {
    "methods": {},
    "notice": "CrowdPooling initialization"
  }
}