{
  "contractName": "CP",
  "abi": [
    {
      "anonymous": false,
      "inputs": [
        {
          "indexed": false,
          "internalType": "address",
          "name": "to",
          "type": "address"
        },
        {
          "indexed": false,
          "internalType": "uint256",
          "name": "amount",
          "type": "uint256"
        },
        {
          "indexed": false,
          "internalType": "uint256",
          "name": "fee",
          "type": "uint256"
        }
      ],
      "name": "Bid",
      "type": "event"
    },
    {
      "anonymous": false,
      "inputs": [
        {
          "indexed": false,
          "internalType": "address",
          "name": "to",
          "type": "address"
        },
        {
          "indexed": false,
          "internalType": "uint256",
          "name": "amount",
          "type": "uint256"
        }
      ],
      "name": "Cancel",
      "type": "event"
    },
    {
      "anonymous": false,
      "inputs": [
        {
          "indexed": true,
          "internalType": "address",
          "name": "previousOwner",
          "type": "address"
        },
        {
          "indexed": true,
          "internalType": "address",
          "name": "newOwner",
          "type": "address"
        }
      ],
      "name": "OwnershipTransferPrepared",
      "type": "event"
    },
    {
      "anonymous": false,
      "inputs": [
        {
          "indexed": true,
          "internalType": "address",
          "name": "previousOwner",
          "type": "address"
        },
        {
          "indexed": true,
          "internalType": "address",
          "name": "newOwner",
          "type": "address"
        }
      ],
      "name": "OwnershipTransferred",
      "type": "event"
    },
    {
      "inputs": [],
      "name": "_AVG_SETTLED_PRICE_",
      "outputs": [
        {
          "internalType": "uint256",
          "name": "",
          "type": "uint256"
        }
      ],
      "stateMutability": "view",
      "type": "function"
    },
    {
      "inputs": [],
      "name": "_BASE_TOKEN_",
      "outputs": [
        {
          "internalType": "contract IERC20",
          "name": "",
          "type": "address"
        }
      ],
      "stateMutability": "view",
      "type": "function"
    },
    {
      "inputs": [],
      "name": "_BIDDER_PERMISSION_",
      "outputs": [
        {
          "internalType": "contract IPermissionManager",
          "name": "",
          "type": "address"
        }
      ],
      "stateMutability": "view",
      "type": "function"
    },
    {
      "inputs": [],
      "name": "_CLIFF_RATE_",
      "outputs": [
        {
          "internalType": "uint256",
          "name": "",
          "type": "uint256"
        }
      ],
      "stateMutability": "view",
      "type": "function"
    },
    {
      "inputs": [],
      "name": "_FREEZE_DURATION_",
      "outputs": [
        {
          "internalType": "uint256",
          "name": "",
          "type": "uint256"
        }
      ],
      "stateMutability": "view",
      "type": "function"
    },
    {
      "inputs": [],
      "name": "_I_",
      "outputs": [
        {
          "internalType": "uint256",
          "name": "",
          "type": "uint256"
        }
      ],
      "stateMutability": "view",
      "type": "function"
    },
    {
      "inputs": [],
      "name": "_K_",
      "outputs": [
        {
          "internalType": "uint256",
          "name": "",
          "type": "uint256"
        }
      ],
      "stateMutability": "view",
      "type": "function"
    },
    {
      "inputs": [],
      "name": "_MAINTAINER_",
      "outputs": [
        {
          "internalType": "address",
          "name": "",
          "type": "address"
        }
      ],
      "stateMutability": "view",
      "type": "function"
    },
    {
      "inputs": [],
      "name": "_MT_FEE_RATE_MODEL_",
      "outputs": [
        {
          "internalType": "contract IFeeRateModel",
          "name": "",
          "type": "address"
        }
      ],
      "stateMutability": "view",
      "type": "function"
    },
    {
      "inputs": [],
      "name": "_NEW_OWNER_",
      "outputs": [
        {
          "internalType": "address",
          "name": "",
          "type": "address"
        }
      ],
      "stateMutability": "view",
      "type": "function"
    },
    {
      "inputs": [],
      "name": "_OWNER_",
      "outputs": [
        {
          "internalType": "address",
          "name": "",
          "type": "address"
        }
      ],
      "stateMutability": "view",
      "type": "function"
    },
    {
      "inputs": [],
      "name": "_PHASE_BID_ENDTIME_",
      "outputs": [
        {
          "internalType": "uint256",
          "name": "",
          "type": "uint256"
        }
      ],
      "stateMutability": "view",
      "type": "function"
    },
    {
      "inputs": [],
      "name": "_PHASE_BID_STARTTIME_",
      "outputs": [
        {
          "internalType": "uint256",
          "name": "",
          "type": "uint256"
        }
      ],
      "stateMutability": "view",
      "type": "function"
    },
    {
      "inputs": [],
      "name": "_PHASE_CALM_ENDTIME_",
      "outputs": [
        {
          "internalType": "uint256",
          "name": "",
          "type": "uint256"
        }
      ],
      "stateMutability": "view",
      "type": "function"
    },
    {
      "inputs": [],
      "name": "_POOL_",
      "outputs": [
        {
          "internalType": "address",
          "name": "",
          "type": "address"
        }
      ],
      "stateMutability": "view",
      "type": "function"
    },
    {
      "inputs": [],
      "name": "_POOL_FACTORY_",
      "outputs": [
        {
          "internalType": "address",
          "name": "",
          "type": "address"
        }
      ],
      "stateMutability": "view",
      "type": "function"
    },
    {
      "inputs": [],
      "name": "_POOL_QUOTE_CAP_",
      "outputs": [
        {
          "internalType": "uint256",
          "name": "",
          "type": "uint256"
        }
      ],
      "stateMutability": "view",
      "type": "function"
    },
    {
      "inputs": [],
      "name": "_QUOTE_RESERVE_",
      "outputs": [
        {
          "internalType": "uint256",
          "name": "",
          "type": "uint256"
        }
      ],
      "stateMutability": "view",
      "type": "function"
    },
    {
      "inputs": [],
      "name": "_QUOTE_TOKEN_",
      "outputs": [
        {
          "internalType": "contract IERC20",
          "name": "",
          "type": "address"
        }
      ],
      "stateMutability": "view",
      "type": "function"
    },
    {
      "inputs": [],
      "name": "_SETTLED_",
      "outputs": [
        {
          "internalType": "bool",
          "name": "",
          "type": "bool"
        }
      ],
      "stateMutability": "view",
      "type": "function"
    },
    {
      "inputs": [],
      "name": "_SETTLED_TIME_",
      "outputs": [
        {
          "internalType": "uint256",
          "name": "",
          "type": "uint256"
        }
      ],
      "stateMutability": "view",
      "type": "function"
    },
    {
      "inputs": [],
      "name": "_TOTAL_BASE_",
      "outputs": [
        {
          "internalType": "uint256",
          "name": "",
          "type": "uint256"
        }
      ],
      "stateMutability": "view",
      "type": "function"
    },
    {
      "inputs": [],
      "name": "_TOTAL_LP_AMOUNT_",
      "outputs": [
        {
          "internalType": "uint256",
          "name": "",
          "type": "uint256"
        }
      ],
      "stateMutability": "view",
      "type": "function"
    },
    {
      "inputs": [],
      "name": "_TOTAL_SHARES_",
      "outputs": [
        {
          "internalType": "uint256",
          "name": "",
          "type": "uint256"
        }
      ],
      "stateMutability": "view",
      "type": "function"
    },
    {
      "inputs": [],
      "name": "_UNUSED_BASE_",
      "outputs": [
        {
          "internalType": "uint256",
          "name": "",
          "type": "uint256"
        }
      ],
      "stateMutability": "view",
      "type": "function"
    },
    {
      "inputs": [],
      "name": "_UNUSED_QUOTE_",
      "outputs": [
        {
          "internalType": "uint256",
          "name": "",
          "type": "uint256"
        }
      ],
      "stateMutability": "view",
      "type": "function"
    },
    {
      "inputs": [],
      "name": "_VESTING_DURATION_",
      "outputs": [
        {
          "internalType": "uint256",
          "name": "",
          "type": "uint256"
        }
      ],
      "stateMutability": "view",
      "type": "function"
    },
    {
      "inputs": [
        {
          "internalType": "address",
          "name": "to",
          "type": "address"
        }
      ],
      "name": "bid",
      "outputs": [],
      "stateMutability": "nonpayable",
      "type": "function"
    },
    {
      "inputs": [],
      "name": "bidderClaim",
      "outputs": [],
      "stateMutability": "nonpayable",
      "type": "function"
    },
    {
      "inputs": [
        {
          "internalType": "address",
          "name": "assetTo",
          "type": "address"
        },
        {
          "internalType": "uint256",
          "name": "amount",
          "type": "uint256"
        }
      ],
      "name": "cancel",
      "outputs": [],
      "stateMutability": "nonpayable",
      "type": "function"
    },
    {
      "inputs": [],
      "name": "claimLPToken",
      "outputs": [],
      "stateMutability": "nonpayable",
      "type": "function"
    },
    {
      "inputs": [],
      "name": "claimOwnership",
      "outputs": [],
      "stateMutability": "nonpayable",
      "type": "function"
    },
    {
      "inputs": [],
      "name": "emergencySettle",
      "outputs": [],
      "stateMutability": "nonpayable",
      "type": "function"
    },
    {
      "inputs": [],
      "name": "getClaimableLPToken",
      "outputs": [
        {
          "internalType": "uint256",
          "name": "",
          "type": "uint256"
        }
      ],
      "stateMutability": "view",
      "type": "function"
    },
    {
      "inputs": [],
      "name": "getExpectedAvgPrice",
      "outputs": [
        {
          "internalType": "uint256",
          "name": "",
          "type": "uint256"
        }
      ],
      "stateMutability": "view",
      "type": "function"
    },
    {
      "inputs": [
        {
          "internalType": "uint256",
          "name": "timestamp",
          "type": "uint256"
        }
      ],
      "name": "getRemainingLPRatio",
      "outputs": [
        {
          "internalType": "uint256",
          "name": "",
          "type": "uint256"
        }
      ],
      "stateMutability": "view",
      "type": "function"
    },
    {
      "inputs": [],
      "name": "getSettleResult",
      "outputs": [
        {
          "internalType": "uint256",
          "name": "poolBase",
          "type": "uint256"
        },
        {
          "internalType": "uint256",
          "name": "poolQuote",
          "type": "uint256"
        }
      ],
      "stateMutability": "view",
      "type": "function"
    },
    {
      "inputs": [
        {
          "internalType": "address",
          "name": "user",
          "type": "address"
        }
      ],
      "name": "getShares",
      "outputs": [
        {
          "internalType": "uint256",
          "name": "",
          "type": "uint256"
        }
      ],
      "stateMutability": "view",
      "type": "function"
    },
    {
      "inputs": [
        {
          "internalType": "address",
          "name": "newOwner",
          "type": "address"
        }
      ],
      "name": "initOwner",
      "outputs": [],
      "stateMutability": "nonpayable",
      "type": "function"
    },
    {
      "inputs": [],
      "name": "settle",
      "outputs": [],
      "stateMutability": "nonpayable",
      "type": "function"
    },
    {
      "inputs": [
        {
          "internalType": "address",
          "name": "newOwner",
          "type": "address"
        }
      ],
      "name": "transferOwnership",
      "outputs": [],
      "stateMutability": "nonpayable",
      "type": "function"
    },
    {
      "stateMutability": "payable",
      "type": "receive"
    },
    {
      "inputs": [
        {
          "internalType": "address[]",
          "name": "addressList",
          "type": "address[]"
        },
        {
          "internalType": "uint256[]",
          "name": "timeLine",
          "type": "uint256[]"
        },
        {
          "internalType": "uint256[]",
          "name": "valueList",
          "type": "uint256[]"
        }
      ],
      "name": "init",
      "outputs": [],
      "stateMutability": "nonpayable",
      "type": "function"
    }
  ],
  "bytecode": "0x608060405234801561001057600080fd5b50612cf7806100206000396000f3fe6080604052600436106102555760003560e01c80637327a88511610139578063cd912946116100b6578063ec2fd46d1161007a578063ec2fd46d146105f2578063f04da65b14610607578063f2fde38b14610627578063f6b06e7014610647578063f74471841461065c578063f811d6921461067c5761028f565b8063cd9129461461057c578063ce90ea7414610591578063d4b97046146105a6578063e4e327db146105bb578063eb3c2b08146105d05761028f565b80639e104a21116100fd5780639e104a2114610513578063a657061814610528578063bbf5ce781461053d578063bea586a214610552578063c025aa33146105675761028f565b80637327a88514610494578063832d23ec146104a95780638456db15146104be57806398590ef9146104d35780639cf5453d146104f35761028f565b80632f655da7116101d25780634a248d2a116101965780634a248d2a146104165780634afc0d7b1461042b5780634e71e0c8146104405780634ed90a641461045557806361ce802e1461046a5780636a7ba71e1461047f5761028f565b80632f655da7146103a25780633f253e38146103b75780634322ec83146103d757806344b20ee9146103ec578063486c5971146104015761028f565b806316048bc41161021957806316048bc41461031f5780631aae38e8146103415780631be69021146103635780632098c75b14610378578063294dafc01461038d5761028f565b806306fe8766146102945780630bc3b1c0146102a95780630d009297146102be57806311da60b4146102de57806312911e49146102f35761028f565b3661028f57600154600160a01b900460ff161561028d5760405162461bcd60e51b815260040161028490612b2c565b60405180910390fd5b005b600080fd5b3480156102a057600080fd5b5061028d610691565b3480156102b557600080fd5b5061028d610846565b3480156102ca57600080fd5b5061028d6102d93660046125f6565b6108e5565b3480156102ea57600080fd5b5061028d610945565b3480156102ff57600080fd5b50610308610e19565b604051610316929190612c9e565b60405180910390f35b34801561032b57600080fd5b50610334610ee0565b6040516103169190612778565b34801561034d57600080fd5b50610356610eef565b6040516103169190612c95565b34801561036f57600080fd5b5061028d610ef5565b34801561038457600080fd5b50610334610fc6565b34801561039957600080fd5b50610356610fd5565b3480156103ae57600080fd5b50610356610fdb565b3480156103c357600080fd5b506103566103d236600461270f565b610fe1565b3480156103e357600080fd5b506103346110b4565b3480156103f857600080fd5b506103566110c3565b34801561040d57600080fd5b506103566110c9565b34801561042257600080fd5b5061033461114b565b34801561043757600080fd5b5061035661115f565b34801561044c57600080fd5b5061028d611165565b34801561046157600080fd5b506103566111f3565b34801561047657600080fd5b506103566111f9565b34801561048b57600080fd5b506103566111ff565b3480156104a057600080fd5b50610356611297565b3480156104b557600080fd5b5061033461129d565b3480156104ca57600080fd5b506103346112ac565b3480156104df57600080fd5b5061028d6104ee36600461262e565b6112bb565b3480156104ff57600080fd5b5061028d61050e3660046125f6565b6113bc565b34801561051f57600080fd5b506103346115e7565b34801561053457600080fd5b506103566115f6565b34801561054957600080fd5b506103566115fc565b34801561055e57600080fd5b50610356611602565b34801561057357600080fd5b50610356611608565b34801561058857600080fd5b5061035661160e565b34801561059d57600080fd5b50610356611614565b3480156105b257600080fd5b5061033461161a565b3480156105c757600080fd5b50610356611629565b3480156105dc57600080fd5b506105e561162f565b60405161031691906127f7565b3480156105fe57600080fd5b50610356611638565b34801561061357600080fd5b506103566106223660046125f6565b61163e565b34801561063357600080fd5b5061028d6106423660046125f6565b611659565b34801561065357600080fd5b506103346116de565b34801561066857600080fd5b5061028d610677366004612659565b6116ed565b34801561068857600080fd5b50610356611b73565b6004544210156106b35760405162461bcd60e51b815260040161028490612b05565b600154600160a81b900460ff16156106dd5760405162461bcd60e51b8152600401610284906128f0565b6001805460ff60a81b1916600160a81b1790556004546107069062093a8063ffffffff611b7916565b4210156107255760405162461bcd60e51b815260040161028490612802565b61072d611ba7565b6007546040516370a0823160e01b81526001600160a01b03909116906370a082319061075d903090600401612778565b60206040518083038186803b15801561077557600080fd5b505afa158015610789573d6000803e3d6000fd5b505050506040513d601f19601f820116820180604052508101906107ad9190612727565b600c556006546040516370a0823160e01b81526101009091046001600160a01b0316906370a08231906107e4903090600401612778565b60206040518083038186803b1580156107fc57600080fd5b505afa158015610810573d6000803e3d6000fd5b505050506040513d601f19601f820116820180604052508101906108349190612727565b600b556001805460ff60a81b19169055565b6000546001600160a01b031633146108705760405162461bcd60e51b815260040161028490612b63565b60065460ff16801561089657506019546005546108929163ffffffff611b7916565b4210155b6108b25760405162461bcd60e51b815260040161028490612913565b6000546108e3906001600160a01b03166108ca6111ff565b6011546001600160a01b0316919063ffffffff611bdd16565b565b600154600160a01b900460ff161561090f5760405162461bcd60e51b815260040161028490612a0b565b6001805460ff60a01b1916600160a01b179055600080546001600160a01b039092166001600160a01b0319909216919091179055565b6004544210156109675760405162461bcd60e51b815260040161028490612b05565b600154600160a81b900460ff16156109915760405162461bcd60e51b8152600401610284906128f0565b6001805460ff60a81b1916600160a81b1790556109ac611ba7565b6000806109b7610e19565b6007546040516370a0823160e01b8152929450909250610a4d9183916001600160a01b0316906370a08231906109f1903090600401612778565b60206040518083038186803b158015610a0957600080fd5b505afa158015610a1d573d6000803e3d6000fd5b505050506040513d601f19601f82011682018060405250810190610a419190612727565b9063ffffffff611c3816565b600c556006546040516370a0823160e01b8152610a8a9184916101009091046001600160a01b0316906370a08231906109f1903090600401612778565b600b81905550600080600080600b54600014610ab157610aac85600b54611c60565b610ab5565b6017545b90506000610ac38288611c7e565b905085610af0576006546007546017546001600160a01b0361010090930483169750911694509250610c6a565b610b00868863ffffffff611ca816565b600b54610b1490889063ffffffff611ca816565b1415610b3e576006546007546001600160a01b036101009092048216965016935060019250610c6a565b610b4e868863ffffffff611ca816565b600b54610b6290889063ffffffff611ca816565b1015610bf0576006546007546001600160a01b03610100909204821696501693506000610ba7610b928884611ce2565b670de0b6b3a76400009063ffffffff611c3816565b9050610be86ec097ce7bc90715b34b9f1000000000610bdc83610bd0878263ffffffff611ca816565b9063ffffffff611ca816565b9063ffffffff611d0016565b935050610c6a565b610c00868863ffffffff611ca816565b600b54610c1490889063ffffffff611ca816565b1115610c6a576007546006546001600160a01b03918216965061010090041693506000610c44610b928389611c60565b9050610c6683610c5a838063ffffffff611ca816565b9063ffffffff611d2d16565b9350505b60105460405163534ee7eb60e11b81526001600160a01b039091169063a69dcfd690610cb19088908890660aa87bee538000908990670de0b6b3a76400009060040161278c565b602060405180830381600087803b158015610ccb57600080fd5b505af1158015610cdf573d6000803e3d6000fd5b505050506040513d601f19601f82011682018060405250810190610d039190612612565b601180546001600160a01b0319166001600160a01b039283161790819055601293909355610d3c9550919091169250859150611d579050565b601154610d52906001600160a01b031682611d7d565b601154604051634c85b42560e01b81526001600160a01b0390911690634c85b42590610d82903090600401612778565b602060405180830381600087803b158015610d9c57600080fd5b505af1158015610db0573d6000803e3d6000fd5b505050506040513d601f19601f82011682018060405250810190610dd49190612727565b60185560405133906000906702c68af0bb1400009082818181858883f19350505050158015610e07573d6000803e3d6000fd5b50506001805460ff60a81b1916905550565b6007546040516370a0823160e01b815260009182916001600160a01b03909116906370a0823190610e4e903090600401612778565b60206040518083038186803b158015610e6657600080fd5b505afa158015610e7a573d6000803e3d6000fd5b505050506040513d601f19601f82011682018060405250810190610e9e9190612727565b9050600954811115610eaf57506009545b6000610ec2610ebc611da0565b83611ddf565b50600854909150610ed9908263ffffffff611c3816565b9250509091565b6000546001600160a01b031681565b600c5481565b60065460ff16610f175760405162461bcd60e51b81526004016102849061287c565b336000908152600f602052604090205460ff1615610f475760405162461bcd60e51b815260040161028490612c6c565b336000818152600f60209081526040808320805460ff19166001179055600d54600e90925290912054600b54610f929392610f8d929091610c5a9163ffffffff611ca816565b611d57565b600d54336000818152600e6020526040902054600c546108e393610fc1929091610c5a9163ffffffff611ca816565b611d7d565b6011546001600160a01b031681565b601b5481565b601a5481565b60065460009060ff16801561100a57506019546005546110069163ffffffff611b7916565b4210155b6110265760405162461bcd60e51b815260040161028490612913565b600061104f611042601954600554611b7990919063ffffffff16565b849063ffffffff611c3816565b9050601a548110156110a357601a54600090611071908363ffffffff611c3816565b905061109a601a54610c5a83610bd0601b54670de0b6b3a7640000611c3890919063ffffffff16565b925050506110af565b60009150506110af565b505b919050565b6013546001600160a01b031681565b600b5481565b60065460009060ff16156110ef5760405162461bcd60e51b815260040161028490612adc565b6000806110fa610e19565b6006546040516370a0823160e01b815292945090925061114491839161113f91869161010090046001600160a01b0316906370a08231906109f1903090600401612778565b611c60565b9250505090565b60065461010090046001600160a01b031681565b60055481565b6001546001600160a01b0316331461118f5760405162461bcd60e51b815260040161028490612855565b600154600080546040516001600160a01b0393841693909116917f8be0079c531659141344cd1fd0a4f28419497f9722a3daafe3b4186f6b6457e091a360018054600080546001600160a01b03199081166001600160a01b03841617909155169055565b60085481565b60095481565b60065460009060ff16801561122857506019546005546112249163ffffffff611b7916565b4210155b6112445760405162461bcd60e51b815260040161028490612913565b600061125a61125242610fe1565b601854611c7e565b6011546040516370a0823160e01b81529192506112919183916001600160a01b0316906370a08231906109f1903090600401612778565b91505090565b60025481565b6015546001600160a01b031681565b6001546001600160a01b031681565b60025442101580156112ce575060045442105b6112ea5760405162461bcd60e51b815260040161028490612c1a565b600154600160a81b900460ff16156113145760405162461bcd60e51b8152600401610284906128f0565b6001805460ff60a81b1916600160a81b179055336000908152600e60205260409020548111156113565760405162461bcd60e51b815260040161028490612a87565b6113603382611ee5565b61136a8282611d7d565b611372611f41565b7f27f83af92b39768b17fe0c8d6922452702717efb8626d97e7a754e0b27d4f6d282826040516113a39291906127bd565b60405180910390a150506001805460ff60a81b19169055565b60025442101580156113cf575060035442105b6113eb5760405162461bcd60e51b8152600401610284906128a1565b600154600160a81b900460ff16156114155760405162461bcd60e51b8152600401610284906128f0565b6001805460ff60a81b1916600160a81b17905560155460405163babcc53960e01b815282916001600160a01b03169063babcc53990611458908490600401612778565b60206040518083038186803b15801561147057600080fd5b505afa158015611484573d6000803e3d6000fd5b505050506040513d601f19601f820116820180604052508101906114a891906126ef565b6114c45760405162461bcd60e51b815260040161028490612829565b60006114ce611fd6565b601454604051638198edbf60e01b815291925060009161155f9184916001600160a01b0390911690638198edbf9061150a908990600401612778565b60206040518083038186803b15801561152257600080fd5b505afa158015611536573d6000803e3d6000fd5b505050506040513d601f19601f8201168201806040525081019061155a9190612727565b611c7e565b601354909150611578906001600160a01b031682611d7d565b6115918461158c848463ffffffff611c3816565b612017565b611599611f41565b7f19421268847f42dd61705778018ddfc43bcdce8517e7a630acb12f122c7094818483836040516115cc939291906127d6565b60405180910390a150506001805460ff60a81b191690555050565b6010546001600160a01b031681565b60185481565b600a5481565b600d5481565b60125481565b60045481565b60195481565b6007546001600160a01b031681565b60035481565b60065460ff1681565b60165481565b6001600160a01b03166000908152600e602052604090205490565b6000546001600160a01b031633146116835760405162461bcd60e51b815260040161028490612b63565b600080546040516001600160a01b03808516939216917fdcf55418cee3220104fef63f979ff3c4097ad240c0c43dcb33ce837748983e6291a3600180546001600160a01b0319166001600160a01b0392909216919091179055565b6014546001600160a01b031681565b6007851461170d5760405162461bcd60e51b815260040161028490612a5c565b6117328686600081811061171d57fe5b90506020020160208101906102d991906125f6565b8585600181811061173f57fe5b905060200201602081019061175491906125f6565b601380546001600160a01b0319166001600160a01b03929092169190911790558585600281811061178157fe5b905060200201602081019061179691906125f6565b600660016101000a8154816001600160a01b0302191690836001600160a01b03160217905550858560038181106117c957fe5b90506020020160208101906117de91906125f6565b600780546001600160a01b0319166001600160a01b03929092169190911790558585600481811061180b57fe5b905060200201602081019061182091906125f6565b601580546001600160a01b0319166001600160a01b03929092169190911790558585600581811061184d57fe5b905060200201602081019061186291906125f6565b601480546001600160a01b0319166001600160a01b03929092169190911790558585600681811061188f57fe5b90506020020160208101906118a491906125f6565b601080546001600160a01b0319166001600160a01b0392909216919091179055600583146118e45760405162461bcd60e51b815260040161028490612a5c565b838360008181106118f157fe5b6020029190910135600255506119258484600181811061190d57fe5b90506020020135600254611b7990919063ffffffff16565b6003556119508484600281811061193857fe5b90506020020135600354611b7990919063ffffffff16565b6004558383600381811061196057fe5b6020029190910135601955508383600481811061197957fe5b6020029190910135601a55506002544211156119a75760405162461bcd60e51b8152600401610284906129c0565b600481146119c75760405162461bcd60e51b815260040161028490612a5c565b818160008181106119d457fe5b602002919091013560095550818160018181106119ed57fe5b60200291909101356016555081816002818110611a0657fe5b60200291909101356017555081816003818110611a1f57fe5b6020029190910135601b555060175415801590611a4d57506ec097ce7bc90715b34b9f100000000060175411155b611a695760405162461bcd60e51b815260040161028490612a35565b670de0b6b3a76400006016541115611a935760405162461bcd60e51b815260040161028490612ba9565b670de0b6b3a7640000601b541115611abd5760405162461bcd60e51b815260040161028490612ab2565b6006546040516370a0823160e01b81526101009091046001600160a01b0316906370a0823190611af1903090600401612778565b60206040518083038186803b158015611b0957600080fd5b505afa158015611b1d573d6000803e3d6000fd5b505050506040513d601f19601f82011682018060405250810190611b419190612727565b600855476702c68af0bb14000014611b6b5760405162461bcd60e51b815260040161028490612991565b505050505050565b60175481565b600082820183811015611b9e5760405162461bcd60e51b815260040161028490612b86565b90505b92915050565b60065460ff1615611bca5760405162461bcd60e51b815260040161028490612adc565b6006805460ff1916600117905542600555565b611c338363a9059cbb60e01b8484604051602401611bfc9291906127bd565b60408051601f198184030181529190526020810180516001600160e01b03166001600160e01b03199093169290921790915261206c565b505050565b600082821115611c5a5760405162461bcd60e51b8152600401610284906129e8565b50900390565b6000611b9e82610bdc85670de0b6b3a764000063ffffffff611ca816565b6000670de0b6b3a7640000611c99848463ffffffff611ca816565b81611ca057fe5b049392505050565b600082611cb757506000611ba1565b82820282848281611cc457fe5b0414611b9e5760405162461bcd60e51b815260040161028490612c49565b6000611b9e82610c5a85670de0b6b3a764000063ffffffff611ca816565b600080611d0d8484611d2d565b905082810284038015611d2557506001019050611ba1565b509050611ba1565b6000808211611d4e5760405162461bcd60e51b815260040161028490612969565b818381611ca057fe5b8015611d7957600654611d799061010090046001600160a01b03168383611bdd565b5050565b8015611d7957600754611d79906001600160a01b0316838363ffffffff611bdd16565b611da861256d565b6017548152601654602082015260085460408201819052600060608301819052608083019190915260a0820181905260c082015290565b600080808460c001516002811115611df357fe5b1415611e0e57611e038484612129565b915060019050611ede565b60018460c001516002811115611e2057fe5b1415611e3057611e038484612150565b6000611e4d85606001518660a00151611c3890919063ffffffff16565b90506000611e6c86608001518760400151611c3890919063ffffffff16565b905081851015611e9757611e80868661216d565b93506002925080841115611e92578093505b611edb565b81851415611eab5780935060009250611edb565b611ed4611ec787611ec2888663ffffffff611c3816565b612129565b829063ffffffff611b7916565b9350600192505b50505b9250929050565b6001600160a01b0382166000908152600e6020526040902054611f0e908263ffffffff611c3816565b6001600160a01b0383166000908152600e6020526040902055600d54611f3a908263ffffffff611c3816565b600d555050565b6007546040516370a0823160e01b81526000916001600160a01b0316906370a0823190611f72903090600401612778565b60206040518083038186803b158015611f8a57600080fd5b505afa158015611f9e573d6000803e3d6000fd5b505050506040513d601f19601f82011682018060405250810190611fc29190612727565b9050600a548114611fd357600a8190555b50565b600a546007546040516370a0823160e01b81526000926120129290916001600160a01b03909116906370a08231906109f1903090600401612778565b905090565b6001600160a01b0382166000908152600e6020526040902054612040908263ffffffff611b7916565b6001600160a01b0383166000908152600e6020526040902055600d54611f3a908263ffffffff611b7916565b60006060836001600160a01b031683604051612088919061273f565b6000604051808303816000865af19150503d80600081146120c5576040519150601f19603f3d011682016040523d82523d6000602084013e6120ca565b606091505b5091509150816120ec5760405162461bcd60e51b815260040161028490612934565b805115612123578080602001905181019061210791906126ef565b6121235760405162461bcd60e51b815260040161028490612bd0565b50505050565b6000611b9e836080015184608001518461214687600001516121a8565b87602001516121c9565b6000611b9e836080015184604001518461214687600001516121a8565b6000611b9e8360a0015161218e848660600151611b7990919063ffffffff16565b6060860151865161219e906121a8565b8760200151612463565b6000611ba16ec097ce7bc90715b34b9f10000000008363ffffffff611d2d16565b60008086116121ea5760405162461bcd60e51b8152600401610284906128c8565b836121f75750600061245a565b8161222457846122078486611c7e565b1161221b576122168385611c7e565b61221d565b845b905061245a565b670de0b6b3a76400008214156122e457600080612247858763ffffffff611ca816565b90508061225757600091506122b0565b86818883028161226357fe5b0414156122935761228c61227d898063ffffffff611ca816565b8289029063ffffffff611d2d16565b91506122b0565b6122ad88610c5a87610bd083838c8e63ffffffff611ca816565b91505b6122db6122cb83670de0b6b3a764000063ffffffff611b7916565b610c5a898563ffffffff611ca816565b9250505061245a565b600061231d6122f9858763ffffffff611ca816565b61231189610bd08a610c5a898463ffffffff611ca816565b9063ffffffff611b7916565b9050600061233d87610bd0670de0b6b3a76400008763ffffffff611c3816565b9050600082821061236357612358828463ffffffff611c3816565b91506000905061237a565b612373838363ffffffff611c3816565b9150600190505b61239282670de0b6b3a764000063ffffffff611d2d16565b915060006123c46123b66004610bd0670de0b6b3a76400008a63ffffffff611c3816565b61155a8c610bd08a8f611c7e565b90506123e26123dd82612311868063ffffffff611ca816565b61253c565b905060006124036002610bd0670de0b6b3a76400008a63ffffffff611c3816565b9050600083156124245761241d838663ffffffff611c3816565b9050612437565b612434858463ffffffff611b7916565b90505b6124516124448284611c60565b8c9063ffffffff611c3816565b96505050505050505b95945050505050565b60008086116124845760405162461bcd60e51b8152600401610284906128c8565b60006124a6612499878763ffffffff611c3816565b859063ffffffff611ca816565b9050826124cd576124c581670de0b6b3a764000063ffffffff611d2d16565b91505061245a565b60006124ec6124e688610c5a8b8063ffffffff611ca816565b87611ce2565b905060006124fa8583611c7e565b905061252f6ec097ce7bc90715b34b9f1000000000610c5a85610bd085612311670de0b6b3a76400008c63ffffffff611c3816565b9998505050505050505050565b80600160028204015b818110156110ad5780915060028182858161255c57fe5b04018161256557fe5b049050612545565b6040518060e00160405280600081526020016000815260200160008152602001600081526020016000815260200160008152602001600060028111156125af57fe5b905290565b60008083601f8401126125c5578182fd5b50813567ffffffffffffffff8111156125dc578182fd5b6020830191508360208083028501011115611ede57600080fd5b600060208284031215612607578081fd5b8135611b9e81612cac565b600060208284031215612623578081fd5b8151611b9e81612cac565b60008060408385031215612640578081fd5b823561264b81612cac565b946020939093013593505050565b60008060008060008060608789031215612671578182fd5b863567ffffffffffffffff80821115612688578384fd5b6126948a838b016125b4565b909850965060208901359150808211156126ac578384fd5b6126b88a838b016125b4565b909650945060408901359150808211156126d0578384fd5b506126dd89828a016125b4565b979a9699509497509295939492505050565b600060208284031215612700578081fd5b81518015158114611b9e578182fd5b600060208284031215612720578081fd5b5035919050565b600060208284031215612738578081fd5b5051919050565b60008251815b8181101561275f5760208186018101518583015201612745565b8181111561276d5782828501525b509190910192915050565b6001600160a01b0391909116815260200190565b6001600160a01b03958616815293909416602084015260408301919091526060820152608081019190915260a00190565b6001600160a01b03929092168252602082015260400190565b6001600160a01b039390931683526020830191909152604082015260600190565b901515815260200190565b6020808252600d908201526c4e4f545f454d455247454e435960981b604082015260600190565b60208082526012908201527110925111115497d393d517d0531313d5d15160721b604082015260600190565b6020808252600d908201526c494e56414c49445f434c41494d60981b604082015260600190565b6020808252600b908201526a1393d517d4d1551513115160aa1b604082015260600190565b6020808252600d908201526c1393d517d4121054d157d09251609a1b604082015260600190565b6020808252600e908201526d5441524745545f49535f5a45524f60901b604082015260600190565b60208082526009908201526814915153951490539560ba1b604082015260600190565b6020808252600790820152661194915156915160ca1b604082015260600190565b6020808252818101527f5361666545524332303a206c6f772d6c6576656c2063616c6c206661696c6564604082015260600190565b6020808252600e908201526d2224ab24a224a723afa2a92927a960911b604082015260600190565b6020808252601590820152740a68aa8a8988abe8caa9c88be9c9ea8be9a82a8869605b1b604082015260600190565b6020808252600e908201526d54494d454c494e455f57524f4e4760901b604082015260600190565b60208082526009908201526829aaa12fa2a92927a960b91b604082015260600190565b60208082526010908201526f1113d113d7d25392551250531256915160821b604082015260600190565b6020808252600d908201526c495f56414c55455f57524f4e4760981b604082015260600190565b6020808252601190820152704c4953545f4c454e4754485f57524f4e4760781b604082015260600190565b6020808252601190820152700a69082a48aa6be9c9ea8be8a9c9eaa8e9607b1b604082015260600190565b60208082526010908201526f434c4946465f524154455f57524f4e4760801b604082015260600190565b6020808252600f908201526e1053149150511657d4d15515131151608a1b604082015260600190565b6020808252600d908201526c4e4f545f50484153455f45584560981b604082015260600190565b6020808252601a908201527f57455f4e4f545f534156455f4554485f41465445525f494e4954000000000000604082015260600190565b6020808252600990820152682727aa2fa7aba722a960b91b604082015260600190565b60208082526009908201526820a2222fa2a92927a960b91b604082015260600190565b6020808252600d908201526c4b5f56414c55455f57524f4e4760981b604082015260600190565b6020808252602a908201527f5361666545524332303a204552433230206f7065726174696f6e20646964206e6040820152691bdd081cdd58d8d9595960b21b606082015260800190565b6020808252601590820152744e4f545f50484153455f4249445f4f525f43414c4d60581b604082015260600190565b60208082526009908201526826aaa62fa2a92927a960b91b604082015260600190565b6020808252600f908201526e1053149150511657d0d31052535151608a1b604082015260600190565b90815260200190565b918252602082015260400190565b6001600160a01b0381168114611fd357600080fdfea2646970667358221220ff3f9b71669e84d4bc398a57b7b75fbe5e1d2fa5ef80d3bfcd1260921756015964736f6c63430006090033",
  "immutableReferences": {},
  "source": "/*\n\n    Copyright 2020 DODO ZOO.\n    SPDX-License-Identifier: Apache-2.0\n\n*/\n\npragma solidity 0.6.9;\npragma experimental ABIEncoderV2;\n\nimport {CPVesting} from \"./CPVesting.sol\";\nimport {IERC20} from \"../../intf/IERC20.sol\";\nimport {IPermissionManager} from \"../../lib/PermissionManager.sol\";\nimport {IFeeRateModel} from \"../../lib/FeeRateModel.sol\";\nimport {SafeMath} from \"../../lib/SafeMath.sol\";\n\ncontract CP is CPVesting {\n    using SafeMath for uint256;\n\n    receive() external payable {\n        require(_INITIALIZED_ == false, \"WE_NOT_SAVE_ETH_AFTER_INIT\");\n    }\n\n    function init(\n        address[] calldata addressList,\n        uint256[] calldata timeLine,\n        uint256[] calldata valueList\n    ) external {\n        /*\n        Address List\n        0. owner\n        1. maintainer\n        2. baseToken\n        3. quoteToken\n        4. permissionManager\n        5. feeRateModel\n        6. poolFactory\n      */\n\n        require(addressList.length == 7, \"LIST_LENGTH_WRONG\");\n\n        initOwner(addressList[0]);\n        _MAINTAINER_ = addressList[1];\n        _BASE_TOKEN_ = IERC20(addressList[2]);\n        _QUOTE_TOKEN_ = IERC20(addressList[3]);\n        _BIDDER_PERMISSION_ = IPermissionManager(addressList[4]);\n        _MT_FEE_RATE_MODEL_ = IFeeRateModel(addressList[5]);\n        _POOL_FACTORY_ = addressList[6];\n\n        /*\n        Time Line\n        0. phase bid starttime\n        1. phase bid duration\n        2. phase calm duration\n        3. freeze duration\n        4. vesting duration\n        */\n\n        require(timeLine.length == 5, \"LIST_LENGTH_WRONG\");\n\n        _PHASE_BID_STARTTIME_ = timeLine[0];\n        _PHASE_BID_ENDTIME_ = _PHASE_BID_STARTTIME_.add(timeLine[1]);\n        _PHASE_CALM_ENDTIME_ = _PHASE_BID_ENDTIME_.add(timeLine[2]);\n\n        _FREEZE_DURATION_ = timeLine[3];\n        _VESTING_DURATION_ = timeLine[4];\n\n        require(block.timestamp <= _PHASE_BID_STARTTIME_, \"TIMELINE_WRONG\");\n\n        /*\n        Value List\n        0. pool quote cap\n        1. k\n        2. i\n        3. cliff rate\n        */\n\n        require(valueList.length == 4, \"LIST_LENGTH_WRONG\");\n\n        _POOL_QUOTE_CAP_ = valueList[0];\n        _K_ = valueList[1];\n        _I_ = valueList[2];\n        _CLIFF_RATE_ = valueList[3];\n\n        require(_I_ > 0 && _I_ <= 1e36, \"I_VALUE_WRONG\");\n        require(_K_ <= 1e18, \"K_VALUE_WRONG\");\n        require(_CLIFF_RATE_ <= 1e18, \"CLIFF_RATE_WRONG\");\n\n        _TOTAL_BASE_ = _BASE_TOKEN_.balanceOf(address(this));\n\n        require(address(this).balance == _SETTEL_FUND_, \"SETTLE_FUND_NOT_MATCH\");\n    }\n}\n",
  "sourcePath": "/Users/niutaotao/projects/dodo/contractV2/contracts/CrowdPooling/impl/CP.sol",
  "compiler": {
    "name": "solc",
    "version": "0.6.9+commit.3e3065ac.Emscripten.clang"
  },
  "schemaVersion": "3.3.2",
  "updatedAt": "2021-01-05T15:41:11.651Z",
  "devdoc": {
    "methods": {}
  },
  "userdoc": {
    "methods": {}
  }
}