{
  "contractName": "CP",
  "abi": [
    {
      "anonymous": false,
      "inputs": [
        {
          "indexed": false,
          "internalType": "address",
          "name": "to",
          "type": "address"
        },
        {
          "indexed": false,
          "internalType": "uint256",
          "name": "amount",
          "type": "uint256"
        },
        {
          "indexed": false,
          "internalType": "uint256",
          "name": "fee",
          "type": "uint256"
        }
      ],
      "name": "Bid",
      "type": "event"
    },
    {
      "anonymous": false,
      "inputs": [
        {
          "indexed": false,
          "internalType": "address",
          "name": "to",
          "type": "address"
        },
        {
          "indexed": false,
          "internalType": "uint256",
          "name": "amount",
          "type": "uint256"
        }
      ],
      "name": "Cancel",
      "type": "event"
    },
    {
      "anonymous": false,
      "inputs": [
        {
          "indexed": false,
          "internalType": "address",
          "name": "user",
          "type": "address"
        },
        {
          "indexed": false,
          "internalType": "uint256",
          "name": "baseAmount",
          "type": "uint256"
        },
        {
          "indexed": false,
          "internalType": "uint256",
          "name": "quoteAmount",
          "type": "uint256"
        }
      ],
      "name": "Claim",
      "type": "event"
    },
    {
      "anonymous": false,
      "inputs": [
        {
          "indexed": false,
          "internalType": "uint256",
          "name": "amount",
          "type": "uint256"
        }
      ],
      "name": "ClaimLP",
      "type": "event"
    },
    {
      "anonymous": false,
      "inputs": [
        {
          "indexed": true,
          "internalType": "address",
          "name": "previousOwner",
          "type": "address"
        },
        {
          "indexed": true,
          "internalType": "address",
          "name": "newOwner",
          "type": "address"
        }
      ],
      "name": "OwnershipTransferPrepared",
      "type": "event"
    },
    {
      "anonymous": false,
      "inputs": [
        {
          "indexed": true,
          "internalType": "address",
          "name": "previousOwner",
          "type": "address"
        },
        {
          "indexed": true,
          "internalType": "address",
          "name": "newOwner",
          "type": "address"
        }
      ],
      "name": "OwnershipTransferred",
      "type": "event"
    },
    {
      "anonymous": false,
      "inputs": [],
      "name": "Settle",
      "type": "event"
    },
    {
      "inputs": [],
      "name": "_AVG_SETTLED_PRICE_",
      "outputs": [
        {
          "internalType": "uint256",
          "name": "",
          "type": "uint256"
        }
      ],
      "stateMutability": "view",
      "type": "function"
    },
    {
      "inputs": [],
      "name": "_BASE_TOKEN_",
      "outputs": [
        {
          "internalType": "contract IERC20",
          "name": "",
          "type": "address"
        }
      ],
      "stateMutability": "view",
      "type": "function"
    },
    {
      "inputs": [],
      "name": "_BIDDER_PERMISSION_",
      "outputs": [
        {
          "internalType": "contract IPermissionManager",
          "name": "",
          "type": "address"
        }
      ],
      "stateMutability": "view",
      "type": "function"
    },
    {
      "inputs": [
        {
          "internalType": "address",
          "name": "",
          "type": "address"
        }
      ],
      "name": "_CLAIMED_",
      "outputs": [
        {
          "internalType": "bool",
          "name": "",
          "type": "bool"
        }
      ],
      "stateMutability": "view",
      "type": "function"
    },
    {
      "inputs": [],
      "name": "_CLIFF_RATE_",
      "outputs": [
        {
          "internalType": "uint256",
          "name": "",
          "type": "uint256"
        }
      ],
      "stateMutability": "view",
      "type": "function"
    },
    {
      "inputs": [],
      "name": "_FREEZE_DURATION_",
      "outputs": [
        {
          "internalType": "uint256",
          "name": "",
          "type": "uint256"
        }
      ],
      "stateMutability": "view",
      "type": "function"
    },
    {
      "inputs": [],
      "name": "_IS_OPEN_TWAP_",
      "outputs": [
        {
          "internalType": "bool",
          "name": "",
          "type": "bool"
        }
      ],
      "stateMutability": "view",
      "type": "function"
    },
    {
      "inputs": [],
      "name": "_I_",
      "outputs": [
        {
          "internalType": "uint256",
          "name": "",
          "type": "uint256"
        }
      ],
      "stateMutability": "view",
      "type": "function"
    },
    {
      "inputs": [],
      "name": "_K_",
      "outputs": [
        {
          "internalType": "uint256",
          "name": "",
          "type": "uint256"
        }
      ],
      "stateMutability": "view",
      "type": "function"
    },
    {
      "inputs": [],
      "name": "_MAINTAINER_",
      "outputs": [
        {
          "internalType": "address",
          "name": "",
          "type": "address"
        }
      ],
      "stateMutability": "view",
      "type": "function"
    },
    {
      "inputs": [],
      "name": "_MT_FEE_RATE_MODEL_",
      "outputs": [
        {
          "internalType": "contract IFeeRateModel",
          "name": "",
          "type": "address"
        }
      ],
      "stateMutability": "view",
      "type": "function"
    },
    {
      "inputs": [],
      "name": "_NEW_OWNER_",
      "outputs": [
        {
          "internalType": "address",
          "name": "",
          "type": "address"
        }
      ],
      "stateMutability": "view",
      "type": "function"
    },
    {
      "inputs": [],
      "name": "_OWNER_",
      "outputs": [
        {
          "internalType": "address",
          "name": "",
          "type": "address"
        }
      ],
      "stateMutability": "view",
      "type": "function"
    },
    {
      "inputs": [],
      "name": "_PHASE_BID_ENDTIME_",
      "outputs": [
        {
          "internalType": "uint256",
          "name": "",
          "type": "uint256"
        }
      ],
      "stateMutability": "view",
      "type": "function"
    },
    {
      "inputs": [],
      "name": "_PHASE_BID_STARTTIME_",
      "outputs": [
        {
          "internalType": "uint256",
          "name": "",
          "type": "uint256"
        }
      ],
      "stateMutability": "view",
      "type": "function"
    },
    {
      "inputs": [],
      "name": "_PHASE_CALM_ENDTIME_",
      "outputs": [
        {
          "internalType": "uint256",
          "name": "",
          "type": "uint256"
        }
      ],
      "stateMutability": "view",
      "type": "function"
    },
    {
      "inputs": [],
      "name": "_POOL_",
      "outputs": [
        {
          "internalType": "address",
          "name": "",
          "type": "address"
        }
      ],
      "stateMutability": "view",
      "type": "function"
    },
    {
      "inputs": [],
      "name": "_POOL_FACTORY_",
      "outputs": [
        {
          "internalType": "address",
          "name": "",
          "type": "address"
        }
      ],
      "stateMutability": "view",
      "type": "function"
    },
    {
      "inputs": [],
      "name": "_POOL_QUOTE_CAP_",
      "outputs": [
        {
          "internalType": "uint256",
          "name": "",
          "type": "uint256"
        }
      ],
      "stateMutability": "view",
      "type": "function"
    },
    {
      "inputs": [],
      "name": "_QUOTE_RESERVE_",
      "outputs": [
        {
          "internalType": "uint256",
          "name": "",
          "type": "uint256"
        }
      ],
      "stateMutability": "view",
      "type": "function"
    },
    {
      "inputs": [],
      "name": "_QUOTE_TOKEN_",
      "outputs": [
        {
          "internalType": "contract IERC20",
          "name": "",
          "type": "address"
        }
      ],
      "stateMutability": "view",
      "type": "function"
    },
    {
      "inputs": [],
      "name": "_SETTLED_",
      "outputs": [
        {
          "internalType": "bool",
          "name": "",
          "type": "bool"
        }
      ],
      "stateMutability": "view",
      "type": "function"
    },
    {
      "inputs": [],
      "name": "_SETTLED_TIME_",
      "outputs": [
        {
          "internalType": "uint256",
          "name": "",
          "type": "uint256"
        }
      ],
      "stateMutability": "view",
      "type": "function"
    },
    {
      "inputs": [],
      "name": "_TOTAL_BASE_",
      "outputs": [
        {
          "internalType": "uint256",
          "name": "",
          "type": "uint256"
        }
      ],
      "stateMutability": "view",
      "type": "function"
    },
    {
      "inputs": [],
      "name": "_TOTAL_LP_AMOUNT_",
      "outputs": [
        {
          "internalType": "uint256",
          "name": "",
          "type": "uint256"
        }
      ],
      "stateMutability": "view",
      "type": "function"
    },
    {
      "inputs": [],
      "name": "_TOTAL_SHARES_",
      "outputs": [
        {
          "internalType": "uint256",
          "name": "",
          "type": "uint256"
        }
      ],
      "stateMutability": "view",
      "type": "function"
    },
    {
      "inputs": [],
      "name": "_UNUSED_BASE_",
      "outputs": [
        {
          "internalType": "uint256",
          "name": "",
          "type": "uint256"
        }
      ],
      "stateMutability": "view",
      "type": "function"
    },
    {
      "inputs": [],
      "name": "_UNUSED_QUOTE_",
      "outputs": [
        {
          "internalType": "uint256",
          "name": "",
          "type": "uint256"
        }
      ],
      "stateMutability": "view",
      "type": "function"
    },
    {
      "inputs": [],
      "name": "_VESTING_DURATION_",
      "outputs": [
        {
          "internalType": "uint256",
          "name": "",
          "type": "uint256"
        }
      ],
      "stateMutability": "view",
      "type": "function"
    },
    {
      "inputs": [
        {
          "internalType": "address",
          "name": "to",
          "type": "address"
        }
      ],
      "name": "bid",
      "outputs": [],
      "stateMutability": "nonpayable",
      "type": "function"
    },
    {
      "inputs": [
        {
          "internalType": "address",
          "name": "to",
          "type": "address"
        },
        {
          "internalType": "bytes",
          "name": "data",
          "type": "bytes"
        }
      ],
      "name": "bidderClaim",
      "outputs": [],
      "stateMutability": "nonpayable",
      "type": "function"
    },
    {
      "inputs": [
        {
          "internalType": "address",
          "name": "to",
          "type": "address"
        },
        {
          "internalType": "uint256",
          "name": "amount",
          "type": "uint256"
        },
        {
          "internalType": "bytes",
          "name": "data",
          "type": "bytes"
        }
      ],
      "name": "cancel",
      "outputs": [],
      "stateMutability": "nonpayable",
      "type": "function"
    },
    {
      "inputs": [],
      "name": "claimLPToken",
      "outputs": [],
      "stateMutability": "nonpayable",
      "type": "function"
    },
    {
      "inputs": [],
      "name": "claimOwnership",
      "outputs": [],
      "stateMutability": "nonpayable",
      "type": "function"
    },
    {
      "inputs": [],
      "name": "emergencySettle",
      "outputs": [],
      "stateMutability": "nonpayable",
      "type": "function"
    },
    {
      "inputs": [],
      "name": "getClaimableLPToken",
      "outputs": [
        {
          "internalType": "uint256",
          "name": "",
          "type": "uint256"
        }
      ],
      "stateMutability": "view",
      "type": "function"
    },
    {
      "inputs": [],
      "name": "getExpectedAvgPrice",
      "outputs": [
        {
          "internalType": "uint256",
          "name": "",
          "type": "uint256"
        }
      ],
      "stateMutability": "view",
      "type": "function"
    },
    {
      "inputs": [
        {
          "internalType": "uint256",
          "name": "timestamp",
          "type": "uint256"
        }
      ],
      "name": "getRemainingLPRatio",
      "outputs": [
        {
          "internalType": "uint256",
          "name": "",
          "type": "uint256"
        }
      ],
      "stateMutability": "view",
      "type": "function"
    },
    {
      "inputs": [],
      "name": "getSettleResult",
      "outputs": [
        {
          "internalType": "uint256",
          "name": "poolBase",
          "type": "uint256"
        },
        {
          "internalType": "uint256",
          "name": "poolQuote",
          "type": "uint256"
        },
        {
          "internalType": "uint256",
          "name": "poolI",
          "type": "uint256"
        },
        {
          "internalType": "uint256",
          "name": "unUsedBase",
          "type": "uint256"
        },
        {
          "internalType": "uint256",
          "name": "unUsedQuote",
          "type": "uint256"
        }
      ],
      "stateMutability": "view",
      "type": "function"
    },
    {
      "inputs": [
        {
          "internalType": "address",
          "name": "user",
          "type": "address"
        }
      ],
      "name": "getShares",
      "outputs": [
        {
          "internalType": "uint256",
          "name": "",
          "type": "uint256"
        }
      ],
      "stateMutability": "view",
      "type": "function"
    },
    {
      "inputs": [
        {
          "internalType": "address",
          "name": "newOwner",
          "type": "address"
        }
      ],
      "name": "initOwner",
      "outputs": [],
      "stateMutability": "nonpayable",
      "type": "function"
    },
    {
      "inputs": [],
      "name": "settle",
      "outputs": [],
      "stateMutability": "nonpayable",
      "type": "function"
    },
    {
      "inputs": [
        {
          "internalType": "address",
          "name": "newOwner",
          "type": "address"
        }
      ],
      "name": "transferOwnership",
      "outputs": [],
      "stateMutability": "nonpayable",
      "type": "function"
    },
    {
      "stateMutability": "payable",
      "type": "receive"
    },
    {
      "inputs": [
        {
          "internalType": "address[]",
          "name": "addressList",
          "type": "address[]"
        },
        {
          "internalType": "uint256[]",
          "name": "timeLine",
          "type": "uint256[]"
        },
        {
          "internalType": "uint256[]",
          "name": "valueList",
          "type": "uint256[]"
        },
        {
          "internalType": "bool",
          "name": "isOpenTWAP",
          "type": "bool"
        }
      ],
      "name": "init",
      "outputs": [],
      "stateMutability": "nonpayable",
      "type": "function"
    }
  ],
  "bytecode": "0x60806040526001805460ff60b01b1916905534801561001d57600080fd5b50612fb28061002d6000396000f3fe60806040526004361061026b5760003560e01c80637327a88511610144578063cd912946116100b6578063eb3c2b081161007a578063eb3c2b0814610656578063ec2fd46d1461066b578063f04da65b14610680578063f2fde38b146106a0578063f6b06e70146106c0578063f811d692146106d5576102a5565b8063cd912946146105e2578063ce90ea74146105f7578063d4b970461461060c578063e44f82db14610621578063e4e327db14610641576102a5565b80639cf5453d116101085780639cf5453d146105595780639e104a2114610579578063a65706181461058e578063bbf5ce78146105a3578063bea586a2146105b8578063c025aa33146105cd576102a5565b80637327a885146104da578063832d23ec146104ef57806383ba7866146105045780638456db151461052457806395ca26fd14610539576102a5565b80633f253e38116101dd5780634afc0d7b116101a15780634afc0d7b146104515780634e71e0c8146104665780634ed90a641461047b57806361ce802e1461049057806368be20ad146104a55780636a7ba71e146104c5576102a5565b80633f253e38146103dd5780634322ec83146103fd57806344b20ee914610412578063486c5971146104275780634a248d2a1461043c576102a5565b806316048bc41161022f57806316048bc4146103385780631aae38e81461035a5780632098c75b1461037c578063294dafc0146103915780632df6cb48146103a65780632f655da7146103c8576102a5565b806306fe8766146102aa5780630bc3b1c0146102bf5780630d009297146102d457806311da60b4146102f457806312911e4914610309576102a5565b366102a557600154600160a01b900460ff16156102a35760405162461bcd60e51b815260040161029a90612dc4565b60405180910390fd5b005b600080fd5b3480156102b657600080fd5b506102a36106ea565b3480156102cb57600080fd5b506102a3610818565b3480156102e057600080fd5b506102a36102ef366004612762565b6108ee565b34801561030057600080fd5b506102a361094e565b34801561031557600080fd5b5061031e610c2d565b60405161032f959493929190612f36565b60405180910390f35b34801561034457600080fd5b5061034d610eca565b60405161032f91906129a0565b34801561036657600080fd5b5061036f610ed9565b60405161032f9190612f2d565b34801561038857600080fd5b5061034d610edf565b34801561039d57600080fd5b5061036f610eee565b3480156103b257600080fd5b506103bb610ef4565b60405161032f9190612a8f565b3480156103d457600080fd5b5061036f610f04565b3480156103e957600080fd5b5061036f6103f836600461290d565b610f0a565b34801561040957600080fd5b5061034d610fdd565b34801561041e57600080fd5b5061036f610fec565b34801561043357600080fd5b5061036f610ff2565b34801561044857600080fd5b5061034d61107f565b34801561045d57600080fd5b5061036f611093565b34801561047257600080fd5b506102a3611099565b34801561048757600080fd5b5061036f611127565b34801561049c57600080fd5b5061036f61112d565b3480156104b157600080fd5b506103bb6104c0366004612762565b611133565b3480156104d157600080fd5b5061036f611148565b3480156104e657600080fd5b5061036f6111e0565b3480156104fb57600080fd5b5061034d6111e6565b34801561051057600080fd5b506102a361051f366004612847565b6111f5565b34801561053057600080fd5b5061034d611693565b34801561054557600080fd5b506102a361055436600461279a565b6116a2565b34801561056557600080fd5b506102a3610574366004612762565b611829565b34801561058557600080fd5b5061034d611a54565b34801561059a57600080fd5b5061036f611a63565b3480156105af57600080fd5b5061036f611a69565b3480156105c457600080fd5b5061036f611a6f565b3480156105d957600080fd5b5061036f611a75565b3480156105ee57600080fd5b5061036f611a7b565b34801561060357600080fd5b5061036f611a81565b34801561061857600080fd5b5061034d611a87565b34801561062d57600080fd5b506102a361063c3660046127ed565b611a96565b34801561064d57600080fd5b5061036f611be9565b34801561066257600080fd5b506103bb611bef565b34801561067757600080fd5b5061036f611bf8565b34801561068c57600080fd5b5061036f61069b366004612762565b611bfe565b3480156106ac57600080fd5b506102a36106bb366004612762565b611c19565b3480156106cc57600080fd5b5061034d611c9e565b3480156106e157600080fd5b5061036f611cad565b60045442101561070c5760405162461bcd60e51b815260040161029a90612d9d565b600154600160a81b900460ff16156107365760405162461bcd60e51b815260040161029a90612b88565b6001805460ff60a81b1916600160a81b17905560045461075f9062093a8063ffffffff611cb316565b42101561077e5760405162461bcd60e51b815260040161029a90612a9a565b610786611ce1565b6007546040516370a0823160e01b81526001600160a01b03909116906370a08231906107b69030906004016129a0565b60206040518083038186803b1580156107ce57600080fd5b505afa1580156107e2573d6000803e3d6000fd5b505050506040513d601f19601f820116820180604052508101906108069190612925565b600c556001805460ff60a81b19169055565b6000546001600160a01b031633146108425760405162461bcd60e51b815260040161029a90612dfb565b60065460ff16801561086857506019546005546108649163ffffffff611cb316565b4210155b6108845760405162461bcd60e51b815260040161029a90612bab565b600061088e611148565b6000546011549192506108b4916001600160a01b0390811691168363ffffffff611d1716565b7f9762403f2c15666bc0d700069a166e1e4911d9403a4e99bab0e7a5ee291b8a50816040516108e39190612f2d565b60405180910390a150565b600154600160a01b900460ff16156109185760405162461bcd60e51b815260040161029a90612ca3565b6001805460ff60a01b1916600160a01b179055600080546001600160a01b039092166001600160a01b0319909216919091179055565b6004544210156109705760405162461bcd60e51b815260040161029a90612d9d565b600154600160a81b900460ff161561099a5760405162461bcd60e51b815260040161029a90612b88565b6001805460ff60a81b1916600160a81b1790556109b5611ce1565b60008060008060006109c5610c2d565b600b829055600c81905593985091965094509250905060008086841115610a065750506007546006546001600160a01b039182169161010090910416610a21565b50506006546007546001600160a01b03610100909204821691165b60105460015460405163e18c40c760e01b81526001600160a01b039092169163e18c40c791610a769186918691660aa87bee538000918c91670de0b6b3a764000091600160b01b900460ff1690600401612a59565b602060405180830381600087803b158015610a9057600080fd5b505af1158015610aa4573d6000803e3d6000fd5b505050506040513d601f19601f82011682018060405250810190610ac8919061277e565b601180546001600160a01b0319166001600160a01b039290921691909117905560008415610aff57610afa8786611d72565b610b03565b6017545b6012819055601154909150610b21906001600160a01b031689611d90565b601154610b37906001600160a01b031688611db6565b601154604051634c85b42560e01b81526001600160a01b0390911690634c85b42590610b679030906004016129a0565b602060405180830381600087803b158015610b8157600080fd5b505af1158015610b95573d6000803e3d6000fd5b505050506040513d601f19601f82011682018060405250810190610bb99190612925565b60185560405133906000906702c68af0bb1400009082818181858883f19350505050158015610bec573d6000803e3d6000fd5b506040517fde2dc6331ac5616ea68a2c81e5c4e4228987af4a842f6ce2da4cfdc7353d482a90600090a150506001805460ff60a81b19169055505050505050565b6007546040516370a0823160e01b815260009182918291829182916001600160a01b0316906370a0823190610c669030906004016129a0565b60206040518083038186803b158015610c7e57600080fd5b505afa158015610c92573d6000803e3d6000fd5b505050506040513d601f19601f82011682018060405250810190610cb69190612925565b9350600954841115610cc85760095493505b6000610cdb610cd5611dd9565b86611e18565b50600854909150610cf2908263ffffffff611f1e16565b6007546040516370a0823160e01b8152919750610d859187916001600160a01b0316906370a0823190610d299030906004016129a0565b60206040518083038186803b158015610d4157600080fd5b505afa158015610d55573d6000803e3d6000fd5b505050506040513d601f19601f82011682018060405250810190610d799190612925565b9063ffffffff611f1e16565b6006546040516370a0823160e01b8152919350610dc191889161010090046001600160a01b0316906370a0823190610d299030906004016129a0565b925060008315610dda57610dd58685611d72565b610dde565b6017545b90506000610dec8289611f46565b905086610dfd576017549550610ec0565b87851415610e0e5760019550610ec0565b87851015610e83576000610e3a610e258984611f70565b670de0b6b3a76400009063ffffffff611f1e16565b9050610e7b6ec097ce7bc90715b34b9f1000000000610e6f83610e63878263ffffffff611f8e16565b9063ffffffff611f8e16565b9063ffffffff611fc816565b965050610ec0565b87851115610ec0576000610e9a610e25838a611d72565b9050610ebc83610eb0838063ffffffff611f8e16565b9063ffffffff611ff516565b9650505b5050509091929394565b6000546001600160a01b031681565b600c5481565b6011546001600160a01b031681565b601b5481565b600154600160b01b900460ff1681565b601a5481565b60065460009060ff168015610f335750601954600554610f2f9163ffffffff611cb316565b4210155b610f4f5760405162461bcd60e51b815260040161029a90612bab565b6000610f78610f6b601954600554611cb390919063ffffffff16565b849063ffffffff611f1e16565b9050601a54811015610fcc57601a54600090610f9a908363ffffffff611f1e16565b9050610fc3601a54610eb083610e63601b54670de0b6b3a7640000611f1e90919063ffffffff16565b92505050610fd8565b6000915050610fd8565b505b919050565b6013546001600160a01b031681565b600b5481565b60065460009060ff16156110185760405162461bcd60e51b815260040161029a90612d74565b600080611023610c2d565b505050915091506110788161107384600660019054906101000a90046001600160a01b03166001600160a01b03166370a08231306040518263ffffffff1660e01b8152600401610d2991906129a0565b611d72565b9250505090565b60065461010090046001600160a01b031681565b60055481565b6001546001600160a01b031633146110c35760405162461bcd60e51b815260040161029a90612aed565b600154600080546040516001600160a01b0393841693909116917f8be0079c531659141344cd1fd0a4f28419497f9722a3daafe3b4186f6b6457e091a360018054600080546001600160a01b03199081166001600160a01b03841617909155169055565b60085481565b60095481565b600f6020526000908152604090205460ff1681565b60065460009060ff168015611171575060195460055461116d9163ffffffff611cb316565b4210155b61118d5760405162461bcd60e51b815260040161029a90612bab565b60006111a361119b42610f0a565b601854611f46565b6011546040516370a0823160e01b81529192506111da9183916001600160a01b0316906370a0823190610d299030906004016129a0565b91505090565b60025481565b6015546001600160a01b031681565b600786146112155760405162461bcd60e51b815260040161029a90612cf4565b61123a8787600081811061122557fe5b90506020020160208101906102ef9190612762565b8686600181811061124757fe5b905060200201602081019061125c9190612762565b601380546001600160a01b0319166001600160a01b03929092169190911790558686600281811061128957fe5b905060200201602081019061129e9190612762565b600660016101000a8154816001600160a01b0302191690836001600160a01b03160217905550868660038181106112d157fe5b90506020020160208101906112e69190612762565b600780546001600160a01b0319166001600160a01b03929092169190911790558686600481811061131357fe5b90506020020160208101906113289190612762565b601580546001600160a01b0319166001600160a01b03929092169190911790558686600581811061135557fe5b905060200201602081019061136a9190612762565b601480546001600160a01b0319166001600160a01b03929092169190911790558686600681811061139757fe5b90506020020160208101906113ac9190612762565b601080546001600160a01b0319166001600160a01b0392909216919091179055600584146113ec5760405162461bcd60e51b815260040161029a90612cf4565b848460008181106113f957fe5b60200291909101356002555061142d8585600181811061141557fe5b90506020020135600254611cb390919063ffffffff16565b6003556114588585600281811061144057fe5b90506020020135600354611cb390919063ffffffff16565b6004558484600381811061146857fe5b6020029190910135601955508484600481811061148157fe5b6020029190910135601a55506002544211156114af5760405162461bcd60e51b815260040161029a90612c58565b600482146114cf5760405162461bcd60e51b815260040161029a90612cf4565b828260008181106114dc57fe5b602002919091013560095550828260018181106114f557fe5b6020029190910135601655508282600281811061150e57fe5b6020029190910135601755508282600381811061152757fe5b6020029190910135601b55506017541580159061155557506ec097ce7bc90715b34b9f100000000060175411155b6115715760405162461bcd60e51b815260040161029a90612ccd565b670de0b6b3a7640000601654111561159b5760405162461bcd60e51b815260040161029a90612e41565b670de0b6b3a7640000601b5411156115c55760405162461bcd60e51b815260040161029a90612d4a565b6006546040516370a0823160e01b81526101009091046001600160a01b0316906370a08231906115f99030906004016129a0565b60206040518083038186803b15801561161157600080fd5b505afa158015611625573d6000803e3d6000fd5b505050506040513d601f19601f820116820180604052508101906116499190612925565b6008556001805460ff60b01b1916600160b01b831515021790556702c68af0bb140000471461168a5760405162461bcd60e51b815260040161029a90612c29565b50505050505050565b6001546001600160a01b031681565b60065460ff166116c45760405162461bcd60e51b815260040161029a90612b14565b336000908152600f602052604090205460ff16156116f45760405162461bcd60e51b815260040161029a90612f04565b336000908152600f60209081526040808320805460ff19166001179055600d54600e909252822054600b546117349291610eb0919063ffffffff611f8e16565b600d54336000908152600e6020526040812054600c5493945090926117649291610eb0919063ffffffff611f8e16565b90506117708583611d90565b61177a8582611db6565b82156117e757604051633e777c8b60e11b81526001600160a01b03861690637ceef916906117b4903390869086908a908a90600401612a20565b600060405180830381600087803b1580156117ce57600080fd5b505af11580156117e2573d6000803e3d6000fd5b505050505b7f34fcbac0073d7c3d388e51312faf357774904998eeb8fca628b9e6f65ee1cbf733838360405161181a939291906129ff565b60405180910390a15050505050565b600254421015801561183c575060035442105b6118585760405162461bcd60e51b815260040161029a90612b39565b600154600160a81b900460ff16156118825760405162461bcd60e51b815260040161029a90612b88565b6001805460ff60a81b1916600160a81b17905560155460405163babcc53960e01b815282916001600160a01b03169063babcc539906118c59084906004016129a0565b60206040518083038186803b1580156118dd57600080fd5b505afa1580156118f1573d6000803e3d6000fd5b505050506040513d601f19601f8201168201806040525081019061191591906128f1565b6119315760405162461bcd60e51b815260040161029a90612ac1565b600061193b61201f565b601454604051638198edbf60e01b81529192506000916119cc9184916001600160a01b0390911690638198edbf906119779089906004016129a0565b60206040518083038186803b15801561198f57600080fd5b505afa1580156119a3573d6000803e3d6000fd5b505050506040513d601f19601f820116820180604052508101906119c79190612925565b611f46565b6013549091506119e5906001600160a01b031682611db6565b6119fe846119f9848463ffffffff611f1e16565b612060565b611a066120bc565b7f19421268847f42dd61705778018ddfc43bcdce8517e7a630acb12f122c709481848383604051611a39939291906129ff565b60405180910390a150506001805460ff60a81b191690555050565b6010546001600160a01b031681565b60185481565b600a5481565b600d5481565b60125481565b60045481565b60195481565b6007546001600160a01b031681565b6002544210158015611aa9575060045442105b611ac55760405162461bcd60e51b815260040161029a90612eb2565b600154600160a81b900460ff1615611aef5760405162461bcd60e51b815260040161029a90612b88565b6001805460ff60a81b1916600160a81b179055336000908152600e6020526040902054831115611b315760405162461bcd60e51b815260040161029a90612d1f565b611b3b3384612151565b611b458484611db6565b611b4d6120bc565b8015611bb8576040516306430f1160e41b81526001600160a01b03851690636430f11090611b859033908790879087906004016129cd565b600060405180830381600087803b158015611b9f57600080fd5b505af1158015611bb3573d6000803e3d6000fd5b505050505b7f27f83af92b39768b17fe0c8d6922452702717efb8626d97e7a754e0b27d4f6d23384604051611a399291906129b4565b60035481565b60065460ff1681565b60165481565b6001600160a01b03166000908152600e602052604090205490565b6000546001600160a01b03163314611c435760405162461bcd60e51b815260040161029a90612dfb565b600080546040516001600160a01b03808516939216917fdcf55418cee3220104fef63f979ff3c4097ad240c0c43dcb33ce837748983e6291a3600180546001600160a01b0319166001600160a01b0392909216919091179055565b6014546001600160a01b031681565b60175481565b600082820183811015611cd85760405162461bcd60e51b815260040161029a90612e1e565b90505b92915050565b60065460ff1615611d045760405162461bcd60e51b815260040161029a90612d74565b6006805460ff1916600117905542600555565b611d6d8363a9059cbb60e01b8484604051602401611d369291906129b4565b60408051601f198184030181529190526020810180516001600160e01b03166001600160e01b0319909316929092179091526121a6565b505050565b6000611cd882610e6f85670de0b6b3a764000063ffffffff611f8e16565b8015611db257600654611db29061010090046001600160a01b03168383611d17565b5050565b8015611db257600754611db2906001600160a01b0316838363ffffffff611d1716565b611de1612699565b6017548152601654602082015260085460408201819052600060608301819052608083019190915260a0820181905260c082015290565b600080808460c001516002811115611e2c57fe5b1415611e4757611e3c8484612263565b915060019050611f17565b60018460c001516002811115611e5957fe5b1415611e6957611e3c848461228a565b6000611e8685606001518660a00151611f1e90919063ffffffff16565b90506000611ea586608001518760400151611f1e90919063ffffffff16565b905081851015611ed057611eb986866122a7565b93506002925080841115611ecb578093505b611f14565b81851415611ee45780935060009250611f14565b611f0d611f0087611efb888663ffffffff611f1e16565b612263565b829063ffffffff611cb316565b9350600192505b50505b9250929050565b600082821115611f405760405162461bcd60e51b815260040161029a90612c80565b50900390565b6000670de0b6b3a7640000611f61848463ffffffff611f8e16565b81611f6857fe5b049392505050565b6000611cd882610eb085670de0b6b3a764000063ffffffff611f8e16565b600082611f9d57506000611cdb565b82820282848281611faa57fe5b0414611cd85760405162461bcd60e51b815260040161029a90612ee1565b600080611fd58484611ff5565b905082810284038015611fed57506001019050611cdb565b509050611cdb565b60008082116120165760405162461bcd60e51b815260040161029a90612c01565b818381611f6857fe5b600a546007546040516370a0823160e01b815260009261205b9290916001600160a01b03909116906370a0823190610d299030906004016129a0565b905090565b6001600160a01b0382166000908152600e6020526040902054612089908263ffffffff611cb316565b6001600160a01b0383166000908152600e6020526040902055600d546120b5908263ffffffff611cb316565b600d555050565b6007546040516370a0823160e01b81526000916001600160a01b0316906370a08231906120ed9030906004016129a0565b60206040518083038186803b15801561210557600080fd5b505afa158015612119573d6000803e3d6000fd5b505050506040513d601f19601f8201168201806040525081019061213d9190612925565b9050600a54811461214e57600a8190555b50565b6001600160a01b0382166000908152600e602052604090205461217a908263ffffffff611f1e16565b6001600160a01b0383166000908152600e6020526040902055600d546120b5908263ffffffff611f1e16565b60006060836001600160a01b0316836040516121c29190612967565b6000604051808303816000865af19150503d80600081146121ff576040519150601f19603f3d011682016040523d82523d6000602084013e612204565b606091505b5091509150816122265760405162461bcd60e51b815260040161029a90612bcc565b80511561225d578080602001905181019061224191906128f1565b61225d5760405162461bcd60e51b815260040161029a90612e68565b50505050565b6000611cd8836080015184608001518461228087600001516122e2565b8760200151612303565b6000611cd8836080015184604001518461228087600001516122e2565b6000611cd88360a001516122c8848660600151611cb390919063ffffffff16565b606086015186516122d8906122e2565b876020015161258f565b6000611cdb6ec097ce7bc90715b34b9f10000000008363ffffffff611ff516565b60008086116123245760405162461bcd60e51b815260040161029a90612b60565b8361233157506000612586565b8161235e57846123418486611f46565b11612355576123508385611f46565b612357565b845b9050612586565b670de0b6b3a764000082141561241e57600080612381858763ffffffff611f8e16565b90508061239157600091506123ea565b86818883028161239d57fe5b0414156123cd576123c66123b7898063ffffffff611f8e16565b8289029063ffffffff611ff516565b91506123ea565b6123e788610eb087610e6383838c8e63ffffffff611f8e16565b91505b61241561240583670de0b6b3a764000063ffffffff611cb316565b610eb0898563ffffffff611f8e16565b92505050612586565b6000612457612433858763ffffffff611f8e16565b61244b89610e638a610eb0898463ffffffff611f8e16565b9063ffffffff611cb316565b9050600061247787610e63670de0b6b3a76400008763ffffffff611f1e16565b9050600082821061248d57508190036000612493565b50810360015b6124ab82670de0b6b3a764000063ffffffff611ff516565b915060006124dd6124cf6004610e63670de0b6b3a76400008a63ffffffff611f1e16565b6119c78c610e638a8f611f46565b90506124fb6124f68261244b868063ffffffff611f8e16565b612668565b9050600061251c6002610e63670de0b6b3a76400008a63ffffffff611f1e16565b90506000831561253d57612536838663ffffffff611f1e16565b9050612550565b61254d858463ffffffff611cb316565b90505b600061255c8284611d72565b90508b811115612576576000975050505050505050612586565b8b03965061258695505050505050565b95945050505050565b60008086116125b05760405162461bcd60e51b815260040161029a90612b60565b60006125d26125c5878763ffffffff611f1e16565b859063ffffffff611f8e16565b9050826125f9576125f181670de0b6b3a764000063ffffffff611ff516565b915050612586565b600061261861261288610eb08b8063ffffffff611f8e16565b87611f70565b905060006126268583611f46565b905061265b6ec097ce7bc90715b34b9f1000000000610eb085610e638561244b670de0b6b3a76400008c63ffffffff611f1e16565b9998505050505050505050565b80600160028204015b81811015610fd65780915060028182858161268857fe5b04018161269157fe5b049050612671565b6040518060e00160405280600081526020016000815260200160008152602001600081526020016000815260200160008152602001600060028111156126db57fe5b905290565b60008083601f8401126126f1578182fd5b50813567ffffffffffffffff811115612708578182fd5b6020830191508360208083028501011115611f1757600080fd5b60008083601f840112612733578182fd5b50813567ffffffffffffffff81111561274a578182fd5b602083019150836020828501011115611f1757600080fd5b600060208284031215612773578081fd5b8135611cd881612f59565b60006020828403121561278f578081fd5b8151611cd881612f59565b6000806000604084860312156127ae578182fd5b83356127b981612f59565b9250602084013567ffffffffffffffff8111156127d4578283fd5b6127e086828701612722565b9497909650939450505050565b60008060008060608587031215612802578081fd5b843561280d81612f59565b935060208501359250604085013567ffffffffffffffff81111561282f578182fd5b61283b87828801612722565b95989497509550505050565b60008060008060008060006080888a031215612861578283fd5b873567ffffffffffffffff80821115612878578485fd5b6128848b838c016126e0565b909950975060208a013591508082111561289c578485fd5b6128a88b838c016126e0565b909750955060408a01359150808211156128c0578485fd5b506128cd8a828b016126e0565b90945092505060608801356128e181612f6e565b8091505092959891949750929550565b600060208284031215612902578081fd5b8151611cd881612f6e565b60006020828403121561291e578081fd5b5035919050565b600060208284031215612936578081fd5b5051919050565b60008284528282602086013780602084860101526020601f19601f85011685010190509392505050565b60008251815b81811015612987576020818601810151858301520161296d565b818111156129955782828501525b509190910192915050565b6001600160a01b0391909116815260200190565b6001600160a01b03929092168252602082015260400190565b600060018060a01b0386168252846020830152606060408301526129f560608301848661293d565b9695505050505050565b6001600160a01b039390931683526020830191909152604082015260600190565b600060018060a01b038716825285602083015284604083015260806060830152612a4e60808301848661293d565b979650505050505050565b6001600160a01b03968716815294909516602085015260408401929092526060830152608082015290151560a082015260c00190565b901515815260200190565b6020808252600d908201526c4e4f545f454d455247454e435960981b604082015260600190565b60208082526012908201527110925111115497d393d517d0531313d5d15160721b604082015260600190565b6020808252600d908201526c494e56414c49445f434c41494d60981b604082015260600190565b6020808252600b908201526a1393d517d4d1551513115160aa1b604082015260600190565b6020808252600d908201526c1393d517d4121054d157d09251609a1b604082015260600190565b6020808252600e908201526d5441524745545f49535f5a45524f60901b604082015260600190565b60208082526009908201526814915153951490539560ba1b604082015260600190565b6020808252600790820152661194915156915160ca1b604082015260600190565b6020808252818101527f5361666545524332303a206c6f772d6c6576656c2063616c6c206661696c6564604082015260600190565b6020808252600e908201526d2224ab24a224a723afa2a92927a960911b604082015260600190565b6020808252601590820152740a68aa8a8988abe8caa9c88be9c9ea8be9a82a8869605b1b604082015260600190565b6020808252600e908201526d54494d454c494e455f57524f4e4760901b604082015260600190565b60208082526009908201526829aaa12fa2a92927a960b91b604082015260600190565b60208082526010908201526f1113d113d7d25392551250531256915160821b604082015260600190565b6020808252600d908201526c495f56414c55455f57524f4e4760981b604082015260600190565b6020808252601190820152704c4953545f4c454e4754485f57524f4e4760781b604082015260600190565b6020808252601190820152700a69082a48aa6be9c9ea8be8a9c9eaa8e9607b1b604082015260600190565b60208082526010908201526f434c4946465f524154455f57524f4e4760801b604082015260600190565b6020808252600f908201526e1053149150511657d4d15515131151608a1b604082015260600190565b6020808252600d908201526c4e4f545f50484153455f45584560981b604082015260600190565b6020808252601a908201527f57455f4e4f545f534156455f4554485f41465445525f494e4954000000000000604082015260600190565b6020808252600990820152682727aa2fa7aba722a960b91b604082015260600190565b60208082526009908201526820a2222fa2a92927a960b91b604082015260600190565b6020808252600d908201526c4b5f56414c55455f57524f4e4760981b604082015260600190565b6020808252602a908201527f5361666545524332303a204552433230206f7065726174696f6e20646964206e6040820152691bdd081cdd58d8d9595960b21b606082015260800190565b6020808252601590820152744e4f545f50484153455f4249445f4f525f43414c4d60581b604082015260600190565b60208082526009908201526826aaa62fa2a92927a960b91b604082015260600190565b6020808252600f908201526e1053149150511657d0d31052535151608a1b604082015260600190565b90815260200190565b948552602085019390935260408401919091526060830152608082015260a00190565b6001600160a01b038116811461214e57600080fd5b801515811461214e57600080fdfea2646970667358221220674505fb6a911466902396b3705721965ce46a9301304d66dedb791422abb49a64736f6c63430006090033",
  "immutableReferences": {},
  "source": "/*\n\n    Copyright 2020 DODO ZOO.\n    SPDX-License-Identifier: Apache-2.0\n\n*/\n\npragma solidity 0.6.9;\npragma experimental ABIEncoderV2;\n\nimport {CPVesting} from \"./CPVesting.sol\";\nimport {IERC20} from \"../../intf/IERC20.sol\";\nimport {IPermissionManager} from \"../../lib/PermissionManager.sol\";\nimport {IFeeRateModel} from \"../../lib/FeeRateModel.sol\";\nimport {SafeMath} from \"../../lib/SafeMath.sol\";\n\n/**\n * @title DODO CrowdPooling\n * @author DODO Breeder\n *\n * @notice CrowdPooling initialization\n */\ncontract CP is CPVesting {\n    using SafeMath for uint256;\n\n    receive() external payable {\n        require(_INITIALIZED_ == false, \"WE_NOT_SAVE_ETH_AFTER_INIT\");\n    }\n\n    function init(\n        address[] calldata addressList,\n        uint256[] calldata timeLine,\n        uint256[] calldata valueList,\n        bool isOpenTWAP\n    ) external {\n        /*\n        Address List\n        0. owner\n        1. maintainer\n        2. baseToken\n        3. quoteToken\n        4. permissionManager\n        5. feeRateModel\n        6. poolFactory\n      */\n\n        require(addressList.length == 7, \"LIST_LENGTH_WRONG\");\n\n        initOwner(addressList[0]);\n        _MAINTAINER_ = addressList[1];\n        _BASE_TOKEN_ = IERC20(addressList[2]);\n        _QUOTE_TOKEN_ = IERC20(addressList[3]);\n        _BIDDER_PERMISSION_ = IPermissionManager(addressList[4]);\n        _MT_FEE_RATE_MODEL_ = IFeeRateModel(addressList[5]);\n        _POOL_FACTORY_ = addressList[6];\n\n        /*\n        Time Line\n        0. phase bid starttime\n        1. phase bid duration\n        2. phase calm duration\n        3. freeze duration\n        4. vesting duration\n        */\n\n        require(timeLine.length == 5, \"LIST_LENGTH_WRONG\");\n\n        _PHASE_BID_STARTTIME_ = timeLine[0];\n        _PHASE_BID_ENDTIME_ = _PHASE_BID_STARTTIME_.add(timeLine[1]);\n        _PHASE_CALM_ENDTIME_ = _PHASE_BID_ENDTIME_.add(timeLine[2]);\n\n        _FREEZE_DURATION_ = timeLine[3];\n        _VESTING_DURATION_ = timeLine[4];\n\n        require(block.timestamp <= _PHASE_BID_STARTTIME_, \"TIMELINE_WRONG\");\n\n        /*\n        Value List\n        0. pool quote cap\n        1. k\n        2. i\n        3. cliff rate\n        */\n\n        require(valueList.length == 4, \"LIST_LENGTH_WRONG\");\n\n        _POOL_QUOTE_CAP_ = valueList[0];\n        _K_ = valueList[1];\n        _I_ = valueList[2];\n        _CLIFF_RATE_ = valueList[3];\n\n        require(_I_ > 0 && _I_ <= 1e36, \"I_VALUE_WRONG\");\n        require(_K_ <= 1e18, \"K_VALUE_WRONG\");\n        require(_CLIFF_RATE_ <= 1e18, \"CLIFF_RATE_WRONG\");\n\n        _TOTAL_BASE_ = _BASE_TOKEN_.balanceOf(address(this));\n\n        _IS_OPEN_TWAP_ = isOpenTWAP;\n\n        require(address(this).balance == _SETTEL_FUND_, \"SETTLE_FUND_NOT_MATCH\");\n    }\n}\n",
  "sourcePath": "/Users/niutaotao/projects/dodo/contractV2/contracts/CrowdPooling/impl/CP.sol",
  "compiler": {
    "name": "solc",
    "version": "0.6.9+commit.3e3065ac.Emscripten.clang"
  },
  "schemaVersion": "3.3.2",
  "updatedAt": "2021-01-29T02:32:05.611Z",
  "devdoc": {
    "author": "DODO Breeder",
    "methods": {},
    "title": "DODO CrowdPooling"
  },
  "userdoc": {
    "methods": {},
    "notice": "CrowdPooling initialization"
  }
}