{
  "contractName": "CP",
  "abi": [
    {
      "anonymous": false,
      "inputs": [
        {
          "indexed": false,
          "internalType": "address",
          "name": "to",
          "type": "address"
        },
        {
          "indexed": false,
          "internalType": "uint256",
          "name": "amount",
          "type": "uint256"
        },
        {
          "indexed": false,
          "internalType": "uint256",
          "name": "fee",
          "type": "uint256"
        }
      ],
      "name": "Bid",
      "type": "event"
    },
    {
      "anonymous": false,
      "inputs": [
        {
          "indexed": false,
          "internalType": "address",
          "name": "to",
          "type": "address"
        },
        {
          "indexed": false,
          "internalType": "uint256",
          "name": "amount",
          "type": "uint256"
        }
      ],
      "name": "Cancel",
      "type": "event"
    },
    {
      "anonymous": false,
      "inputs": [
        {
          "indexed": true,
          "internalType": "address",
          "name": "previousOwner",
          "type": "address"
        },
        {
          "indexed": true,
          "internalType": "address",
          "name": "newOwner",
          "type": "address"
        }
      ],
      "name": "OwnershipTransferPrepared",
      "type": "event"
    },
    {
      "anonymous": false,
      "inputs": [
        {
          "indexed": true,
          "internalType": "address",
          "name": "previousOwner",
          "type": "address"
        },
        {
          "indexed": true,
          "internalType": "address",
          "name": "newOwner",
          "type": "address"
        }
      ],
      "name": "OwnershipTransferred",
      "type": "event"
    },
    {
      "inputs": [],
      "name": "_AVG_SETTLED_PRICE_",
      "outputs": [
        {
          "internalType": "uint256",
          "name": "",
          "type": "uint256"
        }
      ],
      "stateMutability": "view",
      "type": "function"
    },
    {
      "inputs": [],
      "name": "_BASE_TOKEN_",
      "outputs": [
        {
          "internalType": "contract IERC20",
          "name": "",
          "type": "address"
        }
      ],
      "stateMutability": "view",
      "type": "function"
    },
    {
      "inputs": [],
      "name": "_BIDDER_PERMISSION_",
      "outputs": [
        {
          "internalType": "contract IPermissionManager",
          "name": "",
          "type": "address"
        }
      ],
      "stateMutability": "view",
      "type": "function"
    },
    {
      "inputs": [
        {
          "internalType": "address",
          "name": "",
          "type": "address"
        }
      ],
      "name": "_CLAIMED_",
      "outputs": [
        {
          "internalType": "bool",
          "name": "",
          "type": "bool"
        }
      ],
      "stateMutability": "view",
      "type": "function"
    },
    {
      "inputs": [],
      "name": "_CLIFF_RATE_",
      "outputs": [
        {
          "internalType": "uint256",
          "name": "",
          "type": "uint256"
        }
      ],
      "stateMutability": "view",
      "type": "function"
    },
    {
      "inputs": [],
      "name": "_FREEZE_DURATION_",
      "outputs": [
        {
          "internalType": "uint256",
          "name": "",
          "type": "uint256"
        }
      ],
      "stateMutability": "view",
      "type": "function"
    },
    {
      "inputs": [],
      "name": "_I_",
      "outputs": [
        {
          "internalType": "uint256",
          "name": "",
          "type": "uint256"
        }
      ],
      "stateMutability": "view",
      "type": "function"
    },
    {
      "inputs": [],
      "name": "_K_",
      "outputs": [
        {
          "internalType": "uint256",
          "name": "",
          "type": "uint256"
        }
      ],
      "stateMutability": "view",
      "type": "function"
    },
    {
      "inputs": [],
      "name": "_MAINTAINER_",
      "outputs": [
        {
          "internalType": "address",
          "name": "",
          "type": "address"
        }
      ],
      "stateMutability": "view",
      "type": "function"
    },
    {
      "inputs": [],
      "name": "_MT_FEE_RATE_MODEL_",
      "outputs": [
        {
          "internalType": "contract IFeeRateModel",
          "name": "",
          "type": "address"
        }
      ],
      "stateMutability": "view",
      "type": "function"
    },
    {
      "inputs": [],
      "name": "_NEW_OWNER_",
      "outputs": [
        {
          "internalType": "address",
          "name": "",
          "type": "address"
        }
      ],
      "stateMutability": "view",
      "type": "function"
    },
    {
      "inputs": [],
      "name": "_OWNER_",
      "outputs": [
        {
          "internalType": "address",
          "name": "",
          "type": "address"
        }
      ],
      "stateMutability": "view",
      "type": "function"
    },
    {
      "inputs": [],
      "name": "_PHASE_BID_ENDTIME_",
      "outputs": [
        {
          "internalType": "uint256",
          "name": "",
          "type": "uint256"
        }
      ],
      "stateMutability": "view",
      "type": "function"
    },
    {
      "inputs": [],
      "name": "_PHASE_BID_STARTTIME_",
      "outputs": [
        {
          "internalType": "uint256",
          "name": "",
          "type": "uint256"
        }
      ],
      "stateMutability": "view",
      "type": "function"
    },
    {
      "inputs": [],
      "name": "_PHASE_CALM_ENDTIME_",
      "outputs": [
        {
          "internalType": "uint256",
          "name": "",
          "type": "uint256"
        }
      ],
      "stateMutability": "view",
      "type": "function"
    },
    {
      "inputs": [],
      "name": "_POOL_",
      "outputs": [
        {
          "internalType": "address",
          "name": "",
          "type": "address"
        }
      ],
      "stateMutability": "view",
      "type": "function"
    },
    {
      "inputs": [],
      "name": "_POOL_FACTORY_",
      "outputs": [
        {
          "internalType": "address",
          "name": "",
          "type": "address"
        }
      ],
      "stateMutability": "view",
      "type": "function"
    },
    {
      "inputs": [],
      "name": "_POOL_QUOTE_CAP_",
      "outputs": [
        {
          "internalType": "uint256",
          "name": "",
          "type": "uint256"
        }
      ],
      "stateMutability": "view",
      "type": "function"
    },
    {
      "inputs": [],
      "name": "_QUOTE_RESERVE_",
      "outputs": [
        {
          "internalType": "uint256",
          "name": "",
          "type": "uint256"
        }
      ],
      "stateMutability": "view",
      "type": "function"
    },
    {
      "inputs": [],
      "name": "_QUOTE_TOKEN_",
      "outputs": [
        {
          "internalType": "contract IERC20",
          "name": "",
          "type": "address"
        }
      ],
      "stateMutability": "view",
      "type": "function"
    },
    {
      "inputs": [],
      "name": "_SETTLED_",
      "outputs": [
        {
          "internalType": "bool",
          "name": "",
          "type": "bool"
        }
      ],
      "stateMutability": "view",
      "type": "function"
    },
    {
      "inputs": [],
      "name": "_SETTLED_TIME_",
      "outputs": [
        {
          "internalType": "uint256",
          "name": "",
          "type": "uint256"
        }
      ],
      "stateMutability": "view",
      "type": "function"
    },
    {
      "inputs": [],
      "name": "_TOTAL_BASE_",
      "outputs": [
        {
          "internalType": "uint256",
          "name": "",
          "type": "uint256"
        }
      ],
      "stateMutability": "view",
      "type": "function"
    },
    {
      "inputs": [],
      "name": "_TOTAL_LP_AMOUNT_",
      "outputs": [
        {
          "internalType": "uint256",
          "name": "",
          "type": "uint256"
        }
      ],
      "stateMutability": "view",
      "type": "function"
    },
    {
      "inputs": [],
      "name": "_TOTAL_SHARES_",
      "outputs": [
        {
          "internalType": "uint256",
          "name": "",
          "type": "uint256"
        }
      ],
      "stateMutability": "view",
      "type": "function"
    },
    {
      "inputs": [],
      "name": "_UNUSED_BASE_",
      "outputs": [
        {
          "internalType": "uint256",
          "name": "",
          "type": "uint256"
        }
      ],
      "stateMutability": "view",
      "type": "function"
    },
    {
      "inputs": [],
      "name": "_UNUSED_QUOTE_",
      "outputs": [
        {
          "internalType": "uint256",
          "name": "",
          "type": "uint256"
        }
      ],
      "stateMutability": "view",
      "type": "function"
    },
    {
      "inputs": [],
      "name": "_VESTING_DURATION_",
      "outputs": [
        {
          "internalType": "uint256",
          "name": "",
          "type": "uint256"
        }
      ],
      "stateMutability": "view",
      "type": "function"
    },
    {
      "inputs": [
        {
          "internalType": "address",
          "name": "to",
          "type": "address"
        }
      ],
      "name": "bid",
      "outputs": [],
      "stateMutability": "nonpayable",
      "type": "function"
    },
    {
      "inputs": [
        {
          "internalType": "address",
          "name": "to",
          "type": "address"
        },
        {
          "internalType": "bytes",
          "name": "data",
          "type": "bytes"
        }
      ],
      "name": "bidderClaim",
      "outputs": [],
      "stateMutability": "nonpayable",
      "type": "function"
    },
    {
      "inputs": [
        {
          "internalType": "address",
          "name": "to",
          "type": "address"
        },
        {
          "internalType": "uint256",
          "name": "amount",
          "type": "uint256"
        },
        {
          "internalType": "bytes",
          "name": "data",
          "type": "bytes"
        }
      ],
      "name": "cancel",
      "outputs": [],
      "stateMutability": "nonpayable",
      "type": "function"
    },
    {
      "inputs": [],
      "name": "claimLPToken",
      "outputs": [],
      "stateMutability": "nonpayable",
      "type": "function"
    },
    {
      "inputs": [],
      "name": "claimOwnership",
      "outputs": [],
      "stateMutability": "nonpayable",
      "type": "function"
    },
    {
      "inputs": [],
      "name": "emergencySettle",
      "outputs": [],
      "stateMutability": "nonpayable",
      "type": "function"
    },
    {
      "inputs": [],
      "name": "getClaimableLPToken",
      "outputs": [
        {
          "internalType": "uint256",
          "name": "",
          "type": "uint256"
        }
      ],
      "stateMutability": "view",
      "type": "function"
    },
    {
      "inputs": [],
      "name": "getExpectedAvgPrice",
      "outputs": [
        {
          "internalType": "uint256",
          "name": "",
          "type": "uint256"
        }
      ],
      "stateMutability": "view",
      "type": "function"
    },
    {
      "inputs": [
        {
          "internalType": "uint256",
          "name": "timestamp",
          "type": "uint256"
        }
      ],
      "name": "getRemainingLPRatio",
      "outputs": [
        {
          "internalType": "uint256",
          "name": "",
          "type": "uint256"
        }
      ],
      "stateMutability": "view",
      "type": "function"
    },
    {
      "inputs": [],
      "name": "getSettleResult",
      "outputs": [
        {
          "internalType": "uint256",
          "name": "poolBase",
          "type": "uint256"
        },
        {
          "internalType": "uint256",
          "name": "poolQuote",
          "type": "uint256"
        },
        {
          "internalType": "uint256",
          "name": "poolI",
          "type": "uint256"
        },
        {
          "internalType": "uint256",
          "name": "unUsedBase",
          "type": "uint256"
        },
        {
          "internalType": "uint256",
          "name": "unUsedQuote",
          "type": "uint256"
        }
      ],
      "stateMutability": "view",
      "type": "function"
    },
    {
      "inputs": [
        {
          "internalType": "address",
          "name": "user",
          "type": "address"
        }
      ],
      "name": "getShares",
      "outputs": [
        {
          "internalType": "uint256",
          "name": "",
          "type": "uint256"
        }
      ],
      "stateMutability": "view",
      "type": "function"
    },
    {
      "inputs": [
        {
          "internalType": "address",
          "name": "newOwner",
          "type": "address"
        }
      ],
      "name": "initOwner",
      "outputs": [],
      "stateMutability": "nonpayable",
      "type": "function"
    },
    {
      "inputs": [],
      "name": "settle",
      "outputs": [],
      "stateMutability": "nonpayable",
      "type": "function"
    },
    {
      "inputs": [
        {
          "internalType": "address",
          "name": "newOwner",
          "type": "address"
        }
      ],
      "name": "transferOwnership",
      "outputs": [],
      "stateMutability": "nonpayable",
      "type": "function"
    },
    {
      "stateMutability": "payable",
      "type": "receive"
    },
    {
      "inputs": [
        {
          "internalType": "address[]",
          "name": "addressList",
          "type": "address[]"
        },
        {
          "internalType": "uint256[]",
          "name": "timeLine",
          "type": "uint256[]"
        },
        {
          "internalType": "uint256[]",
          "name": "valueList",
          "type": "uint256[]"
        }
      ],
      "name": "init",
      "outputs": [],
      "stateMutability": "nonpayable",
      "type": "function"
    }
  ],
  "bytecode": "0x608060405234801561001057600080fd5b50612eac806100206000396000f3fe6080604052600436106102605760003560e01c80637327a88511610144578063ce90ea74116100b6578063ec2fd46d1161007a578063ec2fd46d1461062b578063f04da65b14610640578063f2fde38b14610660578063f6b06e7014610680578063f744718414610695578063f811d692146106b55761029a565b8063ce90ea74146105b7578063d4b97046146105cc578063e44f82db146105e1578063e4e327db14610601578063eb3c2b08146106165761029a565b80639e104a21116101085780639e104a2114610539578063a65706181461054e578063bbf5ce7814610563578063bea586a214610578578063c025aa331461058d578063cd912946146105a25761029a565b80637327a885146104ba578063832d23ec146104cf5780638456db15146104e457806395ca26fd146104f95780639cf5453d146105195761029a565b80633f253e38116101dd5780634afc0d7b116101a15780634afc0d7b146104245780634e71e0c8146104395780634ed90a641461044e57806361ce802e1461046357806368be20ad146104785780636a7ba71e146104a55761029a565b80633f253e38146103b05780634322ec83146103d057806344b20ee9146103e5578063486c5971146103fa5780634a248d2a1461040f5761029a565b806316048bc41161022457806316048bc41461032d5780631aae38e81461034f5780632098c75b14610371578063294dafc0146103865780632f655da71461039b5761029a565b806306fe87661461029f5780630bc3b1c0146102b45780630d009297146102c957806311da60b4146102e957806312911e49146102fe5761029a565b3661029a57600154600160a01b900460ff16156102985760405162461bcd60e51b815260040161028f90612ccc565b60405180910390fd5b005b600080fd5b3480156102ab57600080fd5b506102986106ca565b3480156102c057600080fd5b506102986107f8565b3480156102d557600080fd5b506102986102e436600461267f565b610897565b3480156102f557600080fd5b506102986108f7565b34801561030a57600080fd5b50610313610b9f565b604051610324959493929190612e3e565b60405180910390f35b34801561033957600080fd5b50610342610e3c565b60405161032491906128ad565b34801561035b57600080fd5b50610364610e4b565b6040516103249190612e35565b34801561037d57600080fd5b50610342610e51565b34801561039257600080fd5b50610364610e60565b3480156103a757600080fd5b50610364610e66565b3480156103bc57600080fd5b506103646103cb36600461281a565b610e6c565b3480156103dc57600080fd5b50610342610f3f565b3480156103f157600080fd5b50610364610f4e565b34801561040657600080fd5b50610364610f54565b34801561041b57600080fd5b50610342610fe1565b34801561043057600080fd5b50610364610ff5565b34801561044557600080fd5b50610298610ffb565b34801561045a57600080fd5b50610364611089565b34801561046f57600080fd5b5061036461108f565b34801561048457600080fd5b5061049861049336600461267f565b611095565b6040516103249190612997565b3480156104b157600080fd5b506103646110aa565b3480156104c657600080fd5b50610364611142565b3480156104db57600080fd5b50610342611148565b3480156104f057600080fd5b50610342611157565b34801561050557600080fd5b506102986105143660046126b7565b611166565b34801561052557600080fd5b5061029861053436600461267f565b6112b2565b34801561054557600080fd5b506103426114dd565b34801561055a57600080fd5b506103646114ec565b34801561056f57600080fd5b506103646114f2565b34801561058457600080fd5b506103646114f8565b34801561059957600080fd5b506103646114fe565b3480156105ae57600080fd5b50610364611504565b3480156105c357600080fd5b5061036461150a565b3480156105d857600080fd5b50610342611510565b3480156105ed57600080fd5b506102986105fc36600461270a565b61151f565b34801561060d57600080fd5b50610364611672565b34801561062257600080fd5b50610498611678565b34801561063757600080fd5b50610364611681565b34801561064c57600080fd5b5061036461065b36600461267f565b611687565b34801561066c57600080fd5b5061029861067b36600461267f565b6116a2565b34801561068c57600080fd5b50610342611727565b3480156106a157600080fd5b506102986106b0366004612764565b611736565b3480156106c157600080fd5b50610364611bbc565b6004544210156106ec5760405162461bcd60e51b815260040161028f90612ca5565b600154600160a81b900460ff16156107165760405162461bcd60e51b815260040161028f90612a90565b6001805460ff60a81b1916600160a81b17905560045461073f9062093a8063ffffffff611bc216565b42101561075e5760405162461bcd60e51b815260040161028f906129a2565b610766611bf0565b6007546040516370a0823160e01b81526001600160a01b03909116906370a08231906107969030906004016128ad565b60206040518083038186803b1580156107ae57600080fd5b505afa1580156107c2573d6000803e3d6000fd5b505050506040513d601f19601f820116820180604052508101906107e69190612832565b600c556001805460ff60a81b19169055565b6000546001600160a01b031633146108225760405162461bcd60e51b815260040161028f90612d03565b60065460ff16801561084857506019546005546108449163ffffffff611bc216565b4210155b6108645760405162461bcd60e51b815260040161028f90612ab3565b600054610895906001600160a01b031661087c6110aa565b6011546001600160a01b0316919063ffffffff611c2616565b565b600154600160a01b900460ff16156108c15760405162461bcd60e51b815260040161028f90612bab565b6001805460ff60a01b1916600160a01b179055600080546001600160a01b039092166001600160a01b0319909216919091179055565b6004544210156109195760405162461bcd60e51b815260040161028f90612ca5565b600154600160a81b900460ff16156109435760405162461bcd60e51b815260040161028f90612a90565b6001805460ff60a81b1916600160a81b17905561095e611bf0565b600080600080600061096e610b9f565b600b829055600c819055939850919650945092509050600080868411156109af5750506007546006546001600160a01b0391821691610100909104166109ca565b50506006546007546001600160a01b03610100909204821691165b60105460405163534ee7eb60e11b81526001600160a01b039091169063a69dcfd690610a119085908590660aa87bee538000908b90670de0b6b3a764000090600401612945565b602060405180830381600087803b158015610a2b57600080fd5b505af1158015610a3f573d6000803e3d6000fd5b505050506040513d601f19601f82011682018060405250810190610a63919061269b565b601180546001600160a01b0319166001600160a01b039290921691909117905560008415610a9a57610a958786611c81565b610a9e565b6017545b6012819055601154909150610abc906001600160a01b031689611c9f565b601154610ad2906001600160a01b031688611cc5565b601154604051634c85b42560e01b81526001600160a01b0390911690634c85b42590610b029030906004016128ad565b602060405180830381600087803b158015610b1c57600080fd5b505af1158015610b30573d6000803e3d6000fd5b505050506040513d601f19601f82011682018060405250810190610b549190612832565b60185560405133906000906702c68af0bb1400009082818181858883f19350505050158015610b87573d6000803e3d6000fd5b50506001805460ff60a81b1916905550505050505050565b6007546040516370a0823160e01b815260009182918291829182916001600160a01b0316906370a0823190610bd89030906004016128ad565b60206040518083038186803b158015610bf057600080fd5b505afa158015610c04573d6000803e3d6000fd5b505050506040513d601f19601f82011682018060405250810190610c289190612832565b9350600954841115610c3a5760095493505b6000610c4d610c47611ce8565b86611d27565b50600854909150610c64908263ffffffff611e2d16565b6007546040516370a0823160e01b8152919750610cf79187916001600160a01b0316906370a0823190610c9b9030906004016128ad565b60206040518083038186803b158015610cb357600080fd5b505afa158015610cc7573d6000803e3d6000fd5b505050506040513d601f19601f82011682018060405250810190610ceb9190612832565b9063ffffffff611e2d16565b6006546040516370a0823160e01b8152919350610d3391889161010090046001600160a01b0316906370a0823190610c9b9030906004016128ad565b925060008315610d4c57610d478685611c81565b610d50565b6017545b90506000610d5e8289611e55565b905086610d6f576017549550610e32565b87851415610d805760019550610e32565b87851015610df5576000610dac610d978984611e7f565b670de0b6b3a76400009063ffffffff611e2d16565b9050610ded6ec097ce7bc90715b34b9f1000000000610de183610dd5878263ffffffff611e9d16565b9063ffffffff611e9d16565b9063ffffffff611ed716565b965050610e32565b87851115610e32576000610e0c610d97838a611c81565b9050610e2e83610e22838063ffffffff611e9d16565b9063ffffffff611f0416565b9650505b5050509091929394565b6000546001600160a01b031681565b600c5481565b6011546001600160a01b031681565b601b5481565b601a5481565b60065460009060ff168015610e955750601954600554610e919163ffffffff611bc216565b4210155b610eb15760405162461bcd60e51b815260040161028f90612ab3565b6000610eda610ecd601954600554611bc290919063ffffffff16565b849063ffffffff611e2d16565b9050601a54811015610f2e57601a54600090610efc908363ffffffff611e2d16565b9050610f25601a54610e2283610dd5601b54670de0b6b3a7640000611e2d90919063ffffffff16565b92505050610f3a565b6000915050610f3a565b505b919050565b6013546001600160a01b031681565b600b5481565b60065460009060ff1615610f7a5760405162461bcd60e51b815260040161028f90612c7c565b600080610f85610b9f565b50505091509150610fda81610fd584600660019054906101000a90046001600160a01b03166001600160a01b03166370a08231306040518263ffffffff1660e01b8152600401610c9b91906128ad565b611c81565b9250505090565b60065461010090046001600160a01b031681565b60055481565b6001546001600160a01b031633146110255760405162461bcd60e51b815260040161028f906129f5565b600154600080546040516001600160a01b0393841693909116917f8be0079c531659141344cd1fd0a4f28419497f9722a3daafe3b4186f6b6457e091a360018054600080546001600160a01b03199081166001600160a01b03841617909155169055565b60085481565b60095481565b600f6020526000908152604090205460ff1681565b60065460009060ff1680156110d357506019546005546110cf9163ffffffff611bc216565b4210155b6110ef5760405162461bcd60e51b815260040161028f90612ab3565b60006111056110fd42610e6c565b601854611e55565b6011546040516370a0823160e01b815291925061113c9183916001600160a01b0316906370a0823190610c9b9030906004016128ad565b91505090565b60025481565b6015546001600160a01b031681565b6001546001600160a01b031681565b60065460ff166111885760405162461bcd60e51b815260040161028f90612a1c565b336000908152600f602052604090205460ff16156111b85760405162461bcd60e51b815260040161028f90612e0c565b336000908152600f60209081526040808320805460ff19166001179055600d54600e909252822054600b546111f89291610e22919063ffffffff611e9d16565b600d54336000908152600e6020526040812054600c5493945090926112289291610e22919063ffffffff611e9d16565b90506112348583611c9f565b61123e8582611cc5565b82156112ab57604051633e777c8b60e11b81526001600160a01b03861690637ceef91690611278903390869086908a908a9060040161290c565b600060405180830381600087803b15801561129257600080fd5b505af11580156112a6573d6000803e3d6000fd5b505050505b5050505050565b60025442101580156112c5575060035442105b6112e15760405162461bcd60e51b815260040161028f90612a41565b600154600160a81b900460ff161561130b5760405162461bcd60e51b815260040161028f90612a90565b6001805460ff60a81b1916600160a81b17905560155460405163babcc53960e01b815282916001600160a01b03169063babcc5399061134e9084906004016128ad565b60206040518083038186803b15801561136657600080fd5b505afa15801561137a573d6000803e3d6000fd5b505050506040513d601f19601f8201168201806040525081019061139e91906127fa565b6113ba5760405162461bcd60e51b815260040161028f906129c9565b60006113c4611f2e565b601454604051638198edbf60e01b81529192506000916114559184916001600160a01b0390911690638198edbf906114009089906004016128ad565b60206040518083038186803b15801561141857600080fd5b505afa15801561142c573d6000803e3d6000fd5b505050506040513d601f19601f820116820180604052508101906114509190612832565b611e55565b60135490915061146e906001600160a01b031682611cc5565b61148784611482848463ffffffff611e2d16565b611f6f565b61148f611fcb565b7f19421268847f42dd61705778018ddfc43bcdce8517e7a630acb12f122c7094818483836040516114c293929190612976565b60405180910390a150506001805460ff60a81b191690555050565b6010546001600160a01b031681565b60185481565b600a5481565b600d5481565b60125481565b60045481565b60195481565b6007546001600160a01b031681565b6002544210158015611532575060045442105b61154e5760405162461bcd60e51b815260040161028f90612dba565b600154600160a81b900460ff16156115785760405162461bcd60e51b815260040161028f90612a90565b6001805460ff60a81b1916600160a81b179055336000908152600e60205260409020548311156115ba5760405162461bcd60e51b815260040161028f90612c27565b6115c43384612060565b6115ce8484611cc5565b6115d6611fcb565b8015611641576040516306430f1160e41b81526001600160a01b03851690636430f1109061160e9033908790879087906004016128da565b600060405180830381600087803b15801561162857600080fd5b505af115801561163c573d6000803e3d6000fd5b505050505b7f27f83af92b39768b17fe0c8d6922452702717efb8626d97e7a754e0b27d4f6d233846040516114c29291906128c1565b60035481565b60065460ff1681565b60165481565b6001600160a01b03166000908152600e602052604090205490565b6000546001600160a01b031633146116cc5760405162461bcd60e51b815260040161028f90612d03565b600080546040516001600160a01b03808516939216917fdcf55418cee3220104fef63f979ff3c4097ad240c0c43dcb33ce837748983e6291a3600180546001600160a01b0319166001600160a01b0392909216919091179055565b6014546001600160a01b031681565b600785146117565760405162461bcd60e51b815260040161028f90612bfc565b61177b8686600081811061176657fe5b90506020020160208101906102e4919061267f565b8585600181811061178857fe5b905060200201602081019061179d919061267f565b601380546001600160a01b0319166001600160a01b0392909216919091179055858560028181106117ca57fe5b90506020020160208101906117df919061267f565b600660016101000a8154816001600160a01b0302191690836001600160a01b031602179055508585600381811061181257fe5b9050602002016020810190611827919061267f565b600780546001600160a01b0319166001600160a01b03929092169190911790558585600481811061185457fe5b9050602002016020810190611869919061267f565b601580546001600160a01b0319166001600160a01b03929092169190911790558585600581811061189657fe5b90506020020160208101906118ab919061267f565b601480546001600160a01b0319166001600160a01b0392909216919091179055858560068181106118d857fe5b90506020020160208101906118ed919061267f565b601080546001600160a01b0319166001600160a01b03929092169190911790556005831461192d5760405162461bcd60e51b815260040161028f90612bfc565b8383600081811061193a57fe5b60200291909101356002555061196e8484600181811061195657fe5b90506020020135600254611bc290919063ffffffff16565b6003556119998484600281811061198157fe5b90506020020135600354611bc290919063ffffffff16565b600455838360038181106119a957fe5b602002919091013560195550838360048181106119c257fe5b6020029190910135601a55506002544211156119f05760405162461bcd60e51b815260040161028f90612b60565b60048114611a105760405162461bcd60e51b815260040161028f90612bfc565b81816000818110611a1d57fe5b60200291909101356009555081816001818110611a3657fe5b60200291909101356016555081816002818110611a4f57fe5b60200291909101356017555081816003818110611a6857fe5b6020029190910135601b555060175415801590611a9657506ec097ce7bc90715b34b9f100000000060175411155b611ab25760405162461bcd60e51b815260040161028f90612bd5565b670de0b6b3a76400006016541115611adc5760405162461bcd60e51b815260040161028f90612d49565b670de0b6b3a7640000601b541115611b065760405162461bcd60e51b815260040161028f90612c52565b6006546040516370a0823160e01b81526101009091046001600160a01b0316906370a0823190611b3a9030906004016128ad565b60206040518083038186803b158015611b5257600080fd5b505afa158015611b66573d6000803e3d6000fd5b505050506040513d601f19601f82011682018060405250810190611b8a9190612832565b600855476702c68af0bb14000014611bb45760405162461bcd60e51b815260040161028f90612b31565b505050505050565b60175481565b600082820183811015611be75760405162461bcd60e51b815260040161028f90612d26565b90505b92915050565b60065460ff1615611c135760405162461bcd60e51b815260040161028f90612c7c565b6006805460ff1916600117905542600555565b611c7c8363a9059cbb60e01b8484604051602401611c459291906128c1565b60408051601f198184030181529190526020810180516001600160e01b03166001600160e01b0319909316929092179091526120b5565b505050565b6000611be782610de185670de0b6b3a764000063ffffffff611e9d16565b8015611cc157600654611cc19061010090046001600160a01b03168383611c26565b5050565b8015611cc157600754611cc1906001600160a01b0316838363ffffffff611c2616565b611cf06125b6565b6017548152601654602082015260085460408201819052600060608301819052608083019190915260a0820181905260c082015290565b600080808460c001516002811115611d3b57fe5b1415611d5657611d4b8484612172565b915060019050611e26565b60018460c001516002811115611d6857fe5b1415611d7857611d4b8484612199565b6000611d9585606001518660a00151611e2d90919063ffffffff16565b90506000611db486608001518760400151611e2d90919063ffffffff16565b905081851015611ddf57611dc886866121b6565b93506002925080841115611dda578093505b611e23565b81851415611df35780935060009250611e23565b611e1c611e0f87611e0a888663ffffffff611e2d16565b612172565b829063ffffffff611bc216565b9350600192505b50505b9250929050565b600082821115611e4f5760405162461bcd60e51b815260040161028f90612b88565b50900390565b6000670de0b6b3a7640000611e70848463ffffffff611e9d16565b81611e7757fe5b049392505050565b6000611be782610e2285670de0b6b3a764000063ffffffff611e9d16565b600082611eac57506000611bea565b82820282848281611eb957fe5b0414611be75760405162461bcd60e51b815260040161028f90612de9565b600080611ee48484611f04565b905082810284038015611efc57506001019050611bea565b509050611bea565b6000808211611f255760405162461bcd60e51b815260040161028f90612b09565b818381611e7757fe5b600a546007546040516370a0823160e01b8152600092611f6a9290916001600160a01b03909116906370a0823190610c9b9030906004016128ad565b905090565b6001600160a01b0382166000908152600e6020526040902054611f98908263ffffffff611bc216565b6001600160a01b0383166000908152600e6020526040902055600d54611fc4908263ffffffff611bc216565b600d555050565b6007546040516370a0823160e01b81526000916001600160a01b0316906370a0823190611ffc9030906004016128ad565b60206040518083038186803b15801561201457600080fd5b505afa158015612028573d6000803e3d6000fd5b505050506040513d601f19601f8201168201806040525081019061204c9190612832565b9050600a54811461205d57600a8190555b50565b6001600160a01b0382166000908152600e6020526040902054612089908263ffffffff611e2d16565b6001600160a01b0383166000908152600e6020526040902055600d54611fc4908263ffffffff611e2d16565b60006060836001600160a01b0316836040516120d19190612874565b6000604051808303816000865af19150503d806000811461210e576040519150601f19603f3d011682016040523d82523d6000602084013e612113565b606091505b5091509150816121355760405162461bcd60e51b815260040161028f90612ad4565b80511561216c578080602001905181019061215091906127fa565b61216c5760405162461bcd60e51b815260040161028f90612d70565b50505050565b6000611be7836080015184608001518461218f87600001516121f1565b8760200151612212565b6000611be7836080015184604001518461218f87600001516121f1565b6000611be78360a001516121d7848660600151611bc290919063ffffffff16565b606086015186516121e7906121f1565b87602001516124ac565b6000611bea6ec097ce7bc90715b34b9f10000000008363ffffffff611f0416565b60008086116122335760405162461bcd60e51b815260040161028f90612a68565b83612240575060006124a3565b8161226d57846122508486611e55565b116122645761225f8385611e55565b612266565b845b90506124a3565b670de0b6b3a764000082141561232d57600080612290858763ffffffff611e9d16565b9050806122a057600091506122f9565b8681888302816122ac57fe5b0414156122dc576122d56122c6898063ffffffff611e9d16565b8289029063ffffffff611f0416565b91506122f9565b6122f688610e2287610dd583838c8e63ffffffff611e9d16565b91505b61232461231483670de0b6b3a764000063ffffffff611bc216565b610e22898563ffffffff611e9d16565b925050506124a3565b6000612366612342858763ffffffff611e9d16565b61235a89610dd58a610e22898463ffffffff611e9d16565b9063ffffffff611bc216565b9050600061238687610dd5670de0b6b3a76400008763ffffffff611e2d16565b905060008282106123ac576123a1828463ffffffff611e2d16565b9150600090506123c3565b6123bc838363ffffffff611e2d16565b9150600190505b6123db82670de0b6b3a764000063ffffffff611f0416565b9150600061240d6123ff6004610dd5670de0b6b3a76400008a63ffffffff611e2d16565b6114508c610dd58a8f611e55565b905061242b6124268261235a868063ffffffff611e9d16565b612585565b9050600061244c6002610dd5670de0b6b3a76400008a63ffffffff611e2d16565b90506000831561246d57612466838663ffffffff611e2d16565b9050612480565b61247d858463ffffffff611bc216565b90505b61249a61248d8284611c81565b8c9063ffffffff611e2d16565b96505050505050505b95945050505050565b60008086116124cd5760405162461bcd60e51b815260040161028f90612a68565b60006124ef6124e2878763ffffffff611e2d16565b859063ffffffff611e9d16565b9050826125165761250e81670de0b6b3a764000063ffffffff611f0416565b9150506124a3565b600061253561252f88610e228b8063ffffffff611e9d16565b87611e7f565b905060006125438583611e55565b90506125786ec097ce7bc90715b34b9f1000000000610e2285610dd58561235a670de0b6b3a76400008c63ffffffff611e2d16565b9998505050505050505050565b80600160028204015b81811015610f38578091506002818285816125a557fe5b0401816125ae57fe5b04905061258e565b6040518060e00160405280600081526020016000815260200160008152602001600081526020016000815260200160008152602001600060028111156125f857fe5b905290565b60008083601f84011261260e578182fd5b50813567ffffffffffffffff811115612625578182fd5b6020830191508360208083028501011115611e2657600080fd5b60008083601f840112612650578182fd5b50813567ffffffffffffffff811115612667578182fd5b602083019150836020828501011115611e2657600080fd5b600060208284031215612690578081fd5b8135611be781612e61565b6000602082840312156126ac578081fd5b8151611be781612e61565b6000806000604084860312156126cb578182fd5b83356126d681612e61565b9250602084013567ffffffffffffffff8111156126f1578283fd5b6126fd8682870161263f565b9497909650939450505050565b6000806000806060858703121561271f578081fd5b843561272a81612e61565b935060208501359250604085013567ffffffffffffffff81111561274c578182fd5b6127588782880161263f565b95989497509550505050565b6000806000806000806060878903121561277c578182fd5b863567ffffffffffffffff80821115612793578384fd5b61279f8a838b016125fd565b909850965060208901359150808211156127b7578384fd5b6127c38a838b016125fd565b909650945060408901359150808211156127db578384fd5b506127e889828a016125fd565b979a9699509497509295939492505050565b60006020828403121561280b578081fd5b81518015158114611be7578182fd5b60006020828403121561282b578081fd5b5035919050565b600060208284031215612843578081fd5b5051919050565b60008284528282602086013780602084860101526020601f19601f85011685010190509392505050565b60008251815b81811015612894576020818601810151858301520161287a565b818111156128a25782828501525b509190910192915050565b6001600160a01b0391909116815260200190565b6001600160a01b03929092168252602082015260400190565b600060018060a01b03861682528460208301526060604083015261290260608301848661284a565b9695505050505050565b600060018060a01b03871682528560208301528460408301526080606083015261293a60808301848661284a565b979650505050505050565b6001600160a01b03958616815293909416602084015260408301919091526060820152608081019190915260a00190565b6001600160a01b039390931683526020830191909152604082015260600190565b901515815260200190565b6020808252600d908201526c4e4f545f454d455247454e435960981b604082015260600190565b60208082526012908201527110925111115497d393d517d0531313d5d15160721b604082015260600190565b6020808252600d908201526c494e56414c49445f434c41494d60981b604082015260600190565b6020808252600b908201526a1393d517d4d1551513115160aa1b604082015260600190565b6020808252600d908201526c1393d517d4121054d157d09251609a1b604082015260600190565b6020808252600e908201526d5441524745545f49535f5a45524f60901b604082015260600190565b60208082526009908201526814915153951490539560ba1b604082015260600190565b6020808252600790820152661194915156915160ca1b604082015260600190565b6020808252818101527f5361666545524332303a206c6f772d6c6576656c2063616c6c206661696c6564604082015260600190565b6020808252600e908201526d2224ab24a224a723afa2a92927a960911b604082015260600190565b6020808252601590820152740a68aa8a8988abe8caa9c88be9c9ea8be9a82a8869605b1b604082015260600190565b6020808252600e908201526d54494d454c494e455f57524f4e4760901b604082015260600190565b60208082526009908201526829aaa12fa2a92927a960b91b604082015260600190565b60208082526010908201526f1113d113d7d25392551250531256915160821b604082015260600190565b6020808252600d908201526c495f56414c55455f57524f4e4760981b604082015260600190565b6020808252601190820152704c4953545f4c454e4754485f57524f4e4760781b604082015260600190565b6020808252601190820152700a69082a48aa6be9c9ea8be8a9c9eaa8e9607b1b604082015260600190565b60208082526010908201526f434c4946465f524154455f57524f4e4760801b604082015260600190565b6020808252600f908201526e1053149150511657d4d15515131151608a1b604082015260600190565b6020808252600d908201526c4e4f545f50484153455f45584560981b604082015260600190565b6020808252601a908201527f57455f4e4f545f534156455f4554485f41465445525f494e4954000000000000604082015260600190565b6020808252600990820152682727aa2fa7aba722a960b91b604082015260600190565b60208082526009908201526820a2222fa2a92927a960b91b604082015260600190565b6020808252600d908201526c4b5f56414c55455f57524f4e4760981b604082015260600190565b6020808252602a908201527f5361666545524332303a204552433230206f7065726174696f6e20646964206e6040820152691bdd081cdd58d8d9595960b21b606082015260800190565b6020808252601590820152744e4f545f50484153455f4249445f4f525f43414c4d60581b604082015260600190565b60208082526009908201526826aaa62fa2a92927a960b91b604082015260600190565b6020808252600f908201526e1053149150511657d0d31052535151608a1b604082015260600190565b90815260200190565b948552602085019390935260408401919091526060830152608082015260a00190565b6001600160a01b038116811461205d57600080fdfea2646970667358221220cd445573b891cc59ede8ae07875af9f8dcdde4312b95ef13657d3852e1cae38f64736f6c63430006090033",
  "immutableReferences": {},
  "source": "/*\n\n    Copyright 2020 DODO ZOO.\n    SPDX-License-Identifier: Apache-2.0\n\n*/\n\npragma solidity 0.6.9;\npragma experimental ABIEncoderV2;\n\nimport {CPVesting} from \"./CPVesting.sol\";\nimport {IERC20} from \"../../intf/IERC20.sol\";\nimport {IPermissionManager} from \"../../lib/PermissionManager.sol\";\nimport {IFeeRateModel} from \"../../lib/FeeRateModel.sol\";\nimport {SafeMath} from \"../../lib/SafeMath.sol\";\n\n/**\n * @title DODO CrowdPooling\n * @author DODO Breeder\n *\n * @notice CrowdPooling initialization\n */\ncontract CP is CPVesting {\n    using SafeMath for uint256;\n\n    receive() external payable {\n        require(_INITIALIZED_ == false, \"WE_NOT_SAVE_ETH_AFTER_INIT\");\n    }\n\n    function init(\n        address[] calldata addressList,\n        uint256[] calldata timeLine,\n        uint256[] calldata valueList\n    ) external {\n        /*\n        Address List\n        0. owner\n        1. maintainer\n        2. baseToken\n        3. quoteToken\n        4. permissionManager\n        5. feeRateModel\n        6. poolFactory\n      */\n\n        require(addressList.length == 7, \"LIST_LENGTH_WRONG\");\n\n        initOwner(addressList[0]);\n        _MAINTAINER_ = addressList[1];\n        _BASE_TOKEN_ = IERC20(addressList[2]);\n        _QUOTE_TOKEN_ = IERC20(addressList[3]);\n        _BIDDER_PERMISSION_ = IPermissionManager(addressList[4]);\n        _MT_FEE_RATE_MODEL_ = IFeeRateModel(addressList[5]);\n        _POOL_FACTORY_ = addressList[6];\n\n        /*\n        Time Line\n        0. phase bid starttime\n        1. phase bid duration\n        2. phase calm duration\n        3. freeze duration\n        4. vesting duration\n        */\n\n        require(timeLine.length == 5, \"LIST_LENGTH_WRONG\");\n\n        _PHASE_BID_STARTTIME_ = timeLine[0];\n        _PHASE_BID_ENDTIME_ = _PHASE_BID_STARTTIME_.add(timeLine[1]);\n        _PHASE_CALM_ENDTIME_ = _PHASE_BID_ENDTIME_.add(timeLine[2]);\n\n        _FREEZE_DURATION_ = timeLine[3];\n        _VESTING_DURATION_ = timeLine[4];\n\n        require(block.timestamp <= _PHASE_BID_STARTTIME_, \"TIMELINE_WRONG\");\n\n        /*\n        Value List\n        0. pool quote cap\n        1. k\n        2. i\n        3. cliff rate\n        */\n\n        require(valueList.length == 4, \"LIST_LENGTH_WRONG\");\n\n        _POOL_QUOTE_CAP_ = valueList[0];\n        _K_ = valueList[1];\n        _I_ = valueList[2];\n        _CLIFF_RATE_ = valueList[3];\n\n        require(_I_ > 0 && _I_ <= 1e36, \"I_VALUE_WRONG\");\n        require(_K_ <= 1e18, \"K_VALUE_WRONG\");\n        require(_CLIFF_RATE_ <= 1e18, \"CLIFF_RATE_WRONG\");\n\n        _TOTAL_BASE_ = _BASE_TOKEN_.balanceOf(address(this));\n\n        require(address(this).balance == _SETTEL_FUND_, \"SETTLE_FUND_NOT_MATCH\");\n    }\n}\n",
  "sourcePath": "/Users/niutaotao/projects/dodo/contractV2/contracts/CrowdPooling/impl/CP.sol",
  "compiler": {
    "name": "solc",
    "version": "0.6.9+commit.3e3065ac.Emscripten.clang"
  },
  "schemaVersion": "3.3.2",
  "updatedAt": "2021-01-15T08:55:54.416Z",
  "devdoc": {
    "author": "DODO Breeder",
    "methods": {},
    "title": "DODO CrowdPooling"
  },
  "userdoc": {
    "methods": {},
    "notice": "CrowdPooling initialization"
  }
}