{
  "contractName": "CrowdPoolingFactory",
  "abi": [
    {
      "inputs": [
        {
          "internalType": "address",
          "name": "cloneFactory",
          "type": "address"
        },
        {
          "internalType": "address",
          "name": "cpTemplate",
          "type": "address"
        },
        {
          "internalType": "address",
          "name": "unOwnedDvmFactory",
          "type": "address"
        },
        {
          "internalType": "address",
          "name": "feeRateModelTemplate",
          "type": "address"
        },
        {
          "internalType": "address",
          "name": "defaultMaintainer",
          "type": "address"
        },
        {
          "internalType": "address",
          "name": "defaultMtFeeRateModel",
          "type": "address"
        },
        {
          "internalType": "address",
          "name": "defaultPermissionManager",
          "type": "address"
        },
        {
          "internalType": "address",
          "name": "defaultGasPriceSource",
          "type": "address"
        }
      ],
      "stateMutability": "nonpayable",
      "type": "constructor"
    },
    {
      "anonymous": false,
      "inputs": [
        {
          "indexed": false,
          "internalType": "address",
          "name": "baseToken",
          "type": "address"
        },
        {
          "indexed": false,
          "internalType": "address",
          "name": "quoteToken",
          "type": "address"
        },
        {
          "indexed": false,
          "internalType": "address",
          "name": "creator",
          "type": "address"
        },
        {
          "indexed": false,
          "internalType": "address",
          "name": "cp",
          "type": "address"
        }
      ],
      "name": "NewCP",
      "type": "event"
    },
    {
      "anonymous": false,
      "inputs": [
        {
          "indexed": true,
          "internalType": "address",
          "name": "previousOwner",
          "type": "address"
        },
        {
          "indexed": true,
          "internalType": "address",
          "name": "newOwner",
          "type": "address"
        }
      ],
      "name": "OwnershipTransferPrepared",
      "type": "event"
    },
    {
      "anonymous": false,
      "inputs": [
        {
          "indexed": true,
          "internalType": "address",
          "name": "previousOwner",
          "type": "address"
        },
        {
          "indexed": true,
          "internalType": "address",
          "name": "newOwner",
          "type": "address"
        }
      ],
      "name": "OwnershipTransferred",
      "type": "event"
    },
    {
      "inputs": [],
      "name": "_CLONE_FACTORY_",
      "outputs": [
        {
          "internalType": "address",
          "name": "",
          "type": "address"
        }
      ],
      "stateMutability": "view",
      "type": "function"
    },
    {
      "inputs": [],
      "name": "_CP_TEMPLATE_",
      "outputs": [
        {
          "internalType": "address",
          "name": "",
          "type": "address"
        }
      ],
      "stateMutability": "view",
      "type": "function"
    },
    {
      "inputs": [],
      "name": "_DEFAULT_GAS_PRICE_SOURCE_",
      "outputs": [
        {
          "internalType": "address",
          "name": "",
          "type": "address"
        }
      ],
      "stateMutability": "view",
      "type": "function"
    },
    {
      "inputs": [],
      "name": "_DEFAULT_MAINTAINER_",
      "outputs": [
        {
          "internalType": "address",
          "name": "",
          "type": "address"
        }
      ],
      "stateMutability": "view",
      "type": "function"
    },
    {
      "inputs": [],
      "name": "_DEFAULT_MT_FEE_RATE_MODEL_",
      "outputs": [
        {
          "internalType": "address",
          "name": "",
          "type": "address"
        }
      ],
      "stateMutability": "view",
      "type": "function"
    },
    {
      "inputs": [],
      "name": "_DEFAULT_PERMISSION_MANAGER_",
      "outputs": [
        {
          "internalType": "address",
          "name": "",
          "type": "address"
        }
      ],
      "stateMutability": "view",
      "type": "function"
    },
    {
      "inputs": [],
      "name": "_FEE_RATE_MODEL_TEMPLATE_",
      "outputs": [
        {
          "internalType": "address",
          "name": "",
          "type": "address"
        }
      ],
      "stateMutability": "view",
      "type": "function"
    },
    {
      "inputs": [],
      "name": "_NEW_OWNER_",
      "outputs": [
        {
          "internalType": "address",
          "name": "",
          "type": "address"
        }
      ],
      "stateMutability": "view",
      "type": "function"
    },
    {
      "inputs": [],
      "name": "_OWNER_",
      "outputs": [
        {
          "internalType": "address",
          "name": "",
          "type": "address"
        }
      ],
      "stateMutability": "view",
      "type": "function"
    },
    {
      "inputs": [
        {
          "internalType": "address",
          "name": "",
          "type": "address"
        },
        {
          "internalType": "address",
          "name": "",
          "type": "address"
        },
        {
          "internalType": "uint256",
          "name": "",
          "type": "uint256"
        }
      ],
      "name": "_REGISTRY_",
      "outputs": [
        {
          "internalType": "address",
          "name": "",
          "type": "address"
        }
      ],
      "stateMutability": "view",
      "type": "function"
    },
    {
      "inputs": [],
      "name": "_UNOWNED_DVM_FACTORY_",
      "outputs": [
        {
          "internalType": "address",
          "name": "",
          "type": "address"
        }
      ],
      "stateMutability": "view",
      "type": "function"
    },
    {
      "inputs": [
        {
          "internalType": "address",
          "name": "",
          "type": "address"
        },
        {
          "internalType": "uint256",
          "name": "",
          "type": "uint256"
        }
      ],
      "name": "_USER_REGISTRY_",
      "outputs": [
        {
          "internalType": "address",
          "name": "",
          "type": "address"
        }
      ],
      "stateMutability": "view",
      "type": "function"
    },
    {
      "inputs": [],
      "name": "_X_",
      "outputs": [
        {
          "internalType": "uint256",
          "name": "",
          "type": "uint256"
        }
      ],
      "stateMutability": "view",
      "type": "function"
    },
    {
      "inputs": [],
      "name": "_Y_",
      "outputs": [
        {
          "internalType": "uint256",
          "name": "",
          "type": "uint256"
        }
      ],
      "stateMutability": "view",
      "type": "function"
    },
    {
      "inputs": [],
      "name": "claimOwnership",
      "outputs": [],
      "stateMutability": "nonpayable",
      "type": "function"
    },
    {
      "inputs": [
        {
          "internalType": "address",
          "name": "newOwner",
          "type": "address"
        }
      ],
      "name": "initOwner",
      "outputs": [],
      "stateMutability": "nonpayable",
      "type": "function"
    },
    {
      "inputs": [
        {
          "internalType": "address",
          "name": "newOwner",
          "type": "address"
        }
      ],
      "name": "transferOwnership",
      "outputs": [],
      "stateMutability": "nonpayable",
      "type": "function"
    },
    {
      "inputs": [],
      "name": "createCrowdPooling",
      "outputs": [
        {
          "internalType": "address",
          "name": "newCrowdPooling",
          "type": "address"
        }
      ],
      "stateMutability": "nonpayable",
      "type": "function"
    },
    {
      "inputs": [
        {
          "internalType": "address",
          "name": "cpAddress",
          "type": "address"
        },
        {
          "internalType": "address",
          "name": "creator",
          "type": "address"
        },
        {
          "internalType": "address",
          "name": "baseToken",
          "type": "address"
        },
        {
          "internalType": "address",
          "name": "quoteToken",
          "type": "address"
        },
        {
          "internalType": "uint256[]",
          "name": "timeLine",
          "type": "uint256[]"
        },
        {
          "internalType": "uint256[]",
          "name": "valueList",
          "type": "uint256[]"
        }
      ],
      "name": "initCrowdPooling",
      "outputs": [],
      "stateMutability": "nonpayable",
      "type": "function"
    },
    {
      "inputs": [
        {
          "internalType": "address",
          "name": "baseToken",
          "type": "address"
        },
        {
          "internalType": "address",
          "name": "quoteToken",
          "type": "address"
        }
      ],
      "name": "getCrowdPooling",
      "outputs": [
        {
          "internalType": "address[]",
          "name": "pools",
          "type": "address[]"
        }
      ],
      "stateMutability": "view",
      "type": "function"
    },
    {
      "inputs": [
        {
          "internalType": "address",
          "name": "token0",
          "type": "address"
        },
        {
          "internalType": "address",
          "name": "token1",
          "type": "address"
        }
      ],
      "name": "getCrowdPoolingBidirection",
      "outputs": [
        {
          "internalType": "address[]",
          "name": "baseToken0Pools",
          "type": "address[]"
        },
        {
          "internalType": "address[]",
          "name": "baseToken1Pools",
          "type": "address[]"
        }
      ],
      "stateMutability": "view",
      "type": "function"
    },
    {
      "inputs": [
        {
          "internalType": "address",
          "name": "user",
          "type": "address"
        }
      ],
      "name": "getCrowdPoolingByUser",
      "outputs": [
        {
          "internalType": "address[]",
          "name": "pools",
          "type": "address[]"
        }
      ],
      "stateMutability": "view",
      "type": "function"
    },
    {
      "inputs": [
        {
          "internalType": "uint256",
          "name": "x",
          "type": "uint256"
        },
        {
          "internalType": "uint256",
          "name": "y",
          "type": "uint256"
        }
      ],
      "name": "setXY",
      "outputs": [],
      "stateMutability": "nonpayable",
      "type": "function"
    }
  ],
  "bytecode": "0x610180604052603260025560006003553480156200001c57600080fd5b5060405162001773380380620017738339810160408190526200003f91620000bb565b6001600160601b0319606098891b811660805296881b871660a05294871b861660c05292861b851660e05290851b841661010052841b831661012052831b82166101405290911b1661016052603260025562278d006003556200016a565b80516001600160a01b0381168114620000b557600080fd5b92915050565b600080600080600080600080610100898b031215620000d8578384fd5b620000e48a8a6200009d565b9750620000f58a60208b016200009d565b9650620001068a60408b016200009d565b9550620001178a60608b016200009d565b9450620001288a60808b016200009d565b9350620001398a60a08b016200009d565b92506200014a8a60c08b016200009d565b91506200015b8a60e08b016200009d565b90509295985092959890939650565b60805160601c60a05160601c60c05160601c60e05160601c6101005160601c6101205160601c6101405160601c6101605160601c611575620001fe600039806105e7525080610b1c5280610ddf52508061060b5280610b6a52508061062f5280610a725250806103b35250806102b55280610bb85250806106a7528061075d52508061067a5280610e0352506115756000f3fe608060405234801561001057600080fd5b506004361061014d5760003560e01c80636c5ccb9b116100c3578063a820636b1161007c578063a820636b14610251578063b67df33114610264578063bdeb0a9114610277578063e0f5d89e1461028a578063eb774d0514610292578063f2fde38b1461029a5761014d565b80636c5ccb9b1461021657806381ab4d0a1461021e5780638456db151461022657806389edcf141461022e578063a58888db14610236578063a6569b3f146102495761014d565b8063378ac46711610115578063378ac467146101b55780633fff98c2146101bd57806341a1759c146101c55780634e71e0c8146101e65780636556c7e5146101ee578063658ba1a91461020e5761014d565b8063020afb7414610152578063080a3030146101705780630d0092971461018557806316048bc41461019a57806331a168a2146101a2575b600080fd5b61015a6102ad565b604051610167919061151e565b60405180910390f35b6101786102b3565b60405161016791906111e0565b610198610193366004610fb0565b6102d7565b005b610178610340565b6101986101b036600461114d565b61034f565b6101786103b1565b61015a6103d5565b6101d86101d3366004610fe8565b6103db565b604051610167929190611232565b6101986104d3565b6102016101fc366004610fe8565b610561565b604051610167919061121f565b6101786105e5565b610178610609565b61017861062d565b610178610651565b610178610660565b61017861024436600461110a565b610726565b61017861075b565b61020161025f366004610fb0565b61077f565b610198610272366004611020565b6107f5565b6101786102853660046110ca565b610d9b565b610178610ddd565b610178610e01565b6101986102a8366004610fb0565b610e25565b60035481565b7f000000000000000000000000000000000000000000000000000000000000000081565b600154600160a01b900460ff161561030a5760405162461bcd60e51b8152600401610301906113fd565b60405180910390fd5b6001805460ff60a01b1916600160a01b179055600080546001600160a01b039092166001600160a01b0319909216919091179055565b6000546001600160a01b031681565b6000546001600160a01b031633146103795760405162461bcd60e51b81526004016103019061145e565b60008211801561038a575060648211155b6103a65760405162461bcd60e51b8152600401610301906114cb565b600291909155600355565b7f000000000000000000000000000000000000000000000000000000000000000081565b60025481565b6001600160a01b038083166000818152600460208181526040808420958716845294815284832091815284832093835292835290839020815484518185028101850190955280855260609485949091849183018282801561046557602002820191906000526020600020905b81546001600160a01b03168152600190910190602001808311610447575b50505050509150808054806020026020016040519081016040528092919081815260200182805480156104c157602002820191906000526020600020905b81546001600160a01b031681526001909101906020018083116104a3575b50505050509050915091509250929050565b6001546001600160a01b031633146104fd5760405162461bcd60e51b8152600401610301906112a2565b600154600080546040516001600160a01b0393841693909116917f8be0079c531659141344cd1fd0a4f28419497f9722a3daafe3b4186f6b6457e091a360018054600080546001600160a01b03199081166001600160a01b03841617909155169055565b6001600160a01b0380831660009081526004602090815260408083209385168352928152908290208054835181840281018401909452808452606093928301828280156105d757602002820191906000526020600020905b81546001600160a01b031681526001909101906020018083116105b9575b505050505090505b92915050565b7f000000000000000000000000000000000000000000000000000000000000000081565b7f000000000000000000000000000000000000000000000000000000000000000081565b7f000000000000000000000000000000000000000000000000000000000000000081565b6001546001600160a01b031681565b6040516340925bc760e11b81526000906001600160a01b037f00000000000000000000000000000000000000000000000000000000000000001690638124b78e906106cf907f0000000000000000000000000000000000000000000000000000000000000000906004016111e0565b602060405180830381600087803b1580156106e957600080fd5b505af11580156106fd573d6000803e3d6000fd5b505050506040513d601f19601f820116820180604052508101906107219190610fcc565b905090565b6005602052816000526040600020818154811061073f57fe5b6000918252602090912001546001600160a01b03169150829050565b7f000000000000000000000000000000000000000000000000000000000000000081565b6001600160a01b0381166000908152600560209081526040918290208054835181840281018401909452808452606093928301828280156107e957602002820191906000526020600020905b81546001600160a01b031681526001909101906020018083116107cb575b50505050509050919050565b858483838160028151811061080657fe5b602002602001015160001461082d5760405162461bcd60e51b815260040161030190611481565b8160048151811061083a57fe5b60200260200101516000146108615760405162461bcd60e51b815260040161030190611382565b8060018151811061086e57fe5b60200260200101516000146108955760405162461bcd60e51b8152600401610301906113c6565b670de0b6b3a7640000816003815181106108ab57fe5b6020026020010151146108d05760405162461bcd60e51b81526004016103019061130d565b6040516370a0823160e01b81526000906001600160a01b038516906370a08231906108ff9088906004016111e0565b60206040518083038186803b15801561091757600080fd5b505afa15801561092b573d6000803e3d6000fd5b505050506040513d601f19601f8201168201806040525081019061094f9190611135565b90506109a2600254610996670de0b6b3a764000061098a8660028151811061097357fe5b602002602001015186610eaa90919063ffffffff16565b9063ffffffff610eeb16565b9063ffffffff610eaa16565b6109ca6064846000815181106109b457fe5b6020026020010151610eaa90919063ffffffff16565b11156109e85760405162461bcd60e51b815260040161030190611427565b600354836003815181106109f857fe5b60200260200101511015610a1e5760405162461bcd60e51b8152600401610301906112c9565b60408051600780825261010082019092526060916020820160e0803683370190505090508a81600081518110610a5057fe5b60200260200101906001600160a01b031690816001600160a01b0316815250507f000000000000000000000000000000000000000000000000000000000000000081600181518110610a9e57fe5b60200260200101906001600160a01b031690816001600160a01b0316815250508981600281518110610acc57fe5b60200260200101906001600160a01b031690816001600160a01b0316815250508881600381518110610afa57fe5b60200260200101906001600160a01b031690816001600160a01b0316815250507f000000000000000000000000000000000000000000000000000000000000000081600481518110610b4857fe5b60200260200101906001600160a01b031690816001600160a01b0316815250507f000000000000000000000000000000000000000000000000000000000000000081600581518110610b9657fe5b60200260200101906001600160a01b031690816001600160a01b0316815250507f000000000000000000000000000000000000000000000000000000000000000081600681518110610be457fe5b6001600160a01b039283166020918202929092010152604051633dd11c6160e21b8152908d169063f744718490610c239084908c908c90600401611260565b600060405180830381600087803b158015610c3d57600080fd5b505af1158015610c51573d6000803e3d6000fd5b5050505050600460008a6001600160a01b03166001600160a01b031681526020019081526020016000206000896001600160a01b03166001600160a01b031681526020019081526020016000208b9080600181540180825580915050600190039060005260206000200160009091909190916101000a8154816001600160a01b0302191690836001600160a01b03160217905550600560008b6001600160a01b03166001600160a01b031681526020019081526020016000208b9080600181540180825580915050600190039060005260206000200160009091909190916101000a8154816001600160a01b0302191690836001600160a01b031602179055507f0bd1e8ce555b4ec75d8b1c8113a8812659e0d94f0b4c67637dc049434604b45d89898c8e604051610d8694939291906111f4565b60405180910390a15050505050505050505050565b60046020528260005260406000206020528160005260406000208181548110610dc057fe5b6000918252602090912001546001600160a01b0316925083915050565b7f000000000000000000000000000000000000000000000000000000000000000081565b7f000000000000000000000000000000000000000000000000000000000000000081565b6000546001600160a01b03163314610e4f5760405162461bcd60e51b81526004016103019061145e565b600080546040516001600160a01b03808516939216917fdcf55418cee3220104fef63f979ff3c4097ad240c0c43dcb33ce837748983e6291a3600180546001600160a01b0319166001600160a01b0392909216919091179055565b600082610eb9575060006105df565b82820282848281610ec657fe5b0414610ee45760405162461bcd60e51b8152600401610301906114fb565b9392505050565b6000808211610f0c5760405162461bcd60e51b81526004016103019061135a565b818381610f1557fe5b049392505050565b600082601f830112610f2d578081fd5b813567ffffffffffffffff80821115610f44578283fd5b602080830260405182828201018181108582111715610f61578687fd5b604052848152945081850192508582018187018301881015610f8257600080fd5b600091505b84821015610fa5578035845292820192600191909101908201610f87565b505050505092915050565b600060208284031215610fc1578081fd5b8135610ee481611527565b600060208284031215610fdd578081fd5b8151610ee481611527565b60008060408385031215610ffa578081fd5b823561100581611527565b9150602083013561101581611527565b809150509250929050565b60008060008060008060c08789031215611038578182fd5b863561104381611527565b9550602087013561105381611527565b9450604087013561106381611527565b9350606087013561107381611527565b9250608087013567ffffffffffffffff8082111561108f578384fd5b61109b8a838b01610f1d565b935060a08901359150808211156110b0578283fd5b506110bd89828a01610f1d565b9150509295509295509295565b6000806000606084860312156110de578283fd5b83356110e981611527565b925060208401356110f981611527565b929592945050506040919091013590565b6000806040838503121561111c578182fd5b823561112781611527565b946020939093013593505050565b600060208284031215611146578081fd5b5051919050565b6000806040838503121561115f578182fd5b50508035926020909101359150565b6000815180845260208085019450808401835b838110156111a65781516001600160a01b031687529582019590820190600101611181565b509495945050505050565b6000815180845260208085019450808401835b838110156111a6578151875295820195908201906001016111c4565b6001600160a01b0391909116815260200190565b6001600160a01b03948516815292841660208401529083166040830152909116606082015260800190565b600060208252610ee4602083018461116e565b600060408252611245604083018561116e565b8281036020840152611257818561116e565b95945050505050565b600060608252611273606083018661116e565b828103602084015261128581866111b1565b838103604085015261129781866111b1565b979650505050505050565b6020808252600d908201526c494e56414c49445f434c41494d60981b604082015260600190565b60208082526024908201527f43505f464143544f5259203a20465245455a455f4455524154494f4e5f494e566040820152631053125160e21b606082015260800190565b6020808252602d908201527f43505f464143544f5259203a20434c4946465f524154455f444543494d414c5f60408201526c4d4154485f4f4e455f4f4e4c5960981b606082015260800190565b6020808252600e908201526d2224ab24a224a723afa2a92927a960911b604082015260600190565b60208082526024908201527f43505f464143544f5259203a20564553545f4455524154494f4e5f5a45524f5f6040820152634f4e4c5960e01b606082015260800190565b60208082526018908201527f43505f464143544f5259203a204b5f5a45524f5f4f4e4c590000000000000000604082015260600190565b60208082526010908201526f1113d113d7d25392551250531256915160821b604082015260600190565b6020808252601f908201527f43505f464143544f5259203a2051554f54455f434150455f494e56414c494400604082015260600190565b6020808252600990820152682727aa2fa7aba722a960b91b604082015260600190565b6020808252602a908201527f43505f464143544f5259203a2050484153455f43414c4d5f4455524154494f4e6040820152695f5a45524f5f4f4e4c5960b01b606082015260800190565b602080825260169082015275086a0be8c8286a89ea4b2407440929cac82989288beb60531b604082015260600190565b60208082526009908201526826aaa62fa2a92927a960b91b604082015260600190565b90815260200190565b6001600160a01b038116811461153c57600080fd5b5056fea26469706673582212200a3c6e3a7b81b718b9067d6180ea5f1951c63453f4278efa604b2869ac4f113964736f6c63430006090033",
  "immutableReferences": {
    "8505": [
      {
        "length": 32,
        "start": 1658
      },
      {
        "length": 32,
        "start": 3587
      }
    ],
    "8507": [
      {
        "length": 32,
        "start": 1703
      },
      {
        "length": 32,
        "start": 1885
      }
    ],
    "8509": [
      {
        "length": 32,
        "start": 693
      },
      {
        "length": 32,
        "start": 3000
      }
    ],
    "8511": [
      {
        "length": 32,
        "start": 947
      }
    ],
    "8513": [
      {
        "length": 32,
        "start": 1583
      },
      {
        "length": 32,
        "start": 2674
      }
    ],
    "8515": [
      {
        "length": 32,
        "start": 1547
      },
      {
        "length": 32,
        "start": 2922
      }
    ],
    "8517": [
      {
        "length": 32,
        "start": 2844
      },
      {
        "length": 32,
        "start": 3551
      }
    ],
    "8519": [
      {
        "length": 32,
        "start": 1511
      }
    ]
  },
  "source": "/*\n\n    Copyright 2020 DODO ZOO.\n    SPDX-License-Identifier: Apache-2.0\n\n*/\n\npragma solidity 0.6.9;\npragma experimental ABIEncoderV2;\n\nimport {InitializableOwnable} from \"../lib/InitializableOwnable.sol\";\nimport {ICloneFactory} from \"../lib/CloneFactory.sol\";\nimport {ICP} from \"../CrowdPooling/intf/ICP.sol\";\nimport {SafeMath} from \"../lib/SafeMath.sol\";\nimport {IERC20} from \"../intf/IERC20.sol\";\nimport {DecimalMath} from \"../lib/DecimalMath.sol\";\n\ncontract CrowdPoolingFactory is InitializableOwnable {\n    using SafeMath for uint256;\n    // ============ Templates ============\n\n    address public immutable _CLONE_FACTORY_;\n    address public immutable _CP_TEMPLATE_;\n    address public immutable _UNOWNED_DVM_FACTORY_;\n    address public immutable _FEE_RATE_MODEL_TEMPLATE_;\n\n    address public immutable _DEFAULT_MAINTAINER_;\n    address public immutable _DEFAULT_MT_FEE_RATE_MODEL_;\n    address public immutable _DEFAULT_PERMISSION_MANAGER_;\n    address public immutable _DEFAULT_GAS_PRICE_SOURCE_;\n\n    uint256 public _X_ = 50; //default\n    uint256 public _Y_ = 0; //default\n    // ============ Registry ============\n\n    // base -> quote -> CP address list\n    mapping(address => mapping(address => address[])) public _REGISTRY_;\n    // creator -> CP address list\n    mapping(address => address[]) public _USER_REGISTRY_;\n\n    // ============ modifiers ===========\n    modifier valueCheck(\n        address cpAddress,\n        address baseToken,\n        uint256[] memory timeLine,\n        uint256[] memory valueList)\n    {\n        require(timeLine[2] == 0,\"CP_FACTORY : PHASE_CALM_DURATION_ZERO_ONLY\");\n        require(timeLine[4] == 0,\"CP_FACTORY : VEST_DURATION_ZERO_ONLY\");\n        require(valueList[1] == 0,\"CP_FACTORY : K_ZERO_ONLY\");\n        require(valueList[3] == DecimalMath.ONE,\"CP_FACTORY : CLIFF_RATE_DECIMAL_MATH_ONE_ONLY\");\n\n        uint256 baseTokenBalance = IERC20(baseToken).balanceOf(cpAddress);\n        require(valueList[0].mul(100) <= baseTokenBalance.mul(valueList[2]).div(10**18).mul(_X_),\"CP_FACTORY : QUOTE_CAPE_INVALID\");\n        require(timeLine[3]>= _Y_,\"CP_FACTORY : FREEZE_DURATION_INVALID\");\n        _;\n    }\n\n    // ============ Events ============\n\n    event NewCP(\n        address baseToken,\n        address quoteToken,\n        address creator,\n        address cp\n    );\n\n    // ============ Functions ============\n\n    constructor(\n        address cloneFactory,\n        address cpTemplate,\n        address unOwnedDvmFactory,\n        address feeRateModelTemplate,\n        address defaultMaintainer,\n        address defaultMtFeeRateModel,\n        address defaultPermissionManager,\n        address defaultGasPriceSource\n    ) public {\n        _CLONE_FACTORY_ = cloneFactory;\n        _CP_TEMPLATE_ = cpTemplate;\n        _UNOWNED_DVM_FACTORY_ = unOwnedDvmFactory;\n        _FEE_RATE_MODEL_TEMPLATE_ = feeRateModelTemplate;\n        _DEFAULT_MAINTAINER_ = defaultMaintainer;\n        _DEFAULT_MT_FEE_RATE_MODEL_ = defaultMtFeeRateModel;\n        _DEFAULT_PERMISSION_MANAGER_ = defaultPermissionManager;\n        _DEFAULT_GAS_PRICE_SOURCE_ = defaultGasPriceSource;\n        _X_ = 50;\n        _Y_ = 30 days;\n    }\n\n    function createCrowdPooling() external returns (address newCrowdPooling) {\n        newCrowdPooling = ICloneFactory(_CLONE_FACTORY_).clone(_CP_TEMPLATE_);\n    }\n\n    function initCrowdPooling(\n        address cpAddress,\n        address creator,\n        address baseToken,\n        address quoteToken,\n        uint256[] memory timeLine,\n        uint256[] memory valueList\n    ) external valueCheck(cpAddress,baseToken,timeLine,valueList) {\n        {\n        address[] memory addressList = new address[](7);\n        addressList[0] = creator;\n        addressList[1] = _DEFAULT_MAINTAINER_;\n        addressList[2] = baseToken;\n        addressList[3] = quoteToken;\n        addressList[4] = _DEFAULT_PERMISSION_MANAGER_;\n        addressList[5] = _DEFAULT_MT_FEE_RATE_MODEL_;\n        addressList[6] = _UNOWNED_DVM_FACTORY_;\n\n        ICP(cpAddress).init(\n            addressList,\n            timeLine,\n            valueList\n        );\n        }\n\n        _REGISTRY_[baseToken][quoteToken].push(cpAddress);\n        _USER_REGISTRY_[creator].push(cpAddress);\n\n        emit NewCP(baseToken, quoteToken, creator, cpAddress);\n\n        //TODO: settle\n    }\n\n    // ============ View Functions ============\n\n    function getCrowdPooling(address baseToken, address quoteToken)\n        external\n        view\n        returns (address[] memory pools)\n    {\n        return _REGISTRY_[baseToken][quoteToken];\n    }\n\n    function getCrowdPoolingBidirection(address token0, address token1)\n        external\n        view\n        returns (address[] memory baseToken0Pools, address[] memory baseToken1Pools)\n    {\n        return (_REGISTRY_[token0][token1], _REGISTRY_[token1][token0]);\n    }\n\n    function getCrowdPoolingByUser(address user)\n        external\n        view\n        returns (address[] memory pools)\n    {\n        return _USER_REGISTRY_[user];\n    }\n\n    // ============ Owner Functions ============\n    function setXY(uint256 x,uint256 y) public onlyOwner {\n        require(x>0&&x<=100,\"CP_FACTORY : INVALID_X\");\n        _X_=x;\n        _Y_=y;\n    }\n}\n",
  "sourcePath": "/Users/niutaotao/projects/dodo/contractV2/contracts/Factory/CrowdPoolingFactory.sol",
  "compiler": {
    "name": "solc",
    "version": "0.6.9+commit.3e3065ac.Emscripten.clang"
  },
  "schemaVersion": "3.3.2",
  "updatedAt": "2020-12-24T13:41:25.737Z",
  "devdoc": {
    "methods": {}
  },
  "userdoc": {
    "methods": {}
  }
}