{
  "contractName": "DODOV1Proxy03",
  "abi": [
    {
      "inputs": [
        {
          "internalType": "address",
          "name": "dodoApporve",
          "type": "address"
        },
        {
          "internalType": "address",
          "name": "dodoSellHelper",
          "type": "address"
        },
        {
          "internalType": "address",
          "name": "weth",
          "type": "address"
        },
        {
          "internalType": "address",
          "name": "chiToken",
          "type": "address"
        }
      ],
      "stateMutability": "nonpayable",
      "type": "constructor"
    },
    {
      "anonymous": false,
      "inputs": [
        {
          "indexed": true,
          "internalType": "address",
          "name": "fromToken",
          "type": "address"
        },
        {
          "indexed": true,
          "internalType": "address",
          "name": "toToken",
          "type": "address"
        },
        {
          "indexed": true,
          "internalType": "address",
          "name": "sender",
          "type": "address"
        },
        {
          "indexed": false,
          "internalType": "uint256",
          "name": "fromAmount",
          "type": "uint256"
        },
        {
          "indexed": false,
          "internalType": "uint256",
          "name": "returnAmount",
          "type": "uint256"
        }
      ],
      "name": "OrderHistory",
      "type": "event"
    },
    {
      "anonymous": false,
      "inputs": [
        {
          "indexed": true,
          "internalType": "address",
          "name": "previousOwner",
          "type": "address"
        },
        {
          "indexed": true,
          "internalType": "address",
          "name": "newOwner",
          "type": "address"
        }
      ],
      "name": "OwnershipTransferPrepared",
      "type": "event"
    },
    {
      "anonymous": false,
      "inputs": [
        {
          "indexed": true,
          "internalType": "address",
          "name": "previousOwner",
          "type": "address"
        },
        {
          "indexed": true,
          "internalType": "address",
          "name": "newOwner",
          "type": "address"
        }
      ],
      "name": "OwnershipTransferred",
      "type": "event"
    },
    {
      "stateMutability": "payable",
      "type": "fallback"
    },
    {
      "inputs": [],
      "name": "_CHI_TOKEN_",
      "outputs": [
        {
          "internalType": "address",
          "name": "",
          "type": "address"
        }
      ],
      "stateMutability": "view",
      "type": "function"
    },
    {
      "inputs": [],
      "name": "_DODO_APPROVE_",
      "outputs": [
        {
          "internalType": "address",
          "name": "",
          "type": "address"
        }
      ],
      "stateMutability": "view",
      "type": "function"
    },
    {
      "inputs": [],
      "name": "_DODO_SELL_HELPER_",
      "outputs": [
        {
          "internalType": "address",
          "name": "",
          "type": "address"
        }
      ],
      "stateMutability": "view",
      "type": "function"
    },
    {
      "inputs": [],
      "name": "_GAS_DODO_MAX_RETURN_",
      "outputs": [
        {
          "internalType": "uint256",
          "name": "",
          "type": "uint256"
        }
      ],
      "stateMutability": "view",
      "type": "function"
    },
    {
      "inputs": [],
      "name": "_GAS_EXTERNAL_RETURN_",
      "outputs": [
        {
          "internalType": "uint256",
          "name": "",
          "type": "uint256"
        }
      ],
      "stateMutability": "view",
      "type": "function"
    },
    {
      "inputs": [],
      "name": "_NEW_OWNER_",
      "outputs": [
        {
          "internalType": "address",
          "name": "",
          "type": "address"
        }
      ],
      "stateMutability": "view",
      "type": "function"
    },
    {
      "inputs": [],
      "name": "_OWNER_",
      "outputs": [
        {
          "internalType": "address",
          "name": "",
          "type": "address"
        }
      ],
      "stateMutability": "view",
      "type": "function"
    },
    {
      "inputs": [],
      "name": "_WETH_",
      "outputs": [
        {
          "internalType": "address",
          "name": "",
          "type": "address"
        }
      ],
      "stateMutability": "view",
      "type": "function"
    },
    {
      "inputs": [],
      "name": "claimOwnership",
      "outputs": [],
      "stateMutability": "nonpayable",
      "type": "function"
    },
    {
      "inputs": [
        {
          "internalType": "address",
          "name": "newOwner",
          "type": "address"
        }
      ],
      "name": "initOwner",
      "outputs": [],
      "stateMutability": "nonpayable",
      "type": "function"
    },
    {
      "inputs": [
        {
          "internalType": "address",
          "name": "",
          "type": "address"
        }
      ],
      "name": "isWhiteListed",
      "outputs": [
        {
          "internalType": "bool",
          "name": "",
          "type": "bool"
        }
      ],
      "stateMutability": "view",
      "type": "function"
    },
    {
      "inputs": [
        {
          "internalType": "address",
          "name": "newOwner",
          "type": "address"
        }
      ],
      "name": "transferOwnership",
      "outputs": [],
      "stateMutability": "nonpayable",
      "type": "function"
    },
    {
      "stateMutability": "payable",
      "type": "receive"
    },
    {
      "inputs": [
        {
          "internalType": "uint256",
          "name": "newDodoGasReturn",
          "type": "uint256"
        },
        {
          "internalType": "uint256",
          "name": "newExternalGasReturn",
          "type": "uint256"
        }
      ],
      "name": "updateGasReturn",
      "outputs": [],
      "stateMutability": "nonpayable",
      "type": "function"
    },
    {
      "inputs": [
        {
          "internalType": "address",
          "name": "contractAddr",
          "type": "address"
        }
      ],
      "name": "addWhiteList",
      "outputs": [],
      "stateMutability": "nonpayable",
      "type": "function"
    },
    {
      "inputs": [
        {
          "internalType": "address",
          "name": "contractAddr",
          "type": "address"
        }
      ],
      "name": "removeWhiteList",
      "outputs": [],
      "stateMutability": "nonpayable",
      "type": "function"
    },
    {
      "inputs": [
        {
          "internalType": "address",
          "name": "fromToken",
          "type": "address"
        },
        {
          "internalType": "address",
          "name": "toToken",
          "type": "address"
        },
        {
          "internalType": "uint256",
          "name": "fromTokenAmount",
          "type": "uint256"
        },
        {
          "internalType": "uint256",
          "name": "minReturnAmount",
          "type": "uint256"
        },
        {
          "internalType": "address[]",
          "name": "dodoPairs",
          "type": "address[]"
        },
        {
          "internalType": "uint256",
          "name": "directions",
          "type": "uint256"
        },
        {
          "internalType": "uint256",
          "name": "deadLine",
          "type": "uint256"
        }
      ],
      "name": "dodoSwapV1",
      "outputs": [
        {
          "internalType": "uint256",
          "name": "returnAmount",
          "type": "uint256"
        }
      ],
      "stateMutability": "payable",
      "type": "function"
    },
    {
      "inputs": [
        {
          "internalType": "address",
          "name": "fromToken",
          "type": "address"
        },
        {
          "internalType": "address",
          "name": "toToken",
          "type": "address"
        },
        {
          "internalType": "address",
          "name": "approveTarget",
          "type": "address"
        },
        {
          "internalType": "address",
          "name": "swapTarget",
          "type": "address"
        },
        {
          "internalType": "uint256",
          "name": "fromTokenAmount",
          "type": "uint256"
        },
        {
          "internalType": "uint256",
          "name": "minReturnAmount",
          "type": "uint256"
        },
        {
          "internalType": "bytes",
          "name": "callDataConcat",
          "type": "bytes"
        },
        {
          "internalType": "uint256",
          "name": "deadLine",
          "type": "uint256"
        }
      ],
      "name": "externalSwap",
      "outputs": [
        {
          "internalType": "uint256",
          "name": "returnAmount",
          "type": "uint256"
        }
      ],
      "stateMutability": "payable",
      "type": "function"
    },
    {
      "inputs": [
        {
          "internalType": "address",
          "name": "fromToken",
          "type": "address"
        },
        {
          "internalType": "address",
          "name": "toToken",
          "type": "address"
        },
        {
          "internalType": "uint256",
          "name": "fromTokenAmount",
          "type": "uint256"
        },
        {
          "internalType": "uint256",
          "name": "minReturnAmount",
          "type": "uint256"
        },
        {
          "internalType": "address[]",
          "name": "mixPairs",
          "type": "address[]"
        },
        {
          "internalType": "uint256[]",
          "name": "directions",
          "type": "uint256[]"
        },
        {
          "internalType": "address[]",
          "name": "portionPath",
          "type": "address[]"
        },
        {
          "internalType": "uint256",
          "name": "deadLine",
          "type": "uint256"
        }
      ],
      "name": "mixSwapV1",
      "outputs": [
        {
          "internalType": "uint256",
          "name": "returnAmount",
          "type": "uint256"
        }
      ],
      "stateMutability": "payable",
      "type": "function"
    }
  ],
  "bytecode": "0x610100604052600a600255600560035534801561001b57600080fd5b506040516130c83803806130c88339818101604052608081101561003e57600080fd5b508051602082015160408301516060938401516001600160601b031993851b841660805291841b831660a052831b821660c05290911b1660e05260805160601c60a05160601c60c05160601c60e05160601c612f9c61012c600039806106b9528061089452806109055280610cda5280610f3c5280610fad528061122f528061143152806118d25280611af05280611b615280611e0b52806120295280612263528061264f525080610765528061112152806116b7528061174d5280611ced52508061155d52806119a652806121555250806109ec5280610d7f528061107a5280611c465250612f9c6000f3fe60806040526004361061010d5760003560e01c806369dba8ee11610095578063af1280b011610064578063af1280b01461043f578063b0ef714f14610454578063d6354c3e14610621578063e7cd4a0414610651578063f2fde38b1461068457610114565b806369dba8ee146103b95780636f9170f6146103ce5780638456db15146104155780639f6873221461042a57610114565b80632042e5c2116100dc5780632042e5c2146101a457806338f4c188146101d757806346e74298146102c45780634e71e0c8146102d9578063637d7696146102ee57610114565b8063056fc2ee146101165780630d009297146101475780630d4eec8f1461017a57806316048bc41461018f57610114565b3661011457005b005b34801561012257600080fd5b5061012b6106b7565b604080516001600160a01b039092168252519081900360200190f35b34801561015357600080fd5b506101146004803603602081101561016a57600080fd5b50356001600160a01b03166106db565b34801561018657600080fd5b5061012b610763565b34801561019b57600080fd5b5061012b610787565b3480156101b057600080fd5b50610114600480360360208110156101c757600080fd5b50356001600160a01b0316610796565b6102b260048036036101008110156101ee57600080fd5b6001600160a01b038235811692602081013582169260408201358316926060830135169160808101359160a0820135919081019060e0810160c0820135600160201b81111561023c57600080fd5b82018360208201111561024e57600080fd5b803590602001918460018302840111600160201b8311171561026f57600080fd5b91908080601f0160208091040260200160405190810160405280939291908181526020018383808284376000920191909152509295505091359250610802915050565b60408051918252519081900360200190f35b3480156102d057600080fd5b5061012b610d7d565b3480156102e557600080fd5b50610114610da1565b6102b2600480360360e081101561030457600080fd5b6001600160a01b03823581169260208101359091169160408201359160608101359181019060a081016080820135600160201b81111561034357600080fd5b82018360208201111561035557600080fd5b803590602001918460208302840111600160201b8311171561037657600080fd5b9190808060200260200160405190810160405280939291908181526020018383602002808284376000920191909152509295505082359350505060200135610e54565b3480156103c557600080fd5b506102b2611974565b3480156103da57600080fd5b50610401600480360360208110156103f157600080fd5b50356001600160a01b031661197a565b604080519115158252519081900360200190f35b34801561042157600080fd5b5061012b61198f565b34801561043657600080fd5b506102b261199e565b34801561044b57600080fd5b5061012b6119a4565b6102b2600480360361010081101561046b57600080fd5b6001600160a01b03823581169260208101359091169160408201359160608101359181019060a081016080820135600160201b8111156104aa57600080fd5b8201836020820111156104bc57600080fd5b803590602001918460208302840111600160201b831117156104dd57600080fd5b9190808060200260200160405190810160405280939291908181526020018383602002808284376000920191909152509295949360208101935035915050600160201b81111561052c57600080fd5b82018360208201111561053e57600080fd5b803590602001918460208302840111600160201b8311171561055f57600080fd5b9190808060200260200160405190810160405280939291908181526020018383602002808284376000920191909152509295949360208101935035915050600160201b8111156105ae57600080fd5b8201836020820111156105c057600080fd5b803590602001918460208302840111600160201b831117156105e157600080fd5b91908080602002602001604051908101604052809392919081815260200183836020028082843760009201919091525092955050913592506119c8915050565b34801561062d57600080fd5b506101146004803603604081101561064457600080fd5b50803590602001356126ef565b34801561065d57600080fd5b506101146004803603602081101561067457600080fd5b50356001600160a01b0316612745565b34801561069057600080fd5b50610114600480360360208110156106a757600080fd5b50356001600160a01b03166127b4565b7f000000000000000000000000000000000000000000000000000000000000000081565b600154600160a01b900460ff161561072d576040805162461bcd60e51b815260206004820152601060248201526f1113d113d7d25392551250531256915160821b604482015290519081900360640190fd5b6001805460ff60a01b1916600160a01b179055600080546001600160a01b039092166001600160a01b0319909216919091179055565b7f000000000000000000000000000000000000000000000000000000000000000081565b6000546001600160a01b031681565b6000546001600160a01b031633146107e1576040805162461bcd60e51b81526020600482015260096024820152682727aa2fa7aba722a960b91b604482015290519081900360640190fd5b6001600160a01b03166000908152600460205260409020805460ff19169055565b60008142811015610853576040805162461bcd60e51b81526020600482015260166024820152751113d113d58c541c9bde1e4c0cce881156141254915160521b604482015290519081900360640190fd5b600085116108925760405162461bcd60e51b8152600401808060200182810382526021815260200180612e016021913960400191505060405180910390fd5b7f00000000000000000000000000000000000000000000000000000000000000006001600160a01b03168a6001600160a01b031614156109035760405162461bcd60e51b8152600401808060200182810382526023815260200180612dbc6023913960400191505060405180910390fd5b7f00000000000000000000000000000000000000000000000000000000000000006001600160a01b0316896001600160a01b031614156109745760405162461bcd60e51b8152600401808060200182810382526022815260200180612ddf6022913960400191505060405180910390fd5b898960006109916001600160a01b0383163363ffffffff61285a16565b90506001600160a01b03831673eeeeeeeeeeeeeeeeeeeeeeeeeeeeeeeeeeeeeeee14610a63576040805163052f523360e11b81526001600160a01b038581166004830152336024830152306044830152606482018c905291517f000000000000000000000000000000000000000000000000000000000000000090921691630a5ea4669160848082019260009290919082900301818387803b158015610a3657600080fd5b505af1158015610a4a573d6000803e3d6000fd5b50610a63925050506001600160a01b0384168c8b612906565b6001600160a01b038a1660009081526004602052604090205460ff16610aba5760405162461bcd60e51b8152600401808060200182810382526025815260200180612eb56025913960400191505060405180910390fd5b60006001600160a01b03808c1690851673eeeeeeeeeeeeeeeeeeeeeeeeeeeeeeeeeeeeeeee14610aeb576000610aed565b345b896040518082805190602001908083835b60208310610b1d5780518252601f199092019160209182019101610afe565b6001836020036101000a03801982511681845116808217855250505050505090500191505060006040518083038185875af1925050503d8060008114610b7f576040519150601f19603f3d011682016040523d82523d6000602084013e610b84565b606091505b5050905080610bc45760405162461bcd60e51b815260040180806020018281038252602d815260200180612f3a602d913960400191505060405180910390fd5b610bf833610be16001600160a01b0386163063ffffffff61285a16565b6001600160a01b038616919063ffffffff6129d016565b610c2182610c156001600160a01b0386163363ffffffff61285a16565b9063ffffffff612a3f16565b955088861015610c625760405162461bcd60e51b815260040180806020018281038252602a815260200180612e65602a913960400191505060405180910390fd5b336001600160a01b0316836001600160a01b0316856001600160a01b03167f92ceb067a9883c85aba061e46b9edf505a0d6e81927c4b966ebed543a52217878d8a604051808381526020018281526020019250505060405180910390a46003548015610d6b57806117c002616c3e015a1115610d6b577f00000000000000000000000000000000000000000000000000000000000000006001600160a01b0316636366b936826040518263ffffffff1660e01b815260040180828152602001915050602060405180830381600087803b158015610d3e57600080fd5b505af1158015610d52573d6000803e3d6000fd5b505050506040513d6020811015610d6857600080fd5b50505b50505050505098975050505050505050565b7f000000000000000000000000000000000000000000000000000000000000000081565b6001546001600160a01b03163314610df0576040805162461bcd60e51b815260206004820152600d60248201526c494e56414c49445f434c41494d60981b604482015290519081900360640190fd5b600154600080546040516001600160a01b0393841693909116917f8be0079c531659141344cd1fd0a4f28419497f9722a3daafe3b4186f6b6457e091a360018054600080546001600160a01b03199081166001600160a01b03841617909155169055565b60008142811015610ea5576040805162461bcd60e51b81526020600482015260166024820152751113d113d58c541c9bde1e4c0cce881156141254915160521b604482015290519081900360640190fd5b6000855111610efb576040805162461bcd60e51b815260206004820152601a60248201527f444f444f563150726f787930333a2050414952535f454d505459000000000000604482015290519081900360640190fd5b60008611610f3a5760405162461bcd60e51b8152600401808060200182810382526021815260200180612e016021913960400191505060405180910390fd5b7f00000000000000000000000000000000000000000000000000000000000000006001600160a01b0316896001600160a01b03161415610fab5760405162461bcd60e51b8152600401808060200182810382526023815260200180612dbc6023913960400191505060405180910390fd5b7f00000000000000000000000000000000000000000000000000000000000000006001600160a01b0316886001600160a01b0316141561101c5760405162461bcd60e51b8152600401808060200182810382526022815260200180612ddf6022913960400191505060405180910390fd5b60005a90506001600160a01b038a1673eeeeeeeeeeeeeeeeeeeeeeeeeeeeeeeeeeeeeeee146110e1576040805163052f523360e11b81526001600160a01b038c81166004830152336024830152306044830152606482018b905291517f000000000000000000000000000000000000000000000000000000000000000090921691630a5ea4669160848082019260009290919082900301818387803b1580156110c457600080fd5b505af11580156110d8573d6000803e3d6000fd5b50505050611194565b87341461111f5760405162461bcd60e51b8152600401808060200182810382526023815260200180612e426023913960400191505060405180910390fd5b7f00000000000000000000000000000000000000000000000000000000000000006001600160a01b031663d0e30db0896040518263ffffffff1660e01b81526004016000604051808303818588803b15801561117a57600080fd5b505af115801561118e573d6000803e3d6000fd5b50505050505b60005b86518110156116715760008782815181106111ae57fe5b6020026020010151905086600116600014156113c6576000816001600160a01b0316634a248d2a6040518163ffffffff1660e01b815260040160206040518083038186803b1580156111ff57600080fd5b505afa158015611213573d6000803e3d6000fd5b505050506040513d602081101561122957600080fd5b505190507f00000000000000000000000000000000000000000000000000000000000000006001600160a01b03908116908216141561129d576040805162461bcd60e51b815260206004820152601e6024820152600080516020612e22833981519152604482015290519081900360640190fd5b604080516370a0823160e01b815230600482015290516000916001600160a01b038416916370a0823191602480820192602092909190829003018186803b1580156112e757600080fd5b505afa1580156112fb573d6000803e3d6000fd5b505050506040513d602081101561131157600080fd5b5051905061132f6001600160a01b038316848363ffffffff61290616565b826001600160a01b0316638dae73338260006040518363ffffffff1660e01b815260040180838152602001828152602001806020018281038252600081526020016020019350505050602060405180830381600087803b15801561139257600080fd5b505af11580156113a6573d6000803e3d6000fd5b505050506040513d60208110156113bc57600080fd5b5061166492505050565b6000816001600160a01b031663d4b970466040518163ffffffff1660e01b815260040160206040518083038186803b15801561140157600080fd5b505afa158015611415573d6000803e3d6000fd5b505050506040513d602081101561142b57600080fd5b505190507f00000000000000000000000000000000000000000000000000000000000000006001600160a01b03908116908216141561149f576040805162461bcd60e51b815260206004820152601e6024820152600080516020612e22833981519152604482015290519081900360640190fd5b604080516370a0823160e01b815230600482015290516000916001600160a01b038416916370a0823191602480820192602092909190829003018186803b1580156114e957600080fd5b505afa1580156114fd573d6000803e3d6000fd5b505050506040513d602081101561151357600080fd5b505190506115316001600160a01b038316848363ffffffff61290616565b6040805163ca19ebd960e01b81526001600160a01b0385811660048301526024820184905291516000927f0000000000000000000000000000000000000000000000000000000000000000169163ca19ebd9916044808301926020929190829003018186803b1580156115a357600080fd5b505afa1580156115b7573d6000803e3d6000fd5b505050506040513d60208110156115cd57600080fd5b50516040805163733e738360e11b815260048101839052602481018590526060604482015260006064820181905291519293506001600160a01b0387169263e67ce7069260a480840193602093929083900390910190829087803b15801561163457600080fd5b505af1158015611648573d6000803e3d6000fd5b505050506040513d602081101561165e57600080fd5b50505050505b50600195861c9501611197565b506001600160a01b03891673eeeeeeeeeeeeeeeeeeeeeeeeeeeeeeeeeeeeeeee14156117b257604080516370a0823160e01b815230600482015290516001600160a01b037f000000000000000000000000000000000000000000000000000000000000000016916370a08231916024808301926020929190829003018186803b1580156116fd57600080fd5b505afa158015611711573d6000803e3d6000fd5b505050506040513d602081101561172757600080fd5b505160408051632e1a7d4d60e01b81526004810183905290519194506001600160a01b037f00000000000000000000000000000000000000000000000000000000000000001691632e1a7d4d9160248082019260009290919082900301818387803b15801561179557600080fd5b505af11580156117a9573d6000803e3d6000fd5b505050506117ce565b6117cb6001600160a01b038a163063ffffffff612a8816565b92505b8683101561180d5760405162461bcd60e51b815260040180806020018281038252602a815260200180612e65602a913960400191505060405180910390fd5b6118276001600160a01b038a16338563ffffffff6129d016565b336001600160a01b0316896001600160a01b03168b6001600160a01b03167f92ceb067a9883c85aba061e46b9edf505a0d6e81927c4b966ebed543a52217878b87604051808381526020018281526020019250505060405180910390a4600254801561196657600061fde86118a35a859063ffffffff612a3f16565b816118aa57fe5b04905060008282116118bc57816118be565b825b9050806117c002616c3e015a1115611963577f00000000000000000000000000000000000000000000000000000000000000006001600160a01b0316636366b936826040518263ffffffff1660e01b815260040180828152602001915050602060405180830381600087803b15801561193657600080fd5b505af115801561194a573d6000803e3d6000fd5b505050506040513d602081101561196057600080fd5b50505b50505b505050979650505050505050565b60035481565b60046020526000908152604090205460ff1681565b6001546001600160a01b031681565b60025481565b7f000000000000000000000000000000000000000000000000000000000000000081565b60008142811015611a19576040805162461bcd60e51b81526020600482015260166024820152751113d113d58c541c9bde1e4c0cce881156141254915160521b604482015290519081900360640190fd5b8451865114611a595760405162461bcd60e51b8152600401808060200182810382526026815260200180612e8f6026913960400191505060405180910390fd5b6000865111611aaf576040805162461bcd60e51b815260206004820152601a60248201527f444f444f563150726f787930333a2050414952535f454d505459000000000000604482015290519081900360640190fd5b60008711611aee5760405162461bcd60e51b8152600401808060200182810382526021815260200180612e016021913960400191505060405180910390fd5b7f00000000000000000000000000000000000000000000000000000000000000006001600160a01b03168a6001600160a01b03161415611b5f5760405162461bcd60e51b8152600401808060200182810382526023815260200180612dbc6023913960400191505060405180910390fd5b7f00000000000000000000000000000000000000000000000000000000000000006001600160a01b0316896001600160a01b03161415611bd05760405162461bcd60e51b8152600401808060200182810382526022815260200180612ddf6022913960400191505060405180910390fd5b6000611beb6001600160a01b038b163363ffffffff61285a16565b90506001600160a01b038b1673eeeeeeeeeeeeeeeeeeeeeeeeeeeeeeeeeeeeeeee14611cad576040805163052f523360e11b81526001600160a01b038d81166004830152336024830152306044830152606482018c905291517f000000000000000000000000000000000000000000000000000000000000000090921691630a5ea4669160848082019260009290919082900301818387803b158015611c9057600080fd5b505af1158015611ca4573d6000803e3d6000fd5b50505050611d60565b883414611ceb5760405162461bcd60e51b8152600401808060200182810382526023815260200180612e426023913960400191505060405180910390fd5b7f00000000000000000000000000000000000000000000000000000000000000006001600160a01b031663d0e30db08a6040518263ffffffff1660e01b81526004016000604051808303818588803b158015611d4657600080fd5b505af1158015611d5a573d6000803e3d6000fd5b50505050505b60005b8751811015612544576000888281518110611d7a57fe5b60200260200101519050878281518110611d9057fe5b602002602001015160001415611fa2576000816001600160a01b0316634a248d2a6040518163ffffffff1660e01b815260040160206040518083038186803b158015611ddb57600080fd5b505afa158015611def573d6000803e3d6000fd5b505050506040513d6020811015611e0557600080fd5b505190507f00000000000000000000000000000000000000000000000000000000000000006001600160a01b039081169082161415611e79576040805162461bcd60e51b815260206004820152601e6024820152600080516020612e22833981519152604482015290519081900360640190fd5b604080516370a0823160e01b815230600482015290516000916001600160a01b038416916370a0823191602480820192602092909190829003018186803b158015611ec357600080fd5b505afa158015611ed7573d6000803e3d6000fd5b505050506040513d6020811015611eed57600080fd5b50519050611f0b6001600160a01b038316848363ffffffff61290616565b826001600160a01b0316638dae73338260006040518363ffffffff1660e01b815260040180838152602001828152602001806020018281038252600081526020016020019350505050602060405180830381600087803b158015611f6e57600080fd5b505af1158015611f82573d6000803e3d6000fd5b505050506040513d6020811015611f9857600080fd5b5061253b92505050565b878281518110611fae57fe5b602002602001015160011415612261576000816001600160a01b031663d4b970466040518163ffffffff1660e01b815260040160206040518083038186803b158015611ff957600080fd5b505afa15801561200d573d6000803e3d6000fd5b505050506040513d602081101561202357600080fd5b505190507f00000000000000000000000000000000000000000000000000000000000000006001600160a01b039081169082161415612097576040805162461bcd60e51b815260206004820152601e6024820152600080516020612e22833981519152604482015290519081900360640190fd5b604080516370a0823160e01b815230600482015290516000916001600160a01b038416916370a0823191602480820192602092909190829003018186803b1580156120e157600080fd5b505afa1580156120f5573d6000803e3d6000fd5b505050506040513d602081101561210b57600080fd5b505190506121296001600160a01b038316848363ffffffff61290616565b6040805163ca19ebd960e01b81526001600160a01b0385811660048301526024820184905291516000927f0000000000000000000000000000000000000000000000000000000000000000169163ca19ebd9916044808301926020929190829003018186803b15801561219b57600080fd5b505afa1580156121af573d6000803e3d6000fd5b505050506040513d60208110156121c557600080fd5b50516040805163733e738360e11b815260048101839052602481018590526060604482015260006064820181905291519293506001600160a01b0387169263e67ce7069260a480840193602093929083900390910190829087803b15801561222c57600080fd5b505af1158015612240573d6000803e3d6000fd5b505050506040513d602081101561225657600080fd5b5061253b9350505050565b7f00000000000000000000000000000000000000000000000000000000000000006001600160a01b03168760008151811061229857fe5b60200260200101516001600160a01b031614156122ea576040805162461bcd60e51b815260206004820152601e6024820152600080516020612e22833981519152604482015290519081900360640190fd5b6000876000815181106122f957fe5b60200260200101516001600160a01b03166370a08231306040518263ffffffff1660e01b815260040180826001600160a01b03166001600160a01b0316815260200191505060206040518083038186803b15801561235657600080fd5b505afa15801561236a573d6000803e3d6000fd5b505050506040513d602081101561238057600080fd5b505188519091506123ba90839083908b9060009061239a57fe5b60200260200101516001600160a01b03166129069092919063ffffffff16565b816001600160a01b03166338ed17398260008b308c6040518663ffffffff1660e01b81526004018086815260200185815260200180602001846001600160a01b03166001600160a01b03168152602001838152602001828103825285818151815260200191508051906020019060200280838360005b83811015612448578181015183820152602001612430565b505050509050019650505050505050600060405180830381600087803b15801561247157600080fd5b505af1158015612485573d6000803e3d6000fd5b505050506040513d6000823e601f3d908101601f1916820160405260208110156124ae57600080fd5b8101908080516040519392919084600160201b8211156124cd57600080fd5b9083019060208201858111156124e257600080fd5b82518660208202830111600160201b821117156124fe57600080fd5b82525081516020918201928201910280838360005b8381101561252b578181015183820152602001612513565b5050505090500160405250505050505b50600101611d63565b50612579336125626001600160a01b038d163063ffffffff61285a16565b6001600160a01b038d16919063ffffffff6129d016565b61259681610c156001600160a01b038d163363ffffffff61285a16565b9250878310156125d75760405162461bcd60e51b815260040180806020018281038252602a815260200180612e65602a913960400191505060405180910390fd5b336001600160a01b03168a6001600160a01b03168c6001600160a01b03167f92ceb067a9883c85aba061e46b9edf505a0d6e81927c4b966ebed543a52217878c87604051808381526020018281526020019250505060405180910390a460035480156126e057806117c002616c3e015a11156126e0577f00000000000000000000000000000000000000000000000000000000000000006001600160a01b0316636366b936826040518263ffffffff1660e01b815260040180828152602001915050602060405180830381600087803b1580156126b357600080fd5b505af11580156126c7573d6000803e3d6000fd5b505050506040513d60208110156126dd57600080fd5b50505b50505098975050505050505050565b6000546001600160a01b0316331461273a576040805162461bcd60e51b81526020600482015260096024820152682727aa2fa7aba722a960b91b604482015290519081900360640190fd5b600291909155600355565b6000546001600160a01b03163314612790576040805162461bcd60e51b81526020600482015260096024820152682727aa2fa7aba722a960b91b604482015290519081900360640190fd5b6001600160a01b03166000908152600460205260409020805460ff19166001179055565b6000546001600160a01b031633146127ff576040805162461bcd60e51b81526020600482015260096024820152682727aa2fa7aba722a960b91b604482015290519081900360640190fd5b600080546040516001600160a01b03808516939216917fdcf55418cee3220104fef63f979ff3c4097ad240c0c43dcb33ce837748983e6291a3600180546001600160a01b0319166001600160a01b0392909216919091179055565b600061286583612ae0565b1561287b57506001600160a01b03811631612900565b826001600160a01b03166370a08231836040518263ffffffff1660e01b815260040180826001600160a01b03166001600160a01b0316815260200191505060206040518083038186803b1580156128d157600080fd5b505afa1580156128e5573d6000803e3d6000fd5b505050506040513d60208110156128fb57600080fd5b505190505b92915050565b60408051636eb1769f60e11b81523060048201526001600160a01b038481166024830152915160009286169163dd62ed3e916044808301926020929190829003018186803b15801561295757600080fd5b505afa15801561296b573d6000803e3d6000fd5b505050506040513d602081101561298157600080fd5b50519050818110156129ca5780156129ae576129ae6001600160a01b03851684600063ffffffff612b0516565b6129ca6001600160a01b0385168460001963ffffffff612b0516565b50505050565b8015612a3a576129df83612ae0565b15612a20576040516001600160a01b0383169082156108fc029083906000818181858888f19350505050158015612a1a573d6000803e3d6000fd5b50612a3a565b612a3a6001600160a01b038416838363ffffffff612c1816565b505050565b600082821115612a82576040805162461bcd60e51b815260206004820152600960248201526829aaa12fa2a92927a960b91b604482015290519081900360640190fd5b50900390565b6000826001600160a01b03166370a08231836040518263ffffffff1660e01b815260040180826001600160a01b03166001600160a01b0316815260200191505060206040518083038186803b1580156128d157600080fd5b6001600160a01b03811673eeeeeeeeeeeeeeeeeeeeeeeeeeeeeeeeeeeeeeee14919050565b801580612b8b575060408051636eb1769f60e11b81523060048201526001600160a01b03848116602483015291519185169163dd62ed3e91604480820192602092909190829003018186803b158015612b5d57600080fd5b505afa158015612b71573d6000803e3d6000fd5b505050506040513d6020811015612b8757600080fd5b5051155b612bc65760405162461bcd60e51b8152600401808060200182810382526036815260200180612f046036913960400191505060405180910390fd5b604080516001600160a01b038416602482015260448082018490528251808303909101815260649091019091526020810180516001600160e01b031663095ea7b360e01b179052612a3a908490612c66565b604080516001600160a01b038416602482015260448082018490528251808303909101815260649091019091526020810180516001600160e01b031663a9059cbb60e01b179052612a3a9084905b60006060836001600160a01b0316836040518082805190602001908083835b60208310612ca45780518252601f199092019160209182019101612c85565b6001836020036101000a0380198251168184511680821785525050505050509050019150506000604051808303816000865af19150503d8060008114612d06576040519150601f19603f3d011682016040523d82523d6000602084013e612d0b565b606091505b509150915081612d62576040805162461bcd60e51b815260206004820181905260248201527f5361666545524332303a206c6f772d6c6576656c2063616c6c206661696c6564604482015290519081900360640190fd5b8051156129ca57808060200190516020811015612d7e57600080fd5b50516129ca5760405162461bcd60e51b815260040180806020018281038252602a815260200180612eda602a913960400191505060405180910390fdfe444f444f563150726f787930333a204e4f545f535550504f52545f53454c4c5f434849444f444f563150726f787930333a204e4f545f535550504f52545f4255595f434849444f444f563150726f787930333a2052455455524e5f414d4f554e545f5a45524f444f444f563150726f787930333a204e4f545f535550504f52545f4348490000444f444f563150726f787930333a204554485f414d4f554e545f4e4f545f4d41544348444f444f563150726f787930333a2052657475726e20616d6f756e74206973206e6f7420656e6f756768444f444f563150726f787930333a20504152414d535f4c454e4754485f4e4f545f4d41544348444f444f563150726f787930333a204e6f742057686974656c69737420436f6e74726163745361666545524332303a204552433230206f7065726174696f6e20646964206e6f7420737563636565645361666545524332303a20617070726f76652066726f6d206e6f6e2d7a65726f20746f206e6f6e2d7a65726f20616c6c6f77616e6365444f444f563150726f787930333a2045787465726e616c205377617020657865637574696f6e204661696c6564a264697066735822122065dccd37782902775fab25f5f64cdc796386777f70a6478690ab13f11a04727f64736f6c63430006090033",
  "immutableReferences": {
    "12259": [
      {
        "length": 32,
        "start": 2540
      },
      {
        "length": 32,
        "start": 3455
      },
      {
        "length": 32,
        "start": 4218
      },
      {
        "length": 32,
        "start": 7238
      }
    ],
    "12261": [
      {
        "length": 32,
        "start": 5469
      },
      {
        "length": 32,
        "start": 6566
      },
      {
        "length": 32,
        "start": 8533
      }
    ],
    "12263": [
      {
        "length": 32,
        "start": 1893
      },
      {
        "length": 32,
        "start": 4385
      },
      {
        "length": 32,
        "start": 5815
      },
      {
        "length": 32,
        "start": 5965
      },
      {
        "length": 32,
        "start": 7405
      }
    ],
    "12265": [
      {
        "length": 32,
        "start": 1721
      },
      {
        "length": 32,
        "start": 2196
      },
      {
        "length": 32,
        "start": 2309
      },
      {
        "length": 32,
        "start": 3290
      },
      {
        "length": 32,
        "start": 3900
      },
      {
        "length": 32,
        "start": 4013
      },
      {
        "length": 32,
        "start": 4655
      },
      {
        "length": 32,
        "start": 5169
      },
      {
        "length": 32,
        "start": 6354
      },
      {
        "length": 32,
        "start": 6896
      },
      {
        "length": 32,
        "start": 7009
      },
      {
        "length": 32,
        "start": 7691
      },
      {
        "length": 32,
        "start": 8233
      },
      {
        "length": 32,
        "start": 8803
      },
      {
        "length": 32,
        "start": 9807
      }
    ]
  },
  "source": "/*\n\n    Copyright 2020 DODO ZOO.\n    SPDX-License-Identifier: Apache-2.0\n\n*/\n\npragma solidity 0.6.9;\n\nimport {IERC20} from \"../intf/IERC20.sol\";\nimport {UniversalERC20} from \"./lib/UniversalERC20.sol\";\nimport {SafeMath} from \"../lib/SafeMath.sol\";\nimport {IDODOV1} from \"./intf/IDODOV1.sol\";\nimport {IDODOSellHelper} from \"./helper/DODOSellHelper.sol\";\nimport {IWETH} from \"../intf/IWETH.sol\";\nimport {IChi} from \"./intf/IChi.sol\";\nimport {IUni} from \"./intf/IUni.sol\";\nimport {IDODOApprove} from \"../intf/IDODOApprove.sol\";\nimport {IDODOV1Proxy02} from \"./intf/IDODOV1Proxy02.sol\";\nimport {InitializableOwnable} from \"../lib/InitializableOwnable.sol\";\n\n/**\n * @title DODOV1Proxy03\n * @author DODO Breeder\n *\n * @notice Entrance of trading in DODO platform\n */\ncontract DODOV1Proxy03 is IDODOV1Proxy02, InitializableOwnable {\n    using SafeMath for uint256;\n    using UniversalERC20 for IERC20;\n\n    // ============ Storage ============\n\n    address constant _ETH_ADDRESS_ = 0xEeeeeEeeeEeEeeEeEeEeeEEEeeeeEeeeeeeeEEeE;\n    address public immutable _DODO_APPROVE_;\n    address public immutable _DODO_SELL_HELPER_;\n    address public immutable _WETH_;\n    address public immutable _CHI_TOKEN_;\n    uint256 public _GAS_DODO_MAX_RETURN_ = 10;\n    uint256 public _GAS_EXTERNAL_RETURN_ = 5;\n    mapping (address => bool) public isWhiteListed;\n\n    // ============ Events ============\n\n    event OrderHistory(\n        address indexed fromToken,\n        address indexed toToken,\n        address indexed sender,\n        uint256 fromAmount,\n        uint256 returnAmount\n    );\n\n    // ============ Modifiers ============\n\n    modifier judgeExpired(uint256 deadLine) {\n        require(deadLine >= block.timestamp, \"DODOV1Proxy03: EXPIRED\");\n        _;\n    }\n\n    constructor(\n        address dodoApporve,\n        address dodoSellHelper,\n        address weth,\n        address chiToken\n    ) public {\n        _DODO_APPROVE_ = dodoApporve;\n        _DODO_SELL_HELPER_ = dodoSellHelper;\n        _WETH_ = weth;\n        _CHI_TOKEN_ = chiToken;\n    }\n\n    fallback() external payable {}\n\n    receive() external payable {}\n\n    function updateGasReturn(uint256 newDodoGasReturn, uint256 newExternalGasReturn) public onlyOwner {\n        _GAS_DODO_MAX_RETURN_ = newDodoGasReturn;\n        _GAS_EXTERNAL_RETURN_ = newExternalGasReturn;\n    }\n\n    function addWhiteList (address contractAddr) public onlyOwner {\n        isWhiteListed[contractAddr] = true;\n    }\n\n    function removeWhiteList (address contractAddr) public onlyOwner {\n        isWhiteListed[contractAddr] = false;\n    }\n\n    function dodoSwapV1(\n        address fromToken,\n        address toToken,\n        uint256 fromTokenAmount,\n        uint256 minReturnAmount,\n        address[] memory dodoPairs,\n        uint256 directions,\n        uint256 deadLine\n    ) external override payable judgeExpired(deadLine) returns (uint256 returnAmount) {\n        require(dodoPairs.length > 0, \"DODOV1Proxy03: PAIRS_EMPTY\");\n        require(minReturnAmount > 0, \"DODOV1Proxy03: RETURN_AMOUNT_ZERO\");\n        require(fromToken != _CHI_TOKEN_, \"DODOV1Proxy03: NOT_SUPPORT_SELL_CHI\");\n        require(toToken != _CHI_TOKEN_, \"DODOV1Proxy03: NOT_SUPPORT_BUY_CHI\");\n\n        uint256 originGas = gasleft();\n\n        if (fromToken != _ETH_ADDRESS_) {\n            IDODOApprove(_DODO_APPROVE_).claimTokens(\n                fromToken,\n                msg.sender,\n                address(this),\n                fromTokenAmount\n            );\n        } else {\n            require(msg.value == fromTokenAmount, \"DODOV1Proxy03: ETH_AMOUNT_NOT_MATCH\");\n            IWETH(_WETH_).deposit{value: fromTokenAmount}();\n        }\n\n        for (uint256 i = 0; i < dodoPairs.length; i++) {\n            address curDodoPair = dodoPairs[i];\n            if (directions & 1 == 0) {\n                address curDodoBase = IDODOV1(curDodoPair)._BASE_TOKEN_();\n                require(curDodoBase != _CHI_TOKEN_, \"DODOV1Proxy03: NOT_SUPPORT_CHI\");\n                uint256 curAmountIn = IERC20(curDodoBase).balanceOf(address(this));\n                IERC20(curDodoBase).universalApproveMax(curDodoPair, curAmountIn);\n                IDODOV1(curDodoPair).sellBaseToken(curAmountIn, 0, \"\");\n            } else {\n                address curDodoQuote = IDODOV1(curDodoPair)._QUOTE_TOKEN_();\n                require(curDodoQuote != _CHI_TOKEN_, \"DODOV1Proxy03: NOT_SUPPORT_CHI\");\n                uint256 curAmountIn = IERC20(curDodoQuote).balanceOf(address(this));\n                IERC20(curDodoQuote).universalApproveMax(curDodoPair, curAmountIn);\n                uint256 canBuyBaseAmount = IDODOSellHelper(_DODO_SELL_HELPER_).querySellQuoteToken(\n                    curDodoPair,\n                    curAmountIn\n                );\n                IDODOV1(curDodoPair).buyBaseToken(canBuyBaseAmount, curAmountIn, \"\");\n            }\n            directions = directions >> 1;\n        }\n\n        if (toToken == _ETH_ADDRESS_) {\n            returnAmount = IWETH(_WETH_).balanceOf(address(this));\n            IWETH(_WETH_).withdraw(returnAmount);\n        } else {\n            returnAmount = IERC20(toToken).tokenBalanceOf(address(this));\n        }\n        \n        require(returnAmount >= minReturnAmount, \"DODOV1Proxy03: Return amount is not enough\");\n        IERC20(toToken).universalTransfer(msg.sender, returnAmount);\n        \n        emit OrderHistory(fromToken, toToken, msg.sender, fromTokenAmount, returnAmount);\n        \n        uint256 _gasDodoMaxReturn = _GAS_DODO_MAX_RETURN_;\n        if(_gasDodoMaxReturn > 0) {\n            uint256 calcGasTokenBurn = originGas.sub(gasleft()) / 65000;\n            uint256 gasTokenBurn = calcGasTokenBurn > _gasDodoMaxReturn ? _gasDodoMaxReturn : calcGasTokenBurn;\n            if(gasleft() > 27710 + gasTokenBurn * 6080)\n                IChi(_CHI_TOKEN_).freeUpTo(gasTokenBurn);\n        }\n    }\n\n    function externalSwap(\n        address fromToken,\n        address toToken,\n        address approveTarget,\n        address swapTarget,\n        uint256 fromTokenAmount,\n        uint256 minReturnAmount,\n        bytes memory callDataConcat,\n        uint256 deadLine\n    ) external override payable judgeExpired(deadLine) returns (uint256 returnAmount) {\n        require(minReturnAmount > 0, \"DODOV1Proxy03: RETURN_AMOUNT_ZERO\");\n        require(fromToken != _CHI_TOKEN_, \"DODOV1Proxy03: NOT_SUPPORT_SELL_CHI\");\n        require(toToken != _CHI_TOKEN_, \"DODOV1Proxy03: NOT_SUPPORT_BUY_CHI\");\n\n        address _fromToken = fromToken;\n        address _toToken = toToken;\n        \n        uint256 toTokenOriginBalance = IERC20(_toToken).universalBalanceOf(msg.sender);\n\n        if (_fromToken != _ETH_ADDRESS_) {\n            IDODOApprove(_DODO_APPROVE_).claimTokens(\n                _fromToken,\n                msg.sender,\n                address(this),\n                fromTokenAmount\n            );\n            IERC20(_fromToken).universalApproveMax(approveTarget, fromTokenAmount);\n        }\n\n        require(isWhiteListed[swapTarget], \"DODOV1Proxy03: Not Whitelist Contract\");\n        (bool success, ) = swapTarget.call{value: _fromToken == _ETH_ADDRESS_ ? msg.value : 0}(callDataConcat);\n\n        require(success, \"DODOV1Proxy03: External Swap execution Failed\");\n\n        IERC20(_toToken).universalTransfer(\n            msg.sender,\n            IERC20(_toToken).universalBalanceOf(address(this))\n        );\n        returnAmount = IERC20(_toToken).universalBalanceOf(msg.sender).sub(toTokenOriginBalance);\n        require(returnAmount >= minReturnAmount, \"DODOV1Proxy03: Return amount is not enough\");\n\n        emit OrderHistory(_fromToken, _toToken, msg.sender, fromTokenAmount, returnAmount);\n        \n        uint256 _gasExternalReturn = _GAS_EXTERNAL_RETURN_;\n        if(_gasExternalReturn > 0) {\n            if(gasleft() > 27710 + _gasExternalReturn * 6080)\n                IChi(_CHI_TOKEN_).freeUpTo(_gasExternalReturn);\n        }\n    }\n\n\n    function mixSwapV1(\n        address fromToken,\n        address toToken,\n        uint256 fromTokenAmount,\n        uint256 minReturnAmount,\n        address[] memory mixPairs,\n        uint256[] memory directions,\n        address[] memory portionPath,\n        uint256 deadLine\n    ) external override payable judgeExpired(deadLine) returns (uint256 returnAmount) {\n        require(mixPairs.length == directions.length, \"DODOV1Proxy03: PARAMS_LENGTH_NOT_MATCH\");\n        require(mixPairs.length > 0, \"DODOV1Proxy03: PAIRS_EMPTY\");\n        require(minReturnAmount > 0, \"DODOV1Proxy03: RETURN_AMOUNT_ZERO\");\n        require(fromToken != _CHI_TOKEN_, \"DODOV1Proxy03: NOT_SUPPORT_SELL_CHI\");\n        require(toToken != _CHI_TOKEN_, \"DODOV1Proxy03: NOT_SUPPORT_BUY_CHI\");\n\n        uint256 toTokenOriginBalance = IERC20(toToken).universalBalanceOf(msg.sender);\n\n        if (fromToken != _ETH_ADDRESS_) {\n            IDODOApprove(_DODO_APPROVE_).claimTokens(\n                fromToken,\n                msg.sender,\n                address(this),\n                fromTokenAmount\n            );\n        } else {\n            require(msg.value == fromTokenAmount, \"DODOV1Proxy03: ETH_AMOUNT_NOT_MATCH\");\n            IWETH(_WETH_).deposit{value: fromTokenAmount}();\n        }\n\n        for (uint256 i = 0; i < mixPairs.length; i++) {\n            address curPair = mixPairs[i];\n            if (directions[i] == 0) {\n                address curDodoBase = IDODOV1(curPair)._BASE_TOKEN_();\n                require(curDodoBase != _CHI_TOKEN_, \"DODOV1Proxy03: NOT_SUPPORT_CHI\");\n                uint256 curAmountIn = IERC20(curDodoBase).balanceOf(address(this));\n                IERC20(curDodoBase).universalApproveMax(curPair, curAmountIn);\n                IDODOV1(curPair).sellBaseToken(curAmountIn, 0, \"\");\n            } else if(directions[i] == 1){\n                address curDodoQuote = IDODOV1(curPair)._QUOTE_TOKEN_();\n                require(curDodoQuote != _CHI_TOKEN_, \"DODOV1Proxy03: NOT_SUPPORT_CHI\");\n                uint256 curAmountIn = IERC20(curDodoQuote).balanceOf(address(this));\n                IERC20(curDodoQuote).universalApproveMax(curPair, curAmountIn);\n                uint256 canBuyBaseAmount = IDODOSellHelper(_DODO_SELL_HELPER_).querySellQuoteToken(\n                    curPair,\n                    curAmountIn\n                );\n                IDODOV1(curPair).buyBaseToken(canBuyBaseAmount, curAmountIn, \"\");\n            } else {\n                require(portionPath[0] != _CHI_TOKEN_, \"DODOV1Proxy03: NOT_SUPPORT_CHI\");\n                uint256 curAmountIn = IERC20(portionPath[0]).balanceOf(address(this));\n                IERC20(portionPath[0]).universalApproveMax(curPair, curAmountIn);\n                IUni(curPair).swapExactTokensForTokens(curAmountIn,0,portionPath,address(this),deadLine);\n            }\n        }\n\n        IERC20(toToken).universalTransfer(\n            msg.sender,\n            IERC20(toToken).universalBalanceOf(address(this))\n        );\n\n        returnAmount = IERC20(toToken).universalBalanceOf(msg.sender).sub(toTokenOriginBalance);\n        require(returnAmount >= minReturnAmount, \"DODOV1Proxy03: Return amount is not enough\");\n\n        emit OrderHistory(fromToken, toToken, msg.sender, fromTokenAmount, returnAmount);\n        \n        uint256 _gasExternalReturn = _GAS_EXTERNAL_RETURN_;\n        if(_gasExternalReturn > 0) {\n            if(gasleft() > 27710 + _gasExternalReturn * 6080)\n                IChi(_CHI_TOKEN_).freeUpTo(_gasExternalReturn);\n        }\n    }\n}\n",
  "sourcePath": "/Users/niutaotao/projects/dodo/contractV2/contracts/SmartRoute/DODOV1Proxy03.sol",
  "compiler": {
    "name": "solc",
    "version": "0.6.9+commit.3e3065ac.Emscripten.clang"
  },
  "schemaVersion": "3.3.2",
  "updatedAt": "2021-01-21T03:20:07.566Z",
  "devdoc": {
    "author": "DODO Breeder",
    "methods": {},
    "title": "DODOV1Proxy03"
  },
  "userdoc": {
    "methods": {},
    "notice": "Entrance of trading in DODO platform"
  }
}