{
  "contractName": "DODONFTProxy",
  "abi": [
    {
      "inputs": [
        {
          "internalType": "address",
          "name": "cloneFactory",
          "type": "address"
        },
        {
          "internalType": "address payable",
          "name": "weth",
          "type": "address"
        },
        {
          "internalType": "address",
          "name": "dodoApproveProxy",
          "type": "address"
        },
        {
          "internalType": "address",
          "name": "dvmFactory",
          "type": "address"
        },
        {
          "internalType": "address",
          "name": "vaultTemplate",
          "type": "address"
        },
        {
          "internalType": "address",
          "name": "fragTemplate",
          "type": "address"
        },
        {
          "internalType": "address",
          "name": "feeTemplate",
          "type": "address"
        },
        {
          "internalType": "address",
          "name": "nftRegistry",
          "type": "address"
        }
      ],
      "stateMutability": "nonpayable",
      "type": "constructor"
    },
    {
      "anonymous": false,
      "inputs": [
        {
          "indexed": false,
          "internalType": "address",
          "name": "from",
          "type": "address"
        },
        {
          "indexed": false,
          "internalType": "address",
          "name": "fragment",
          "type": "address"
        },
        {
          "indexed": false,
          "internalType": "uint256",
          "name": "amount",
          "type": "uint256"
        }
      ],
      "name": "Buyout",
      "type": "event"
    },
    {
      "anonymous": false,
      "inputs": [
        {
          "indexed": false,
          "internalType": "address",
          "name": "newFeeTemplate",
          "type": "address"
        }
      ],
      "name": "ChangeFeeTemplate",
      "type": "event"
    },
    {
      "anonymous": false,
      "inputs": [
        {
          "indexed": false,
          "internalType": "address",
          "name": "newFragTemplate",
          "type": "address"
        }
      ],
      "name": "ChangeFragTemplate",
      "type": "event"
    },
    {
      "anonymous": false,
      "inputs": [
        {
          "indexed": false,
          "internalType": "address",
          "name": "newVaultTemplate",
          "type": "address"
        }
      ],
      "name": "ChangeVaultTemplate",
      "type": "event"
    },
    {
      "anonymous": false,
      "inputs": [
        {
          "indexed": false,
          "internalType": "address",
          "name": "vault",
          "type": "address"
        },
        {
          "indexed": false,
          "internalType": "address",
          "name": "fragment",
          "type": "address"
        },
        {
          "indexed": false,
          "internalType": "address",
          "name": "dvm",
          "type": "address"
        },
        {
          "indexed": false,
          "internalType": "address",
          "name": "feeDistributor",
          "type": "address"
        }
      ],
      "name": "CreateFragment",
      "type": "event"
    },
    {
      "anonymous": false,
      "inputs": [
        {
          "indexed": false,
          "internalType": "address",
          "name": "creator",
          "type": "address"
        },
        {
          "indexed": false,
          "internalType": "address",
          "name": "vault",
          "type": "address"
        },
        {
          "indexed": false,
          "internalType": "string",
          "name": "name",
          "type": "string"
        },
        {
          "indexed": false,
          "internalType": "string",
          "name": "baseURI",
          "type": "string"
        }
      ],
      "name": "CreateNFTCollateralVault",
      "type": "event"
    },
    {
      "anonymous": false,
      "inputs": [
        {
          "indexed": true,
          "internalType": "address",
          "name": "previousOwner",
          "type": "address"
        },
        {
          "indexed": true,
          "internalType": "address",
          "name": "newOwner",
          "type": "address"
        }
      ],
      "name": "OwnershipTransferPrepared",
      "type": "event"
    },
    {
      "anonymous": false,
      "inputs": [
        {
          "indexed": true,
          "internalType": "address",
          "name": "previousOwner",
          "type": "address"
        },
        {
          "indexed": true,
          "internalType": "address",
          "name": "newOwner",
          "type": "address"
        }
      ],
      "name": "OwnershipTransferred",
      "type": "event"
    },
    {
      "anonymous": false,
      "inputs": [
        {
          "indexed": false,
          "internalType": "address",
          "name": "from",
          "type": "address"
        },
        {
          "indexed": false,
          "internalType": "address",
          "name": "feeDistributor",
          "type": "address"
        },
        {
          "indexed": false,
          "internalType": "uint256",
          "name": "amount",
          "type": "uint256"
        }
      ],
      "name": "Stake",
      "type": "event"
    },
    {
      "stateMutability": "payable",
      "type": "fallback"
    },
    {
      "inputs": [],
      "name": "_CLONE_FACTORY_",
      "outputs": [
        {
          "internalType": "address",
          "name": "",
          "type": "address"
        }
      ],
      "stateMutability": "view",
      "type": "function"
    },
    {
      "inputs": [],
      "name": "_DODO_APPROVE_PROXY_",
      "outputs": [
        {
          "internalType": "address",
          "name": "",
          "type": "address"
        }
      ],
      "stateMutability": "view",
      "type": "function"
    },
    {
      "inputs": [],
      "name": "_DVM_FACTORY_",
      "outputs": [
        {
          "internalType": "address",
          "name": "",
          "type": "address"
        }
      ],
      "stateMutability": "view",
      "type": "function"
    },
    {
      "inputs": [],
      "name": "_FEE_TEMPLATE_",
      "outputs": [
        {
          "internalType": "address",
          "name": "",
          "type": "address"
        }
      ],
      "stateMutability": "view",
      "type": "function"
    },
    {
      "inputs": [],
      "name": "_FRAG_TEMPLATE_",
      "outputs": [
        {
          "internalType": "address",
          "name": "",
          "type": "address"
        }
      ],
      "stateMutability": "view",
      "type": "function"
    },
    {
      "inputs": [],
      "name": "_NEW_OWNER_",
      "outputs": [
        {
          "internalType": "address",
          "name": "",
          "type": "address"
        }
      ],
      "stateMutability": "view",
      "type": "function"
    },
    {
      "inputs": [],
      "name": "_NFT_REGISTY_",
      "outputs": [
        {
          "internalType": "address",
          "name": "",
          "type": "address"
        }
      ],
      "stateMutability": "view",
      "type": "function"
    },
    {
      "inputs": [],
      "name": "_OWNER_",
      "outputs": [
        {
          "internalType": "address",
          "name": "",
          "type": "address"
        }
      ],
      "stateMutability": "view",
      "type": "function"
    },
    {
      "inputs": [],
      "name": "_VAULT_TEMPLATE_",
      "outputs": [
        {
          "internalType": "address",
          "name": "",
          "type": "address"
        }
      ],
      "stateMutability": "view",
      "type": "function"
    },
    {
      "inputs": [],
      "name": "_WETH_",
      "outputs": [
        {
          "internalType": "address",
          "name": "",
          "type": "address"
        }
      ],
      "stateMutability": "view",
      "type": "function"
    },
    {
      "inputs": [],
      "name": "claimOwnership",
      "outputs": [],
      "stateMutability": "nonpayable",
      "type": "function"
    },
    {
      "inputs": [
        {
          "internalType": "address",
          "name": "newOwner",
          "type": "address"
        }
      ],
      "name": "initOwner",
      "outputs": [],
      "stateMutability": "nonpayable",
      "type": "function"
    },
    {
      "inputs": [
        {
          "internalType": "address",
          "name": "newOwner",
          "type": "address"
        }
      ],
      "name": "transferOwnership",
      "outputs": [],
      "stateMutability": "nonpayable",
      "type": "function"
    },
    {
      "stateMutability": "payable",
      "type": "receive"
    },
    {
      "inputs": [
        {
          "internalType": "string",
          "name": "name",
          "type": "string"
        },
        {
          "internalType": "string",
          "name": "baseURI",
          "type": "string"
        }
      ],
      "name": "createNFTCollateralVault",
      "outputs": [
        {
          "internalType": "address",
          "name": "newVault",
          "type": "address"
        }
      ],
      "stateMutability": "nonpayable",
      "type": "function"
    },
    {
      "inputs": [
        {
          "internalType": "address",
          "name": "quoteToken",
          "type": "address"
        },
        {
          "internalType": "address",
          "name": "collateralVault",
          "type": "address"
        },
        {
          "internalType": "address",
          "name": "vaultPreOwner",
          "type": "address"
        },
        {
          "internalType": "address",
          "name": "stakeToken",
          "type": "address"
        },
        {
          "internalType": "uint256[]",
          "name": "dvmParams",
          "type": "uint256[]"
        },
        {
          "internalType": "uint256[]",
          "name": "fragParams",
          "type": "uint256[]"
        },
        {
          "internalType": "bool",
          "name": "isOpenBuyout",
          "type": "bool"
        }
      ],
      "name": "createFragment",
      "outputs": [
        {
          "internalType": "address",
          "name": "newFragment",
          "type": "address"
        },
        {
          "internalType": "address",
          "name": "newDvm",
          "type": "address"
        },
        {
          "internalType": "address",
          "name": "newFeeDistributor",
          "type": "address"
        }
      ],
      "stateMutability": "nonpayable",
      "type": "function"
    },
    {
      "inputs": [
        {
          "internalType": "address",
          "name": "fragment",
          "type": "address"
        },
        {
          "internalType": "uint256",
          "name": "quoteAmount",
          "type": "uint256"
        },
        {
          "internalType": "uint8",
          "name": "flag",
          "type": "uint8"
        }
      ],
      "name": "buyout",
      "outputs": [],
      "stateMutability": "payable",
      "type": "function"
    },
    {
      "inputs": [
        {
          "internalType": "address",
          "name": "feeDistributor",
          "type": "address"
        },
        {
          "internalType": "uint256",
          "name": "stakeAmount",
          "type": "uint256"
        },
        {
          "internalType": "uint8",
          "name": "flag",
          "type": "uint8"
        }
      ],
      "name": "stakeToFeeDistributor",
      "outputs": [],
      "stateMutability": "payable",
      "type": "function"
    },
    {
      "inputs": [
        {
          "internalType": "address",
          "name": "newVaultTemplate",
          "type": "address"
        }
      ],
      "name": "updateVaultTemplate",
      "outputs": [],
      "stateMutability": "nonpayable",
      "type": "function"
    },
    {
      "inputs": [
        {
          "internalType": "address",
          "name": "newFragTemplate",
          "type": "address"
        }
      ],
      "name": "updateFragTemplate",
      "outputs": [],
      "stateMutability": "nonpayable",
      "type": "function"
    },
    {
      "inputs": [
        {
          "internalType": "address",
          "name": "newFeeTemplate",
          "type": "address"
        }
      ],
      "name": "updateFeeTemplate",
      "outputs": [],
      "stateMutability": "nonpayable",
      "type": "function"
    }
  ],
  "bytecode": "0x61012060405234801561001157600080fd5b50604051611bd2380380611bd2833981810160405261010081101561003557600080fd5b5080516020820151604083015160608085015160808087015160a08089015160c0808b015160e09b8c01518b891b6001600160601b03199081169093528a891b831690965288881b821690935285871b8116909a52600280546001600160a01b03199081166001600160a01b039586161790915560038054821692851692909217909155600480549091169183169190911790559281901b90961661010052928116949181169381169281169116611a9361013f60003980610b3852806110ee525080610b145280610d20525080610be05280610fc95280611340528061162752508061164b528061181752508061067d5280610c87528061172b52806117b35250611a936000f3fe6080604052600436106101235760003560e01c80636a1292c2116100a0578063d6c2a0ee11610064578063d6c2a0ee14610428578063e628433f1461045b578063eb774d0514610591578063eb99be12146105a6578063f2fde38b146105bb5761012a565b80636a1292c214610296578063753017a3146102ab57806379b79813146103cb5780638456db15146103e0578063947c0e57146103f55761012a565b806343b23bbc116100e757806343b23bbc1461020f57806349b930f0146102245780634e71e0c81461023957806364f580b71461024e57806369e4e417146102815761012a565b80630d0092971461012c5780630d4eec8f1461015f57806314566f641461019057806316048bc4146101c55780631acf6eea146101da5761012a565b3661012a57005b005b34801561013857600080fd5b5061012a6004803603602081101561014f57600080fd5b50356001600160a01b03166105ee565b34801561016b57600080fd5b5061017461067b565b604080516001600160a01b039092168252519081900360200190f35b61012a600480360360608110156101a657600080fd5b5080356001600160a01b0316906020810135906040013560ff1661069f565b3480156101d157600080fd5b50610174610827565b61012a600480360360608110156101f057600080fd5b5080356001600160a01b0316906020810135906040013560ff1661083b565b34801561021b57600080fd5b5061017461098c565b34801561023057600080fd5b5061017461099b565b34801561024557600080fd5b5061012a6109aa565b34801561025a57600080fd5b5061012a6004803603602081101561027157600080fd5b50356001600160a01b0316610a6e565b34801561028d57600080fd5b50610174610b12565b3480156102a257600080fd5b50610174610b36565b3480156102b757600080fd5b506103a0600480360360e08110156102ce57600080fd5b6001600160a01b03823581169260208101358216926040820135831692606083013516919081019060a081016080820135600160201b81111561031057600080fd5b82018360208201111561032257600080fd5b803590602001918460208302840111600160201b8311171561034357600080fd5b919390929091602081019035600160201b81111561036057600080fd5b82018360208201111561037257600080fd5b803590602001918460208302840111600160201b8311171561039357600080fd5b9193509150351515610b5a565b604080516001600160a01b039485168152928416602084015292168183015290519081900360600190f35b3480156103d757600080fd5b506101746111b2565b3480156103ec57600080fd5b506101746111c1565b34801561040157600080fd5b5061012a6004803603602081101561041857600080fd5b50356001600160a01b03166111d0565b34801561043457600080fd5b5061012a6004803603602081101561044b57600080fd5b50356001600160a01b0316611274565b34801561046757600080fd5b506101746004803603604081101561047e57600080fd5b810190602081018135600160201b81111561049857600080fd5b8201836020820111156104aa57600080fd5b803590602001918460018302840111600160201b831117156104cb57600080fd5b91908080601f0160208091040260200160405190810160405280939291908181526020018383808284376000920191909152509295949360208101935035915050600160201b81111561051d57600080fd5b82018360208201111561052f57600080fd5b803590602001918460018302840111600160201b8311171561055057600080fd5b91908080601f016020809104026020016040519081016040528093929190818152602001838380828437600092019190915250929550611318945050505050565b34801561059d57600080fd5b50610174611625565b3480156105b257600080fd5b50610174611649565b3480156105c757600080fd5b5061012a600480360360208110156105de57600080fd5b50356001600160a01b031661166d565b600154600160a01b900460ff1615610640576040805162461bcd60e51b815260206004820152601060248201526f1113d113d7d25392551250531256915160821b604482015290519081900360640190fd5b6001805460ff60a01b1916600160a01b179055600080546001600160a01b0390921661010002610100600160a81b0319909216919091179055565b7f000000000000000000000000000000000000000000000000000000000000000081565b60005460ff16156106e3576040805162461bcd60e51b815260206004820152600960248201526814915153951490539560ba1b604482015290519081900360640190fd5b6000805460ff191660011790556040805162af105960e01b8152905161077091339186916001600160a01b0383169162af105991600480820192602092909190829003018186803b15801561073757600080fd5b505afa15801561074b573d6000803e3d6000fd5b505050506040513d602081101561076157600080fd5b505185600160ff87161461171d565b60408051630991d88160e21b815233600482015290516001600160a01b03851691632647620491602480830192600092919082900301818387803b1580156107b757600080fd5b505af11580156107cb573d6000803e3d6000fd5b5050604080513381526001600160a01b038716602082015280820186905290517f99039fcf0a98f484616c5196ee8b2ecfa971babf0b519848289ea4db381f85f79350908190036060019150a150506000805460ff1916905550565b60005461010090046001600160a01b031681565b60005460ff161561087f576040805162461bcd60e51b815260206004820152600960248201526814915153951490539560ba1b604482015290519081900360640190fd5b6000805460ff1916600117905560408051633290dba960e21b815290516108d591339186916001600160a01b0383169163ca436ea491600480820192602092909190829003018186803b15801561073757600080fd5b604080516367e9bdad60e01b815233600482015290516001600160a01b038516916367e9bdad91602480830192600092919082900301818387803b15801561091c57600080fd5b505af1158015610930573d6000803e3d6000fd5b5050604080513381526001600160a01b038716602082015280820186905290517fd48ae6191a0fabf0f9b364e7fd034a4ad27889a25eefa8bdefc7f9c70d5641089350908190036060019150a150506000805460ff1916905550565b6003546001600160a01b031681565b6004546001600160a01b031681565b6001546001600160a01b031633146109f9576040805162461bcd60e51b815260206004820152600d60248201526c494e56414c49445f434c41494d60981b604482015290519081900360640190fd5b600154600080546040516001600160a01b0393841693610100909204909116917f8be0079c531659141344cd1fd0a4f28419497f9722a3daafe3b4186f6b6457e091a36001805460008054610100600160a81b0319166101006001600160a01b038416021790556001600160a01b0319169055565b60005461010090046001600160a01b03163314610abe576040805162461bcd60e51b81526020600482015260096024820152682727aa2fa7aba722a960b91b604482015290519081900360640190fd5b600280546001600160a01b0383166001600160a01b0319909116811790915560408051918252517fb2d5bc44370aa5e738428f602178d860b9771e72618c70b200de03c848fe8d299181900360200190a150565b7f000000000000000000000000000000000000000000000000000000000000000081565b7f000000000000000000000000000000000000000000000000000000000000000081565b60008080336001600160a01b038c1614610bbb576040805162461bcd60e51b815260206004820152601760248201527f4e4545445f42455f43414c4c45445f42595f5641554c54000000000000000000604482015290519081900360640190fd5b600354604080516340925bc760e11b81526001600160a01b03928316600482015290517f000000000000000000000000000000000000000000000000000000000000000090921691638124b78e916024808201926020929091908290030181600087803b158015610c2b57600080fd5b505af1158015610c3f573d6000803e3d6000fd5b505050506040513d6020811015610c5557600080fd5b5051925060006001600160a01b038d1673eeeeeeeeeeeeeeeeeeeeeeeeeeeeeeeeeeeeeeee14610c85578c610ca7565b7f00000000000000000000000000000000000000000000000000000000000000005b9050606089898080602002602001604051908101604052809392919081815260200183836020028082843760009201919091525050604080516020808d0282810182019093528c82529495506060949093508c92508b918291850190849080828437600092018290525086519495506001600160a01b037f0000000000000000000000000000000000000000000000000000000000000000169463e18c40c794508b9350889250879190610d5757fe5b602002602001015186600181518110610d6c57fe5b602002602001015187600281518110610d8157fe5b602002602001015160006040518763ffffffff1660e01b815260040180876001600160a01b03166001600160a01b03168152602001866001600160a01b03166001600160a01b03168152602001858152602001848152602001838152602001821515151581526020019650505050505050602060405180830381600087803b158015610e0c57600080fd5b505af1158015610e20573d6000803e3d6000fd5b505050506040513d6020811015610e3657600080fd5b81019080805190602001909291905050509450856001600160a01b031663a0d5e288868f3385600081518110610e6857fe5b602002602001015186600181518110610e7d57fe5b602002602001015187600281518110610e9257fe5b6020908102919091010151604080516001600160e01b031960e08a901b1681526001600160a01b03978816600482015295871660248701529390951660448501526064840191909152608483015260a48201929092528a151560c4820152905160e480830192600092919082900301818387803b158015610f1257600080fd5b505af1158015610f26573d6000803e3d6000fd5b505060408051635ee9bee360e11b81526001600160a01b038a166004820152905133955063bdd37dc694506024808301945060009350909182900301818387803b158015610f7357600080fd5b505af1158015610f87573d6000803e3d6000fd5b505050506001600160a01b038a16610fa257600091506110b6565b60048054604080516340925bc760e11b81526001600160a01b0392831693810193909352517f000000000000000000000000000000000000000000000000000000000000000090911691638124b78e9160248083019260209291908290030181600087803b15801561101357600080fd5b505af1158015611027573d6000803e3d6000fd5b505050506040513d602081101561103d57600080fd5b50516040805163184b955960e01b81526001600160a01b03878116600483015284811660248301528d8116604483015291519294509084169163184b95599160648082019260009290919082900301818387803b15801561109d57600080fd5b505af11580156110b1573d6000803e3d6000fd5b505050505b60408051634742f92160e11b81523360048201526001600160a01b0386811660248301528481166044830152858116606483015291517f000000000000000000000000000000000000000000000000000000000000000090921691638e85f2429160848082019260009290919082900301818387803b15801561113857600080fd5b505af115801561114c573d6000803e3d6000fd5b5050604080513381526001600160a01b038089166020830152808816828401528616606082015290517f4ca3d9434c8b26578c5930e24c721075d5ff1a6c3924db1822d561d4bff61e959350908190036080019150a15099509950999650505050505050565b6002546001600160a01b031681565b6001546001600160a01b031681565b60005461010090046001600160a01b03163314611220576040805162461bcd60e51b81526020600482015260096024820152682727aa2fa7aba722a960b91b604482015290519081900360640190fd5b600480546001600160a01b0383166001600160a01b0319909116811790915560408051918252517f9761170055ef88eac2cd963e494d90a438d3a2f54cca44e15ac9bfc0bfcc3b609181900360200190a150565b60005461010090046001600160a01b031633146112c4576040805162461bcd60e51b81526020600482015260096024820152682727aa2fa7aba722a960b91b604482015290519081900360640190fd5b600380546001600160a01b0383166001600160a01b0319909116811790915560408051918252517f9b04919703d0dfe008e1d0576286304e11b77115ec99ab954628e3175b0f48659181900360200190a150565b600254604080516340925bc760e11b81526001600160a01b03928316600482015290516000927f00000000000000000000000000000000000000000000000000000000000000001691638124b78e91602480830192602092919082900301818787803b15801561138757600080fd5b505af115801561139b573d6000803e3d6000fd5b505050506040513d60208110156113b157600080fd5b505160405163b2b45df560e01b815233600482018181526060602484019081528751606485015287519495506001600160a01b0386169463b2b45df59489938993909290916044810191608490910190602087019080838360005b8381101561142457818101518382015260200161140c565b50505050905090810190601f1680156114515780820380516001836020036101000a031916815260200191505b50838103825284518152845160209182019186019080838360005b8381101561148457818101518382015260200161146c565b50505050905090810190601f1680156114b15780820380516001836020036101000a031916815260200191505b5095505050505050600060405180830381600087803b1580156114d357600080fd5b505af11580156114e7573d6000803e3d6000fd5b505050507fb6e82a327d56156b637bcd124f2fe63809992fa6fe2ecc2dbb0b060430aa432b3382858560405180856001600160a01b03166001600160a01b03168152602001846001600160a01b03166001600160a01b031681526020018060200180602001838103835285818151815260200191508051906020019080838360005b83811015611581578181015183820152602001611569565b50505050905090810190601f1680156115ae5780820380516001836020036101000a031916815260200191505b50838103825284518152845160209182019186019080838360005b838110156115e15781810151838201526020016115c9565b50505050905090810190601f16801561160e5780820380516001836020036101000a031916815260200191505b50965050505050505060405180910390a192915050565b7f000000000000000000000000000000000000000000000000000000000000000081565b7f000000000000000000000000000000000000000000000000000000000000000081565b60005461010090046001600160a01b031633146116bd576040805162461bcd60e51b81526020600482015260096024820152682727aa2fa7aba722a960b91b604482015290519081900360640190fd5b600080546040516001600160a01b038085169361010090930416917fdcf55418cee3220104fef63f979ff3c4097ad240c0c43dcb33ce837748983e6291a3600180546001600160a01b0319166001600160a01b0392909216919091179055565b80156117de5781156117d9577f00000000000000000000000000000000000000000000000000000000000000006001600160a01b031663d0e30db0836040518263ffffffff1660e01b81526004016000604051808303818588803b15801561178457600080fd5b505af1158015611798573d6000803e3d6000fd5b505050506001600160a01b038516301490506117d9576117d97f00000000000000000000000000000000000000000000000000000000000000008584611881565b61187a565b6040805163052f523360e11b81526001600160a01b038581166004830152878116602483015286811660448301526064820185905291517f000000000000000000000000000000000000000000000000000000000000000090921691630a5ea4669160848082019260009290919082900301818387803b15801561186157600080fd5b505af1158015611875573d6000803e3d6000fd5b505050505b5050505050565b604080516001600160a01b038416602482015260448082018490528251808303909101815260649091019091526020810180516001600160e01b031663a9059cbb60e01b1790526118d39084906118d8565b505050565b60006060836001600160a01b0316836040518082805190602001908083835b602083106119165780518252601f1990920191602091820191016118f7565b6001836020036101000a0380198251168184511680821785525050505050509050019150506000604051808303816000865af19150503d8060008114611978576040519150601f19603f3d011682016040523d82523d6000602084013e61197d565b606091505b5091509150816119d4576040805162461bcd60e51b815260206004820181905260248201527f5361666545524332303a206c6f772d6c6576656c2063616c6c206661696c6564604482015290519081900360640190fd5b805115611a2d578080602001905160208110156119f057600080fd5b5051611a2d5760405162461bcd60e51b815260040180806020018281038252602a815260200180611a34602a913960400191505060405180910390fd5b5050505056fe5361666545524332303a204552433230206f7065726174696f6e20646964206e6f742073756363656564a26469706673582212205a2d6fd34c6ae1d777b761b5ca8c3d93e2820b21088012a7e8e6c3ffaf4e9aac64736f6c63430006090033",
  "immutableReferences": {
    "21957": [
      {
        "length": 32,
        "start": 1661
      },
      {
        "length": 32,
        "start": 3207
      },
      {
        "length": 32,
        "start": 5931
      },
      {
        "length": 32,
        "start": 6067
      }
    ],
    "21959": [
      {
        "length": 32,
        "start": 5707
      },
      {
        "length": 32,
        "start": 6167
      }
    ],
    "21961": [
      {
        "length": 32,
        "start": 3040
      },
      {
        "length": 32,
        "start": 4041
      },
      {
        "length": 32,
        "start": 4928
      },
      {
        "length": 32,
        "start": 5671
      }
    ],
    "21963": [
      {
        "length": 32,
        "start": 2836
      },
      {
        "length": 32,
        "start": 3360
      }
    ],
    "21965": [
      {
        "length": 32,
        "start": 2872
      },
      {
        "length": 32,
        "start": 4334
      }
    ]
  },
  "source": "/*\n\n    Copyright 2020 DODO ZOO.\n    SPDX-License-Identifier: Apache-2.0\n\n*/\n\npragma solidity 0.6.9;\n\nimport {IDODOApproveProxy} from \"../DODOApproveProxy.sol\";\nimport {ICloneFactory} from \"../../lib/CloneFactory.sol\";\nimport {IERC20} from \"../../intf/IERC20.sol\";\nimport {IWETH} from \"../../intf/IWETH.sol\";\nimport {InitializableOwnable} from \"../../lib/InitializableOwnable.sol\";\nimport {ICollateralVault} from \"../../CollateralVault/intf/ICollateralVault.sol\";\nimport {IDODOV2} from \"../intf/IDODOV2.sol\";\nimport {IFragment} from \"../../GeneralizedFragment/intf/IFragment.sol\";\nimport {IFeeDistributor} from \"../../intf/IFeeDistributor.sol\";\nimport {IDODONFTRegistry} from \"../../Factory/Registries/DODONFTRegistry.sol\";\nimport {SafeMath} from \"../../lib/SafeMath.sol\";\nimport {SafeERC20} from \"../../lib/SafeERC20.sol\";\nimport {DecimalMath} from \"../../lib/DecimalMath.sol\";\nimport {ReentrancyGuard} from \"../../lib/ReentrancyGuard.sol\";\n\n\n/**\n * @title DODONFTProxy\n * @author DODO Breeder\n *\n * @notice Entrance of NFT in DODO platform\n */\ncontract DODONFTProxy is ReentrancyGuard, InitializableOwnable {\n    using SafeMath for uint256;\n\n\n    // ============ Storage ============\n\n    address constant _ETH_ADDRESS_ = 0xEeeeeEeeeEeEeeEeEeEeeEEEeeeeEeeeeeeeEEeE;\n    address public immutable _WETH_;\n    address public immutable _DODO_APPROVE_PROXY_;\n    address public immutable _CLONE_FACTORY_;\n    address public immutable _DVM_FACTORY_;\n    address public immutable _NFT_REGISTY_;\n\n    address public _VAULT_TEMPLATE_;\n    address public _FRAG_TEMPLATE_;\n    address public _FEE_TEMPLATE_;\n\n    // ============ Events ============\n    event ChangeVaultTemplate(address newVaultTemplate);\n    event ChangeFragTemplate(address newFragTemplate);\n    event ChangeFeeTemplate(address newFeeTemplate);\n    event CreateNFTCollateralVault(address creator, address vault, string name, string baseURI);\n    event CreateFragment(address vault, address fragment, address dvm, address feeDistributor);\n    event Buyout(address from, address fragment, uint256 amount);\n    event Stake(address from, address feeDistributor, uint256 amount);\n\n\n    fallback() external payable {}\n\n    receive() external payable {}\n\n    constructor(\n        address cloneFactory,\n        address payable weth,\n        address dodoApproveProxy,\n        address dvmFactory,\n        address vaultTemplate,\n        address fragTemplate,\n        address feeTemplate,\n        address nftRegistry\n    ) public {\n        _CLONE_FACTORY_ = cloneFactory;\n        _WETH_ = weth;\n        _DODO_APPROVE_PROXY_ = dodoApproveProxy;\n        _DVM_FACTORY_ = dvmFactory;\n        _VAULT_TEMPLATE_ = vaultTemplate;\n        _FRAG_TEMPLATE_ = fragTemplate;\n        _FEE_TEMPLATE_ = feeTemplate;\n        _NFT_REGISTY_ = nftRegistry;\n    }\n\n    function createNFTCollateralVault(string memory name, string memory baseURI) external returns (address newVault) {\n        newVault = ICloneFactory(_CLONE_FACTORY_).clone(_VAULT_TEMPLATE_);\n        ICollateralVault(newVault).init(msg.sender, name, baseURI);\n        emit CreateNFTCollateralVault(msg.sender, newVault, name, baseURI);\n    }\n\n    function createFragment(\n        address quoteToken,\n        address collateralVault,\n        address vaultPreOwner,\n        address stakeToken,\n        uint256[] calldata dvmParams, //0 - lpFeeRate, 1 - I, 2 - K\n        uint256[] calldata fragParams, //0 - totalSupply, 1 - ownerRatio, 2 - buyoutTimestamp\n        bool isOpenBuyout\n    ) external returns (address newFragment, address newDvm, address newFeeDistributor) {\n        require(msg.sender == collateralVault, \"NEED_BE_CALLED_BY_VAULT\");\n\n        newFragment = ICloneFactory(_CLONE_FACTORY_).clone(_FRAG_TEMPLATE_);\n        address _quoteToken = quoteToken == _ETH_ADDRESS_ ? _WETH_ : quoteToken;\n        \n        {\n        uint256[] memory  _dvmParams = dvmParams;\n        uint256[] memory  _fragParams = fragParams;\n        \n        newDvm = IDODOV2(_DVM_FACTORY_).createDODOVendingMachine(\n            newFragment,\n            _quoteToken,\n            _dvmParams[0],\n            _dvmParams[1],\n            _dvmParams[2],\n            false\n        );\n\n        IFragment(newFragment).init(\n            newDvm, \n            vaultPreOwner, \n            msg.sender, \n            _fragParams[0], \n            _fragParams[1], \n            _fragParams[2], \n            isOpenBuyout\n        );\n        }\n\n        ICollateralVault(msg.sender).directTransferOwnership(newFragment);\n        \n        \n        if(stakeToken == address(0)) {\n            newFeeDistributor = address(0);\n        } else {\n            newFeeDistributor = ICloneFactory(_CLONE_FACTORY_).clone(_FEE_TEMPLATE_);\n            IFeeDistributor(newFeeDistributor).init(newFragment, _quoteToken, stakeToken);\n        }\n\n        IDODONFTRegistry(_NFT_REGISTY_).addRegistry(msg.sender, newFragment, newFeeDistributor, newDvm);\n\n        emit CreateFragment(msg.sender, newFragment, newDvm, newFeeDistributor);\n    }\n\n    function buyout(\n        address fragment,\n        uint256 quoteAmount,\n        uint8 flag // 0 - ERC20, 1 - quoteInETH\n    ) external payable preventReentrant {\n        _deposit(msg.sender, fragment, IFragment(fragment)._QUOTE_(), quoteAmount, flag == 1);\n        IFragment(fragment).buyout(msg.sender);\n        emit Buyout(msg.sender, fragment, quoteAmount);\n    }\n\n    function stakeToFeeDistributor(\n        address feeDistributor,\n        uint256 stakeAmount,\n        uint8 flag // 0 - ERC20, 1 - ETH\n    ) external payable preventReentrant {\n        _deposit(msg.sender, feeDistributor, IFeeDistributor(feeDistributor)._STAKE_TOKEN_(), stakeAmount, flag == 1);\n        IFeeDistributor(feeDistributor).stake(msg.sender);\n        emit Stake(msg.sender, feeDistributor, stakeAmount);\n    }\n\n    //============= Owner ===================\n    function updateVaultTemplate(address newVaultTemplate) external onlyOwner {\n        _VAULT_TEMPLATE_ = newVaultTemplate;\n        emit ChangeVaultTemplate(newVaultTemplate);\n    }\n\n    function updateFragTemplate(address newFragTemplate) external onlyOwner {\n        _FRAG_TEMPLATE_ = newFragTemplate;\n        emit ChangeFragTemplate(newFragTemplate);\n    }\n\n    function updateFeeTemplate(address newFeeTemplate) external onlyOwner {\n        _FEE_TEMPLATE_ = newFeeTemplate;\n        emit ChangeFeeTemplate(newFeeTemplate);\n    }\n\n\n    function _deposit(\n        address from,\n        address to,\n        address token,\n        uint256 amount,\n        bool isETH\n    ) internal {\n        if (isETH) {\n            if (amount > 0) {\n                IWETH(_WETH_).deposit{value: amount}();\n                if (to != address(this)) SafeERC20.safeTransfer(IERC20(_WETH_), to, amount);\n            }\n        } else {\n            IDODOApproveProxy(_DODO_APPROVE_PROXY_).claimTokens(token, from, to, amount);\n        }\n    }\n}\n",
  "sourcePath": "/Users/niutaotao/projects/dodo/contractV2/contracts/SmartRoute/proxies/DODONFTProxy.sol",
  "compiler": {
    "name": "solc",
    "version": "0.6.9+commit.3e3065ac.Emscripten.clang"
  },
  "schemaVersion": "3.3.2",
  "updatedAt": "2021-04-07T16:20:51.239Z",
  "devdoc": {
    "author": "DODO Breeder",
    "methods": {},
    "title": "DODONFTProxy"
  },
  "userdoc": {
    "methods": {},
    "notice": "Entrance of NFT in DODO platform"
  }
}