{
  "contractName": "DODOV2RouteHelper",
  "abi": [
    {
      "inputs": [
        {
          "internalType": "address",
          "name": "dvmFactory",
          "type": "address"
        },
        {
          "internalType": "address",
          "name": "dppFactory",
          "type": "address"
        }
      ],
      "stateMutability": "nonpayable",
      "type": "constructor"
    },
    {
      "inputs": [],
      "name": "_DPP_FACTORY_",
      "outputs": [
        {
          "internalType": "address",
          "name": "",
          "type": "address"
        }
      ],
      "stateMutability": "view",
      "type": "function"
    },
    {
      "inputs": [],
      "name": "_DVM_FACTORY_",
      "outputs": [
        {
          "internalType": "address",
          "name": "",
          "type": "address"
        }
      ],
      "stateMutability": "view",
      "type": "function"
    },
    {
      "inputs": [
        {
          "internalType": "address",
          "name": "token0",
          "type": "address"
        },
        {
          "internalType": "address",
          "name": "token1",
          "type": "address"
        },
        {
          "internalType": "address",
          "name": "userAddr",
          "type": "address"
        }
      ],
      "name": "getPairDetail",
      "outputs": [
        {
          "components": [
            {
              "internalType": "uint256",
              "name": "i",
              "type": "uint256"
            },
            {
              "internalType": "uint256",
              "name": "K",
              "type": "uint256"
            },
            {
              "internalType": "uint256",
              "name": "B",
              "type": "uint256"
            },
            {
              "internalType": "uint256",
              "name": "Q",
              "type": "uint256"
            },
            {
              "internalType": "uint256",
              "name": "B0",
              "type": "uint256"
            },
            {
              "internalType": "uint256",
              "name": "Q0",
              "type": "uint256"
            },
            {
              "internalType": "uint256",
              "name": "R",
              "type": "uint256"
            },
            {
              "internalType": "uint256",
              "name": "lpFeeRate",
              "type": "uint256"
            },
            {
              "internalType": "uint256",
              "name": "mtFeeRate",
              "type": "uint256"
            },
            {
              "internalType": "address",
              "name": "baseToken",
              "type": "address"
            },
            {
              "internalType": "address",
              "name": "quoteToken",
              "type": "address"
            },
            {
              "internalType": "address",
              "name": "curPair",
              "type": "address"
            }
          ],
          "internalType": "struct DODOV2RouteHelper.PairDetail[]",
          "name": "res",
          "type": "tuple[]"
        }
      ],
      "stateMutability": "view",
      "type": "function"
    }
  ],
  "bytecode": "0x60c060405234801561001057600080fd5b506040516109f23803806109f283398101604081905261002f9161004d565b6001600160601b0319606092831b8116608052911b1660a05261009e565b6000806040838503121561005f578182fd5b825161006a81610086565b602084015190925061007b81610086565b809150509250929050565b6001600160a01b038116811461009b57600080fd5b50565b60805160601c60a05160601c6109236100cf600039806101605280610556525080608e528060b752506109236000f3fe608060405234801561001057600080fd5b50600436106100415760003560e01c806369e4e417146100465780639d15e3ae14610064578063b730d15014610084575b600080fd5b61004e61008c565b60405161005b91906107ce565b60405180910390f35b6100776100723660046106a0565b6100b0565b60405161005b91906107fc565b61004e610554565b7f000000000000000000000000000000000000000000000000000000000000000081565b60608060607f00000000000000000000000000000000000000000000000000000000000000006001600160a01b031663d36cf10a87876040518363ffffffff1660e01b81526004016101039291906107e2565b60006040518083038186803b15801561011b57600080fd5b505afa15801561012f573d6000803e3d6000fd5b505050506040513d6000823e601f3d908101601f1916820160405261015791908101906106ea565b915091506060807f00000000000000000000000000000000000000000000000000000000000000006001600160a01b0316630e6a632c89896040518363ffffffff1660e01b81526004016101ac9291906107e2565b60006040518083038186803b1580156101c457600080fd5b505afa1580156101d8573d6000803e3d6000fd5b505050506040513d6000823e601f3d908101601f1916820160405261020091908101906106ea565b915091506000815183518551875101010190508067ffffffffffffffff8111801561022a57600080fd5b5060405190808252806020026020018201604052801561026457816020015b610251610578565b8152602001906001900390816102495790505b50955060005b818160ff1610156105475761027d610578565b60405180610180016040528060008152602001600081526020016000815260200160008152602001600081526020016000815260200160008152602001600081526020016000815260200160006001600160a01b0316815260200160006001600160a01b0316815260200160006001600160a01b03168152509050600087518360ff16101561034057878360ff168151811061031557fe5b60209081029190910101516001600160a01b03808e166101208501528c1661014084015290506103f2565b86518851018360ff16101561038c578688518460ff16038151811061036157fe5b60209081029190910101516001600160a01b03808d166101208501528d1661014084015290506103f2565b85518751895101018360ff1610156103b35785875189518560ff1603038151811061031557fe5b84865188518a518660ff16030303815181106103cb57fe5b60209081029190910101516001600160a01b03808d166101208501528d1661014084015290505b806001600160a01b031663fd1ed7e96040518163ffffffff1660e01b815260040160e06040518083038186803b15801561042b57600080fd5b505afa15801561043f573d6000803e3d6000fd5b505050506040513d601f19601f82011682018060405250810190610463919061076e565b60c089015260a088015260808701526060860152604080860191909152602085019190915290835251634409660960e01b81526001600160a01b038216906344096609906104b5908d906004016107ce565b604080518083038186803b1580156104cc57600080fd5b505afa1580156104e0573d6000803e3d6000fd5b505050506040513d601f19601f82011682018060405250810190610504919061074b565b61010084015260e08301526001600160a01b038116610160830152885182908a9060ff861690811061053257fe5b6020908102919091010152505060010161026a565b5050505050509392505050565b7f000000000000000000000000000000000000000000000000000000000000000081565b60405180610180016040528060008152602001600081526020016000815260200160008152602001600081526020016000815260200160008152602001600081526020016000815260200160006001600160a01b0316815260200160006001600160a01b0316815260200160006001600160a01b031681525090565b80516105ff816108d5565b92915050565b600082601f830112610615578081fd5b815167ffffffffffffffff8082111561062c578283fd5b602080830260405182828201018181108582111715610649578687fd5b60405284815294508185019250858201818701830188101561066a57600080fd5b600091505b848210156106955761068188826105f4565b84529282019260019190910190820161066f565b505050505092915050565b6000806000606084860312156106b4578283fd5b83356106bf816108d5565b925060208401356106cf816108d5565b915060408401356106df816108d5565b809150509250925092565b600080604083850312156106fc578182fd5b825167ffffffffffffffff80821115610713578384fd5b61071f86838701610605565b93506020850151915080821115610734578283fd5b5061074185828601610605565b9150509250929050565b6000806040838503121561075d578182fd5b505080516020909101519092909150565b600080600080600080600060e0888a031215610788578283fd5b5050855160208701516040880151606089015160808a015160a08b015160c0909b0151949c939b50919990985090965094509092509050565b6001600160a01b03169052565b6001600160a01b0391909116815260200190565b6001600160a01b0392831681529116602082015260400190565b602080825282518282018190526000919060409081850190868401855b828110156108c85781518051855286810151878601528581015186860152606080820151908601526080808201519086015260a0808201519086015260c0808201519086015260e08082015190860152610100808201519086015261012080820151610887828801826107c1565b50506101408082015161089c828801826107c1565b5050610160808201516108b1828801826107c1565b505050610180939093019290850190600101610819565b5091979650505050505050565b6001600160a01b03811681146108ea57600080fd5b5056fea26469706673582212206a196008587a5757e87c452cd9508912079e640247ea3338afc47afcd9f5cd6664736f6c63430006090033",
  "immutableReferences": {
    "13665": [
      {
        "length": 32,
        "start": 142
      },
      {
        "length": 32,
        "start": 183
      }
    ],
    "13667": [
      {
        "length": 32,
        "start": 352
      },
      {
        "length": 32,
        "start": 1366
      }
    ]
  },
  "source": "/*\n\n    Copyright 2020 DODO ZOO.\n    SPDX-License-Identifier: Apache-2.0\n\n*/\n\npragma solidity 0.6.9;\npragma experimental ABIEncoderV2;\n\nimport {IDODOV2} from \"../intf/IDODOV2.sol\";\n\ncontract DODOV2RouteHelper {\n    address public immutable _DVM_FACTORY_;\n    address public immutable _DPP_FACTORY_;\n\n    struct PairDetail {\n        uint256 i;\n        uint256 K;\n        uint256 B;\n        uint256 Q;\n        uint256 B0;\n        uint256 Q0;\n        uint256 R;\n        uint256 lpFeeRate;\n        uint256 mtFeeRate;\n        address baseToken;\n        address quoteToken;\n        address curPair;\n    }\n\n    constructor(address dvmFactory,address dppFactory) public {\n        _DVM_FACTORY_ = dvmFactory;\n        _DPP_FACTORY_ = dppFactory;\n    }\n\n    function getPairDetail(address token0,address token1,address userAddr) external view returns (PairDetail[] memory res) {\n        (address[] memory baseToken0DVM, address[] memory baseToken1DVM) = IDODOV2(_DVM_FACTORY_).getVendingMachineBidirection(token0,token1);\n        (address[] memory baseToken0DPP, address[] memory baseToken1DPP) = IDODOV2(_DPP_FACTORY_).getPrivatePoolBidirection(token0,token1);\n        uint256 len = baseToken0DVM.length + baseToken1DVM.length + baseToken0DPP.length + baseToken1DPP.length;\n        res = new PairDetail[](len);\n        for(uint8 i = 0; i < len; i++) {\n            PairDetail memory curRes = PairDetail(0,0,0,0,0,0,0,0,0,address(0),address(0),address(0));\n            address cur;\n            if(i < baseToken0DVM.length) {\n                cur = baseToken0DVM[i];\n                curRes.baseToken = token0;\n                curRes.quoteToken = token1;\n            } else if(i < baseToken0DVM.length + baseToken1DVM.length) {\n                cur = baseToken1DVM[i - baseToken0DVM.length];\n                curRes.baseToken = token1;\n                curRes.quoteToken = token0;\n            } else if(i < baseToken0DVM.length + baseToken1DVM.length + baseToken0DPP.length) {\n                cur = baseToken0DPP[i - baseToken0DVM.length - baseToken1DVM.length];\n                curRes.baseToken = token0;\n                curRes.quoteToken = token1;\n            } else {\n                cur = baseToken1DPP[i - baseToken0DVM.length - baseToken1DVM.length - baseToken0DPP.length];\n                curRes.baseToken = token1;\n                curRes.quoteToken = token0;\n            }\n\n            (            \n                curRes.i,\n                curRes.K,\n                curRes.B,\n                curRes.Q,\n                curRes.B0,\n                curRes.Q0,\n                curRes.R\n            ) = IDODOV2(cur).getPMMStateForCall();\n\n            (curRes.lpFeeRate, curRes.mtFeeRate) = IDODOV2(cur).getUserFeeRate(userAddr);\n            curRes.curPair = cur;\n            res[i] = curRes;\n        }\n    }\n}",
  "sourcePath": "/Users/niutaotao/projects/dodo/contractV2/contracts/SmartRoute/helper/DODOV2RouteHelper.sol",
  "compiler": {
    "name": "solc",
    "version": "0.6.9+commit.3e3065ac.Emscripten.clang"
  },
  "schemaVersion": "3.3.2",
  "updatedAt": "2021-01-05T07:03:01.163Z",
  "devdoc": {
    "methods": {}
  },
  "userdoc": {
    "methods": {}
  }
}