{
  "contractName": "DODONFTProxy",
  "abi": [
    {
      "inputs": [
        {
          "internalType": "address",
          "name": "cloneFactory",
          "type": "address"
        },
        {
          "internalType": "address payable",
          "name": "weth",
          "type": "address"
        },
        {
          "internalType": "address",
          "name": "dodoApproveProxy",
          "type": "address"
        },
        {
          "internalType": "address",
          "name": "defaultMaintainer",
          "type": "address"
        },
        {
          "internalType": "address",
          "name": "mtFeeRateModel",
          "type": "address"
        },
        {
          "internalType": "address",
          "name": "vaultTemplate",
          "type": "address"
        },
        {
          "internalType": "address",
          "name": "fragTemplate",
          "type": "address"
        },
        {
          "internalType": "address",
          "name": "dvmTemplate",
          "type": "address"
        },
        {
          "internalType": "address",
          "name": "nftRegistry",
          "type": "address"
        }
      ],
      "stateMutability": "nonpayable",
      "type": "constructor"
    },
    {
      "anonymous": false,
      "inputs": [
        {
          "indexed": false,
          "internalType": "address",
          "name": "from",
          "type": "address"
        },
        {
          "indexed": false,
          "internalType": "address",
          "name": "fragment",
          "type": "address"
        },
        {
          "indexed": false,
          "internalType": "uint256",
          "name": "amount",
          "type": "uint256"
        }
      ],
      "name": "Buyout",
      "type": "event"
    },
    {
      "anonymous": false,
      "inputs": [
        {
          "indexed": false,
          "internalType": "uint256",
          "name": "newBuyoutFee",
          "type": "uint256"
        }
      ],
      "name": "ChangeBuyoutFee",
      "type": "event"
    },
    {
      "anonymous": false,
      "inputs": [
        {
          "indexed": false,
          "internalType": "address",
          "name": "newDvmTemplate",
          "type": "address"
        }
      ],
      "name": "ChangeDvmTemplate",
      "type": "event"
    },
    {
      "anonymous": false,
      "inputs": [
        {
          "indexed": false,
          "internalType": "address",
          "name": "newFragTemplate",
          "type": "address"
        }
      ],
      "name": "ChangeFragTemplate",
      "type": "event"
    },
    {
      "anonymous": false,
      "inputs": [
        {
          "indexed": false,
          "internalType": "address",
          "name": "newMtFeeRateTemplate",
          "type": "address"
        }
      ],
      "name": "ChangeMtFeeRateTemplate",
      "type": "event"
    },
    {
      "anonymous": false,
      "inputs": [
        {
          "indexed": false,
          "internalType": "address",
          "name": "newVaultTemplate",
          "type": "address"
        }
      ],
      "name": "ChangeVaultTemplate",
      "type": "event"
    },
    {
      "anonymous": false,
      "inputs": [
        {
          "indexed": false,
          "internalType": "address",
          "name": "vault",
          "type": "address"
        },
        {
          "indexed": false,
          "internalType": "address",
          "name": "fragment",
          "type": "address"
        },
        {
          "indexed": false,
          "internalType": "address",
          "name": "dvm",
          "type": "address"
        }
      ],
      "name": "CreateFragment",
      "type": "event"
    },
    {
      "anonymous": false,
      "inputs": [
        {
          "indexed": false,
          "internalType": "address",
          "name": "creator",
          "type": "address"
        },
        {
          "indexed": false,
          "internalType": "address",
          "name": "vault",
          "type": "address"
        },
        {
          "indexed": false,
          "internalType": "string",
          "name": "name",
          "type": "string"
        },
        {
          "indexed": false,
          "internalType": "string",
          "name": "baseURI",
          "type": "string"
        }
      ],
      "name": "CreateNFTCollateralVault",
      "type": "event"
    },
    {
      "anonymous": false,
      "inputs": [
        {
          "indexed": true,
          "internalType": "address",
          "name": "previousOwner",
          "type": "address"
        },
        {
          "indexed": true,
          "internalType": "address",
          "name": "newOwner",
          "type": "address"
        }
      ],
      "name": "OwnershipTransferPrepared",
      "type": "event"
    },
    {
      "anonymous": false,
      "inputs": [
        {
          "indexed": true,
          "internalType": "address",
          "name": "previousOwner",
          "type": "address"
        },
        {
          "indexed": true,
          "internalType": "address",
          "name": "newOwner",
          "type": "address"
        }
      ],
      "name": "OwnershipTransferred",
      "type": "event"
    },
    {
      "stateMutability": "payable",
      "type": "fallback"
    },
    {
      "inputs": [],
      "name": "_CLONE_FACTORY_",
      "outputs": [
        {
          "internalType": "address",
          "name": "",
          "type": "address"
        }
      ],
      "stateMutability": "view",
      "type": "function"
    },
    {
      "inputs": [],
      "name": "_DEFAULT_BUYOUT_FEE_",
      "outputs": [
        {
          "internalType": "uint256",
          "name": "",
          "type": "uint256"
        }
      ],
      "stateMutability": "view",
      "type": "function"
    },
    {
      "inputs": [],
      "name": "_DEFAULT_MAINTAINER_",
      "outputs": [
        {
          "internalType": "address",
          "name": "",
          "type": "address"
        }
      ],
      "stateMutability": "view",
      "type": "function"
    },
    {
      "inputs": [],
      "name": "_DODO_APPROVE_PROXY_",
      "outputs": [
        {
          "internalType": "address",
          "name": "",
          "type": "address"
        }
      ],
      "stateMutability": "view",
      "type": "function"
    },
    {
      "inputs": [],
      "name": "_DVM_TEMPLATE_",
      "outputs": [
        {
          "internalType": "address",
          "name": "",
          "type": "address"
        }
      ],
      "stateMutability": "view",
      "type": "function"
    },
    {
      "inputs": [],
      "name": "_FRAG_TEMPLATE_",
      "outputs": [
        {
          "internalType": "address",
          "name": "",
          "type": "address"
        }
      ],
      "stateMutability": "view",
      "type": "function"
    },
    {
      "inputs": [],
      "name": "_MT_FEE_RATE_MODEL_",
      "outputs": [
        {
          "internalType": "address",
          "name": "",
          "type": "address"
        }
      ],
      "stateMutability": "view",
      "type": "function"
    },
    {
      "inputs": [],
      "name": "_NEW_OWNER_",
      "outputs": [
        {
          "internalType": "address",
          "name": "",
          "type": "address"
        }
      ],
      "stateMutability": "view",
      "type": "function"
    },
    {
      "inputs": [],
      "name": "_NFT_REGISTY_",
      "outputs": [
        {
          "internalType": "address",
          "name": "",
          "type": "address"
        }
      ],
      "stateMutability": "view",
      "type": "function"
    },
    {
      "inputs": [],
      "name": "_OWNER_",
      "outputs": [
        {
          "internalType": "address",
          "name": "",
          "type": "address"
        }
      ],
      "stateMutability": "view",
      "type": "function"
    },
    {
      "inputs": [],
      "name": "_VAULT_TEMPLATE_",
      "outputs": [
        {
          "internalType": "address",
          "name": "",
          "type": "address"
        }
      ],
      "stateMutability": "view",
      "type": "function"
    },
    {
      "inputs": [],
      "name": "_WETH_",
      "outputs": [
        {
          "internalType": "address",
          "name": "",
          "type": "address"
        }
      ],
      "stateMutability": "view",
      "type": "function"
    },
    {
      "inputs": [],
      "name": "claimOwnership",
      "outputs": [],
      "stateMutability": "nonpayable",
      "type": "function"
    },
    {
      "inputs": [
        {
          "internalType": "address",
          "name": "newOwner",
          "type": "address"
        }
      ],
      "name": "initOwner",
      "outputs": [],
      "stateMutability": "nonpayable",
      "type": "function"
    },
    {
      "inputs": [
        {
          "internalType": "address",
          "name": "newOwner",
          "type": "address"
        }
      ],
      "name": "transferOwnership",
      "outputs": [],
      "stateMutability": "nonpayable",
      "type": "function"
    },
    {
      "stateMutability": "payable",
      "type": "receive"
    },
    {
      "inputs": [
        {
          "internalType": "string",
          "name": "name",
          "type": "string"
        },
        {
          "internalType": "string",
          "name": "baseURI",
          "type": "string"
        }
      ],
      "name": "createNFTCollateralVault",
      "outputs": [
        {
          "internalType": "address",
          "name": "newVault",
          "type": "address"
        }
      ],
      "stateMutability": "nonpayable",
      "type": "function"
    },
    {
      "inputs": [
        {
          "internalType": "address",
          "name": "quoteToken",
          "type": "address"
        },
        {
          "internalType": "address",
          "name": "vaultPreOwner",
          "type": "address"
        },
        {
          "internalType": "uint256[]",
          "name": "dvmParams",
          "type": "uint256[]"
        },
        {
          "internalType": "uint256[]",
          "name": "fragParams",
          "type": "uint256[]"
        },
        {
          "internalType": "bool",
          "name": "isOpenTwap",
          "type": "bool"
        }
      ],
      "name": "createFragment",
      "outputs": [
        {
          "internalType": "address",
          "name": "newFragment",
          "type": "address"
        },
        {
          "internalType": "address",
          "name": "newDvm",
          "type": "address"
        }
      ],
      "stateMutability": "nonpayable",
      "type": "function"
    },
    {
      "inputs": [
        {
          "internalType": "address",
          "name": "fragment",
          "type": "address"
        },
        {
          "internalType": "uint256",
          "name": "quoteMaxAmount",
          "type": "uint256"
        },
        {
          "internalType": "uint8",
          "name": "flag",
          "type": "uint8"
        },
        {
          "internalType": "uint256",
          "name": "deadLine",
          "type": "uint256"
        }
      ],
      "name": "buyout",
      "outputs": [],
      "stateMutability": "payable",
      "type": "function"
    },
    {
      "inputs": [
        {
          "internalType": "address",
          "name": "newVaultTemplate",
          "type": "address"
        }
      ],
      "name": "updateVaultTemplate",
      "outputs": [],
      "stateMutability": "nonpayable",
      "type": "function"
    },
    {
      "inputs": [
        {
          "internalType": "address",
          "name": "newFragTemplate",
          "type": "address"
        }
      ],
      "name": "updateFragTemplate",
      "outputs": [],
      "stateMutability": "nonpayable",
      "type": "function"
    },
    {
      "inputs": [
        {
          "internalType": "address",
          "name": "newMtFeeRateTemplate",
          "type": "address"
        }
      ],
      "name": "updateMtFeeRateTemplate",
      "outputs": [],
      "stateMutability": "nonpayable",
      "type": "function"
    },
    {
      "inputs": [
        {
          "internalType": "address",
          "name": "newDvmTemplate",
          "type": "address"
        }
      ],
      "name": "updateDvmTemplate",
      "outputs": [],
      "stateMutability": "nonpayable",
      "type": "function"
    },
    {
      "inputs": [
        {
          "internalType": "uint256",
          "name": "buyoutFee",
          "type": "uint256"
        }
      ],
      "name": "updateBuyoutFee",
      "outputs": [],
      "stateMutability": "nonpayable",
      "type": "function"
    }
  ],
  "bytecode": "0x61012060405234801561001157600080fd5b50604051612020380380612020833981810160405261012081101561003557600080fd5b5080516020820151604083015160608085015160808087015160a08089015160c0808b015160e0808d01516101009d8e01518d8b1b6001600160601b03199081169095528c8b1b85169098528a8a1b841690955287891b8316909c52600280546001600160a01b03199081166001600160a01b039788161790915560038054821694871694909417909355600480548416918616919091179055600580549092169284169290921790559382901b90931690965292811694918116938116929181169116611ec161015f60003980610961528061164452806117a852508061092e5280610ce85280611928525080611044528061132b528061145c52806115b252508061134f5280611b105250806106f452806115005280611a245280611aac5250611ec16000f3fe6080604052600436106101445760003560e01c80638c8f1970116100b6578063e628433f1161006f578063e628433f146103b1578063eb774d05146104e7578063eb99be12146104fc578063f2fde38b14610511578063f6b06e7014610544578063f7809531146105595761014b565b80638c8f1970146102a1578063a807aa75146102dc578063ccf0c05914610303578063d132061114610318578063d6c2a0ee1461034b578063d99b8ad41461037e5761014b565b80635027c7a7116101085780635027c7a7146101f057806364f580b71461021a5780636a1292c21461024d57806379b798131461026257806381ab4d0a146102775780638456db151461028c5761014b565b80630d0092971461014d5780630d4eec8f1461018057806316048bc4146101b157806343b23bbc146101c65780634e71e0c8146101db5761014b565b3661014b57005b005b34801561015957600080fd5b5061014b6004803603602081101561017057600080fd5b50356001600160a01b0316610665565b34801561018c57600080fd5b506101956106f2565b604080516001600160a01b039092168252519081900360200190f35b3480156101bd57600080fd5b50610195610716565b3480156101d257600080fd5b5061019561072a565b3480156101e757600080fd5b5061014b610739565b3480156101fc57600080fd5b5061014b6004803603602081101561021357600080fd5b50356107fd565b34801561022657600080fd5b5061014b6004803603602081101561023d57600080fd5b50356001600160a01b0316610888565b34801561025957600080fd5b5061019561092c565b34801561026e57600080fd5b50610195610950565b34801561028357600080fd5b5061019561095f565b34801561029857600080fd5b50610195610983565b61014b600480360360808110156102b757600080fd5b506001600160a01b038135169060208101359060ff6040820135169060600135610992565b3480156102e857600080fd5b506102f1610e1b565b60408051918252519081900360200190f35b34801561030f57600080fd5b50610195610e21565b34801561032457600080fd5b5061014b6004803603602081101561033b57600080fd5b50356001600160a01b0316610e30565b34801561035757600080fd5b5061014b6004803603602081101561036e57600080fd5b50356001600160a01b0316610ed4565b34801561038a57600080fd5b5061014b600480360360208110156103a157600080fd5b50356001600160a01b0316610f78565b3480156103bd57600080fd5b50610195600480360360408110156103d457600080fd5b810190602081018135600160201b8111156103ee57600080fd5b82018360208201111561040057600080fd5b803590602001918460018302840111600160201b8311171561042157600080fd5b91908080601f0160208091040260200160405190810160405280939291908181526020018383808284376000920191909152509295949360208101935035915050600160201b81111561047357600080fd5b82018360208201111561048557600080fd5b803590602001918460018302840111600160201b831117156104a657600080fd5b91908080601f01602080910402602001604051908101604052809392919081815260200183838082843760009201919091525092955061101c945050505050565b3480156104f357600080fd5b50610195611329565b34801561050857600080fd5b5061019561134d565b34801561051d57600080fd5b5061014b6004803603602081101561053457600080fd5b50356001600160a01b0316611371565b34801561055057600080fd5b50610195611421565b34801561056557600080fd5b5061063f600480360360a081101561057c57600080fd5b6001600160a01b038235811692602081013590911691810190606081016040820135600160201b8111156105af57600080fd5b8201836020820111156105c157600080fd5b803590602001918460208302840111600160201b831117156105e257600080fd5b919390929091602081019035600160201b8111156105ff57600080fd5b82018360208201111561061157600080fd5b803590602001918460208302840111600160201b8311171561063257600080fd5b9193509150351515611430565b604080516001600160a01b03938416815291909216602082015281519081900390910190f35b600154600160a01b900460ff16156106b7576040805162461bcd60e51b815260206004820152601060248201526f1113d113d7d25392551250531256915160821b604482015290519081900360640190fd5b6001805460ff60a01b1916600160a01b179055600080546001600160a01b0390921661010002610100600160a81b0319909216919091179055565b7f000000000000000000000000000000000000000000000000000000000000000081565b60005461010090046001600160a01b031681565b6004546001600160a01b031681565b6001546001600160a01b03163314610788576040805162461bcd60e51b815260206004820152600d60248201526c494e56414c49445f434c41494d60981b604482015290519081900360640190fd5b600154600080546040516001600160a01b0393841693610100909204909116917f8be0079c531659141344cd1fd0a4f28419497f9722a3daafe3b4186f6b6457e091a36001805460008054610100600160a81b0319166101006001600160a01b038416021790556001600160a01b0319169055565b60005461010090046001600160a01b0316331461084d576040805162461bcd60e51b81526020600482015260096024820152682727aa2fa7aba722a960b91b604482015290519081900360640190fd5b60068190556040805182815290517f234ba5b9a2fdd54bc3d99ea23bad0778ec15e2e7e0ab87ab121f0031140b218a9181900360200190a150565b60005461010090046001600160a01b031633146108d8576040805162461bcd60e51b81526020600482015260096024820152682727aa2fa7aba722a960b91b604482015290519081900360640190fd5b600380546001600160a01b0383166001600160a01b0319909116811790915560408051918252517fb2d5bc44370aa5e738428f602178d860b9771e72618c70b200de03c848fe8d299181900360200190a150565b7f000000000000000000000000000000000000000000000000000000000000000081565b6003546001600160a01b031681565b7f000000000000000000000000000000000000000000000000000000000000000081565b6001546001600160a01b031681565b60005460ff16156109d6576040805162461bcd60e51b815260206004820152600960248201526814915153951490539560ba1b604482015290519081900360640190fd5b6000805460ff191660011790558042811015610a31576040805162461bcd60e51b81526020600482015260156024820152741113d113d39195141c9bde1e4e8811561412549151605a1b604482015290519081900360640190fd5b60ff8316610a76573415610a765760405162461bcd60e51b8152600401808060200182810382526021815260200180611e416021913960400191505060405180910390fd5b6000856001600160a01b0316637a1fa0dd6040518163ffffffff1660e01b815260040160206040518083038186803b158015610ab157600080fd5b505afa158015610ac5573d6000803e3d6000fd5b505050506040513d6020811015610adb57600080fd5b5051604080516318160ddd60e01b815290519192506000916001600160a01b038916916318160ddd916004808301926020929190829003018186803b158015610b2357600080fd5b505afa158015610b37573d6000803e3d6000fd5b505050506040513d6020811015610b4d57600080fd5b50516040805163ee27c68960e01b815290519192506000916001600160a01b0385169163ee27c689916004808301926020929190829003018186803b158015610b9557600080fd5b505afa158015610ba9573d6000803e3d6000fd5b505050506040513d6020811015610bbf57600080fd5b505190506000610bcf82846119e3565b905087811115610c105760405162461bcd60e51b8152600401808060200182810382526034815260200180611e0d6034913960400191505060405180910390fd5b610c87338a8b6001600160a01b031663ca436ea46040518163ffffffff1660e01b815260040160206040518083038186803b158015610c4e57600080fd5b505afa158015610c62573d6000803e3d6000fd5b505050506040513d6020811015610c7857600080fd5b505184600160ff8d1614611a16565b604080516367e9bdad60e01b815233600482015290516001600160a01b038b16916367e9bdad91602480830192600092919082900301818387803b158015610cce57600080fd5b505af1158015610ce2573d6000803e3d6000fd5b505050507f00000000000000000000000000000000000000000000000000000000000000006001600160a01b03166374a0aff68a6040518263ffffffff1660e01b815260040180826001600160a01b03166001600160a01b03168152602001915050600060405180830381600087803b158015610d5e57600080fd5b505af1158015610d72573d6000803e3d6000fd5b505050508660ff166001148015610d8857508034115b15610dbe5760405133903483900380156108fc02916000818181858888f19350505050158015610dbc573d6000803e3d6000fd5b505b604080513381526001600160a01b038b16602082015280820183905290517fd48ae6191a0fabf0f9b364e7fd034a4ad27889a25eefa8bdefc7f9c70d5641089181900360600190a150506000805460ff1916905550505050505050565b60065481565b6005546001600160a01b031681565b60005461010090046001600160a01b03163314610e80576040805162461bcd60e51b81526020600482015260096024820152682727aa2fa7aba722a960b91b604482015290519081900360640190fd5b600280546001600160a01b0383166001600160a01b0319909116811790915560408051918252517f12e8be6b43bea0b245c315c7600f070287719e5a7a82507bdbed672e7c8b495a9181900360200190a150565b60005461010090046001600160a01b03163314610f24576040805162461bcd60e51b81526020600482015260096024820152682727aa2fa7aba722a960b91b604482015290519081900360640190fd5b600480546001600160a01b0383166001600160a01b0319909116811790915560408051918252517f9b04919703d0dfe008e1d0576286304e11b77115ec99ab954628e3175b0f48659181900360200190a150565b60005461010090046001600160a01b03163314610fc8576040805162461bcd60e51b81526020600482015260096024820152682727aa2fa7aba722a960b91b604482015290519081900360640190fd5b600580546001600160a01b0383166001600160a01b0319909116811790915560408051918252517fc879269273a08b356c4247d60d28f61a10bcf218b8af0a9ee7a29266e28952309181900360200190a150565b600354604080516340925bc760e11b81526001600160a01b03928316600482015290516000927f00000000000000000000000000000000000000000000000000000000000000001691638124b78e91602480830192602092919082900301818787803b15801561108b57600080fd5b505af115801561109f573d6000803e3d6000fd5b505050506040513d60208110156110b557600080fd5b505160405163b2b45df560e01b815233600482018181526060602484019081528751606485015287519495506001600160a01b0386169463b2b45df59489938993909290916044810191608490910190602087019080838360005b83811015611128578181015183820152602001611110565b50505050905090810190601f1680156111555780820380516001836020036101000a031916815260200191505b50838103825284518152845160209182019186019080838360005b83811015611188578181015183820152602001611170565b50505050905090810190601f1680156111b55780820380516001836020036101000a031916815260200191505b5095505050505050600060405180830381600087803b1580156111d757600080fd5b505af11580156111eb573d6000803e3d6000fd5b505050507fb6e82a327d56156b637bcd124f2fe63809992fa6fe2ecc2dbb0b060430aa432b3382858560405180856001600160a01b03166001600160a01b03168152602001846001600160a01b03166001600160a01b031681526020018060200180602001838103835285818151815260200191508051906020019080838360005b8381101561128557818101518382015260200161126d565b50505050905090810190601f1680156112b25780820380516001836020036101000a031916815260200191505b50838103825284518152845160209182019186019080838360005b838110156112e55781810151838201526020016112cd565b50505050905090810190601f1680156113125780820380516001836020036101000a031916815260200191505b50965050505050505060405180910390a192915050565b7f000000000000000000000000000000000000000000000000000000000000000081565b7f000000000000000000000000000000000000000000000000000000000000000081565b60005461010090046001600160a01b031633146113c1576040805162461bcd60e51b81526020600482015260096024820152682727aa2fa7aba722a960b91b604482015290519081900360640190fd5b600080546040516001600160a01b038085169361010090930416917fdcf55418cee3220104fef63f979ff3c4097ad240c0c43dcb33ce837748983e6291a3600180546001600160a01b0319166001600160a01b0392909216919091179055565b6002546001600160a01b031681565b60048054604080516340925bc760e11b81526001600160a01b03928316938101939093525160009283927f00000000000000000000000000000000000000000000000000000000000000001691638124b78e9160248082019260209290919082900301818787803b1580156114a457600080fd5b505af11580156114b8573d6000803e3d6000fd5b505050506040513d60208110156114ce57600080fd5b5051915060006001600160a01b038a1673eeeeeeeeeeeeeeeeeeeeeeeeeeeeeeeeeeeeeeee146114fe5789611520565b7f00000000000000000000000000000000000000000000000000000000000000005b9050606088888080602002602001604051908101604052809392919081815260200183836020028082843760009201919091525050604080516020808c0282810182019093528b82529495506060949093508b92508a9182918501908490808284376000920182905250600554604080516340925bc760e11b81526001600160a01b03928316600482015290519697507f000000000000000000000000000000000000000000000000000000000000000090911695638124b78e955060248083019550602094509092918390030190829087803b15801561160057600080fd5b505af1158015611614573d6000803e3d6000fd5b505050506040513d602081101561162a57600080fd5b505182519094506001600160a01b03851690635039972a907f00000000000000000000000000000000000000000000000000000000000000009088908790879060009061167357fe5b6020026020010151600260009054906101000a90046001600160a01b03168860018151811061169e57fe5b6020026020010151896002815181106116b357fe5b6020908102919091010151604080516001600160e01b031960e08b901b1681526001600160a01b0398891660048201529688166024880152948716604487015260648601939093529416608484015260a483019390935260c482019290925289151560e4820152905161010480830192600092919082900301818387803b15801561173d57600080fd5b505af1158015611751573d6000803e3d6000fd5b50505050846001600160a01b03166362044fbe858d338560008151811061177457fe5b60200260200101518660018151811061178957fe5b60200260200101518760028151811061179e57fe5b60200260200101517f00000000000000000000000000000000000000000000000000000000000000006006546040518963ffffffff1660e01b815260040180896001600160a01b03166001600160a01b03168152602001886001600160a01b03166001600160a01b03168152602001876001600160a01b03166001600160a01b03168152602001868152602001858152602001848152602001836001600160a01b03166001600160a01b0316815260200182815260200198505050505050505050600060405180830381600087803b15801561187957600080fd5b505af115801561188d573d6000803e3d6000fd5b505060408051635ee9bee360e11b81526001600160a01b0389166004820152905133955063bdd37dc694506024808301945060009350909182900301818387803b1580156118da57600080fd5b505af11580156118ee573d6000803e3d6000fd5b505060408051634742f92160e11b81523360048201526001600160a01b0387811660248301528581166044830152868116606483015291517f00000000000000000000000000000000000000000000000000000000000000009092169350638e85f242925060848082019260009290919082900301818387803b15801561197457600080fd5b505af1158015611988573d6000803e3d6000fd5b5050604080513381526001600160a01b03808816602083015286168183015290517f3d4e96963582c3d82e6ce6fcd411e4615680b31c54a0ab4ff4a25fe181c861b79350908190036060019150a15097509795505050505050565b6000611a0d670de0b6b3a7640000611a01858563ffffffff611b7a16565b9063ffffffff611bd516565b90505b92915050565b8015611ad7578115611ad2577f00000000000000000000000000000000000000000000000000000000000000006001600160a01b031663d0e30db0836040518263ffffffff1660e01b81526004016000604051808303818588803b158015611a7d57600080fd5b505af1158015611a91573d6000803e3d6000fd5b505050506001600160a01b03851630149050611ad257611ad27f00000000000000000000000000000000000000000000000000000000000000008584611c02565b611b73565b6040805163052f523360e11b81526001600160a01b038581166004830152878116602483015286811660448301526064820185905291517f000000000000000000000000000000000000000000000000000000000000000090921691630a5ea4669160848082019260009290919082900301818387803b158015611b5a57600080fd5b505af1158015611b6e573d6000803e3d6000fd5b505050505b5050505050565b600082611b8957506000611a10565b82820282848281611b9657fe5b0414611a0d576040805162461bcd60e51b815260206004820152600960248201526826aaa62fa2a92927a960b91b604482015290519081900360640190fd5b600080611be28484611c59565b905082810284038015611bfa57506001019050611a10565b509050611a10565b604080516001600160a01b038416602482015260448082018490528251808303909101815260649091019091526020810180516001600160e01b031663a9059cbb60e01b179052611c54908490611cb1565b505050565b6000808211611ca0576040805162461bcd60e51b815260206004820152600e60248201526d2224ab24a224a723afa2a92927a960911b604482015290519081900360640190fd5b818381611ca957fe5b049392505050565b60006060836001600160a01b0316836040518082805190602001908083835b60208310611cef5780518252601f199092019160209182019101611cd0565b6001836020036101000a0380198251168184511680821785525050505050509050019150506000604051808303816000865af19150503d8060008114611d51576040519150601f19603f3d011682016040523d82523d6000602084013e611d56565b606091505b509150915081611dad576040805162461bcd60e51b815260206004820181905260248201527f5361666545524332303a206c6f772d6c6576656c2063616c6c206661696c6564604482015290519081900360640190fd5b805115611e0657808060200190516020811015611dc957600080fd5b5051611e065760405162461bcd60e51b815260040180806020018281038252602a815260200180611e62602a913960400191505060405180910390fd5b5050505056fe444f444f4e465450726f78793a2043555252454e545f544f54414c5f5641554c455f4d4f52455f5448414e5f51554f54454d4158444f444f4e465450726f78793a2057455f53415645445f594f55525f4d4f4e45595361666545524332303a204552433230206f7065726174696f6e20646964206e6f742073756363656564a26469706673582212200164b47838cfc692e99f5cf2161ab2632a3e4d79a62c03d4b97987aa8d32336964736f6c63430006090033",
  "immutableReferences": {
    "29310": [
      {
        "length": 32,
        "start": 1780
      },
      {
        "length": 32,
        "start": 5376
      },
      {
        "length": 32,
        "start": 6692
      },
      {
        "length": 32,
        "start": 6828
      }
    ],
    "29312": [
      {
        "length": 32,
        "start": 4943
      },
      {
        "length": 32,
        "start": 6928
      }
    ],
    "29314": [
      {
        "length": 32,
        "start": 4164
      },
      {
        "length": 32,
        "start": 4907
      },
      {
        "length": 32,
        "start": 5212
      },
      {
        "length": 32,
        "start": 5554
      }
    ],
    "29316": [
      {
        "length": 32,
        "start": 2350
      },
      {
        "length": 32,
        "start": 3304
      },
      {
        "length": 32,
        "start": 6440
      }
    ],
    "29318": [
      {
        "length": 32,
        "start": 2401
      },
      {
        "length": 32,
        "start": 5700
      },
      {
        "length": 32,
        "start": 6056
      }
    ]
  },
  "source": "/*\n\n    Copyright 2020 DODO ZOO.\n    SPDX-License-Identifier: Apache-2.0\n\n*/\n\npragma solidity 0.6.9;\n\nimport {IDODOApproveProxy} from \"../DODOApproveProxy.sol\";\nimport {ICloneFactory} from \"../../lib/CloneFactory.sol\";\nimport {IERC20} from \"../../intf/IERC20.sol\";\nimport {IWETH} from \"../../intf/IWETH.sol\";\nimport {InitializableOwnable} from \"../../lib/InitializableOwnable.sol\";\nimport {ICollateralVault} from \"../../CollateralVault/intf/ICollateralVault.sol\";\nimport {IDVM} from \"../../DODOVendingMachine/intf/IDVM.sol\";\nimport {IFragment} from \"../../GeneralizedFragment/intf/IFragment.sol\";\nimport {IDODONFTRegistry} from \"../../Factory/Registries/DODONFTRegistry.sol\";\nimport {SafeMath} from \"../../lib/SafeMath.sol\";\nimport {SafeERC20} from \"../../lib/SafeERC20.sol\";\nimport {DecimalMath} from \"../../lib/DecimalMath.sol\";\nimport {ReentrancyGuard} from \"../../lib/ReentrancyGuard.sol\";\n\n\n/**\n * @title DODONFTProxy\n * @author DODO Breeder\n *\n * @notice Entrance of NFT in DODO platform\n */\ncontract DODONFTProxy is ReentrancyGuard, InitializableOwnable {\n    using SafeMath for uint256;\n\n\n    // ============ Storage ============\n\n    address constant _ETH_ADDRESS_ = 0xEeeeeEeeeEeEeeEeEeEeeEEEeeeeEeeeeeeeEEeE;\n    address public immutable _WETH_;\n    address public immutable _DODO_APPROVE_PROXY_;\n    address public immutable _CLONE_FACTORY_;\n    address public immutable _NFT_REGISTY_;\n    address public immutable _DEFAULT_MAINTAINER_;\n    \n    address public _MT_FEE_RATE_MODEL_;\n    address public _VAULT_TEMPLATE_;\n    address public _FRAG_TEMPLATE_;\n    address public _DVM_TEMPLATE_;\n\n    uint256 public _DEFAULT_BUYOUT_FEE_;\n\n    // ============ Events ============\n    event ChangeVaultTemplate(address newVaultTemplate);\n    event ChangeFragTemplate(address newFragTemplate);\n    event ChangeDvmTemplate(address newDvmTemplate);\n    event ChangeMtFeeRateTemplate(address newMtFeeRateTemplate);\n    event ChangeBuyoutFee(uint256 newBuyoutFee);\n    event CreateNFTCollateralVault(address creator, address vault, string name, string baseURI);\n    event CreateFragment(address vault, address fragment, address dvm);\n    event Buyout(address from, address fragment, uint256 amount);\n\n    // ============ Modifiers ============\n\n    modifier judgeExpired(uint256 deadLine) {\n        require(deadLine >= block.timestamp, \"DODONFTProxy: EXPIRED\");\n        _;\n    }\n\n    fallback() external payable {}\n\n    receive() external payable {}\n\n    constructor(\n        address cloneFactory,\n        address payable weth,\n        address dodoApproveProxy,\n        address defaultMaintainer,\n        address mtFeeRateModel,\n        address vaultTemplate,\n        address fragTemplate,\n        address dvmTemplate,\n        address nftRegistry\n    ) public {\n        _CLONE_FACTORY_ = cloneFactory;\n        _WETH_ = weth;\n        _DODO_APPROVE_PROXY_ = dodoApproveProxy;\n        _DEFAULT_MAINTAINER_ = defaultMaintainer;\n        _MT_FEE_RATE_MODEL_ = mtFeeRateModel;\n        _VAULT_TEMPLATE_ = vaultTemplate;\n        _FRAG_TEMPLATE_ = fragTemplate;\n        _DVM_TEMPLATE_ = dvmTemplate;\n        _NFT_REGISTY_ = nftRegistry;\n    }\n\n    function createNFTCollateralVault(string memory name, string memory baseURI) external returns (address newVault) {\n        newVault = ICloneFactory(_CLONE_FACTORY_).clone(_VAULT_TEMPLATE_);\n        ICollateralVault(newVault).init(msg.sender, name, baseURI);\n        emit CreateNFTCollateralVault(msg.sender, newVault, name, baseURI);\n    }\n    \n    function createFragment(\n        address quoteToken,\n        address vaultPreOwner,\n        uint256[] calldata dvmParams, //0 - lpFeeRate, 1 - I, 2 - K\n        uint256[] calldata fragParams, //0 - totalSupply, 1 - ownerRatio, 2 - buyoutTimestamp\n        bool isOpenTwap \n    ) external returns (address newFragment, address newDvm) {\n        newFragment = ICloneFactory(_CLONE_FACTORY_).clone(_FRAG_TEMPLATE_);\n        address _quoteToken = quoteToken == _ETH_ADDRESS_ ? _WETH_ : quoteToken;\n        \n        {\n        uint256[] memory  _dvmParams = dvmParams;\n        uint256[] memory  _fragParams = fragParams;\n        \n        newDvm = ICloneFactory(_CLONE_FACTORY_).clone(_DVM_TEMPLATE_);\n        IDVM(newDvm).init(\n            _DEFAULT_MAINTAINER_,\n            newFragment,\n            _quoteToken,\n            _dvmParams[0],\n            _MT_FEE_RATE_MODEL_,\n            _dvmParams[1],\n            _dvmParams[2],\n            isOpenTwap\n        );\n        IFragment(newFragment).init(\n            newDvm, \n            vaultPreOwner, \n            msg.sender, \n            _fragParams[0], \n            _fragParams[1], \n            _fragParams[2],\n            _DEFAULT_MAINTAINER_,\n            _DEFAULT_BUYOUT_FEE_\n        );\n        }\n\n        ICollateralVault(msg.sender).directTransferOwnership(newFragment);\n        \n        IDODONFTRegistry(_NFT_REGISTY_).addRegistry(msg.sender, newFragment, _quoteToken, newDvm);\n\n        emit CreateFragment(msg.sender, newFragment, newDvm);\n    }\n\n    function buyout(\n        address fragment,\n        uint256 quoteMaxAmount,\n        uint8 flag, // 0 - ERC20, 1 - quoteInETH\n        uint256 deadLine\n    ) external payable preventReentrant judgeExpired(deadLine) {\n        if(flag == 0)\n            require(msg.value == 0, \"DODONFTProxy: WE_SAVED_YOUR_MONEY\");\n        \n        address dvm = IFragment(fragment)._DVM_();\n        uint256 fragTotalSupply = IFragment(fragment).totalSupply();\n        uint256 buyPrice = IDVM(dvm).getMidPrice();\n\n        uint256 curRequireQuote = DecimalMath.mulCeil(buyPrice, fragTotalSupply);\n\n        require(curRequireQuote <= quoteMaxAmount, \"DODONFTProxy: CURRENT_TOTAL_VAULE_MORE_THAN_QUOTEMAX\");\n\n        _deposit(msg.sender, fragment, IFragment(fragment)._QUOTE_(), curRequireQuote, flag == 1);\n        IFragment(fragment).buyout(msg.sender);\n\n        IDODONFTRegistry(_NFT_REGISTY_).removeRegistry(fragment);\n\n        // refund dust eth\n        if (flag == 1 && msg.value > curRequireQuote) msg.sender.transfer(msg.value - curRequireQuote);\n\n        emit Buyout(msg.sender, fragment, curRequireQuote);\n    }\n\n    //============= Owner ===================\n    function updateVaultTemplate(address newVaultTemplate) external onlyOwner {\n        _VAULT_TEMPLATE_ = newVaultTemplate;\n        emit ChangeVaultTemplate(newVaultTemplate);\n    }\n\n    function updateFragTemplate(address newFragTemplate) external onlyOwner {\n        _FRAG_TEMPLATE_ = newFragTemplate;\n        emit ChangeFragTemplate(newFragTemplate);\n    }\n\n    function updateMtFeeRateTemplate(address newMtFeeRateTemplate) external onlyOwner {\n        _MT_FEE_RATE_MODEL_ = newMtFeeRateTemplate;\n        emit ChangeMtFeeRateTemplate(newMtFeeRateTemplate);\n    }\n\n    function updateDvmTemplate(address newDvmTemplate) external onlyOwner {\n        _DVM_TEMPLATE_ = newDvmTemplate;\n        emit ChangeDvmTemplate(newDvmTemplate);\n    }\n\n    function updateBuyoutFee(uint256 buyoutFee) external onlyOwner {\n        _DEFAULT_BUYOUT_FEE_ = buyoutFee;\n        emit ChangeBuyoutFee(buyoutFee);\n    }\n\n\n    //============= Internal ================\n\n    function _deposit(\n        address from,\n        address to,\n        address token,\n        uint256 amount,\n        bool isETH\n    ) internal {\n        if (isETH) {\n            if (amount > 0) {\n                IWETH(_WETH_).deposit{value: amount}();\n                if (to != address(this)) SafeERC20.safeTransfer(IERC20(_WETH_), to, amount);\n            }\n        } else {\n            IDODOApproveProxy(_DODO_APPROVE_PROXY_).claimTokens(token, from, to, amount);\n        }\n    }\n}\n",
  "sourcePath": "/Users/niutaotao/projects/dodo/contractV2/contracts/SmartRoute/proxies/DODONFTProxy.sol",
  "compiler": {
    "name": "solc",
    "version": "0.6.9+commit.3e3065ac.Emscripten.clang"
  },
  "schemaVersion": "3.3.2",
  "updatedAt": "2021-05-12T06:17:15.919Z",
  "devdoc": {
    "author": "DODO Breeder",
    "methods": {},
    "title": "DODONFTProxy"
  },
  "userdoc": {
    "methods": {},
    "notice": "Entrance of NFT in DODO platform"
  }
}