{
  "contractName": "DODOV2Proxy01",
  "abi": [
    {
      "inputs": [
        {
          "internalType": "address",
          "name": "dvmFactory",
          "type": "address"
        },
        {
          "internalType": "address",
          "name": "dppFactory",
          "type": "address"
        },
        {
          "internalType": "address",
          "name": "cpFactory",
          "type": "address"
        },
        {
          "internalType": "address payable",
          "name": "weth",
          "type": "address"
        },
        {
          "internalType": "address",
          "name": "dodoApprove",
          "type": "address"
        },
        {
          "internalType": "address",
          "name": "dodoSellHelper",
          "type": "address"
        },
        {
          "internalType": "address",
          "name": "chiToken",
          "type": "address"
        },
        {
          "internalType": "address",
          "name": "dodoIncentive",
          "type": "address"
        }
      ],
      "stateMutability": "nonpayable",
      "type": "constructor"
    },
    {
      "anonymous": false,
      "inputs": [
        {
          "indexed": false,
          "internalType": "address",
          "name": "fromToken",
          "type": "address"
        },
        {
          "indexed": false,
          "internalType": "address",
          "name": "toToken",
          "type": "address"
        },
        {
          "indexed": false,
          "internalType": "address",
          "name": "sender",
          "type": "address"
        },
        {
          "indexed": false,
          "internalType": "uint256",
          "name": "fromAmount",
          "type": "uint256"
        },
        {
          "indexed": false,
          "internalType": "uint256",
          "name": "returnAmount",
          "type": "uint256"
        }
      ],
      "name": "OrderHistory",
      "type": "event"
    },
    {
      "anonymous": false,
      "inputs": [
        {
          "indexed": true,
          "internalType": "address",
          "name": "previousOwner",
          "type": "address"
        },
        {
          "indexed": true,
          "internalType": "address",
          "name": "newOwner",
          "type": "address"
        }
      ],
      "name": "OwnershipTransferPrepared",
      "type": "event"
    },
    {
      "anonymous": false,
      "inputs": [
        {
          "indexed": true,
          "internalType": "address",
          "name": "previousOwner",
          "type": "address"
        },
        {
          "indexed": true,
          "internalType": "address",
          "name": "newOwner",
          "type": "address"
        }
      ],
      "name": "OwnershipTransferred",
      "type": "event"
    },
    {
      "stateMutability": "payable",
      "type": "fallback"
    },
    {
      "inputs": [],
      "name": "_CHI_TOKEN_",
      "outputs": [
        {
          "internalType": "address",
          "name": "",
          "type": "address"
        }
      ],
      "stateMutability": "view",
      "type": "function"
    },
    {
      "inputs": [],
      "name": "_CP_FACTORY_",
      "outputs": [
        {
          "internalType": "address",
          "name": "",
          "type": "address"
        }
      ],
      "stateMutability": "view",
      "type": "function"
    },
    {
      "inputs": [],
      "name": "_DODO_APPROVE_",
      "outputs": [
        {
          "internalType": "address",
          "name": "",
          "type": "address"
        }
      ],
      "stateMutability": "view",
      "type": "function"
    },
    {
      "inputs": [],
      "name": "_DODO_INCENTIVE_",
      "outputs": [
        {
          "internalType": "address",
          "name": "",
          "type": "address"
        }
      ],
      "stateMutability": "view",
      "type": "function"
    },
    {
      "inputs": [],
      "name": "_DODO_SELL_HELPER_",
      "outputs": [
        {
          "internalType": "address",
          "name": "",
          "type": "address"
        }
      ],
      "stateMutability": "view",
      "type": "function"
    },
    {
      "inputs": [],
      "name": "_DPP_FACTORY_",
      "outputs": [
        {
          "internalType": "address",
          "name": "",
          "type": "address"
        }
      ],
      "stateMutability": "view",
      "type": "function"
    },
    {
      "inputs": [],
      "name": "_DVM_FACTORY_",
      "outputs": [
        {
          "internalType": "address",
          "name": "",
          "type": "address"
        }
      ],
      "stateMutability": "view",
      "type": "function"
    },
    {
      "inputs": [],
      "name": "_GAS_DODO_MAX_RETURN_",
      "outputs": [
        {
          "internalType": "uint256",
          "name": "",
          "type": "uint256"
        }
      ],
      "stateMutability": "view",
      "type": "function"
    },
    {
      "inputs": [],
      "name": "_GAS_EXTERNAL_RETURN_",
      "outputs": [
        {
          "internalType": "uint256",
          "name": "",
          "type": "uint256"
        }
      ],
      "stateMutability": "view",
      "type": "function"
    },
    {
      "inputs": [],
      "name": "_NEW_OWNER_",
      "outputs": [
        {
          "internalType": "address",
          "name": "",
          "type": "address"
        }
      ],
      "stateMutability": "view",
      "type": "function"
    },
    {
      "inputs": [],
      "name": "_OWNER_",
      "outputs": [
        {
          "internalType": "address",
          "name": "",
          "type": "address"
        }
      ],
      "stateMutability": "view",
      "type": "function"
    },
    {
      "inputs": [],
      "name": "_WETH_",
      "outputs": [
        {
          "internalType": "address",
          "name": "",
          "type": "address"
        }
      ],
      "stateMutability": "view",
      "type": "function"
    },
    {
      "inputs": [],
      "name": "claimOwnership",
      "outputs": [],
      "stateMutability": "nonpayable",
      "type": "function"
    },
    {
      "inputs": [
        {
          "internalType": "address",
          "name": "newOwner",
          "type": "address"
        }
      ],
      "name": "initOwner",
      "outputs": [],
      "stateMutability": "nonpayable",
      "type": "function"
    },
    {
      "inputs": [
        {
          "internalType": "address",
          "name": "",
          "type": "address"
        }
      ],
      "name": "isWhiteListed",
      "outputs": [
        {
          "internalType": "bool",
          "name": "",
          "type": "bool"
        }
      ],
      "stateMutability": "view",
      "type": "function"
    },
    {
      "inputs": [
        {
          "internalType": "address",
          "name": "newOwner",
          "type": "address"
        }
      ],
      "name": "transferOwnership",
      "outputs": [],
      "stateMutability": "nonpayable",
      "type": "function"
    },
    {
      "stateMutability": "payable",
      "type": "receive"
    },
    {
      "inputs": [
        {
          "internalType": "address",
          "name": "contractAddr",
          "type": "address"
        }
      ],
      "name": "addWhiteList",
      "outputs": [],
      "stateMutability": "nonpayable",
      "type": "function"
    },
    {
      "inputs": [
        {
          "internalType": "address",
          "name": "contractAddr",
          "type": "address"
        }
      ],
      "name": "removeWhiteList",
      "outputs": [],
      "stateMutability": "nonpayable",
      "type": "function"
    },
    {
      "inputs": [
        {
          "internalType": "uint256",
          "name": "newDodoGasReturn",
          "type": "uint256"
        },
        {
          "internalType": "uint256",
          "name": "newExternalGasReturn",
          "type": "uint256"
        }
      ],
      "name": "updateGasReturn",
      "outputs": [],
      "stateMutability": "nonpayable",
      "type": "function"
    },
    {
      "inputs": [
        {
          "internalType": "address",
          "name": "baseToken",
          "type": "address"
        },
        {
          "internalType": "address",
          "name": "quoteToken",
          "type": "address"
        },
        {
          "internalType": "uint256",
          "name": "baseInAmount",
          "type": "uint256"
        },
        {
          "internalType": "uint256",
          "name": "quoteInAmount",
          "type": "uint256"
        },
        {
          "internalType": "uint256",
          "name": "lpFeeRate",
          "type": "uint256"
        },
        {
          "internalType": "uint256",
          "name": "i",
          "type": "uint256"
        },
        {
          "internalType": "uint256",
          "name": "k",
          "type": "uint256"
        },
        {
          "internalType": "bool",
          "name": "isOpenTWAP",
          "type": "bool"
        },
        {
          "internalType": "uint256",
          "name": "deadLine",
          "type": "uint256"
        }
      ],
      "name": "createDODOVendingMachine",
      "outputs": [
        {
          "internalType": "address",
          "name": "newVendingMachine",
          "type": "address"
        },
        {
          "internalType": "uint256",
          "name": "shares",
          "type": "uint256"
        }
      ],
      "stateMutability": "payable",
      "type": "function"
    },
    {
      "inputs": [
        {
          "internalType": "address",
          "name": "dvmAddress",
          "type": "address"
        },
        {
          "internalType": "uint256",
          "name": "baseInAmount",
          "type": "uint256"
        },
        {
          "internalType": "uint256",
          "name": "quoteInAmount",
          "type": "uint256"
        },
        {
          "internalType": "uint256",
          "name": "baseMinAmount",
          "type": "uint256"
        },
        {
          "internalType": "uint256",
          "name": "quoteMinAmount",
          "type": "uint256"
        },
        {
          "internalType": "uint8",
          "name": "flag",
          "type": "uint8"
        },
        {
          "internalType": "uint256",
          "name": "deadLine",
          "type": "uint256"
        }
      ],
      "name": "addDVMLiquidity",
      "outputs": [
        {
          "internalType": "uint256",
          "name": "shares",
          "type": "uint256"
        },
        {
          "internalType": "uint256",
          "name": "baseAdjustedInAmount",
          "type": "uint256"
        },
        {
          "internalType": "uint256",
          "name": "quoteAdjustedInAmount",
          "type": "uint256"
        }
      ],
      "stateMutability": "payable",
      "type": "function"
    },
    {
      "inputs": [
        {
          "internalType": "address",
          "name": "baseToken",
          "type": "address"
        },
        {
          "internalType": "address",
          "name": "quoteToken",
          "type": "address"
        },
        {
          "internalType": "uint256",
          "name": "baseInAmount",
          "type": "uint256"
        },
        {
          "internalType": "uint256",
          "name": "quoteInAmount",
          "type": "uint256"
        },
        {
          "internalType": "uint256",
          "name": "lpFeeRate",
          "type": "uint256"
        },
        {
          "internalType": "uint256",
          "name": "i",
          "type": "uint256"
        },
        {
          "internalType": "uint256",
          "name": "k",
          "type": "uint256"
        },
        {
          "internalType": "bool",
          "name": "isOpenTwap",
          "type": "bool"
        },
        {
          "internalType": "uint256",
          "name": "deadLine",
          "type": "uint256"
        }
      ],
      "name": "createDODOPrivatePool",
      "outputs": [
        {
          "internalType": "address",
          "name": "newPrivatePool",
          "type": "address"
        }
      ],
      "stateMutability": "payable",
      "type": "function"
    },
    {
      "inputs": [
        {
          "internalType": "address",
          "name": "dppAddress",
          "type": "address"
        },
        {
          "internalType": "uint256[]",
          "name": "paramList",
          "type": "uint256[]"
        },
        {
          "internalType": "uint256[]",
          "name": "amountList",
          "type": "uint256[]"
        },
        {
          "internalType": "uint8",
          "name": "flag",
          "type": "uint8"
        },
        {
          "internalType": "uint256",
          "name": "minBaseReserve",
          "type": "uint256"
        },
        {
          "internalType": "uint256",
          "name": "minQuoteReserve",
          "type": "uint256"
        },
        {
          "internalType": "uint256",
          "name": "deadLine",
          "type": "uint256"
        }
      ],
      "name": "resetDODOPrivatePool",
      "outputs": [],
      "stateMutability": "payable",
      "type": "function"
    },
    {
      "inputs": [
        {
          "internalType": "address",
          "name": "toToken",
          "type": "address"
        },
        {
          "internalType": "uint256",
          "name": "minReturnAmount",
          "type": "uint256"
        },
        {
          "internalType": "address[]",
          "name": "dodoPairs",
          "type": "address[]"
        },
        {
          "internalType": "uint256",
          "name": "directions",
          "type": "uint256"
        },
        {
          "internalType": "bool",
          "name": "isIncentive",
          "type": "bool"
        },
        {
          "internalType": "uint256",
          "name": "deadLine",
          "type": "uint256"
        }
      ],
      "name": "dodoSwapV2ETHToToken",
      "outputs": [
        {
          "internalType": "uint256",
          "name": "returnAmount",
          "type": "uint256"
        }
      ],
      "stateMutability": "payable",
      "type": "function"
    },
    {
      "inputs": [
        {
          "internalType": "address",
          "name": "fromToken",
          "type": "address"
        },
        {
          "internalType": "uint256",
          "name": "fromTokenAmount",
          "type": "uint256"
        },
        {
          "internalType": "uint256",
          "name": "minReturnAmount",
          "type": "uint256"
        },
        {
          "internalType": "address[]",
          "name": "dodoPairs",
          "type": "address[]"
        },
        {
          "internalType": "uint256",
          "name": "directions",
          "type": "uint256"
        },
        {
          "internalType": "bool",
          "name": "isIncentive",
          "type": "bool"
        },
        {
          "internalType": "uint256",
          "name": "deadLine",
          "type": "uint256"
        }
      ],
      "name": "dodoSwapV2TokenToETH",
      "outputs": [
        {
          "internalType": "uint256",
          "name": "returnAmount",
          "type": "uint256"
        }
      ],
      "stateMutability": "nonpayable",
      "type": "function"
    },
    {
      "inputs": [
        {
          "internalType": "address",
          "name": "fromToken",
          "type": "address"
        },
        {
          "internalType": "address",
          "name": "toToken",
          "type": "address"
        },
        {
          "internalType": "uint256",
          "name": "fromTokenAmount",
          "type": "uint256"
        },
        {
          "internalType": "uint256",
          "name": "minReturnAmount",
          "type": "uint256"
        },
        {
          "internalType": "address[]",
          "name": "dodoPairs",
          "type": "address[]"
        },
        {
          "internalType": "uint256",
          "name": "directions",
          "type": "uint256"
        },
        {
          "internalType": "bool",
          "name": "isIncentive",
          "type": "bool"
        },
        {
          "internalType": "uint256",
          "name": "deadLine",
          "type": "uint256"
        }
      ],
      "name": "dodoSwapV2TokenToToken",
      "outputs": [
        {
          "internalType": "uint256",
          "name": "returnAmount",
          "type": "uint256"
        }
      ],
      "stateMutability": "nonpayable",
      "type": "function"
    },
    {
      "inputs": [
        {
          "internalType": "address",
          "name": "fromToken",
          "type": "address"
        },
        {
          "internalType": "address",
          "name": "toToken",
          "type": "address"
        },
        {
          "internalType": "address",
          "name": "approveTarget",
          "type": "address"
        },
        {
          "internalType": "address",
          "name": "swapTarget",
          "type": "address"
        },
        {
          "internalType": "uint256",
          "name": "fromTokenAmount",
          "type": "uint256"
        },
        {
          "internalType": "uint256",
          "name": "minReturnAmount",
          "type": "uint256"
        },
        {
          "internalType": "bytes",
          "name": "callDataConcat",
          "type": "bytes"
        },
        {
          "internalType": "bool",
          "name": "isIncentive",
          "type": "bool"
        },
        {
          "internalType": "uint256",
          "name": "deadLine",
          "type": "uint256"
        }
      ],
      "name": "externalSwap",
      "outputs": [
        {
          "internalType": "uint256",
          "name": "returnAmount",
          "type": "uint256"
        }
      ],
      "stateMutability": "payable",
      "type": "function"
    },
    {
      "inputs": [
        {
          "internalType": "address",
          "name": "fromToken",
          "type": "address"
        },
        {
          "internalType": "address",
          "name": "toToken",
          "type": "address"
        },
        {
          "internalType": "uint256",
          "name": "fromTokenAmount",
          "type": "uint256"
        },
        {
          "internalType": "uint256",
          "name": "minReturnAmount",
          "type": "uint256"
        },
        {
          "internalType": "address[]",
          "name": "dodoPairs",
          "type": "address[]"
        },
        {
          "internalType": "uint256",
          "name": "directions",
          "type": "uint256"
        },
        {
          "internalType": "bool",
          "name": "isIncentive",
          "type": "bool"
        },
        {
          "internalType": "uint256",
          "name": "deadLine",
          "type": "uint256"
        }
      ],
      "name": "dodoSwapV1",
      "outputs": [
        {
          "internalType": "uint256",
          "name": "returnAmount",
          "type": "uint256"
        }
      ],
      "stateMutability": "payable",
      "type": "function"
    },
    {
      "inputs": [
        {
          "internalType": "address",
          "name": "fromToken",
          "type": "address"
        },
        {
          "internalType": "address",
          "name": "toToken",
          "type": "address"
        },
        {
          "internalType": "uint256",
          "name": "fromTokenAmount",
          "type": "uint256"
        },
        {
          "internalType": "uint256",
          "name": "minReturnAmount",
          "type": "uint256"
        },
        {
          "internalType": "address[]",
          "name": "mixAdapters",
          "type": "address[]"
        },
        {
          "internalType": "address[]",
          "name": "mixPairs",
          "type": "address[]"
        },
        {
          "internalType": "address[]",
          "name": "assetTo",
          "type": "address[]"
        },
        {
          "internalType": "uint256",
          "name": "directions",
          "type": "uint256"
        },
        {
          "internalType": "bool",
          "name": "isIncentive",
          "type": "bool"
        },
        {
          "internalType": "uint256",
          "name": "deadLine",
          "type": "uint256"
        }
      ],
      "name": "mixSwap",
      "outputs": [
        {
          "internalType": "uint256",
          "name": "returnAmount",
          "type": "uint256"
        }
      ],
      "stateMutability": "payable",
      "type": "function"
    },
    {
      "inputs": [
        {
          "internalType": "address",
          "name": "baseToken",
          "type": "address"
        },
        {
          "internalType": "address",
          "name": "quoteToken",
          "type": "address"
        },
        {
          "internalType": "uint256",
          "name": "baseInAmount",
          "type": "uint256"
        },
        {
          "internalType": "uint256[]",
          "name": "timeLine",
          "type": "uint256[]"
        },
        {
          "internalType": "uint256[]",
          "name": "valueList",
          "type": "uint256[]"
        },
        {
          "internalType": "bool",
          "name": "isOpenTWAP",
          "type": "bool"
        },
        {
          "internalType": "uint256",
          "name": "deadLine",
          "type": "uint256"
        }
      ],
      "name": "createCrowdPooling",
      "outputs": [
        {
          "internalType": "address payable",
          "name": "newCrowdPooling",
          "type": "address"
        }
      ],
      "stateMutability": "payable",
      "type": "function"
    },
    {
      "inputs": [
        {
          "internalType": "address",
          "name": "cpAddress",
          "type": "address"
        },
        {
          "internalType": "uint256",
          "name": "quoteAmount",
          "type": "uint256"
        },
        {
          "internalType": "uint8",
          "name": "flag",
          "type": "uint8"
        },
        {
          "internalType": "uint256",
          "name": "deadLine",
          "type": "uint256"
        }
      ],
      "name": "bid",
      "outputs": [],
      "stateMutability": "payable",
      "type": "function"
    },
    {
      "inputs": [
        {
          "internalType": "address",
          "name": "pair",
          "type": "address"
        },
        {
          "internalType": "uint256",
          "name": "baseAmount",
          "type": "uint256"
        },
        {
          "internalType": "uint256",
          "name": "quoteAmount",
          "type": "uint256"
        },
        {
          "internalType": "uint256",
          "name": "baseMinShares",
          "type": "uint256"
        },
        {
          "internalType": "uint256",
          "name": "quoteMinShares",
          "type": "uint256"
        },
        {
          "internalType": "uint8",
          "name": "flag",
          "type": "uint8"
        },
        {
          "internalType": "uint256",
          "name": "deadLine",
          "type": "uint256"
        }
      ],
      "name": "addLiquidityToV1",
      "outputs": [
        {
          "internalType": "uint256",
          "name": "baseShares",
          "type": "uint256"
        },
        {
          "internalType": "uint256",
          "name": "quoteShares",
          "type": "uint256"
        }
      ],
      "stateMutability": "payable",
      "type": "function"
    }
  ],
  "bytecode": "0x610180604052600060025560006003553480156200001c57600080fd5b5060405162005c4e38038062005c4e83398181016040526101008110156200004357600080fd5b5080516020820151604083015160608085015160808087015160a08089015160c0808b015160e09b8c01516001600160601b03199b891b8c16909c5298871b8a166101005296861b89166101205293851b8816909252831b86169052811b841690915290811b8216610160529190911b166101405260805160601c60a05160601c60c05160601c60e05160601c6101005160601c6101205160601c6101405160601c6101605160601c615a8f620001bf600039806112345280614f9d52806152be525080612e245280615077525080610fd852806110a55280614bf652508061139f528061154d5280614318525080613c995280613e535250806119aa52806142f452508061225f5280612e48528061368952806147885280614d12525080610fb452806112e5528061149552806114d95280611afe5280611b9452806125fc52806126b15280612bf05280612c86528061308f52806130f35280613d9f5280613de95280614c265280614cae52806150ec5250615a8f6000f3fe6080604052600436106101e75760003560e01c8063674d942211610102578063af1280b011610095578063e7cd4a0411610064578063e7cd4a0414610d99578063f2fde38b14610dcc578063f87dc1b714610dff578063faa980e414610ee0576101ee565b8063af1280b014610d04578063b730d15014610d19578063d6354c3e14610d2e578063db70b5c714610d5e576101ee565b80638456db15116100d15780638456db1514610bf35780638b3bb08914610c0857806399882c8f14610c895780639f68732214610cef576101ee565b8063674d942214610b1757806369dba8ee14610b8257806369e4e41714610b975780636f9170f614610bac576101ee565b80631e6d24c21161017a57806346e742981161014957806346e742981461094a5780634e71e0c81461095f5780635028bb951461097457806354bacd1314610a37576101ee565b80631e6d24c2146106535780632042e5c21461072a57806323c38fa31461075d57806341cf716014610935576101ee565b80630d9be500116101b65780630d9be500146103b35780630dd4ebd91461041157806312ff148d146104f757806316048bc41461063e576101ee565b8063018c9fda146101f0578063056fc2ee146103565780630d0092971461036b5780630d4eec8f1461039e576101ee565b366101ee57005b005b61033a600480360360e081101561020657600080fd5b6001600160a01b03823581169260208101359091169160408201359190810190608081016060820135600160201b81111561024057600080fd5b82018360208201111561025257600080fd5b803590602001918460208302840111600160201b8311171561027357600080fd5b9190808060200260200160405190810160405280939291908181526020018383602002808284376000920191909152509295949360208101935035915050600160201b8111156102c257600080fd5b8201836020820111156102d457600080fd5b803590602001918460208302840111600160201b831117156102f557600080fd5b91908080602002602001604051908101604052809392919081815260200183836020028082843760009201919091525092955050505080351515915060200135610ef5565b604080516001600160a01b039092168252519081900360200190f35b34801561036257600080fd5b5061033a611232565b34801561037757600080fd5b506101ee6004803603602081101561038e57600080fd5b50356001600160a01b0316611256565b3480156103aa57600080fd5b5061033a6112e3565b61033a60048036036101208110156103ca57600080fd5b506001600160a01b03813581169160208101359091169060408101359060608101359060808101359060a08101359060c08101359060e08101351515906101000135611307565b6104e5600480360361010081101561042857600080fd5b6001600160a01b03823581169260208101359091169160408201359160608101359181019060a081016080820135600160201b81111561046757600080fd5b82018360208201111561047957600080fd5b803590602001918460208302840111600160201b8311171561049a57600080fd5b919080806020026020016040519081016040528093929190818152602001838360200280828437600092019190915250929550508235935050506020810135151590604001356115cb565b60408051918252519081900360200190f35b6101ee600480360360e081101561050d57600080fd5b6001600160a01b038235169190810190604081016020820135600160201b81111561053757600080fd5b82018360208201111561054957600080fd5b803590602001918460208302840111600160201b8311171561056a57600080fd5b9190808060200260200160405190810160405280939291908181526020018383602002808284376000920191909152509295949360208101935035915050600160201b8111156105b957600080fd5b8201836020820111156105cb57600080fd5b803590602001918460208302840111600160201b831117156105ec57600080fd5b9190808060200260200160405190810160405280939291908181526020018383602002808284376000920191909152509295505060ff8335169350505060208101359060408101359060600135611cd7565b34801561064a57600080fd5b5061033a61217b565b34801561065f57600080fd5b506104e5600480360360e081101561067657600080fd5b6001600160a01b038235169160208101359160408201359190810190608081016060820135600160201b8111156106ac57600080fd5b8201836020820111156106be57600080fd5b803590602001918460208302840111600160201b831117156106df57600080fd5b9190808060200260200160405190810160405280939291908181526020018383602002808284376000920191909152509295505082359350505060208101351515906040013561218f565b34801561073657600080fd5b506101ee6004803603602081101561074d57600080fd5b50356001600160a01b03166127db565b6104e5600480360361014081101561077457600080fd5b6001600160a01b03823581169260208101359091169160408201359160608101359181019060a081016080820135600160201b8111156107b357600080fd5b8201836020820111156107c557600080fd5b803590602001918460208302840111600160201b831117156107e657600080fd5b9190808060200260200160405190810160405280939291908181526020018383602002808284376000920191909152509295949360208101935035915050600160201b81111561083557600080fd5b82018360208201111561084757600080fd5b803590602001918460208302840111600160201b8311171561086857600080fd5b9190808060200260200160405190810160405280939291908181526020018383602002808284376000920191909152509295949360208101935035915050600160201b8111156108b757600080fd5b8201836020820111156108c957600080fd5b803590602001918460208302840111600160201b831117156108ea57600080fd5b9190808060200260200160405190810160405280939291908181526020018383602002808284376000920191909152509295505082359350505060208101351515906040013561284c565b34801561094157600080fd5b5061033a612e22565b34801561095657600080fd5b5061033a612e46565b34801561096b57600080fd5b506101ee612e6a565b6104e5600480360360c081101561098a57600080fd5b6001600160a01b0382351691602081013591810190606081016040820135600160201b8111156109b957600080fd5b8201836020820111156109cb57600080fd5b803590602001918460208302840111600160201b831117156109ec57600080fd5b91908080602002602001604051908101604052809392919081815260200183836020028082843760009201919091525092955050823593505050602081013515159060400135612f2e565b6104e56004803603610120811015610a4e57600080fd5b6001600160a01b038235811692602081013582169260408201358316926060830135169160808101359160a0820135919081019060e0810160c0820135600160201b811115610a9c57600080fd5b820183602082011115610aae57600080fd5b803590602001918460018302840111600160201b83111715610acf57600080fd5b91908080601f01602080910402602001604051908101604052809392919081815260200183838082843760009201919091525092955050505080351515915060200135613594565b610b64600480360360e0811015610b2d57600080fd5b506001600160a01b038135169060208101359060408101359060608101359060808101359060ff60a0820135169060c0013561398b565b60408051938452602084019290925282820152519081900360600190f35b348015610b8e57600080fd5b506104e5613c91565b348015610ba357600080fd5b5061033a613c97565b348015610bb857600080fd5b50610bdf60048036036020811015610bcf57600080fd5b50356001600160a01b0316613cbb565b604080519115158252519081900360200190f35b348015610bff57600080fd5b5061033a613cd0565b610c666004803603610120811015610c1f57600080fd5b506001600160a01b03813581169160208101359091169060408101359060608101359060808101359060a08101359060c08101359060e08101351515906101000135613cdf565b604080516001600160a01b03909316835260208301919091528051918290030190f35b610cd6600480360360e0811015610c9f57600080fd5b506001600160a01b038135169060208101359060408101359060608101359060808101359060ff60a0820135169060c00135613fb1565b6040805192835260208301919091528051918290030190f35b348015610cfb57600080fd5b506104e56142ec565b348015610d1057600080fd5b5061033a6142f2565b348015610d2557600080fd5b5061033a614316565b348015610d3a57600080fd5b506101ee60048036036040811015610d5157600080fd5b508035906020013561433a565b6101ee60048036036080811015610d7457600080fd5b506001600160a01b038135169060208101359060ff6040820135169060600135614395565b348015610da557600080fd5b506101ee60048036036020811015610dbc57600080fd5b50356001600160a01b0316614511565b348015610dd857600080fd5b506101ee60048036036020811015610def57600080fd5b50356001600160a01b0316614585565b348015610e0b57600080fd5b506104e56004803603610100811015610e2357600080fd5b6001600160a01b03823581169260208101359091169160408201359160608101359181019060a081016080820135600160201b811115610e6257600080fd5b820183602082011115610e7457600080fd5b803590602001918460208302840111600160201b83111715610e9557600080fd5b91908080602002602001604051908101604052809392919081815260200183836020028082843760009201919091525092955050823593505050602081013515159060400135614635565b348015610eec57600080fd5b5061033a614bf4565b6000805460ff1615610f3a576040805162461bcd60e51b815260206004820152600960248201526814915153951490539560ba1b604482015290519081900360640190fd5b6000805460ff191660011790558142811015610f8b576040805162461bcd60e51b81526020600482015260166024820152600080516020615a3a833981519152604482015290519081900360640190fd5b8860006001600160a01b038a1660008051602061595083398151915214610fb25789610fd4565b7f00000000000000000000000000000000000000000000000000000000000000005b90507f00000000000000000000000000000000000000000000000000000000000000006001600160a01b03166389edcf146040518163ffffffff1660e01b8152600401602060405180830381600087803b15801561103157600080fd5b505af1158015611045573d6000803e3d6000fd5b505050506040513d602081101561105b57600080fd5b5051935061106d3385848c6000614c18565b6040516001600160a01b038516903480156108fc02916000818181858888f193505050501580156110a2573d6000803e3d6000fd5b507f00000000000000000000000000000000000000000000000000000000000000006001600160a01b031663ecfc2db0853385858d8d8d6040518863ffffffff1660e01b815260040180886001600160a01b03166001600160a01b03168152602001876001600160a01b03166001600160a01b03168152602001866001600160a01b03166001600160a01b03168152602001856001600160a01b03166001600160a01b03168152602001806020018060200184151515158152602001838103835286818151815260200191508051906020019060200280838360005b8381101561119657818101518382015260200161117e565b50505050905001838103825285818151815260200191508051906020019060200280838360005b838110156111d55781810151838201526020016111bd565b505050509050019950505050505050505050600060405180830381600087803b15801561120157600080fd5b505af1158015611215573d6000803e3d6000fd5b50506000805460ff1916905550939b9a5050505050505050505050565b7f000000000000000000000000000000000000000000000000000000000000000081565b600154600160a01b900460ff16156112a8576040805162461bcd60e51b815260206004820152601060248201526f1113d113d7d25392551250531256915160821b604482015290519081900360640190fd5b6001805460ff60a01b1916600160a01b179055600080546001600160a01b0390921661010002610100600160a81b0319909216919091179055565b7f000000000000000000000000000000000000000000000000000000000000000081565b6000805460ff161561134c576040805162461bcd60e51b815260206004820152600960248201526814915153951490539560ba1b604482015290519081900360640190fd5b6000805460ff19166001179055814281101561139d576040805162461bcd60e51b81526020600482015260166024820152600080516020615a3a833981519152604482015290519081900360640190fd5b7f00000000000000000000000000000000000000000000000000000000000000006001600160a01b03166309b8adb86040518163ffffffff1660e01b8152600401602060405180830381600087803b1580156113f857600080fd5b505af115801561140c573d6000803e3d6000fd5b505050506040513d602081101561142257600080fd5b505191508a8a61144e3385848e6001600160a01b03821660008051602061595083398151915214614c18565b6114743385838d6001600160a01b03821660008051602061595083398151915214614c18565b6001600160a01b03821660008051602061595083398151915214156114b7577f000000000000000000000000000000000000000000000000000000000000000091505b6001600160a01b03811660008051602061595083398151915214156114f957507f00000000000000000000000000000000000000000000000000000000000000005b6040805162caf77f60e51b81526001600160a01b03868116600483015233602483015284811660448301528381166064830152608482018c905260a482018a905260c482018b905288151560e483015291517f00000000000000000000000000000000000000000000000000000000000000009092169163195eefe0916101048082019260009290919082900301818387803b15801561159857600080fd5b505af11580156115ac573d6000803e3d6000fd5b50506000805460ff1916905550939d9c50505050505050505050505050565b60008142811015611611576040805162461bcd60e51b81526020600482015260166024820152600080516020615a3a833981519152604482015290519081900360640190fd5b6000865111611655576040805162461bcd60e51b815260206004820152601a6024820152600080516020615a1a833981519152604482015290519081900360640190fd5b600087116116945760405162461bcd60e51b81526004018080602001828103825260218152602001806159056021913960400191505060405180910390fd5b60005a90508a8a6116c13330848e6001600160a01b03821660008051602061595083398151915214614c18565b60005b8951811015611abe5760008a82815181106116db57fe5b602002602001015190508960011660001415611883576000816001600160a01b0316634a248d2a6040518163ffffffff1660e01b815260040160206040518083038186803b15801561172c57600080fd5b505afa158015611740573d6000803e3d6000fd5b505050506040513d602081101561175657600080fd5b5051604080516370a0823160e01b815230600482015290519192506000916001600160a01b038416916370a08231916024808301926020929190829003018186803b1580156117a457600080fd5b505afa1580156117b8573d6000803e3d6000fd5b505050506040513d60208110156117ce57600080fd5b505190506117ec6001600160a01b038316848363ffffffff614d7c16565b826001600160a01b0316638dae73338260006040518363ffffffff1660e01b815260040180838152602001828152602001806020018281038252600081526020016020019350505050602060405180830381600087803b15801561184f57600080fd5b505af1158015611863573d6000803e3d6000fd5b505050506040513d602081101561187957600080fd5b50611ab192505050565b6000816001600160a01b031663d4b970466040518163ffffffff1660e01b815260040160206040518083038186803b1580156118be57600080fd5b505afa1580156118d2573d6000803e3d6000fd5b505050506040513d60208110156118e857600080fd5b5051604080516370a0823160e01b815230600482015290519192506000916001600160a01b038416916370a08231916024808301926020929190829003018186803b15801561193657600080fd5b505afa15801561194a573d6000803e3d6000fd5b505050506040513d602081101561196057600080fd5b5051905061197e6001600160a01b038316848363ffffffff614d7c16565b6040805163ca19ebd960e01b81526001600160a01b0385811660048301526024820184905291516000927f0000000000000000000000000000000000000000000000000000000000000000169163ca19ebd9916044808301926020929190829003018186803b1580156119f057600080fd5b505afa158015611a04573d6000803e3d6000fd5b505050506040513d6020811015611a1a57600080fd5b50516040805163733e738360e11b815260048101839052602481018590526060604482015260006064820181905291519293506001600160a01b0387169263e67ce7069260a480840193602093929083900390910190829087803b158015611a8157600080fd5b505af1158015611a95573d6000803e3d6000fd5b505050506040513d6020811015611aab57600080fd5b50505050505b50600198891c98016116c4565b506001600160a01b0381166000805160206159508339815191521415611bf957604080516370a0823160e01b815230600482015290516001600160a01b037f000000000000000000000000000000000000000000000000000000000000000016916370a08231916024808301926020929190829003018186803b158015611b4457600080fd5b505afa158015611b58573d6000803e3d6000fd5b505050506040513d6020811015611b6e57600080fd5b505160408051632e1a7d4d60e01b81526004810183905290519196506001600160a01b037f00000000000000000000000000000000000000000000000000000000000000001691632e1a7d4d9160248082019260009290919082900301818387803b158015611bdc57600080fd5b505af1158015611bf0573d6000803e3d6000fd5b50505050611c15565b611c126001600160a01b0382163063ffffffff614e4616565b94505b89851015611c545760405162461bcd60e51b815260040180806020018281038252602a815260200180615926602a913960400191505060405180910390fd5b611c6e6001600160a01b038216338763ffffffff614ed316565b611c7783614f42565b611c82878383615034565b604080516001600160a01b038085168252831660208201523381830152606081018d90526080810187905290516000805160206158c08339815191529181900360a00190a15050505098975050505050505050565b60005460ff1615611d1b576040805162461bcd60e51b815260206004820152600960248201526814915153951490539560ba1b604482015290519081900360640190fd5b6000805460ff191660011790558042811015611d6c576040805162461bcd60e51b81526020600482015260166024820152600080516020615a3a833981519152604482015290519081900360640190fd5b611df733898a6001600160a01b0316634a248d2a6040518163ffffffff1660e01b815260040160206040518083038186803b158015611daa57600080fd5b505afa158015611dbe573d6000803e3d6000fd5b505050506040513d6020811015611dd457600080fd5b505189518a90600090611de357fe5b60200260200101518960ff16600114614c18565b611e8433898a6001600160a01b031663d4b970466040518163ffffffff1660e01b815260040160206040518083038186803b158015611e3557600080fd5b505afa158015611e49573d6000803e3d6000fd5b505050506040513d6020811015611e5f57600080fd5b505189518a906001908110611e7057fe5b60200260200101518960ff16600214614c18565b876001600160a01b03166316048bc46040518163ffffffff1660e01b8152600401602060405180830381600087803b158015611ebf57600080fd5b505af1158015611ed3573d6000803e3d6000fd5b505050506040513d6020811015611ee957600080fd5b505187516001600160a01b0390911690638ff3928c9033908a90600090611f0c57fe5b60200260200101518a600181518110611f2157fe5b60200260200101518b600281518110611f3657fe5b60200260200101518b600281518110611f4b57fe5b60200260200101518c600381518110611f6057fe5b60200260200101518b8b6040518963ffffffff1660e01b815260040180896001600160a01b03166001600160a01b0316815260200188815260200187815260200186815260200185815260200184815260200183815260200182815260200198505050505050505050602060405180830381600087803b158015611fe357600080fd5b505af1158015611ff7573d6000803e3d6000fd5b505050506040513d602081101561200d57600080fd5b505161204f576040805162461bcd60e51b815260206004820152600c60248201526b14995cd95d0811985a5b195960a21b604482015290519081900360640190fd5b6120db33896001600160a01b0316634a248d2a6040518163ffffffff1660e01b815260040160206040518083038186803b15801561208c57600080fd5b505afa1580156120a0573d6000803e3d6000fd5b505050506040513d60208110156120b657600080fd5b50518851899060029081106120c757fe5b60200260200101518860ff166003146150de565b61216733896001600160a01b031663d4b970466040518163ffffffff1660e01b815260040160206040518083038186803b15801561211857600080fd5b505afa15801561212c573d6000803e3d6000fd5b505050506040513d602081101561214257600080fd5b505188518990600390811061215357fe5b60200260200101518860ff166004146150de565b50506000805460ff19169055505050505050565b60005461010090046001600160a01b031681565b600081428110156121d5576040805162461bcd60e51b81526020600482015260166024820152600080516020615a3a833981519152604482015290519081900360640190fd5b6000865111612219576040805162461bcd60e51b815260206004820152601a6024820152600080516020615a1a833981519152604482015290519081900360640190fd5b600087116122585760405162461bcd60e51b81526004018080602001828103825260218152602001806159056021913960400191505060405180910390fd5b60005a90507f00000000000000000000000000000000000000000000000000000000000000006001600160a01b0316630a5ea4668b338a60008151811061229b57fe5b60200260200101518d6040518563ffffffff1660e01b815260040180856001600160a01b03166001600160a01b03168152602001846001600160a01b03166001600160a01b03168152602001836001600160a01b03166001600160a01b03168152602001828152602001945050505050600060405180830381600087803b15801561232557600080fd5b505af1158015612339573d6000803e3d6000fd5b506000925050505b87518110156125db57600188510381141561249857600187166123fb5787818151811061236a57fe5b60200260200101516001600160a01b031663bd6015b4306040518263ffffffff1660e01b815260040180826001600160a01b03166001600160a01b03168152602001915050602060405180830381600087803b1580156123c957600080fd5b505af11580156123dd573d6000803e3d6000fd5b505050506040513d60208110156123f357600080fd5b506124939050565b87818151811061240757fe5b60200260200101516001600160a01b031663dd93f59a306040518263ffffffff1660e01b815260040180826001600160a01b03166001600160a01b03168152602001915050602060405180830381600087803b15801561246657600080fd5b505af115801561247a573d6000803e3d6000fd5b505050506040513d602081101561249057600080fd5b50505b6125cf565b60018716612521578781815181106124ac57fe5b60200260200101516001600160a01b031663bd6015b48983600101815181106124d157fe5b60200260200101516040518263ffffffff1660e01b815260040180826001600160a01b03166001600160a01b03168152602001915050602060405180830381600087803b15801561246657600080fd5b87818151811061252d57fe5b60200260200101516001600160a01b031663dd93f59a89836001018151811061255257fe5b60200260200101516040518263ffffffff1660e01b815260040180826001600160a01b03166001600160a01b03168152602001915050602060405180830381600087803b1580156125a257600080fd5b505af11580156125b6573d6000803e3d6000fd5b505050506040513d60208110156125cc57600080fd5b50505b600196871c9601612341565b50604080516370a0823160e01b815230600482015290516001600160a01b037f000000000000000000000000000000000000000000000000000000000000000016916370a08231916024808301926020929190829003018186803b15801561264257600080fd5b505afa158015612656573d6000803e3d6000fd5b505050506040513d602081101561266c57600080fd5b50519250878310156126af5760405162461bcd60e51b815260040180806020018281038252602a815260200180615926602a913960400191505060405180910390fd5b7f00000000000000000000000000000000000000000000000000000000000000006001600160a01b0316632e1a7d4d846040518263ffffffff1660e01b815260040180828152602001915050600060405180830381600087803b15801561271557600080fd5b505af1158015612729573d6000803e3d6000fd5b505060405133925085156108fc02915085906000818181858888f1935050505015801561275a573d6000803e3d6000fd5b5061276481614f42565b61277d858b600080516020615950833981519152615034565b604080516001600160a01b038c16815260008051602061595083398151915260208201523381830152606081018b90526080810185905290516000805160206158c08339815191529181900360a00190a15050979650505050505050565b60005461010090046001600160a01b0316331461282b576040805162461bcd60e51b81526020600482015260096024820152682727aa2fa7aba722a960b91b604482015290519081900360640190fd5b6001600160a01b03166000908152600460205260409020805460ff19169055565b60008142811015612892576040805162461bcd60e51b81526020600482015260166024820152600080516020615a3a833981519152604482015290519081900360640190fd5b60008751116128d6576040805162461bcd60e51b815260206004820152601a6024820152600080516020615a1a833981519152604482015290519081900360640190fd5b87518751146129165760405162461bcd60e51b81526004018080602001828103825260258152602001806158e06025913960400191505060405180910390fd5b60018651038751146129595760405162461bcd60e51b81526004018080602001828103825260258152602001806159706025913960400191505060405180910390fd5b600089116129985760405162461bcd60e51b81526004018080602001828103825260218152602001806159056021913960400191505060405180910390fd5b60006129b36001600160a01b038d163363ffffffff6151b016565b905060008d90506129fd33896000815181106129cb57fe5b6020026020010151838f6000805160206159508339815191526001600160a01b0316866001600160a01b031614614c18565b5060005b8851811015612bb05760018716612add57898181518110612a1e57fe5b60200260200101516001600160a01b03166381584695898360010181518110612a4357fe5b60200260200101518b8481518110612a5757fe5b60200260200101516040518363ffffffff1660e01b815260040180836001600160a01b03166001600160a01b03168152602001826001600160a01b03166001600160a01b0316815260200192505050600060405180830381600087803b158015612ac057600080fd5b505af1158015612ad4573d6000803e3d6000fd5b50505050612ba4565b898181518110612ae957fe5b60200260200101516001600160a01b0316637c9a7c97898360010181518110612b0e57fe5b60200260200101518b8481518110612b2257fe5b60200260200101516040518363ffffffff1660e01b815260040180836001600160a01b03166001600160a01b03168152602001826001600160a01b03166001600160a01b0316815260200192505050600060405180830381600087803b158015612b8b57600080fd5b505af1158015612b9f573d6000803e3d6000fd5b505050505b600196871c9601612a01565b506001600160a01b038c166000805160206159508339815191521415612d1957604080516370a0823160e01b815230600482015290516001600160a01b037f000000000000000000000000000000000000000000000000000000000000000016916370a08231916024808301926020929190829003018186803b158015612c3657600080fd5b505afa158015612c4a573d6000803e3d6000fd5b505050506040513d6020811015612c6057600080fd5b505160408051632e1a7d4d60e01b81526004810183905290519194506001600160a01b037f00000000000000000000000000000000000000000000000000000000000000001691632e1a7d4d9160248082019260009290919082900301818387803b158015612cce57600080fd5b505af1158015612ce2573d6000803e3d6000fd5b505060405133925085156108fc02915085906000818181858888f19350505050158015612d13573d6000803e3d6000fd5b50612d45565b612d4281612d366001600160a01b038f163363ffffffff614e4616565b9063ffffffff61525a16565b92505b89831015612d845760405162461bcd60e51b815260040180806020018281038252602a815260200180615926602a913960400191505060405180910390fd5b612d8c6152a3565b612d97858e8e615034565b6000805160206158c08339815191528d8d338e8760405180866001600160a01b03166001600160a01b03168152602001856001600160a01b03166001600160a01b03168152602001846001600160a01b03166001600160a01b031681526020018381526020018281526020019550505050505060405180910390a150509a9950505050505050505050565b7f000000000000000000000000000000000000000000000000000000000000000081565b7f000000000000000000000000000000000000000000000000000000000000000081565b6001546001600160a01b03163314612eb9576040805162461bcd60e51b815260206004820152600d60248201526c494e56414c49445f434c41494d60981b604482015290519081900360640190fd5b600154600080546040516001600160a01b0393841693610100909204909116917f8be0079c531659141344cd1fd0a4f28419497f9722a3daafe3b4186f6b6457e091a36001805460008054610100600160a81b0319166101006001600160a01b038416021790556001600160a01b0319169055565b60008142811015612f74576040805162461bcd60e51b81526020600482015260166024820152600080516020615a3a833981519152604482015290519081900360640190fd5b6000865111612fb8576040805162461bcd60e51b815260206004820152601a6024820152600080516020615a1a833981519152604482015290519081900360640190fd5b60008711612ff75760405162461bcd60e51b81526004018080602001828103825260218152602001806159056021913960400191505060405180910390fd5b60005a604080516370a0823160e01b815233600482015290519192506000916001600160a01b038c16916370a08231916024808301926020929190829003018186803b15801561304657600080fd5b505afa15801561305a573d6000803e3d6000fd5b505050506040513d602081101561307057600080fd5b505160408051630d0e30db60e41b815290519192506001600160a01b037f0000000000000000000000000000000000000000000000000000000000000000169163d0e30db0913491600480830192600092919082900301818588803b1580156130d857600080fd5b505af11580156130ec573d6000803e3d6000fd5b50505050507f00000000000000000000000000000000000000000000000000000000000000006001600160a01b031663a9059cbb8960008151811061312d57fe5b6020026020010151346040518363ffffffff1660e01b815260040180836001600160a01b03166001600160a01b0316815260200182815260200192505050602060405180830381600087803b15801561318557600080fd5b505af1158015613199573d6000803e3d6000fd5b505050506040513d60208110156131af57600080fd5b50600090505b885181101561344f57600189510381141561330c576001881661326f578881815181106131de57fe5b60200260200101516001600160a01b031663bd6015b4336040518263ffffffff1660e01b815260040180826001600160a01b03166001600160a01b03168152602001915050602060405180830381600087803b15801561323d57600080fd5b505af1158015613251573d6000803e3d6000fd5b505050506040513d602081101561326757600080fd5b506133079050565b88818151811061327b57fe5b60200260200101516001600160a01b031663dd93f59a336040518263ffffffff1660e01b815260040180826001600160a01b03166001600160a01b03168152602001915050602060405180830381600087803b1580156132da57600080fd5b505af11580156132ee573d6000803e3d6000fd5b505050506040513d602081101561330457600080fd5b50505b613443565b600188166133955788818151811061332057fe5b60200260200101516001600160a01b031663bd6015b48a836001018151811061334557fe5b60200260200101516040518263ffffffff1660e01b815260040180826001600160a01b03166001600160a01b03168152602001915050602060405180830381600087803b1580156132da57600080fd5b8881815181106133a157fe5b60200260200101516001600160a01b031663dd93f59a8a83600101815181106133c657fe5b60200260200101516040518263ffffffff1660e01b815260040180826001600160a01b03166001600160a01b03168152602001915050602060405180830381600087803b15801561341657600080fd5b505af115801561342a573d6000803e3d6000fd5b505050506040513d602081101561344057600080fd5b50505b600197881c97016131b5565b50604080516370a0823160e01b815233600482015290516134d49183916001600160a01b038e16916370a08231916024808301926020929190829003018186803b15801561349c57600080fd5b505afa1580156134b0573d6000803e3d6000fd5b505050506040513d60208110156134c657600080fd5b50519063ffffffff61525a16565b9350888410156135155760405162461bcd60e51b815260040180806020018281038252602a815260200180615926602a913960400191505060405180910390fd5b61351e82614f42565b613537866000805160206159508339815191528c615034565b6040805160008051602061595083398151915281526001600160a01b038c16602082015233818301523460608201526080810186905290516000805160206158c08339815191529181900360a00190a15050509695505050505050565b600081428110156135da576040805162461bcd60e51b81526020600482015260166024820152600080516020615a3a833981519152604482015290519081900360640190fd5b600086116136195760405162461bcd60e51b81526004018080602001828103825260218152602001806159056021913960400191505060405180910390fd5b60006136346001600160a01b038c163363ffffffff6151b016565b90506001600160a01b038c1660008051602061595083398151915214613700576040805163052f523360e11b81526001600160a01b038e81166004830152336024830152306044830152606482018b905291517f000000000000000000000000000000000000000000000000000000000000000090921691630a5ea4669160848082019260009290919082900301818387803b1580156136d357600080fd5b505af11580156136e7573d6000803e3d6000fd5b50613700925050506001600160a01b038d168b8a614d7c565b6001600160a01b03891660009081526004602052604090205460ff166137575760405162461bcd60e51b81526004018080602001828103825260258152602001806159956025913960400191505060405180910390fd5b60006001600160a01b03808b16908e1660008051602061595083398151915214613782576000613784565b345b886040518082805190602001908083835b602083106137b45780518252601f199092019160209182019101613795565b6001836020036101000a03801982511681845116808217855250505050505090500191505060006040518083038185875af1925050503d8060008114613816576040519150601f19603f3d011682016040523d82523d6000602084013e61381b565b606091505b505090508061385b5760405162461bcd60e51b815260040180806020018281038252602d815260200180615893602d913960400191505060405180910390fd5b61388f336138786001600160a01b038f163063ffffffff6151b016565b6001600160a01b038f16919063ffffffff614ed316565b6138ac82612d366001600160a01b038f163363ffffffff6151b016565b9350878410156138ed5760405162461bcd60e51b815260040180806020018281038252602a815260200180615926602a913960400191505060405180910390fd5b6138f56152a3565b613900868e8e615034565b6000805160206158c08339815191528d8d338c8860405180866001600160a01b03166001600160a01b03168152602001856001600160a01b03166001600160a01b03168152602001846001600160a01b03166001600160a01b031681526020018381526020018281526020019550505050505060405180910390a15050509998505050505050505050565b600080548190819060ff16156139d4576040805162461bcd60e51b815260206004820152600960248201526814915153951490539560ba1b604482015290519081900360640190fd5b6000805460ff191660011790558342811015613a25576040805162461bcd60e51b81526020600482015260166024820152600080516020615a3a833981519152604482015290519081900360640190fd5b8a613a31818c8c61534f565b9094509250888410801590613a465750878310155b613a815760405162461bcd60e51b815260040180806020018281038252602b815260200180615841602b913960400191505060405180910390fd5b613af83382836001600160a01b0316634a248d2a6040518163ffffffff1660e01b815260040160206040518083038186803b158015613abf57600080fd5b505afa158015613ad3573d6000803e3d6000fd5b505050506040513d6020811015613ae957600080fd5b505187600160ff8d1614614c18565b613b6f3382836001600160a01b031663d4b970466040518163ffffffff1660e01b815260040160206040518083038186803b158015613b3657600080fd5b505afa158015613b4a573d6000803e3d6000fd5b505050506040513d6020811015613b6057600080fd5b505186600260ff8d1614614c18565b60408051634c85b42560e01b815233600482015290516001600160a01b03831691634c85b4259160248083019260609291908290030181600087803b158015613bb757600080fd5b505af1158015613bcb573d6000803e3d6000fd5b505050506040513d6060811015613be157600080fd5b50519450600160ff8816148015613bf757508334115b15613c2d5760405133903486900380156108fc02916000818181858888f19350505050158015613c2b573d6000803e3d6000fd5b505b8660ff166002148015613c3f57508234115b15613c755760405133903485900380156108fc02916000818181858888f19350505050158015613c73573d6000803e3d6000fd5b505b50506000805460ff191690559199909850909650945050505050565b60035481565b7f000000000000000000000000000000000000000000000000000000000000000081565b60046020526000908152604090205460ff1681565b6001546001600160a01b031681565b60008054819060ff1615613d26576040805162461bcd60e51b815260206004820152600960248201526814915153951490539560ba1b604482015290519081900360640190fd5b6000805460ff191660011790558242811015613d77576040805162461bcd60e51b81526020600482015260166024820152600080516020615a3a833981519152604482015290519081900360640190fd5b60006001600160a01b038d1660008051602061595083398151915214613d9d578c613dbf565b7f00000000000000000000000000000000000000000000000000000000000000005b905060006001600160a01b038d1660008051602061595083398151915214613de7578c613e09565b7f00000000000000000000000000000000000000000000000000000000000000005b6040805163e18c40c760e01b81526001600160a01b0385811660048301528381166024830152604482018e9052606482018d9052608482018c90528a151560a483015291519293507f00000000000000000000000000000000000000000000000000000000000000009091169163e18c40c79160c4808201926020929091908290030181600087803b158015613e9e57600080fd5b505af1158015613eb2573d6000803e3d6000fd5b505050506040513d6020811015613ec857600080fd5b505194508d91508c9050613ef83386848f6001600160a01b03821660008051602061595083398151915214614c18565b613f1e3386838e6001600160a01b03821660008051602061595083398151915214614c18565b505060408051634c85b42560e01b815233600482015290516001600160a01b03851691634c85b4259160248083019260609291908290030181600087803b158015613f6857600080fd5b505af1158015613f7c573d6000803e3d6000fd5b505050506040513d6060811015613f9257600080fd5b50516000805460ff19169055929c929b50919950505050505050505050565b60008054819060ff1615613ff8576040805162461bcd60e51b815260206004820152600960248201526814915153951490539560ba1b604482015290519081900360640190fd5b6000805460ff191660011790558242811015614049576040805162461bcd60e51b81526020600482015260166024820152600080516020615a3a833981519152604482015290519081900360640190fd5b60008a6001600160a01b0316634a248d2a6040518163ffffffff1660e01b815260040160206040518083038186803b15801561408457600080fd5b505afa158015614098573d6000803e3d6000fd5b505050506040513d60208110156140ae57600080fd5b505160408051636a5cb82360e11b815290519192506000916001600160a01b038e169163d4b97046916004808301926020929190829003018186803b1580156140f657600080fd5b505afa15801561410a573d6000803e3d6000fd5b505050506040513d602081101561412057600080fd5b505190506141373330848e600160ff8d1614614c18565b61414a3330838d8b60ff16600214614c18565b8a156141e85761416a6001600160a01b0383168d8d63ffffffff614d7c16565b6040805163aa06ce9b60e01b8152336004820152602481018d905290516001600160a01b038e169163aa06ce9b9160448083019260209291908290030181600087803b1580156141b957600080fd5b505af11580156141cd573d6000803e3d6000fd5b505050506040513d60208110156141e357600080fd5b505194505b8915614286576142086001600160a01b0382168d8c63ffffffff614d7c16565b604080516317c5e7d960e21b8152336004820152602481018c905290516001600160a01b038e1691635f179f649160448083019260209291908290030181600087803b15801561425757600080fd5b505af115801561426b573d6000803e3d6000fd5b505050506040513d602081101561428157600080fd5b505193505b8885101580156142965750878410155b6142d15760405162461bcd60e51b815260040180806020018281038252602781526020018061586c6027913960400191505060405180910390fd5b50506000805460ff1916905550909890975095505050505050565b60025481565b7f000000000000000000000000000000000000000000000000000000000000000081565b7f000000000000000000000000000000000000000000000000000000000000000081565b60005461010090046001600160a01b0316331461438a576040805162461bcd60e51b81526020600482015260096024820152682727aa2fa7aba722a960b91b604482015290519081900360640190fd5b600291909155600355565b60005460ff16156143d9576040805162461bcd60e51b815260206004820152600960248201526814915153951490539560ba1b604482015290519081900360640190fd5b6000805460ff19166001179055804281101561442a576040805162461bcd60e51b81526020600482015260166024820152600080516020615a3a833981519152604482015290519081900360640190fd5b6144a13386876001600160a01b031663d4b970466040518163ffffffff1660e01b815260040160206040518083038186803b15801561446857600080fd5b505afa15801561447c573d6000803e3d6000fd5b505050506040513d602081101561449257600080fd5b505187600160ff891614614c18565b60408051639cf5453d60e01b815233600482015290516001600160a01b03871691639cf5453d91602480830192600092919082900301818387803b1580156144e857600080fd5b505af11580156144fc573d6000803e3d6000fd5b50506000805460ff1916905550505050505050565b60005461010090046001600160a01b03163314614561576040805162461bcd60e51b81526020600482015260096024820152682727aa2fa7aba722a960b91b604482015290519081900360640190fd5b6001600160a01b03166000908152600460205260409020805460ff19166001179055565b60005461010090046001600160a01b031633146145d5576040805162461bcd60e51b81526020600482015260096024820152682727aa2fa7aba722a960b91b604482015290519081900360640190fd5b600080546040516001600160a01b038085169361010090930416917fdcf55418cee3220104fef63f979ff3c4097ad240c0c43dcb33ce837748983e6291a3600180546001600160a01b0319166001600160a01b0392909216919091179055565b6000814281101561467b576040805162461bcd60e51b81526020600482015260166024820152600080516020615a3a833981519152604482015290519081900360640190fd5b60008651116146bf576040805162461bcd60e51b815260206004820152601a6024820152600080516020615a1a833981519152604482015290519081900360640190fd5b600087116146fe5760405162461bcd60e51b81526004018080602001828103825260218152602001806159056021913960400191505060405180910390fd5b60005a604080516370a0823160e01b815233600482015290519192506000916001600160a01b038d16916370a08231916024808301926020929190829003018186803b15801561474d57600080fd5b505afa158015614761573d6000803e3d6000fd5b505050506040513d602081101561477757600080fd5b505188519091506001600160a01b037f00000000000000000000000000000000000000000000000000000000000000001690630a5ea466908e9033908c906000906147be57fe5b60200260200101518e6040518563ffffffff1660e01b815260040180856001600160a01b03166001600160a01b03168152602001846001600160a01b03166001600160a01b03168152602001836001600160a01b03166001600160a01b03168152602001828152602001945050505050600060405180830381600087803b15801561484857600080fd5b505af115801561485c573d6000803e3d6000fd5b506000925050505b8851811015614afe5760018951038114156149bb576001881661491e5788818151811061488d57fe5b60200260200101516001600160a01b031663bd6015b4336040518263ffffffff1660e01b815260040180826001600160a01b03166001600160a01b03168152602001915050602060405180830381600087803b1580156148ec57600080fd5b505af1158015614900573d6000803e3d6000fd5b505050506040513d602081101561491657600080fd5b506149b69050565b88818151811061492a57fe5b60200260200101516001600160a01b031663dd93f59a336040518263ffffffff1660e01b815260040180826001600160a01b03166001600160a01b03168152602001915050602060405180830381600087803b15801561498957600080fd5b505af115801561499d573d6000803e3d6000fd5b505050506040513d60208110156149b357600080fd5b50505b614af2565b60018816614a44578881815181106149cf57fe5b60200260200101516001600160a01b031663bd6015b48a83600101815181106149f457fe5b60200260200101516040518263ffffffff1660e01b815260040180826001600160a01b03166001600160a01b03168152602001915050602060405180830381600087803b15801561498957600080fd5b888181518110614a5057fe5b60200260200101516001600160a01b031663dd93f59a8a8360010181518110614a7557fe5b60200260200101516040518263ffffffff1660e01b815260040180826001600160a01b03166001600160a01b03168152602001915050602060405180830381600087803b158015614ac557600080fd5b505af1158015614ad9573d6000803e3d6000fd5b505050506040513d6020811015614aef57600080fd5b50505b600197881c9701614864565b50604080516370a0823160e01b81523360048201529051614b4b9183916001600160a01b038f16916370a08231916024808301926020929190829003018186803b15801561349c57600080fd5b935088841015614b8c5760405162461bcd60e51b815260040180806020018281038252602a815260200180615926602a913960400191505060405180910390fd5b614b9582614f42565b614ba0868d8d615034565b604080516001600160a01b03808f1682528d1660208201523381830152606081018c90526080810186905290516000805160206158c08339815191529181900360a00190a150505098975050505050505050565b7f000000000000000000000000000000000000000000000000000000000000000081565b8015614cd9578115614cd4577f00000000000000000000000000000000000000000000000000000000000000006001600160a01b031663d0e30db0836040518263ffffffff1660e01b81526004016000604051808303818588803b158015614c7f57600080fd5b505af1158015614c93573d6000803e3d6000fd5b505050506001600160a01b03851630149050614cd457614cd47f00000000000000000000000000000000000000000000000000000000000000008584615461565b614d75565b6040805163052f523360e11b81526001600160a01b038581166004830152878116602483015286811660448301526064820185905291517f000000000000000000000000000000000000000000000000000000000000000090921691630a5ea4669160848082019260009290919082900301818387803b158015614d5c57600080fd5b505af1158015614d70573d6000803e3d6000fd5b505050505b5050505050565b60408051636eb1769f60e11b81523060048201526001600160a01b038481166024830152915160009286169163dd62ed3e916044808301926020929190829003018186803b158015614dcd57600080fd5b505afa158015614de1573d6000803e3d6000fd5b505050506040513d6020811015614df757600080fd5b5051905081811015614e40578015614e2457614e246001600160a01b03851684600063ffffffff6154b316565b614e406001600160a01b0385168460001963ffffffff6154b316565b50505050565b6000826001600160a01b03166370a08231836040518263ffffffff1660e01b815260040180826001600160a01b03166001600160a01b0316815260200191505060206040518083038186803b158015614e9e57600080fd5b505afa158015614eb2573d6000803e3d6000fd5b505050506040513d6020811015614ec857600080fd5b505190505b92915050565b8015614f3d57614ee2836155c6565b15614f23576040516001600160a01b0383169082156108fc029083906000818181858888f19350505050158015614f1d573d6000803e3d6000fd5b50614f3d565b614f3d6001600160a01b038416838363ffffffff61546116565b505050565b600254801561503057600061fde8614f615a859063ffffffff61525a16565b81614f6857fe5b0490506000828211614f7a5781614f7c565b825b905060038110158015614f965750806117c002616c3e015a115b15614e40577f00000000000000000000000000000000000000000000000000000000000000006001600160a01b0316636366b936826040518263ffffffff1660e01b815260040180828152602001915050602060405180830381600087803b15801561500157600080fd5b505af1158015615015573d6000803e3d6000fd5b505050506040513d602081101561502b57600080fd5b505050505b5050565b82801561504257506175305a115b15614f3d5760408051630622aa5960e21b81526001600160a01b038481166004830152838116602483015233604483015291517f00000000000000000000000000000000000000000000000000000000000000009092169163188aa9649160648082019260009290919082900301818387803b1580156150c157600080fd5b505af11580156150d5573d6000803e3d6000fd5b50505050505050565b80156151a55781156151a0577f00000000000000000000000000000000000000000000000000000000000000006001600160a01b0316632e1a7d4d836040518263ffffffff1660e01b815260040180828152602001915050600060405180830381600087803b15801561515057600080fd5b505af1158015615164573d6000803e3d6000fd5b50506040516001600160a01b038716925084156108fc02915084906000818181858888f1935050505015801561519e573d6000803e3d6000fd5b505b614e40565b614e40838584615461565b60006151bb836155c6565b156151d157506001600160a01b03811631614ecd565b826001600160a01b03166370a08231836040518263ffffffff1660e01b815260040180826001600160a01b03166001600160a01b0316815260200191505060206040518083038186803b15801561522757600080fd5b505afa15801561523b573d6000803e3d6000fd5b505050506040513d602081101561525157600080fd5b50519050614ecd565b60008282111561529d576040805162461bcd60e51b815260206004820152600960248201526829aaa12fa2a92927a960b91b604482015290519081900360640190fd5b50900390565b600354801561534c57806117c002616c3e015a111561534c577f00000000000000000000000000000000000000000000000000000000000000006001600160a01b0316636366b936826040518263ffffffff1660e01b815260040180828152602001915050602060405180830381600087803b15801561532257600080fd5b505af1158015615336573d6000803e3d6000fd5b505050506040513d6020811015614f3d57600080fd5b50565b600080600080866001600160a01b03166336223ce96040518163ffffffff1660e01b8152600401604080518083038186803b15801561538d57600080fd5b505afa1580156153a1573d6000803e3d6000fd5b505050506040513d60408110156153b757600080fd5b5080516020909101519092509050801580156153d1575081155b156153dd578593508492505b801580156153eb5750600082115b156153f857859350600092505b6000811180156154085750600082115b1561545757600061541987846155e5565b9050600061542787846155e5565b90508082116154445787955061543d8383615616565b9450615454565b8694506154518482615616565b95505b50505b5050935093915050565b604080516001600160a01b038416602482015260448082018490528251808303909101815260649091019091526020810180516001600160e01b031663a9059cbb60e01b179052614f3d908490615640565b801580615539575060408051636eb1769f60e11b81523060048201526001600160a01b03848116602483015291519185169163dd62ed3e91604480820192602092909190829003018186803b15801561550b57600080fd5b505afa15801561551f573d6000803e3d6000fd5b505050506040513d602081101561553557600080fd5b5051155b6155745760405162461bcd60e51b81526004018080602001828103825260368152602001806159e46036913960400191505060405180910390fd5b604080516001600160a01b038416602482015260448082018490528251808303909101815260649091019091526020810180516001600160e01b031663095ea7b360e01b179052614f3d908490615640565b6001600160a01b03811660008051602061595083398151915214919050565b600061560f8261560385670de0b6b3a764000063ffffffff61579516565b9063ffffffff6157f016565b9392505050565b6000670de0b6b3a7640000615631848463ffffffff61579516565b8161563857fe5b049392505050565b60006060836001600160a01b0316836040518082805190602001908083835b6020831061567e5780518252601f19909201916020918201910161565f565b6001836020036101000a0380198251168184511680821785525050505050509050019150506000604051808303816000865af19150503d80600081146156e0576040519150601f19603f3d011682016040523d82523d6000602084013e6156e5565b606091505b50915091508161573c576040805162461bcd60e51b815260206004820181905260248201527f5361666545524332303a206c6f772d6c6576656c2063616c6c206661696c6564604482015290519081900360640190fd5b805115614e405780806020019051602081101561575857600080fd5b5051614e405760405162461bcd60e51b815260040180806020018281038252602a8152602001806159ba602a913960400191505060405180910390fd5b6000826157a457506000614ecd565b828202828482816157b157fe5b041461560f576040805162461bcd60e51b815260206004820152600960248201526826aaa62fa2a92927a960b91b604482015290519081900360640190fd5b6000808211615837576040805162461bcd60e51b815260206004820152600e60248201526d2224ab24a224a723afa2a92927a960911b604482015290519081900360640190fd5b81838161563857fefe444f444f563250726f787930313a206465706f73697420616d6f756e74206973206e6f7420656e6f756768444f444f563250726f787930313a2052657475726e20444c50206973206e6f7420656e6f756768444f444f563250726f787930313a2045787465726e616c205377617020657865637574696f6e204661696c656492ceb067a9883c85aba061e46b9edf505a0d6e81927c4b966ebed543a5221787444f444f563250726f787930313a20504149525f414441505445525f4e4f545f4d41544348444f444f563250726f787930313a2052455455524e5f414d4f554e545f5a45524f444f444f563250726f787930313a2052657475726e20616d6f756e74206973206e6f7420656e6f756768000000000000000000000000eeeeeeeeeeeeeeeeeeeeeeeeeeeeeeeeeeeeeeee444f444f563250726f787930313a20504149525f4153534554544f5f4e4f545f4d41544348444f444f563250726f787930313a204e6f742057686974656c69737420436f6e74726163745361666545524332303a204552433230206f7065726174696f6e20646964206e6f7420737563636565645361666545524332303a20617070726f76652066726f6d206e6f6e2d7a65726f20746f206e6f6e2d7a65726f20616c6c6f77616e6365444f444f563250726f787930313a2050414952535f454d505459000000000000444f444f563250726f787930313a204558504952454400000000000000000000a26469706673582212202e66bafa92d614161a293a3a6ae78d6ec05e342d245a6ea48f3a31dbd68e81ab64736f6c63430006090033",
  "immutableReferences": {
    "12273": [
      {
        "length": 32,
        "start": 4020
      },
      {
        "length": 32,
        "start": 4837
      },
      {
        "length": 32,
        "start": 5269
      },
      {
        "length": 32,
        "start": 5337
      },
      {
        "length": 32,
        "start": 6910
      },
      {
        "length": 32,
        "start": 7060
      },
      {
        "length": 32,
        "start": 9724
      },
      {
        "length": 32,
        "start": 9905
      },
      {
        "length": 32,
        "start": 11248
      },
      {
        "length": 32,
        "start": 11398
      },
      {
        "length": 32,
        "start": 12431
      },
      {
        "length": 32,
        "start": 12531
      },
      {
        "length": 32,
        "start": 15775
      },
      {
        "length": 32,
        "start": 15849
      },
      {
        "length": 32,
        "start": 19494
      },
      {
        "length": 32,
        "start": 19630
      },
      {
        "length": 32,
        "start": 20716
      }
    ],
    "12275": [
      {
        "length": 32,
        "start": 8799
      },
      {
        "length": 32,
        "start": 11848
      },
      {
        "length": 32,
        "start": 13961
      },
      {
        "length": 32,
        "start": 18312
      },
      {
        "length": 32,
        "start": 19730
      }
    ],
    "12277": [
      {
        "length": 32,
        "start": 6570
      },
      {
        "length": 32,
        "start": 17140
      }
    ],
    "12279": [
      {
        "length": 32,
        "start": 15513
      },
      {
        "length": 32,
        "start": 15955
      }
    ],
    "12281": [
      {
        "length": 32,
        "start": 5023
      },
      {
        "length": 32,
        "start": 5453
      },
      {
        "length": 32,
        "start": 17176
      }
    ],
    "12283": [
      {
        "length": 32,
        "start": 4056
      },
      {
        "length": 32,
        "start": 4261
      },
      {
        "length": 32,
        "start": 19446
      }
    ],
    "12285": [
      {
        "length": 32,
        "start": 11812
      },
      {
        "length": 32,
        "start": 20599
      }
    ],
    "12287": [
      {
        "length": 32,
        "start": 4660
      },
      {
        "length": 32,
        "start": 20381
      },
      {
        "length": 32,
        "start": 21182
      }
    ]
  },
  "source": "/*\n\n    Copyright 2020 DODO ZOO.\n    SPDX-License-Identifier: Apache-2.0\n\n*/\n\npragma solidity 0.6.9;\n\nimport {IDODOV2Proxy01} from \"./intf/IDODOV2Proxy01.sol\";\nimport {IDODOV2} from \"./intf/IDODOV2.sol\";\nimport {IDODOV1} from \"./intf/IDODOV1.sol\";\nimport {IDODOApprove} from \"../intf/IDODOApprove.sol\";\nimport {IDODOSellHelper} from \"./helper/DODOSellHelper.sol\";\nimport {IERC20} from \"../intf/IERC20.sol\";\nimport {IWETH} from \"../intf/IWETH.sol\";\nimport {IUni} from \"./intf/IUni.sol\";\nimport {IChi} from \"./intf/IChi.sol\";\nimport {SafeMath} from \"../lib/SafeMath.sol\";\nimport {UniversalERC20} from \"./lib/UniversalERC20.sol\";\nimport {SafeERC20} from \"../lib/SafeERC20.sol\";\nimport {DecimalMath} from \"../lib/DecimalMath.sol\";\nimport {ReentrancyGuard} from \"../lib/ReentrancyGuard.sol\";\nimport {InitializableOwnable} from \"../lib/InitializableOwnable.sol\";\nimport {IDODOIncentive} from \"./DODOIncentive.sol\";\nimport {IDODOAdapter} from \"./intf/IDODOAdapter.sol\";\n\n/**\n * @title DODOV2Proxy01\n * @author DODO Breeder\n *\n * @notice Entrance of trading in DODO platform\n */\ncontract DODOV2Proxy01 is IDODOV2Proxy01, ReentrancyGuard, InitializableOwnable {\n    using SafeMath for uint256;\n    using UniversalERC20 for IERC20;\n\n    // ============ Storage ============\n\n    address constant _ETH_ADDRESS_ = 0xEeeeeEeeeEeEeeEeEeEeeEEEeeeeEeeeeeeeEEeE;\n    address public immutable _WETH_;\n    address public immutable _DODO_APPROVE_;\n    address public immutable _DODO_SELL_HELPER_;\n    address public immutable _DVM_FACTORY_;\n    address public immutable _DPP_FACTORY_;\n    address public immutable _CP_FACTORY_;\n    address public immutable _DODO_INCENTIVE_;\n    address public immutable _CHI_TOKEN_;\n    uint256 public _GAS_DODO_MAX_RETURN_ = 0;\n    uint256 public _GAS_EXTERNAL_RETURN_ = 0;\n    mapping (address => bool) public isWhiteListed;\n\n    // ============ Events ============\n\n    event OrderHistory(\n        address fromToken,\n        address toToken,\n        address sender,\n        uint256 fromAmount,\n        uint256 returnAmount\n    );\n\n    // ============ Modifiers ============\n\n    modifier judgeExpired(uint256 deadLine) {\n        require(deadLine >= block.timestamp, \"DODOV2Proxy01: EXPIRED\");\n        _;\n    }\n\n    fallback() external payable {}\n\n    receive() external payable {}\n\n    constructor(\n        address dvmFactory,\n        address dppFactory,\n        address cpFactory,\n        address payable weth,\n        address dodoApprove,\n        address dodoSellHelper,\n        address chiToken,\n        address dodoIncentive\n    ) public {\n        _DVM_FACTORY_ = dvmFactory;\n        _DPP_FACTORY_ = dppFactory;\n        _CP_FACTORY_ = cpFactory;\n        _WETH_ = weth;\n        _DODO_APPROVE_ = dodoApprove;\n        _DODO_SELL_HELPER_ = dodoSellHelper;\n        _CHI_TOKEN_ = chiToken;\n        _DODO_INCENTIVE_ = dodoIncentive;\n    }\n\n    function addWhiteList (address contractAddr) public onlyOwner {\n        isWhiteListed[contractAddr] = true;\n    }\n\n    function removeWhiteList (address contractAddr) public onlyOwner {\n        isWhiteListed[contractAddr] = false;\n    }\n\n    function updateGasReturn(uint256 newDodoGasReturn, uint256 newExternalGasReturn) public onlyOwner {\n        _GAS_DODO_MAX_RETURN_ = newDodoGasReturn;\n        _GAS_EXTERNAL_RETURN_ = newExternalGasReturn;\n    }\n\n    // ============ DVM Functions (create & add liquidity) ============\n\n    function createDODOVendingMachine(\n        address baseToken,\n        address quoteToken,\n        uint256 baseInAmount,\n        uint256 quoteInAmount,\n        uint256 lpFeeRate,\n        uint256 i,\n        uint256 k,\n        bool isOpenTWAP,\n        uint256 deadLine\n    )\n        external\n        override\n        payable\n        preventReentrant\n        judgeExpired(deadLine)\n        returns (address newVendingMachine, uint256 shares)\n    {\n        {\n            address _baseToken = baseToken == _ETH_ADDRESS_ ? _WETH_ : baseToken;\n            address _quoteToken = quoteToken == _ETH_ADDRESS_ ? _WETH_ : quoteToken;\n            newVendingMachine = IDODOV2(_DVM_FACTORY_).createDODOVendingMachine(\n                _baseToken,\n                _quoteToken,\n                lpFeeRate,\n                i,\n                k,\n                isOpenTWAP\n            );\n        }\n\n        {\n            address _baseToken = baseToken;\n            address _quoteToken = quoteToken;\n            _deposit(\n                msg.sender,\n                newVendingMachine,\n                _baseToken,\n                baseInAmount,\n                _baseToken == _ETH_ADDRESS_\n            );\n            _deposit(\n                msg.sender,\n                newVendingMachine,\n                _quoteToken,\n                quoteInAmount,\n                _quoteToken == _ETH_ADDRESS_\n            );\n        }\n\n        (shares, , ) = IDODOV2(newVendingMachine).buyShares(msg.sender);\n    }\n\n    function addDVMLiquidity(\n        address dvmAddress,\n        uint256 baseInAmount,\n        uint256 quoteInAmount,\n        uint256 baseMinAmount,\n        uint256 quoteMinAmount,\n        uint8 flag, // 0 - ERC20, 1 - baseInETH, 2 - quoteInETH\n        uint256 deadLine\n    )\n        external\n        override\n        payable\n        preventReentrant\n        judgeExpired(deadLine)\n        returns (\n            uint256 shares,\n            uint256 baseAdjustedInAmount,\n            uint256 quoteAdjustedInAmount\n        )\n    {\n        address _dvm = dvmAddress;\n        (baseAdjustedInAmount, quoteAdjustedInAmount) = _addDVMLiquidity(\n            _dvm,\n            baseInAmount,\n            quoteInAmount\n        );\n        require(\n            baseAdjustedInAmount >= baseMinAmount && quoteAdjustedInAmount >= quoteMinAmount,\n            \"DODOV2Proxy01: deposit amount is not enough\"\n        );\n\n        _deposit(msg.sender, _dvm, IDODOV2(_dvm)._BASE_TOKEN_(), baseAdjustedInAmount, flag == 1);\n        _deposit(msg.sender, _dvm, IDODOV2(_dvm)._QUOTE_TOKEN_(), quoteAdjustedInAmount, flag == 2);\n        \n        (shares, , ) = IDODOV2(_dvm).buyShares(msg.sender);\n        // refund dust eth\n        if (flag == 1 && msg.value > baseAdjustedInAmount) msg.sender.transfer(msg.value - baseAdjustedInAmount);\n        if (flag == 2 && msg.value > quoteAdjustedInAmount) msg.sender.transfer(msg.value - quoteAdjustedInAmount);\n    }\n\n    function _addDVMLiquidity(\n        address dvmAddress,\n        uint256 baseInAmount,\n        uint256 quoteInAmount\n    ) internal view returns (uint256 baseAdjustedInAmount, uint256 quoteAdjustedInAmount) {\n        (uint256 baseReserve, uint256 quoteReserve) = IDODOV2(dvmAddress).getVaultReserve();\n        if (quoteReserve == 0 && baseReserve == 0) {\n            baseAdjustedInAmount = baseInAmount;\n            quoteAdjustedInAmount = quoteInAmount;\n        }\n        if (quoteReserve == 0 && baseReserve > 0) {\n            baseAdjustedInAmount = baseInAmount;\n            quoteAdjustedInAmount = 0;\n        }\n        if (quoteReserve > 0 && baseReserve > 0) {\n            uint256 baseIncreaseRatio = DecimalMath.divFloor(baseInAmount, baseReserve);\n            uint256 quoteIncreaseRatio = DecimalMath.divFloor(quoteInAmount, quoteReserve);\n            if (baseIncreaseRatio <= quoteIncreaseRatio) {\n                baseAdjustedInAmount = baseInAmount;\n                quoteAdjustedInAmount = DecimalMath.mulFloor(quoteReserve, baseIncreaseRatio);\n            } else {\n                quoteAdjustedInAmount = quoteInAmount;\n                baseAdjustedInAmount = DecimalMath.mulFloor(baseReserve, quoteIncreaseRatio);\n            }\n        }\n    }\n\n    // ============ DPP Functions (create & reset) ============\n\n    function createDODOPrivatePool(\n        address baseToken,\n        address quoteToken,\n        uint256 baseInAmount,\n        uint256 quoteInAmount,\n        uint256 lpFeeRate,\n        uint256 i,\n        uint256 k,\n        bool isOpenTwap,\n        uint256 deadLine\n    )\n        external\n        override\n        payable\n        preventReentrant\n        judgeExpired(deadLine)\n        returns (address newPrivatePool)\n    {\n        newPrivatePool = IDODOV2(_DPP_FACTORY_).createDODOPrivatePool();\n\n        address _baseToken = baseToken;\n        address _quoteToken = quoteToken;\n        _deposit(msg.sender, newPrivatePool, _baseToken, baseInAmount, _baseToken == _ETH_ADDRESS_);\n        _deposit(\n            msg.sender,\n            newPrivatePool,\n            _quoteToken,\n            quoteInAmount,\n            _quoteToken == _ETH_ADDRESS_\n        );\n\n        if (_baseToken == _ETH_ADDRESS_) _baseToken = _WETH_;\n        if (_quoteToken == _ETH_ADDRESS_) _quoteToken = _WETH_;\n\n        IDODOV2(_DPP_FACTORY_).initDODOPrivatePool(\n            newPrivatePool,\n            msg.sender,\n            _baseToken,\n            _quoteToken,\n            lpFeeRate,\n            k,\n            i,\n            isOpenTwap\n        );\n    }\n\n    function resetDODOPrivatePool(\n        address dppAddress,\n        uint256[] memory paramList,  //0 - newLpFeeRate, 1 - newI, 2 - newK\n        uint256[] memory amountList, //0 - baseInAmount, 1 - quoteInAmount, 2 - baseOutAmount, 3- quoteOutAmount\n        uint8 flag, // 0 - ERC20, 1 - baseInETH, 2 - quoteInETH, 3 - baseOutETH, 4 - quoteOutETH\n        uint256 minBaseReserve,\n        uint256 minQuoteReserve,\n        uint256 deadLine\n    ) external override payable preventReentrant judgeExpired(deadLine) {\n        _deposit(\n            msg.sender,\n            dppAddress,\n            IDODOV2(dppAddress)._BASE_TOKEN_(),\n            amountList[0],\n            flag == 1\n        );\n        _deposit(\n            msg.sender,\n            dppAddress,\n            IDODOV2(dppAddress)._QUOTE_TOKEN_(),\n            amountList[1],\n            flag == 2\n        );\n\n        require(IDODOV2(IDODOV2(dppAddress)._OWNER_()).reset(\n            msg.sender,\n            paramList[0],\n            paramList[1],\n            paramList[2],\n            amountList[2],\n            amountList[3],\n            minBaseReserve,\n            minQuoteReserve\n        ), \"Reset Failed\");\n\n        _withdraw(msg.sender, IDODOV2(dppAddress)._BASE_TOKEN_(), amountList[2], flag == 3);\n        _withdraw(msg.sender, IDODOV2(dppAddress)._QUOTE_TOKEN_(), amountList[3], flag == 4);\n    }\n\n    // ============ Swap ============\n\n    function dodoSwapV2ETHToToken(\n        address toToken,\n        uint256 minReturnAmount,\n        address[] memory dodoPairs,\n        uint256 directions,\n        bool isIncentive,\n        uint256 deadLine\n    )\n        external\n        override\n        payable\n        judgeExpired(deadLine)\n        returns (uint256 returnAmount)\n    {\n        require(dodoPairs.length > 0, \"DODOV2Proxy01: PAIRS_EMPTY\");\n        require(minReturnAmount > 0, \"DODOV2Proxy01: RETURN_AMOUNT_ZERO\");\n        uint256 originGas = gasleft();\n        \n        uint256 originToTokenBalance = IERC20(toToken).balanceOf(msg.sender);\n        IWETH(_WETH_).deposit{value: msg.value}();\n        IWETH(_WETH_).transfer(dodoPairs[0], msg.value);\n\n        for (uint256 i = 0; i < dodoPairs.length; i++) {\n            if (i == dodoPairs.length - 1) {\n                if (directions & 1 == 0) {\n                    IDODOV2(dodoPairs[i]).sellBase(msg.sender);\n                } else {\n                    IDODOV2(dodoPairs[i]).sellQuote(msg.sender);\n                }\n            } else {\n                if (directions & 1 == 0) {\n                    IDODOV2(dodoPairs[i]).sellBase(dodoPairs[i + 1]);\n                } else {\n                    IDODOV2(dodoPairs[i]).sellQuote(dodoPairs[i + 1]);\n                }\n            }\n            directions = directions >> 1;\n        }\n\n        returnAmount = IERC20(toToken).balanceOf(msg.sender).sub(originToTokenBalance);\n        require(returnAmount >= minReturnAmount, \"DODOV2Proxy01: Return amount is not enough\");\n\n        _dodoGasReturn(originGas);\n\n        _execIncentive(isIncentive, _ETH_ADDRESS_, toToken);\n\n        emit OrderHistory(\n            _ETH_ADDRESS_,\n            toToken,\n            msg.sender,\n            msg.value,\n            returnAmount\n        );\n    }\n\n    function dodoSwapV2TokenToETH(\n        address fromToken,\n        uint256 fromTokenAmount,\n        uint256 minReturnAmount,\n        address[] memory dodoPairs,\n        uint256 directions,\n        bool isIncentive,\n        uint256 deadLine\n    )\n        external\n        override\n        judgeExpired(deadLine)\n        returns (uint256 returnAmount)\n    {\n        require(dodoPairs.length > 0, \"DODOV2Proxy01: PAIRS_EMPTY\");\n        require(minReturnAmount > 0, \"DODOV2Proxy01: RETURN_AMOUNT_ZERO\");\n        uint256 originGas = gasleft();\n        \n        IDODOApprove(_DODO_APPROVE_).claimTokens(fromToken, msg.sender, dodoPairs[0], fromTokenAmount);\n\n        for (uint256 i = 0; i < dodoPairs.length; i++) {\n            if (i == dodoPairs.length - 1) {\n                if (directions & 1 == 0) {\n                    IDODOV2(dodoPairs[i]).sellBase(address(this));\n                } else {\n                    IDODOV2(dodoPairs[i]).sellQuote(address(this));\n                }\n            } else {\n                if (directions & 1 == 0) {\n                    IDODOV2(dodoPairs[i]).sellBase(dodoPairs[i + 1]);\n                } else {\n                    IDODOV2(dodoPairs[i]).sellQuote(dodoPairs[i + 1]);\n                }\n            }\n            directions = directions >> 1;\n        }\n        returnAmount = IWETH(_WETH_).balanceOf(address(this));\n        require(returnAmount >= minReturnAmount, \"DODOV2Proxy01: Return amount is not enough\");\n        IWETH(_WETH_).withdraw(returnAmount);\n        msg.sender.transfer(returnAmount);\n\n        _dodoGasReturn(originGas);\n\n        _execIncentive(isIncentive, fromToken, _ETH_ADDRESS_);\n\n        emit OrderHistory(\n            fromToken,\n            _ETH_ADDRESS_,\n            msg.sender,\n            fromTokenAmount,\n            returnAmount\n        );\n    }\n\n    function dodoSwapV2TokenToToken(\n        address fromToken,\n        address toToken,\n        uint256 fromTokenAmount,\n        uint256 minReturnAmount,\n        address[] memory dodoPairs,\n        uint256 directions,\n        bool isIncentive,\n        uint256 deadLine\n    )\n        external\n        override\n        judgeExpired(deadLine)\n        returns (uint256 returnAmount)\n    {\n        require(dodoPairs.length > 0, \"DODOV2Proxy01: PAIRS_EMPTY\");\n        require(minReturnAmount > 0, \"DODOV2Proxy01: RETURN_AMOUNT_ZERO\");\n        uint256 originGas = gasleft();\n\n        uint256 originToTokenBalance = IERC20(toToken).balanceOf(msg.sender);\n        IDODOApprove(_DODO_APPROVE_).claimTokens(fromToken, msg.sender, dodoPairs[0], fromTokenAmount);\n\n        for (uint256 i = 0; i < dodoPairs.length; i++) {\n            if (i == dodoPairs.length - 1) {\n                if (directions & 1 == 0) {\n                    IDODOV2(dodoPairs[i]).sellBase(msg.sender);\n                } else {\n                    IDODOV2(dodoPairs[i]).sellQuote(msg.sender);\n                }\n            } else {\n                if (directions& 1 == 0) {\n                    IDODOV2(dodoPairs[i]).sellBase(dodoPairs[i + 1]);\n                } else {\n                    IDODOV2(dodoPairs[i]).sellQuote(dodoPairs[i + 1]);\n                }\n            }\n            directions = directions >> 1;\n        }\n        returnAmount = IERC20(toToken).balanceOf(msg.sender).sub(originToTokenBalance);\n        require(returnAmount >= minReturnAmount, \"DODOV2Proxy01: Return amount is not enough\");\n        \n        _dodoGasReturn(originGas);\n\n        _execIncentive(isIncentive, fromToken, toToken);\n\n        emit OrderHistory(\n            fromToken,\n            toToken,\n            msg.sender,\n            fromTokenAmount,\n            returnAmount\n        );\n    }\n\n    function externalSwap(\n        address fromToken,\n        address toToken,\n        address approveTarget,\n        address swapTarget,\n        uint256 fromTokenAmount,\n        uint256 minReturnAmount,\n        bytes memory callDataConcat,\n        bool isIncentive,\n        uint256 deadLine\n    )\n        external\n        override\n        payable\n        judgeExpired(deadLine)\n        returns (uint256 returnAmount)\n    {\n        require(minReturnAmount > 0, \"DODOV2Proxy01: RETURN_AMOUNT_ZERO\");\n        \n        uint256 toTokenOriginBalance = IERC20(toToken).universalBalanceOf(msg.sender);\n        if (fromToken != _ETH_ADDRESS_) {\n            IDODOApprove(_DODO_APPROVE_).claimTokens(\n                fromToken,\n                msg.sender,\n                address(this),\n                fromTokenAmount\n            );\n            IERC20(fromToken).universalApproveMax(approveTarget, fromTokenAmount);\n        }\n\n        require(isWhiteListed[swapTarget], \"DODOV2Proxy01: Not Whitelist Contract\");\n        (bool success, ) = swapTarget.call{value: fromToken == _ETH_ADDRESS_ ? msg.value : 0}(callDataConcat);\n\n        require(success, \"DODOV2Proxy01: External Swap execution Failed\");\n\n        IERC20(toToken).universalTransfer(\n            msg.sender,\n            IERC20(toToken).universalBalanceOf(address(this))\n        );\n\n        returnAmount = IERC20(toToken).universalBalanceOf(msg.sender).sub(toTokenOriginBalance);\n        require(returnAmount >= minReturnAmount, \"DODOV2Proxy01: Return amount is not enough\");\n\n        _externalGasReturn();\n\n        _execIncentive(isIncentive, fromToken, toToken);\n\n        emit OrderHistory(\n            fromToken,\n            toToken,\n            msg.sender,\n            fromTokenAmount,\n            returnAmount\n        );\n    }\n\n    function dodoSwapV1(\n        address fromToken,\n        address toToken,\n        uint256 fromTokenAmount,\n        uint256 minReturnAmount,\n        address[] memory dodoPairs,\n        uint256 directions,\n        bool isIncentive,\n        uint256 deadLine\n    )\n        external\n        override\n        payable\n        judgeExpired(deadLine)\n        returns (uint256 returnAmount)\n    {\n        require(dodoPairs.length > 0, \"DODOV2Proxy01: PAIRS_EMPTY\");\n        require(minReturnAmount > 0, \"DODOV2Proxy01: RETURN_AMOUNT_ZERO\");\n        uint256 originGas = gasleft();\n\n        address _fromToken = fromToken;\n        address _toToken = toToken;\n        \n        _deposit(msg.sender, address(this), _fromToken, fromTokenAmount, _fromToken == _ETH_ADDRESS_);\n\n        for (uint256 i = 0; i < dodoPairs.length; i++) {\n            address curDodoPair = dodoPairs[i];\n            if (directions & 1 == 0) {\n                address curDodoBase = IDODOV1(curDodoPair)._BASE_TOKEN_();\n                uint256 curAmountIn = IERC20(curDodoBase).balanceOf(address(this));\n                IERC20(curDodoBase).universalApproveMax(curDodoPair, curAmountIn);\n                IDODOV1(curDodoPair).sellBaseToken(curAmountIn, 0, \"\");\n            } else {\n                address curDodoQuote = IDODOV1(curDodoPair)._QUOTE_TOKEN_();\n                uint256 curAmountIn = IERC20(curDodoQuote).balanceOf(address(this));\n                IERC20(curDodoQuote).universalApproveMax(curDodoPair, curAmountIn);\n                uint256 canBuyBaseAmount = IDODOSellHelper(_DODO_SELL_HELPER_).querySellQuoteToken(\n                    curDodoPair,\n                    curAmountIn\n                );\n                IDODOV1(curDodoPair).buyBaseToken(canBuyBaseAmount, curAmountIn, \"\");\n            }\n            directions = directions >> 1;\n        }\n\n        \n        if (_toToken == _ETH_ADDRESS_) {\n            returnAmount = IWETH(_WETH_).balanceOf(address(this));\n            IWETH(_WETH_).withdraw(returnAmount);\n        } else {\n            returnAmount = IERC20(_toToken).tokenBalanceOf(address(this));\n        }\n        \n        require(returnAmount >= minReturnAmount, \"DODOV2Proxy01: Return amount is not enough\");\n        IERC20(_toToken).universalTransfer(msg.sender, returnAmount);\n\n        _dodoGasReturn(originGas);\n\n        _execIncentive(isIncentive, _fromToken, _toToken);\n\n        emit OrderHistory(_fromToken, _toToken, msg.sender, fromTokenAmount, returnAmount);\n    }\n\n\n    function mixSwap(\n        address fromToken,\n        address toToken,\n        uint256 fromTokenAmount,\n        uint256 minReturnAmount,\n        address[] memory mixAdapters,\n        address[] memory mixPairs,\n        address[] memory assetTo,\n        uint256 directions,\n        bool isIncentive,\n        uint256 deadLine\n    ) external override payable judgeExpired(deadLine) returns (uint256 returnAmount) {\n        require(mixPairs.length > 0, \"DODOV2Proxy01: PAIRS_EMPTY\");\n        require(mixPairs.length == mixAdapters.length, \"DODOV2Proxy01: PAIR_ADAPTER_NOT_MATCH\");\n        require(mixPairs.length == assetTo.length - 1, \"DODOV2Proxy01: PAIR_ASSETTO_NOT_MATCH\");\n        require(minReturnAmount > 0, \"DODOV2Proxy01: RETURN_AMOUNT_ZERO\");\n        \n        uint256 toTokenOriginBalance = IERC20(toToken).universalBalanceOf(msg.sender);\n        \n        {\n        address _fromToken = fromToken;\n        _deposit(msg.sender, assetTo[0], _fromToken, fromTokenAmount, _fromToken == _ETH_ADDRESS_);\n        }\n\n        for (uint256 i = 0; i < mixPairs.length; i++) {\n            if (directions & 1 == 0) {\n                IDODOAdapter(mixAdapters[i]).sellBase(assetTo[i + 1],mixPairs[i]);\n            } else {\n                IDODOAdapter(mixAdapters[i]).sellQuote(assetTo[i + 1],mixPairs[i]);\n            }\n            directions = directions >> 1;\n        }\n\n        if(toToken == _ETH_ADDRESS_) {\n            returnAmount = IWETH(_WETH_).balanceOf(address(this));\n            IWETH(_WETH_).withdraw(returnAmount);\n            msg.sender.transfer(returnAmount);\n        }else {\n            returnAmount = IERC20(toToken).tokenBalanceOf(msg.sender).sub(toTokenOriginBalance);\n        }\n\n        require(returnAmount >= minReturnAmount, \"DODOV2Proxy01: Return amount is not enough\");\n        \n        _externalGasReturn();\n\n        _execIncentive(isIncentive, fromToken, toToken);\n\n        emit OrderHistory(\n            fromToken,\n            toToken,\n            msg.sender,\n            fromTokenAmount,\n            returnAmount\n        );\n    }\n\n    //============ CrowdPooling Functions (create & bid) ============\n\n    function createCrowdPooling(\n        address baseToken,\n        address quoteToken,\n        uint256 baseInAmount,\n        uint256[] memory timeLine,\n        uint256[] memory valueList,\n        bool isOpenTWAP,\n        uint256 deadLine\n    ) external override payable preventReentrant judgeExpired(deadLine) returns (address payable newCrowdPooling) {\n        address _baseToken = baseToken;\n        address _quoteToken = quoteToken == _ETH_ADDRESS_ ? _WETH_ : quoteToken;\n        \n        newCrowdPooling = IDODOV2(_CP_FACTORY_).createCrowdPooling();\n\n        _deposit(\n            msg.sender,\n            newCrowdPooling,\n            _baseToken,\n            baseInAmount,\n            false\n        );\n\n        newCrowdPooling.transfer(msg.value);\n\n        IDODOV2(_CP_FACTORY_).initCrowdPooling(\n            newCrowdPooling,\n            msg.sender,\n            _baseToken,\n            _quoteToken,\n            timeLine,\n            valueList,\n            isOpenTWAP\n        );\n    }\n\n    function bid(\n        address cpAddress,\n        uint256 quoteAmount,\n        uint8 flag, // 0 - ERC20, 1 - quoteInETH\n        uint256 deadLine\n    ) external override payable preventReentrant judgeExpired(deadLine) {\n        _deposit(msg.sender, cpAddress, IDODOV2(cpAddress)._QUOTE_TOKEN_(), quoteAmount, flag == 1);\n        IDODOV2(cpAddress).bid(msg.sender);\n    }\n\n\n    function addLiquidityToV1(\n        address pair,\n        uint256 baseAmount,\n        uint256 quoteAmount,\n        uint256 baseMinShares,\n        uint256 quoteMinShares,\n        uint8 flag, // 0 erc20 In  1 baseInETH  2 quoteIn ETH \n        uint256 deadLine\n    ) external override payable preventReentrant judgeExpired(deadLine) returns(uint256 baseShares, uint256 quoteShares) {\n        address _baseToken = IDODOV1(pair)._BASE_TOKEN_();\n        address _quoteToken = IDODOV1(pair)._QUOTE_TOKEN_();\n        \n        _deposit(msg.sender, address(this), _baseToken, baseAmount, flag == 1);\n        _deposit(msg.sender, address(this), _quoteToken, quoteAmount, flag == 2);\n\n        \n        if(baseAmount > 0) {\n            IERC20(_baseToken).universalApproveMax(pair, baseAmount);\n            baseShares = IDODOV1(pair).depositBaseTo(msg.sender, baseAmount);\n        }\n        if(quoteAmount > 0) {\n            IERC20(_quoteToken).universalApproveMax(pair, quoteAmount);\n            quoteShares = IDODOV1(pair).depositQuoteTo(msg.sender, quoteAmount);\n        }\n\n        require(baseShares >= baseMinShares && quoteShares >= quoteMinShares,\"DODOV2Proxy01: Return DLP is not enough\");\n    }\n    \n\n    function _deposit(\n        address from,\n        address to,\n        address token,\n        uint256 amount,\n        bool isETH\n    ) internal {\n        if (isETH) {\n            if (amount > 0) {\n                IWETH(_WETH_).deposit{value: amount}();\n                if (to != address(this)) SafeERC20.safeTransfer(IERC20(_WETH_), to, amount);\n            }\n        } else {\n            IDODOApprove(_DODO_APPROVE_).claimTokens(token, from, to, amount);\n        }\n    }\n\n    function _withdraw(\n        address payable to,\n        address token,\n        uint256 amount,\n        bool isETH\n    ) internal {\n        if (isETH) {\n            if (amount > 0) {\n                IWETH(_WETH_).withdraw(amount);\n                to.transfer(amount);\n            }\n        } else {\n            SafeERC20.safeTransfer(IERC20(token), to, amount);\n        }\n    }\n\n    function _dodoGasReturn(uint256 originGas) internal {\n        uint256 _gasDodoMaxReturn = _GAS_DODO_MAX_RETURN_;\n        if(_gasDodoMaxReturn > 0) {\n            uint256 calcGasTokenBurn = originGas.sub(gasleft()) / 65000;\n            uint256 gasTokenBurn = calcGasTokenBurn > _gasDodoMaxReturn ? _gasDodoMaxReturn : calcGasTokenBurn;\n            if(gasTokenBurn >= 3 && gasleft() > 27710 + gasTokenBurn * 6080)\n                IChi(_CHI_TOKEN_).freeUpTo(gasTokenBurn);\n        }\n    }\n\n    function _externalGasReturn() internal {\n        uint256 _gasExternalReturn = _GAS_EXTERNAL_RETURN_;\n        if(_gasExternalReturn > 0) {\n            if(gasleft() > 27710 + _gasExternalReturn * 6080)\n                IChi(_CHI_TOKEN_).freeUpTo(_gasExternalReturn);\n        }\n    }\n\n    function _execIncentive(bool isIncentive, address fromToken,address toToken) internal {\n        if(isIncentive && gasleft() > 30000) {\n            IDODOIncentive(_DODO_INCENTIVE_).triggerIncentive(fromToken, toToken, msg.sender);\n        }\n    }\n\n}\n",
  "sourcePath": "/Users/niutaotao/projects/dodo/contractV2/contracts/SmartRoute/DODOV2Proxy01.sol",
  "compiler": {
    "name": "solc",
    "version": "0.6.9+commit.3e3065ac.Emscripten.clang"
  },
  "schemaVersion": "3.3.2",
  "updatedAt": "2021-01-20T03:10:14.904Z",
  "devdoc": {
    "author": "DODO Breeder",
    "methods": {},
    "title": "DODOV2Proxy01"
  },
  "userdoc": {
    "methods": {},
    "notice": "Entrance of trading in DODO platform"
  }
}