{
  "contractName": "DODOV2Proxy01",
  "abi": [
    {
      "inputs": [
        {
          "internalType": "address",
          "name": "dvmFactory",
          "type": "address"
        },
        {
          "internalType": "address",
          "name": "dppFactory",
          "type": "address"
        },
        {
          "internalType": "address",
          "name": "cpFactory",
          "type": "address"
        },
        {
          "internalType": "address payable",
          "name": "weth",
          "type": "address"
        },
        {
          "internalType": "address",
          "name": "dodoApprove",
          "type": "address"
        },
        {
          "internalType": "address",
          "name": "dodoSellHelper",
          "type": "address"
        }
      ],
      "stateMutability": "nonpayable",
      "type": "constructor"
    },
    {
      "anonymous": false,
      "inputs": [
        {
          "indexed": false,
          "internalType": "address",
          "name": "fromToken",
          "type": "address"
        },
        {
          "indexed": false,
          "internalType": "address",
          "name": "toToken",
          "type": "address"
        },
        {
          "indexed": false,
          "internalType": "address",
          "name": "sender",
          "type": "address"
        },
        {
          "indexed": false,
          "internalType": "uint256",
          "name": "fromAmount",
          "type": "uint256"
        },
        {
          "indexed": false,
          "internalType": "uint256",
          "name": "returnAmount",
          "type": "uint256"
        },
        {
          "indexed": false,
          "internalType": "uint8",
          "name": "sourceFlag",
          "type": "uint8"
        }
      ],
      "name": "OrderHistory",
      "type": "event"
    },
    {
      "anonymous": false,
      "inputs": [
        {
          "indexed": true,
          "internalType": "address",
          "name": "previousOwner",
          "type": "address"
        },
        {
          "indexed": true,
          "internalType": "address",
          "name": "newOwner",
          "type": "address"
        }
      ],
      "name": "OwnershipTransferPrepared",
      "type": "event"
    },
    {
      "anonymous": false,
      "inputs": [
        {
          "indexed": true,
          "internalType": "address",
          "name": "previousOwner",
          "type": "address"
        },
        {
          "indexed": true,
          "internalType": "address",
          "name": "newOwner",
          "type": "address"
        }
      ],
      "name": "OwnershipTransferred",
      "type": "event"
    },
    {
      "stateMutability": "payable",
      "type": "fallback"
    },
    {
      "inputs": [],
      "name": "_CP_FACTORY_",
      "outputs": [
        {
          "internalType": "address",
          "name": "",
          "type": "address"
        }
      ],
      "stateMutability": "view",
      "type": "function"
    },
    {
      "inputs": [],
      "name": "_DODO_APPROVE_",
      "outputs": [
        {
          "internalType": "address",
          "name": "",
          "type": "address"
        }
      ],
      "stateMutability": "view",
      "type": "function"
    },
    {
      "inputs": [],
      "name": "_DODO_SELL_HELPER_",
      "outputs": [
        {
          "internalType": "address",
          "name": "",
          "type": "address"
        }
      ],
      "stateMutability": "view",
      "type": "function"
    },
    {
      "inputs": [],
      "name": "_DPP_FACTORY_",
      "outputs": [
        {
          "internalType": "address",
          "name": "",
          "type": "address"
        }
      ],
      "stateMutability": "view",
      "type": "function"
    },
    {
      "inputs": [],
      "name": "_DVM_FACTORY_",
      "outputs": [
        {
          "internalType": "address",
          "name": "",
          "type": "address"
        }
      ],
      "stateMutability": "view",
      "type": "function"
    },
    {
      "inputs": [],
      "name": "_NEW_OWNER_",
      "outputs": [
        {
          "internalType": "address",
          "name": "",
          "type": "address"
        }
      ],
      "stateMutability": "view",
      "type": "function"
    },
    {
      "inputs": [],
      "name": "_OWNER_",
      "outputs": [
        {
          "internalType": "address",
          "name": "",
          "type": "address"
        }
      ],
      "stateMutability": "view",
      "type": "function"
    },
    {
      "inputs": [],
      "name": "_WETH_",
      "outputs": [
        {
          "internalType": "address",
          "name": "",
          "type": "address"
        }
      ],
      "stateMutability": "view",
      "type": "function"
    },
    {
      "inputs": [],
      "name": "claimOwnership",
      "outputs": [],
      "stateMutability": "nonpayable",
      "type": "function"
    },
    {
      "inputs": [
        {
          "internalType": "address",
          "name": "newOwner",
          "type": "address"
        }
      ],
      "name": "initOwner",
      "outputs": [],
      "stateMutability": "nonpayable",
      "type": "function"
    },
    {
      "inputs": [
        {
          "internalType": "address",
          "name": "",
          "type": "address"
        }
      ],
      "name": "isWhiteListed",
      "outputs": [
        {
          "internalType": "bool",
          "name": "",
          "type": "bool"
        }
      ],
      "stateMutability": "view",
      "type": "function"
    },
    {
      "inputs": [
        {
          "internalType": "address",
          "name": "newOwner",
          "type": "address"
        }
      ],
      "name": "transferOwnership",
      "outputs": [],
      "stateMutability": "nonpayable",
      "type": "function"
    },
    {
      "stateMutability": "payable",
      "type": "receive"
    },
    {
      "inputs": [
        {
          "internalType": "address",
          "name": "contractAddr",
          "type": "address"
        }
      ],
      "name": "addWhiteList",
      "outputs": [],
      "stateMutability": "nonpayable",
      "type": "function"
    },
    {
      "inputs": [
        {
          "internalType": "address",
          "name": "contractAddr",
          "type": "address"
        }
      ],
      "name": "removeWhiteList",
      "outputs": [],
      "stateMutability": "nonpayable",
      "type": "function"
    },
    {
      "inputs": [
        {
          "internalType": "address",
          "name": "assetTo",
          "type": "address"
        },
        {
          "internalType": "address",
          "name": "baseToken",
          "type": "address"
        },
        {
          "internalType": "address",
          "name": "quoteToken",
          "type": "address"
        },
        {
          "internalType": "uint256",
          "name": "baseInAmount",
          "type": "uint256"
        },
        {
          "internalType": "uint256",
          "name": "quoteInAmount",
          "type": "uint256"
        },
        {
          "internalType": "uint256",
          "name": "lpFeeRate",
          "type": "uint256"
        },
        {
          "internalType": "uint256",
          "name": "mtFeeRate",
          "type": "uint256"
        },
        {
          "internalType": "uint256",
          "name": "i",
          "type": "uint256"
        },
        {
          "internalType": "uint256",
          "name": "k",
          "type": "uint256"
        },
        {
          "internalType": "uint256",
          "name": "deadLine",
          "type": "uint256"
        }
      ],
      "name": "createDODOVendingMachine",
      "outputs": [
        {
          "internalType": "address",
          "name": "newVendingMachine",
          "type": "address"
        },
        {
          "internalType": "uint256",
          "name": "shares",
          "type": "uint256"
        }
      ],
      "stateMutability": "payable",
      "type": "function"
    },
    {
      "inputs": [
        {
          "internalType": "address",
          "name": "dvmAddress",
          "type": "address"
        },
        {
          "internalType": "address",
          "name": "to",
          "type": "address"
        },
        {
          "internalType": "uint256",
          "name": "baseInAmount",
          "type": "uint256"
        },
        {
          "internalType": "uint256",
          "name": "quoteInAmount",
          "type": "uint256"
        },
        {
          "internalType": "uint256",
          "name": "baseMinAmount",
          "type": "uint256"
        },
        {
          "internalType": "uint256",
          "name": "quoteMinAmount",
          "type": "uint256"
        },
        {
          "internalType": "uint8",
          "name": "flag",
          "type": "uint8"
        },
        {
          "internalType": "uint256",
          "name": "deadLine",
          "type": "uint256"
        }
      ],
      "name": "addDVMLiquidity",
      "outputs": [
        {
          "internalType": "uint256",
          "name": "shares",
          "type": "uint256"
        },
        {
          "internalType": "uint256",
          "name": "baseAdjustedInAmount",
          "type": "uint256"
        },
        {
          "internalType": "uint256",
          "name": "quoteAdjustedInAmount",
          "type": "uint256"
        }
      ],
      "stateMutability": "payable",
      "type": "function"
    },
    {
      "inputs": [
        {
          "internalType": "address",
          "name": "baseToken",
          "type": "address"
        },
        {
          "internalType": "address",
          "name": "quoteToken",
          "type": "address"
        },
        {
          "internalType": "uint256",
          "name": "baseInAmount",
          "type": "uint256"
        },
        {
          "internalType": "uint256",
          "name": "quoteInAmount",
          "type": "uint256"
        },
        {
          "internalType": "uint256",
          "name": "lpFeeRate",
          "type": "uint256"
        },
        {
          "internalType": "uint256",
          "name": "mtFeeRate",
          "type": "uint256"
        },
        {
          "internalType": "uint256",
          "name": "i",
          "type": "uint256"
        },
        {
          "internalType": "uint256",
          "name": "k",
          "type": "uint256"
        },
        {
          "internalType": "uint256",
          "name": "deadLine",
          "type": "uint256"
        }
      ],
      "name": "createDODOPrivatePool",
      "outputs": [
        {
          "internalType": "address",
          "name": "newPrivatePool",
          "type": "address"
        }
      ],
      "stateMutability": "payable",
      "type": "function"
    },
    {
      "inputs": [
        {
          "internalType": "address",
          "name": "dppAddress",
          "type": "address"
        },
        {
          "internalType": "uint256[]",
          "name": "paramList",
          "type": "uint256[]"
        },
        {
          "internalType": "uint256[]",
          "name": "amountList",
          "type": "uint256[]"
        },
        {
          "internalType": "uint8",
          "name": "flag",
          "type": "uint8"
        },
        {
          "internalType": "uint256",
          "name": "minBaseReserve",
          "type": "uint256"
        },
        {
          "internalType": "uint256",
          "name": "minQuoteReserve",
          "type": "uint256"
        },
        {
          "internalType": "uint256",
          "name": "deadLine",
          "type": "uint256"
        }
      ],
      "name": "resetDODOPrivatePool",
      "outputs": [],
      "stateMutability": "payable",
      "type": "function"
    },
    {
      "inputs": [
        {
          "internalType": "address payable",
          "name": "assetTo",
          "type": "address"
        },
        {
          "internalType": "address",
          "name": "toToken",
          "type": "address"
        },
        {
          "internalType": "uint256",
          "name": "minReturnAmount",
          "type": "uint256"
        },
        {
          "internalType": "address[]",
          "name": "dodoPairs",
          "type": "address[]"
        },
        {
          "internalType": "uint8[]",
          "name": "directions",
          "type": "uint8[]"
        },
        {
          "internalType": "uint256",
          "name": "deadLine",
          "type": "uint256"
        }
      ],
      "name": "dodoSwapV2ETHToToken",
      "outputs": [
        {
          "internalType": "uint256",
          "name": "returnAmount",
          "type": "uint256"
        }
      ],
      "stateMutability": "payable",
      "type": "function"
    },
    {
      "inputs": [
        {
          "internalType": "address payable",
          "name": "assetTo",
          "type": "address"
        },
        {
          "internalType": "address",
          "name": "fromToken",
          "type": "address"
        },
        {
          "internalType": "uint256",
          "name": "fromTokenAmount",
          "type": "uint256"
        },
        {
          "internalType": "uint256",
          "name": "minReturnAmount",
          "type": "uint256"
        },
        {
          "internalType": "address[]",
          "name": "dodoPairs",
          "type": "address[]"
        },
        {
          "internalType": "uint8[]",
          "name": "directions",
          "type": "uint8[]"
        },
        {
          "internalType": "uint256",
          "name": "deadLine",
          "type": "uint256"
        }
      ],
      "name": "dodoSwapV2TokenToETH",
      "outputs": [
        {
          "internalType": "uint256",
          "name": "returnAmount",
          "type": "uint256"
        }
      ],
      "stateMutability": "nonpayable",
      "type": "function"
    },
    {
      "inputs": [
        {
          "internalType": "address payable",
          "name": "assetTo",
          "type": "address"
        },
        {
          "internalType": "address",
          "name": "fromToken",
          "type": "address"
        },
        {
          "internalType": "address",
          "name": "toToken",
          "type": "address"
        },
        {
          "internalType": "uint256",
          "name": "fromTokenAmount",
          "type": "uint256"
        },
        {
          "internalType": "uint256",
          "name": "minReturnAmount",
          "type": "uint256"
        },
        {
          "internalType": "address[]",
          "name": "dodoPairs",
          "type": "address[]"
        },
        {
          "internalType": "uint8[]",
          "name": "directions",
          "type": "uint8[]"
        },
        {
          "internalType": "uint256",
          "name": "deadLine",
          "type": "uint256"
        }
      ],
      "name": "dodoSwapV2TokenToToken",
      "outputs": [
        {
          "internalType": "uint256",
          "name": "returnAmount",
          "type": "uint256"
        }
      ],
      "stateMutability": "nonpayable",
      "type": "function"
    },
    {
      "inputs": [
        {
          "internalType": "address",
          "name": "fromToken",
          "type": "address"
        },
        {
          "internalType": "address",
          "name": "toToken",
          "type": "address"
        },
        {
          "internalType": "address",
          "name": "approveTarget",
          "type": "address"
        },
        {
          "internalType": "address",
          "name": "to",
          "type": "address"
        },
        {
          "internalType": "uint256",
          "name": "fromTokenAmount",
          "type": "uint256"
        },
        {
          "internalType": "uint256",
          "name": "minReturnAmount",
          "type": "uint256"
        },
        {
          "internalType": "bytes",
          "name": "callDataConcat",
          "type": "bytes"
        },
        {
          "internalType": "uint256",
          "name": "deadLine",
          "type": "uint256"
        }
      ],
      "name": "externalSwap",
      "outputs": [
        {
          "internalType": "uint256",
          "name": "returnAmount",
          "type": "uint256"
        }
      ],
      "stateMutability": "payable",
      "type": "function"
    },
    {
      "inputs": [
        {
          "internalType": "address",
          "name": "fromToken",
          "type": "address"
        },
        {
          "internalType": "address",
          "name": "toToken",
          "type": "address"
        },
        {
          "internalType": "uint256",
          "name": "fromTokenAmount",
          "type": "uint256"
        },
        {
          "internalType": "uint256",
          "name": "minReturnAmount",
          "type": "uint256"
        },
        {
          "internalType": "address[]",
          "name": "dodoPairs",
          "type": "address[]"
        },
        {
          "internalType": "uint8[]",
          "name": "directions",
          "type": "uint8[]"
        },
        {
          "internalType": "uint256",
          "name": "deadLine",
          "type": "uint256"
        }
      ],
      "name": "dodoSwapV1",
      "outputs": [
        {
          "internalType": "uint256",
          "name": "returnAmount",
          "type": "uint256"
        }
      ],
      "stateMutability": "payable",
      "type": "function"
    },
    {
      "inputs": [
        {
          "internalType": "address",
          "name": "fromToken",
          "type": "address"
        },
        {
          "internalType": "address",
          "name": "toToken",
          "type": "address"
        },
        {
          "internalType": "uint256",
          "name": "fromTokenAmount",
          "type": "uint256"
        },
        {
          "internalType": "uint256",
          "name": "minReturnAmount",
          "type": "uint256"
        },
        {
          "internalType": "address[]",
          "name": "mixPairs",
          "type": "address[]"
        },
        {
          "internalType": "uint8[]",
          "name": "directions",
          "type": "uint8[]"
        },
        {
          "internalType": "address[]",
          "name": "portionPath",
          "type": "address[]"
        },
        {
          "internalType": "uint256",
          "name": "deadLine",
          "type": "uint256"
        }
      ],
      "name": "mixSwapV1",
      "outputs": [
        {
          "internalType": "uint256",
          "name": "returnAmount",
          "type": "uint256"
        }
      ],
      "stateMutability": "payable",
      "type": "function"
    },
    {
      "inputs": [
        {
          "internalType": "address",
          "name": "baseToken",
          "type": "address"
        },
        {
          "internalType": "address",
          "name": "quoteToken",
          "type": "address"
        },
        {
          "internalType": "uint256",
          "name": "baseInAmount",
          "type": "uint256"
        },
        {
          "internalType": "uint256[]",
          "name": "timeLine",
          "type": "uint256[]"
        },
        {
          "internalType": "uint256[]",
          "name": "valueList",
          "type": "uint256[]"
        },
        {
          "internalType": "uint256",
          "name": "deadLine",
          "type": "uint256"
        }
      ],
      "name": "createCrowdPooling",
      "outputs": [
        {
          "internalType": "address",
          "name": "newCrowdPooling",
          "type": "address"
        }
      ],
      "stateMutability": "nonpayable",
      "type": "function"
    },
    {
      "inputs": [
        {
          "internalType": "address",
          "name": "assetTo",
          "type": "address"
        },
        {
          "internalType": "address",
          "name": "cpAddress",
          "type": "address"
        },
        {
          "internalType": "uint256",
          "name": "quoteAmount",
          "type": "uint256"
        },
        {
          "internalType": "uint8",
          "name": "flag",
          "type": "uint8"
        },
        {
          "internalType": "uint256",
          "name": "deadLine",
          "type": "uint256"
        }
      ],
      "name": "bid",
      "outputs": [],
      "stateMutability": "payable",
      "type": "function"
    },
    {
      "inputs": [
        {
          "internalType": "address",
          "name": "to",
          "type": "address"
        },
        {
          "internalType": "address",
          "name": "pair",
          "type": "address"
        },
        {
          "internalType": "uint256",
          "name": "baseAmount",
          "type": "uint256"
        },
        {
          "internalType": "uint256",
          "name": "quoteAmount",
          "type": "uint256"
        },
        {
          "internalType": "uint256",
          "name": "baseMinShares",
          "type": "uint256"
        },
        {
          "internalType": "uint256",
          "name": "quoteMinShares",
          "type": "uint256"
        },
        {
          "internalType": "uint8",
          "name": "flag",
          "type": "uint8"
        },
        {
          "internalType": "uint256",
          "name": "deadLine",
          "type": "uint256"
        }
      ],
      "name": "addLiquidityToV1",
      "outputs": [
        {
          "internalType": "uint256",
          "name": "baseShares",
          "type": "uint256"
        },
        {
          "internalType": "uint256",
          "name": "quoteShares",
          "type": "uint256"
        }
      ],
      "stateMutability": "payable",
      "type": "function"
    }
  ],
  "bytecode": "0x6101406040523480156200001257600080fd5b5060405162005aa838038062005aa8833981810160405260c08110156200003857600080fd5b5080516020820151604083015160608085015160808087015160a0978801516001600160601b031997851b881660e05295841b87166101005293831b86166101205290821b8516905290811b831690935290911b1660c05260805160601c60a05160601c60c05160601c60e05160601c6101005160601c6101205160601c61593f6200016960003980614a215280614ab85280614d535250806126675280612815528061434f52508061385d52806139ce525080611cea5280612dbe528061432b52508061210d528061330952806135fe52806143f95280614e6f5250806113cf5280611e3a5280611ed0528061275d52806127a152806137a452806137ee5280613b1e5280613b8252806147c0528061487552806149fd5280614d835280614e0b5280614fb1525061593f6000f3fe6080604052600436106101a05760003560e01c80634e71e0c8116100ec578063af1280b01161008a578063db2dc9a211610064578063db2dc9a214610e6f578063e7cd4a0414610fc1578063f2fde38b14610ff4578063faa980e414611027576101a7565b8063af1280b014610cee578063b730d15014610d03578063da43989b14610d18576101a7565b80636f9170f6116100c65780636f9170f614610ad7578063756075b514610b1e5780638456db1514610c635780639989d8fe14610c78576101a7565b80634e71e0c814610a275780635c17e6c714610a3c57806369e4e41714610ac2576101a7565b806322d1b73211610159578063302a1a0a11610133578063302a1a0a14610725578063385533821461076a57806338f4c1881461093757806346e7429814610a12576101a7565b806322d1b7321461040d57806326f11379146105695780632a6a70fa146106c9576101a7565b806306f64a75146101a95780630d0092971461021a5780630d4eec8f1461024d57806312ff148d1461027e57806316048bc4146103c55780632042e5c2146103da576101a7565b366101a757005b005b61020160048036036101008110156101c057600080fd5b506001600160a01b03813581169160208101359091169060408101359060608101359060808101359060a08101359060ff60c0820135169060e0013561103c565b6040805192835260208301919091528051918290030190f35b34801561022657600080fd5b506101a76004803603602081101561023d57600080fd5b50356001600160a01b0316611340565b34801561025957600080fd5b506102626113cd565b604080516001600160a01b039092168252519081900360200190f35b6101a7600480360360e081101561029457600080fd5b6001600160a01b038235169190810190604081016020820135600160201b8111156102be57600080fd5b8201836020820111156102d057600080fd5b803590602001918460208302840111600160201b831117156102f157600080fd5b9190808060200260200160405190810160405280939291908181526020018383602002808284376000920191909152509295949360208101935035915050600160201b81111561034057600080fd5b82018360208201111561035257600080fd5b803590602001918460208302840111600160201b8311171561037357600080fd5b9190808060200260200160405190810160405280939291908181526020018383602002808284376000920191909152509295505060ff83351693505050602081013590604081013590606001356113f1565b3480156103d157600080fd5b506102626118b9565b3480156103e657600080fd5b506101a7600480360360208110156103fd57600080fd5b50356001600160a01b03166118cd565b610557600480360360e081101561042357600080fd5b6001600160a01b03823581169260208101359091169160408201359160608101359181019060a081016080820135600160201b81111561046257600080fd5b82018360208201111561047457600080fd5b803590602001918460208302840111600160201b8311171561049557600080fd5b9190808060200260200160405190810160405280939291908181526020018383602002808284376000920191909152509295949360208101935035915050600160201b8111156104e457600080fd5b8201836020820111156104f657600080fd5b803590602001918460208302840111600160201b8311171561051757600080fd5b919080806020026020016040519081016040528093929190818152602001838360200280828437600092019190915250929550509135925061193e915050565b60408051918252519081900360200190f35b34801561057557600080fd5b50610557600480360361010081101561058d57600080fd5b6001600160a01b038235811692602081013582169260408201359092169160608201359160808101359181019060c0810160a0820135600160201b8111156105d457600080fd5b8201836020820111156105e657600080fd5b803590602001918460208302840111600160201b8311171561060757600080fd5b9190808060200260200160405190810160405280939291908181526020018383602002808284376000920191909152509295949360208101935035915050600160201b81111561065657600080fd5b82018360208201111561066857600080fd5b803590602001918460208302840111600160201b8311171561068957600080fd5b9190808060200260200160405190810160405280939291908181526020018383602002808284376000920191909152509295505091359250612002915050565b61026260048036036101208110156106e057600080fd5b506001600160a01b03813581169160208101359091169060408101359060608101359060808101359060a08101359060c08101359060e08101359061010001356125cf565b6101a7600480360360a081101561073b57600080fd5b506001600160a01b03813581169160208101359091169060408101359060ff6060820135169060800135612893565b610557600480360361010081101561078157600080fd5b6001600160a01b03823581169260208101359091169160408201359160608101359181019060a081016080820135600160201b8111156107c057600080fd5b8201836020820111156107d257600080fd5b803590602001918460208302840111600160201b831117156107f357600080fd5b9190808060200260200160405190810160405280939291908181526020018383602002808284376000920191909152509295949360208101935035915050600160201b81111561084257600080fd5b82018360208201111561085457600080fd5b803590602001918460208302840111600160201b8311171561087557600080fd5b9190808060200260200160405190810160405280939291908181526020018383602002808284376000920191909152509295949360208101935035915050600160201b8111156108c457600080fd5b8201836020820111156108d657600080fd5b803590602001918460208302840111600160201b831117156108f757600080fd5b91908080602002602001604051908101604052809392919081815260200183836020028082843760009201919091525092955050913592506129c8915050565b610557600480360361010081101561094e57600080fd5b6001600160a01b038235811692602081013582169260408201358316926060830135169160808101359160a0820135919081019060e0810160c0820135600160201b81111561099c57600080fd5b8201836020820111156109ae57600080fd5b803590602001918460018302840111600160201b831117156109cf57600080fd5b91908080601f0160208091040260200160405190810160405280939291908181526020018383808284376000920191909152509295505091359250613253915050565b348015610a1e57600080fd5b506102626135fc565b348015610a3357600080fd5b506101a7613620565b610a9f6004803603610140811015610a5357600080fd5b506001600160a01b03813581169160208101358216916040820135169060608101359060808101359060a08101359060c08101359060e0810135906101008101359061012001356136e4565b604080516001600160a01b03909316835260208301919091528051918290030190f35b348015610ace57600080fd5b506102626139cc565b348015610ae357600080fd5b50610b0a60048036036020811015610afa57600080fd5b50356001600160a01b03166139f0565b604080519115158252519081900360200190f35b610557600480360360c0811015610b3457600080fd5b6001600160a01b03823581169260208101359091169160408201359190810190608081016060820135600160201b811115610b6e57600080fd5b820183602082011115610b8057600080fd5b803590602001918460208302840111600160201b83111715610ba157600080fd5b9190808060200260200160405190810160405280939291908181526020018383602002808284376000920191909152509295949360208101935035915050600160201b811115610bf057600080fd5b820183602082011115610c0257600080fd5b803590602001918460208302840111600160201b83111715610c2357600080fd5b9190808060200260200160405190810160405280939291908181526020018383602002808284376000920191909152509295505091359250613a05915050565b348015610c6f57600080fd5b50610262613ffb565b610cd06004803603610100811015610c8f57600080fd5b506001600160a01b03813581169160208101359091169060408101359060608101359060808101359060a08101359060ff60c0820135169060e0013561400a565b60408051938452602084019290925282820152519081900360600190f35b348015610cfa57600080fd5b50610262614329565b348015610d0f57600080fd5b5061026261434d565b348015610d2457600080fd5b50610557600480360360e0811015610d3b57600080fd5b6001600160a01b03823581169260208101359091169160408201359160608101359181019060a081016080820135600160201b811115610d7a57600080fd5b820183602082011115610d8c57600080fd5b803590602001918460208302840111600160201b83111715610dad57600080fd5b9190808060200260200160405190810160405280939291908181526020018383602002808284376000920191909152509295949360208101935035915050600160201b811115610dfc57600080fd5b820183602082011115610e0e57600080fd5b803590602001918460208302840111600160201b83111715610e2f57600080fd5b9190808060200260200160405190810160405280939291908181526020018383602002808284376000920191909152509295505091359250614371915050565b348015610e7b57600080fd5b50610262600480360360c0811015610e9257600080fd5b6001600160a01b03823581169260208101359091169160408201359190810190608081016060820135600160201b811115610ecc57600080fd5b820183602082011115610ede57600080fd5b803590602001918460208302840111600160201b83111715610eff57600080fd5b9190808060200260200160405190810160405280939291908181526020018383602002808284376000920191909152509295949360208101935035915050600160201b811115610f4e57600080fd5b820183602082011115610f6057600080fd5b803590602001918460208302840111600160201b83111715610f8157600080fd5b919080806020026020016040519081016040528093929190818152602001838360200280828437600092019190915250929550509135925061498e915050565b348015610fcd57600080fd5b506101a760048036036020811015610fe457600080fd5b50356001600160a01b0316614c2d565b34801561100057600080fd5b506101a76004803603602081101561101757600080fd5b50356001600160a01b0316614ca1565b34801561103357600080fd5b50610262614d51565b6000808242811015611083576040805162461bcd60e51b815260206004820152601660248201526000805160206158ea833981519152604482015290519081900360640190fd5b60008a6001600160a01b0316634a248d2a6040518163ffffffff1660e01b8152600401602060405180830381600087803b1580156110c057600080fd5b505af11580156110d4573d6000803e3d6000fd5b505050506040513d60208110156110ea57600080fd5b505160408051636a5cb82360e11b815290519192506000916001600160a01b038e169163d4b9704691600480830192602092919082900301818787803b15801561113357600080fd5b505af1158015611147573d6000803e3d6000fd5b505050506040513d602081101561115d57600080fd5b505190506111743330848e600160ff8d1614614d75565b6111873330838d8b60ff16600214614d75565b8a15611236576111a76001600160a01b0383168d8d63ffffffff614ed916565b8b6001600160a01b031663aa06ce9b8e8d6040518363ffffffff1660e01b815260040180836001600160a01b03166001600160a01b0316815260200182815260200192505050602060405180830381600087803b15801561120757600080fd5b505af115801561121b573d6000803e3d6000fd5b505050506040513d602081101561123157600080fd5b505194505b89156112e5576112566001600160a01b0382168d8c63ffffffff614ed916565b8b6001600160a01b0316635f179f648e8c6040518363ffffffff1660e01b815260040180836001600160a01b03166001600160a01b0316815260200182815260200192505050602060405180830381600087803b1580156112b657600080fd5b505af11580156112ca573d6000803e3d6000fd5b505050506040513d60208110156112e057600080fd5b505193505b8885101580156112f55750878410155b6113305760405162461bcd60e51b81526004018080602001828103825260278152602001806157816027913960400191505060405180910390fd5b5050509850989650505050505050565b600154600160a01b900460ff1615611392576040805162461bcd60e51b815260206004820152601060248201526f1113d113d7d25392551250531256915160821b604482015290519081900360640190fd5b6001805460ff60a01b1916600160a01b179055600080546001600160a01b0390921661010002610100600160a81b0319909216919091179055565b7f000000000000000000000000000000000000000000000000000000000000000081565b60005460ff1615611435576040805162461bcd60e51b815260206004820152600960248201526814915153951490539560ba1b604482015290519081900360640190fd5b6000805460ff191660011790558042811015611486576040805162461bcd60e51b815260206004820152601660248201526000805160206158ea833981519152604482015290519081900360640190fd5b61151333898a6001600160a01b0316634a248d2a6040518163ffffffff1660e01b8152600401602060405180830381600087803b1580156114c657600080fd5b505af11580156114da573d6000803e3d6000fd5b505050506040513d60208110156114f057600080fd5b505189518a906000906114ff57fe5b60200260200101518960ff16600114614d75565b6115a233898a6001600160a01b031663d4b970466040518163ffffffff1660e01b8152600401602060405180830381600087803b15801561155357600080fd5b505af1158015611567573d6000803e3d6000fd5b505050506040513d602081101561157d57600080fd5b505189518a90600190811061158e57fe5b60200260200101518960ff16600214614d75565b876001600160a01b03166316048bc46040518163ffffffff1660e01b8152600401602060405180830381600087803b1580156115dd57600080fd5b505af11580156115f1573d6000803e3d6000fd5b505050506040513d602081101561160757600080fd5b505187516001600160a01b039091169063e92b201e9033908a9060009061162a57fe5b60200260200101518a60018151811061163f57fe5b60200260200101518b60028151811061165457fe5b60200260200101518c60038151811061166957fe5b60200260200101518c60028151811061167e57fe5b60200260200101518d60038151811061169357fe5b60200260200101518c8c6040518a63ffffffff1660e01b8152600401808a6001600160a01b03166001600160a01b031681526020018981526020018881526020018781526020018681526020018581526020018481526020018381526020018281526020019950505050505050505050602060405180830381600087803b15801561171d57600080fd5b505af1158015611731573d6000803e3d6000fd5b505050506040513d602081101561174757600080fd5b5051611789576040805162461bcd60e51b815260206004820152600c60248201526b14995cd95d0811985a5b195960a21b604482015290519081900360640190fd5b61181733896001600160a01b0316634a248d2a6040518163ffffffff1660e01b8152600401602060405180830381600087803b1580156117c857600080fd5b505af11580156117dc573d6000803e3d6000fd5b505050506040513d60208110156117f257600080fd5b505188518990600290811061180357fe5b60200260200101518860ff16600314614fa3565b6118a533896001600160a01b031663d4b970466040518163ffffffff1660e01b8152600401602060405180830381600087803b15801561185657600080fd5b505af115801561186a573d6000803e3d6000fd5b505050506040513d602081101561188057600080fd5b505188518990600390811061189157fe5b60200260200101518860ff16600414614fa3565b50506000805460ff19169055505050505050565b60005461010090046001600160a01b031681565b60005461010090046001600160a01b0316331461191d576040805162461bcd60e51b81526020600482015260096024820152682727aa2fa7aba722a960b91b604482015290519081900360640190fd5b6001600160a01b03166000908152600260205260409020805460ff19169055565b60008142811015611984576040805162461bcd60e51b815260206004820152601660248201526000805160206158ea833981519152604482015290519081900360640190fd5b83518551146119c45760405162461bcd60e51b81526004018080602001828103825260268152602001806157f26026913960400191505060405180910390fd5b6119ea33308b8a6001600160a01b03821660008051602061581883398151915214614d75565b60005b8551811015611dfa576000868281518110611a0457fe5b60200260200101519050858281518110611a1a57fe5b602002602001015160ff1660001415611bc1576000816001600160a01b0316634a248d2a6040518163ffffffff1660e01b8152600401602060405180830381600087803b158015611a6a57600080fd5b505af1158015611a7e573d6000803e3d6000fd5b505050506040513d6020811015611a9457600080fd5b5051604080516370a0823160e01b815230600482015290519192506000916001600160a01b038416916370a08231916024808301926020929190829003018186803b158015611ae257600080fd5b505afa158015611af6573d6000803e3d6000fd5b505050506040513d6020811015611b0c57600080fd5b50519050611b2a6001600160a01b038316848363ffffffff614ed916565b826001600160a01b0316638dae73338260006040518363ffffffff1660e01b815260040180838152602001828152602001806020018281038252600081526020016020019350505050602060405180830381600087803b158015611b8d57600080fd5b505af1158015611ba1573d6000803e3d6000fd5b505050506040513d6020811015611bb757600080fd5b50611df192505050565b6000816001600160a01b031663d4b970466040518163ffffffff1660e01b8152600401602060405180830381600087803b158015611bfe57600080fd5b505af1158015611c12573d6000803e3d6000fd5b505050506040513d6020811015611c2857600080fd5b5051604080516370a0823160e01b815230600482015290519192506000916001600160a01b038416916370a08231916024808301926020929190829003018186803b158015611c7657600080fd5b505afa158015611c8a573d6000803e3d6000fd5b505050506040513d6020811015611ca057600080fd5b50519050611cbe6001600160a01b038316848363ffffffff614ed916565b6040805163ca19ebd960e01b81526001600160a01b0385811660048301526024820184905291516000927f0000000000000000000000000000000000000000000000000000000000000000169163ca19ebd9916044808301926020929190829003018186803b158015611d3057600080fd5b505afa158015611d44573d6000803e3d6000fd5b505050506040513d6020811015611d5a57600080fd5b50516040805163733e738360e11b815260048101839052602481018590526060604482015260006064820181905291519293506001600160a01b0387169263e67ce7069260a480840193602093929083900390910190829087803b158015611dc157600080fd5b505af1158015611dd5573d6000803e3d6000fd5b505050506040513d6020811015611deb57600080fd5b50505050505b506001016119ed565b506001600160a01b0388166000805160206158188339815191521415611f3557604080516370a0823160e01b815230600482015290516001600160a01b037f000000000000000000000000000000000000000000000000000000000000000016916370a08231916024808301926020929190829003018186803b158015611e8057600080fd5b505afa158015611e94573d6000803e3d6000fd5b505050506040513d6020811015611eaa57600080fd5b505160408051632e1a7d4d60e01b81526004810183905290519193506001600160a01b037f00000000000000000000000000000000000000000000000000000000000000001691632e1a7d4d9160248082019260009290919082900301818387803b158015611f1857600080fd5b505af1158015611f2c573d6000803e3d6000fd5b50505050611f51565b611f4e6001600160a01b0389163063ffffffff61507516565b91505b85821015611f905760405162461bcd60e51b815260040180806020018281038252602a8152602001806157c8602a913960400191505060405180910390fd5b611faa6001600160a01b038916338463ffffffff61510216565b604080516001600160a01b03808c1682528a16602082015233818301526060810189905260808101849052600160a082015290516000805160206157a88339815191529181900360c00190a150979650505050505050565b60008142811015612048576040805162461bcd60e51b815260206004820152601660248201526000805160206158ea833981519152604482015290519081900360640190fd5b83518551146120885760405162461bcd60e51b81526004018080602001828103825260268152602001806157f26026913960400191505060405180910390fd5b604080516370a0823160e01b815233600482015290516000916001600160a01b038b16916370a0823191602480820192602092909190829003018186803b1580156120d257600080fd5b505afa1580156120e6573d6000803e3d6000fd5b505050506040513d60208110156120fc57600080fd5b505186519091506001600160a01b037f00000000000000000000000000000000000000000000000000000000000000001690630a5ea466908c9033908a9060009061214357fe5b60200260200101518c6040518563ffffffff1660e01b815260040180856001600160a01b03166001600160a01b03168152602001846001600160a01b03166001600160a01b03168152602001836001600160a01b03166001600160a01b03168152602001828152602001945050505050600060405180830381600087803b1580156121cd57600080fd5b505af11580156121e1573d6000803e3d6000fd5b506000925050505b86518110156124ad5760018751038114156123575785818151811061220a57fe5b602002602001015160ff16600014156122ba5786818151811061222957fe5b60200260200101516001600160a01b031663bd6015b48d6040518263ffffffff1660e01b815260040180826001600160a01b03166001600160a01b03168152602001915050602060405180830381600087803b15801561228857600080fd5b505af115801561229c573d6000803e3d6000fd5b505050506040513d60208110156122b257600080fd5b506123529050565b8681815181106122c657fe5b60200260200101516001600160a01b031663dd93f59a8d6040518263ffffffff1660e01b815260040180826001600160a01b03166001600160a01b03168152602001915050602060405180830381600087803b15801561232557600080fd5b505af1158015612339573d6000803e3d6000fd5b505050506040513d602081101561234f57600080fd5b50505b6124a5565b85818151811061236357fe5b602002602001015160ff16600014156123f75786818151811061238257fe5b60200260200101516001600160a01b031663bd6015b48883600101815181106123a757fe5b60200260200101516040518263ffffffff1660e01b815260040180826001600160a01b03166001600160a01b03168152602001915050602060405180830381600087803b15801561232557600080fd5b86818151811061240357fe5b60200260200101516001600160a01b031663dd93f59a88836001018151811061242857fe5b60200260200101516040518263ffffffff1660e01b815260040180826001600160a01b03166001600160a01b03168152602001915050602060405180830381600087803b15801561247857600080fd5b505af115801561248c573d6000803e3d6000fd5b505050506040513d60208110156124a257600080fd5b50505b6001016121e9565b50604080516370a0823160e01b815233600482015290516125329183916001600160a01b038d16916370a08231916024808301926020929190829003018186803b1580156124fa57600080fd5b505afa15801561250e573d6000803e3d6000fd5b505050506040513d602081101561252457600080fd5b50519063ffffffff61517116565b9250868310156125735760405162461bcd60e51b815260040180806020018281038252602a8152602001806157c8602a913960400191505060405180910390fd5b604080516001600160a01b03808d168252808c1660208301528d1681830152606081018a905260808101859052600060a082015290516000805160206157a88339815191529181900360c00190a1505098975050505050505050565b6000805460ff1615612614576040805162461bcd60e51b815260206004820152600960248201526814915153951490539560ba1b604482015290519081900360640190fd5b6000805460ff191660011790558142811015612665576040805162461bcd60e51b815260206004820152601660248201526000805160206158ea833981519152604482015290519081900360640190fd5b7f00000000000000000000000000000000000000000000000000000000000000006001600160a01b03166309b8adb86040518163ffffffff1660e01b8152600401602060405180830381600087803b1580156126c057600080fd5b505af11580156126d4573d6000803e3d6000fd5b505050506040513d60208110156126ea57600080fd5b505191508a8a6127163385848e6001600160a01b03821660008051602061581883398151915214614d75565b61273c3385838d6001600160a01b03821660008051602061581883398151915214614d75565b6001600160a01b038216600080516020615818833981519152141561277f577f000000000000000000000000000000000000000000000000000000000000000091505b6001600160a01b03811660008051602061581883398151915214156127c157507f00000000000000000000000000000000000000000000000000000000000000005b6040805163c239212b60e01b81526001600160a01b03868116600483015233602483015284811660448301528381166064830152608482018c905260a482018b905260c4820189905260e482018a905291517f00000000000000000000000000000000000000000000000000000000000000009092169163c239212b916101048082019260009290919082900301818387803b15801561286057600080fd5b505af1158015612874573d6000803e3d6000fd5b50506000805460ff1916905550939d9c50505050505050505050505050565b80428110156128d7576040805162461bcd60e51b815260206004820152601660248201526000805160206158ea833981519152604482015290519081900360640190fd5b6129503386876001600160a01b031663d4b970466040518163ffffffff1660e01b8152600401602060405180830381600087803b15801561291757600080fd5b505af115801561292b573d6000803e3d6000fd5b505050506040513d602081101561294157600080fd5b505187600160ff891614614d75565b846001600160a01b0316639cf5453d876040518263ffffffff1660e01b815260040180826001600160a01b03166001600160a01b03168152602001915050600060405180830381600087803b1580156129a857600080fd5b505af11580156129bc573d6000803e3d6000fd5b50505050505050505050565b60008142811015612a0e576040805162461bcd60e51b815260206004820152601660248201526000805160206158ea833981519152604482015290519081900360640190fd5b8451865114612a4e5760405162461bcd60e51b81526004018080602001828103825260268152602001806157f26026913960400191505060405180910390fd5b6000612a696001600160a01b038b163363ffffffff6151ba16565b90508a8a612a933330848e6001600160a01b03821660008051602061581883398151915214614d75565b60005b89518160ff1610156131245760008a8260ff1681518110612ab357fe5b60200260200101519050898260ff1681518110612acc57fe5b602002602001015160ff1660001415612c73576000816001600160a01b0316634a248d2a6040518163ffffffff1660e01b8152600401602060405180830381600087803b158015612b1c57600080fd5b505af1158015612b30573d6000803e3d6000fd5b505050506040513d6020811015612b4657600080fd5b5051604080516370a0823160e01b815230600482015290519192506000916001600160a01b038416916370a08231916024808301926020929190829003018186803b158015612b9457600080fd5b505afa158015612ba8573d6000803e3d6000fd5b505050506040513d6020811015612bbe57600080fd5b50519050612bdc6001600160a01b038316848363ffffffff614ed916565b826001600160a01b0316638dae73338260006040518363ffffffff1660e01b815260040180838152602001828152602001806020018281038252600081526020016020019350505050602060405180830381600087803b158015612c3f57600080fd5b505af1158015612c53573d6000803e3d6000fd5b505050506040513d6020811015612c6957600080fd5b5061311b92505050565b898260ff1681518110612c8257fe5b602002602001015160ff1660011415612eca576000816001600160a01b031663d4b970466040518163ffffffff1660e01b8152600401602060405180830381600087803b158015612cd257600080fd5b505af1158015612ce6573d6000803e3d6000fd5b505050506040513d6020811015612cfc57600080fd5b5051604080516370a0823160e01b815230600482015290519192506000916001600160a01b038416916370a08231916024808301926020929190829003018186803b158015612d4a57600080fd5b505afa158015612d5e573d6000803e3d6000fd5b505050506040513d6020811015612d7457600080fd5b50519050612d926001600160a01b038316848363ffffffff614ed916565b6040805163ca19ebd960e01b81526001600160a01b0385811660048301526024820184905291516000927f0000000000000000000000000000000000000000000000000000000000000000169163ca19ebd9916044808301926020929190829003018186803b158015612e0457600080fd5b505afa158015612e18573d6000803e3d6000fd5b505050506040513d6020811015612e2e57600080fd5b50516040805163733e738360e11b815260048101839052602481018590526060604482015260006064820181905291519293506001600160a01b0387169263e67ce7069260a480840193602093929083900390910190829087803b158015612e9557600080fd5b505af1158015612ea9573d6000803e3d6000fd5b505050506040513d6020811015612ebf57600080fd5b5061311b9350505050565b600089600081518110612ed957fe5b60200260200101516001600160a01b03166370a08231306040518263ffffffff1660e01b815260040180826001600160a01b03166001600160a01b0316815260200191505060206040518083038186803b158015612f3657600080fd5b505afa158015612f4a573d6000803e3d6000fd5b505050506040513d6020811015612f6057600080fd5b50518a51909150612f9a90839083908d90600090612f7a57fe5b60200260200101516001600160a01b0316614ed99092919063ffffffff16565b816001600160a01b03166338ed17398260008d308e6040518663ffffffff1660e01b81526004018086815260200185815260200180602001846001600160a01b03166001600160a01b03168152602001838152602001828103825285818151815260200191508051906020019060200280838360005b83811015613028578181015183820152602001613010565b505050509050019650505050505050600060405180830381600087803b15801561305157600080fd5b505af1158015613065573d6000803e3d6000fd5b505050506040513d6000823e601f3d908101601f19168201604052602081101561308e57600080fd5b8101908080516040519392919084600160201b8211156130ad57600080fd5b9083019060208201858111156130c257600080fd5b82518660208202830111600160201b821117156130de57600080fd5b82525081516020918201928201910280838360005b8381101561310b5781810151838201526020016130f3565b5050505090500160405250505050505b50600101612a96565b50613159336131426001600160a01b0385163063ffffffff6151ba16565b6001600160a01b038516919063ffffffff61510216565b61318d336131766001600160a01b0384163063ffffffff6151ba16565b6001600160a01b038416919063ffffffff61510216565b6131b6836131aa6001600160a01b0384163363ffffffff6151ba16565b9063ffffffff61517116565b9450898510156131f75760405162461bcd60e51b815260040180806020018281038252602a8152602001806157c8602a913960400191505060405180910390fd5b604080516001600160a01b038085168252831660208201523381830152606081018d905260808101879052600260a082015290516000805160206157a88339815191529181900360c00190a15050505098975050505050505050565b60008142811015613299576040805162461bcd60e51b815260206004820152601660248201526000805160206158ea833981519152604482015290519081900360640190fd5b60006132b46001600160a01b038b163363ffffffff6151ba16565b90506001600160a01b038b1660008051602061581883398151915214613380576040805163052f523360e11b81526001600160a01b038d81166004830152336024830152306044830152606482018a905291517f000000000000000000000000000000000000000000000000000000000000000090921691630a5ea4669160848082019260009290919082900301818387803b15801561335357600080fd5b505af1158015613367573d6000803e3d6000fd5b50613380925050506001600160a01b038c168a89614ed9565b6001600160a01b03881660009081526002602052604090205460ff166133d75760405162461bcd60e51b81526004018080602001828103825260258152602001806158386025913960400191505060405180910390fd5b60006001600160a01b03808a16908d1660008051602061581883398151915214613402576000613404565b345b876040518082805190602001908083835b602083106134345780518252601f199092019160209182019101613415565b6001836020036101000a03801982511681845116808217855250505050505090500191505060006040518083038185875af1925050503d8060008114613496576040519150601f19603f3d011682016040523d82523d6000602084013e61349b565b606091505b50509050806134db5760405162461bcd60e51b815260040180806020018281038252602d81526020018061585d602d913960400191505060405180910390fd5b61350f336134f86001600160a01b038f163063ffffffff6151ba16565b6001600160a01b038f16919063ffffffff61510216565b6135433361352c6001600160a01b038e163063ffffffff6151ba16565b6001600160a01b038e16919063ffffffff61510216565b613560826131aa6001600160a01b038e163363ffffffff6151ba16565b9350868410156135a15760405162461bcd60e51b815260040180806020018281038252602a8152602001806157c8602a913960400191505060405180910390fd5b604080516001600160a01b03808f1682528d1660208201523381830152606081018a905260808101869052600360a082015290516000805160206157a88339815191529181900360c00190a150505098975050505050505050565b7f000000000000000000000000000000000000000000000000000000000000000081565b6001546001600160a01b0316331461366f576040805162461bcd60e51b815260206004820152600d60248201526c494e56414c49445f434c41494d60981b604482015290519081900360640190fd5b600154600080546040516001600160a01b0393841693610100909204909116917f8be0079c531659141344cd1fd0a4f28419497f9722a3daafe3b4186f6b6457e091a36001805460008054610100600160a81b0319166101006001600160a01b038416021790556001600160a01b0319169055565b60008054819060ff161561372b576040805162461bcd60e51b815260206004820152600960248201526814915153951490539560ba1b604482015290519081900360640190fd5b6000805460ff19166001179055824281101561377c576040805162461bcd60e51b815260206004820152601660248201526000805160206158ea833981519152604482015290519081900360640190fd5b60006001600160a01b038d16600080516020615818833981519152146137a2578c6137c4565b7f00000000000000000000000000000000000000000000000000000000000000005b905060006001600160a01b038d16600080516020615818833981519152146137ec578c61380e565b7f00000000000000000000000000000000000000000000000000000000000000005b60408051630bf9f81b60e31b81523360048201526001600160a01b0385811660248301528381166044830152606482018e9052608482018d905260a482018c905260c482018b905291519293507f000000000000000000000000000000000000000000000000000000000000000090911691635fcfc0d89160e4808201926020929091908290030181600087803b1580156138a857600080fd5b505af11580156138bc573d6000803e3d6000fd5b505050506040513d60208110156138d257600080fd5b505194508d91508c90506139023386848f6001600160a01b03821660008051602061581883398151915214614d75565b6139283386838e6001600160a01b03821660008051602061581883398151915214614d75565b5050826001600160a01b0316634c85b4258e6040518263ffffffff1660e01b815260040180826001600160a01b03166001600160a01b03168152602001915050606060405180830381600087803b15801561398257600080fd5b505af1158015613996573d6000803e3d6000fd5b505050506040513d60608110156139ac57600080fd5b50516000805460ff19169055929d929c50919a5050505050505050505050565b7f000000000000000000000000000000000000000000000000000000000000000081565b60026020526000908152604090205460ff1681565b60008142811015613a4b576040805162461bcd60e51b815260206004820152601660248201526000805160206158ea833981519152604482015290519081900360640190fd5b8351855114613a8b5760405162461bcd60e51b81526004018080602001828103825260268152602001806157f26026913960400191505060405180910390fd5b604080516370a0823160e01b815233600482015290516000916001600160a01b038a16916370a0823191602480820192602092909190829003018186803b158015613ad557600080fd5b505afa158015613ae9573d6000803e3d6000fd5b505050506040513d6020811015613aff57600080fd5b505160408051630d0e30db60e41b815290519192506001600160a01b037f0000000000000000000000000000000000000000000000000000000000000000169163d0e30db0913491600480830192600092919082900301818588803b158015613b6757600080fd5b505af1158015613b7b573d6000803e3d6000fd5b50505050507f00000000000000000000000000000000000000000000000000000000000000006001600160a01b031663a9059cbb87600081518110613bbc57fe5b6020026020010151346040518363ffffffff1660e01b815260040180836001600160a01b03166001600160a01b0316815260200182815260200192505050602060405180830381600087803b158015613c1457600080fd5b505af1158015613c28573d6000803e3d6000fd5b505050506040513d6020811015613c3e57600080fd5b50600090505b8651811015613f08576001875103811415613db257858181518110613c6557fe5b602002602001015160ff1660001415613d1557868181518110613c8457fe5b60200260200101516001600160a01b031663bd6015b48b6040518263ffffffff1660e01b815260040180826001600160a01b03166001600160a01b03168152602001915050602060405180830381600087803b158015613ce357600080fd5b505af1158015613cf7573d6000803e3d6000fd5b505050506040513d6020811015613d0d57600080fd5b50613dad9050565b868181518110613d2157fe5b60200260200101516001600160a01b031663dd93f59a8b6040518263ffffffff1660e01b815260040180826001600160a01b03166001600160a01b03168152602001915050602060405180830381600087803b158015613d8057600080fd5b505af1158015613d94573d6000803e3d6000fd5b505050506040513d6020811015613daa57600080fd5b50505b613f00565b858181518110613dbe57fe5b602002602001015160ff1660001415613e5257868181518110613ddd57fe5b60200260200101516001600160a01b031663bd6015b4888360010181518110613e0257fe5b60200260200101516040518263ffffffff1660e01b815260040180826001600160a01b03166001600160a01b03168152602001915050602060405180830381600087803b158015613d8057600080fd5b868181518110613e5e57fe5b60200260200101516001600160a01b031663dd93f59a888360010181518110613e8357fe5b60200260200101516040518263ffffffff1660e01b815260040180826001600160a01b03166001600160a01b03168152602001915050602060405180830381600087803b158015613ed357600080fd5b505af1158015613ee7573d6000803e3d6000fd5b505050506040513d6020811015613efd57600080fd5b50505b600101613c44565b50604080516370a0823160e01b81523360048201529051613f559183916001600160a01b038c16916370a08231916024808301926020929190829003018186803b1580156124fa57600080fd5b925086831015613f965760405162461bcd60e51b815260040180806020018281038252602a8152602001806157c8602a913960400191505060405180910390fd5b6040805160008051602061581883398151915281526001600160a01b03808b1660208301528b168183015234606082015260808101859052600060a082015290516000805160206157a88339815191529181900360c00190a150509695505050505050565b6001546001600160a01b031681565b600080548190819060ff1615614053576040805162461bcd60e51b815260206004820152600960248201526814915153951490539560ba1b604482015290519081900360640190fd5b6000805460ff1916600117905583428110156140a4576040805162461bcd60e51b815260206004820152601660248201526000805160206158ea833981519152604482015290519081900360640190fd5b6140af8c8b8b615264565b90935091508783108015906140c45750868210155b6140ff5760405162461bcd60e51b815260040180806020018281038252602b815260200180615756602b913960400191505060405180910390fd5b60008c905061417d3382836001600160a01b0316634a248d2a6040518163ffffffff1660e01b8152600401602060405180830381600087803b15801561414457600080fd5b505af1158015614158573d6000803e3d6000fd5b505050506040513d602081101561416e57600080fd5b505187600160ff8d1614614d75565b6141f63382836001600160a01b031663d4b970466040518163ffffffff1660e01b8152600401602060405180830381600087803b1580156141bd57600080fd5b505af11580156141d1573d6000803e3d6000fd5b505050506040513d60208110156141e757600080fd5b505186600260ff8d1614614d75565b806001600160a01b0316634c85b4258d6040518263ffffffff1660e01b815260040180826001600160a01b03166001600160a01b03168152602001915050606060405180830381600087803b15801561424e57600080fd5b505af1158015614262573d6000803e3d6000fd5b505050506040513d606081101561427857600080fd5b50519450600160ff881614801561428e57508334115b156142c45760405133903486900380156108fc02916000818181858888f193505050501580156142c2573d6000803e3d6000fd5b505b8660ff1660021480156142d657508234115b1561430c5760405133903485900380156108fc02916000818181858888f1935050505015801561430a573d6000803e3d6000fd5b505b50506000805460ff19169055919a90995090975095505050505050565b7f000000000000000000000000000000000000000000000000000000000000000081565b7f000000000000000000000000000000000000000000000000000000000000000081565b600081428110156143b7576040805162461bcd60e51b815260206004820152601660248201526000805160206158ea833981519152604482015290519081900360640190fd5b83518551146143f75760405162461bcd60e51b81526004018080602001828103825260268152602001806157f26026913960400191505060405180910390fd5b7f00000000000000000000000000000000000000000000000000000000000000006001600160a01b0316630a5ea46689338860008151811061443557fe5b60200260200101518b6040518563ffffffff1660e01b815260040180856001600160a01b03166001600160a01b03168152602001846001600160a01b03166001600160a01b03168152602001836001600160a01b03166001600160a01b03168152602001828152602001945050505050600060405180830381600087803b1580156144bf57600080fd5b505af11580156144d3573d6000803e3d6000fd5b506000925050505b855181101561479f576001865103811415614649578481815181106144fc57fe5b602002602001015160ff16600014156145ac5785818151811061451b57fe5b60200260200101516001600160a01b031663bd6015b4306040518263ffffffff1660e01b815260040180826001600160a01b03166001600160a01b03168152602001915050602060405180830381600087803b15801561457a57600080fd5b505af115801561458e573d6000803e3d6000fd5b505050506040513d60208110156145a457600080fd5b506146449050565b8581815181106145b857fe5b60200260200101516001600160a01b031663dd93f59a306040518263ffffffff1660e01b815260040180826001600160a01b03166001600160a01b03168152602001915050602060405180830381600087803b15801561461757600080fd5b505af115801561462b573d6000803e3d6000fd5b505050506040513d602081101561464157600080fd5b50505b614797565b84818151811061465557fe5b602002602001015160ff16600014156146e95785818151811061467457fe5b60200260200101516001600160a01b031663bd6015b487836001018151811061469957fe5b60200260200101516040518263ffffffff1660e01b815260040180826001600160a01b03166001600160a01b03168152602001915050602060405180830381600087803b15801561461757600080fd5b8581815181106146f557fe5b60200260200101516001600160a01b031663dd93f59a87836001018151811061471a57fe5b60200260200101516040518263ffffffff1660e01b815260040180826001600160a01b03166001600160a01b03168152602001915050602060405180830381600087803b15801561476a57600080fd5b505af115801561477e573d6000803e3d6000fd5b505050506040513d602081101561479457600080fd5b50505b6001016144db565b50604080516370a0823160e01b815230600482015290516001600160a01b037f000000000000000000000000000000000000000000000000000000000000000016916370a08231916024808301926020929190829003018186803b15801561480657600080fd5b505afa15801561481a573d6000803e3d6000fd5b505050506040513d602081101561483057600080fd5b50519150858210156148735760405162461bcd60e51b815260040180806020018281038252602a8152602001806157c8602a913960400191505060405180910390fd5b7f00000000000000000000000000000000000000000000000000000000000000006001600160a01b0316632e1a7d4d836040518263ffffffff1660e01b815260040180828152602001915050600060405180830381600087803b1580156148d957600080fd5b505af11580156148ed573d6000803e3d6000fd5b50506040516001600160a01b038c16925084156108fc02915084906000818181858888f19350505050158015614927573d6000803e3d6000fd5b50604080516001600160a01b03808b16825260008051602061581883398151915260208301528b16818301526060810189905260808101849052600060a082015290516000805160206157a88339815191529181900360c00190a150979650505050505050565b600081428110156149d4576040805162461bcd60e51b815260206004820152601660248201526000805160206158ea833981519152604482015290519081900360640190fd5b8760006001600160a01b038916600080516020615818833981519152146149fb5788614a1d565b7f00000000000000000000000000000000000000000000000000000000000000005b90507f00000000000000000000000000000000000000000000000000000000000000006001600160a01b03166389edcf146040518163ffffffff1660e01b8152600401602060405180830381600087803b158015614a7a57600080fd5b505af1158015614a8e573d6000803e3d6000fd5b505050506040513d6020811015614aa457600080fd5b50519350614ab63385848b6000614d75565b7f00000000000000000000000000000000000000000000000000000000000000006001600160a01b031663b67df331853385858c8c6040518763ffffffff1660e01b815260040180876001600160a01b03166001600160a01b03168152602001866001600160a01b03166001600160a01b03168152602001856001600160a01b03166001600160a01b03168152602001846001600160a01b03166001600160a01b031681526020018060200180602001838103835285818151815260200191508051906020019060200280838360005b83811015614b9e578181015183820152602001614b86565b50505050905001838103825284818151815260200191508051906020019060200280838360005b83811015614bdd578181015183820152602001614bc5565b5050505090500198505050505050505050600060405180830381600087803b158015614c0857600080fd5b505af1158015614c1c573d6000803e3d6000fd5b505050505050509695505050505050565b60005461010090046001600160a01b03163314614c7d576040805162461bcd60e51b81526020600482015260096024820152682727aa2fa7aba722a960b91b604482015290519081900360640190fd5b6001600160a01b03166000908152600260205260409020805460ff19166001179055565b60005461010090046001600160a01b03163314614cf1576040805162461bcd60e51b81526020600482015260096024820152682727aa2fa7aba722a960b91b604482015290519081900360640190fd5b600080546040516001600160a01b038085169361010090930416917fdcf55418cee3220104fef63f979ff3c4097ad240c0c43dcb33ce837748983e6291a3600180546001600160a01b0319166001600160a01b0392909216919091179055565b7f000000000000000000000000000000000000000000000000000000000000000081565b8015614e36578115614e31577f00000000000000000000000000000000000000000000000000000000000000006001600160a01b031663d0e30db0836040518263ffffffff1660e01b81526004016000604051808303818588803b158015614ddc57600080fd5b505af1158015614df0573d6000803e3d6000fd5b505050506001600160a01b03851630149050614e3157614e317f00000000000000000000000000000000000000000000000000000000000000008584615376565b614ed2565b6040805163052f523360e11b81526001600160a01b038581166004830152878116602483015286811660448301526064820185905291517f000000000000000000000000000000000000000000000000000000000000000090921691630a5ea4669160848082019260009290919082900301818387803b158015614eb957600080fd5b505af1158015614ecd573d6000803e3d6000fd5b505050505b5050505050565b60408051636eb1769f60e11b81523060048201526001600160a01b038481166024830152915160009286169163dd62ed3e916044808301926020929190829003018186803b158015614f2a57600080fd5b505afa158015614f3e573d6000803e3d6000fd5b505050506040513d6020811015614f5457600080fd5b5051905081811015614f9d578015614f8157614f816001600160a01b03851684600063ffffffff6153c816565b614f9d6001600160a01b0385168460001963ffffffff6153c816565b50505050565b801561506a578115615065577f00000000000000000000000000000000000000000000000000000000000000006001600160a01b0316632e1a7d4d836040518263ffffffff1660e01b815260040180828152602001915050600060405180830381600087803b15801561501557600080fd5b505af1158015615029573d6000803e3d6000fd5b50506040516001600160a01b038716925084156108fc02915084906000818181858888f19350505050158015615063573d6000803e3d6000fd5b505b614f9d565b614f9d838584615376565b6000826001600160a01b03166370a08231836040518263ffffffff1660e01b815260040180826001600160a01b03166001600160a01b0316815260200191505060206040518083038186803b1580156150cd57600080fd5b505afa1580156150e1573d6000803e3d6000fd5b505050506040513d60208110156150f757600080fd5b505190505b92915050565b801561516c57615111836154db565b15615152576040516001600160a01b0383169082156108fc029083906000818181858888f1935050505015801561514c573d6000803e3d6000fd5b5061516c565b61516c6001600160a01b038416838363ffffffff61537616565b505050565b6000828211156151b4576040805162461bcd60e51b815260206004820152600960248201526829aaa12fa2a92927a960b91b604482015290519081900360640190fd5b50900390565b60006151c5836154db565b156151db57506001600160a01b038116316150fc565b826001600160a01b03166370a08231836040518263ffffffff1660e01b815260040180826001600160a01b03166001600160a01b0316815260200191505060206040518083038186803b15801561523157600080fd5b505afa158015615245573d6000803e3d6000fd5b505050506040513d602081101561525b57600080fd5b505190506150fc565b600080600080866001600160a01b03166336223ce96040518163ffffffff1660e01b8152600401604080518083038186803b1580156152a257600080fd5b505afa1580156152b6573d6000803e3d6000fd5b505050506040513d60408110156152cc57600080fd5b5080516020909101519092509050801580156152e6575081155b156152f2578593508492505b801580156153005750600082115b1561530d57859350600092505b60008111801561531d5750600082115b1561536c57600061532e87846154fa565b9050600061533c87846154fa565b905080821161535957879550615352838361552b565b9450615369565b869450615366848261552b565b95505b50505b5050935093915050565b604080516001600160a01b038416602482015260448082018490528251808303909101815260649091019091526020810180516001600160e01b031663a9059cbb60e01b17905261516c908490615555565b80158061544e575060408051636eb1769f60e11b81523060048201526001600160a01b03848116602483015291519185169163dd62ed3e91604480820192602092909190829003018186803b15801561542057600080fd5b505afa158015615434573d6000803e3d6000fd5b505050506040513d602081101561544a57600080fd5b5051155b6154895760405162461bcd60e51b81526004018080602001828103825260368152602001806158b46036913960400191505060405180910390fd5b604080516001600160a01b038416602482015260448082018490528251808303909101815260649091019091526020810180516001600160e01b031663095ea7b360e01b17905261516c908490615555565b6001600160a01b03811660008051602061581883398151915214919050565b60006155248261551885670de0b6b3a764000063ffffffff6156aa16565b9063ffffffff61570516565b9392505050565b6000670de0b6b3a7640000615546848463ffffffff6156aa16565b8161554d57fe5b049392505050565b60006060836001600160a01b0316836040518082805190602001908083835b602083106155935780518252601f199092019160209182019101615574565b6001836020036101000a0380198251168184511680821785525050505050509050019150506000604051808303816000865af19150503d80600081146155f5576040519150601f19603f3d011682016040523d82523d6000602084013e6155fa565b606091505b509150915081615651576040805162461bcd60e51b815260206004820181905260248201527f5361666545524332303a206c6f772d6c6576656c2063616c6c206661696c6564604482015290519081900360640190fd5b805115614f9d5780806020019051602081101561566d57600080fd5b5051614f9d5760405162461bcd60e51b815260040180806020018281038252602a81526020018061588a602a913960400191505060405180910390fd5b6000826156b9575060006150fc565b828202828482816156c657fe5b0414615524576040805162461bcd60e51b815260206004820152600960248201526826aaa62fa2a92927a960b91b604482015290519081900360640190fd5b600080821161574c576040805162461bcd60e51b815260206004820152600e60248201526d2224ab24a224a723afa2a92927a960911b604482015290519081900360640190fd5b81838161554d57fefe444f444f563250726f787930313a206465706f73697420616d6f756e74206973206e6f7420656e6f756768444f444f563250726f787930313a2052657475726e20444c50206973206e6f7420656e6f756768941d6dd6ae466476873589f5fa27ffeb20fef8d1f5cbf25d5610c662341f0a70444f444f563250726f787930313a2052657475726e20616d6f756e74206973206e6f7420656e6f756768444f444f563250726f787930313a20504152414d535f4c454e4754485f4e4f545f4d41544348000000000000000000000000eeeeeeeeeeeeeeeeeeeeeeeeeeeeeeeeeeeeeeee444f444f563250726f787930313a204e6f742057686974656c69737420436f6e7472616374444f444f563250726f787930313a20436f6e7472616374205377617020657865637574696f6e204661696c65645361666545524332303a204552433230206f7065726174696f6e20646964206e6f7420737563636565645361666545524332303a20617070726f76652066726f6d206e6f6e2d7a65726f20746f206e6f6e2d7a65726f20616c6c6f77616e6365444f444f563250726f787930313a204558504952454400000000000000000000a26469706673582212203ec895dec0136b43bcf6185a90ac405bef4da0396ea81e4158a3bf1ce6ca585e64736f6c63430006090033",
  "immutableReferences": {
    "10931": [
      {
        "length": 32,
        "start": 5071
      },
      {
        "length": 32,
        "start": 7738
      },
      {
        "length": 32,
        "start": 7888
      },
      {
        "length": 32,
        "start": 10077
      },
      {
        "length": 32,
        "start": 10145
      },
      {
        "length": 32,
        "start": 14244
      },
      {
        "length": 32,
        "start": 14318
      },
      {
        "length": 32,
        "start": 15134
      },
      {
        "length": 32,
        "start": 15234
      },
      {
        "length": 32,
        "start": 18368
      },
      {
        "length": 32,
        "start": 18549
      },
      {
        "length": 32,
        "start": 18941
      },
      {
        "length": 32,
        "start": 19843
      },
      {
        "length": 32,
        "start": 19979
      },
      {
        "length": 32,
        "start": 20401
      }
    ],
    "10933": [
      {
        "length": 32,
        "start": 8461
      },
      {
        "length": 32,
        "start": 13065
      },
      {
        "length": 32,
        "start": 13822
      },
      {
        "length": 32,
        "start": 17401
      },
      {
        "length": 32,
        "start": 20079
      }
    ],
    "10935": [
      {
        "length": 32,
        "start": 7402
      },
      {
        "length": 32,
        "start": 11710
      },
      {
        "length": 32,
        "start": 17195
      }
    ],
    "10937": [
      {
        "length": 32,
        "start": 14429
      },
      {
        "length": 32,
        "start": 14798
      }
    ],
    "10939": [
      {
        "length": 32,
        "start": 9831
      },
      {
        "length": 32,
        "start": 10261
      },
      {
        "length": 32,
        "start": 17231
      }
    ],
    "10941": [
      {
        "length": 32,
        "start": 18977
      },
      {
        "length": 32,
        "start": 19128
      },
      {
        "length": 32,
        "start": 19795
      }
    ]
  },
  "source": "/*\n\n    Copyright 2020 DODO ZOO.\n    SPDX-License-Identifier: Apache-2.0\n\n*/\n\npragma solidity 0.6.9;\n\nimport {IDODOV2Proxy01} from \"./intf/IDODOV2Proxy01.sol\";\nimport {IDODOV2} from \"./intf/IDODOV2.sol\";\nimport {IDODOV1} from \"./intf/IDODOV1.sol\";\nimport {IDODOApprove} from \"../intf/IDODOApprove.sol\";\nimport {IDODOSellHelper} from \"./helper/DODOSellHelper.sol\";\nimport {IERC20} from \"../intf/IERC20.sol\";\nimport {IWETH} from \"../intf/IWETH.sol\";\nimport {IUni} from \"./intf/IUni.sol\";\nimport {SafeMath} from \"../lib/SafeMath.sol\";\nimport {UniversalERC20} from \"./lib/UniversalERC20.sol\";\nimport {SafeERC20} from \"../lib/SafeERC20.sol\";\nimport {DecimalMath} from \"../lib/DecimalMath.sol\";\nimport {ReentrancyGuard} from \"../lib/ReentrancyGuard.sol\";\nimport {InitializableOwnable} from \"../lib/InitializableOwnable.sol\";\n\ncontract DODOV2Proxy01 is IDODOV2Proxy01, ReentrancyGuard, InitializableOwnable {\n    using SafeMath for uint256;\n    using UniversalERC20 for IERC20;\n\n    // ============ Storage ============\n\n    address constant _ETH_ADDRESS_ = 0xEeeeeEeeeEeEeeEeEeEeeEEEeeeeEeeeeeeeEEeE;\n    address public immutable _WETH_;\n    address public immutable _DODO_APPROVE_;\n    address public immutable _DODO_SELL_HELPER_;\n    address public immutable _DVM_FACTORY_;\n    address public immutable _DPP_FACTORY_;\n    address public immutable _CP_FACTORY_;\n    mapping (address => bool) public isWhiteListed;\n\n    // ============ Events ============\n\n    event OrderHistory(\n        address fromToken,\n        address toToken,\n        address sender,\n        uint256 fromAmount,\n        uint256 returnAmount,\n        uint8 sourceFlag\n    );\n\n    // ============ Modifiers ============\n\n    modifier judgeExpired(uint256 deadLine) {\n        require(deadLine >= block.timestamp, \"DODOV2Proxy01: EXPIRED\");\n        _;\n    }\n\n    fallback() external payable {}\n\n    receive() external payable {}\n\n    constructor(\n        address dvmFactory,\n        address dppFactory,\n        address cpFactory,\n        address payable weth,\n        address dodoApprove,\n        address dodoSellHelper\n    ) public {\n        _DVM_FACTORY_ = dvmFactory;\n        _DPP_FACTORY_ = dppFactory;\n        _CP_FACTORY_ = cpFactory;\n        _WETH_ = weth;\n        _DODO_APPROVE_ = dodoApprove;\n        _DODO_SELL_HELPER_ = dodoSellHelper;\n    }\n\n    function addWhiteList (address contractAddr) public onlyOwner {\n        isWhiteListed[contractAddr] = true;\n    }\n\n    function removeWhiteList (address contractAddr) public onlyOwner {\n        isWhiteListed[contractAddr] = false;\n    }\n\n    // ============ DVM Functions (create & add liquidity) ============\n\n    function createDODOVendingMachine(\n        address assetTo,\n        address baseToken,\n        address quoteToken,\n        uint256 baseInAmount,\n        uint256 quoteInAmount,\n        uint256 lpFeeRate,\n        uint256 mtFeeRate,\n        uint256 i,\n        uint256 k,\n        uint256 deadLine\n    )\n        external\n        override\n        payable\n        preventReentrant\n        judgeExpired(deadLine)\n        returns (address newVendingMachine, uint256 shares)\n    {\n        {\n            address _baseToken = baseToken == _ETH_ADDRESS_ ? _WETH_ : baseToken;\n            address _quoteToken = quoteToken == _ETH_ADDRESS_ ? _WETH_ : quoteToken;\n            newVendingMachine = IDODOV2(_DVM_FACTORY_).createDODOVendingMachine(\n                msg.sender,\n                _baseToken,\n                _quoteToken,\n                lpFeeRate,\n                mtFeeRate,\n                i,\n                k\n            );\n        }\n\n        {\n            address _baseToken = baseToken;\n            address _quoteToken = quoteToken;\n            _deposit(\n                msg.sender,\n                newVendingMachine,\n                _baseToken,\n                baseInAmount,\n                _baseToken == _ETH_ADDRESS_\n            );\n            _deposit(\n                msg.sender,\n                newVendingMachine,\n                _quoteToken,\n                quoteInAmount,\n                _quoteToken == _ETH_ADDRESS_\n            );\n        }\n\n        (shares, , ) = IDODOV2(newVendingMachine).buyShares(assetTo);\n    }\n\n    function addDVMLiquidity(\n        address dvmAddress,\n        address to,\n        uint256 baseInAmount,\n        uint256 quoteInAmount,\n        uint256 baseMinAmount,\n        uint256 quoteMinAmount,\n        uint8 flag, // 0 - ERC20, 1 - baseInETH, 2 - quoteInETH\n        uint256 deadLine\n    )\n        external\n        override\n        payable\n        preventReentrant\n        judgeExpired(deadLine)\n        returns (\n            uint256 shares,\n            uint256 baseAdjustedInAmount,\n            uint256 quoteAdjustedInAmount\n        )\n    {\n        (baseAdjustedInAmount, quoteAdjustedInAmount) = _addDVMLiquidity(\n            dvmAddress,\n            baseInAmount,\n            quoteInAmount\n        );\n        require(\n            baseAdjustedInAmount >= baseMinAmount && quoteAdjustedInAmount >= quoteMinAmount,\n            \"DODOV2Proxy01: deposit amount is not enough\"\n        );\n        address _dvm = dvmAddress;\n\n        _deposit(msg.sender, _dvm, IDODOV2(_dvm)._BASE_TOKEN_(), baseAdjustedInAmount, flag == 1);\n        _deposit(msg.sender, _dvm, IDODOV2(_dvm)._QUOTE_TOKEN_(), quoteAdjustedInAmount, flag == 2);\n        \n        (shares, , ) = IDODOV2(_dvm).buyShares(to);\n        // refund dust eth\n        if (flag == 1 && msg.value > baseAdjustedInAmount) msg.sender.transfer(msg.value - baseAdjustedInAmount);\n        if (flag == 2 && msg.value > quoteAdjustedInAmount) msg.sender.transfer(msg.value - quoteAdjustedInAmount);\n    }\n\n    function _addDVMLiquidity(\n        address dvmAddress,\n        uint256 baseInAmount,\n        uint256 quoteInAmount\n    ) internal view returns (uint256 baseAdjustedInAmount, uint256 quoteAdjustedInAmount) {\n        (uint256 baseReserve, uint256 quoteReserve) = IDODOV2(dvmAddress).getVaultReserve();\n        if (quoteReserve == 0 && baseReserve == 0) {\n            baseAdjustedInAmount = baseInAmount;\n            quoteAdjustedInAmount = quoteInAmount;\n        }\n        if (quoteReserve == 0 && baseReserve > 0) {\n            baseAdjustedInAmount = baseInAmount;\n            quoteAdjustedInAmount = 0;\n        }\n        if (quoteReserve > 0 && baseReserve > 0) {\n            uint256 baseIncreaseRatio = DecimalMath.divFloor(baseInAmount, baseReserve);\n            uint256 quoteIncreaseRatio = DecimalMath.divFloor(quoteInAmount, quoteReserve);\n            if (baseIncreaseRatio <= quoteIncreaseRatio) {\n                baseAdjustedInAmount = baseInAmount;\n                quoteAdjustedInAmount = DecimalMath.mulFloor(quoteReserve, baseIncreaseRatio);\n            } else {\n                quoteAdjustedInAmount = quoteInAmount;\n                baseAdjustedInAmount = DecimalMath.mulFloor(baseReserve, quoteIncreaseRatio);\n            }\n        }\n    }\n\n    // ============ DPP Functions (create & reset) ============\n\n    function createDODOPrivatePool(\n        address baseToken,\n        address quoteToken,\n        uint256 baseInAmount,\n        uint256 quoteInAmount,\n        uint256 lpFeeRate,\n        uint256 mtFeeRate,\n        uint256 i,\n        uint256 k,\n        uint256 deadLine\n    )\n        external\n        override\n        payable\n        preventReentrant\n        judgeExpired(deadLine)\n        returns (address newPrivatePool)\n    {\n        newPrivatePool = IDODOV2(_DPP_FACTORY_).createDODOPrivatePool();\n\n        address _baseToken = baseToken;\n        address _quoteToken = quoteToken;\n        _deposit(msg.sender, newPrivatePool, _baseToken, baseInAmount, _baseToken == _ETH_ADDRESS_);\n        _deposit(\n            msg.sender,\n            newPrivatePool,\n            _quoteToken,\n            quoteInAmount,\n            _quoteToken == _ETH_ADDRESS_\n        );\n\n        if (_baseToken == _ETH_ADDRESS_) _baseToken = _WETH_;\n        if (_quoteToken == _ETH_ADDRESS_) _quoteToken = _WETH_;\n\n        IDODOV2(_DPP_FACTORY_).initDODOPrivatePool(\n            newPrivatePool,\n            msg.sender,\n            _baseToken,\n            _quoteToken,\n            lpFeeRate,\n            mtFeeRate,\n            k,\n            i\n        );\n    }\n\n    function resetDODOPrivatePool(\n        address dppAddress,\n        uint256[] memory paramList,  //0 - newLpFeeRate, 1 - newMtFeeRate, 2 - newI, 3 - newK\n        uint256[] memory amountList, //0 - baseInAmount, 1 - quoteInAmount, 2 - baseOutAmount, 3- quoteOutAmount\n        uint8 flag, // 0 - ERC20, 1 - baseInETH, 2 - quoteInETH, 3 - baseOutETH, 4 - quoteOutETH\n        uint256 minBaseReserve,\n        uint256 minQuoteReserve,\n        uint256 deadLine\n    ) external override payable preventReentrant judgeExpired(deadLine) {\n        _deposit(\n            msg.sender,\n            dppAddress,\n            IDODOV2(dppAddress)._BASE_TOKEN_(),\n            amountList[0],\n            flag == 1\n        );\n        _deposit(\n            msg.sender,\n            dppAddress,\n            IDODOV2(dppAddress)._QUOTE_TOKEN_(),\n            amountList[1],\n            flag == 2\n        );\n\n        require(IDODOV2(IDODOV2(dppAddress)._OWNER_()).reset(\n            msg.sender,\n            paramList[0],\n            paramList[1],\n            paramList[2],\n            paramList[3],\n            amountList[2],\n            amountList[3],\n            minBaseReserve,\n            minQuoteReserve\n        ), \"Reset Failed\");\n\n        _withdraw(msg.sender, IDODOV2(dppAddress)._BASE_TOKEN_(), amountList[2], flag == 3);\n        _withdraw(msg.sender, IDODOV2(dppAddress)._QUOTE_TOKEN_(), amountList[3], flag == 4);\n    }\n\n    // ============ Swap ============\n\n    function dodoSwapV2ETHToToken(\n        address payable assetTo,\n        address toToken,\n        uint256 minReturnAmount,\n        address[] memory dodoPairs,\n        uint8[] memory directions,\n        uint256 deadLine\n    )\n        external\n        override\n        payable\n        judgeExpired(deadLine)\n        returns (uint256 returnAmount)\n    {\n        require(dodoPairs.length == directions.length, \"DODOV2Proxy01: PARAMS_LENGTH_NOT_MATCH\");\n        uint256 originToTokenBalance = IERC20(toToken).balanceOf(msg.sender);\n\n        IWETH(_WETH_).deposit{value: msg.value}();\n        IWETH(_WETH_).transfer(dodoPairs[0], msg.value);\n\n        for (uint256 i = 0; i < dodoPairs.length; i++) {\n            if (i == dodoPairs.length - 1) {\n                if (directions[i] == 0) {\n                    IDODOV2(dodoPairs[i]).sellBase(assetTo);\n                } else {\n                    IDODOV2(dodoPairs[i]).sellQuote(assetTo);\n                }\n            } else {\n                if (directions[i] == 0) {\n                    IDODOV2(dodoPairs[i]).sellBase(dodoPairs[i + 1]);\n                } else {\n                    IDODOV2(dodoPairs[i]).sellQuote(dodoPairs[i + 1]);\n                }\n            }\n        }\n\n        returnAmount = IERC20(toToken).balanceOf(msg.sender).sub(originToTokenBalance);\n        require(returnAmount >= minReturnAmount, \"DODOV2Proxy01: Return amount is not enough\");\n        emit OrderHistory(\n            _ETH_ADDRESS_,\n            toToken,\n            assetTo,\n            msg.value,\n            returnAmount,\n            0\n        );\n    }\n\n    function dodoSwapV2TokenToETH(\n        address payable assetTo,\n        address fromToken,\n        uint256 fromTokenAmount,\n        uint256 minReturnAmount,\n        address[] memory dodoPairs,\n        uint8[] memory directions,\n        uint256 deadLine\n    )\n        external\n        override\n        judgeExpired(deadLine)\n        returns (uint256 returnAmount)\n    {\n        require(dodoPairs.length == directions.length, \"DODOV2Proxy01: PARAMS_LENGTH_NOT_MATCH\");\n        IDODOApprove(_DODO_APPROVE_).claimTokens(fromToken, msg.sender, dodoPairs[0], fromTokenAmount);\n\n        for (uint256 i = 0; i < dodoPairs.length; i++) {\n            if (i == dodoPairs.length - 1) {\n                if (directions[i] == 0) {\n                    IDODOV2(dodoPairs[i]).sellBase(address(this));\n                } else {\n                    IDODOV2(dodoPairs[i]).sellQuote(address(this));\n                }\n            } else {\n                if (directions[i] == 0) {\n                    IDODOV2(dodoPairs[i]).sellBase(dodoPairs[i + 1]);\n                } else {\n                    IDODOV2(dodoPairs[i]).sellQuote(dodoPairs[i + 1]);\n                }\n            }\n        }\n        returnAmount = IWETH(_WETH_).balanceOf(address(this));\n        require(returnAmount >= minReturnAmount, \"DODOV2Proxy01: Return amount is not enough\");\n        IWETH(_WETH_).withdraw(returnAmount);\n        assetTo.transfer(returnAmount);\n        emit OrderHistory(\n            fromToken,\n            _ETH_ADDRESS_,\n            assetTo,\n            fromTokenAmount,\n            returnAmount,\n            0\n        );\n    }\n\n    function dodoSwapV2TokenToToken(\n        address payable assetTo,\n        address fromToken,\n        address toToken,\n        uint256 fromTokenAmount,\n        uint256 minReturnAmount,\n        address[] memory dodoPairs,\n        uint8[] memory directions,\n        uint256 deadLine\n    )\n        external\n        override\n        judgeExpired(deadLine)\n        returns (uint256 returnAmount)\n    {\n        require(dodoPairs.length == directions.length, \"DODOV2Proxy01: PARAMS_LENGTH_NOT_MATCH\");\n        uint256 originToTokenBalance = IERC20(toToken).balanceOf(msg.sender);\n        IDODOApprove(_DODO_APPROVE_).claimTokens(fromToken, msg.sender, dodoPairs[0], fromTokenAmount);\n\n        for (uint256 i = 0; i < dodoPairs.length; i++) {\n            if (i == dodoPairs.length - 1) {\n                if (directions[i] == 0) {\n                    IDODOV2(dodoPairs[i]).sellBase(assetTo);\n                } else {\n                    IDODOV2(dodoPairs[i]).sellQuote(assetTo);\n                }\n            } else {\n                if (directions[i] == 0) {\n                    IDODOV2(dodoPairs[i]).sellBase(dodoPairs[i + 1]);\n                } else {\n                    IDODOV2(dodoPairs[i]).sellQuote(dodoPairs[i + 1]);\n                }\n            }\n        }\n        returnAmount = IERC20(toToken).balanceOf(msg.sender).sub(originToTokenBalance);\n        require(returnAmount >= minReturnAmount, \"DODOV2Proxy01: Return amount is not enough\");\n        emit OrderHistory(\n            fromToken,\n            toToken,\n            assetTo,\n            fromTokenAmount,\n            returnAmount,\n            0\n        );\n    }\n\n    function externalSwap(\n        address fromToken,\n        address toToken,\n        address approveTarget,\n        address to,\n        uint256 fromTokenAmount,\n        uint256 minReturnAmount,\n        bytes memory callDataConcat,\n        uint256 deadLine\n    )\n        external\n        override\n        payable\n        judgeExpired(deadLine)\n        returns (uint256 returnAmount)\n    {\n        uint256 toTokenOriginBalance = IERC20(toToken).universalBalanceOf(msg.sender);\n\n        if (fromToken != _ETH_ADDRESS_) {\n            IDODOApprove(_DODO_APPROVE_).claimTokens(\n                fromToken,\n                msg.sender,\n                address(this),\n                fromTokenAmount\n            );\n            IERC20(fromToken).universalApproveMax(approveTarget, fromTokenAmount);\n        }\n\n        require(isWhiteListed[to], \"DODOV2Proxy01: Not Whitelist Contract\");\n        (bool success, ) = to.call{value: fromToken == _ETH_ADDRESS_ ? msg.value : 0}(callDataConcat);\n\n        require(success, \"DODOV2Proxy01: Contract Swap execution Failed\");\n\n        IERC20(fromToken).universalTransfer(\n            msg.sender,\n            IERC20(fromToken).universalBalanceOf(address(this))\n        );\n\n        IERC20(toToken).universalTransfer(\n            msg.sender,\n            IERC20(toToken).universalBalanceOf(address(this))\n        );\n\n        returnAmount = IERC20(toToken).universalBalanceOf(msg.sender).sub(toTokenOriginBalance);\n        require(returnAmount >= minReturnAmount, \"DODOV2Proxy01: Return amount is not enough\");\n\n        emit OrderHistory(\n            fromToken,\n            toToken,\n            msg.sender,\n            fromTokenAmount,\n            returnAmount,\n            3\n        );\n    }\n\n    function dodoSwapV1(\n        address fromToken,\n        address toToken,\n        uint256 fromTokenAmount,\n        uint256 minReturnAmount,\n        address[] memory dodoPairs,\n        uint8[] memory directions,\n        uint256 deadLine\n    )\n        external\n        override\n        payable\n        judgeExpired(deadLine)\n        returns (uint256 returnAmount)\n    {\n        require(dodoPairs.length == directions.length, \"DODOV2Proxy01: PARAMS_LENGTH_NOT_MATCH\");\n        _deposit(msg.sender, address(this), fromToken, fromTokenAmount, fromToken == _ETH_ADDRESS_);\n\n        for (uint256 i = 0; i < dodoPairs.length; i++) {\n            address curDodoPair = dodoPairs[i];\n            if (directions[i] == 0) {\n                address curDodoBase = IDODOV1(curDodoPair)._BASE_TOKEN_();\n                uint256 curAmountIn = IERC20(curDodoBase).balanceOf(address(this));\n                IERC20(curDodoBase).universalApproveMax(curDodoPair, curAmountIn);\n                IDODOV1(curDodoPair).sellBaseToken(curAmountIn, 0, \"\");\n            } else {\n                address curDodoQuote = IDODOV1(curDodoPair)._QUOTE_TOKEN_();\n                uint256 curAmountIn = IERC20(curDodoQuote).balanceOf(address(this));\n                IERC20(curDodoQuote).universalApproveMax(curDodoPair, curAmountIn);\n                uint256 canBuyBaseAmount = IDODOSellHelper(_DODO_SELL_HELPER_).querySellQuoteToken(\n                    curDodoPair,\n                    curAmountIn\n                );\n                IDODOV1(curDodoPair).buyBaseToken(canBuyBaseAmount, curAmountIn, \"\");\n            }\n        }\n        \n        if (toToken == _ETH_ADDRESS_) {\n            returnAmount = IWETH(_WETH_).balanceOf(address(this));\n            IWETH(_WETH_).withdraw(returnAmount);\n        } else {\n            returnAmount = IERC20(toToken).tokenBalanceOf(address(this));\n        }\n        \n        require(returnAmount >= minReturnAmount, \"DODOV2Proxy01: Return amount is not enough\");\n        IERC20(toToken).universalTransfer(msg.sender, returnAmount);\n\n        emit OrderHistory(fromToken, toToken, msg.sender, fromTokenAmount, returnAmount, 1);\n    }\n\n    function mixSwapV1(\n        address fromToken,\n        address toToken,\n        uint256 fromTokenAmount,\n        uint256 minReturnAmount,\n        address[] memory mixPairs,\n        uint8[] memory directions,\n        address[] memory portionPath,\n        uint256 deadLine\n    ) external override payable judgeExpired(deadLine) returns (uint256 returnAmount) {\n        require(mixPairs.length == directions.length, \"DODOV2Proxy01: PARAMS_LENGTH_NOT_MATCH\");\n        uint256 toTokenOriginBalance = IERC20(toToken).universalBalanceOf(msg.sender);\n\n        address _fromToken = fromToken;\n        address _toToken = toToken;\n        _deposit(msg.sender, address(this), _fromToken, fromTokenAmount, _fromToken == _ETH_ADDRESS_);\n\n        for (uint8 i = 0; i < mixPairs.length; i++) {\n            address curPair = mixPairs[i];\n            if (directions[i] == 0) {\n                address curDodoBase = IDODOV1(curPair)._BASE_TOKEN_();\n                uint256 curAmountIn = IERC20(curDodoBase).balanceOf(address(this));\n                IERC20(curDodoBase).universalApproveMax(curPair, curAmountIn);\n                IDODOV1(curPair).sellBaseToken(curAmountIn, 0, \"\");\n            } else if(directions[i] == 1){\n                address curDodoQuote = IDODOV1(curPair)._QUOTE_TOKEN_();\n                uint256 curAmountIn = IERC20(curDodoQuote).balanceOf(address(this));\n                IERC20(curDodoQuote).universalApproveMax(curPair, curAmountIn);\n                uint256 canBuyBaseAmount = IDODOSellHelper(_DODO_SELL_HELPER_).querySellQuoteToken(\n                    curPair,\n                    curAmountIn\n                );\n                IDODOV1(curPair).buyBaseToken(canBuyBaseAmount, curAmountIn, \"\");\n            } else {\n                uint256 curAmountIn = IERC20(portionPath[0]).balanceOf(address(this));\n                IERC20(portionPath[0]).universalApproveMax(curPair, curAmountIn);\n                IUni(curPair).swapExactTokensForTokens(curAmountIn,0,portionPath,address(this),deadLine);\n            }\n        }\n\n        IERC20(_fromToken).universalTransfer(\n            msg.sender,\n            IERC20(_fromToken).universalBalanceOf(address(this))\n        );\n\n        IERC20(_toToken).universalTransfer(\n            msg.sender,\n            IERC20(_toToken).universalBalanceOf(address(this))\n        );\n\n        returnAmount = IERC20(_toToken).universalBalanceOf(msg.sender).sub(toTokenOriginBalance);\n        require(returnAmount >= minReturnAmount, \"DODOV2Proxy01: Return amount is not enough\");\n\n        emit OrderHistory(_fromToken, _toToken, msg.sender, fromTokenAmount, returnAmount, 2);\n    }\n\n    //============ CrowdPooling Functions (create & bid) ============\n\n    function createCrowdPooling(\n        address baseToken,\n        address quoteToken,\n        uint256 baseInAmount,\n        uint256[] memory timeLine,\n        uint256[] memory valueList,\n        uint256 deadLine\n    ) external override judgeExpired(deadLine) returns (address newCrowdPooling) {\n        address _baseToken = baseToken;\n        address _quoteToken = quoteToken == _ETH_ADDRESS_ ? _WETH_ : quoteToken;\n        \n        newCrowdPooling = IDODOV2(_CP_FACTORY_).createCrowdPooling();\n\n        _deposit(\n            msg.sender,\n            newCrowdPooling,\n            _baseToken,\n            baseInAmount,\n            false\n        );\n\n\n        IDODOV2(_CP_FACTORY_).initCrowdPooling(\n            newCrowdPooling,\n            msg.sender,\n            _baseToken,\n            _quoteToken,\n            timeLine,\n            valueList\n        );\n    }\n\n    function bid(\n        address assetTo,\n        address cpAddress,\n        uint256 quoteAmount,\n        uint8 flag, // 0 - ERC20, 1 - quoteInETH\n        uint256 deadLine\n    ) external override payable judgeExpired(deadLine) {\n        _deposit(msg.sender, cpAddress, IDODOV2(cpAddress)._QUOTE_TOKEN_(), quoteAmount, flag == 1);\n        IDODOV2(cpAddress).bid(assetTo);\n    }\n\n\n    function addLiquidityToV1(\n        address to,\n        address pair,\n        uint256 baseAmount,\n        uint256 quoteAmount,\n        uint256 baseMinShares,\n        uint256 quoteMinShares,\n        uint8 flag, // 0 erc20 In  1 baseInETH  2 quoteIn ETH \n        uint256 deadLine\n    ) external override payable judgeExpired(deadLine) returns(uint256 baseShares, uint256 quoteShares) {\n        address _baseToken = IDODOV1(pair)._BASE_TOKEN_();\n        address _quoteToken = IDODOV1(pair)._QUOTE_TOKEN_();\n        \n        _deposit(msg.sender, address(this), _baseToken, baseAmount, flag == 1);\n        _deposit(msg.sender, address(this), _quoteToken, quoteAmount, flag == 2);\n\n        \n        if(baseAmount > 0) {\n            IERC20(_baseToken).universalApproveMax(pair, baseAmount);\n            baseShares = IDODOV1(pair).depositBaseTo(to, baseAmount);\n        }\n        if(quoteAmount > 0) {\n            IERC20(_quoteToken).universalApproveMax(pair, quoteAmount);\n            quoteShares = IDODOV1(pair).depositQuoteTo(to, quoteAmount);\n        }\n\n        require(baseShares >= baseMinShares && quoteShares >= quoteMinShares,\"DODOV2Proxy01: Return DLP is not enough\");\n    }\n    \n\n    function _deposit(\n        address from,\n        address to,\n        address token,\n        uint256 amount,\n        bool isETH\n    ) internal {\n        if (isETH) {\n            if (amount > 0) {\n                IWETH(_WETH_).deposit{value: amount}();\n                if (to != address(this)) SafeERC20.safeTransfer(IERC20(_WETH_), to, amount);\n            }\n        } else {\n            IDODOApprove(_DODO_APPROVE_).claimTokens(token, from, to, amount);\n        }\n    }\n\n    function _withdraw(\n        address payable to,\n        address token,\n        uint256 amount,\n        bool isETH\n    ) internal {\n        if (isETH) {\n            if (amount > 0) {\n                IWETH(_WETH_).withdraw(amount);\n                to.transfer(amount);\n            }\n        } else {\n            SafeERC20.safeTransfer(IERC20(token), to, amount);\n        }\n    }\n}\n",
  "sourcePath": "/Users/niutaotao/projects/dodo/contractV2/contracts/SmartRoute/DODOV2Proxy01.sol",
  "compiler": {
    "name": "solc",
    "version": "0.6.9+commit.3e3065ac.Emscripten.clang"
  },
  "schemaVersion": "3.3.2",
  "updatedAt": "2020-12-21T04:18:09.813Z",
  "devdoc": {
    "methods": {}
  },
  "userdoc": {
    "methods": {}
  }
}