{
  "contractName": "DODOIncentive",
  "abi": [
    {
      "inputs": [
        {
          "internalType": "address",
          "name": "_dodoToken",
          "type": "address"
        }
      ],
      "stateMutability": "nonpayable",
      "type": "constructor"
    },
    {
      "anonymous": false,
      "inputs": [
        {
          "indexed": false,
          "internalType": "address",
          "name": "user",
          "type": "address"
        },
        {
          "indexed": false,
          "internalType": "uint256",
          "name": "reward",
          "type": "uint256"
        }
      ],
      "name": "Incentive",
      "type": "event"
    },
    {
      "anonymous": false,
      "inputs": [
        {
          "indexed": true,
          "internalType": "address",
          "name": "previousOwner",
          "type": "address"
        },
        {
          "indexed": true,
          "internalType": "address",
          "name": "newOwner",
          "type": "address"
        }
      ],
      "name": "OwnershipTransferPrepared",
      "type": "event"
    },
    {
      "anonymous": false,
      "inputs": [
        {
          "indexed": true,
          "internalType": "address",
          "name": "previousOwner",
          "type": "address"
        },
        {
          "indexed": true,
          "internalType": "address",
          "name": "newOwner",
          "type": "address"
        }
      ],
      "name": "OwnershipTransferred",
      "type": "event"
    },
    {
      "anonymous": false,
      "inputs": [
        {
          "indexed": false,
          "internalType": "address",
          "name": "token",
          "type": "address"
        },
        {
          "indexed": false,
          "internalType": "uint256",
          "name": "boostRate",
          "type": "uint256"
        }
      ],
      "name": "SetBoost",
      "type": "event"
    },
    {
      "anonymous": false,
      "inputs": [
        {
          "indexed": false,
          "internalType": "uint256",
          "name": "defaultRate",
          "type": "uint256"
        }
      ],
      "name": "SetDefaultRate",
      "type": "event"
    },
    {
      "anonymous": false,
      "inputs": [
        {
          "indexed": false,
          "internalType": "address",
          "name": "dodoProxy",
          "type": "address"
        }
      ],
      "name": "SetNewProxy",
      "type": "event"
    },
    {
      "anonymous": false,
      "inputs": [
        {
          "indexed": false,
          "internalType": "uint256",
          "name": "dodoPerBlock",
          "type": "uint256"
        }
      ],
      "name": "SetPerReward",
      "type": "event"
    },
    {
      "anonymous": false,
      "inputs": [
        {
          "indexed": false,
          "internalType": "bool",
          "name": "isOpen",
          "type": "bool"
        }
      ],
      "name": "SetSwitch",
      "type": "event"
    },
    {
      "inputs": [],
      "name": "_DODO_PROXY_",
      "outputs": [
        {
          "internalType": "address",
          "name": "",
          "type": "address"
        }
      ],
      "stateMutability": "view",
      "type": "function"
    },
    {
      "inputs": [],
      "name": "_DODO_TOKEN_",
      "outputs": [
        {
          "internalType": "address",
          "name": "",
          "type": "address"
        }
      ],
      "stateMutability": "view",
      "type": "function"
    },
    {
      "inputs": [],
      "name": "_NEW_OWNER_",
      "outputs": [
        {
          "internalType": "address",
          "name": "",
          "type": "address"
        }
      ],
      "stateMutability": "view",
      "type": "function"
    },
    {
      "inputs": [],
      "name": "_OWNER_",
      "outputs": [
        {
          "internalType": "address",
          "name": "",
          "type": "address"
        }
      ],
      "stateMutability": "view",
      "type": "function"
    },
    {
      "inputs": [
        {
          "internalType": "address",
          "name": "",
          "type": "address"
        }
      ],
      "name": "boosts",
      "outputs": [
        {
          "internalType": "uint256",
          "name": "",
          "type": "uint256"
        }
      ],
      "stateMutability": "view",
      "type": "function"
    },
    {
      "inputs": [],
      "name": "claimOwnership",
      "outputs": [],
      "stateMutability": "nonpayable",
      "type": "function"
    },
    {
      "inputs": [],
      "name": "defaultRate",
      "outputs": [
        {
          "internalType": "uint256",
          "name": "",
          "type": "uint256"
        }
      ],
      "stateMutability": "view",
      "type": "function"
    },
    {
      "inputs": [],
      "name": "dodoPerBlock",
      "outputs": [
        {
          "internalType": "uint256",
          "name": "",
          "type": "uint256"
        }
      ],
      "stateMutability": "view",
      "type": "function"
    },
    {
      "inputs": [
        {
          "internalType": "address",
          "name": "newOwner",
          "type": "address"
        }
      ],
      "name": "initOwner",
      "outputs": [],
      "stateMutability": "nonpayable",
      "type": "function"
    },
    {
      "inputs": [],
      "name": "lastRewardBlock",
      "outputs": [
        {
          "internalType": "uint32",
          "name": "",
          "type": "uint32"
        }
      ],
      "stateMutability": "view",
      "type": "function"
    },
    {
      "inputs": [],
      "name": "startBlock",
      "outputs": [
        {
          "internalType": "uint256",
          "name": "",
          "type": "uint256"
        }
      ],
      "stateMutability": "view",
      "type": "function"
    },
    {
      "inputs": [],
      "name": "totalDistribution",
      "outputs": [
        {
          "internalType": "uint112",
          "name": "",
          "type": "uint112"
        }
      ],
      "stateMutability": "view",
      "type": "function"
    },
    {
      "inputs": [],
      "name": "totalReward",
      "outputs": [
        {
          "internalType": "uint112",
          "name": "",
          "type": "uint112"
        }
      ],
      "stateMutability": "view",
      "type": "function"
    },
    {
      "inputs": [
        {
          "internalType": "address",
          "name": "newOwner",
          "type": "address"
        }
      ],
      "name": "transferOwnership",
      "outputs": [],
      "stateMutability": "nonpayable",
      "type": "function"
    },
    {
      "inputs": [
        {
          "internalType": "uint256",
          "name": "_startBlock",
          "type": "uint256"
        }
      ],
      "name": "switchIncentive",
      "outputs": [],
      "stateMutability": "nonpayable",
      "type": "function"
    },
    {
      "inputs": [
        {
          "internalType": "address",
          "name": "_token",
          "type": "address"
        },
        {
          "internalType": "uint256",
          "name": "_boostRate",
          "type": "uint256"
        }
      ],
      "name": "changeBoost",
      "outputs": [],
      "stateMutability": "nonpayable",
      "type": "function"
    },
    {
      "inputs": [
        {
          "internalType": "uint256",
          "name": "_dodoPerBlock",
          "type": "uint256"
        }
      ],
      "name": "changePerReward",
      "outputs": [],
      "stateMutability": "nonpayable",
      "type": "function"
    },
    {
      "inputs": [
        {
          "internalType": "uint256",
          "name": "_defaultRate",
          "type": "uint256"
        }
      ],
      "name": "changeDefaultRate",
      "outputs": [],
      "stateMutability": "nonpayable",
      "type": "function"
    },
    {
      "inputs": [
        {
          "internalType": "address",
          "name": "_dodoProxy",
          "type": "address"
        }
      ],
      "name": "changeDODOProxy",
      "outputs": [],
      "stateMutability": "nonpayable",
      "type": "function"
    },
    {
      "inputs": [
        {
          "internalType": "address",
          "name": "assetTo",
          "type": "address"
        }
      ],
      "name": "emptyReward",
      "outputs": [],
      "stateMutability": "nonpayable",
      "type": "function"
    },
    {
      "inputs": [
        {
          "internalType": "address",
          "name": "fromToken",
          "type": "address"
        },
        {
          "internalType": "address",
          "name": "toToken",
          "type": "address"
        },
        {
          "internalType": "address",
          "name": "assetTo",
          "type": "address"
        }
      ],
      "name": "triggerIncentive",
      "outputs": [],
      "stateMutability": "nonpayable",
      "type": "function"
    },
    {
      "inputs": [
        {
          "internalType": "address",
          "name": "fromToken",
          "type": "address"
        },
        {
          "internalType": "address",
          "name": "toToken",
          "type": "address"
        }
      ],
      "name": "incentiveStatus",
      "outputs": [
        {
          "internalType": "bool",
          "name": "isOpen",
          "type": "bool"
        },
        {
          "internalType": "uint256",
          "name": "reward",
          "type": "uint256"
        },
        {
          "internalType": "uint256",
          "name": "baseRate",
          "type": "uint256"
        },
        {
          "internalType": "uint256",
          "name": "totalRate",
          "type": "uint256"
        }
      ],
      "stateMutability": "view",
      "type": "function"
    }
  ],
  "bytecode": "0x60a0604052678ac7230489e80000600355600a60045534801561002157600080fd5b506040516110063803806110068339818101604052602081101561004457600080fd5b5051606081901b6001600160601b0319166080526001600160a01b0316610f7f610087600039806105f852806108615280610d255280610dc45250610f7f6000f3fe608060405234801561001057600080fd5b50600436106101425760003560e01c80636a9eaccd116100b8578063b56afe751161007c578063b56afe751461032b578063e54c803314610351578063e75e454e14610359578063f2fde38b14610361578063f54651de14610387578063fdabc986146103ad57610142565b80636a9eaccd146102b9578063750142e6146102d65780638456db15146102fa5780638af7033614610302578063a9f8d1811461030a57610142565b80632ced893b1161010a5780632ced893b14610202578063300773cd1461025857806334cf13321461027557806346748bc91461027d57806348cd4cb1146102a95780634e71e0c8146102b157610142565b80630d00929714610147578063106b8e8b1461016f57806316048bc41461018c578063188aa964146101b05780632616501d146101e8575b600080fd5b61016d6004803603602081101561015d57600080fd5b50356001600160a01b03166103d3565b005b61016d6004803603602081101561018557600080fd5b503561045b565b6101946104e1565b604080516001600160a01b039092168252519081900360200190f35b61016d600480360360608110156101c657600080fd5b506001600160a01b0381358116916020810135821691604090910135166104f0565b6101f06106f4565b60408051918252519081900360200190f35b6102306004803603604081101561021857600080fd5b506001600160a01b03813581169160200135166106fa565b6040805194151585526020850193909352838301919091526060830152519081900360800190f35b61016d6004803603602081101561026e57600080fd5b50356107ba565b61019461085f565b61016d6004803603604081101561029357600080fd5b506001600160a01b038135169060200135610883565b6101f0610949565b61016d61094f565b61016d600480360360208110156102cf57600080fd5b5035610a02565b6102de610b0f565b604080516001600160701b039092168252519081900360200190f35b610194610b26565b6101f0610b35565b610312610b3b565b6040805163ffffffff9092168252519081900360200190f35b61016d6004803603602081101561034157600080fd5b50356001600160a01b0316610b47565b610194610bec565b6102de610bfb565b61016d6004803603602081101561037757600080fd5b50356001600160a01b0316610c11565b61016d6004803603602081101561039d57600080fd5b50356001600160a01b0316610cb7565b6101f0600480360360208110156103c357600080fd5b50356001600160a01b0316610e3f565b600154600160a01b900460ff1615610425576040805162461bcd60e51b815260206004820152601060248201526f1113d113d7d25392551250531256915160821b604482015290519081900360640190fd5b6001805460ff60a01b1916600160a01b179055600080546001600160a01b039092166001600160a01b0319909216919091179055565b6000546001600160a01b031633146104a6576040805162461bcd60e51b81526020600482015260096024820152682727aa2fa7aba722a960b91b604482015290519081900360640190fd5b60048190556040805182815290517fd384a9907ee9e07e400554d68090a36fd75614b27c8b5e9206176ed6353885a89181900360200190a150565b6000546001600160a01b031681565b6002546001600160a01b0316331461054f576040805162461bcd60e51b815260206004820152601f60248201527f444f444f496e63656e746976653a416363657373207265737472696374656400604482015290519081900360640190fd5b60065480158061055e57508043105b1561056957506106ef565b6007546001600160a01b03858116600090815260056020526040808220549287168252812054600454600160901b9094046001600160701b031693909190828410156105b557826105b7565b835b6003546007549290910192506001600160701b0364010000000083041663ffffffff909216430302016103e88582038302048086016105f68382610e51565b7f00000000000000000000000000000000000000000000000000000000000000006001600160a01b031663a9059cbb8a846040518363ffffffff1660e01b815260040180836001600160a01b03166001600160a01b0316815260200182815260200192505050602060405180830381600087803b15801561067657600080fd5b505af115801561068a573d6000803e3d6000fd5b505050506040513d60208110156106a057600080fd5b5050604080516001600160a01b038b1681526020810184905281517fd427e26a570fafcb4e8c2c61fde4ef99010612127e4bb6d5f5972eeb12e9f508929181900390910190a150505050505050505b505050565b60045481565b60008060008060065460001415801561071557506006544310155b156107a4576004546001600160a01b03808816600090815260056020526040808220549289168252902054600196509193509083818310156107575781610759565b825b6003546007549290910194506001600160701b036401000000008304811663ffffffff8416430390920291909101916103e891600160901b90910416820385020495505050506107b1565b5060009250829150819050805b92959194509250565b6000546001600160a01b03163314610805576040805162461bcd60e51b81526020600482015260096024820152682727aa2fa7aba722a960b91b604482015290519081900360640190fd5b60075461082490600090600160901b90046001600160701b0316610e51565b60038190556040805182815290517f2bce70618b82fe2049061f3d5eb5044d9b66101ff8ff7c1f18404026cb806b9e9181900360200190a150565b7f000000000000000000000000000000000000000000000000000000000000000081565b6000546001600160a01b031633146108ce576040805162461bcd60e51b81526020600482015260096024820152682727aa2fa7aba722a960b91b604482015290519081900360640190fd5b6001600160a01b0382166108e157600080fd5b6103e88111156108f057600080fd5b6001600160a01b0382166000818152600560209081526040918290208490558151928352820183905280517f74b543c60303faed44bb045354be4eb79338e531e623b117526453fe53bfc83c9281900390910190a15050565b60065481565b6001546001600160a01b0316331461099e576040805162461bcd60e51b815260206004820152600d60248201526c494e56414c49445f434c41494d60981b604482015290519081900360640190fd5b600154600080546040516001600160a01b0393841693909116917f8be0079c531659141344cd1fd0a4f28419497f9722a3daafe3b4186f6b6457e091a360018054600080546001600160a01b03199081166001600160a01b03841617909155169055565b6000546001600160a01b03163314610a4d576040805162461bcd60e51b81526020600482015260096024820152682727aa2fa7aba722a960b91b604482015290519081900360640190fd5b60065415610a8d57600654431015610a6457600080fd5b600754610a8390600090600160901b90046001600160701b0316610e51565b6000600655610ac4565b804311158015610aa0575063ffffffff81105b610aa957600080fd5b60068190556007805463ffffffff191663ffffffff83161790555b7ffdd579fc06b20933721d4ba5a8758af52e0cecfc5598a92570233ce66ff4a470600654600014610af6576001610af9565b60005b604080519115158252519081900360200190a150565b60075464010000000090046001600160701b031681565b6001546001600160a01b031681565b60035481565b60075463ffffffff1681565b6000546001600160a01b03163314610b92576040805162461bcd60e51b81526020600482015260096024820152682727aa2fa7aba722a960b91b604482015290519081900360640190fd5b600280546001600160a01b0319166001600160a01b03838116919091179182905560408051929091168252517f62fd8906333154736b37f9fdf6bed424263e7f41e1b25f523762334c4fc30567916020908290030190a150565b6002546001600160a01b031681565b600754600160901b90046001600160701b031681565b6000546001600160a01b03163314610c5c576040805162461bcd60e51b81526020600482015260096024820152682727aa2fa7aba722a960b91b604482015290519081900360640190fd5b600080546040516001600160a01b03808516939216917fdcf55418cee3220104fef63f979ff3c4097ad240c0c43dcb33ce837748983e6291a3600180546001600160a01b0319166001600160a01b0392909216919091179055565b6000546001600160a01b03163314610d02576040805162461bcd60e51b81526020600482015260096024820152682727aa2fa7aba722a960b91b604482015290519081900360640190fd5b604080516370a0823160e01b815230600482015290516000916001600160a01b037f000000000000000000000000000000000000000000000000000000000000000016916370a0823191602480820192602092909190829003018186803b158015610d6c57600080fd5b505afa158015610d80573d6000803e3d6000fd5b505050506040513d6020811015610d9657600080fd5b50516040805163a9059cbb60e01b81526001600160a01b0385811660048301526024820184905291519293507f00000000000000000000000000000000000000000000000000000000000000009091169163a9059cbb916044808201926020929091908290030181600087803b158015610e0f57600080fd5b505af1158015610e23573d6000803e3d6000fd5b505050506040513d6020811015610e3957600080fd5b50505050565b60056020526000908152604090205481565b81610e7e576003546007546001600160701b0364010000000082041663ffffffff90911643039091020191505b6001600160701b0382108015610e9a57506001600160701b0381105b8015610ea9575063ffffffff43105b610ee5576040805162461bcd60e51b81526020600482015260086024820152674f564552464c4f5760c01b604482015290519081900360640190fd5b6007805463ffffffff19164363ffffffff161771ffffffffffffffffffffffffffff0000000019166401000000006001600160701b03948516021771ffffffffffffffffffffffffffffffffffff16600160901b929093169190910291909117905556fea26469706673582212204d59f72c64ca1120a832e567753261e9fb734e626b6708c4a128ea11e5fbe3e364736f6c63430006090033",
  "immutableReferences": {
    "9551": [
      {
        "length": 32,
        "start": 1528
      },
      {
        "length": 32,
        "start": 2145
      },
      {
        "length": 32,
        "start": 3365
      },
      {
        "length": 32,
        "start": 3524
      }
    ]
  },
  "source": "/*\n\n    Copyright 2020 DODO ZOO.\n    SPDX-License-Identifier: Apache-2.0\n\n*/\n\npragma solidity 0.6.9;\n\nimport {InitializableOwnable} from \"../lib/InitializableOwnable.sol\";\nimport {SafeERC20} from \"../lib/SafeERC20.sol\";\nimport {SafeMath} from \"../lib/SafeMath.sol\";\nimport {IERC20} from \"../intf/IERC20.sol\";\n\ninterface IDODOIncentive {\n    function triggerIncentive(address fromToken,address toToken, address assetTo) external;\n}\n\n\n/**\n * @title DODOIncentive\n * @author DODO Breeder\n *\n * @notice Trade Incentive in DODO platform\n */\ncontract DODOIncentive is InitializableOwnable {\n    using SafeMath for uint256;\n    using SafeERC20 for IERC20;\n    \n    // ============ Storage ============\n    address public immutable _DODO_TOKEN_;\n    address public _DODO_PROXY_;\n    uint256 public dodoPerBlock = 10 * 10**18;\n    uint256 public defaultRate = 10;\n    mapping(address => uint256) public boosts;\n    uint256 public startBlock; \n\n    \n    uint32 public lastRewardBlock;\n    uint112 public totalReward;\n    uint112 public totalDistribution;\n\n    // ============ Events ============\n\n    event SetBoost(address token, uint256 boostRate);\n    event SetSwitch(bool isOpen);\n    event SetNewProxy(address dodoProxy);\n    event SetPerReward(uint256 dodoPerBlock);\n    event SetDefaultRate(uint256 defaultRate);\n    event Incentive(address user,uint256 reward);\n\n    constructor(address _dodoToken) public {\n        _DODO_TOKEN_ = _dodoToken;\n    }\n\n    // ============ Ownable ============\n\n    function switchIncentive(uint256 _startBlock) public onlyOwner {\n        if(startBlock != 0) {\n            require(block.number >= startBlock);\n            _update(0,totalDistribution);\n            startBlock = 0;\n        }else {\n            require(block.number <= _startBlock && _startBlock < uint32(-1));\n            startBlock = _startBlock;\n            lastRewardBlock = uint32(_startBlock);\n        }\n        emit SetSwitch(startBlock == 0 ? false: true);\n    }\n\n    function changeBoost(address _token, uint256 _boostRate) public onlyOwner {\n        require(_token != address(0));\n        require(_boostRate <= 1000);\n        boosts[_token] = _boostRate;\n        emit SetBoost(_token,_boostRate);\n    }\n\n    function changePerReward(uint256 _dodoPerBlock) public onlyOwner {\n        _update(0,totalDistribution);\n        dodoPerBlock = _dodoPerBlock;\n        emit SetPerReward(dodoPerBlock);\n    }\n\n    function changeDefaultRate(uint256 _defaultRate) public onlyOwner {\n        defaultRate = _defaultRate;\n        emit SetDefaultRate(defaultRate);\n    }\n\n    function changeDODOProxy(address _dodoProxy) public onlyOwner {\n        _DODO_PROXY_ = _dodoProxy;\n        emit SetNewProxy(_DODO_PROXY_);\n    }\n\n    function emptyReward(address assetTo) public onlyOwner {\n        uint256 balance = IERC20(_DODO_TOKEN_).balanceOf(address(this));\n        IERC20(_DODO_TOKEN_).transfer(assetTo, balance);\n    }\n\n\n    // ============ Incentive  function ============\n\n    function triggerIncentive(address fromToken,address toToken, address assetTo) external {\n        require(msg.sender == _DODO_PROXY_, \"DODOIncentive:Access restricted\");\n        uint256 _startBlock = startBlock;\n        if(_startBlock == 0 || block.number < _startBlock) return;\n\n        uint256 curTotalDistribution = totalDistribution;\n        uint256 fromRate = boosts[fromToken];\n        uint256 toRate = boosts[toToken];\n        uint256 rate = (fromRate >= toRate ? fromRate : toRate) + defaultRate;\n\n        uint256 _totalReward = totalReward + (block.number - lastRewardBlock) * dodoPerBlock;\n        uint256 reward = (_totalReward - curTotalDistribution) * rate / 1000;\n        uint256 _totalDistribution = curTotalDistribution + reward;\n\n        _update(_totalReward,_totalDistribution);\n        IERC20(_DODO_TOKEN_).transfer(assetTo,reward);\n\n        emit Incentive(assetTo,reward);\n    }\n\n        \n    function _update(uint256 _totalReward, uint256 _totalDistribution) internal {\n        if(_totalReward == 0) \n            _totalReward = totalReward + (block.number - lastRewardBlock) * dodoPerBlock;\n        require(_totalReward < uint112(-1) && _totalDistribution < uint112(-1) && block.number < uint32(-1), \"OVERFLOW\");\n        lastRewardBlock = uint32(block.number);\n        totalReward = uint112(_totalReward);\n        totalDistribution = uint112(_totalDistribution);\n    }\n\n    // ============= Helper function ===============\n\n    function incentiveStatus(address fromToken, address toToken) external view returns (bool isOpen, uint256 reward, uint256 baseRate, uint256 totalRate)  {\n        if(startBlock != 0 && block.number >= startBlock) {\n            isOpen = true;\n            baseRate = defaultRate;\n            uint256 fromRate = boosts[fromToken];\n            uint256 toRate = boosts[toToken];\n            totalRate = (fromRate >= toRate ? fromRate : toRate) + defaultRate;\n            uint256 _totalReward = totalReward + (block.number - lastRewardBlock) * dodoPerBlock;\n            reward = (_totalReward - totalDistribution) * totalRate / 1000;\n        }else {\n            isOpen = false;\n            reward = 0;\n            baseRate = 0;\n            totalRate = 0;\n        }\n    }\n}",
  "sourcePath": "/Users/niutaotao/projects/dodo/contractV2/contracts/SmartRoute/DODOIncentive.sol",
  "compiler": {
    "name": "solc",
    "version": "0.6.9+commit.3e3065ac.Emscripten.clang"
  },
  "schemaVersion": "3.3.2",
  "updatedAt": "2021-01-13T13:03:23.780Z",
  "devdoc": {
    "author": "DODO Breeder",
    "methods": {},
    "title": "DODOIncentive"
  },
  "userdoc": {
    "methods": {},
    "notice": "Trade Incentive in DODO platform"
  }
}