{
  "contractName": "DODOV2Proxy01",
  "abi": [
    {
      "inputs": [
        {
          "internalType": "address",
          "name": "dvmFactory",
          "type": "address"
        },
        {
          "internalType": "address",
          "name": "dppFactory",
          "type": "address"
        },
        {
          "internalType": "address",
          "name": "cpFactory",
          "type": "address"
        },
        {
          "internalType": "address payable",
          "name": "weth",
          "type": "address"
        },
        {
          "internalType": "address",
          "name": "dodoApprove",
          "type": "address"
        },
        {
          "internalType": "address",
          "name": "dodoSellHelper",
          "type": "address"
        },
        {
          "internalType": "address",
          "name": "chiToken",
          "type": "address"
        },
        {
          "internalType": "address",
          "name": "dodoIncentive",
          "type": "address"
        }
      ],
      "stateMutability": "nonpayable",
      "type": "constructor"
    },
    {
      "anonymous": false,
      "inputs": [
        {
          "indexed": false,
          "internalType": "address",
          "name": "fromToken",
          "type": "address"
        },
        {
          "indexed": false,
          "internalType": "address",
          "name": "toToken",
          "type": "address"
        },
        {
          "indexed": false,
          "internalType": "address",
          "name": "sender",
          "type": "address"
        },
        {
          "indexed": false,
          "internalType": "uint256",
          "name": "fromAmount",
          "type": "uint256"
        },
        {
          "indexed": false,
          "internalType": "uint256",
          "name": "returnAmount",
          "type": "uint256"
        }
      ],
      "name": "OrderHistory",
      "type": "event"
    },
    {
      "anonymous": false,
      "inputs": [
        {
          "indexed": true,
          "internalType": "address",
          "name": "previousOwner",
          "type": "address"
        },
        {
          "indexed": true,
          "internalType": "address",
          "name": "newOwner",
          "type": "address"
        }
      ],
      "name": "OwnershipTransferPrepared",
      "type": "event"
    },
    {
      "anonymous": false,
      "inputs": [
        {
          "indexed": true,
          "internalType": "address",
          "name": "previousOwner",
          "type": "address"
        },
        {
          "indexed": true,
          "internalType": "address",
          "name": "newOwner",
          "type": "address"
        }
      ],
      "name": "OwnershipTransferred",
      "type": "event"
    },
    {
      "stateMutability": "payable",
      "type": "fallback"
    },
    {
      "inputs": [],
      "name": "_CHI_TOKEN_",
      "outputs": [
        {
          "internalType": "address",
          "name": "",
          "type": "address"
        }
      ],
      "stateMutability": "view",
      "type": "function"
    },
    {
      "inputs": [],
      "name": "_CP_FACTORY_",
      "outputs": [
        {
          "internalType": "address",
          "name": "",
          "type": "address"
        }
      ],
      "stateMutability": "view",
      "type": "function"
    },
    {
      "inputs": [],
      "name": "_DODO_APPROVE_",
      "outputs": [
        {
          "internalType": "address",
          "name": "",
          "type": "address"
        }
      ],
      "stateMutability": "view",
      "type": "function"
    },
    {
      "inputs": [],
      "name": "_DODO_INCENTIVE_",
      "outputs": [
        {
          "internalType": "address",
          "name": "",
          "type": "address"
        }
      ],
      "stateMutability": "view",
      "type": "function"
    },
    {
      "inputs": [],
      "name": "_DODO_SELL_HELPER_",
      "outputs": [
        {
          "internalType": "address",
          "name": "",
          "type": "address"
        }
      ],
      "stateMutability": "view",
      "type": "function"
    },
    {
      "inputs": [],
      "name": "_DPP_FACTORY_",
      "outputs": [
        {
          "internalType": "address",
          "name": "",
          "type": "address"
        }
      ],
      "stateMutability": "view",
      "type": "function"
    },
    {
      "inputs": [],
      "name": "_DVM_FACTORY_",
      "outputs": [
        {
          "internalType": "address",
          "name": "",
          "type": "address"
        }
      ],
      "stateMutability": "view",
      "type": "function"
    },
    {
      "inputs": [],
      "name": "_GAS_DODO_MAX_RETURN_",
      "outputs": [
        {
          "internalType": "uint256",
          "name": "",
          "type": "uint256"
        }
      ],
      "stateMutability": "view",
      "type": "function"
    },
    {
      "inputs": [],
      "name": "_GAS_EXTERNAL_RETURN_",
      "outputs": [
        {
          "internalType": "uint256",
          "name": "",
          "type": "uint256"
        }
      ],
      "stateMutability": "view",
      "type": "function"
    },
    {
      "inputs": [],
      "name": "_NEW_OWNER_",
      "outputs": [
        {
          "internalType": "address",
          "name": "",
          "type": "address"
        }
      ],
      "stateMutability": "view",
      "type": "function"
    },
    {
      "inputs": [],
      "name": "_OWNER_",
      "outputs": [
        {
          "internalType": "address",
          "name": "",
          "type": "address"
        }
      ],
      "stateMutability": "view",
      "type": "function"
    },
    {
      "inputs": [],
      "name": "_WETH_",
      "outputs": [
        {
          "internalType": "address",
          "name": "",
          "type": "address"
        }
      ],
      "stateMutability": "view",
      "type": "function"
    },
    {
      "inputs": [],
      "name": "claimOwnership",
      "outputs": [],
      "stateMutability": "nonpayable",
      "type": "function"
    },
    {
      "inputs": [
        {
          "internalType": "address",
          "name": "newOwner",
          "type": "address"
        }
      ],
      "name": "initOwner",
      "outputs": [],
      "stateMutability": "nonpayable",
      "type": "function"
    },
    {
      "inputs": [
        {
          "internalType": "address",
          "name": "",
          "type": "address"
        }
      ],
      "name": "isWhiteListed",
      "outputs": [
        {
          "internalType": "bool",
          "name": "",
          "type": "bool"
        }
      ],
      "stateMutability": "view",
      "type": "function"
    },
    {
      "inputs": [
        {
          "internalType": "address",
          "name": "newOwner",
          "type": "address"
        }
      ],
      "name": "transferOwnership",
      "outputs": [],
      "stateMutability": "nonpayable",
      "type": "function"
    },
    {
      "stateMutability": "payable",
      "type": "receive"
    },
    {
      "inputs": [
        {
          "internalType": "address",
          "name": "contractAddr",
          "type": "address"
        }
      ],
      "name": "addWhiteList",
      "outputs": [],
      "stateMutability": "nonpayable",
      "type": "function"
    },
    {
      "inputs": [
        {
          "internalType": "address",
          "name": "contractAddr",
          "type": "address"
        }
      ],
      "name": "removeWhiteList",
      "outputs": [],
      "stateMutability": "nonpayable",
      "type": "function"
    },
    {
      "inputs": [
        {
          "internalType": "uint256",
          "name": "newDodoGasReturn",
          "type": "uint256"
        },
        {
          "internalType": "uint256",
          "name": "newExternalGasReturn",
          "type": "uint256"
        }
      ],
      "name": "updateGasReturn",
      "outputs": [],
      "stateMutability": "nonpayable",
      "type": "function"
    },
    {
      "inputs": [
        {
          "internalType": "address",
          "name": "baseToken",
          "type": "address"
        },
        {
          "internalType": "address",
          "name": "quoteToken",
          "type": "address"
        },
        {
          "internalType": "uint256",
          "name": "baseInAmount",
          "type": "uint256"
        },
        {
          "internalType": "uint256",
          "name": "quoteInAmount",
          "type": "uint256"
        },
        {
          "internalType": "uint256",
          "name": "lpFeeRate",
          "type": "uint256"
        },
        {
          "internalType": "uint256",
          "name": "i",
          "type": "uint256"
        },
        {
          "internalType": "uint256",
          "name": "k",
          "type": "uint256"
        },
        {
          "internalType": "uint256",
          "name": "deadLine",
          "type": "uint256"
        }
      ],
      "name": "createDODOVendingMachine",
      "outputs": [
        {
          "internalType": "address",
          "name": "newVendingMachine",
          "type": "address"
        },
        {
          "internalType": "uint256",
          "name": "shares",
          "type": "uint256"
        }
      ],
      "stateMutability": "payable",
      "type": "function"
    },
    {
      "inputs": [
        {
          "internalType": "address",
          "name": "dvmAddress",
          "type": "address"
        },
        {
          "internalType": "uint256",
          "name": "baseInAmount",
          "type": "uint256"
        },
        {
          "internalType": "uint256",
          "name": "quoteInAmount",
          "type": "uint256"
        },
        {
          "internalType": "uint256",
          "name": "baseMinAmount",
          "type": "uint256"
        },
        {
          "internalType": "uint256",
          "name": "quoteMinAmount",
          "type": "uint256"
        },
        {
          "internalType": "uint8",
          "name": "flag",
          "type": "uint8"
        },
        {
          "internalType": "uint256",
          "name": "deadLine",
          "type": "uint256"
        }
      ],
      "name": "addDVMLiquidity",
      "outputs": [
        {
          "internalType": "uint256",
          "name": "shares",
          "type": "uint256"
        },
        {
          "internalType": "uint256",
          "name": "baseAdjustedInAmount",
          "type": "uint256"
        },
        {
          "internalType": "uint256",
          "name": "quoteAdjustedInAmount",
          "type": "uint256"
        }
      ],
      "stateMutability": "payable",
      "type": "function"
    },
    {
      "inputs": [
        {
          "internalType": "address",
          "name": "baseToken",
          "type": "address"
        },
        {
          "internalType": "address",
          "name": "quoteToken",
          "type": "address"
        },
        {
          "internalType": "uint256",
          "name": "baseInAmount",
          "type": "uint256"
        },
        {
          "internalType": "uint256",
          "name": "quoteInAmount",
          "type": "uint256"
        },
        {
          "internalType": "uint256",
          "name": "lpFeeRate",
          "type": "uint256"
        },
        {
          "internalType": "uint256",
          "name": "i",
          "type": "uint256"
        },
        {
          "internalType": "uint256",
          "name": "k",
          "type": "uint256"
        },
        {
          "internalType": "uint256",
          "name": "deadLine",
          "type": "uint256"
        }
      ],
      "name": "createDODOPrivatePool",
      "outputs": [
        {
          "internalType": "address",
          "name": "newPrivatePool",
          "type": "address"
        }
      ],
      "stateMutability": "payable",
      "type": "function"
    },
    {
      "inputs": [
        {
          "internalType": "address",
          "name": "dppAddress",
          "type": "address"
        },
        {
          "internalType": "uint256[]",
          "name": "paramList",
          "type": "uint256[]"
        },
        {
          "internalType": "uint256[]",
          "name": "amountList",
          "type": "uint256[]"
        },
        {
          "internalType": "uint8",
          "name": "flag",
          "type": "uint8"
        },
        {
          "internalType": "uint256",
          "name": "minBaseReserve",
          "type": "uint256"
        },
        {
          "internalType": "uint256",
          "name": "minQuoteReserve",
          "type": "uint256"
        },
        {
          "internalType": "uint256",
          "name": "deadLine",
          "type": "uint256"
        }
      ],
      "name": "resetDODOPrivatePool",
      "outputs": [],
      "stateMutability": "payable",
      "type": "function"
    },
    {
      "inputs": [
        {
          "internalType": "address",
          "name": "toToken",
          "type": "address"
        },
        {
          "internalType": "uint256",
          "name": "minReturnAmount",
          "type": "uint256"
        },
        {
          "internalType": "address[]",
          "name": "dodoPairs",
          "type": "address[]"
        },
        {
          "internalType": "uint256",
          "name": "directions",
          "type": "uint256"
        },
        {
          "internalType": "bool",
          "name": "isIncentive",
          "type": "bool"
        },
        {
          "internalType": "uint256",
          "name": "deadLine",
          "type": "uint256"
        }
      ],
      "name": "dodoSwapV2ETHToToken",
      "outputs": [
        {
          "internalType": "uint256",
          "name": "returnAmount",
          "type": "uint256"
        }
      ],
      "stateMutability": "payable",
      "type": "function"
    },
    {
      "inputs": [
        {
          "internalType": "address",
          "name": "fromToken",
          "type": "address"
        },
        {
          "internalType": "uint256",
          "name": "fromTokenAmount",
          "type": "uint256"
        },
        {
          "internalType": "uint256",
          "name": "minReturnAmount",
          "type": "uint256"
        },
        {
          "internalType": "address[]",
          "name": "dodoPairs",
          "type": "address[]"
        },
        {
          "internalType": "uint256",
          "name": "directions",
          "type": "uint256"
        },
        {
          "internalType": "bool",
          "name": "isIncentive",
          "type": "bool"
        },
        {
          "internalType": "uint256",
          "name": "deadLine",
          "type": "uint256"
        }
      ],
      "name": "dodoSwapV2TokenToETH",
      "outputs": [
        {
          "internalType": "uint256",
          "name": "returnAmount",
          "type": "uint256"
        }
      ],
      "stateMutability": "nonpayable",
      "type": "function"
    },
    {
      "inputs": [
        {
          "internalType": "address",
          "name": "fromToken",
          "type": "address"
        },
        {
          "internalType": "address",
          "name": "toToken",
          "type": "address"
        },
        {
          "internalType": "uint256",
          "name": "fromTokenAmount",
          "type": "uint256"
        },
        {
          "internalType": "uint256",
          "name": "minReturnAmount",
          "type": "uint256"
        },
        {
          "internalType": "address[]",
          "name": "dodoPairs",
          "type": "address[]"
        },
        {
          "internalType": "uint256",
          "name": "directions",
          "type": "uint256"
        },
        {
          "internalType": "bool",
          "name": "isIncentive",
          "type": "bool"
        },
        {
          "internalType": "uint256",
          "name": "deadLine",
          "type": "uint256"
        }
      ],
      "name": "dodoSwapV2TokenToToken",
      "outputs": [
        {
          "internalType": "uint256",
          "name": "returnAmount",
          "type": "uint256"
        }
      ],
      "stateMutability": "nonpayable",
      "type": "function"
    },
    {
      "inputs": [
        {
          "internalType": "address",
          "name": "fromToken",
          "type": "address"
        },
        {
          "internalType": "address",
          "name": "toToken",
          "type": "address"
        },
        {
          "internalType": "address",
          "name": "approveTarget",
          "type": "address"
        },
        {
          "internalType": "address",
          "name": "swapTarget",
          "type": "address"
        },
        {
          "internalType": "uint256",
          "name": "fromTokenAmount",
          "type": "uint256"
        },
        {
          "internalType": "uint256",
          "name": "minReturnAmount",
          "type": "uint256"
        },
        {
          "internalType": "bytes",
          "name": "callDataConcat",
          "type": "bytes"
        },
        {
          "internalType": "bool",
          "name": "isIncentive",
          "type": "bool"
        },
        {
          "internalType": "uint256",
          "name": "deadLine",
          "type": "uint256"
        }
      ],
      "name": "externalSwap",
      "outputs": [
        {
          "internalType": "uint256",
          "name": "returnAmount",
          "type": "uint256"
        }
      ],
      "stateMutability": "payable",
      "type": "function"
    },
    {
      "inputs": [
        {
          "internalType": "address",
          "name": "fromToken",
          "type": "address"
        },
        {
          "internalType": "address",
          "name": "toToken",
          "type": "address"
        },
        {
          "internalType": "uint256",
          "name": "fromTokenAmount",
          "type": "uint256"
        },
        {
          "internalType": "uint256",
          "name": "minReturnAmount",
          "type": "uint256"
        },
        {
          "internalType": "address[]",
          "name": "dodoPairs",
          "type": "address[]"
        },
        {
          "internalType": "uint256",
          "name": "directions",
          "type": "uint256"
        },
        {
          "internalType": "bool",
          "name": "isIncentive",
          "type": "bool"
        },
        {
          "internalType": "uint256",
          "name": "deadLine",
          "type": "uint256"
        }
      ],
      "name": "dodoSwapV1",
      "outputs": [
        {
          "internalType": "uint256",
          "name": "returnAmount",
          "type": "uint256"
        }
      ],
      "stateMutability": "payable",
      "type": "function"
    },
    {
      "inputs": [
        {
          "internalType": "address",
          "name": "fromToken",
          "type": "address"
        },
        {
          "internalType": "address",
          "name": "toToken",
          "type": "address"
        },
        {
          "internalType": "uint256",
          "name": "fromTokenAmount",
          "type": "uint256"
        },
        {
          "internalType": "uint256",
          "name": "minReturnAmount",
          "type": "uint256"
        },
        {
          "internalType": "address[]",
          "name": "mixPairs",
          "type": "address[]"
        },
        {
          "internalType": "uint256[]",
          "name": "directions",
          "type": "uint256[]"
        },
        {
          "internalType": "address[]",
          "name": "portionPath",
          "type": "address[]"
        },
        {
          "internalType": "bool",
          "name": "isIncentive",
          "type": "bool"
        },
        {
          "internalType": "uint256",
          "name": "deadLine",
          "type": "uint256"
        }
      ],
      "name": "mixSwapV1",
      "outputs": [
        {
          "internalType": "uint256",
          "name": "returnAmount",
          "type": "uint256"
        }
      ],
      "stateMutability": "payable",
      "type": "function"
    },
    {
      "inputs": [
        {
          "internalType": "address",
          "name": "baseToken",
          "type": "address"
        },
        {
          "internalType": "address",
          "name": "quoteToken",
          "type": "address"
        },
        {
          "internalType": "uint256",
          "name": "baseInAmount",
          "type": "uint256"
        },
        {
          "internalType": "uint256[]",
          "name": "timeLine",
          "type": "uint256[]"
        },
        {
          "internalType": "uint256[]",
          "name": "valueList",
          "type": "uint256[]"
        },
        {
          "internalType": "uint256",
          "name": "deadLine",
          "type": "uint256"
        }
      ],
      "name": "createCrowdPooling",
      "outputs": [
        {
          "internalType": "address payable",
          "name": "newCrowdPooling",
          "type": "address"
        }
      ],
      "stateMutability": "payable",
      "type": "function"
    },
    {
      "inputs": [
        {
          "internalType": "address",
          "name": "cpAddress",
          "type": "address"
        },
        {
          "internalType": "uint256",
          "name": "quoteAmount",
          "type": "uint256"
        },
        {
          "internalType": "uint8",
          "name": "flag",
          "type": "uint8"
        },
        {
          "internalType": "uint256",
          "name": "deadLine",
          "type": "uint256"
        }
      ],
      "name": "bid",
      "outputs": [],
      "stateMutability": "payable",
      "type": "function"
    },
    {
      "inputs": [
        {
          "internalType": "address",
          "name": "pair",
          "type": "address"
        },
        {
          "internalType": "uint256",
          "name": "baseAmount",
          "type": "uint256"
        },
        {
          "internalType": "uint256",
          "name": "quoteAmount",
          "type": "uint256"
        },
        {
          "internalType": "uint256",
          "name": "baseMinShares",
          "type": "uint256"
        },
        {
          "internalType": "uint256",
          "name": "quoteMinShares",
          "type": "uint256"
        },
        {
          "internalType": "uint8",
          "name": "flag",
          "type": "uint8"
        },
        {
          "internalType": "uint256",
          "name": "deadLine",
          "type": "uint256"
        }
      ],
      "name": "addLiquidityToV1",
      "outputs": [
        {
          "internalType": "uint256",
          "name": "baseShares",
          "type": "uint256"
        },
        {
          "internalType": "uint256",
          "name": "quoteShares",
          "type": "uint256"
        }
      ],
      "stateMutability": "payable",
      "type": "function"
    }
  ],
  "bytecode": "0x610180604052600060025560006003553480156200001c57600080fd5b50604051620061ba380380620061ba83398181016040526101008110156200004357600080fd5b5080516020820151604083015160608085015160808087015160a08089015160c0808b015160e09b8c01516001600160601b03199b891b8c16909c5298871b8a166101005296861b89166101205293851b8816909252831b86169052811b841690915290811b8216610160529190911b166101405260805160601c60a05160601c60c05160601c60e05160601c6101005160601c6101205160601c6101405160601c6101605160601c615fe7620001d360003980610eda52806155c3528061583a525080611693528061221a5280612c025280612cbd52806133f95280613850528061516352508061441752806144e4528061521c525080613ffc52806140b6528061425d525080613c4c528061494c52508061139052806127bf5280613fd8525080611cd35280612ce152806135ae5280614d205280615338525080610f8b52806114e4528061157a528061207052806121255280612f285280612f8c52806141ac52806141f052806143f352806148a052806148ea528061524c52806152d452806156685250615fe76000f3fe6080604052600436106101e75760003560e01c806369e4e41711610102578063d6354c3e11610095578063e7cd4a0411610064578063e7cd4a0414610d7c578063f2fde38b14610daf578063f87dc1b714610de2578063faa980e414610ec3576101ee565b8063d6354c3e14610b54578063db2dc9a214610b84578063db70b5c714610cc9578063dcdad6ba14610d04576101ee565b80639f687322116100d15780639f68732214610ac0578063af1280b014610ad5578063b730d15014610aea578063c241df1c14610aff576101ee565b806369e4e417146109e95780636f9170f6146109fe5780638456db1514610a4557806399882c8f14610a5a576101ee565b806331d4fc231161017a5780635028bb95116101495780635028bb95146107c657806354bacd1314610889578063674d94221461096957806369dba8ee146109d4576101ee565b806331d4fc23146105b557806341cf71601461078757806346e742981461079c5780634e71e0c8146107b1576101ee565b806312ff148d116101b657806312ff148d1461034f57806316048bc4146104965780631e6d24c2146104ab5780632042e5c214610582576101ee565b8063056fc2ee146101f05780630d009297146102215780630d4eec8f146102545780630dd4ebd914610269576101ee565b366101ee57005b005b3480156101fc57600080fd5b50610205610ed8565b604080516001600160a01b039092168252519081900360200190f35b34801561022d57600080fd5b506101ee6004803603602081101561024457600080fd5b50356001600160a01b0316610efc565b34801561026057600080fd5b50610205610f89565b61033d600480360361010081101561028057600080fd5b6001600160a01b03823581169260208101359091169160408201359160608101359181019060a081016080820135600160201b8111156102bf57600080fd5b8201836020820111156102d157600080fd5b803590602001918460208302840111600160201b831117156102f257600080fd5b91908080602002602001604051908101604052809392919081815260200183836020028082843760009201919091525092955050823593505050602081013515159060400135610fad565b60408051918252519081900360200190f35b6101ee600480360360e081101561036557600080fd5b6001600160a01b038235169190810190604081016020820135600160201b81111561038f57600080fd5b8201836020820111156103a157600080fd5b803590602001918460208302840111600160201b831117156103c257600080fd5b9190808060200260200160405190810160405280939291908181526020018383602002808284376000920191909152509295949360208101935035915050600160201b81111561041157600080fd5b82018360208201111561042357600080fd5b803590602001918460208302840111600160201b8311171561044457600080fd5b9190808060200260200160405190810160405280939291908181526020018383602002808284376000920191909152509295505060ff833516935050506020810135906040810135906060013561174b565b3480156104a257600080fd5b50610205611bef565b3480156104b757600080fd5b5061033d600480360360e08110156104ce57600080fd5b6001600160a01b038235169160208101359160408201359190810190608081016060820135600160201b81111561050457600080fd5b82018360208201111561051657600080fd5b803590602001918460208302840111600160201b8311171561053757600080fd5b91908080602002602001604051908101604052809392919081815260200183836020028082843760009201919091525092955050823593505050602081013515159060400135611c03565b34801561058e57600080fd5b506101ee600480360360208110156105a557600080fd5b50356001600160a01b03166122db565b61033d60048036036101208110156105cc57600080fd5b6001600160a01b03823581169260208101359091169160408201359160608101359181019060a081016080820135600160201b81111561060b57600080fd5b82018360208201111561061d57600080fd5b803590602001918460208302840111600160201b8311171561063e57600080fd5b9190808060200260200160405190810160405280939291908181526020018383602002808284376000920191909152509295949360208101935035915050600160201b81111561068d57600080fd5b82018360208201111561069f57600080fd5b803590602001918460208302840111600160201b831117156106c057600080fd5b9190808060200260200160405190810160405280939291908181526020018383602002808284376000920191909152509295949360208101935035915050600160201b81111561070f57600080fd5b82018360208201111561072157600080fd5b803590602001918460208302840111600160201b8311171561074257600080fd5b9190808060200260200160405190810160405280939291908181526020018383602002808284376000920191909152509295505050508035151591506020013561234c565b34801561079357600080fd5b50610205612cbb565b3480156107a857600080fd5b50610205612cdf565b3480156107bd57600080fd5b506101ee612d03565b61033d600480360360c08110156107dc57600080fd5b6001600160a01b0382351691602081013591810190606081016040820135600160201b81111561080b57600080fd5b82018360208201111561081d57600080fd5b803590602001918460208302840111600160201b8311171561083e57600080fd5b91908080602002602001604051908101604052809392919081815260200183836020028082843760009201919091525092955050823593505050602081013515159060400135612dc7565b61033d60048036036101208110156108a057600080fd5b6001600160a01b038235811692602081013582169260408201358316926060830135169160808101359160a0820135919081019060e0810160c0820135600160201b8111156108ee57600080fd5b82018360208201111561090057600080fd5b803590602001918460018302840111600160201b8311171561092157600080fd5b91908080601f016020809104026020016040519081016040528093929190818152602001838380828437600092019190915250929550505050803515159150602001356134b9565b6109b6600480360360e081101561097f57600080fd5b506001600160a01b038135169060208101359060408101359060608101359060808101359060ff60a0820135169060c0013561393e565b60408051938452602084019290925282820152519081900360600190f35b3480156109e057600080fd5b5061033d613c44565b3480156109f557600080fd5b50610205613c4a565b348015610a0a57600080fd5b50610a3160048036036020811015610a2157600080fd5b50356001600160a01b0316613c6e565b604080519115158252519081900360200190f35b348015610a5157600080fd5b50610205613c83565b610aa7600480360360e0811015610a7057600080fd5b506001600160a01b038135169060208101359060408101359060608101359060808101359060ff60a0820135169060c00135613c92565b6040805192835260208301919091528051918290030190f35b348015610acc57600080fd5b5061033d613fd0565b348015610ae157600080fd5b50610205613fd6565b348015610af657600080fd5b50610205613ffa565b6102056004803603610100811015610b1657600080fd5b506001600160a01b03813581169160208101359091169060408101359060608101359060808101359060a08101359060c08101359060e0013561401e565b348015610b6057600080fd5b506101ee60048036036040811015610b7757600080fd5b50803590602001356142d9565b610205600480360360c0811015610b9a57600080fd5b6001600160a01b03823581169260208101359091169160408201359190810190608081016060820135600160201b811115610bd457600080fd5b820183602082011115610be657600080fd5b803590602001918460208302840111600160201b83111715610c0757600080fd5b9190808060200260200160405190810160405280939291908181526020018383602002808284376000920191909152509295949360208101935035915050600160201b811115610c5657600080fd5b820183602082011115610c6857600080fd5b803590602001918460208302840111600160201b83111715610c8957600080fd5b9190808060200260200160405190810160405280939291908181526020018383602002808284376000920191909152509295505091359250614334915050565b6101ee60048036036080811015610cdf57600080fd5b506001600160a01b038135169060208101359060ff6040820135169060600135614664565b610d596004803603610100811015610d1b57600080fd5b506001600160a01b03813581169160208101359091169060408101359060608101359060808101359060a08101359060c08101359060e001356147e0565b604080516001600160a01b03909316835260208301919091528051918290030190f35b348015610d8857600080fd5b506101ee60048036036020811015610d9f57600080fd5b50356001600160a01b0316614aa9565b348015610dbb57600080fd5b506101ee60048036036020811015610dd257600080fd5b50356001600160a01b0316614b1d565b348015610dee57600080fd5b5061033d6004803603610100811015610e0657600080fd5b6001600160a01b03823581169260208101359091169160408201359160608101359181019060a081016080820135600160201b811115610e4557600080fd5b820183602082011115610e5757600080fd5b803590602001918460208302840111600160201b83111715610e7857600080fd5b91908080602002602001604051908101604052809392919081815260200183836020028082843760009201919091525092955050823593505050602081013515159060400135614bcd565b348015610ecf57600080fd5b5061020561521a565b7f000000000000000000000000000000000000000000000000000000000000000081565b600154600160a01b900460ff1615610f4e576040805162461bcd60e51b815260206004820152601060248201526f1113d113d7d25392551250531256915160821b604482015290519081900360640190fd5b6001805460ff60a01b1916600160a01b179055600080546001600160a01b0390921661010002610100600160a81b0319909216919091179055565b7f000000000000000000000000000000000000000000000000000000000000000081565b60008142811015610ff3576040805162461bcd60e51b81526020600482015260166024820152600080516020615f92833981519152604482015290519081900360640190fd5b6000865111611037576040805162461bcd60e51b815260206004820152601a6024820152600080516020615f72833981519152604482015290519081900360640190fd5b600087116110765760405162461bcd60e51b8152600401808060200182810382526021815260200180615e5c6021913960400191505060405180910390fd5b60005a90508a8a6110a33330848e6001600160a01b038216600080516020615ecd8339815191521461523e565b60005b89518110156114a45760008a82815181106110bd57fe5b602002602001015190508960011660001415611267576000816001600160a01b0316634a248d2a6040518163ffffffff1660e01b8152600401602060405180830381600087803b15801561111057600080fd5b505af1158015611124573d6000803e3d6000fd5b505050506040513d602081101561113a57600080fd5b5051604080516370a0823160e01b815230600482015290519192506000916001600160a01b038416916370a08231916024808301926020929190829003018186803b15801561118857600080fd5b505afa15801561119c573d6000803e3d6000fd5b505050506040513d60208110156111b257600080fd5b505190506111d06001600160a01b038316848363ffffffff6153a216565b826001600160a01b0316638dae73338260006040518363ffffffff1660e01b815260040180838152602001828152602001806020018281038252600081526020016020019350505050602060405180830381600087803b15801561123357600080fd5b505af1158015611247573d6000803e3d6000fd5b505050506040513d602081101561125d57600080fd5b5061149792505050565b6000816001600160a01b031663d4b970466040518163ffffffff1660e01b8152600401602060405180830381600087803b1580156112a457600080fd5b505af11580156112b8573d6000803e3d6000fd5b505050506040513d60208110156112ce57600080fd5b5051604080516370a0823160e01b815230600482015290519192506000916001600160a01b038416916370a08231916024808301926020929190829003018186803b15801561131c57600080fd5b505afa158015611330573d6000803e3d6000fd5b505050506040513d602081101561134657600080fd5b505190506113646001600160a01b038316848363ffffffff6153a216565b6040805163ca19ebd960e01b81526001600160a01b0385811660048301526024820184905291516000927f0000000000000000000000000000000000000000000000000000000000000000169163ca19ebd9916044808301926020929190829003018186803b1580156113d657600080fd5b505afa1580156113ea573d6000803e3d6000fd5b505050506040513d602081101561140057600080fd5b50516040805163733e738360e11b815260048101839052602481018590526060604482015260006064820181905291519293506001600160a01b0387169263e67ce7069260a480840193602093929083900390910190829087803b15801561146757600080fd5b505af115801561147b573d6000803e3d6000fd5b505050506040513d602081101561149157600080fd5b50505050505b50600198891c98016110a6565b506001600160a01b038116600080516020615ecd83398151915214156115df57604080516370a0823160e01b815230600482015290516001600160a01b037f000000000000000000000000000000000000000000000000000000000000000016916370a08231916024808301926020929190829003018186803b15801561152a57600080fd5b505afa15801561153e573d6000803e3d6000fd5b505050506040513d602081101561155457600080fd5b505160408051632e1a7d4d60e01b81526004810183905290519196506001600160a01b037f00000000000000000000000000000000000000000000000000000000000000001691632e1a7d4d9160248082019260009290919082900301818387803b1580156115c257600080fd5b505af11580156115d6573d6000803e3d6000fd5b505050506115fb565b6115f86001600160a01b0382163063ffffffff61546c16565b94505b8985101561163a5760405162461bcd60e51b815260040180806020018281038252602a815260200180615e7d602a913960400191505060405180910390fd5b6116546001600160a01b038216338763ffffffff6154f916565b61165d83615568565b86156116f65760408051630622aa5960e21b81526001600160a01b038481166004830152838116602483015233604483015291517f00000000000000000000000000000000000000000000000000000000000000009092169163188aa9649160648082019260009290919082900301818387803b1580156116dd57600080fd5b505af11580156116f1573d6000803e3d6000fd5b505050505b604080516001600160a01b038085168252831660208201523381830152606081018d9052608081018790529051600080516020615e3c8339815191529181900360a00190a15050505098975050505050505050565b60005460ff161561178f576040805162461bcd60e51b815260206004820152600960248201526814915153951490539560ba1b604482015290519081900360640190fd5b6000805460ff1916600117905580428110156117e0576040805162461bcd60e51b81526020600482015260166024820152600080516020615f92833981519152604482015290519081900360640190fd5b61186b33898a6001600160a01b0316634a248d2a6040518163ffffffff1660e01b815260040160206040518083038186803b15801561181e57600080fd5b505afa158015611832573d6000803e3d6000fd5b505050506040513d602081101561184857600080fd5b505189518a9060009061185757fe5b60200260200101518960ff1660011461523e565b6118f833898a6001600160a01b031663d4b970466040518163ffffffff1660e01b815260040160206040518083038186803b1580156118a957600080fd5b505afa1580156118bd573d6000803e3d6000fd5b505050506040513d60208110156118d357600080fd5b505189518a9060019081106118e457fe5b60200260200101518960ff1660021461523e565b876001600160a01b03166316048bc46040518163ffffffff1660e01b8152600401602060405180830381600087803b15801561193357600080fd5b505af1158015611947573d6000803e3d6000fd5b505050506040513d602081101561195d57600080fd5b505187516001600160a01b0390911690638ff3928c9033908a9060009061198057fe5b60200260200101518a60018151811061199557fe5b60200260200101518b6002815181106119aa57fe5b60200260200101518b6002815181106119bf57fe5b60200260200101518c6003815181106119d457fe5b60200260200101518b8b6040518963ffffffff1660e01b815260040180896001600160a01b03166001600160a01b0316815260200188815260200187815260200186815260200185815260200184815260200183815260200182815260200198505050505050505050602060405180830381600087803b158015611a5757600080fd5b505af1158015611a6b573d6000803e3d6000fd5b505050506040513d6020811015611a8157600080fd5b5051611ac3576040805162461bcd60e51b815260206004820152600c60248201526b14995cd95d0811985a5b195960a21b604482015290519081900360640190fd5b611b4f33896001600160a01b0316634a248d2a6040518163ffffffff1660e01b815260040160206040518083038186803b158015611b0057600080fd5b505afa158015611b14573d6000803e3d6000fd5b505050506040513d6020811015611b2a57600080fd5b5051885189906002908110611b3b57fe5b60200260200101518860ff1660031461565a565b611bdb33896001600160a01b031663d4b970466040518163ffffffff1660e01b815260040160206040518083038186803b158015611b8c57600080fd5b505afa158015611ba0573d6000803e3d6000fd5b505050506040513d6020811015611bb657600080fd5b5051885189906003908110611bc757fe5b60200260200101518860ff1660041461565a565b50506000805460ff19169055505050505050565b60005461010090046001600160a01b031681565b60008142811015611c49576040805162461bcd60e51b81526020600482015260166024820152600080516020615f92833981519152604482015290519081900360640190fd5b6000865111611c8d576040805162461bcd60e51b815260206004820152601a6024820152600080516020615f72833981519152604482015290519081900360640190fd5b60008711611ccc5760405162461bcd60e51b8152600401808060200182810382526021815260200180615e5c6021913960400191505060405180910390fd5b60005a90507f00000000000000000000000000000000000000000000000000000000000000006001600160a01b0316630a5ea4668b338a600081518110611d0f57fe5b60200260200101518d6040518563ffffffff1660e01b815260040180856001600160a01b03166001600160a01b03168152602001846001600160a01b03166001600160a01b03168152602001836001600160a01b03166001600160a01b03168152602001828152602001945050505050600060405180830381600087803b158015611d9957600080fd5b505af1158015611dad573d6000803e3d6000fd5b506000925050505b875181101561204f576001885103811415611f0c5760018716611e6f57878181518110611dde57fe5b60200260200101516001600160a01b031663bd6015b4306040518263ffffffff1660e01b815260040180826001600160a01b03166001600160a01b03168152602001915050602060405180830381600087803b158015611e3d57600080fd5b505af1158015611e51573d6000803e3d6000fd5b505050506040513d6020811015611e6757600080fd5b50611f079050565b878181518110611e7b57fe5b60200260200101516001600160a01b031663dd93f59a306040518263ffffffff1660e01b815260040180826001600160a01b03166001600160a01b03168152602001915050602060405180830381600087803b158015611eda57600080fd5b505af1158015611eee573d6000803e3d6000fd5b505050506040513d6020811015611f0457600080fd5b50505b612043565b60018716611f9557878181518110611f2057fe5b60200260200101516001600160a01b031663bd6015b4898360010181518110611f4557fe5b60200260200101516040518263ffffffff1660e01b815260040180826001600160a01b03166001600160a01b03168152602001915050602060405180830381600087803b158015611eda57600080fd5b878181518110611fa157fe5b60200260200101516001600160a01b031663dd93f59a898360010181518110611fc657fe5b60200260200101516040518263ffffffff1660e01b815260040180826001600160a01b03166001600160a01b03168152602001915050602060405180830381600087803b15801561201657600080fd5b505af115801561202a573d6000803e3d6000fd5b505050506040513d602081101561204057600080fd5b50505b600196871c9601611db5565b50604080516370a0823160e01b815230600482015290516001600160a01b037f000000000000000000000000000000000000000000000000000000000000000016916370a08231916024808301926020929190829003018186803b1580156120b657600080fd5b505afa1580156120ca573d6000803e3d6000fd5b505050506040513d60208110156120e057600080fd5b50519250878310156121235760405162461bcd60e51b815260040180806020018281038252602a815260200180615e7d602a913960400191505060405180910390fd5b7f00000000000000000000000000000000000000000000000000000000000000006001600160a01b0316632e1a7d4d846040518263ffffffff1660e01b815260040180828152602001915050600060405180830381600087803b15801561218957600080fd5b505af115801561219d573d6000803e3d6000fd5b505060405133925085156108fc02915085906000818181858888f193505050501580156121ce573d6000803e3d6000fd5b506121d881615568565b841561227d5760408051630622aa5960e21b81526001600160a01b038c81166004830152600080516020615ecd833981519152602483015233604483015291517f00000000000000000000000000000000000000000000000000000000000000009092169163188aa9649160648082019260009290919082900301818387803b15801561226457600080fd5b505af1158015612278573d6000803e3d6000fd5b505050505b604080516001600160a01b038c168152600080516020615ecd83398151915260208201523381830152606081018b9052608081018590529051600080516020615e3c8339815191529181900360a00190a15050979650505050505050565b60005461010090046001600160a01b0316331461232b576040805162461bcd60e51b81526020600482015260096024820152682727aa2fa7aba722a960b91b604482015290519081900360640190fd5b6001600160a01b03166000908152600460205260409020805460ff19169055565b60008142811015612392576040805162461bcd60e51b81526020600482015260166024820152600080516020615f92833981519152604482015290519081900360640190fd5b85518751146123d25760405162461bcd60e51b8152600401808060200182810382526026815260200180615ea76026913960400191505060405180910390fd5b6000875111612416576040805162461bcd60e51b815260206004820152601a6024820152600080516020615f72833981519152604482015290519081900360640190fd5b600088116124555760405162461bcd60e51b8152600401808060200182810382526021815260200180615e5c6021913960400191505060405180910390fd5b60006124706001600160a01b038c163363ffffffff61572c16565b90508b8b61249a3330848f6001600160a01b038216600080516020615ecd8339815191521461523e565b60005b8a518160ff161015612b255760008b8260ff16815181106124ba57fe5b602002602001015190508a8260ff16815181106124d357fe5b602002602001015160001415612677576000816001600160a01b0316634a248d2a6040518163ffffffff1660e01b8152600401602060405180830381600087803b15801561252057600080fd5b505af1158015612534573d6000803e3d6000fd5b505050506040513d602081101561254a57600080fd5b5051604080516370a0823160e01b815230600482015290519192506000916001600160a01b038416916370a08231916024808301926020929190829003018186803b15801561259857600080fd5b505afa1580156125ac573d6000803e3d6000fd5b505050506040513d60208110156125c257600080fd5b505190506125e06001600160a01b038316848363ffffffff6153a216565b826001600160a01b0316638dae73338260006040518363ffffffff1660e01b815260040180838152602001828152602001806020018281038252600081526020016020019350505050602060405180830381600087803b15801561264357600080fd5b505af1158015612657573d6000803e3d6000fd5b505050506040513d602081101561266d57600080fd5b50612b1c92505050565b8a8260ff168151811061268657fe5b6020026020010151600114156128cb576000816001600160a01b031663d4b970466040518163ffffffff1660e01b8152600401602060405180830381600087803b1580156126d357600080fd5b505af11580156126e7573d6000803e3d6000fd5b505050506040513d60208110156126fd57600080fd5b5051604080516370a0823160e01b815230600482015290519192506000916001600160a01b038416916370a08231916024808301926020929190829003018186803b15801561274b57600080fd5b505afa15801561275f573d6000803e3d6000fd5b505050506040513d602081101561277557600080fd5b505190506127936001600160a01b038316848363ffffffff6153a216565b6040805163ca19ebd960e01b81526001600160a01b0385811660048301526024820184905291516000927f0000000000000000000000000000000000000000000000000000000000000000169163ca19ebd9916044808301926020929190829003018186803b15801561280557600080fd5b505afa158015612819573d6000803e3d6000fd5b505050506040513d602081101561282f57600080fd5b50516040805163733e738360e11b815260048101839052602481018590526060604482015260006064820181905291519293506001600160a01b0387169263e67ce7069260a480840193602093929083900390910190829087803b15801561289657600080fd5b505af11580156128aa573d6000803e3d6000fd5b505050506040513d60208110156128c057600080fd5b50612b1c9350505050565b60008a6000815181106128da57fe5b60200260200101516001600160a01b03166370a08231306040518263ffffffff1660e01b815260040180826001600160a01b03166001600160a01b0316815260200191505060206040518083038186803b15801561293757600080fd5b505afa15801561294b573d6000803e3d6000fd5b505050506040513d602081101561296157600080fd5b50518b5190915061299b90839083908e9060009061297b57fe5b60200260200101516001600160a01b03166153a29092919063ffffffff16565b816001600160a01b03166338ed17398260008e308e6040518663ffffffff1660e01b81526004018086815260200185815260200180602001846001600160a01b03166001600160a01b03168152602001838152602001828103825285818151815260200191508051906020019060200280838360005b83811015612a29578181015183820152602001612a11565b505050509050019650505050505050600060405180830381600087803b158015612a5257600080fd5b505af1158015612a66573d6000803e3d6000fd5b505050506040513d6000823e601f3d908101601f191682016040526020811015612a8f57600080fd5b8101908080516040519392919084600160201b821115612aae57600080fd5b908301906020820185811115612ac357600080fd5b82518660208202830111600160201b82111715612adf57600080fd5b82525081516020918201928201910280838360005b83811015612b0c578181015183820152602001612af4565b5050505090500160405250505050505b5060010161249d565b50612b5a33612b436001600160a01b0384163063ffffffff61572c16565b6001600160a01b038416919063ffffffff6154f916565b612b8383612b776001600160a01b0384163363ffffffff61572c16565b9063ffffffff6157d616565b94508a851015612bc45760405162461bcd60e51b815260040180806020018281038252602a815260200180615e7d602a913960400191505060405180910390fd5b612bcc61581f565b8615612c655760408051630622aa5960e21b81526001600160a01b038481166004830152838116602483015233604483015291517f00000000000000000000000000000000000000000000000000000000000000009092169163188aa9649160648082019260009290919082900301818387803b158015612c4c57600080fd5b505af1158015612c60573d6000803e3d6000fd5b505050505b604080516001600160a01b038085168252831660208201523381830152606081018e9052608081018790529051600080516020615e3c8339815191529181900360a00190a1505050509998505050505050505050565b7f000000000000000000000000000000000000000000000000000000000000000081565b7f000000000000000000000000000000000000000000000000000000000000000081565b6001546001600160a01b03163314612d52576040805162461bcd60e51b815260206004820152600d60248201526c494e56414c49445f434c41494d60981b604482015290519081900360640190fd5b600154600080546040516001600160a01b0393841693610100909204909116917f8be0079c531659141344cd1fd0a4f28419497f9722a3daafe3b4186f6b6457e091a36001805460008054610100600160a81b0319166101006001600160a01b038416021790556001600160a01b0319169055565b60008142811015612e0d576040805162461bcd60e51b81526020600482015260166024820152600080516020615f92833981519152604482015290519081900360640190fd5b6000865111612e51576040805162461bcd60e51b815260206004820152601a6024820152600080516020615f72833981519152604482015290519081900360640190fd5b60008711612e905760405162461bcd60e51b8152600401808060200182810382526021815260200180615e5c6021913960400191505060405180910390fd5b60005a604080516370a0823160e01b815233600482015290519192506000916001600160a01b038c16916370a08231916024808301926020929190829003018186803b158015612edf57600080fd5b505afa158015612ef3573d6000803e3d6000fd5b505050506040513d6020811015612f0957600080fd5b505160408051630d0e30db60e41b815290519192506001600160a01b037f0000000000000000000000000000000000000000000000000000000000000000169163d0e30db0913491600480830192600092919082900301818588803b158015612f7157600080fd5b505af1158015612f85573d6000803e3d6000fd5b50505050507f00000000000000000000000000000000000000000000000000000000000000006001600160a01b031663a9059cbb89600081518110612fc657fe5b6020026020010151346040518363ffffffff1660e01b815260040180836001600160a01b03166001600160a01b0316815260200182815260200192505050602060405180830381600087803b15801561301e57600080fd5b505af1158015613032573d6000803e3d6000fd5b505050506040513d602081101561304857600080fd5b50600090505b88518110156132e85760018951038114156131a557600188166131085788818151811061307757fe5b60200260200101516001600160a01b031663bd6015b4336040518263ffffffff1660e01b815260040180826001600160a01b03166001600160a01b03168152602001915050602060405180830381600087803b1580156130d657600080fd5b505af11580156130ea573d6000803e3d6000fd5b505050506040513d602081101561310057600080fd5b506131a09050565b88818151811061311457fe5b60200260200101516001600160a01b031663dd93f59a336040518263ffffffff1660e01b815260040180826001600160a01b03166001600160a01b03168152602001915050602060405180830381600087803b15801561317357600080fd5b505af1158015613187573d6000803e3d6000fd5b505050506040513d602081101561319d57600080fd5b50505b6132dc565b6001881661322e578881815181106131b957fe5b60200260200101516001600160a01b031663bd6015b48a83600101815181106131de57fe5b60200260200101516040518263ffffffff1660e01b815260040180826001600160a01b03166001600160a01b03168152602001915050602060405180830381600087803b15801561317357600080fd5b88818151811061323a57fe5b60200260200101516001600160a01b031663dd93f59a8a836001018151811061325f57fe5b60200260200101516040518263ffffffff1660e01b815260040180826001600160a01b03166001600160a01b03168152602001915050602060405180830381600087803b1580156132af57600080fd5b505af11580156132c3573d6000803e3d6000fd5b505050506040513d60208110156132d957600080fd5b50505b600197881c970161304e565b50604080516370a0823160e01b8152336004820152905161336d9183916001600160a01b038e16916370a08231916024808301926020929190829003018186803b15801561333557600080fd5b505afa158015613349573d6000803e3d6000fd5b505050506040513d602081101561335f57600080fd5b50519063ffffffff6157d616565b9350888410156133ae5760405162461bcd60e51b815260040180806020018281038252602a815260200180615e7d602a913960400191505060405180910390fd5b6133b782615568565b851561345c5760408051630622aa5960e21b8152600080516020615ecd83398151915260048201526001600160a01b038c8116602483015233604483015291517f00000000000000000000000000000000000000000000000000000000000000009092169163188aa9649160648082019260009290919082900301818387803b15801561344357600080fd5b505af1158015613457573d6000803e3d6000fd5b505050505b60408051600080516020615ecd83398151915281526001600160a01b038c1660208201523381830152346060820152608081018690529051600080516020615e3c8339815191529181900360a00190a15050509695505050505050565b600081428110156134ff576040805162461bcd60e51b81526020600482015260166024820152600080516020615f92833981519152604482015290519081900360640190fd5b6000861161353e5760405162461bcd60e51b8152600401808060200182810382526021815260200180615e5c6021913960400191505060405180910390fd5b60006135596001600160a01b038c163363ffffffff61572c16565b90506001600160a01b038c16600080516020615ecd83398151915214613625576040805163052f523360e11b81526001600160a01b038e81166004830152336024830152306044830152606482018b905291517f000000000000000000000000000000000000000000000000000000000000000090921691630a5ea4669160848082019260009290919082900301818387803b1580156135f857600080fd5b505af115801561360c573d6000803e3d6000fd5b50613625925050506001600160a01b038d168b8a6153a2565b6001600160a01b03891660009081526004602052604090205460ff1661367c5760405162461bcd60e51b8152600401808060200182810382526025815260200180615eed6025913960400191505060405180910390fd5b60006001600160a01b03808b16908e16600080516020615ecd833981519152146136a75760006136a9565b345b886040518082805190602001908083835b602083106136d95780518252601f1990920191602091820191016136ba565b6001836020036101000a03801982511681845116808217855250505050505090500191505060006040518083038185875af1925050503d806000811461373b576040519150601f19603f3d011682016040523d82523d6000602084013e613740565b606091505b50509050806137805760405162461bcd60e51b815260040180806020018281038252602d815260200180615e0f602d913960400191505060405180910390fd5b6137b43361379d6001600160a01b038f163063ffffffff61572c16565b6001600160a01b038f16919063ffffffff6154f916565b6137d182612b776001600160a01b038f163363ffffffff61572c16565b9350878410156138125760405162461bcd60e51b815260040180806020018281038252602a815260200180615e7d602a913960400191505060405180910390fd5b61381a61581f565b85156138b35760408051630622aa5960e21b81526001600160a01b038f811660048301528e8116602483015233604483015291517f00000000000000000000000000000000000000000000000000000000000000009092169163188aa9649160648082019260009290919082900301818387803b15801561389a57600080fd5b505af11580156138ae573d6000803e3d6000fd5b505050505b600080516020615e3c8339815191528d8d338c8860405180866001600160a01b03166001600160a01b03168152602001856001600160a01b03166001600160a01b03168152602001846001600160a01b03166001600160a01b031681526020018381526020018281526020019550505050505060405180910390a15050509998505050505050505050565b600080548190819060ff1615613987576040805162461bcd60e51b815260206004820152600960248201526814915153951490539560ba1b604482015290519081900360640190fd5b6000805460ff1916600117905583428110156139d8576040805162461bcd60e51b81526020600482015260166024820152600080516020615f92833981519152604482015290519081900360640190fd5b8a6139e4818c8c6158cb565b90945092508884108015906139f95750878310155b613a345760405162461bcd60e51b815260040180806020018281038252602b815260200180615dbd602b913960400191505060405180910390fd5b613aab3382836001600160a01b0316634a248d2a6040518163ffffffff1660e01b815260040160206040518083038186803b158015613a7257600080fd5b505afa158015613a86573d6000803e3d6000fd5b505050506040513d6020811015613a9c57600080fd5b505187600160ff8d161461523e565b613b223382836001600160a01b031663d4b970466040518163ffffffff1660e01b815260040160206040518083038186803b158015613ae957600080fd5b505afa158015613afd573d6000803e3d6000fd5b505050506040513d6020811015613b1357600080fd5b505186600260ff8d161461523e565b60408051634c85b42560e01b815233600482015290516001600160a01b03831691634c85b4259160248083019260609291908290030181600087803b158015613b6a57600080fd5b505af1158015613b7e573d6000803e3d6000fd5b505050506040513d6060811015613b9457600080fd5b50519450600160ff8816148015613baa57508334115b15613be05760405133903486900380156108fc02916000818181858888f19350505050158015613bde573d6000803e3d6000fd5b505b8660ff166002148015613bf257508234115b15613c285760405133903485900380156108fc02916000818181858888f19350505050158015613c26573d6000803e3d6000fd5b505b50506000805460ff191690559199909850909650945050505050565b60035481565b7f000000000000000000000000000000000000000000000000000000000000000081565b60046020526000908152604090205460ff1681565b6001546001600160a01b031681565b60008054819060ff1615613cd9576040805162461bcd60e51b815260206004820152600960248201526814915153951490539560ba1b604482015290519081900360640190fd5b6000805460ff191660011790558242811015613d2a576040805162461bcd60e51b81526020600482015260166024820152600080516020615f92833981519152604482015290519081900360640190fd5b60008a6001600160a01b0316634a248d2a6040518163ffffffff1660e01b8152600401602060405180830381600087803b158015613d6757600080fd5b505af1158015613d7b573d6000803e3d6000fd5b505050506040513d6020811015613d9157600080fd5b505160408051636a5cb82360e11b815290519192506000916001600160a01b038e169163d4b9704691600480830192602092919082900301818787803b158015613dda57600080fd5b505af1158015613dee573d6000803e3d6000fd5b505050506040513d6020811015613e0457600080fd5b50519050613e1b3330848e600160ff8d161461523e565b613e2e3330838d8b60ff1660021461523e565b8a15613ecc57613e4e6001600160a01b0383168d8d63ffffffff6153a216565b6040805163aa06ce9b60e01b8152336004820152602481018d905290516001600160a01b038e169163aa06ce9b9160448083019260209291908290030181600087803b158015613e9d57600080fd5b505af1158015613eb1573d6000803e3d6000fd5b505050506040513d6020811015613ec757600080fd5b505194505b8915613f6a57613eec6001600160a01b0382168d8c63ffffffff6153a216565b604080516317c5e7d960e21b8152336004820152602481018c905290516001600160a01b038e1691635f179f649160448083019260209291908290030181600087803b158015613f3b57600080fd5b505af1158015613f4f573d6000803e3d6000fd5b505050506040513d6020811015613f6557600080fd5b505193505b888510158015613f7a5750878410155b613fb55760405162461bcd60e51b8152600401808060200182810382526027815260200180615de86027913960400191505060405180910390fd5b50506000805460ff1916905550909890975095505050505050565b60025481565b7f000000000000000000000000000000000000000000000000000000000000000081565b7f000000000000000000000000000000000000000000000000000000000000000081565b6000805460ff1615614063576040805162461bcd60e51b815260206004820152600960248201526814915153951490539560ba1b604482015290519081900360640190fd5b6000805460ff1916600117905581428110156140b4576040805162461bcd60e51b81526020600482015260166024820152600080516020615f92833981519152604482015290519081900360640190fd5b7f00000000000000000000000000000000000000000000000000000000000000006001600160a01b03166309b8adb86040518163ffffffff1660e01b8152600401602060405180830381600087803b15801561410f57600080fd5b505af1158015614123573d6000803e3d6000fd5b505050506040513d602081101561413957600080fd5b5051915089896141653385848d6001600160a01b038216600080516020615ecd8339815191521461523e565b61418b3385838c6001600160a01b038216600080516020615ecd8339815191521461523e565b6001600160a01b038216600080516020615ecd83398151915214156141ce577f000000000000000000000000000000000000000000000000000000000000000091505b6001600160a01b038116600080516020615ecd833981519152141561421057507f00000000000000000000000000000000000000000000000000000000000000005b604080516306e6939760e11b81526001600160a01b03868116600483015233602483015284811660448301528381166064830152608482018b905260a4820189905260c482018a905291517f000000000000000000000000000000000000000000000000000000000000000090921691630dcd272e9160e48082019260009290919082900301818387803b1580156142a757600080fd5b505af11580156142bb573d6000803e3d6000fd5b50506000805460ff1916905550939c9b505050505050505050505050565b60005461010090046001600160a01b03163314614329576040805162461bcd60e51b81526020600482015260096024820152682727aa2fa7aba722a960b91b604482015290519081900360640190fd5b600291909155600355565b6000805460ff1615614379576040805162461bcd60e51b815260206004820152600960248201526814915153951490539560ba1b604482015290519081900360640190fd5b6000805460ff1916600117905581428110156143ca576040805162461bcd60e51b81526020600482015260166024820152600080516020615f92833981519152604482015290519081900360640190fd5b8760006001600160a01b038916600080516020615ecd833981519152146143f15788614413565b7f00000000000000000000000000000000000000000000000000000000000000005b90507f00000000000000000000000000000000000000000000000000000000000000006001600160a01b03166389edcf146040518163ffffffff1660e01b8152600401602060405180830381600087803b15801561447057600080fd5b505af1158015614484573d6000803e3d6000fd5b505050506040513d602081101561449a57600080fd5b505193506144ac3385848b600061523e565b6040516001600160a01b038516903480156108fc02916000818181858888f193505050501580156144e1573d6000803e3d6000fd5b507f00000000000000000000000000000000000000000000000000000000000000006001600160a01b031663b67df331853385858c8c6040518763ffffffff1660e01b815260040180876001600160a01b03166001600160a01b03168152602001866001600160a01b03166001600160a01b03168152602001856001600160a01b03166001600160a01b03168152602001846001600160a01b03166001600160a01b031681526020018060200180602001838103835285818151815260200191508051906020019060200280838360005b838110156145ca5781810151838201526020016145b2565b50505050905001838103825284818151815260200191508051906020019060200280838360005b838110156146095781810151838201526020016145f1565b5050505090500198505050505050505050600060405180830381600087803b15801561463457600080fd5b505af1158015614648573d6000803e3d6000fd5b50506000805460ff1916905550939a9950505050505050505050565b60005460ff16156146a8576040805162461bcd60e51b815260206004820152600960248201526814915153951490539560ba1b604482015290519081900360640190fd5b6000805460ff1916600117905580428110156146f9576040805162461bcd60e51b81526020600482015260166024820152600080516020615f92833981519152604482015290519081900360640190fd5b6147703386876001600160a01b031663d4b970466040518163ffffffff1660e01b815260040160206040518083038186803b15801561473757600080fd5b505afa15801561474b573d6000803e3d6000fd5b505050506040513d602081101561476157600080fd5b505187600160ff89161461523e565b60408051639cf5453d60e01b815233600482015290516001600160a01b03871691639cf5453d91602480830192600092919082900301818387803b1580156147b757600080fd5b505af11580156147cb573d6000803e3d6000fd5b50506000805460ff1916905550505050505050565b60008054819060ff1615614827576040805162461bcd60e51b815260206004820152600960248201526814915153951490539560ba1b604482015290519081900360640190fd5b6000805460ff191660011790558242811015614878576040805162461bcd60e51b81526020600482015260166024820152600080516020615f92833981519152604482015290519081900360640190fd5b60006001600160a01b038c16600080516020615ecd8339815191521461489e578b6148c0565b7f00000000000000000000000000000000000000000000000000000000000000005b905060006001600160a01b038c16600080516020615ecd833981519152146148e8578b61490a565b7f00000000000000000000000000000000000000000000000000000000000000005b6040805163534ee7eb60e11b81526001600160a01b0385811660048301528381166024830152604482018d9052606482018c9052608482018b905291519293507f00000000000000000000000000000000000000000000000000000000000000009091169163a69dcfd69160a4808201926020929091908290030181600087803b15801561499757600080fd5b505af11580156149ab573d6000803e3d6000fd5b505050506040513d60208110156149c157600080fd5b505194508c91508b90506149f13386848e6001600160a01b038216600080516020615ecd8339815191521461523e565b614a173386838d6001600160a01b038216600080516020615ecd8339815191521461523e565b505060408051634c85b42560e01b815233600482015290516001600160a01b03851691634c85b4259160248083019260609291908290030181600087803b158015614a6157600080fd5b505af1158015614a75573d6000803e3d6000fd5b505050506040513d6060811015614a8b57600080fd5b50516000805460ff19169055929b929a509198505050505050505050565b60005461010090046001600160a01b03163314614af9576040805162461bcd60e51b81526020600482015260096024820152682727aa2fa7aba722a960b91b604482015290519081900360640190fd5b6001600160a01b03166000908152600460205260409020805460ff19166001179055565b60005461010090046001600160a01b03163314614b6d576040805162461bcd60e51b81526020600482015260096024820152682727aa2fa7aba722a960b91b604482015290519081900360640190fd5b600080546040516001600160a01b038085169361010090930416917fdcf55418cee3220104fef63f979ff3c4097ad240c0c43dcb33ce837748983e6291a3600180546001600160a01b0319166001600160a01b0392909216919091179055565b60008142811015614c13576040805162461bcd60e51b81526020600482015260166024820152600080516020615f92833981519152604482015290519081900360640190fd5b6000865111614c57576040805162461bcd60e51b815260206004820152601a6024820152600080516020615f72833981519152604482015290519081900360640190fd5b60008711614c965760405162461bcd60e51b8152600401808060200182810382526021815260200180615e5c6021913960400191505060405180910390fd5b60005a604080516370a0823160e01b815233600482015290519192506000916001600160a01b038d16916370a08231916024808301926020929190829003018186803b158015614ce557600080fd5b505afa158015614cf9573d6000803e3d6000fd5b505050506040513d6020811015614d0f57600080fd5b505188519091506001600160a01b037f00000000000000000000000000000000000000000000000000000000000000001690630a5ea466908e9033908c90600090614d5657fe5b60200260200101518e6040518563ffffffff1660e01b815260040180856001600160a01b03166001600160a01b03168152602001846001600160a01b03166001600160a01b03168152602001836001600160a01b03166001600160a01b03168152602001828152602001945050505050600060405180830381600087803b158015614de057600080fd5b505af1158015614df4573d6000803e3d6000fd5b506000925050505b8851811015615096576001895103811415614f535760018816614eb657888181518110614e2557fe5b60200260200101516001600160a01b031663bd6015b4336040518263ffffffff1660e01b815260040180826001600160a01b03166001600160a01b03168152602001915050602060405180830381600087803b158015614e8457600080fd5b505af1158015614e98573d6000803e3d6000fd5b505050506040513d6020811015614eae57600080fd5b50614f4e9050565b888181518110614ec257fe5b60200260200101516001600160a01b031663dd93f59a336040518263ffffffff1660e01b815260040180826001600160a01b03166001600160a01b03168152602001915050602060405180830381600087803b158015614f2157600080fd5b505af1158015614f35573d6000803e3d6000fd5b505050506040513d6020811015614f4b57600080fd5b50505b61508a565b60018816614fdc57888181518110614f6757fe5b60200260200101516001600160a01b031663bd6015b48a8360010181518110614f8c57fe5b60200260200101516040518263ffffffff1660e01b815260040180826001600160a01b03166001600160a01b03168152602001915050602060405180830381600087803b158015614f2157600080fd5b888181518110614fe857fe5b60200260200101516001600160a01b031663dd93f59a8a836001018151811061500d57fe5b60200260200101516040518263ffffffff1660e01b815260040180826001600160a01b03166001600160a01b03168152602001915050602060405180830381600087803b15801561505d57600080fd5b505af1158015615071573d6000803e3d6000fd5b505050506040513d602081101561508757600080fd5b50505b600197881c9701614dfc565b50604080516370a0823160e01b815233600482015290516150e39183916001600160a01b038f16916370a08231916024808301926020929190829003018186803b15801561333557600080fd5b9350888410156151245760405162461bcd60e51b815260040180806020018281038252602a815260200180615e7d602a913960400191505060405180910390fd5b61512d82615568565b85156151c65760408051630622aa5960e21b81526001600160a01b038e811660048301528d8116602483015233604483015291517f00000000000000000000000000000000000000000000000000000000000000009092169163188aa9649160648082019260009290919082900301818387803b1580156151ad57600080fd5b505af11580156151c1573d6000803e3d6000fd5b505050505b604080516001600160a01b03808f1682528d1660208201523381830152606081018c9052608081018690529051600080516020615e3c8339815191529181900360a00190a150505098975050505050505050565b7f000000000000000000000000000000000000000000000000000000000000000081565b80156152ff5781156152fa577f00000000000000000000000000000000000000000000000000000000000000006001600160a01b031663d0e30db0836040518263ffffffff1660e01b81526004016000604051808303818588803b1580156152a557600080fd5b505af11580156152b9573d6000803e3d6000fd5b505050506001600160a01b038516301490506152fa576152fa7f000000000000000000000000000000000000000000000000000000000000000085846159dd565b61539b565b6040805163052f523360e11b81526001600160a01b038581166004830152878116602483015286811660448301526064820185905291517f000000000000000000000000000000000000000000000000000000000000000090921691630a5ea4669160848082019260009290919082900301818387803b15801561538257600080fd5b505af1158015615396573d6000803e3d6000fd5b505050505b5050505050565b60408051636eb1769f60e11b81523060048201526001600160a01b038481166024830152915160009286169163dd62ed3e916044808301926020929190829003018186803b1580156153f357600080fd5b505afa158015615407573d6000803e3d6000fd5b505050506040513d602081101561541d57600080fd5b505190508181101561546657801561544a5761544a6001600160a01b03851684600063ffffffff615a2f16565b6154666001600160a01b0385168460001963ffffffff615a2f16565b50505050565b6000826001600160a01b03166370a08231836040518263ffffffff1660e01b815260040180826001600160a01b03166001600160a01b0316815260200191505060206040518083038186803b1580156154c457600080fd5b505afa1580156154d8573d6000803e3d6000fd5b505050506040513d60208110156154ee57600080fd5b505190505b92915050565b80156155635761550883615b42565b15615549576040516001600160a01b0383169082156108fc029083906000818181858888f19350505050158015615543573d6000803e3d6000fd5b50615563565b6155636001600160a01b038416838363ffffffff6159dd16565b505050565b600254801561565657600061fde86155875a859063ffffffff6157d616565b8161558e57fe5b04905060008282116155a057816155a2565b825b9050600381101580156155bc5750806117c002616c3e015a115b15615466577f00000000000000000000000000000000000000000000000000000000000000006001600160a01b0316636366b936826040518263ffffffff1660e01b815260040180828152602001915050602060405180830381600087803b15801561562757600080fd5b505af115801561563b573d6000803e3d6000fd5b505050506040513d602081101561565157600080fd5b505050505b5050565b801561572157811561571c577f00000000000000000000000000000000000000000000000000000000000000006001600160a01b0316632e1a7d4d836040518263ffffffff1660e01b815260040180828152602001915050600060405180830381600087803b1580156156cc57600080fd5b505af11580156156e0573d6000803e3d6000fd5b50506040516001600160a01b038716925084156108fc02915084906000818181858888f1935050505015801561571a573d6000803e3d6000fd5b505b615466565b6154668385846159dd565b600061573783615b42565b1561574d57506001600160a01b038116316154f3565b826001600160a01b03166370a08231836040518263ffffffff1660e01b815260040180826001600160a01b03166001600160a01b0316815260200191505060206040518083038186803b1580156157a357600080fd5b505afa1580156157b7573d6000803e3d6000fd5b505050506040513d60208110156157cd57600080fd5b505190506154f3565b600082821115615819576040805162461bcd60e51b815260206004820152600960248201526829aaa12fa2a92927a960b91b604482015290519081900360640190fd5b50900390565b60035480156158c857806117c002616c3e015a11156158c8577f00000000000000000000000000000000000000000000000000000000000000006001600160a01b0316636366b936826040518263ffffffff1660e01b815260040180828152602001915050602060405180830381600087803b15801561589e57600080fd5b505af11580156158b2573d6000803e3d6000fd5b505050506040513d602081101561556357600080fd5b50565b600080600080866001600160a01b03166336223ce96040518163ffffffff1660e01b8152600401604080518083038186803b15801561590957600080fd5b505afa15801561591d573d6000803e3d6000fd5b505050506040513d604081101561593357600080fd5b50805160209091015190925090508015801561594d575081155b15615959578593508492505b801580156159675750600082115b1561597457859350600092505b6000811180156159845750600082115b156159d35760006159958784615b61565b905060006159a38784615b61565b90508082116159c0578795506159b98383615b92565b94506159d0565b8694506159cd8482615b92565b95505b50505b5050935093915050565b604080516001600160a01b038416602482015260448082018490528251808303909101815260649091019091526020810180516001600160e01b031663a9059cbb60e01b179052615563908490615bbc565b801580615ab5575060408051636eb1769f60e11b81523060048201526001600160a01b03848116602483015291519185169163dd62ed3e91604480820192602092909190829003018186803b158015615a8757600080fd5b505afa158015615a9b573d6000803e3d6000fd5b505050506040513d6020811015615ab157600080fd5b5051155b615af05760405162461bcd60e51b8152600401808060200182810382526036815260200180615f3c6036913960400191505060405180910390fd5b604080516001600160a01b038416602482015260448082018490528251808303909101815260649091019091526020810180516001600160e01b031663095ea7b360e01b179052615563908490615bbc565b6001600160a01b038116600080516020615ecd83398151915214919050565b6000615b8b82615b7f85670de0b6b3a764000063ffffffff615d1116565b9063ffffffff615d6c16565b9392505050565b6000670de0b6b3a7640000615bad848463ffffffff615d1116565b81615bb457fe5b049392505050565b60006060836001600160a01b0316836040518082805190602001908083835b60208310615bfa5780518252601f199092019160209182019101615bdb565b6001836020036101000a0380198251168184511680821785525050505050509050019150506000604051808303816000865af19150503d8060008114615c5c576040519150601f19603f3d011682016040523d82523d6000602084013e615c61565b606091505b509150915081615cb8576040805162461bcd60e51b815260206004820181905260248201527f5361666545524332303a206c6f772d6c6576656c2063616c6c206661696c6564604482015290519081900360640190fd5b80511561546657808060200190516020811015615cd457600080fd5b50516154665760405162461bcd60e51b815260040180806020018281038252602a815260200180615f12602a913960400191505060405180910390fd5b600082615d20575060006154f3565b82820282848281615d2d57fe5b0414615b8b576040805162461bcd60e51b815260206004820152600960248201526826aaa62fa2a92927a960b91b604482015290519081900360640190fd5b6000808211615db3576040805162461bcd60e51b815260206004820152600e60248201526d2224ab24a224a723afa2a92927a960911b604482015290519081900360640190fd5b818381615bb457fefe444f444f563250726f787930313a206465706f73697420616d6f756e74206973206e6f7420656e6f756768444f444f563250726f787930313a2052657475726e20444c50206973206e6f7420656e6f756768444f444f563250726f787930313a2045787465726e616c205377617020657865637574696f6e204661696c656492ceb067a9883c85aba061e46b9edf505a0d6e81927c4b966ebed543a5221787444f444f563250726f787930313a2052455455524e5f414d4f554e545f5a45524f444f444f563250726f787930313a2052657475726e20616d6f756e74206973206e6f7420656e6f756768444f444f563250726f787930313a20504152414d535f4c454e4754485f4e4f545f4d41544348000000000000000000000000eeeeeeeeeeeeeeeeeeeeeeeeeeeeeeeeeeeeeeee444f444f563250726f787930313a204e6f742057686974656c69737420436f6e74726163745361666545524332303a204552433230206f7065726174696f6e20646964206e6f7420737563636565645361666545524332303a20617070726f76652066726f6d206e6f6e2d7a65726f20746f206e6f6e2d7a65726f20616c6c6f77616e6365444f444f563250726f787930313a2050414952535f454d505459000000000000444f444f563250726f787930313a204558504952454400000000000000000000a2646970667358221220e6fdf7f4950ed660be7f39e0d487775da7e08dce70e0784ea1d2c1d85f15806a64736f6c63430006090033",
  "immutableReferences": {
    "12091": [
      {
        "length": 32,
        "start": 3979
      },
      {
        "length": 32,
        "start": 5348
      },
      {
        "length": 32,
        "start": 5498
      },
      {
        "length": 32,
        "start": 8304
      },
      {
        "length": 32,
        "start": 8485
      },
      {
        "length": 32,
        "start": 12072
      },
      {
        "length": 32,
        "start": 12172
      },
      {
        "length": 32,
        "start": 16812
      },
      {
        "length": 32,
        "start": 16880
      },
      {
        "length": 32,
        "start": 17395
      },
      {
        "length": 32,
        "start": 18592
      },
      {
        "length": 32,
        "start": 18666
      },
      {
        "length": 32,
        "start": 21068
      },
      {
        "length": 32,
        "start": 21204
      },
      {
        "length": 32,
        "start": 22120
      }
    ],
    "12093": [
      {
        "length": 32,
        "start": 7379
      },
      {
        "length": 32,
        "start": 11489
      },
      {
        "length": 32,
        "start": 13742
      },
      {
        "length": 32,
        "start": 19744
      },
      {
        "length": 32,
        "start": 21304
      }
    ],
    "12095": [
      {
        "length": 32,
        "start": 5008
      },
      {
        "length": 32,
        "start": 10175
      },
      {
        "length": 32,
        "start": 16344
      }
    ],
    "12097": [
      {
        "length": 32,
        "start": 15436
      },
      {
        "length": 32,
        "start": 18764
      }
    ],
    "12099": [
      {
        "length": 32,
        "start": 16380
      },
      {
        "length": 32,
        "start": 16566
      },
      {
        "length": 32,
        "start": 16989
      }
    ],
    "12101": [
      {
        "length": 32,
        "start": 17431
      },
      {
        "length": 32,
        "start": 17636
      },
      {
        "length": 32,
        "start": 21020
      }
    ],
    "12103": [
      {
        "length": 32,
        "start": 5779
      },
      {
        "length": 32,
        "start": 8730
      },
      {
        "length": 32,
        "start": 11266
      },
      {
        "length": 32,
        "start": 11453
      },
      {
        "length": 32,
        "start": 13305
      },
      {
        "length": 32,
        "start": 14416
      },
      {
        "length": 32,
        "start": 20835
      }
    ],
    "12105": [
      {
        "length": 32,
        "start": 3802
      },
      {
        "length": 32,
        "start": 21955
      },
      {
        "length": 32,
        "start": 22586
      }
    ]
  },
  "source": "/*\n\n    Copyright 2020 DODO ZOO.\n    SPDX-License-Identifier: Apache-2.0\n\n*/\n\npragma solidity 0.6.9;\n\nimport {IDODOV2Proxy01} from \"./intf/IDODOV2Proxy01.sol\";\nimport {IDODOV2} from \"./intf/IDODOV2.sol\";\nimport {IDODOV1} from \"./intf/IDODOV1.sol\";\nimport {IDODOApprove} from \"../intf/IDODOApprove.sol\";\nimport {IDODOSellHelper} from \"./helper/DODOSellHelper.sol\";\nimport {IERC20} from \"../intf/IERC20.sol\";\nimport {IWETH} from \"../intf/IWETH.sol\";\nimport {IUni} from \"./intf/IUni.sol\";\nimport {IChi} from \"./intf/IChi.sol\";\nimport {SafeMath} from \"../lib/SafeMath.sol\";\nimport {UniversalERC20} from \"./lib/UniversalERC20.sol\";\nimport {SafeERC20} from \"../lib/SafeERC20.sol\";\nimport {DecimalMath} from \"../lib/DecimalMath.sol\";\nimport {ReentrancyGuard} from \"../lib/ReentrancyGuard.sol\";\nimport {InitializableOwnable} from \"../lib/InitializableOwnable.sol\";\nimport {IDODOIncentive} from \"./DODOIncentive.sol\";\n\n/**\n * @title DODOV2Proxy01\n * @author DODO Breeder\n *\n * @notice Entrance of trading in DODO platform\n */\ncontract DODOV2Proxy01 is IDODOV2Proxy01, ReentrancyGuard, InitializableOwnable {\n    using SafeMath for uint256;\n    using UniversalERC20 for IERC20;\n\n    // ============ Storage ============\n\n    address constant _ETH_ADDRESS_ = 0xEeeeeEeeeEeEeeEeEeEeeEEEeeeeEeeeeeeeEEeE;\n    address public immutable _WETH_;\n    address public immutable _DODO_APPROVE_;\n    address public immutable _DODO_SELL_HELPER_;\n    address public immutable _DVM_FACTORY_;\n    address public immutable _DPP_FACTORY_;\n    address public immutable _CP_FACTORY_;\n    address public immutable _DODO_INCENTIVE_;\n    address public immutable _CHI_TOKEN_;\n    uint256 public _GAS_DODO_MAX_RETURN_ = 0;\n    uint256 public _GAS_EXTERNAL_RETURN_ = 0;\n    mapping (address => bool) public isWhiteListed;\n\n    // ============ Events ============\n\n    event OrderHistory(\n        address fromToken,\n        address toToken,\n        address sender,\n        uint256 fromAmount,\n        uint256 returnAmount\n    );\n\n    // ============ Modifiers ============\n\n    modifier judgeExpired(uint256 deadLine) {\n        require(deadLine >= block.timestamp, \"DODOV2Proxy01: EXPIRED\");\n        _;\n    }\n\n    fallback() external payable {}\n\n    receive() external payable {}\n\n    constructor(\n        address dvmFactory,\n        address dppFactory,\n        address cpFactory,\n        address payable weth,\n        address dodoApprove,\n        address dodoSellHelper,\n        address chiToken,\n        address dodoIncentive\n    ) public {\n        _DVM_FACTORY_ = dvmFactory;\n        _DPP_FACTORY_ = dppFactory;\n        _CP_FACTORY_ = cpFactory;\n        _WETH_ = weth;\n        _DODO_APPROVE_ = dodoApprove;\n        _DODO_SELL_HELPER_ = dodoSellHelper;\n        _CHI_TOKEN_ = chiToken;\n        _DODO_INCENTIVE_ = dodoIncentive;\n    }\n\n    function addWhiteList (address contractAddr) public onlyOwner {\n        isWhiteListed[contractAddr] = true;\n    }\n\n    function removeWhiteList (address contractAddr) public onlyOwner {\n        isWhiteListed[contractAddr] = false;\n    }\n\n    function updateGasReturn(uint256 newDodoGasReturn, uint256 newExternalGasReturn) public onlyOwner {\n        _GAS_DODO_MAX_RETURN_ = newDodoGasReturn;\n        _GAS_EXTERNAL_RETURN_ = newExternalGasReturn;\n    }\n\n    // ============ DVM Functions (create & add liquidity) ============\n\n    function createDODOVendingMachine(\n        address baseToken,\n        address quoteToken,\n        uint256 baseInAmount,\n        uint256 quoteInAmount,\n        uint256 lpFeeRate,\n        uint256 i,\n        uint256 k,\n        uint256 deadLine\n    )\n        external\n        override\n        payable\n        preventReentrant\n        judgeExpired(deadLine)\n        returns (address newVendingMachine, uint256 shares)\n    {\n        {\n            address _baseToken = baseToken == _ETH_ADDRESS_ ? _WETH_ : baseToken;\n            address _quoteToken = quoteToken == _ETH_ADDRESS_ ? _WETH_ : quoteToken;\n            newVendingMachine = IDODOV2(_DVM_FACTORY_).createDODOVendingMachine(\n                _baseToken,\n                _quoteToken,\n                lpFeeRate,\n                i,\n                k\n            );\n        }\n\n        {\n            address _baseToken = baseToken;\n            address _quoteToken = quoteToken;\n            _deposit(\n                msg.sender,\n                newVendingMachine,\n                _baseToken,\n                baseInAmount,\n                _baseToken == _ETH_ADDRESS_\n            );\n            _deposit(\n                msg.sender,\n                newVendingMachine,\n                _quoteToken,\n                quoteInAmount,\n                _quoteToken == _ETH_ADDRESS_\n            );\n        }\n\n        (shares, , ) = IDODOV2(newVendingMachine).buyShares(msg.sender);\n    }\n\n    function addDVMLiquidity(\n        address dvmAddress,\n        uint256 baseInAmount,\n        uint256 quoteInAmount,\n        uint256 baseMinAmount,\n        uint256 quoteMinAmount,\n        uint8 flag, // 0 - ERC20, 1 - baseInETH, 2 - quoteInETH\n        uint256 deadLine\n    )\n        external\n        override\n        payable\n        preventReentrant\n        judgeExpired(deadLine)\n        returns (\n            uint256 shares,\n            uint256 baseAdjustedInAmount,\n            uint256 quoteAdjustedInAmount\n        )\n    {\n        address _dvm = dvmAddress;\n        (baseAdjustedInAmount, quoteAdjustedInAmount) = _addDVMLiquidity(\n            _dvm,\n            baseInAmount,\n            quoteInAmount\n        );\n        require(\n            baseAdjustedInAmount >= baseMinAmount && quoteAdjustedInAmount >= quoteMinAmount,\n            \"DODOV2Proxy01: deposit amount is not enough\"\n        );\n\n        _deposit(msg.sender, _dvm, IDODOV2(_dvm)._BASE_TOKEN_(), baseAdjustedInAmount, flag == 1);\n        _deposit(msg.sender, _dvm, IDODOV2(_dvm)._QUOTE_TOKEN_(), quoteAdjustedInAmount, flag == 2);\n        \n        (shares, , ) = IDODOV2(_dvm).buyShares(msg.sender);\n        // refund dust eth\n        if (flag == 1 && msg.value > baseAdjustedInAmount) msg.sender.transfer(msg.value - baseAdjustedInAmount);\n        if (flag == 2 && msg.value > quoteAdjustedInAmount) msg.sender.transfer(msg.value - quoteAdjustedInAmount);\n    }\n\n    function _addDVMLiquidity(\n        address dvmAddress,\n        uint256 baseInAmount,\n        uint256 quoteInAmount\n    ) internal view returns (uint256 baseAdjustedInAmount, uint256 quoteAdjustedInAmount) {\n        (uint256 baseReserve, uint256 quoteReserve) = IDODOV2(dvmAddress).getVaultReserve();\n        if (quoteReserve == 0 && baseReserve == 0) {\n            baseAdjustedInAmount = baseInAmount;\n            quoteAdjustedInAmount = quoteInAmount;\n        }\n        if (quoteReserve == 0 && baseReserve > 0) {\n            baseAdjustedInAmount = baseInAmount;\n            quoteAdjustedInAmount = 0;\n        }\n        if (quoteReserve > 0 && baseReserve > 0) {\n            uint256 baseIncreaseRatio = DecimalMath.divFloor(baseInAmount, baseReserve);\n            uint256 quoteIncreaseRatio = DecimalMath.divFloor(quoteInAmount, quoteReserve);\n            if (baseIncreaseRatio <= quoteIncreaseRatio) {\n                baseAdjustedInAmount = baseInAmount;\n                quoteAdjustedInAmount = DecimalMath.mulFloor(quoteReserve, baseIncreaseRatio);\n            } else {\n                quoteAdjustedInAmount = quoteInAmount;\n                baseAdjustedInAmount = DecimalMath.mulFloor(baseReserve, quoteIncreaseRatio);\n            }\n        }\n    }\n\n    // ============ DPP Functions (create & reset) ============\n\n    function createDODOPrivatePool(\n        address baseToken,\n        address quoteToken,\n        uint256 baseInAmount,\n        uint256 quoteInAmount,\n        uint256 lpFeeRate,\n        uint256 i,\n        uint256 k,\n        uint256 deadLine\n    )\n        external\n        override\n        payable\n        preventReentrant\n        judgeExpired(deadLine)\n        returns (address newPrivatePool)\n    {\n        newPrivatePool = IDODOV2(_DPP_FACTORY_).createDODOPrivatePool();\n\n        address _baseToken = baseToken;\n        address _quoteToken = quoteToken;\n        _deposit(msg.sender, newPrivatePool, _baseToken, baseInAmount, _baseToken == _ETH_ADDRESS_);\n        _deposit(\n            msg.sender,\n            newPrivatePool,\n            _quoteToken,\n            quoteInAmount,\n            _quoteToken == _ETH_ADDRESS_\n        );\n\n        if (_baseToken == _ETH_ADDRESS_) _baseToken = _WETH_;\n        if (_quoteToken == _ETH_ADDRESS_) _quoteToken = _WETH_;\n\n        IDODOV2(_DPP_FACTORY_).initDODOPrivatePool(\n            newPrivatePool,\n            msg.sender,\n            _baseToken,\n            _quoteToken,\n            lpFeeRate,\n            k,\n            i\n        );\n    }\n\n    function resetDODOPrivatePool(\n        address dppAddress,\n        uint256[] memory paramList,  //0 - newLpFeeRate, 1 - newI, 2 - newK\n        uint256[] memory amountList, //0 - baseInAmount, 1 - quoteInAmount, 2 - baseOutAmount, 3- quoteOutAmount\n        uint8 flag, // 0 - ERC20, 1 - baseInETH, 2 - quoteInETH, 3 - baseOutETH, 4 - quoteOutETH\n        uint256 minBaseReserve,\n        uint256 minQuoteReserve,\n        uint256 deadLine\n    ) external override payable preventReentrant judgeExpired(deadLine) {\n        _deposit(\n            msg.sender,\n            dppAddress,\n            IDODOV2(dppAddress)._BASE_TOKEN_(),\n            amountList[0],\n            flag == 1\n        );\n        _deposit(\n            msg.sender,\n            dppAddress,\n            IDODOV2(dppAddress)._QUOTE_TOKEN_(),\n            amountList[1],\n            flag == 2\n        );\n\n        require(IDODOV2(IDODOV2(dppAddress)._OWNER_()).reset(\n            msg.sender,\n            paramList[0],\n            paramList[1],\n            paramList[2],\n            amountList[2],\n            amountList[3],\n            minBaseReserve,\n            minQuoteReserve\n        ), \"Reset Failed\");\n\n        _withdraw(msg.sender, IDODOV2(dppAddress)._BASE_TOKEN_(), amountList[2], flag == 3);\n        _withdraw(msg.sender, IDODOV2(dppAddress)._QUOTE_TOKEN_(), amountList[3], flag == 4);\n    }\n\n    // ============ Swap ============\n\n    function dodoSwapV2ETHToToken(\n        address toToken,\n        uint256 minReturnAmount,\n        address[] memory dodoPairs,\n        uint256 directions,\n        bool isIncentive,\n        uint256 deadLine\n    )\n        external\n        override\n        payable\n        judgeExpired(deadLine)\n        returns (uint256 returnAmount)\n    {\n        require(dodoPairs.length > 0, \"DODOV2Proxy01: PAIRS_EMPTY\");\n        require(minReturnAmount > 0, \"DODOV2Proxy01: RETURN_AMOUNT_ZERO\");\n        uint256 originGas = gasleft();\n        \n        uint256 originToTokenBalance = IERC20(toToken).balanceOf(msg.sender);\n        IWETH(_WETH_).deposit{value: msg.value}();\n        IWETH(_WETH_).transfer(dodoPairs[0], msg.value);\n\n        for (uint256 i = 0; i < dodoPairs.length; i++) {\n            if (i == dodoPairs.length - 1) {\n                if (directions & 1 == 0) {\n                    IDODOV2(dodoPairs[i]).sellBase(msg.sender);\n                } else {\n                    IDODOV2(dodoPairs[i]).sellQuote(msg.sender);\n                }\n            } else {\n                if (directions & 1 == 0) {\n                    IDODOV2(dodoPairs[i]).sellBase(dodoPairs[i + 1]);\n                } else {\n                    IDODOV2(dodoPairs[i]).sellQuote(dodoPairs[i + 1]);\n                }\n            }\n            directions = directions >> 1;\n        }\n\n        returnAmount = IERC20(toToken).balanceOf(msg.sender).sub(originToTokenBalance);\n        require(returnAmount >= minReturnAmount, \"DODOV2Proxy01: Return amount is not enough\");\n\n        _dodoGasReturn(originGas);\n\n        if(isIncentive) {\n            IDODOIncentive(_DODO_INCENTIVE_).triggerIncentive(_ETH_ADDRESS_,toToken,msg.sender);\n        }\n\n        emit OrderHistory(\n            _ETH_ADDRESS_,\n            toToken,\n            msg.sender,\n            msg.value,\n            returnAmount\n        );\n    }\n\n    function dodoSwapV2TokenToETH(\n        address fromToken,\n        uint256 fromTokenAmount,\n        uint256 minReturnAmount,\n        address[] memory dodoPairs,\n        uint256 directions,\n        bool isIncentive,\n        uint256 deadLine\n    )\n        external\n        override\n        judgeExpired(deadLine)\n        returns (uint256 returnAmount)\n    {\n        require(dodoPairs.length > 0, \"DODOV2Proxy01: PAIRS_EMPTY\");\n        require(minReturnAmount > 0, \"DODOV2Proxy01: RETURN_AMOUNT_ZERO\");\n        uint256 originGas = gasleft();\n        \n        IDODOApprove(_DODO_APPROVE_).claimTokens(fromToken, msg.sender, dodoPairs[0], fromTokenAmount);\n\n        for (uint256 i = 0; i < dodoPairs.length; i++) {\n            if (i == dodoPairs.length - 1) {\n                if (directions & 1 == 0) {\n                    IDODOV2(dodoPairs[i]).sellBase(address(this));\n                } else {\n                    IDODOV2(dodoPairs[i]).sellQuote(address(this));\n                }\n            } else {\n                if (directions & 1 == 0) {\n                    IDODOV2(dodoPairs[i]).sellBase(dodoPairs[i + 1]);\n                } else {\n                    IDODOV2(dodoPairs[i]).sellQuote(dodoPairs[i + 1]);\n                }\n            }\n            directions = directions >> 1;\n        }\n        returnAmount = IWETH(_WETH_).balanceOf(address(this));\n        require(returnAmount >= minReturnAmount, \"DODOV2Proxy01: Return amount is not enough\");\n        IWETH(_WETH_).withdraw(returnAmount);\n        msg.sender.transfer(returnAmount);\n\n        _dodoGasReturn(originGas);\n\n        if(isIncentive) {\n            IDODOIncentive(_DODO_INCENTIVE_).triggerIncentive(fromToken,_ETH_ADDRESS_,msg.sender);\n        }\n\n        emit OrderHistory(\n            fromToken,\n            _ETH_ADDRESS_,\n            msg.sender,\n            fromTokenAmount,\n            returnAmount\n        );\n    }\n\n    function dodoSwapV2TokenToToken(\n        address fromToken,\n        address toToken,\n        uint256 fromTokenAmount,\n        uint256 minReturnAmount,\n        address[] memory dodoPairs,\n        uint256 directions,\n        bool isIncentive,\n        uint256 deadLine\n    )\n        external\n        override\n        judgeExpired(deadLine)\n        returns (uint256 returnAmount)\n    {\n        require(dodoPairs.length > 0, \"DODOV2Proxy01: PAIRS_EMPTY\");\n        require(minReturnAmount > 0, \"DODOV2Proxy01: RETURN_AMOUNT_ZERO\");\n        uint256 originGas = gasleft();\n\n        uint256 originToTokenBalance = IERC20(toToken).balanceOf(msg.sender);\n        IDODOApprove(_DODO_APPROVE_).claimTokens(fromToken, msg.sender, dodoPairs[0], fromTokenAmount);\n\n        for (uint256 i = 0; i < dodoPairs.length; i++) {\n            if (i == dodoPairs.length - 1) {\n                if (directions & 1 == 0) {\n                    IDODOV2(dodoPairs[i]).sellBase(msg.sender);\n                } else {\n                    IDODOV2(dodoPairs[i]).sellQuote(msg.sender);\n                }\n            } else {\n                if (directions& 1 == 0) {\n                    IDODOV2(dodoPairs[i]).sellBase(dodoPairs[i + 1]);\n                } else {\n                    IDODOV2(dodoPairs[i]).sellQuote(dodoPairs[i + 1]);\n                }\n            }\n            directions = directions >> 1;\n        }\n        returnAmount = IERC20(toToken).balanceOf(msg.sender).sub(originToTokenBalance);\n        require(returnAmount >= minReturnAmount, \"DODOV2Proxy01: Return amount is not enough\");\n        \n        _dodoGasReturn(originGas);\n\n        if(isIncentive) {\n            IDODOIncentive(_DODO_INCENTIVE_).triggerIncentive(fromToken,toToken,msg.sender);\n        }\n\n        emit OrderHistory(\n            fromToken,\n            toToken,\n            msg.sender,\n            fromTokenAmount,\n            returnAmount\n        );\n    }\n\n    function externalSwap(\n        address fromToken,\n        address toToken,\n        address approveTarget,\n        address swapTarget,\n        uint256 fromTokenAmount,\n        uint256 minReturnAmount,\n        bytes memory callDataConcat,\n        bool isIncentive,\n        uint256 deadLine\n    )\n        external\n        override\n        payable\n        judgeExpired(deadLine)\n        returns (uint256 returnAmount)\n    {\n        require(minReturnAmount > 0, \"DODOV2Proxy01: RETURN_AMOUNT_ZERO\");\n        \n        uint256 toTokenOriginBalance = IERC20(toToken).universalBalanceOf(msg.sender);\n        if (fromToken != _ETH_ADDRESS_) {\n            IDODOApprove(_DODO_APPROVE_).claimTokens(\n                fromToken,\n                msg.sender,\n                address(this),\n                fromTokenAmount\n            );\n            IERC20(fromToken).universalApproveMax(approveTarget, fromTokenAmount);\n        }\n\n        require(isWhiteListed[swapTarget], \"DODOV2Proxy01: Not Whitelist Contract\");\n        (bool success, ) = swapTarget.call{value: fromToken == _ETH_ADDRESS_ ? msg.value : 0}(callDataConcat);\n\n        require(success, \"DODOV2Proxy01: External Swap execution Failed\");\n\n        IERC20(toToken).universalTransfer(\n            msg.sender,\n            IERC20(toToken).universalBalanceOf(address(this))\n        );\n\n        returnAmount = IERC20(toToken).universalBalanceOf(msg.sender).sub(toTokenOriginBalance);\n        require(returnAmount >= minReturnAmount, \"DODOV2Proxy01: Return amount is not enough\");\n\n        _externalGasReturn();\n\n        if(isIncentive) {\n            IDODOIncentive(_DODO_INCENTIVE_).triggerIncentive(fromToken,toToken,msg.sender);\n        }\n\n        emit OrderHistory(\n            fromToken,\n            toToken,\n            msg.sender,\n            fromTokenAmount,\n            returnAmount\n        );\n    }\n\n    function dodoSwapV1(\n        address fromToken,\n        address toToken,\n        uint256 fromTokenAmount,\n        uint256 minReturnAmount,\n        address[] memory dodoPairs,\n        uint256 directions,\n        bool isIncentive,\n        uint256 deadLine\n    )\n        external\n        override\n        payable\n        judgeExpired(deadLine)\n        returns (uint256 returnAmount)\n    {\n        require(dodoPairs.length > 0, \"DODOV2Proxy01: PAIRS_EMPTY\");\n        require(minReturnAmount > 0, \"DODOV2Proxy01: RETURN_AMOUNT_ZERO\");\n        uint256 originGas = gasleft();\n\n        address _fromToken = fromToken;\n        address _toToken = toToken;\n        \n        _deposit(msg.sender, address(this), _fromToken, fromTokenAmount, _fromToken == _ETH_ADDRESS_);\n\n        for (uint256 i = 0; i < dodoPairs.length; i++) {\n            address curDodoPair = dodoPairs[i];\n            if (directions & 1 == 0) {\n                address curDodoBase = IDODOV1(curDodoPair)._BASE_TOKEN_();\n                uint256 curAmountIn = IERC20(curDodoBase).balanceOf(address(this));\n                IERC20(curDodoBase).universalApproveMax(curDodoPair, curAmountIn);\n                IDODOV1(curDodoPair).sellBaseToken(curAmountIn, 0, \"\");\n            } else {\n                address curDodoQuote = IDODOV1(curDodoPair)._QUOTE_TOKEN_();\n                uint256 curAmountIn = IERC20(curDodoQuote).balanceOf(address(this));\n                IERC20(curDodoQuote).universalApproveMax(curDodoPair, curAmountIn);\n                uint256 canBuyBaseAmount = IDODOSellHelper(_DODO_SELL_HELPER_).querySellQuoteToken(\n                    curDodoPair,\n                    curAmountIn\n                );\n                IDODOV1(curDodoPair).buyBaseToken(canBuyBaseAmount, curAmountIn, \"\");\n            }\n            directions = directions >> 1;\n        }\n\n        \n        if (_toToken == _ETH_ADDRESS_) {\n            returnAmount = IWETH(_WETH_).balanceOf(address(this));\n            IWETH(_WETH_).withdraw(returnAmount);\n        } else {\n            returnAmount = IERC20(_toToken).tokenBalanceOf(address(this));\n        }\n        \n        require(returnAmount >= minReturnAmount, \"DODOV2Proxy01: Return amount is not enough\");\n        IERC20(_toToken).universalTransfer(msg.sender, returnAmount);\n\n        _dodoGasReturn(originGas);\n\n        if(isIncentive) {\n            IDODOIncentive(_DODO_INCENTIVE_).triggerIncentive(_fromToken,_toToken,msg.sender);\n        }\n\n        emit OrderHistory(_fromToken, _toToken, msg.sender, fromTokenAmount, returnAmount);\n    }\n\n    function mixSwapV1(\n        address fromToken,\n        address toToken,\n        uint256 fromTokenAmount,\n        uint256 minReturnAmount,\n        address[] memory mixPairs,\n        uint256[] memory directions,\n        address[] memory portionPath,\n        bool isIncentive,\n        uint256 deadLine\n    ) external override payable judgeExpired(deadLine) returns (uint256 returnAmount) {\n        require(mixPairs.length == directions.length, \"DODOV2Proxy01: PARAMS_LENGTH_NOT_MATCH\");\n        require(mixPairs.length > 0, \"DODOV2Proxy01: PAIRS_EMPTY\");\n        require(minReturnAmount > 0, \"DODOV2Proxy01: RETURN_AMOUNT_ZERO\");\n        \n        uint256 toTokenOriginBalance = IERC20(toToken).universalBalanceOf(msg.sender);\n\n        address _fromToken = fromToken;\n        address _toToken = toToken;\n        _deposit(msg.sender, address(this), _fromToken, fromTokenAmount, _fromToken == _ETH_ADDRESS_);\n\n        for (uint8 i = 0; i < mixPairs.length; i++) {\n            address curPair = mixPairs[i];\n            if (directions[i] == 0) {\n                address curDodoBase = IDODOV1(curPair)._BASE_TOKEN_();\n                uint256 curAmountIn = IERC20(curDodoBase).balanceOf(address(this));\n                IERC20(curDodoBase).universalApproveMax(curPair, curAmountIn);\n                IDODOV1(curPair).sellBaseToken(curAmountIn, 0, \"\");\n            } else if(directions[i] == 1){\n                address curDodoQuote = IDODOV1(curPair)._QUOTE_TOKEN_();\n                uint256 curAmountIn = IERC20(curDodoQuote).balanceOf(address(this));\n                IERC20(curDodoQuote).universalApproveMax(curPair, curAmountIn);\n                uint256 canBuyBaseAmount = IDODOSellHelper(_DODO_SELL_HELPER_).querySellQuoteToken(\n                    curPair,\n                    curAmountIn\n                );\n                IDODOV1(curPair).buyBaseToken(canBuyBaseAmount, curAmountIn, \"\");\n            } else {\n                uint256 curAmountIn = IERC20(portionPath[0]).balanceOf(address(this));\n                IERC20(portionPath[0]).universalApproveMax(curPair, curAmountIn);\n                IUni(curPair).swapExactTokensForTokens(curAmountIn,0,portionPath,address(this),deadLine);\n            }\n        }\n\n        IERC20(_toToken).universalTransfer(\n            msg.sender,\n            IERC20(_toToken).universalBalanceOf(address(this))\n        );\n        \n        // {\n        // uint256 toBalance;\n        // if (_toToken == _ETH_ADDRESS_) {\n        //     toBalance = IWETH(_WETH_).balanceOf(address(this));\n        //     IWETH(_WETH_).withdraw(toBalance);\n        // } else {\n        //     toBalance = IERC20(_toToken).tokenBalanceOf(address(this));\n        // }\n        // IERC20(_toToken).universalTransfer(msg.sender,toBalance);\n        // }\n\n        returnAmount = IERC20(_toToken).universalBalanceOf(msg.sender).sub(toTokenOriginBalance);\n        require(returnAmount >= minReturnAmount, \"DODOV2Proxy01: Return amount is not enough\");\n       \n        _externalGasReturn();\n        \n        if(isIncentive) {\n            IDODOIncentive(_DODO_INCENTIVE_).triggerIncentive(_fromToken,_toToken,msg.sender);\n        }\n        \n        emit OrderHistory(_fromToken, _toToken, msg.sender, fromTokenAmount, returnAmount);\n    }\n\n    //============ CrowdPooling Functions (create & bid) ============\n\n    function createCrowdPooling(\n        address baseToken,\n        address quoteToken,\n        uint256 baseInAmount,\n        uint256[] memory timeLine,\n        uint256[] memory valueList,\n        uint256 deadLine\n    ) external override payable preventReentrant judgeExpired(deadLine) returns (address payable newCrowdPooling) {\n        address _baseToken = baseToken;\n        address _quoteToken = quoteToken == _ETH_ADDRESS_ ? _WETH_ : quoteToken;\n        \n        newCrowdPooling = IDODOV2(_CP_FACTORY_).createCrowdPooling();\n\n        _deposit(\n            msg.sender,\n            newCrowdPooling,\n            _baseToken,\n            baseInAmount,\n            false\n        );\n\n        newCrowdPooling.transfer(msg.value);\n\n        IDODOV2(_CP_FACTORY_).initCrowdPooling(\n            newCrowdPooling,\n            msg.sender,\n            _baseToken,\n            _quoteToken,\n            timeLine,\n            valueList\n        );\n    }\n\n    function bid(\n        address cpAddress,\n        uint256 quoteAmount,\n        uint8 flag, // 0 - ERC20, 1 - quoteInETH\n        uint256 deadLine\n    ) external override payable preventReentrant judgeExpired(deadLine) {\n        _deposit(msg.sender, cpAddress, IDODOV2(cpAddress)._QUOTE_TOKEN_(), quoteAmount, flag == 1);\n        IDODOV2(cpAddress).bid(msg.sender);\n    }\n\n\n    function addLiquidityToV1(\n        address pair,\n        uint256 baseAmount,\n        uint256 quoteAmount,\n        uint256 baseMinShares,\n        uint256 quoteMinShares,\n        uint8 flag, // 0 erc20 In  1 baseInETH  2 quoteIn ETH \n        uint256 deadLine\n    ) external override payable preventReentrant judgeExpired(deadLine) returns(uint256 baseShares, uint256 quoteShares) {\n        address _baseToken = IDODOV1(pair)._BASE_TOKEN_();\n        address _quoteToken = IDODOV1(pair)._QUOTE_TOKEN_();\n        \n        _deposit(msg.sender, address(this), _baseToken, baseAmount, flag == 1);\n        _deposit(msg.sender, address(this), _quoteToken, quoteAmount, flag == 2);\n\n        \n        if(baseAmount > 0) {\n            IERC20(_baseToken).universalApproveMax(pair, baseAmount);\n            baseShares = IDODOV1(pair).depositBaseTo(msg.sender, baseAmount);\n        }\n        if(quoteAmount > 0) {\n            IERC20(_quoteToken).universalApproveMax(pair, quoteAmount);\n            quoteShares = IDODOV1(pair).depositQuoteTo(msg.sender, quoteAmount);\n        }\n\n        require(baseShares >= baseMinShares && quoteShares >= quoteMinShares,\"DODOV2Proxy01: Return DLP is not enough\");\n    }\n    \n\n    function _deposit(\n        address from,\n        address to,\n        address token,\n        uint256 amount,\n        bool isETH\n    ) internal {\n        if (isETH) {\n            if (amount > 0) {\n                IWETH(_WETH_).deposit{value: amount}();\n                if (to != address(this)) SafeERC20.safeTransfer(IERC20(_WETH_), to, amount);\n            }\n        } else {\n            IDODOApprove(_DODO_APPROVE_).claimTokens(token, from, to, amount);\n        }\n    }\n\n    function _withdraw(\n        address payable to,\n        address token,\n        uint256 amount,\n        bool isETH\n    ) internal {\n        if (isETH) {\n            if (amount > 0) {\n                IWETH(_WETH_).withdraw(amount);\n                to.transfer(amount);\n            }\n        } else {\n            SafeERC20.safeTransfer(IERC20(token), to, amount);\n        }\n    }\n\n    function _dodoGasReturn(uint256 originGas) internal {\n        uint256 _gasDodoMaxReturn = _GAS_DODO_MAX_RETURN_;\n        if(_gasDodoMaxReturn > 0) {\n            uint256 calcGasTokenBurn = originGas.sub(gasleft()) / 65000;\n            uint256 gasTokenBurn = calcGasTokenBurn > _gasDodoMaxReturn ? _gasDodoMaxReturn : calcGasTokenBurn;\n            if(gasTokenBurn >= 3 && gasleft() > 27710 + gasTokenBurn * 6080)\n                IChi(_CHI_TOKEN_).freeUpTo(gasTokenBurn);\n        }\n    }\n\n    function _externalGasReturn() internal {\n        uint256 _gasExternalReturn = _GAS_EXTERNAL_RETURN_;\n        if(_gasExternalReturn > 0) {\n            if(gasleft() > 27710 + _gasExternalReturn * 6080)\n                IChi(_CHI_TOKEN_).freeUpTo(_gasExternalReturn);\n        }\n    }\n}\n",
  "sourcePath": "/Users/niutaotao/projects/dodo/contractV2/contracts/SmartRoute/DODOV2Proxy01.sol",
  "compiler": {
    "name": "solc",
    "version": "0.6.9+commit.3e3065ac.Emscripten.clang"
  },
  "schemaVersion": "3.3.2",
  "updatedAt": "2021-01-13T13:03:23.820Z",
  "devdoc": {
    "author": "DODO Breeder",
    "methods": {},
    "title": "DODOV2Proxy01"
  },
  "userdoc": {
    "methods": {},
    "notice": "Entrance of trading in DODO platform"
  }
}