{
  "contractName": "DODOV1Proxy01",
  "abi": [
    {
      "inputs": [
        {
          "internalType": "address",
          "name": "dodoApporve",
          "type": "address"
        },
        {
          "internalType": "address",
          "name": "dodoSellHelper",
          "type": "address"
        },
        {
          "internalType": "address",
          "name": "weth",
          "type": "address"
        },
        {
          "internalType": "address",
          "name": "chiToken",
          "type": "address"
        }
      ],
      "stateMutability": "nonpayable",
      "type": "constructor"
    },
    {
      "anonymous": false,
      "inputs": [
        {
          "indexed": true,
          "internalType": "address",
          "name": "fromToken",
          "type": "address"
        },
        {
          "indexed": true,
          "internalType": "address",
          "name": "toToken",
          "type": "address"
        },
        {
          "indexed": true,
          "internalType": "address",
          "name": "sender",
          "type": "address"
        },
        {
          "indexed": false,
          "internalType": "uint256",
          "name": "fromAmount",
          "type": "uint256"
        },
        {
          "indexed": false,
          "internalType": "uint256",
          "name": "returnAmount",
          "type": "uint256"
        }
      ],
      "name": "OrderHistory",
      "type": "event"
    },
    {
      "anonymous": false,
      "inputs": [
        {
          "indexed": true,
          "internalType": "address",
          "name": "previousOwner",
          "type": "address"
        },
        {
          "indexed": true,
          "internalType": "address",
          "name": "newOwner",
          "type": "address"
        }
      ],
      "name": "OwnershipTransferPrepared",
      "type": "event"
    },
    {
      "anonymous": false,
      "inputs": [
        {
          "indexed": true,
          "internalType": "address",
          "name": "previousOwner",
          "type": "address"
        },
        {
          "indexed": true,
          "internalType": "address",
          "name": "newOwner",
          "type": "address"
        }
      ],
      "name": "OwnershipTransferred",
      "type": "event"
    },
    {
      "stateMutability": "payable",
      "type": "fallback"
    },
    {
      "inputs": [],
      "name": "_CHI_TOKEN_",
      "outputs": [
        {
          "internalType": "address",
          "name": "",
          "type": "address"
        }
      ],
      "stateMutability": "view",
      "type": "function"
    },
    {
      "inputs": [],
      "name": "_DODO_APPROVE_",
      "outputs": [
        {
          "internalType": "address",
          "name": "",
          "type": "address"
        }
      ],
      "stateMutability": "view",
      "type": "function"
    },
    {
      "inputs": [],
      "name": "_DODO_SELL_HELPER_",
      "outputs": [
        {
          "internalType": "address",
          "name": "",
          "type": "address"
        }
      ],
      "stateMutability": "view",
      "type": "function"
    },
    {
      "inputs": [],
      "name": "_GAS_DODO_MAX_RETURN_",
      "outputs": [
        {
          "internalType": "uint8",
          "name": "",
          "type": "uint8"
        }
      ],
      "stateMutability": "view",
      "type": "function"
    },
    {
      "inputs": [],
      "name": "_GAS_EXTERNAL_RETURN_",
      "outputs": [
        {
          "internalType": "uint8",
          "name": "",
          "type": "uint8"
        }
      ],
      "stateMutability": "view",
      "type": "function"
    },
    {
      "inputs": [],
      "name": "_NEW_OWNER_",
      "outputs": [
        {
          "internalType": "address",
          "name": "",
          "type": "address"
        }
      ],
      "stateMutability": "view",
      "type": "function"
    },
    {
      "inputs": [],
      "name": "_OWNER_",
      "outputs": [
        {
          "internalType": "address",
          "name": "",
          "type": "address"
        }
      ],
      "stateMutability": "view",
      "type": "function"
    },
    {
      "inputs": [],
      "name": "_WETH_",
      "outputs": [
        {
          "internalType": "address",
          "name": "",
          "type": "address"
        }
      ],
      "stateMutability": "view",
      "type": "function"
    },
    {
      "inputs": [],
      "name": "claimOwnership",
      "outputs": [],
      "stateMutability": "nonpayable",
      "type": "function"
    },
    {
      "inputs": [
        {
          "internalType": "address",
          "name": "newOwner",
          "type": "address"
        }
      ],
      "name": "initOwner",
      "outputs": [],
      "stateMutability": "nonpayable",
      "type": "function"
    },
    {
      "inputs": [
        {
          "internalType": "address",
          "name": "",
          "type": "address"
        }
      ],
      "name": "isWhiteListed",
      "outputs": [
        {
          "internalType": "bool",
          "name": "",
          "type": "bool"
        }
      ],
      "stateMutability": "view",
      "type": "function"
    },
    {
      "inputs": [
        {
          "internalType": "address",
          "name": "newOwner",
          "type": "address"
        }
      ],
      "name": "transferOwnership",
      "outputs": [],
      "stateMutability": "nonpayable",
      "type": "function"
    },
    {
      "stateMutability": "payable",
      "type": "receive"
    },
    {
      "inputs": [
        {
          "internalType": "uint8",
          "name": "newDodoGasReturn",
          "type": "uint8"
        },
        {
          "internalType": "uint8",
          "name": "newExternalGasReturn",
          "type": "uint8"
        }
      ],
      "name": "updateGasReturn",
      "outputs": [],
      "stateMutability": "nonpayable",
      "type": "function"
    },
    {
      "inputs": [
        {
          "internalType": "address",
          "name": "contractAddr",
          "type": "address"
        }
      ],
      "name": "addWhiteList",
      "outputs": [],
      "stateMutability": "nonpayable",
      "type": "function"
    },
    {
      "inputs": [
        {
          "internalType": "address",
          "name": "contractAddr",
          "type": "address"
        }
      ],
      "name": "removeWhiteList",
      "outputs": [],
      "stateMutability": "nonpayable",
      "type": "function"
    },
    {
      "inputs": [
        {
          "internalType": "address",
          "name": "fromToken",
          "type": "address"
        },
        {
          "internalType": "address",
          "name": "toToken",
          "type": "address"
        },
        {
          "internalType": "uint256",
          "name": "fromTokenAmount",
          "type": "uint256"
        },
        {
          "internalType": "uint256",
          "name": "minReturnAmount",
          "type": "uint256"
        },
        {
          "internalType": "address[]",
          "name": "dodoPairs",
          "type": "address[]"
        },
        {
          "internalType": "uint8[]",
          "name": "directions",
          "type": "uint8[]"
        },
        {
          "internalType": "uint256",
          "name": "deadLine",
          "type": "uint256"
        }
      ],
      "name": "dodoSwapV1",
      "outputs": [
        {
          "internalType": "uint256",
          "name": "returnAmount",
          "type": "uint256"
        }
      ],
      "stateMutability": "payable",
      "type": "function"
    },
    {
      "inputs": [
        {
          "internalType": "address",
          "name": "fromToken",
          "type": "address"
        },
        {
          "internalType": "address",
          "name": "toToken",
          "type": "address"
        },
        {
          "internalType": "address",
          "name": "approveTarget",
          "type": "address"
        },
        {
          "internalType": "address",
          "name": "swapTarget",
          "type": "address"
        },
        {
          "internalType": "uint256",
          "name": "fromTokenAmount",
          "type": "uint256"
        },
        {
          "internalType": "uint256",
          "name": "minReturnAmount",
          "type": "uint256"
        },
        {
          "internalType": "bytes",
          "name": "callDataConcat",
          "type": "bytes"
        },
        {
          "internalType": "uint256",
          "name": "deadLine",
          "type": "uint256"
        }
      ],
      "name": "externalSwap",
      "outputs": [
        {
          "internalType": "uint256",
          "name": "returnAmount",
          "type": "uint256"
        }
      ],
      "stateMutability": "payable",
      "type": "function"
    },
    {
      "inputs": [
        {
          "internalType": "address",
          "name": "fromToken",
          "type": "address"
        },
        {
          "internalType": "address",
          "name": "toToken",
          "type": "address"
        },
        {
          "internalType": "uint256",
          "name": "fromTokenAmount",
          "type": "uint256"
        },
        {
          "internalType": "uint256",
          "name": "minReturnAmount",
          "type": "uint256"
        },
        {
          "internalType": "address[]",
          "name": "mixPairs",
          "type": "address[]"
        },
        {
          "internalType": "uint8[]",
          "name": "directions",
          "type": "uint8[]"
        },
        {
          "internalType": "address[]",
          "name": "portionPath",
          "type": "address[]"
        },
        {
          "internalType": "uint256",
          "name": "deadLine",
          "type": "uint256"
        }
      ],
      "name": "mixSwapV1",
      "outputs": [
        {
          "internalType": "uint256",
          "name": "returnAmount",
          "type": "uint256"
        }
      ],
      "stateMutability": "payable",
      "type": "function"
    }
  ],
  "bytecode": "0x6101006040526001805461ffff60a81b1916905534801561001f57600080fd5b50604051612bd1380380612bd18339818101604052608081101561004257600080fd5b508051602082015160408301516060938401516001600160601b031993851b841660805291841b831660a052831b821660c05290911b1660e05260805160601c60a05160601c60c05160601c60e05160601c612ad86100f960003980610753528061112f5280611bdf52806120725250806107ff5280610a325280610f045280610f9a528061137f525080610dae528061171d52806122b252508061098b52806112d85280611d4b528061211a5250612ad86000f3fe60806040526004361061010d5760003560e01c80634e71e0c8116100955780638456db15116100645780638456db15146106ac5780639f687322146106c1578063af1280b0146106d6578063e7cd4a04146106eb578063f2fde38b1461071e57610114565b80634e71e0c8146105f05780634f99835d1461060557806369dba8ee1461063a5780636f9170f61461066557610114565b80632042e5c2116100dc5780632042e5c2146101a457806322d1b732146101d7578063385533821461033357806338f4c1881461050057806346e74298146105db57610114565b8063056fc2ee146101165780630d009297146101475780630d4eec8f1461017a57806316048bc41461018f57610114565b3661011457005b005b34801561012257600080fd5b5061012b610751565b604080516001600160a01b039092168252519081900360200190f35b34801561015357600080fd5b506101146004803603602081101561016a57600080fd5b50356001600160a01b0316610775565b34801561018657600080fd5b5061012b6107fd565b34801561019b57600080fd5b5061012b610821565b3480156101b057600080fd5b50610114600480360360208110156101c757600080fd5b50356001600160a01b0316610830565b610321600480360360e08110156101ed57600080fd5b6001600160a01b03823581169260208101359091169160408201359160608101359181019060a081016080820135600160201b81111561022c57600080fd5b82018360208201111561023e57600080fd5b803590602001918460208302840111600160201b8311171561025f57600080fd5b9190808060200260200160405190810160405280939291908181526020018383602002808284376000920191909152509295949360208101935035915050600160201b8111156102ae57600080fd5b8201836020820111156102c057600080fd5b803590602001918460208302840111600160201b831117156102e157600080fd5b919080806020026020016040519081016040528093929190818152602001838360200280828437600092019190915250929550509135925061089c915050565b60408051918252519081900360200190f35b610321600480360361010081101561034a57600080fd5b6001600160a01b03823581169260208101359091169160408201359160608101359181019060a081016080820135600160201b81111561038957600080fd5b82018360208201111561039b57600080fd5b803590602001918460208302840111600160201b831117156103bc57600080fd5b9190808060200260200160405190810160405280939291908181526020018383602002808284376000920191909152509295949360208101935035915050600160201b81111561040b57600080fd5b82018360208201111561041d57600080fd5b803590602001918460208302840111600160201b8311171561043e57600080fd5b9190808060200260200160405190810160405280939291908181526020018383602002808284376000920191909152509295949360208101935035915050600160201b81111561048d57600080fd5b82018360208201111561049f57600080fd5b803590602001918460208302840111600160201b831117156104c057600080fd5b91908080602002602001604051908101604052809392919081815260200183836020028082843760009201919091525092955050913592506111d1915050565b610321600480360361010081101561051757600080fd5b6001600160a01b038235811692602081013582169260408201358316926060830135169160808101359160a0820135919081019060e0810160c0820135600160201b81111561056557600080fd5b82018360208201111561057757600080fd5b803590602001918460018302840111600160201b8311171561059857600080fd5b91908080601f0160208091040260200160405190810160405280939291908181526020018383808284376000920191909152509295505091359250611c82915050565b3480156105e757600080fd5b5061012b612118565b3480156105fc57600080fd5b5061011461213c565b34801561061157600080fd5b506101146004803603604081101561062857600080fd5b5060ff813581169160200135166121ef565b34801561064657600080fd5b5061064f61226c565b6040805160ff9092168252519081900360200190f35b34801561067157600080fd5b506106986004803603602081101561068857600080fd5b50356001600160a01b031661227c565b604080519115158252519081900360200190f35b3480156106b857600080fd5b5061012b612291565b3480156106cd57600080fd5b5061064f6122a0565b3480156106e257600080fd5b5061012b6122b0565b3480156106f757600080fd5b506101146004803603602081101561070e57600080fd5b50356001600160a01b03166122d4565b34801561072a57600080fd5b506101146004803603602081101561074157600080fd5b50356001600160a01b0316612343565b7f000000000000000000000000000000000000000000000000000000000000000081565b600154600160a01b900460ff16156107c7576040805162461bcd60e51b815260206004820152601060248201526f1113d113d7d25392551250531256915160821b604482015290519081900360640190fd5b6001805460ff60a01b1916600160a01b179055600080546001600160a01b039092166001600160a01b0319909216919091179055565b7f000000000000000000000000000000000000000000000000000000000000000081565b6000546001600160a01b031681565b6000546001600160a01b0316331461087b576040805162461bcd60e51b81526020600482015260096024820152682727aa2fa7aba722a960b91b604482015290519081900360640190fd5b6001600160a01b03166000908152600260205260409020805460ff19169055565b600081428110156108ed576040805162461bcd60e51b81526020600482015260166024820152751113d113d58c541c9bde1e4c0c4e881156141254915160521b604482015290519081900360640190fd5b835185511461092d5760405162461bcd60e51b815260040180806020018281038252602681526020018061297e6026913960400191505060405180910390fd5b60005a90506001600160a01b038a1673eeeeeeeeeeeeeeeeeeeeeeeeeeeeeeeeeeeeeeee146109f2576040805163052f523360e11b81526001600160a01b038c81166004830152336024830152306044830152606482018b905291517f000000000000000000000000000000000000000000000000000000000000000090921691630a5ea4669160848082019260009290919082900301818387803b1580156109d557600080fd5b505af11580156109e9573d6000803e3d6000fd5b50505050610aa5565b873414610a305760405162461bcd60e51b81526004018080602001828103825260238152602001806129d16023913960400191505060405180910390fd5b7f00000000000000000000000000000000000000000000000000000000000000006001600160a01b031663d0e30db0896040518263ffffffff1660e01b81526004016000604051808303818588803b158015610a8b57600080fd5b505af1158015610a9f573d6000803e3d6000fd5b50505050505b60005b86518160ff161015610ebe576000878260ff1681518110610ac557fe5b60200260200101519050868260ff1681518110610ade57fe5b602002602001015160ff1660001415610c85576000816001600160a01b0316634a248d2a6040518163ffffffff1660e01b8152600401602060405180830381600087803b158015610b2e57600080fd5b505af1158015610b42573d6000803e3d6000fd5b505050506040513d6020811015610b5857600080fd5b5051604080516370a0823160e01b815230600482015290519192506000916001600160a01b038416916370a08231916024808301926020929190829003018186803b158015610ba657600080fd5b505afa158015610bba573d6000803e3d6000fd5b505050506040513d6020811015610bd057600080fd5b50519050610bee6001600160a01b038316848363ffffffff6123e916565b826001600160a01b0316638dae73338260006040518363ffffffff1660e01b815260040180838152602001828152602001806020018281038252600081526020016020019350505050602060405180830381600087803b158015610c5157600080fd5b505af1158015610c65573d6000803e3d6000fd5b505050506040513d6020811015610c7b57600080fd5b50610eb592505050565b6000816001600160a01b031663d4b970466040518163ffffffff1660e01b8152600401602060405180830381600087803b158015610cc257600080fd5b505af1158015610cd6573d6000803e3d6000fd5b505050506040513d6020811015610cec57600080fd5b5051604080516370a0823160e01b815230600482015290519192506000916001600160a01b038416916370a08231916024808301926020929190829003018186803b158015610d3a57600080fd5b505afa158015610d4e573d6000803e3d6000fd5b505050506040513d6020811015610d6457600080fd5b50519050610d826001600160a01b038316848363ffffffff6123e916565b6040805163ca19ebd960e01b81526001600160a01b0385811660048301526024820184905291516000927f0000000000000000000000000000000000000000000000000000000000000000169163ca19ebd9916044808301926020929190829003018186803b158015610df457600080fd5b505afa158015610e08573d6000803e3d6000fd5b505050506040513d6020811015610e1e57600080fd5b50516040805163733e738360e11b815260048101839052602481018590526060604482015260006064820181905291519293506001600160a01b0387169263e67ce7069260a480840193602093929083900390910190829087803b158015610e8557600080fd5b505af1158015610e99573d6000803e3d6000fd5b505050506040513d6020811015610eaf57600080fd5b50505050505b50600101610aa8565b506001600160a01b03891673eeeeeeeeeeeeeeeeeeeeeeeeeeeeeeeeeeeeeeee1415610fff57604080516370a0823160e01b815230600482015290516001600160a01b037f000000000000000000000000000000000000000000000000000000000000000016916370a08231916024808301926020929190829003018186803b158015610f4a57600080fd5b505afa158015610f5e573d6000803e3d6000fd5b505050506040513d6020811015610f7457600080fd5b505160408051632e1a7d4d60e01b81526004810183905290519194506001600160a01b037f00000000000000000000000000000000000000000000000000000000000000001691632e1a7d4d9160248082019260009290919082900301818387803b158015610fe257600080fd5b505af1158015610ff6573d6000803e3d6000fd5b5050505061101b565b6110186001600160a01b038a163063ffffffff6124b316565b92505b8683101561105a5760405162461bcd60e51b815260040180806020018281038252602a8152602001806129f4602a913960400191505060405180910390fd5b6110746001600160a01b038a16338563ffffffff61254016565b336001600160a01b0316896001600160a01b03168b6001600160a01b03167f92ceb067a9883c85aba061e46b9edf505a0d6e81927c4b966ebed543a52217878b87604051808381526020018281526020019250505060405180910390a4600154600160a81b900460ff1680156111c357600061fde86110fa5a859063ffffffff6125af16565b8161110157fe5b04905060008260ff168211611116578161111b565b8260ff165b9050806117c002616c3e015a11156111c0577f00000000000000000000000000000000000000000000000000000000000000006001600160a01b0316636366b936826040518263ffffffff1660e01b815260040180828152602001915050602060405180830381600087803b15801561119357600080fd5b505af11580156111a7573d6000803e3d6000fd5b505050506040513d60208110156111bd57600080fd5b50505b50505b505050979650505050505050565b60008142811015611222576040805162461bcd60e51b81526020600482015260166024820152751113d113d58c541c9bde1e4c0c4e881156141254915160521b604482015290519081900360640190fd5b84518651146112625760405162461bcd60e51b815260040180806020018281038252602681526020018061297e6026913960400191505060405180910390fd5b600061127d6001600160a01b038b163363ffffffff6125f816565b90506001600160a01b038b1673eeeeeeeeeeeeeeeeeeeeeeeeeeeeeeeeeeeeeeee1461133f576040805163052f523360e11b81526001600160a01b038d81166004830152336024830152306044830152606482018c905291517f000000000000000000000000000000000000000000000000000000000000000090921691630a5ea4669160848082019260009290919082900301818387803b15801561132257600080fd5b505af1158015611336573d6000803e3d6000fd5b505050506113f2565b88341461137d5760405162461bcd60e51b81526004018080602001828103825260238152602001806129d16023913960400191505060405180910390fd5b7f00000000000000000000000000000000000000000000000000000000000000006001600160a01b031663d0e30db08a6040518263ffffffff1660e01b81526004016000604051808303818588803b1580156113d857600080fd5b505af11580156113ec573d6000803e3d6000fd5b50505050505b60005b87518160ff161015611a83576000888260ff168151811061141257fe5b60200260200101519050878260ff168151811061142b57fe5b602002602001015160ff16600014156115d2576000816001600160a01b0316634a248d2a6040518163ffffffff1660e01b8152600401602060405180830381600087803b15801561147b57600080fd5b505af115801561148f573d6000803e3d6000fd5b505050506040513d60208110156114a557600080fd5b5051604080516370a0823160e01b815230600482015290519192506000916001600160a01b038416916370a08231916024808301926020929190829003018186803b1580156114f357600080fd5b505afa158015611507573d6000803e3d6000fd5b505050506040513d602081101561151d57600080fd5b5051905061153b6001600160a01b038316848363ffffffff6123e916565b826001600160a01b0316638dae73338260006040518363ffffffff1660e01b815260040180838152602001828152602001806020018281038252600081526020016020019350505050602060405180830381600087803b15801561159e57600080fd5b505af11580156115b2573d6000803e3d6000fd5b505050506040513d60208110156115c857600080fd5b50611a7a92505050565b878260ff16815181106115e157fe5b602002602001015160ff1660011415611829576000816001600160a01b031663d4b970466040518163ffffffff1660e01b8152600401602060405180830381600087803b15801561163157600080fd5b505af1158015611645573d6000803e3d6000fd5b505050506040513d602081101561165b57600080fd5b5051604080516370a0823160e01b815230600482015290519192506000916001600160a01b038416916370a08231916024808301926020929190829003018186803b1580156116a957600080fd5b505afa1580156116bd573d6000803e3d6000fd5b505050506040513d60208110156116d357600080fd5b505190506116f16001600160a01b038316848363ffffffff6123e916565b6040805163ca19ebd960e01b81526001600160a01b0385811660048301526024820184905291516000927f0000000000000000000000000000000000000000000000000000000000000000169163ca19ebd9916044808301926020929190829003018186803b15801561176357600080fd5b505afa158015611777573d6000803e3d6000fd5b505050506040513d602081101561178d57600080fd5b50516040805163733e738360e11b815260048101839052602481018590526060604482015260006064820181905291519293506001600160a01b0387169263e67ce7069260a480840193602093929083900390910190829087803b1580156117f457600080fd5b505af1158015611808573d6000803e3d6000fd5b505050506040513d602081101561181e57600080fd5b50611a7a9350505050565b60008760008151811061183857fe5b60200260200101516001600160a01b03166370a08231306040518263ffffffff1660e01b815260040180826001600160a01b03166001600160a01b0316815260200191505060206040518083038186803b15801561189557600080fd5b505afa1580156118a9573d6000803e3d6000fd5b505050506040513d60208110156118bf57600080fd5b505188519091506118f990839083908b906000906118d957fe5b60200260200101516001600160a01b03166123e99092919063ffffffff16565b816001600160a01b03166338ed17398260008b308c6040518663ffffffff1660e01b81526004018086815260200185815260200180602001846001600160a01b03166001600160a01b03168152602001838152602001828103825285818151815260200191508051906020019060200280838360005b8381101561198757818101518382015260200161196f565b505050509050019650505050505050600060405180830381600087803b1580156119b057600080fd5b505af11580156119c4573d6000803e3d6000fd5b505050506040513d6000823e601f3d908101601f1916820160405260208110156119ed57600080fd5b8101908080516040519392919084600160201b821115611a0c57600080fd5b908301906020820185811115611a2157600080fd5b82518660208202830111600160201b82111715611a3d57600080fd5b82525081516020918201928201910280838360005b83811015611a6a578181015183820152602001611a52565b5050505090500160405250505050505b506001016113f5565b50611ab833611aa16001600160a01b038e163063ffffffff6125f816565b6001600160a01b038e16919063ffffffff61254016565b611aec33611ad56001600160a01b038d163063ffffffff6125f816565b6001600160a01b038d16919063ffffffff61254016565b611b1581611b096001600160a01b038d163363ffffffff6125f816565b9063ffffffff6125af16565b925087831015611b565760405162461bcd60e51b815260040180806020018281038252602a8152602001806129f4602a913960400191505060405180910390fd5b336001600160a01b03168a6001600160a01b03168c6001600160a01b03167f92ceb067a9883c85aba061e46b9edf505a0d6e81927c4b966ebed543a52217878c87604051808381526020018281526020019250505060405180910390a4600154600160b01b900460ff168015611c73578060ff166117c002616c3e0161ffff165a1115611c73577f00000000000000000000000000000000000000000000000000000000000000006001600160a01b0316636366b936826040518263ffffffff1660e01b8152600401808260ff168152602001915050602060405180830381600087803b158015611c4657600080fd5b505af1158015611c5a573d6000803e3d6000fd5b505050506040513d6020811015611c7057600080fd5b50505b50505098975050505050505050565b60008142811015611cd3576040805162461bcd60e51b81526020600482015260166024820152751113d113d58c541c9bde1e4c0c4e881156141254915160521b604482015290519081900360640190fd5b89896000611cf06001600160a01b0383163363ffffffff6125f816565b90506001600160a01b03831673eeeeeeeeeeeeeeeeeeeeeeeeeeeeeeeeeeeeeeee14611dc2576040805163052f523360e11b81526001600160a01b038581166004830152336024830152306044830152606482018c905291517f000000000000000000000000000000000000000000000000000000000000000090921691630a5ea4669160848082019260009290919082900301818387803b158015611d9557600080fd5b505af1158015611da9573d6000803e3d6000fd5b50611dc2925050506001600160a01b0384168c8b6123e9565b6001600160a01b038a1660009081526002602052604090205460ff16611e195760405162461bcd60e51b8152600401808060200182810382526025815260200180612a7e6025913960400191505060405180910390fd5b60006001600160a01b03808c1690851673eeeeeeeeeeeeeeeeeeeeeeeeeeeeeeeeeeeeeeee14611e4a576000611e4c565b345b896040518082805190602001908083835b60208310611e7c5780518252601f199092019160209182019101611e5d565b6001836020036101000a03801982511681845116808217855250505050505090500191505060006040518083038185875af1925050503d8060008114611ede576040519150601f19603f3d011682016040523d82523d6000602084013e611ee3565b606091505b5050905080611f235760405162461bcd60e51b815260040180806020018281038252602d8152602001806129a4602d913960400191505060405180910390fd5b611f5733611f406001600160a01b0387163063ffffffff6125f816565b6001600160a01b038716919063ffffffff61254016565b611f8b33611f746001600160a01b0386163063ffffffff6125f816565b6001600160a01b038616919063ffffffff61254016565b611fa882611b096001600160a01b0386163363ffffffff6125f816565b955088861015611fe95760405162461bcd60e51b815260040180806020018281038252602a8152602001806129f4602a913960400191505060405180910390fd5b336001600160a01b0316836001600160a01b0316856001600160a01b03167f92ceb067a9883c85aba061e46b9edf505a0d6e81927c4b966ebed543a52217878d8a604051808381526020018281526020019250505060405180910390a4600154600160b01b900460ff168015612106578060ff166117c002616c3e0161ffff165a1115612106577f00000000000000000000000000000000000000000000000000000000000000006001600160a01b0316636366b936826040518263ffffffff1660e01b8152600401808260ff168152602001915050602060405180830381600087803b1580156120d957600080fd5b505af11580156120ed573d6000803e3d6000fd5b505050506040513d602081101561210357600080fd5b50505b50505050505098975050505050505050565b7f000000000000000000000000000000000000000000000000000000000000000081565b6001546001600160a01b0316331461218b576040805162461bcd60e51b815260206004820152600d60248201526c494e56414c49445f434c41494d60981b604482015290519081900360640190fd5b600154600080546040516001600160a01b0393841693909116917f8be0079c531659141344cd1fd0a4f28419497f9722a3daafe3b4186f6b6457e091a360018054600080546001600160a01b03199081166001600160a01b03841617909155169055565b6000546001600160a01b0316331461223a576040805162461bcd60e51b81526020600482015260096024820152682727aa2fa7aba722a960b91b604482015290519081900360640190fd5b6001805460ff928316600160b01b0260ff60b01b1994909316600160a81b0260ff60a81b199091161792909216179055565b600154600160b01b900460ff1681565b60026020526000908152604090205460ff1681565b6001546001600160a01b031681565b600154600160a81b900460ff1681565b7f000000000000000000000000000000000000000000000000000000000000000081565b6000546001600160a01b0316331461231f576040805162461bcd60e51b81526020600482015260096024820152682727aa2fa7aba722a960b91b604482015290519081900360640190fd5b6001600160a01b03166000908152600260205260409020805460ff19166001179055565b6000546001600160a01b0316331461238e576040805162461bcd60e51b81526020600482015260096024820152682727aa2fa7aba722a960b91b604482015290519081900360640190fd5b600080546040516001600160a01b03808516939216917fdcf55418cee3220104fef63f979ff3c4097ad240c0c43dcb33ce837748983e6291a3600180546001600160a01b0319166001600160a01b0392909216919091179055565b60408051636eb1769f60e11b81523060048201526001600160a01b038481166024830152915160009286169163dd62ed3e916044808301926020929190829003018186803b15801561243a57600080fd5b505afa15801561244e573d6000803e3d6000fd5b505050506040513d602081101561246457600080fd5b50519050818110156124ad578015612491576124916001600160a01b03851684600063ffffffff6126a216565b6124ad6001600160a01b0385168460001963ffffffff6126a216565b50505050565b6000826001600160a01b03166370a08231836040518263ffffffff1660e01b815260040180826001600160a01b03166001600160a01b0316815260200191505060206040518083038186803b15801561250b57600080fd5b505afa15801561251f573d6000803e3d6000fd5b505050506040513d602081101561253557600080fd5b505190505b92915050565b80156125aa5761254f836127b5565b15612590576040516001600160a01b0383169082156108fc029083906000818181858888f1935050505015801561258a573d6000803e3d6000fd5b506125aa565b6125aa6001600160a01b038416838363ffffffff6127da16565b505050565b6000828211156125f2576040805162461bcd60e51b815260206004820152600960248201526829aaa12fa2a92927a960b91b604482015290519081900360640190fd5b50900390565b6000612603836127b5565b1561261957506001600160a01b0381163161253a565b826001600160a01b03166370a08231836040518263ffffffff1660e01b815260040180826001600160a01b03166001600160a01b0316815260200191505060206040518083038186803b15801561266f57600080fd5b505afa158015612683573d6000803e3d6000fd5b505050506040513d602081101561269957600080fd5b5051905061253a565b801580612728575060408051636eb1769f60e11b81523060048201526001600160a01b03848116602483015291519185169163dd62ed3e91604480820192602092909190829003018186803b1580156126fa57600080fd5b505afa15801561270e573d6000803e3d6000fd5b505050506040513d602081101561272457600080fd5b5051155b6127635760405162461bcd60e51b8152600401808060200182810382526036815260200180612a486036913960400191505060405180910390fd5b604080516001600160a01b038416602482015260448082018490528251808303909101815260649091019091526020810180516001600160e01b031663095ea7b360e01b1790526125aa908490612828565b6001600160a01b03811673eeeeeeeeeeeeeeeeeeeeeeeeeeeeeeeeeeeeeeee14919050565b604080516001600160a01b038416602482015260448082018490528251808303909101815260649091019091526020810180516001600160e01b031663a9059cbb60e01b1790526125aa9084905b60006060836001600160a01b0316836040518082805190602001908083835b602083106128665780518252601f199092019160209182019101612847565b6001836020036101000a0380198251168184511680821785525050505050509050019150506000604051808303816000865af19150503d80600081146128c8576040519150601f19603f3d011682016040523d82523d6000602084013e6128cd565b606091505b509150915081612924576040805162461bcd60e51b815260206004820181905260248201527f5361666545524332303a206c6f772d6c6576656c2063616c6c206661696c6564604482015290519081900360640190fd5b8051156124ad5780806020019051602081101561294057600080fd5b50516124ad5760405162461bcd60e51b815260040180806020018281038252602a815260200180612a1e602a913960400191505060405180910390fdfe444f444f563150726f787930313a20504152414d535f4c454e4754485f4e4f545f4d41544348444f444f563150726f787930313a2045787465726e616c205377617020657865637574696f6e204661696c6564444f444f563150726f787930313a204554485f414d4f554e545f4e4f545f4d41544348444f444f563150726f787930313a2052657475726e20616d6f756e74206973206e6f7420656e6f7567685361666545524332303a204552433230206f7065726174696f6e20646964206e6f7420737563636565645361666545524332303a20617070726f76652066726f6d206e6f6e2d7a65726f20746f206e6f6e2d7a65726f20616c6c6f77616e6365444f444f563150726f787930313a204e6f742057686974656c69737420436f6e7472616374a2646970667358221220f767c1ac1b9d3c9d4761288fdac89fba1b466eeb08084c7349f96c8cd8beb7e264736f6c63430006090033",
  "immutableReferences": {
    "9952": [
      {
        "length": 32,
        "start": 2443
      },
      {
        "length": 32,
        "start": 4824
      },
      {
        "length": 32,
        "start": 7499
      },
      {
        "length": 32,
        "start": 8474
      }
    ],
    "9954": [
      {
        "length": 32,
        "start": 3502
      },
      {
        "length": 32,
        "start": 5917
      },
      {
        "length": 32,
        "start": 8882
      }
    ],
    "9956": [
      {
        "length": 32,
        "start": 2047
      },
      {
        "length": 32,
        "start": 2610
      },
      {
        "length": 32,
        "start": 3844
      },
      {
        "length": 32,
        "start": 3994
      },
      {
        "length": 32,
        "start": 4991
      }
    ],
    "9958": [
      {
        "length": 32,
        "start": 1875
      },
      {
        "length": 32,
        "start": 4399
      },
      {
        "length": 32,
        "start": 7135
      },
      {
        "length": 32,
        "start": 8306
      }
    ]
  },
  "source": "/*\n\n    Copyright 2020 DODO ZOO.\n    SPDX-License-Identifier: Apache-2.0\n\n*/\n\npragma solidity 0.6.9;\n\nimport {IERC20} from \"../intf/IERC20.sol\";\nimport {UniversalERC20} from \"./lib/UniversalERC20.sol\";\nimport {SafeMath} from \"../lib/SafeMath.sol\";\nimport {IDODOV1} from \"./intf/IDODOV1.sol\";\nimport {IDODOSellHelper} from \"./helper/DODOSellHelper.sol\";\nimport {IWETH} from \"../intf/IWETH.sol\";\nimport {IChi} from \"./intf/IChi.sol\";\nimport {IUni} from \"./intf/IUni.sol\";\nimport {IDODOApprove} from \"../intf/IDODOApprove.sol\";\nimport {IDODOV1Proxy01} from \"./intf/IDODOV1Proxy01.sol\";\nimport {InitializableOwnable} from \"../lib/InitializableOwnable.sol\";\n\n\n/**\n * @title DODOV1Proxy01\n * @author DODO Breeder\n *\n * @notice Entrance of trading in DODO platform\n */\ncontract DODOV1Proxy01 is IDODOV1Proxy01, InitializableOwnable {\n    using SafeMath for uint256;\n    using UniversalERC20 for IERC20;\n\n    // ============ Storage ============\n\n    address constant _ETH_ADDRESS_ = 0xEeeeeEeeeEeEeeEeEeEeeEEEeeeeEeeeeeeeEEeE;\n    address public immutable _DODO_APPROVE_;\n    address public immutable _DODO_SELL_HELPER_;\n    address public immutable _WETH_;\n    address public immutable _CHI_TOKEN_;\n    uint8 public _GAS_DODO_MAX_RETURN_ = 0;\n    uint8 public _GAS_EXTERNAL_RETURN_ = 0;\n    mapping (address => bool) public isWhiteListed;\n\n    // ============ Events ============\n\n    event OrderHistory(\n        address indexed fromToken,\n        address indexed toToken,\n        address indexed sender,\n        uint256 fromAmount,\n        uint256 returnAmount\n    );\n\n    // ============ Modifiers ============\n\n    modifier judgeExpired(uint256 deadLine) {\n        require(deadLine >= block.timestamp, \"DODOV1Proxy01: EXPIRED\");\n        _;\n    }\n\n    constructor(\n        address dodoApporve,\n        address dodoSellHelper,\n        address weth,\n        address chiToken\n    ) public {\n        _DODO_APPROVE_ = dodoApporve;\n        _DODO_SELL_HELPER_ = dodoSellHelper;\n        _WETH_ = weth;\n        _CHI_TOKEN_ = chiToken;\n    }\n\n    fallback() external payable {}\n\n    receive() external payable {}\n\n    function updateGasReturn(uint8 newDodoGasReturn, uint8 newExternalGasReturn) public onlyOwner {\n        _GAS_DODO_MAX_RETURN_ = newDodoGasReturn;\n        _GAS_EXTERNAL_RETURN_ = newExternalGasReturn;\n    }\n\n    function addWhiteList (address contractAddr) public onlyOwner {\n        isWhiteListed[contractAddr] = true;\n    }\n\n    function removeWhiteList (address contractAddr) public onlyOwner {\n        isWhiteListed[contractAddr] = false;\n    }\n\n    function dodoSwapV1(\n        address fromToken,\n        address toToken,\n        uint256 fromTokenAmount,\n        uint256 minReturnAmount,\n        address[] memory dodoPairs,\n        uint8[] memory directions,\n        uint256 deadLine\n    ) external override payable judgeExpired(deadLine) returns (uint256 returnAmount) {\n        require(dodoPairs.length == directions.length, \"DODOV1Proxy01: PARAMS_LENGTH_NOT_MATCH\");\n        uint256 originGas = gasleft();\n\n        if (fromToken != _ETH_ADDRESS_) {\n            IDODOApprove(_DODO_APPROVE_).claimTokens(\n                fromToken,\n                msg.sender,\n                address(this),\n                fromTokenAmount\n            );\n        } else {\n            require(msg.value == fromTokenAmount, \"DODOV1Proxy01: ETH_AMOUNT_NOT_MATCH\");\n            IWETH(_WETH_).deposit{value: fromTokenAmount}();\n        }\n\n        for (uint8 i = 0; i < dodoPairs.length; i++) {\n            address curDodoPair = dodoPairs[i];\n            if (directions[i] == 0) {\n                address curDodoBase = IDODOV1(curDodoPair)._BASE_TOKEN_();\n                uint256 curAmountIn = IERC20(curDodoBase).balanceOf(address(this));\n                IERC20(curDodoBase).universalApproveMax(curDodoPair, curAmountIn);\n                IDODOV1(curDodoPair).sellBaseToken(curAmountIn, 0, \"\");\n            } else {\n                address curDodoQuote = IDODOV1(curDodoPair)._QUOTE_TOKEN_();\n                uint256 curAmountIn = IERC20(curDodoQuote).balanceOf(address(this));\n                IERC20(curDodoQuote).universalApproveMax(curDodoPair, curAmountIn);\n                uint256 canBuyBaseAmount = IDODOSellHelper(_DODO_SELL_HELPER_).querySellQuoteToken(\n                    curDodoPair,\n                    curAmountIn\n                );\n                IDODOV1(curDodoPair).buyBaseToken(canBuyBaseAmount, curAmountIn, \"\");\n            }\n        }\n\n        if (toToken == _ETH_ADDRESS_) {\n            returnAmount = IWETH(_WETH_).balanceOf(address(this));\n            IWETH(_WETH_).withdraw(returnAmount);\n        } else {\n            returnAmount = IERC20(toToken).tokenBalanceOf(address(this));\n        }\n        \n        require(returnAmount >= minReturnAmount, \"DODOV1Proxy01: Return amount is not enough\");\n        IERC20(toToken).universalTransfer(msg.sender, returnAmount);\n        \n        emit OrderHistory(fromToken, toToken, msg.sender, fromTokenAmount, returnAmount);\n\n        uint8 _gasDodoMaxReturn = _GAS_DODO_MAX_RETURN_;\n        if(_gasDodoMaxReturn > 0) {\n            uint256 calcGasTokenBurn = originGas.sub(gasleft()) / 65000;\n            uint256 gasTokenBurn = calcGasTokenBurn > _gasDodoMaxReturn ? _gasDodoMaxReturn : calcGasTokenBurn;\n            if(gasleft() > 27710 + gasTokenBurn * 6080)\n                IChi(_CHI_TOKEN_).freeUpTo(gasTokenBurn);\n        }\n    }\n\n    function externalSwap(\n        address fromToken,\n        address toToken,\n        address approveTarget,\n        address swapTarget,\n        uint256 fromTokenAmount,\n        uint256 minReturnAmount,\n        bytes memory callDataConcat,\n        uint256 deadLine\n    ) external override payable judgeExpired(deadLine) returns (uint256 returnAmount) {\n        address _fromToken = fromToken;\n        address _toToken = toToken;\n        \n        uint256 toTokenOriginBalance = IERC20(_toToken).universalBalanceOf(msg.sender);\n\n        if (_fromToken != _ETH_ADDRESS_) {\n            IDODOApprove(_DODO_APPROVE_).claimTokens(\n                _fromToken,\n                msg.sender,\n                address(this),\n                fromTokenAmount\n            );\n            IERC20(_fromToken).universalApproveMax(approveTarget, fromTokenAmount);\n        }\n\n        require(isWhiteListed[swapTarget], \"DODOV1Proxy01: Not Whitelist Contract\");\n        (bool success, ) = swapTarget.call{value: _fromToken == _ETH_ADDRESS_ ? msg.value : 0}(callDataConcat);\n\n        require(success, \"DODOV1Proxy01: External Swap execution Failed\");\n\n        IERC20(_fromToken).universalTransfer(\n            msg.sender,\n            IERC20(_fromToken).universalBalanceOf(address(this))\n        );\n\n        IERC20(_toToken).universalTransfer(\n            msg.sender,\n            IERC20(_toToken).universalBalanceOf(address(this))\n        );\n        returnAmount = IERC20(_toToken).universalBalanceOf(msg.sender).sub(toTokenOriginBalance);\n        require(returnAmount >= minReturnAmount, \"DODOV1Proxy01: Return amount is not enough\");\n\n        emit OrderHistory(_fromToken, _toToken, msg.sender, fromTokenAmount, returnAmount);\n        \n        uint8 _gasExternalReturn = _GAS_EXTERNAL_RETURN_;\n        if(_gasExternalReturn > 0) {\n            if(gasleft() > 27710 + _gasExternalReturn * 6080)\n                IChi(_CHI_TOKEN_).freeUpTo(_gasExternalReturn);\n        }\n    }\n\n\n    function mixSwapV1(\n        address fromToken,\n        address toToken,\n        uint256 fromTokenAmount,\n        uint256 minReturnAmount,\n        address[] memory mixPairs,\n        uint8[] memory directions,\n        address[] memory portionPath,\n        uint256 deadLine\n    ) external override payable judgeExpired(deadLine) returns (uint256 returnAmount) {\n        require(mixPairs.length == directions.length, \"DODOV1Proxy01: PARAMS_LENGTH_NOT_MATCH\");\n        uint256 toTokenOriginBalance = IERC20(toToken).universalBalanceOf(msg.sender);\n\n        if (fromToken != _ETH_ADDRESS_) {\n            IDODOApprove(_DODO_APPROVE_).claimTokens(\n                fromToken,\n                msg.sender,\n                address(this),\n                fromTokenAmount\n            );\n        } else {\n            require(msg.value == fromTokenAmount, \"DODOV1Proxy01: ETH_AMOUNT_NOT_MATCH\");\n            IWETH(_WETH_).deposit{value: fromTokenAmount}();\n        }\n\n        for (uint8 i = 0; i < mixPairs.length; i++) {\n            address curPair = mixPairs[i];\n            if (directions[i] == 0) {\n                address curDodoBase = IDODOV1(curPair)._BASE_TOKEN_();\n                uint256 curAmountIn = IERC20(curDodoBase).balanceOf(address(this));\n                IERC20(curDodoBase).universalApproveMax(curPair, curAmountIn);\n                IDODOV1(curPair).sellBaseToken(curAmountIn, 0, \"\");\n            } else if(directions[i] == 1){\n                address curDodoQuote = IDODOV1(curPair)._QUOTE_TOKEN_();\n                uint256 curAmountIn = IERC20(curDodoQuote).balanceOf(address(this));\n                IERC20(curDodoQuote).universalApproveMax(curPair, curAmountIn);\n                uint256 canBuyBaseAmount = IDODOSellHelper(_DODO_SELL_HELPER_).querySellQuoteToken(\n                    curPair,\n                    curAmountIn\n                );\n                IDODOV1(curPair).buyBaseToken(canBuyBaseAmount, curAmountIn, \"\");\n            } else {\n                uint256 curAmountIn = IERC20(portionPath[0]).balanceOf(address(this));\n                IERC20(portionPath[0]).universalApproveMax(curPair, curAmountIn);\n                IUni(curPair).swapExactTokensForTokens(curAmountIn,0,portionPath,address(this),deadLine);\n            }\n        }\n\n        IERC20(fromToken).universalTransfer(\n            msg.sender,\n            IERC20(fromToken).universalBalanceOf(address(this))\n        );\n\n        IERC20(toToken).universalTransfer(\n            msg.sender,\n            IERC20(toToken).universalBalanceOf(address(this))\n        );\n\n        returnAmount = IERC20(toToken).universalBalanceOf(msg.sender).sub(toTokenOriginBalance);\n        require(returnAmount >= minReturnAmount, \"DODOV1Proxy01: Return amount is not enough\");\n\n        emit OrderHistory(fromToken, toToken, msg.sender, fromTokenAmount, returnAmount);\n        \n        uint8 _gasExternalReturn = _GAS_EXTERNAL_RETURN_;\n        if(_gasExternalReturn > 0) {\n            if(gasleft() > 27710 + _gasExternalReturn * 6080)\n                IChi(_CHI_TOKEN_).freeUpTo(_gasExternalReturn);\n        }\n    }\n}\n",
  "sourcePath": "/Users/niutaotao/projects/dodo/contractV2/contracts/SmartRoute/DODOV1Proxy01.sol",
  "compiler": {
    "name": "solc",
    "version": "0.6.9+commit.3e3065ac.Emscripten.clang"
  },
  "schemaVersion": "3.3.2",
  "updatedAt": "2020-12-21T04:18:09.805Z",
  "devdoc": {
    "author": "DODO Breeder",
    "methods": {},
    "title": "DODOV1Proxy01"
  },
  "userdoc": {
    "methods": {},
    "notice": "Entrance of trading in DODO platform"
  }
}