{
  "contractName": "DODONFTRegistry",
  "abi": [
    {
      "anonymous": false,
      "inputs": [
        {
          "indexed": false,
          "internalType": "address",
          "name": "vault",
          "type": "address"
        },
        {
          "indexed": false,
          "internalType": "address",
          "name": "fragment",
          "type": "address"
        },
        {
          "indexed": false,
          "internalType": "address",
          "name": "dvm",
          "type": "address"
        }
      ],
      "name": "NewRegistry",
      "type": "event"
    },
    {
      "anonymous": false,
      "inputs": [
        {
          "indexed": true,
          "internalType": "address",
          "name": "previousOwner",
          "type": "address"
        },
        {
          "indexed": true,
          "internalType": "address",
          "name": "newOwner",
          "type": "address"
        }
      ],
      "name": "OwnershipTransferPrepared",
      "type": "event"
    },
    {
      "anonymous": false,
      "inputs": [
        {
          "indexed": true,
          "internalType": "address",
          "name": "previousOwner",
          "type": "address"
        },
        {
          "indexed": true,
          "internalType": "address",
          "name": "newOwner",
          "type": "address"
        }
      ],
      "name": "OwnershipTransferred",
      "type": "event"
    },
    {
      "anonymous": false,
      "inputs": [
        {
          "indexed": false,
          "internalType": "address",
          "name": "fragment",
          "type": "address"
        }
      ],
      "name": "RemoveRegistry",
      "type": "event"
    },
    {
      "inputs": [],
      "name": "_NEW_OWNER_",
      "outputs": [
        {
          "internalType": "address",
          "name": "",
          "type": "address"
        }
      ],
      "stateMutability": "view",
      "type": "function"
    },
    {
      "inputs": [],
      "name": "_OWNER_",
      "outputs": [
        {
          "internalType": "address",
          "name": "",
          "type": "address"
        }
      ],
      "stateMutability": "view",
      "type": "function"
    },
    {
      "inputs": [
        {
          "internalType": "address",
          "name": "",
          "type": "address"
        },
        {
          "internalType": "address",
          "name": "",
          "type": "address"
        },
        {
          "internalType": "uint256",
          "name": "",
          "type": "uint256"
        }
      ],
      "name": "_REGISTRY_",
      "outputs": [
        {
          "internalType": "address",
          "name": "",
          "type": "address"
        }
      ],
      "stateMutability": "view",
      "type": "function"
    },
    {
      "inputs": [
        {
          "internalType": "address",
          "name": "",
          "type": "address"
        }
      ],
      "name": "_VAULT_FRAG_REGISTRY_",
      "outputs": [
        {
          "internalType": "address",
          "name": "",
          "type": "address"
        }
      ],
      "stateMutability": "view",
      "type": "function"
    },
    {
      "inputs": [],
      "name": "claimOwnership",
      "outputs": [],
      "stateMutability": "nonpayable",
      "type": "function"
    },
    {
      "inputs": [
        {
          "internalType": "address",
          "name": "newOwner",
          "type": "address"
        }
      ],
      "name": "initOwner",
      "outputs": [],
      "stateMutability": "nonpayable",
      "type": "function"
    },
    {
      "inputs": [
        {
          "internalType": "address",
          "name": "",
          "type": "address"
        }
      ],
      "name": "isAdminListed",
      "outputs": [
        {
          "internalType": "bool",
          "name": "",
          "type": "bool"
        }
      ],
      "stateMutability": "view",
      "type": "function"
    },
    {
      "inputs": [
        {
          "internalType": "address",
          "name": "newOwner",
          "type": "address"
        }
      ],
      "name": "transferOwnership",
      "outputs": [],
      "stateMutability": "nonpayable",
      "type": "function"
    },
    {
      "inputs": [
        {
          "internalType": "address",
          "name": "vault",
          "type": "address"
        },
        {
          "internalType": "address",
          "name": "fragment",
          "type": "address"
        },
        {
          "internalType": "address",
          "name": "quoteToken",
          "type": "address"
        },
        {
          "internalType": "address",
          "name": "dvm",
          "type": "address"
        }
      ],
      "name": "addRegistry",
      "outputs": [],
      "stateMutability": "nonpayable",
      "type": "function"
    },
    {
      "inputs": [
        {
          "internalType": "address",
          "name": "fragment",
          "type": "address"
        }
      ],
      "name": "removeRegistry",
      "outputs": [],
      "stateMutability": "nonpayable",
      "type": "function"
    },
    {
      "inputs": [
        {
          "internalType": "address",
          "name": "contractAddr",
          "type": "address"
        }
      ],
      "name": "addAdminList",
      "outputs": [],
      "stateMutability": "nonpayable",
      "type": "function"
    },
    {
      "inputs": [
        {
          "internalType": "address",
          "name": "contractAddr",
          "type": "address"
        }
      ],
      "name": "removeAdminList",
      "outputs": [],
      "stateMutability": "nonpayable",
      "type": "function"
    },
    {
      "inputs": [
        {
          "internalType": "address",
          "name": "baseToken",
          "type": "address"
        },
        {
          "internalType": "address",
          "name": "quoteToken",
          "type": "address"
        }
      ],
      "name": "getDODOPool",
      "outputs": [
        {
          "internalType": "address[]",
          "name": "pools",
          "type": "address[]"
        }
      ],
      "stateMutability": "view",
      "type": "function"
    },
    {
      "inputs": [
        {
          "internalType": "address",
          "name": "token0",
          "type": "address"
        },
        {
          "internalType": "address",
          "name": "token1",
          "type": "address"
        }
      ],
      "name": "getDODOPoolBidirection",
      "outputs": [
        {
          "internalType": "address[]",
          "name": "baseToken0Pool",
          "type": "address[]"
        },
        {
          "internalType": "address[]",
          "name": "baseToken1Pool",
          "type": "address[]"
        }
      ],
      "stateMutability": "view",
      "type": "function"
    }
  ],
  "bytecode": "0x608060405234801561001057600080fd5b50610d8e806100206000396000f3fe608060405234801561001057600080fd5b50600436106100ea5760003560e01c8063794e55381161008c578063ae52aae711610066578063ae52aae7146101cc578063bdeb0a91146101df578063f2fde38b146101f2578063fd8bd84914610205576100ea565b8063794e5538146101905780638456db15146101b15780638e85f242146101b9576100ea565b80634e71e0c8116100c85780634e71e0c81461014257806352c362ca1461014a57806357a281dc1461015d57806374a0aff61461017d576100ea565b80630d009297146100ef57806316048bc4146101045780631822c0c014610122575b600080fd5b6101026100fd366004610acd565b610218565b005b61010c610281565b6040516101199190610c22565b60405180910390f35b610135610130366004610acd565b610290565b6040516101199190610c9a565b6101026102a5565b61010c610158366004610acd565b610333565b61017061016b366004610b0c565b61034e565b6040516101199190610c59565b61010261018b366004610acd565b6103d1565b6101a361019e366004610b0c565b610790565b604051610119929190610c6c565b61010c610888565b6101026101c7366004610b44565b610897565b6101026101da366004610acd565b61096d565b61010c6101ed366004610b9f565b6109bb565b610102610200366004610acd565b6109fd565b610102610213366004610acd565b610a82565b600154600160a01b900460ff161561024b5760405162461bcd60e51b815260040161024290610ccc565b60405180910390fd5b6001805460ff60a01b1916600160a01b179055600080546001600160a01b039092166001600160a01b0319909216919091179055565b6000546001600160a01b031681565b60026020526000908152604090205460ff1681565b6001546001600160a01b031633146102cf5760405162461bcd60e51b815260040161024290610ca5565b600154600080546040516001600160a01b0393841693909116917f8be0079c531659141344cd1fd0a4f28419497f9722a3daafe3b4186f6b6457e091a360018054600080546001600160a01b03199081166001600160a01b03841617909155169055565b6003602052600090815260409020546001600160a01b031681565b6001600160a01b0380831660009081526004602090815260408083209385168352928152908290208054835181840281018401909452808452606093928301828280156103c457602002820191906000526020600020905b81546001600160a01b031681526001909101906020018083116103a6575b5050505050905092915050565b3360009081526002602052604090205460ff166104005760405162461bcd60e51b815260040161024290610cf6565b6000816001600160a01b031663909b9dc16040518163ffffffff1660e01b815260040160206040518083038186803b15801561043b57600080fd5b505afa15801561044f573d6000803e3d6000fd5b505050506040513d601f19601f820116820180604052508101906104739190610af0565b90506000826001600160a01b0316637a1fa0dd6040518163ffffffff1660e01b815260040160206040518083038186803b1580156104b057600080fd5b505afa1580156104c4573d6000803e3d6000fd5b505050506040513d601f19601f820116820180604052508101906104e89190610af0565b6001600160a01b03808416600090815260036020908152604080832080546001600160a01b03191690558051636a5cb82360e11b8152905194955091939285169263d4b9704692600480820193929182900301818787803b15801561054c57600080fd5b505af1158015610560573d6000803e3d6000fd5b505050506040513d601f19601f820116820180604052508101906105849190610af0565b6001600160a01b038086166000908152600460209081526040808320938516835292815290829020805483518184028101840190945280845293945060609390918301828280156105fe57602002820191906000526020600020905b81546001600160a01b031681526001909101906020018083116105e0575b50939450600093505050505b815181101561075157836001600160a01b031682828151811061062957fe5b60200260200101516001600160a01b0316141561074957600182510381146106f4576001600160a01b0380871660009081526004602090815260408083209387168352929052208251815460001990910190811061068357fe5b60009182526020808320909101546001600160a01b0389811684526004835260408085208883168652909352919092208054919092169190839081106106c557fe5b9060005260206000200160006101000a8154816001600160a01b0302191690836001600160a01b031602179055505b6001600160a01b03808716600090815260046020908152604080832093871683529290522080548061072257fe5b600082815260209020810160001990810180546001600160a01b0319169055019055610751565b60010161060a565b507ffb24a3cdf3f2398cefe62b002225e95a7adebdc92f488fd39093b73e76e8b9bf856040516107819190610c22565b60405180910390a15050505050565b6001600160a01b038083166000818152600460208181526040808420958716845294815284832091815284832093835292835290839020815484518185028101850190955280855260609485949091849183018282801561081a57602002820191906000526020600020905b81546001600160a01b031681526001909101906020018083116107fc575b505050505091508080548060200260200160405190810160405280929190818152602001828054801561087657602002820191906000526020600020905b81546001600160a01b03168152600190910190602001808311610858575b50505050509050915091509250929050565b6001546001600160a01b031681565b3360009081526002602052604090205460ff166108c65760405162461bcd60e51b815260040161024290610cf6565b6001600160a01b03808516600090815260036020908152604080832080548589166001600160a01b031991821681179092559084526004835281842087861685528352818420805460018101825590855292909320909101805493851693909216929092179055517f580ce8e575cb0e20e2586757e90856c7f80190f38c0ebc0c2ebfb45c48bba94c9061095f90869086908590610c36565b60405180910390a150505050565b6000546001600160a01b031633146109975760405162461bcd60e51b815260040161024290610d1d565b6001600160a01b03166000908152600260205260409020805460ff19166001179055565b600460205282600052604060002060205281600052604060002081815481106109e057fe5b6000918252602090912001546001600160a01b0316925083915050565b6000546001600160a01b03163314610a275760405162461bcd60e51b815260040161024290610d1d565b600080546040516001600160a01b03808516939216917fdcf55418cee3220104fef63f979ff3c4097ad240c0c43dcb33ce837748983e6291a3600180546001600160a01b0319166001600160a01b0392909216919091179055565b6000546001600160a01b03163314610aac5760405162461bcd60e51b815260040161024290610d1d565b6001600160a01b03166000908152600260205260409020805460ff19169055565b600060208284031215610ade578081fd5b8135610ae981610d40565b9392505050565b600060208284031215610b01578081fd5b8151610ae981610d40565b60008060408385031215610b1e578081fd5b8235610b2981610d40565b91506020830135610b3981610d40565b809150509250929050565b60008060008060808587031215610b59578182fd5b8435610b6481610d40565b93506020850135610b7481610d40565b92506040850135610b8481610d40565b91506060850135610b9481610d40565b939692955090935050565b600080600060608486031215610bb3578283fd5b8335610bbe81610d40565b92506020840135610bce81610d40565b929592945050506040919091013590565b6000815180845260208085019450808401835b83811015610c175781516001600160a01b031687529582019590820190600101610bf2565b509495945050505050565b6001600160a01b0391909116815260200190565b6001600160a01b0393841681529183166020830152909116604082015260600190565b600060208252610ae96020830184610bdf565b600060408252610c7f6040830185610bdf565b8281036020840152610c918185610bdf565b95945050505050565b901515815260200190565b6020808252600d908201526c494e56414c49445f434c41494d60981b604082015260600190565b60208082526010908201526f1113d113d7d25392551250531256915160821b604082015260600190565b6020808252600d908201526c1050d0d154d4d7d11153925151609a1b604082015260600190565b6020808252600990820152682727aa2fa7aba722a960b91b604082015260600190565b6001600160a01b0381168114610d5557600080fd5b5056fea2646970667358221220c9084f79b7bc8a742f5f594e6c2778814d05fa77e97f565e387f1faec6cf6c2a64736f6c63430006090033",
  "immutableReferences": {},
  "source": "/*\n\n    Copyright 2020 DODO ZOO.\n    SPDX-License-Identifier: Apache-2.0\n\n*/\n\npragma solidity 0.6.9;\npragma experimental ABIEncoderV2;\n\nimport {InitializableOwnable} from \"../../lib/InitializableOwnable.sol\";\nimport {IDVM} from \"../../DODOVendingMachine/intf/IDVM.sol\";\nimport {IFragment} from \"../../GeneralizedFragment/intf/IFragment.sol\";\n\ninterface IDODONFTRegistry {\n    function addRegistry(\n        address vault,\n        address fragment, \n        address quoteToken,\n        address dvm\n    ) external;\n\n    function removeRegistry(address fragment) external;\n}\n\n/**\n * @title DODONFT Registry\n * @author DODO Breeder\n *\n * @notice Register DODONFT Pools \n */\ncontract DODONFTRegistry is InitializableOwnable, IDODONFTRegistry {\n\n    mapping (address => bool) public isAdminListed;\n    \n    // ============ Registry ============\n    // Vault -> Frag\n    mapping(address => address) public _VAULT_FRAG_REGISTRY_;\n\n    // base -> quote -> DVM address list\n    mapping(address => mapping(address => address[])) public _REGISTRY_;\n\n    // ============ Events ============\n\n    event NewRegistry(\n        address vault,\n        address fragment,\n        address dvm\n    );\n\n    event RemoveRegistry(address fragment);\n\n\n    // ============ Admin Operation Functions ============\n\n    function addRegistry(\n        address vault,\n        address fragment, \n        address quoteToken,\n        address dvm\n    ) override external {\n        require(isAdminListed[msg.sender], \"ACCESS_DENIED\");\n        _VAULT_FRAG_REGISTRY_[vault] = fragment;\n        _REGISTRY_[fragment][quoteToken].push(dvm);\n        emit NewRegistry(vault, fragment, dvm);\n    }\n\n    function removeRegistry(address fragment) override external {\n        require(isAdminListed[msg.sender], \"ACCESS_DENIED\");\n        address vault = IFragment(fragment)._COLLATERAL_VAULT_();\n        address dvm = IFragment(fragment)._DVM_();\n\n        _VAULT_FRAG_REGISTRY_[vault] = address(0);\n\n        address quoteToken = IDVM(dvm)._QUOTE_TOKEN_();\n        address[] memory registryList = _REGISTRY_[fragment][quoteToken];\n        for (uint256 i = 0; i < registryList.length; i++) {\n            if (registryList[i] == dvm) {\n                if(i != registryList.length - 1) {\n                    _REGISTRY_[fragment][quoteToken][i] = _REGISTRY_[fragment][quoteToken][registryList.length - 1];\n                }                \n                _REGISTRY_[fragment][quoteToken].pop();\n                break;\n            }\n        }\n\n        emit RemoveRegistry(fragment);\n    }\n\n    function addAdminList (address contractAddr) external onlyOwner {\n        isAdminListed[contractAddr] = true;\n    }\n\n    function removeAdminList (address contractAddr) external onlyOwner {\n        isAdminListed[contractAddr] = false;\n    }\n\n    function getDODOPool(address baseToken, address quoteToken)\n        external\n        view\n        returns (address[] memory pools)\n    {\n        return _REGISTRY_[baseToken][quoteToken];\n    }\n\n    function getDODOPoolBidirection(address token0, address token1)\n        external\n        view\n        returns (address[] memory baseToken0Pool, address[] memory baseToken1Pool)\n    {\n        return (_REGISTRY_[token0][token1], _REGISTRY_[token1][token0]);\n    }\n}\n",
  "sourcePath": "/Users/niutaotao/projects/dodo/contractV2/contracts/Factory/Registries/DODONFTRegistry.sol",
  "compiler": {
    "name": "solc",
    "version": "0.6.9+commit.3e3065ac.Emscripten.clang"
  },
  "schemaVersion": "3.3.2",
  "updatedAt": "2021-05-24T11:04:29.822Z",
  "devdoc": {
    "author": "DODO Breeder",
    "methods": {},
    "title": "DODONFT Registry"
  },
  "userdoc": {
    "methods": {},
    "notice": "Register DODONFT Pools "
  }
}