{
  "contractName": "DODOV2Proxy02",
  "abi": [
    {
      "inputs": [
        {
          "internalType": "address",
          "name": "dvmFactory",
          "type": "address"
        },
        {
          "internalType": "address",
          "name": "dppFactory",
          "type": "address"
        },
        {
          "internalType": "address",
          "name": "cpFactory",
          "type": "address"
        },
        {
          "internalType": "address payable",
          "name": "weth",
          "type": "address"
        },
        {
          "internalType": "address",
          "name": "dodoApproveProxy",
          "type": "address"
        },
        {
          "internalType": "address",
          "name": "dodoSellHelper",
          "type": "address"
        },
        {
          "internalType": "address",
          "name": "chiToken",
          "type": "address"
        },
        {
          "internalType": "address",
          "name": "dodoIncentive",
          "type": "address"
        }
      ],
      "stateMutability": "nonpayable",
      "type": "constructor"
    },
    {
      "anonymous": false,
      "inputs": [
        {
          "indexed": false,
          "internalType": "address",
          "name": "fromToken",
          "type": "address"
        },
        {
          "indexed": false,
          "internalType": "address",
          "name": "toToken",
          "type": "address"
        },
        {
          "indexed": false,
          "internalType": "address",
          "name": "sender",
          "type": "address"
        },
        {
          "indexed": false,
          "internalType": "uint256",
          "name": "fromAmount",
          "type": "uint256"
        },
        {
          "indexed": false,
          "internalType": "uint256",
          "name": "returnAmount",
          "type": "uint256"
        }
      ],
      "name": "OrderHistory",
      "type": "event"
    },
    {
      "anonymous": false,
      "inputs": [
        {
          "indexed": true,
          "internalType": "address",
          "name": "previousOwner",
          "type": "address"
        },
        {
          "indexed": true,
          "internalType": "address",
          "name": "newOwner",
          "type": "address"
        }
      ],
      "name": "OwnershipTransferPrepared",
      "type": "event"
    },
    {
      "anonymous": false,
      "inputs": [
        {
          "indexed": true,
          "internalType": "address",
          "name": "previousOwner",
          "type": "address"
        },
        {
          "indexed": true,
          "internalType": "address",
          "name": "newOwner",
          "type": "address"
        }
      ],
      "name": "OwnershipTransferred",
      "type": "event"
    },
    {
      "stateMutability": "payable",
      "type": "fallback"
    },
    {
      "inputs": [],
      "name": "_CHI_TOKEN_",
      "outputs": [
        {
          "internalType": "address",
          "name": "",
          "type": "address"
        }
      ],
      "stateMutability": "view",
      "type": "function"
    },
    {
      "inputs": [],
      "name": "_CP_FACTORY_",
      "outputs": [
        {
          "internalType": "address",
          "name": "",
          "type": "address"
        }
      ],
      "stateMutability": "view",
      "type": "function"
    },
    {
      "inputs": [],
      "name": "_DODO_APPROVE_PROXY_",
      "outputs": [
        {
          "internalType": "address",
          "name": "",
          "type": "address"
        }
      ],
      "stateMutability": "view",
      "type": "function"
    },
    {
      "inputs": [],
      "name": "_DODO_INCENTIVE_",
      "outputs": [
        {
          "internalType": "address",
          "name": "",
          "type": "address"
        }
      ],
      "stateMutability": "view",
      "type": "function"
    },
    {
      "inputs": [],
      "name": "_DODO_SELL_HELPER_",
      "outputs": [
        {
          "internalType": "address",
          "name": "",
          "type": "address"
        }
      ],
      "stateMutability": "view",
      "type": "function"
    },
    {
      "inputs": [],
      "name": "_DPP_FACTORY_",
      "outputs": [
        {
          "internalType": "address",
          "name": "",
          "type": "address"
        }
      ],
      "stateMutability": "view",
      "type": "function"
    },
    {
      "inputs": [],
      "name": "_DVM_FACTORY_",
      "outputs": [
        {
          "internalType": "address",
          "name": "",
          "type": "address"
        }
      ],
      "stateMutability": "view",
      "type": "function"
    },
    {
      "inputs": [],
      "name": "_GAS_DODO_MAX_RETURN_",
      "outputs": [
        {
          "internalType": "uint256",
          "name": "",
          "type": "uint256"
        }
      ],
      "stateMutability": "view",
      "type": "function"
    },
    {
      "inputs": [],
      "name": "_GAS_EXTERNAL_RETURN_",
      "outputs": [
        {
          "internalType": "uint256",
          "name": "",
          "type": "uint256"
        }
      ],
      "stateMutability": "view",
      "type": "function"
    },
    {
      "inputs": [],
      "name": "_NEW_OWNER_",
      "outputs": [
        {
          "internalType": "address",
          "name": "",
          "type": "address"
        }
      ],
      "stateMutability": "view",
      "type": "function"
    },
    {
      "inputs": [],
      "name": "_OWNER_",
      "outputs": [
        {
          "internalType": "address",
          "name": "",
          "type": "address"
        }
      ],
      "stateMutability": "view",
      "type": "function"
    },
    {
      "inputs": [],
      "name": "_WETH_",
      "outputs": [
        {
          "internalType": "address",
          "name": "",
          "type": "address"
        }
      ],
      "stateMutability": "view",
      "type": "function"
    },
    {
      "inputs": [],
      "name": "claimOwnership",
      "outputs": [],
      "stateMutability": "nonpayable",
      "type": "function"
    },
    {
      "inputs": [
        {
          "internalType": "address",
          "name": "newOwner",
          "type": "address"
        }
      ],
      "name": "initOwner",
      "outputs": [],
      "stateMutability": "nonpayable",
      "type": "function"
    },
    {
      "inputs": [
        {
          "internalType": "address",
          "name": "",
          "type": "address"
        }
      ],
      "name": "isWhiteListed",
      "outputs": [
        {
          "internalType": "bool",
          "name": "",
          "type": "bool"
        }
      ],
      "stateMutability": "view",
      "type": "function"
    },
    {
      "inputs": [
        {
          "internalType": "address",
          "name": "newOwner",
          "type": "address"
        }
      ],
      "name": "transferOwnership",
      "outputs": [],
      "stateMutability": "nonpayable",
      "type": "function"
    },
    {
      "stateMutability": "payable",
      "type": "receive"
    },
    {
      "inputs": [
        {
          "internalType": "address",
          "name": "contractAddr",
          "type": "address"
        }
      ],
      "name": "addWhiteList",
      "outputs": [],
      "stateMutability": "nonpayable",
      "type": "function"
    },
    {
      "inputs": [
        {
          "internalType": "address",
          "name": "contractAddr",
          "type": "address"
        }
      ],
      "name": "removeWhiteList",
      "outputs": [],
      "stateMutability": "nonpayable",
      "type": "function"
    },
    {
      "inputs": [
        {
          "internalType": "uint256",
          "name": "newDodoGasReturn",
          "type": "uint256"
        },
        {
          "internalType": "uint256",
          "name": "newExternalGasReturn",
          "type": "uint256"
        }
      ],
      "name": "updateGasReturn",
      "outputs": [],
      "stateMutability": "nonpayable",
      "type": "function"
    },
    {
      "inputs": [
        {
          "internalType": "address",
          "name": "baseToken",
          "type": "address"
        },
        {
          "internalType": "address",
          "name": "quoteToken",
          "type": "address"
        },
        {
          "internalType": "uint256",
          "name": "baseInAmount",
          "type": "uint256"
        },
        {
          "internalType": "uint256",
          "name": "quoteInAmount",
          "type": "uint256"
        },
        {
          "internalType": "uint256",
          "name": "lpFeeRate",
          "type": "uint256"
        },
        {
          "internalType": "uint256",
          "name": "i",
          "type": "uint256"
        },
        {
          "internalType": "uint256",
          "name": "k",
          "type": "uint256"
        },
        {
          "internalType": "bool",
          "name": "isOpenTWAP",
          "type": "bool"
        },
        {
          "internalType": "uint256",
          "name": "deadLine",
          "type": "uint256"
        }
      ],
      "name": "createDODOVendingMachine",
      "outputs": [
        {
          "internalType": "address",
          "name": "newVendingMachine",
          "type": "address"
        },
        {
          "internalType": "uint256",
          "name": "shares",
          "type": "uint256"
        }
      ],
      "stateMutability": "payable",
      "type": "function"
    },
    {
      "inputs": [
        {
          "internalType": "address",
          "name": "dvmAddress",
          "type": "address"
        },
        {
          "internalType": "uint256",
          "name": "baseInAmount",
          "type": "uint256"
        },
        {
          "internalType": "uint256",
          "name": "quoteInAmount",
          "type": "uint256"
        },
        {
          "internalType": "uint256",
          "name": "baseMinAmount",
          "type": "uint256"
        },
        {
          "internalType": "uint256",
          "name": "quoteMinAmount",
          "type": "uint256"
        },
        {
          "internalType": "uint8",
          "name": "flag",
          "type": "uint8"
        },
        {
          "internalType": "uint256",
          "name": "deadLine",
          "type": "uint256"
        }
      ],
      "name": "addDVMLiquidity",
      "outputs": [
        {
          "internalType": "uint256",
          "name": "shares",
          "type": "uint256"
        },
        {
          "internalType": "uint256",
          "name": "baseAdjustedInAmount",
          "type": "uint256"
        },
        {
          "internalType": "uint256",
          "name": "quoteAdjustedInAmount",
          "type": "uint256"
        }
      ],
      "stateMutability": "payable",
      "type": "function"
    },
    {
      "inputs": [
        {
          "internalType": "address",
          "name": "baseToken",
          "type": "address"
        },
        {
          "internalType": "address",
          "name": "quoteToken",
          "type": "address"
        },
        {
          "internalType": "uint256",
          "name": "baseInAmount",
          "type": "uint256"
        },
        {
          "internalType": "uint256",
          "name": "quoteInAmount",
          "type": "uint256"
        },
        {
          "internalType": "uint256",
          "name": "lpFeeRate",
          "type": "uint256"
        },
        {
          "internalType": "uint256",
          "name": "i",
          "type": "uint256"
        },
        {
          "internalType": "uint256",
          "name": "k",
          "type": "uint256"
        },
        {
          "internalType": "bool",
          "name": "isOpenTwap",
          "type": "bool"
        },
        {
          "internalType": "uint256",
          "name": "deadLine",
          "type": "uint256"
        }
      ],
      "name": "createDODOPrivatePool",
      "outputs": [
        {
          "internalType": "address",
          "name": "newPrivatePool",
          "type": "address"
        }
      ],
      "stateMutability": "payable",
      "type": "function"
    },
    {
      "inputs": [
        {
          "internalType": "address",
          "name": "dppAddress",
          "type": "address"
        },
        {
          "internalType": "uint256[]",
          "name": "paramList",
          "type": "uint256[]"
        },
        {
          "internalType": "uint256[]",
          "name": "amountList",
          "type": "uint256[]"
        },
        {
          "internalType": "uint8",
          "name": "flag",
          "type": "uint8"
        },
        {
          "internalType": "uint256",
          "name": "minBaseReserve",
          "type": "uint256"
        },
        {
          "internalType": "uint256",
          "name": "minQuoteReserve",
          "type": "uint256"
        },
        {
          "internalType": "uint256",
          "name": "deadLine",
          "type": "uint256"
        }
      ],
      "name": "resetDODOPrivatePool",
      "outputs": [],
      "stateMutability": "payable",
      "type": "function"
    },
    {
      "inputs": [
        {
          "internalType": "address",
          "name": "toToken",
          "type": "address"
        },
        {
          "internalType": "uint256",
          "name": "minReturnAmount",
          "type": "uint256"
        },
        {
          "internalType": "address[]",
          "name": "dodoPairs",
          "type": "address[]"
        },
        {
          "internalType": "uint256",
          "name": "directions",
          "type": "uint256"
        },
        {
          "internalType": "bool",
          "name": "isIncentive",
          "type": "bool"
        },
        {
          "internalType": "uint256",
          "name": "deadLine",
          "type": "uint256"
        }
      ],
      "name": "dodoSwapV2ETHToToken",
      "outputs": [
        {
          "internalType": "uint256",
          "name": "returnAmount",
          "type": "uint256"
        }
      ],
      "stateMutability": "payable",
      "type": "function"
    },
    {
      "inputs": [
        {
          "internalType": "address",
          "name": "fromToken",
          "type": "address"
        },
        {
          "internalType": "uint256",
          "name": "fromTokenAmount",
          "type": "uint256"
        },
        {
          "internalType": "uint256",
          "name": "minReturnAmount",
          "type": "uint256"
        },
        {
          "internalType": "address[]",
          "name": "dodoPairs",
          "type": "address[]"
        },
        {
          "internalType": "uint256",
          "name": "directions",
          "type": "uint256"
        },
        {
          "internalType": "bool",
          "name": "isIncentive",
          "type": "bool"
        },
        {
          "internalType": "uint256",
          "name": "deadLine",
          "type": "uint256"
        }
      ],
      "name": "dodoSwapV2TokenToETH",
      "outputs": [
        {
          "internalType": "uint256",
          "name": "returnAmount",
          "type": "uint256"
        }
      ],
      "stateMutability": "nonpayable",
      "type": "function"
    },
    {
      "inputs": [
        {
          "internalType": "address",
          "name": "fromToken",
          "type": "address"
        },
        {
          "internalType": "address",
          "name": "toToken",
          "type": "address"
        },
        {
          "internalType": "uint256",
          "name": "fromTokenAmount",
          "type": "uint256"
        },
        {
          "internalType": "uint256",
          "name": "minReturnAmount",
          "type": "uint256"
        },
        {
          "internalType": "address[]",
          "name": "dodoPairs",
          "type": "address[]"
        },
        {
          "internalType": "uint256",
          "name": "directions",
          "type": "uint256"
        },
        {
          "internalType": "bool",
          "name": "isIncentive",
          "type": "bool"
        },
        {
          "internalType": "uint256",
          "name": "deadLine",
          "type": "uint256"
        }
      ],
      "name": "dodoSwapV2TokenToToken",
      "outputs": [
        {
          "internalType": "uint256",
          "name": "returnAmount",
          "type": "uint256"
        }
      ],
      "stateMutability": "nonpayable",
      "type": "function"
    },
    {
      "inputs": [
        {
          "internalType": "address",
          "name": "fromToken",
          "type": "address"
        },
        {
          "internalType": "address",
          "name": "toToken",
          "type": "address"
        },
        {
          "internalType": "address",
          "name": "approveTarget",
          "type": "address"
        },
        {
          "internalType": "address",
          "name": "swapTarget",
          "type": "address"
        },
        {
          "internalType": "uint256",
          "name": "fromTokenAmount",
          "type": "uint256"
        },
        {
          "internalType": "uint256",
          "name": "minReturnAmount",
          "type": "uint256"
        },
        {
          "internalType": "bytes",
          "name": "callDataConcat",
          "type": "bytes"
        },
        {
          "internalType": "bool",
          "name": "isIncentive",
          "type": "bool"
        },
        {
          "internalType": "uint256",
          "name": "deadLine",
          "type": "uint256"
        }
      ],
      "name": "externalSwap",
      "outputs": [
        {
          "internalType": "uint256",
          "name": "returnAmount",
          "type": "uint256"
        }
      ],
      "stateMutability": "payable",
      "type": "function"
    },
    {
      "inputs": [
        {
          "internalType": "address",
          "name": "fromToken",
          "type": "address"
        },
        {
          "internalType": "address",
          "name": "toToken",
          "type": "address"
        },
        {
          "internalType": "uint256",
          "name": "fromTokenAmount",
          "type": "uint256"
        },
        {
          "internalType": "uint256",
          "name": "minReturnAmount",
          "type": "uint256"
        },
        {
          "internalType": "address[]",
          "name": "dodoPairs",
          "type": "address[]"
        },
        {
          "internalType": "uint256",
          "name": "directions",
          "type": "uint256"
        },
        {
          "internalType": "bool",
          "name": "isIncentive",
          "type": "bool"
        },
        {
          "internalType": "uint256",
          "name": "deadLine",
          "type": "uint256"
        }
      ],
      "name": "dodoSwapV1",
      "outputs": [
        {
          "internalType": "uint256",
          "name": "returnAmount",
          "type": "uint256"
        }
      ],
      "stateMutability": "payable",
      "type": "function"
    },
    {
      "inputs": [
        {
          "internalType": "address",
          "name": "fromToken",
          "type": "address"
        },
        {
          "internalType": "address",
          "name": "toToken",
          "type": "address"
        },
        {
          "internalType": "uint256",
          "name": "fromTokenAmount",
          "type": "uint256"
        },
        {
          "internalType": "uint256",
          "name": "minReturnAmount",
          "type": "uint256"
        },
        {
          "internalType": "address[]",
          "name": "mixAdapters",
          "type": "address[]"
        },
        {
          "internalType": "address[]",
          "name": "mixPairs",
          "type": "address[]"
        },
        {
          "internalType": "address[]",
          "name": "assetTo",
          "type": "address[]"
        },
        {
          "internalType": "uint256",
          "name": "directions",
          "type": "uint256"
        },
        {
          "internalType": "bool",
          "name": "isIncentive",
          "type": "bool"
        },
        {
          "internalType": "uint256",
          "name": "deadLine",
          "type": "uint256"
        }
      ],
      "name": "mixSwap",
      "outputs": [
        {
          "internalType": "uint256",
          "name": "returnAmount",
          "type": "uint256"
        }
      ],
      "stateMutability": "payable",
      "type": "function"
    },
    {
      "inputs": [
        {
          "internalType": "address",
          "name": "baseToken",
          "type": "address"
        },
        {
          "internalType": "address",
          "name": "quoteToken",
          "type": "address"
        },
        {
          "internalType": "uint256",
          "name": "baseInAmount",
          "type": "uint256"
        },
        {
          "internalType": "uint256[]",
          "name": "timeLine",
          "type": "uint256[]"
        },
        {
          "internalType": "uint256[]",
          "name": "valueList",
          "type": "uint256[]"
        },
        {
          "internalType": "bool",
          "name": "isOpenTWAP",
          "type": "bool"
        },
        {
          "internalType": "uint256",
          "name": "deadLine",
          "type": "uint256"
        }
      ],
      "name": "createCrowdPooling",
      "outputs": [
        {
          "internalType": "address payable",
          "name": "newCrowdPooling",
          "type": "address"
        }
      ],
      "stateMutability": "payable",
      "type": "function"
    },
    {
      "inputs": [
        {
          "internalType": "address",
          "name": "cpAddress",
          "type": "address"
        },
        {
          "internalType": "uint256",
          "name": "quoteAmount",
          "type": "uint256"
        },
        {
          "internalType": "uint8",
          "name": "flag",
          "type": "uint8"
        },
        {
          "internalType": "uint256",
          "name": "deadLine",
          "type": "uint256"
        }
      ],
      "name": "bid",
      "outputs": [],
      "stateMutability": "payable",
      "type": "function"
    },
    {
      "inputs": [
        {
          "internalType": "address",
          "name": "pair",
          "type": "address"
        },
        {
          "internalType": "uint256",
          "name": "baseAmount",
          "type": "uint256"
        },
        {
          "internalType": "uint256",
          "name": "quoteAmount",
          "type": "uint256"
        },
        {
          "internalType": "uint256",
          "name": "baseMinShares",
          "type": "uint256"
        },
        {
          "internalType": "uint256",
          "name": "quoteMinShares",
          "type": "uint256"
        },
        {
          "internalType": "uint8",
          "name": "flag",
          "type": "uint8"
        },
        {
          "internalType": "uint256",
          "name": "deadLine",
          "type": "uint256"
        }
      ],
      "name": "addLiquidityToV1",
      "outputs": [
        {
          "internalType": "uint256",
          "name": "baseShares",
          "type": "uint256"
        },
        {
          "internalType": "uint256",
          "name": "quoteShares",
          "type": "uint256"
        }
      ],
      "stateMutability": "payable",
      "type": "function"
    }
  ],
  "bytecode": "0x610180604052600060025560006003553480156200001c57600080fd5b50604051620060373803806200603783398181016040526101008110156200004357600080fd5b5080516020820151604083015160608085015160808087015160a08089015160c0808b015160e09b8c01516001600160601b03199b891b8c16909c5298871b8a166101005296861b89166101205293851b8816909252831b86169052811b841690915290811b8216610160529190911b166101405260805160601c60a05160601c60c05160601c60e05160601c6101005160601c6101205160601c6101405160601c6101605160601c615e50620001e76000398061123452806116965280611707528061183e5280611a525280612b835280612bef528061388b52806138fc5280615313528061563a5250806130b852806153ed525080610fd852806110a55280614f6c52508061139f528061154d528061466a525080613feb52806141a5525080611b90528061464652508061244552806139db52806148d95280614afe5280615088525080610fb452806112e5528061149552806114d95280611ce45280611d7a52806127e252806128975280612eb55280612f4b52806132ff528061336352806140f1528061413b5280614f9c528061502452806154625250615e506000f3fe6080604052600436106101e75760003560e01c806369dba8ee11610102578063b730d15011610095578063eb99be1211610064578063eb99be1214610db7578063f2fde38b14610dcc578063f87dc1b714610dff578063faa980e414610ee0576101ee565b8063b730d15014610d04578063d6354c3e14610d19578063db70b5c714610d49578063e7cd4a0414610d84576101ee565b80638b3bb089116100d15780638b3bb08914610bf357806399882c8f14610c745780639f68732214610cda578063af1280b014610cef576101ee565b806369dba8ee14610b6d57806369e4e41714610b825780636f9170f614610b975780638456db1514610bde576101ee565b80631e6d24c21161017a5780634e71e0c8116101495780634e71e0c81461094a5780635028bb951461095f57806354bacd1314610a22578063674d942214610b02576101ee565b80631e6d24c2146106535780632042e5c21461072a57806323c38fa31461075d57806341cf716014610935576101ee565b80630d9be500116101b65780630d9be500146103b35780630dd4ebd91461041157806312ff148d146104f757806316048bc41461063e576101ee565b8063018c9fda146101f0578063056fc2ee146103565780630d0092971461036b5780630d4eec8f1461039e576101ee565b366101ee57005b005b61033a600480360360e081101561020657600080fd5b6001600160a01b03823581169260208101359091169160408201359190810190608081016060820135600160201b81111561024057600080fd5b82018360208201111561025257600080fd5b803590602001918460208302840111600160201b8311171561027357600080fd5b9190808060200260200160405190810160405280939291908181526020018383602002808284376000920191909152509295949360208101935035915050600160201b8111156102c257600080fd5b8201836020820111156102d457600080fd5b803590602001918460208302840111600160201b831117156102f557600080fd5b91908080602002602001604051908101604052809392919081815260200183836020028082843760009201919091525092955050505080351515915060200135610ef5565b604080516001600160a01b039092168252519081900360200190f35b34801561036257600080fd5b5061033a611232565b34801561037757600080fd5b506101ee6004803603602081101561038e57600080fd5b50356001600160a01b0316611256565b3480156103aa57600080fd5b5061033a6112e3565b61033a60048036036101208110156103ca57600080fd5b506001600160a01b03813581169160208101359091169060408101359060608101359060808101359060a08101359060c08101359060e08101351515906101000135611307565b6104e5600480360361010081101561042857600080fd5b6001600160a01b03823581169260208101359091169160408201359160608101359181019060a081016080820135600160201b81111561046757600080fd5b82018360208201111561047957600080fd5b803590602001918460208302840111600160201b8311171561049a57600080fd5b919080806020026020016040519081016040528093929190818152602001838360200280828437600092019190915250929550508235935050506020810135151590604001356115cb565b60408051918252519081900360200190f35b6101ee600480360360e081101561050d57600080fd5b6001600160a01b038235169190810190604081016020820135600160201b81111561053757600080fd5b82018360208201111561054957600080fd5b803590602001918460208302840111600160201b8311171561056a57600080fd5b9190808060200260200160405190810160405280939291908181526020018383602002808284376000920191909152509295949360208101935035915050600160201b8111156105b957600080fd5b8201836020820111156105cb57600080fd5b803590602001918460208302840111600160201b831117156105ec57600080fd5b9190808060200260200160405190810160405280939291908181526020018383602002808284376000920191909152509295505060ff8335169350505060208101359060408101359060600135611ebd565b34801561064a57600080fd5b5061033a612361565b34801561065f57600080fd5b506104e5600480360360e081101561067657600080fd5b6001600160a01b038235169160208101359160408201359190810190608081016060820135600160201b8111156106ac57600080fd5b8201836020820111156106be57600080fd5b803590602001918460208302840111600160201b831117156106df57600080fd5b91908080602002602001604051908101604052809392919081815260200183836020028082843760009201919091525092955050823593505050602081013515159060400135612375565b34801561073657600080fd5b506101ee6004803603602081101561074d57600080fd5b50356001600160a01b03166129c1565b6104e5600480360361014081101561077457600080fd5b6001600160a01b03823581169260208101359091169160408201359160608101359181019060a081016080820135600160201b8111156107b357600080fd5b8201836020820111156107c557600080fd5b803590602001918460208302840111600160201b831117156107e657600080fd5b9190808060200260200160405190810160405280939291908181526020018383602002808284376000920191909152509295949360208101935035915050600160201b81111561083557600080fd5b82018360208201111561084757600080fd5b803590602001918460208302840111600160201b8311171561086857600080fd5b9190808060200260200160405190810160405280939291908181526020018383602002808284376000920191909152509295949360208101935035915050600160201b8111156108b757600080fd5b8201836020820111156108c957600080fd5b803590602001918460208302840111600160201b831117156108ea57600080fd5b91908080602002602001604051908101604052809392919081815260200183836020028082843760009201919091525092955050823593505050602081013515159060400135612a32565b34801561094157600080fd5b5061033a6130b6565b34801561095657600080fd5b506101ee6130da565b6104e5600480360360c081101561097557600080fd5b6001600160a01b0382351691602081013591810190606081016040820135600160201b8111156109a457600080fd5b8201836020820111156109b657600080fd5b803590602001918460208302840111600160201b831117156109d757600080fd5b9190808060200260200160405190810160405280939291908181526020018383602002808284376000920191909152509295505082359350505060208101351515906040013561319e565b6104e56004803603610120811015610a3957600080fd5b6001600160a01b038235811692602081013582169260408201358316926060830135169160808101359160a0820135919081019060e0810160c0820135600160201b811115610a8757600080fd5b820183602082011115610a9957600080fd5b803590602001918460018302840111600160201b83111715610aba57600080fd5b91908080601f01602080910402602001604051908101604052809392919081815260200183838082843760009201919091525092955050505080351515915060200135613804565b610b4f600480360360e0811015610b1857600080fd5b506001600160a01b038135169060208101359060408101359060608101359060808101359060ff60a0820135169060c00135613cdd565b60408051938452602084019290925282820152519081900360600190f35b348015610b7957600080fd5b506104e5613fe3565b348015610b8e57600080fd5b5061033a613fe9565b348015610ba357600080fd5b50610bca60048036036020811015610bba57600080fd5b50356001600160a01b031661400d565b604080519115158252519081900360200190f35b348015610bea57600080fd5b5061033a614022565b610c516004803603610120811015610c0a57600080fd5b506001600160a01b03813581169160208101359091169060408101359060608101359060808101359060a08101359060c08101359060e08101351515906101000135614031565b604080516001600160a01b03909316835260208301919091528051918290030190f35b610cc1600480360360e0811015610c8a57600080fd5b506001600160a01b038135169060208101359060408101359060608101359060808101359060ff60a0820135169060c00135614303565b6040805192835260208301919091528051918290030190f35b348015610ce657600080fd5b506104e561463e565b348015610cfb57600080fd5b5061033a614644565b348015610d1057600080fd5b5061033a614668565b348015610d2557600080fd5b506101ee60048036036040811015610d3c57600080fd5b508035906020013561468c565b6101ee60048036036080811015610d5f57600080fd5b506001600160a01b038135169060208101359060ff60408201351690606001356146e7565b348015610d9057600080fd5b506101ee60048036036020811015610da757600080fd5b50356001600160a01b0316614863565b348015610dc357600080fd5b5061033a6148d7565b348015610dd857600080fd5b506101ee60048036036020811015610def57600080fd5b50356001600160a01b03166148fb565b348015610e0b57600080fd5b506104e56004803603610100811015610e2357600080fd5b6001600160a01b03823581169260208101359091169160408201359160608101359181019060a081016080820135600160201b811115610e6257600080fd5b820183602082011115610e7457600080fd5b803590602001918460208302840111600160201b83111715610e9557600080fd5b919080806020026020016040519081016040528093929190818152602001838360200280828437600092019190915250929550508235935050506020810135151590604001356149ab565b348015610eec57600080fd5b5061033a614f6a565b6000805460ff1615610f3a576040805162461bcd60e51b815260206004820152600960248201526814915153951490539560ba1b604482015290519081900360640190fd5b6000805460ff191660011790558142811015610f8b576040805162461bcd60e51b81526020600482015260166024820152600080516020615bde833981519152604482015290519081900360640190fd5b8860006001600160a01b038a16600080516020615d0483398151915214610fb25789610fd4565b7f00000000000000000000000000000000000000000000000000000000000000005b90507f00000000000000000000000000000000000000000000000000000000000000006001600160a01b03166389edcf146040518163ffffffff1660e01b8152600401602060405180830381600087803b15801561103157600080fd5b505af1158015611045573d6000803e3d6000fd5b505050506040513d602081101561105b57600080fd5b5051935061106d3385848c6000614f8e565b6040516001600160a01b038516903480156108fc02916000818181858888f193505050501580156110a2573d6000803e3d6000fd5b507f00000000000000000000000000000000000000000000000000000000000000006001600160a01b031663ecfc2db0853385858d8d8d6040518863ffffffff1660e01b815260040180886001600160a01b03166001600160a01b03168152602001876001600160a01b03166001600160a01b03168152602001866001600160a01b03166001600160a01b03168152602001856001600160a01b03166001600160a01b03168152602001806020018060200184151515158152602001838103835286818151815260200191508051906020019060200280838360005b8381101561119657818101518382015260200161117e565b50505050905001838103825285818151815260200191508051906020019060200280838360005b838110156111d55781810151838201526020016111bd565b505050509050019950505050505050505050600060405180830381600087803b15801561120157600080fd5b505af1158015611215573d6000803e3d6000fd5b50506000805460ff1916905550939b9a5050505050505050505050565b7f000000000000000000000000000000000000000000000000000000000000000081565b600154600160a01b900460ff16156112a8576040805162461bcd60e51b815260206004820152601060248201526f1113d113d7d25392551250531256915160821b604482015290519081900360640190fd5b6001805460ff60a01b1916600160a01b179055600080546001600160a01b0390921661010002610100600160a81b0319909216919091179055565b7f000000000000000000000000000000000000000000000000000000000000000081565b6000805460ff161561134c576040805162461bcd60e51b815260206004820152600960248201526814915153951490539560ba1b604482015290519081900360640190fd5b6000805460ff19166001179055814281101561139d576040805162461bcd60e51b81526020600482015260166024820152600080516020615bde833981519152604482015290519081900360640190fd5b7f00000000000000000000000000000000000000000000000000000000000000006001600160a01b03166309b8adb86040518163ffffffff1660e01b8152600401602060405180830381600087803b1580156113f857600080fd5b505af115801561140c573d6000803e3d6000fd5b505050506040513d602081101561142257600080fd5b505191508a8a61144e3385848e6001600160a01b038216600080516020615d0483398151915214614f8e565b6114743385838d6001600160a01b038216600080516020615d0483398151915214614f8e565b6001600160a01b038216600080516020615d0483398151915214156114b7577f000000000000000000000000000000000000000000000000000000000000000091505b6001600160a01b038116600080516020615d0483398151915214156114f957507f00000000000000000000000000000000000000000000000000000000000000005b6040805162caf77f60e51b81526001600160a01b03868116600483015233602483015284811660448301528381166064830152608482018c905260a482018a905260c482018b905288151560e483015291517f00000000000000000000000000000000000000000000000000000000000000009092169163195eefe0916101048082019260009290919082900301818387803b15801561159857600080fd5b505af11580156115ac573d6000803e3d6000fd5b50506000805460ff1916905550939d9c50505050505050505050505050565b60008142811015611611576040805162461bcd60e51b81526020600482015260166024820152600080516020615bde833981519152604482015290519081900360640190fd5b6000865111611655576040805162461bcd60e51b815260206004820152601a6024820152600080516020615d24833981519152604482015290519081900360640190fd5b600087116116945760405162461bcd60e51b8152600401808060200182810382526021815260200180615bbd6021913960400191505060405180910390fd5b7f00000000000000000000000000000000000000000000000000000000000000006001600160a01b03168a6001600160a01b031614156117055760405162461bcd60e51b8152600401808060200182810382526023815260200180615c436023913960400191505060405180910390fd5b7f00000000000000000000000000000000000000000000000000000000000000006001600160a01b0316896001600160a01b031614156117765760405162461bcd60e51b8152600401808060200182810382526022815260200180615ce26022913960400191505060405180910390fd5b60005a90508a8a6117a33330848e6001600160a01b038216600080516020615d0483398151915214614f8e565b60005b8951811015611ca45760008a82815181106117bd57fe5b6020026020010151905089600116600014156119e7576000816001600160a01b0316634a248d2a6040518163ffffffff1660e01b815260040160206040518083038186803b15801561180e57600080fd5b505afa158015611822573d6000803e3d6000fd5b505050506040513d602081101561183857600080fd5b505190507f00000000000000000000000000000000000000000000000000000000000000006001600160a01b0390811690821614156118be576040805162461bcd60e51b815260206004820152601e60248201527f444f444f563250726f787930323a204e4f545f535550504f52545f4348490000604482015290519081900360640190fd5b604080516370a0823160e01b815230600482015290516000916001600160a01b038416916370a0823191602480820192602092909190829003018186803b15801561190857600080fd5b505afa15801561191c573d6000803e3d6000fd5b505050506040513d602081101561193257600080fd5b505190506119506001600160a01b038316848363ffffffff6150f216565b826001600160a01b0316638dae73338260006040518363ffffffff1660e01b815260040180838152602001828152602001806020018281038252600081526020016020019350505050602060405180830381600087803b1580156119b357600080fd5b505af11580156119c7573d6000803e3d6000fd5b505050506040513d60208110156119dd57600080fd5b50611c9792505050565b6000816001600160a01b031663d4b970466040518163ffffffff1660e01b815260040160206040518083038186803b158015611a2257600080fd5b505afa158015611a36573d6000803e3d6000fd5b505050506040513d6020811015611a4c57600080fd5b505190507f00000000000000000000000000000000000000000000000000000000000000006001600160a01b039081169082161415611ad2576040805162461bcd60e51b815260206004820152601e60248201527f444f444f563250726f787930323a204e4f545f535550504f52545f4348490000604482015290519081900360640190fd5b604080516370a0823160e01b815230600482015290516000916001600160a01b038416916370a0823191602480820192602092909190829003018186803b158015611b1c57600080fd5b505afa158015611b30573d6000803e3d6000fd5b505050506040513d6020811015611b4657600080fd5b50519050611b646001600160a01b038316848363ffffffff6150f216565b6040805163ca19ebd960e01b81526001600160a01b0385811660048301526024820184905291516000927f0000000000000000000000000000000000000000000000000000000000000000169163ca19ebd9916044808301926020929190829003018186803b158015611bd657600080fd5b505afa158015611bea573d6000803e3d6000fd5b505050506040513d6020811015611c0057600080fd5b50516040805163733e738360e11b815260048101839052602481018590526060604482015260006064820181905291519293506001600160a01b0387169263e67ce7069260a480840193602093929083900390910190829087803b158015611c6757600080fd5b505af1158015611c7b573d6000803e3d6000fd5b505050506040513d6020811015611c9157600080fd5b50505050505b50600198891c98016117a6565b506001600160a01b038116600080516020615d048339815191521415611ddf57604080516370a0823160e01b815230600482015290516001600160a01b037f000000000000000000000000000000000000000000000000000000000000000016916370a08231916024808301926020929190829003018186803b158015611d2a57600080fd5b505afa158015611d3e573d6000803e3d6000fd5b505050506040513d6020811015611d5457600080fd5b505160408051632e1a7d4d60e01b81526004810183905290519196506001600160a01b037f00000000000000000000000000000000000000000000000000000000000000001691632e1a7d4d9160248082019260009290919082900301818387803b158015611dc257600080fd5b505af1158015611dd6573d6000803e3d6000fd5b50505050611dfb565b611df86001600160a01b0382163063ffffffff6151bc16565b94505b89851015611e3a5760405162461bcd60e51b815260040180806020018281038252602a815260200180615c66602a913960400191505060405180910390fd5b611e546001600160a01b038216338763ffffffff61524916565b611e5d836152b8565b611e688783836153aa565b604080516001600160a01b038085168252831660208201523381830152606081018d9052608081018790529051600080516020615bfe8339815191529181900360a00190a15050505098975050505050505050565b60005460ff1615611f01576040805162461bcd60e51b815260206004820152600960248201526814915153951490539560ba1b604482015290519081900360640190fd5b6000805460ff191660011790558042811015611f52576040805162461bcd60e51b81526020600482015260166024820152600080516020615bde833981519152604482015290519081900360640190fd5b611fdd33898a6001600160a01b0316634a248d2a6040518163ffffffff1660e01b815260040160206040518083038186803b158015611f9057600080fd5b505afa158015611fa4573d6000803e3d6000fd5b505050506040513d6020811015611fba57600080fd5b505189518a90600090611fc957fe5b60200260200101518960ff16600114614f8e565b61206a33898a6001600160a01b031663d4b970466040518163ffffffff1660e01b815260040160206040518083038186803b15801561201b57600080fd5b505afa15801561202f573d6000803e3d6000fd5b505050506040513d602081101561204557600080fd5b505189518a90600190811061205657fe5b60200260200101518960ff16600214614f8e565b876001600160a01b03166316048bc46040518163ffffffff1660e01b8152600401602060405180830381600087803b1580156120a557600080fd5b505af11580156120b9573d6000803e3d6000fd5b505050506040513d60208110156120cf57600080fd5b505187516001600160a01b0390911690638ff3928c9033908a906000906120f257fe5b60200260200101518a60018151811061210757fe5b60200260200101518b60028151811061211c57fe5b60200260200101518b60028151811061213157fe5b60200260200101518c60038151811061214657fe5b60200260200101518b8b6040518963ffffffff1660e01b815260040180896001600160a01b03166001600160a01b0316815260200188815260200187815260200186815260200185815260200184815260200183815260200182815260200198505050505050505050602060405180830381600087803b1580156121c957600080fd5b505af11580156121dd573d6000803e3d6000fd5b505050506040513d60208110156121f357600080fd5b5051612235576040805162461bcd60e51b815260206004820152600c60248201526b14995cd95d0811985a5b195960a21b604482015290519081900360640190fd5b6122c133896001600160a01b0316634a248d2a6040518163ffffffff1660e01b815260040160206040518083038186803b15801561227257600080fd5b505afa158015612286573d6000803e3d6000fd5b505050506040513d602081101561229c57600080fd5b50518851899060029081106122ad57fe5b60200260200101518860ff16600314615454565b61234d33896001600160a01b031663d4b970466040518163ffffffff1660e01b815260040160206040518083038186803b1580156122fe57600080fd5b505afa158015612312573d6000803e3d6000fd5b505050506040513d602081101561232857600080fd5b505188518990600390811061233957fe5b60200260200101518860ff16600414615454565b50506000805460ff19169055505050505050565b60005461010090046001600160a01b031681565b600081428110156123bb576040805162461bcd60e51b81526020600482015260166024820152600080516020615bde833981519152604482015290519081900360640190fd5b60008651116123ff576040805162461bcd60e51b815260206004820152601a6024820152600080516020615d24833981519152604482015290519081900360640190fd5b6000871161243e5760405162461bcd60e51b8152600401808060200182810382526021815260200180615bbd6021913960400191505060405180910390fd5b60005a90507f00000000000000000000000000000000000000000000000000000000000000006001600160a01b0316630a5ea4668b338a60008151811061248157fe5b60200260200101518d6040518563ffffffff1660e01b815260040180856001600160a01b03166001600160a01b03168152602001846001600160a01b03166001600160a01b03168152602001836001600160a01b03166001600160a01b03168152602001828152602001945050505050600060405180830381600087803b15801561250b57600080fd5b505af115801561251f573d6000803e3d6000fd5b506000925050505b87518110156127c157600188510381141561267e57600187166125e15787818151811061255057fe5b60200260200101516001600160a01b031663bd6015b4306040518263ffffffff1660e01b815260040180826001600160a01b03166001600160a01b03168152602001915050602060405180830381600087803b1580156125af57600080fd5b505af11580156125c3573d6000803e3d6000fd5b505050506040513d60208110156125d957600080fd5b506126799050565b8781815181106125ed57fe5b60200260200101516001600160a01b031663dd93f59a306040518263ffffffff1660e01b815260040180826001600160a01b03166001600160a01b03168152602001915050602060405180830381600087803b15801561264c57600080fd5b505af1158015612660573d6000803e3d6000fd5b505050506040513d602081101561267657600080fd5b50505b6127b5565b600187166127075787818151811061269257fe5b60200260200101516001600160a01b031663bd6015b48983600101815181106126b757fe5b60200260200101516040518263ffffffff1660e01b815260040180826001600160a01b03166001600160a01b03168152602001915050602060405180830381600087803b15801561264c57600080fd5b87818151811061271357fe5b60200260200101516001600160a01b031663dd93f59a89836001018151811061273857fe5b60200260200101516040518263ffffffff1660e01b815260040180826001600160a01b03166001600160a01b03168152602001915050602060405180830381600087803b15801561278857600080fd5b505af115801561279c573d6000803e3d6000fd5b505050506040513d60208110156127b257600080fd5b50505b600196871c9601612527565b50604080516370a0823160e01b815230600482015290516001600160a01b037f000000000000000000000000000000000000000000000000000000000000000016916370a08231916024808301926020929190829003018186803b15801561282857600080fd5b505afa15801561283c573d6000803e3d6000fd5b505050506040513d602081101561285257600080fd5b50519250878310156128955760405162461bcd60e51b815260040180806020018281038252602a815260200180615c66602a913960400191505060405180910390fd5b7f00000000000000000000000000000000000000000000000000000000000000006001600160a01b0316632e1a7d4d846040518263ffffffff1660e01b815260040180828152602001915050600060405180830381600087803b1580156128fb57600080fd5b505af115801561290f573d6000803e3d6000fd5b505060405133925085156108fc02915085906000818181858888f19350505050158015612940573d6000803e3d6000fd5b5061294a816152b8565b612963858b600080516020615d048339815191526153aa565b604080516001600160a01b038c168152600080516020615d0483398151915260208201523381830152606081018b9052608081018590529051600080516020615bfe8339815191529181900360a00190a15050979650505050505050565b60005461010090046001600160a01b03163314612a11576040805162461bcd60e51b81526020600482015260096024820152682727aa2fa7aba722a960b91b604482015290519081900360640190fd5b6001600160a01b03166000908152600460205260409020805460ff19169055565b60008142811015612a78576040805162461bcd60e51b81526020600482015260166024820152600080516020615bde833981519152604482015290519081900360640190fd5b6000875111612abc576040805162461bcd60e51b815260206004820152601a6024820152600080516020615d24833981519152604482015290519081900360640190fd5b8751875114612afc5760405162461bcd60e51b8152600401808060200182810382526025815260200180615c1e6025913960400191505060405180910390fd5b6001865103875114612b3f5760405162461bcd60e51b8152600401808060200182810382526025815260200180615dc06025913960400191505060405180910390fd5b60008911612b7e5760405162461bcd60e51b8152600401808060200182810382526021815260200180615bbd6021913960400191505060405180910390fd5b8b8b8b7f00000000000000000000000000000000000000000000000000000000000000006001600160a01b039081169084161415612bed5760405162461bcd60e51b8152600401808060200182810382526023815260200180615c436023913960400191505060405180910390fd5b7f00000000000000000000000000000000000000000000000000000000000000006001600160a01b0316826001600160a01b03161415612c5e5760405162461bcd60e51b8152600401808060200182810382526022815260200180615ce26022913960400191505060405180910390fd5b60005a90506000612c7e6001600160a01b0385163363ffffffff61552c16565b9050612cc3338c600081518110612c9157fe5b60200260200101518786600080516020615d048339815191526001600160a01b03168a6001600160a01b031614614f8e565b60005b8c51811015612e755760018b16612da2578d8181518110612ce357fe5b60200260200101516001600160a01b031663815846958d8360010181518110612d0857fe5b60200260200101518f8481518110612d1c57fe5b60200260200101516040518363ffffffff1660e01b815260040180836001600160a01b03166001600160a01b03168152602001826001600160a01b03166001600160a01b0316815260200192505050600060405180830381600087803b158015612d8557600080fd5b505af1158015612d99573d6000803e3d6000fd5b50505050612e69565b8d8181518110612dae57fe5b60200260200101516001600160a01b0316637c9a7c978d8360010181518110612dd357fe5b60200260200101518f8481518110612de757fe5b60200260200101516040518363ffffffff1660e01b815260040180836001600160a01b03166001600160a01b03168152602001826001600160a01b03166001600160a01b0316815260200192505050600060405180830381600087803b158015612e5057600080fd5b505af1158015612e64573d6000803e3d6000fd5b505050505b60019a8b1c9a01612cc6565b506001600160a01b038416600080516020615d048339815191521415612fde57604080516370a0823160e01b815230600482015290516001600160a01b037f000000000000000000000000000000000000000000000000000000000000000016916370a08231916024808301926020929190829003018186803b158015612efb57600080fd5b505afa158015612f0f573d6000803e3d6000fd5b505050506040513d6020811015612f2557600080fd5b505160408051632e1a7d4d60e01b81526004810183905290519198506001600160a01b037f00000000000000000000000000000000000000000000000000000000000000001691632e1a7d4d9160248082019260009290919082900301818387803b158015612f9357600080fd5b505af1158015612fa7573d6000803e3d6000fd5b505060405133925089156108fc02915089906000818181858888f19350505050158015612fd8573d6000803e3d6000fd5b5061300a565b61300781612ffb6001600160a01b0387163363ffffffff6151bc16565b9063ffffffff6155d616565b96505b8d8710156130495760405162461bcd60e51b815260040180806020018281038252602a815260200180615c66602a913960400191505060405180910390fd5b613052826152b8565b61305d8986866153aa565b604080516001600160a01b03808816825286166020820152338183015260608101859052608081018990529051600080516020615bfe8339815191529181900360a00190a15050505050509a9950505050505050505050565b7f000000000000000000000000000000000000000000000000000000000000000081565b6001546001600160a01b03163314613129576040805162461bcd60e51b815260206004820152600d60248201526c494e56414c49445f434c41494d60981b604482015290519081900360640190fd5b600154600080546040516001600160a01b0393841693610100909204909116917f8be0079c531659141344cd1fd0a4f28419497f9722a3daafe3b4186f6b6457e091a36001805460008054610100600160a81b0319166101006001600160a01b038416021790556001600160a01b0319169055565b600081428110156131e4576040805162461bcd60e51b81526020600482015260166024820152600080516020615bde833981519152604482015290519081900360640190fd5b6000865111613228576040805162461bcd60e51b815260206004820152601a6024820152600080516020615d24833981519152604482015290519081900360640190fd5b600087116132675760405162461bcd60e51b8152600401808060200182810382526021815260200180615bbd6021913960400191505060405180910390fd5b60005a604080516370a0823160e01b815233600482015290519192506000916001600160a01b038c16916370a08231916024808301926020929190829003018186803b1580156132b657600080fd5b505afa1580156132ca573d6000803e3d6000fd5b505050506040513d60208110156132e057600080fd5b505160408051630d0e30db60e41b815290519192506001600160a01b037f0000000000000000000000000000000000000000000000000000000000000000169163d0e30db0913491600480830192600092919082900301818588803b15801561334857600080fd5b505af115801561335c573d6000803e3d6000fd5b50505050507f00000000000000000000000000000000000000000000000000000000000000006001600160a01b031663a9059cbb8960008151811061339d57fe5b6020026020010151346040518363ffffffff1660e01b815260040180836001600160a01b03166001600160a01b0316815260200182815260200192505050602060405180830381600087803b1580156133f557600080fd5b505af1158015613409573d6000803e3d6000fd5b505050506040513d602081101561341f57600080fd5b50600090505b88518110156136bf57600189510381141561357c57600188166134df5788818151811061344e57fe5b60200260200101516001600160a01b031663bd6015b4336040518263ffffffff1660e01b815260040180826001600160a01b03166001600160a01b03168152602001915050602060405180830381600087803b1580156134ad57600080fd5b505af11580156134c1573d6000803e3d6000fd5b505050506040513d60208110156134d757600080fd5b506135779050565b8881815181106134eb57fe5b60200260200101516001600160a01b031663dd93f59a336040518263ffffffff1660e01b815260040180826001600160a01b03166001600160a01b03168152602001915050602060405180830381600087803b15801561354a57600080fd5b505af115801561355e573d6000803e3d6000fd5b505050506040513d602081101561357457600080fd5b50505b6136b3565b600188166136055788818151811061359057fe5b60200260200101516001600160a01b031663bd6015b48a83600101815181106135b557fe5b60200260200101516040518263ffffffff1660e01b815260040180826001600160a01b03166001600160a01b03168152602001915050602060405180830381600087803b15801561354a57600080fd5b88818151811061361157fe5b60200260200101516001600160a01b031663dd93f59a8a836001018151811061363657fe5b60200260200101516040518263ffffffff1660e01b815260040180826001600160a01b03166001600160a01b03168152602001915050602060405180830381600087803b15801561368657600080fd5b505af115801561369a573d6000803e3d6000fd5b505050506040513d60208110156136b057600080fd5b50505b600197881c9701613425565b50604080516370a0823160e01b815233600482015290516137449183916001600160a01b038e16916370a08231916024808301926020929190829003018186803b15801561370c57600080fd5b505afa158015613720573d6000803e3d6000fd5b505050506040513d602081101561373657600080fd5b50519063ffffffff6155d616565b9350888410156137855760405162461bcd60e51b815260040180806020018281038252602a815260200180615c66602a913960400191505060405180910390fd5b61378e826152b8565b6137a786600080516020615d048339815191528c6153aa565b60408051600080516020615d0483398151915281526001600160a01b038c1660208201523381830152346060820152608081018690529051600080516020615bfe8339815191529181900360a00190a15050509695505050505050565b6000814281101561384a576040805162461bcd60e51b81526020600482015260166024820152600080516020615bde833981519152604482015290519081900360640190fd5b600086116138895760405162461bcd60e51b8152600401808060200182810382526021815260200180615bbd6021913960400191505060405180910390fd5b7f00000000000000000000000000000000000000000000000000000000000000006001600160a01b03168b6001600160a01b031614156138fa5760405162461bcd60e51b8152600401808060200182810382526023815260200180615c436023913960400191505060405180910390fd5b7f00000000000000000000000000000000000000000000000000000000000000006001600160a01b03168a6001600160a01b0316141561396b5760405162461bcd60e51b8152600401808060200182810382526022815260200180615ce26022913960400191505060405180910390fd5b60006139866001600160a01b038c163363ffffffff61552c16565b90506001600160a01b038c16600080516020615d0483398151915214613a52576040805163052f523360e11b81526001600160a01b038e81166004830152336024830152306044830152606482018b905291517f000000000000000000000000000000000000000000000000000000000000000090921691630a5ea4669160848082019260009290919082900301818387803b158015613a2557600080fd5b505af1158015613a39573d6000803e3d6000fd5b50613a52925050506001600160a01b038d168b8a6150f2565b6001600160a01b03891660009081526004602052604090205460ff16613aa95760405162461bcd60e51b8152600401808060200182810382526025815260200180615d446025913960400191505060405180910390fd5b60006001600160a01b03808b16908e16600080516020615d0483398151915214613ad4576000613ad6565b345b886040518082805190602001908083835b60208310613b065780518252601f199092019160209182019101613ae7565b6001836020036101000a03801982511681845116808217855250505050505090500191505060006040518083038185875af1925050503d8060008114613b68576040519150601f19603f3d011682016040523d82523d6000602084013e613b6d565b606091505b5050905080613bad5760405162461bcd60e51b815260040180806020018281038252602d815260200180615d69602d913960400191505060405180910390fd5b613be133613bca6001600160a01b038f163063ffffffff61552c16565b6001600160a01b038f16919063ffffffff61524916565b613bfe82612ffb6001600160a01b038f163363ffffffff61552c16565b935087841015613c3f5760405162461bcd60e51b815260040180806020018281038252602a815260200180615c66602a913960400191505060405180910390fd5b613c4761561f565b613c52868e8e6153aa565b600080516020615bfe8339815191528d8d338c8860405180866001600160a01b03166001600160a01b03168152602001856001600160a01b03166001600160a01b03168152602001846001600160a01b03166001600160a01b031681526020018381526020018281526020019550505050505060405180910390a15050509998505050505050505050565b600080548190819060ff1615613d26576040805162461bcd60e51b815260206004820152600960248201526814915153951490539560ba1b604482015290519081900360640190fd5b6000805460ff191660011790558342811015613d77576040805162461bcd60e51b81526020600482015260166024820152600080516020615bde833981519152604482015290519081900360640190fd5b8a613d83818c8c6156cb565b9094509250888410801590613d985750878310155b613dd35760405162461bcd60e51b815260040180806020018281038252602b815260200180615cb7602b913960400191505060405180910390fd5b613e4a3382836001600160a01b0316634a248d2a6040518163ffffffff1660e01b815260040160206040518083038186803b158015613e1157600080fd5b505afa158015613e25573d6000803e3d6000fd5b505050506040513d6020811015613e3b57600080fd5b505187600160ff8d1614614f8e565b613ec13382836001600160a01b031663d4b970466040518163ffffffff1660e01b815260040160206040518083038186803b158015613e8857600080fd5b505afa158015613e9c573d6000803e3d6000fd5b505050506040513d6020811015613eb257600080fd5b505186600260ff8d1614614f8e565b60408051634c85b42560e01b815233600482015290516001600160a01b03831691634c85b4259160248083019260609291908290030181600087803b158015613f0957600080fd5b505af1158015613f1d573d6000803e3d6000fd5b505050506040513d6060811015613f3357600080fd5b50519450600160ff8816148015613f4957508334115b15613f7f5760405133903486900380156108fc02916000818181858888f19350505050158015613f7d573d6000803e3d6000fd5b505b8660ff166002148015613f9157508234115b15613fc75760405133903485900380156108fc02916000818181858888f19350505050158015613fc5573d6000803e3d6000fd5b505b50506000805460ff191690559199909850909650945050505050565b60035481565b7f000000000000000000000000000000000000000000000000000000000000000081565b60046020526000908152604090205460ff1681565b6001546001600160a01b031681565b60008054819060ff1615614078576040805162461bcd60e51b815260206004820152600960248201526814915153951490539560ba1b604482015290519081900360640190fd5b6000805460ff1916600117905582428110156140c9576040805162461bcd60e51b81526020600482015260166024820152600080516020615bde833981519152604482015290519081900360640190fd5b60006001600160a01b038d16600080516020615d04833981519152146140ef578c614111565b7f00000000000000000000000000000000000000000000000000000000000000005b905060006001600160a01b038d16600080516020615d0483398151915214614139578c61415b565b7f00000000000000000000000000000000000000000000000000000000000000005b6040805163e18c40c760e01b81526001600160a01b0385811660048301528381166024830152604482018e9052606482018d9052608482018c90528a151560a483015291519293507f00000000000000000000000000000000000000000000000000000000000000009091169163e18c40c79160c4808201926020929091908290030181600087803b1580156141f057600080fd5b505af1158015614204573d6000803e3d6000fd5b505050506040513d602081101561421a57600080fd5b505194508d91508c905061424a3386848f6001600160a01b038216600080516020615d0483398151915214614f8e565b6142703386838e6001600160a01b038216600080516020615d0483398151915214614f8e565b505060408051634c85b42560e01b815233600482015290516001600160a01b03851691634c85b4259160248083019260609291908290030181600087803b1580156142ba57600080fd5b505af11580156142ce573d6000803e3d6000fd5b505050506040513d60608110156142e457600080fd5b50516000805460ff19169055929c929b50919950505050505050505050565b60008054819060ff161561434a576040805162461bcd60e51b815260206004820152600960248201526814915153951490539560ba1b604482015290519081900360640190fd5b6000805460ff19166001179055824281101561439b576040805162461bcd60e51b81526020600482015260166024820152600080516020615bde833981519152604482015290519081900360640190fd5b60008a6001600160a01b0316634a248d2a6040518163ffffffff1660e01b815260040160206040518083038186803b1580156143d657600080fd5b505afa1580156143ea573d6000803e3d6000fd5b505050506040513d602081101561440057600080fd5b505160408051636a5cb82360e11b815290519192506000916001600160a01b038e169163d4b97046916004808301926020929190829003018186803b15801561444857600080fd5b505afa15801561445c573d6000803e3d6000fd5b505050506040513d602081101561447257600080fd5b505190506144893330848e600160ff8d1614614f8e565b61449c3330838d8b60ff16600214614f8e565b8a1561453a576144bc6001600160a01b0383168d8d63ffffffff6150f216565b6040805163aa06ce9b60e01b8152336004820152602481018d905290516001600160a01b038e169163aa06ce9b9160448083019260209291908290030181600087803b15801561450b57600080fd5b505af115801561451f573d6000803e3d6000fd5b505050506040513d602081101561453557600080fd5b505194505b89156145d85761455a6001600160a01b0382168d8c63ffffffff6150f216565b604080516317c5e7d960e21b8152336004820152602481018c905290516001600160a01b038e1691635f179f649160448083019260209291908290030181600087803b1580156145a957600080fd5b505af11580156145bd573d6000803e3d6000fd5b505050506040513d60208110156145d357600080fd5b505193505b8885101580156145e85750878410155b6146235760405162461bcd60e51b8152600401808060200182810382526027815260200180615c906027913960400191505060405180910390fd5b50506000805460ff1916905550909890975095505050505050565b60025481565b7f000000000000000000000000000000000000000000000000000000000000000081565b7f000000000000000000000000000000000000000000000000000000000000000081565b60005461010090046001600160a01b031633146146dc576040805162461bcd60e51b81526020600482015260096024820152682727aa2fa7aba722a960b91b604482015290519081900360640190fd5b600291909155600355565b60005460ff161561472b576040805162461bcd60e51b815260206004820152600960248201526814915153951490539560ba1b604482015290519081900360640190fd5b6000805460ff19166001179055804281101561477c576040805162461bcd60e51b81526020600482015260166024820152600080516020615bde833981519152604482015290519081900360640190fd5b6147f33386876001600160a01b031663d4b970466040518163ffffffff1660e01b815260040160206040518083038186803b1580156147ba57600080fd5b505afa1580156147ce573d6000803e3d6000fd5b505050506040513d60208110156147e457600080fd5b505187600160ff891614614f8e565b60408051639cf5453d60e01b815233600482015290516001600160a01b03871691639cf5453d91602480830192600092919082900301818387803b15801561483a57600080fd5b505af115801561484e573d6000803e3d6000fd5b50506000805460ff1916905550505050505050565b60005461010090046001600160a01b031633146148b3576040805162461bcd60e51b81526020600482015260096024820152682727aa2fa7aba722a960b91b604482015290519081900360640190fd5b6001600160a01b03166000908152600460205260409020805460ff19166001179055565b7f000000000000000000000000000000000000000000000000000000000000000081565b60005461010090046001600160a01b0316331461494b576040805162461bcd60e51b81526020600482015260096024820152682727aa2fa7aba722a960b91b604482015290519081900360640190fd5b600080546040516001600160a01b038085169361010090930416917fdcf55418cee3220104fef63f979ff3c4097ad240c0c43dcb33ce837748983e6291a3600180546001600160a01b0319166001600160a01b0392909216919091179055565b600081428110156149f1576040805162461bcd60e51b81526020600482015260166024820152600080516020615bde833981519152604482015290519081900360640190fd5b6000865111614a35576040805162461bcd60e51b815260206004820152601a6024820152600080516020615d24833981519152604482015290519081900360640190fd5b60008711614a745760405162461bcd60e51b8152600401808060200182810382526021815260200180615bbd6021913960400191505060405180910390fd5b60005a604080516370a0823160e01b815233600482015290519192506000916001600160a01b038d16916370a08231916024808301926020929190829003018186803b158015614ac357600080fd5b505afa158015614ad7573d6000803e3d6000fd5b505050506040513d6020811015614aed57600080fd5b505188519091506001600160a01b037f00000000000000000000000000000000000000000000000000000000000000001690630a5ea466908e9033908c90600090614b3457fe5b60200260200101518e6040518563ffffffff1660e01b815260040180856001600160a01b03166001600160a01b03168152602001846001600160a01b03166001600160a01b03168152602001836001600160a01b03166001600160a01b03168152602001828152602001945050505050600060405180830381600087803b158015614bbe57600080fd5b505af1158015614bd2573d6000803e3d6000fd5b506000925050505b8851811015614e74576001895103811415614d315760018816614c9457888181518110614c0357fe5b60200260200101516001600160a01b031663bd6015b4336040518263ffffffff1660e01b815260040180826001600160a01b03166001600160a01b03168152602001915050602060405180830381600087803b158015614c6257600080fd5b505af1158015614c76573d6000803e3d6000fd5b505050506040513d6020811015614c8c57600080fd5b50614d2c9050565b888181518110614ca057fe5b60200260200101516001600160a01b031663dd93f59a336040518263ffffffff1660e01b815260040180826001600160a01b03166001600160a01b03168152602001915050602060405180830381600087803b158015614cff57600080fd5b505af1158015614d13573d6000803e3d6000fd5b505050506040513d6020811015614d2957600080fd5b50505b614e68565b60018816614dba57888181518110614d4557fe5b60200260200101516001600160a01b031663bd6015b48a8360010181518110614d6a57fe5b60200260200101516040518263ffffffff1660e01b815260040180826001600160a01b03166001600160a01b03168152602001915050602060405180830381600087803b158015614cff57600080fd5b888181518110614dc657fe5b60200260200101516001600160a01b031663dd93f59a8a8360010181518110614deb57fe5b60200260200101516040518263ffffffff1660e01b815260040180826001600160a01b03166001600160a01b03168152602001915050602060405180830381600087803b158015614e3b57600080fd5b505af1158015614e4f573d6000803e3d6000fd5b505050506040513d6020811015614e6557600080fd5b50505b600197881c9701614bda565b50604080516370a0823160e01b81523360048201529051614ec19183916001600160a01b038f16916370a08231916024808301926020929190829003018186803b15801561370c57600080fd5b935088841015614f025760405162461bcd60e51b815260040180806020018281038252602a815260200180615c66602a913960400191505060405180910390fd5b614f0b826152b8565b614f16868d8d6153aa565b604080516001600160a01b03808f1682528d1660208201523381830152606081018c9052608081018690529051600080516020615bfe8339815191529181900360a00190a150505098975050505050505050565b7f000000000000000000000000000000000000000000000000000000000000000081565b801561504f57811561504a577f00000000000000000000000000000000000000000000000000000000000000006001600160a01b031663d0e30db0836040518263ffffffff1660e01b81526004016000604051808303818588803b158015614ff557600080fd5b505af1158015615009573d6000803e3d6000fd5b505050506001600160a01b0385163014905061504a5761504a7f000000000000000000000000000000000000000000000000000000000000000085846157dd565b6150eb565b6040805163052f523360e11b81526001600160a01b038581166004830152878116602483015286811660448301526064820185905291517f000000000000000000000000000000000000000000000000000000000000000090921691630a5ea4669160848082019260009290919082900301818387803b1580156150d257600080fd5b505af11580156150e6573d6000803e3d6000fd5b505050505b5050505050565b60408051636eb1769f60e11b81523060048201526001600160a01b038481166024830152915160009286169163dd62ed3e916044808301926020929190829003018186803b15801561514357600080fd5b505afa158015615157573d6000803e3d6000fd5b505050506040513d602081101561516d57600080fd5b50519050818110156151b657801561519a5761519a6001600160a01b03851684600063ffffffff61582f16565b6151b66001600160a01b0385168460001963ffffffff61582f16565b50505050565b6000826001600160a01b03166370a08231836040518263ffffffff1660e01b815260040180826001600160a01b03166001600160a01b0316815260200191505060206040518083038186803b15801561521457600080fd5b505afa158015615228573d6000803e3d6000fd5b505050506040513d602081101561523e57600080fd5b505190505b92915050565b80156152b35761525883615942565b15615299576040516001600160a01b0383169082156108fc029083906000818181858888f19350505050158015615293573d6000803e3d6000fd5b506152b3565b6152b36001600160a01b038416838363ffffffff6157dd16565b505050565b60025480156153a657600061fde86152d75a859063ffffffff6155d616565b816152de57fe5b04905060008282116152f057816152f2565b825b90506003811015801561530c5750806117c002616c3e015a115b156151b6577f00000000000000000000000000000000000000000000000000000000000000006001600160a01b0316636366b936826040518263ffffffff1660e01b815260040180828152602001915050602060405180830381600087803b15801561537757600080fd5b505af115801561538b573d6000803e3d6000fd5b505050506040513d60208110156153a157600080fd5b505050505b5050565b8280156153b857506175305a115b156152b35760408051630622aa5960e21b81526001600160a01b038481166004830152838116602483015233604483015291517f00000000000000000000000000000000000000000000000000000000000000009092169163188aa9649160648082019260009290919082900301818387803b15801561543757600080fd5b505af115801561544b573d6000803e3d6000fd5b50505050505050565b801561551b578115615516577f00000000000000000000000000000000000000000000000000000000000000006001600160a01b0316632e1a7d4d836040518263ffffffff1660e01b815260040180828152602001915050600060405180830381600087803b1580156154c657600080fd5b505af11580156154da573d6000803e3d6000fd5b50506040516001600160a01b038716925084156108fc02915084906000818181858888f19350505050158015615514573d6000803e3d6000fd5b505b6151b6565b81156151b6576151b68385846157dd565b600061553783615942565b1561554d57506001600160a01b03811631615243565b826001600160a01b03166370a08231836040518263ffffffff1660e01b815260040180826001600160a01b03166001600160a01b0316815260200191505060206040518083038186803b1580156155a357600080fd5b505afa1580156155b7573d6000803e3d6000fd5b505050506040513d60208110156155cd57600080fd5b50519050615243565b600082821115615619576040805162461bcd60e51b815260206004820152600960248201526829aaa12fa2a92927a960b91b604482015290519081900360640190fd5b50900390565b60035480156156c857806117c002616c3e015a11156156c8577f00000000000000000000000000000000000000000000000000000000000000006001600160a01b0316636366b936826040518263ffffffff1660e01b815260040180828152602001915050602060405180830381600087803b15801561569e57600080fd5b505af11580156156b2573d6000803e3d6000fd5b505050506040513d60208110156152b357600080fd5b50565b600080600080866001600160a01b03166336223ce96040518163ffffffff1660e01b8152600401604080518083038186803b15801561570957600080fd5b505afa15801561571d573d6000803e3d6000fd5b505050506040513d604081101561573357600080fd5b50805160209091015190925090508015801561574d575081155b15615759578593508492505b801580156157675750600082115b1561577457859350600092505b6000811180156157845750600082115b156157d35760006157958784615961565b905060006157a38784615961565b90508082116157c0578795506157b98383615992565b94506157d0565b8694506157cd8482615992565b95505b50505b5050935093915050565b604080516001600160a01b038416602482015260448082018490528251808303909101815260649091019091526020810180516001600160e01b031663a9059cbb60e01b1790526152b39084906159bc565b8015806158b5575060408051636eb1769f60e11b81523060048201526001600160a01b03848116602483015291519185169163dd62ed3e91604480820192602092909190829003018186803b15801561588757600080fd5b505afa15801561589b573d6000803e3d6000fd5b505050506040513d60208110156158b157600080fd5b5051155b6158f05760405162461bcd60e51b8152600401808060200182810382526036815260200180615de56036913960400191505060405180910390fd5b604080516001600160a01b038416602482015260448082018490528251808303909101815260649091019091526020810180516001600160e01b031663095ea7b360e01b1790526152b39084906159bc565b6001600160a01b038116600080516020615d0483398151915214919050565b600061598b8261597f85670de0b6b3a764000063ffffffff615b1116565b9063ffffffff615b6c16565b9392505050565b6000670de0b6b3a76400006159ad848463ffffffff615b1116565b816159b457fe5b049392505050565b60006060836001600160a01b0316836040518082805190602001908083835b602083106159fa5780518252601f1990920191602091820191016159db565b6001836020036101000a0380198251168184511680821785525050505050509050019150506000604051808303816000865af19150503d8060008114615a5c576040519150601f19603f3d011682016040523d82523d6000602084013e615a61565b606091505b509150915081615ab8576040805162461bcd60e51b815260206004820181905260248201527f5361666545524332303a206c6f772d6c6576656c2063616c6c206661696c6564604482015290519081900360640190fd5b8051156151b657808060200190516020811015615ad457600080fd5b50516151b65760405162461bcd60e51b815260040180806020018281038252602a815260200180615d96602a913960400191505060405180910390fd5b600082615b2057506000615243565b82820282848281615b2d57fe5b041461598b576040805162461bcd60e51b815260206004820152600960248201526826aaa62fa2a92927a960b91b604482015290519081900360640190fd5b6000808211615bb3576040805162461bcd60e51b815260206004820152600e60248201526d2224ab24a224a723afa2a92927a960911b604482015290519081900360640190fd5b8183816159b457fefe444f444f563250726f787930323a2052455455524e5f414d4f554e545f5a45524f444f444f563250726f787930323a20455850495245440000000000000000000092ceb067a9883c85aba061e46b9edf505a0d6e81927c4b966ebed543a5221787444f444f563250726f787930323a20504149525f414441505445525f4e4f545f4d41544348444f444f563250726f787930323a204e4f545f535550504f52545f53454c4c5f434849444f444f563250726f787930323a2052657475726e20616d6f756e74206973206e6f7420656e6f756768444f444f563250726f787930323a2052657475726e20444c50206973206e6f7420656e6f756768444f444f563250726f787930323a206465706f73697420616d6f756e74206973206e6f7420656e6f756768444f444f563250726f787930323a204e4f545f535550504f52545f4255595f434849000000000000000000000000eeeeeeeeeeeeeeeeeeeeeeeeeeeeeeeeeeeeeeee444f444f563250726f787930323a2050414952535f454d505459000000000000444f444f563250726f787930323a204e6f742057686974656c69737420436f6e7472616374444f444f563250726f787930323a2045787465726e616c205377617020657865637574696f6e204661696c65645361666545524332303a204552433230206f7065726174696f6e20646964206e6f742073756363656564444f444f563250726f787930323a20504149525f4153534554544f5f4e4f545f4d415443485361666545524332303a20617070726f76652066726f6d206e6f6e2d7a65726f20746f206e6f6e2d7a65726f20616c6c6f77616e6365a26469706673582212201cfb8e5213e041025043409b897fabdae98f14bfac54e2592b730517e07f5ee964736f6c63430006090033",
  "immutableReferences": {
    "17167": [
      {
        "length": 32,
        "start": 4020
      },
      {
        "length": 32,
        "start": 4837
      },
      {
        "length": 32,
        "start": 5269
      },
      {
        "length": 32,
        "start": 5337
      },
      {
        "length": 32,
        "start": 7396
      },
      {
        "length": 32,
        "start": 7546
      },
      {
        "length": 32,
        "start": 10210
      },
      {
        "length": 32,
        "start": 10391
      },
      {
        "length": 32,
        "start": 11957
      },
      {
        "length": 32,
        "start": 12107
      },
      {
        "length": 32,
        "start": 13055
      },
      {
        "length": 32,
        "start": 13155
      },
      {
        "length": 32,
        "start": 16625
      },
      {
        "length": 32,
        "start": 16699
      },
      {
        "length": 32,
        "start": 20380
      },
      {
        "length": 32,
        "start": 20516
      },
      {
        "length": 32,
        "start": 21602
      }
    ],
    "17169": [
      {
        "length": 32,
        "start": 9285
      },
      {
        "length": 32,
        "start": 14811
      },
      {
        "length": 32,
        "start": 18649
      },
      {
        "length": 32,
        "start": 19198
      },
      {
        "length": 32,
        "start": 20616
      }
    ],
    "17171": [
      {
        "length": 32,
        "start": 7056
      },
      {
        "length": 32,
        "start": 17990
      }
    ],
    "17173": [
      {
        "length": 32,
        "start": 16363
      },
      {
        "length": 32,
        "start": 16805
      }
    ],
    "17175": [
      {
        "length": 32,
        "start": 5023
      },
      {
        "length": 32,
        "start": 5453
      },
      {
        "length": 32,
        "start": 18026
      }
    ],
    "17177": [
      {
        "length": 32,
        "start": 4056
      },
      {
        "length": 32,
        "start": 4261
      },
      {
        "length": 32,
        "start": 20332
      }
    ],
    "17179": [
      {
        "length": 32,
        "start": 12472
      },
      {
        "length": 32,
        "start": 21485
      }
    ],
    "17181": [
      {
        "length": 32,
        "start": 4660
      },
      {
        "length": 32,
        "start": 5782
      },
      {
        "length": 32,
        "start": 5895
      },
      {
        "length": 32,
        "start": 6206
      },
      {
        "length": 32,
        "start": 6738
      },
      {
        "length": 32,
        "start": 11139
      },
      {
        "length": 32,
        "start": 11247
      },
      {
        "length": 32,
        "start": 14475
      },
      {
        "length": 32,
        "start": 14588
      },
      {
        "length": 32,
        "start": 21267
      },
      {
        "length": 32,
        "start": 22074
      }
    ]
  },
  "source": "/*\n\n    Copyright 2020 DODO ZOO.\n    SPDX-License-Identifier: Apache-2.0\n\n*/\n\npragma solidity 0.6.9;\n\nimport {IDODOV2Proxy01} from \"./intf/IDODOV2Proxy01.sol\";\nimport {IDODOV2} from \"./intf/IDODOV2.sol\";\nimport {IDODOV1} from \"./intf/IDODOV1.sol\";\nimport {IDODOApproveProxy} from \"./DODOApproveProxy.sol\";\nimport {IDODOSellHelper} from \"./helper/DODOSellHelper.sol\";\nimport {IERC20} from \"../intf/IERC20.sol\";\nimport {IWETH} from \"../intf/IWETH.sol\";\nimport {IUni} from \"./intf/IUni.sol\";\nimport {IChi} from \"./intf/IChi.sol\";\nimport {SafeMath} from \"../lib/SafeMath.sol\";\nimport {UniversalERC20} from \"./lib/UniversalERC20.sol\";\nimport {SafeERC20} from \"../lib/SafeERC20.sol\";\nimport {DecimalMath} from \"../lib/DecimalMath.sol\";\nimport {ReentrancyGuard} from \"../lib/ReentrancyGuard.sol\";\nimport {InitializableOwnable} from \"../lib/InitializableOwnable.sol\";\nimport {IDODOIncentive} from \"../DODOToken/DODOIncentive.sol\";\nimport {IDODOAdapter} from \"./intf/IDODOAdapter.sol\";\n\n/**\n * @title DODOV2Proxy02\n * @author DODO Breeder\n *\n * @notice Entrance of trading in DODO platform\n */\ncontract DODOV2Proxy02 is IDODOV2Proxy01, ReentrancyGuard, InitializableOwnable {\n    using SafeMath for uint256;\n    using UniversalERC20 for IERC20;\n\n    // ============ Storage ============\n\n    address constant _ETH_ADDRESS_ = 0xEeeeeEeeeEeEeeEeEeEeeEEEeeeeEeeeeeeeEEeE;\n    address public immutable _WETH_;\n    address public immutable _DODO_APPROVE_PROXY_;\n    address public immutable _DODO_SELL_HELPER_;\n    address public immutable _DVM_FACTORY_;\n    address public immutable _DPP_FACTORY_;\n    address public immutable _CP_FACTORY_;\n    address public immutable _DODO_INCENTIVE_;\n    address public immutable _CHI_TOKEN_;\n    uint256 public _GAS_DODO_MAX_RETURN_ = 0;\n    uint256 public _GAS_EXTERNAL_RETURN_ = 0;\n    mapping (address => bool) public isWhiteListed;\n\n    // ============ Events ============\n\n    event OrderHistory(\n        address fromToken,\n        address toToken,\n        address sender,\n        uint256 fromAmount,\n        uint256 returnAmount\n    );\n\n    // ============ Modifiers ============\n\n    modifier judgeExpired(uint256 deadLine) {\n        require(deadLine >= block.timestamp, \"DODOV2Proxy02: EXPIRED\");\n        _;\n    }\n\n    fallback() external payable {}\n\n    receive() external payable {}\n\n    constructor(\n        address dvmFactory,\n        address dppFactory,\n        address cpFactory,\n        address payable weth,\n        address dodoApproveProxy,\n        address dodoSellHelper,\n        address chiToken,\n        address dodoIncentive\n    ) public {\n        _DVM_FACTORY_ = dvmFactory;\n        _DPP_FACTORY_ = dppFactory;\n        _CP_FACTORY_ = cpFactory;\n        _WETH_ = weth;\n        _DODO_APPROVE_PROXY_ = dodoApproveProxy;\n        _DODO_SELL_HELPER_ = dodoSellHelper;\n        _CHI_TOKEN_ = chiToken;\n        _DODO_INCENTIVE_ = dodoIncentive;\n    }\n\n    function addWhiteList (address contractAddr) public onlyOwner {\n        isWhiteListed[contractAddr] = true;\n    }\n\n    function removeWhiteList (address contractAddr) public onlyOwner {\n        isWhiteListed[contractAddr] = false;\n    }\n\n    function updateGasReturn(uint256 newDodoGasReturn, uint256 newExternalGasReturn) public onlyOwner {\n        _GAS_DODO_MAX_RETURN_ = newDodoGasReturn;\n        _GAS_EXTERNAL_RETURN_ = newExternalGasReturn;\n    }\n\n    // ============ DVM Functions (create & add liquidity) ============\n\n    function createDODOVendingMachine(\n        address baseToken,\n        address quoteToken,\n        uint256 baseInAmount,\n        uint256 quoteInAmount,\n        uint256 lpFeeRate,\n        uint256 i,\n        uint256 k,\n        bool isOpenTWAP,\n        uint256 deadLine\n    )\n        external\n        override\n        payable\n        preventReentrant\n        judgeExpired(deadLine)\n        returns (address newVendingMachine, uint256 shares)\n    {\n        {\n            address _baseToken = baseToken == _ETH_ADDRESS_ ? _WETH_ : baseToken;\n            address _quoteToken = quoteToken == _ETH_ADDRESS_ ? _WETH_ : quoteToken;\n            newVendingMachine = IDODOV2(_DVM_FACTORY_).createDODOVendingMachine(\n                _baseToken,\n                _quoteToken,\n                lpFeeRate,\n                i,\n                k,\n                isOpenTWAP\n            );\n        }\n\n        {\n            address _baseToken = baseToken;\n            address _quoteToken = quoteToken;\n            _deposit(\n                msg.sender,\n                newVendingMachine,\n                _baseToken,\n                baseInAmount,\n                _baseToken == _ETH_ADDRESS_\n            );\n            _deposit(\n                msg.sender,\n                newVendingMachine,\n                _quoteToken,\n                quoteInAmount,\n                _quoteToken == _ETH_ADDRESS_\n            );\n        }\n\n        (shares, , ) = IDODOV2(newVendingMachine).buyShares(msg.sender);\n    }\n\n    function addDVMLiquidity(\n        address dvmAddress,\n        uint256 baseInAmount,\n        uint256 quoteInAmount,\n        uint256 baseMinAmount,\n        uint256 quoteMinAmount,\n        uint8 flag, // 0 - ERC20, 1 - baseInETH, 2 - quoteInETH\n        uint256 deadLine\n    )\n        external\n        override\n        payable\n        preventReentrant\n        judgeExpired(deadLine)\n        returns (\n            uint256 shares,\n            uint256 baseAdjustedInAmount,\n            uint256 quoteAdjustedInAmount\n        )\n    {\n        address _dvm = dvmAddress;\n        (baseAdjustedInAmount, quoteAdjustedInAmount) = _addDVMLiquidity(\n            _dvm,\n            baseInAmount,\n            quoteInAmount\n        );\n        require(\n            baseAdjustedInAmount >= baseMinAmount && quoteAdjustedInAmount >= quoteMinAmount,\n            \"DODOV2Proxy02: deposit amount is not enough\"\n        );\n\n        _deposit(msg.sender, _dvm, IDODOV2(_dvm)._BASE_TOKEN_(), baseAdjustedInAmount, flag == 1);\n        _deposit(msg.sender, _dvm, IDODOV2(_dvm)._QUOTE_TOKEN_(), quoteAdjustedInAmount, flag == 2);\n        \n        (shares, , ) = IDODOV2(_dvm).buyShares(msg.sender);\n        // refund dust eth\n        if (flag == 1 && msg.value > baseAdjustedInAmount) msg.sender.transfer(msg.value - baseAdjustedInAmount);\n        if (flag == 2 && msg.value > quoteAdjustedInAmount) msg.sender.transfer(msg.value - quoteAdjustedInAmount);\n    }\n\n    function _addDVMLiquidity(\n        address dvmAddress,\n        uint256 baseInAmount,\n        uint256 quoteInAmount\n    ) internal view returns (uint256 baseAdjustedInAmount, uint256 quoteAdjustedInAmount) {\n        (uint256 baseReserve, uint256 quoteReserve) = IDODOV2(dvmAddress).getVaultReserve();\n        if (quoteReserve == 0 && baseReserve == 0) {\n            baseAdjustedInAmount = baseInAmount;\n            quoteAdjustedInAmount = quoteInAmount;\n        }\n        if (quoteReserve == 0 && baseReserve > 0) {\n            baseAdjustedInAmount = baseInAmount;\n            quoteAdjustedInAmount = 0;\n        }\n        if (quoteReserve > 0 && baseReserve > 0) {\n            uint256 baseIncreaseRatio = DecimalMath.divFloor(baseInAmount, baseReserve);\n            uint256 quoteIncreaseRatio = DecimalMath.divFloor(quoteInAmount, quoteReserve);\n            if (baseIncreaseRatio <= quoteIncreaseRatio) {\n                baseAdjustedInAmount = baseInAmount;\n                quoteAdjustedInAmount = DecimalMath.mulFloor(quoteReserve, baseIncreaseRatio);\n            } else {\n                quoteAdjustedInAmount = quoteInAmount;\n                baseAdjustedInAmount = DecimalMath.mulFloor(baseReserve, quoteIncreaseRatio);\n            }\n        }\n    }\n\n    // ============ DPP Functions (create & reset) ============\n\n    function createDODOPrivatePool(\n        address baseToken,\n        address quoteToken,\n        uint256 baseInAmount,\n        uint256 quoteInAmount,\n        uint256 lpFeeRate,\n        uint256 i,\n        uint256 k,\n        bool isOpenTwap,\n        uint256 deadLine\n    )\n        external\n        override\n        payable\n        preventReentrant\n        judgeExpired(deadLine)\n        returns (address newPrivatePool)\n    {\n        newPrivatePool = IDODOV2(_DPP_FACTORY_).createDODOPrivatePool();\n\n        address _baseToken = baseToken;\n        address _quoteToken = quoteToken;\n        _deposit(msg.sender, newPrivatePool, _baseToken, baseInAmount, _baseToken == _ETH_ADDRESS_);\n        _deposit(\n            msg.sender,\n            newPrivatePool,\n            _quoteToken,\n            quoteInAmount,\n            _quoteToken == _ETH_ADDRESS_\n        );\n\n        if (_baseToken == _ETH_ADDRESS_) _baseToken = _WETH_;\n        if (_quoteToken == _ETH_ADDRESS_) _quoteToken = _WETH_;\n\n        IDODOV2(_DPP_FACTORY_).initDODOPrivatePool(\n            newPrivatePool,\n            msg.sender,\n            _baseToken,\n            _quoteToken,\n            lpFeeRate,\n            k,\n            i,\n            isOpenTwap\n        );\n    }\n\n    function resetDODOPrivatePool(\n        address dppAddress,\n        uint256[] memory paramList,  //0 - newLpFeeRate, 1 - newI, 2 - newK\n        uint256[] memory amountList, //0 - baseInAmount, 1 - quoteInAmount, 2 - baseOutAmount, 3- quoteOutAmount\n        uint8 flag, // 0 - ERC20, 1 - baseInETH, 2 - quoteInETH, 3 - baseOutETH, 4 - quoteOutETH\n        uint256 minBaseReserve,\n        uint256 minQuoteReserve,\n        uint256 deadLine\n    ) external override payable preventReentrant judgeExpired(deadLine) {\n        _deposit(\n            msg.sender,\n            dppAddress,\n            IDODOV2(dppAddress)._BASE_TOKEN_(),\n            amountList[0],\n            flag == 1\n        );\n        _deposit(\n            msg.sender,\n            dppAddress,\n            IDODOV2(dppAddress)._QUOTE_TOKEN_(),\n            amountList[1],\n            flag == 2\n        );\n\n        require(IDODOV2(IDODOV2(dppAddress)._OWNER_()).reset(\n            msg.sender,\n            paramList[0],\n            paramList[1],\n            paramList[2],\n            amountList[2],\n            amountList[3],\n            minBaseReserve,\n            minQuoteReserve\n        ), \"Reset Failed\");\n\n        _withdraw(msg.sender, IDODOV2(dppAddress)._BASE_TOKEN_(), amountList[2], flag == 3);\n        _withdraw(msg.sender, IDODOV2(dppAddress)._QUOTE_TOKEN_(), amountList[3], flag == 4);\n    }\n\n    // ============ Swap ============\n\n    function dodoSwapV2ETHToToken(\n        address toToken,\n        uint256 minReturnAmount,\n        address[] memory dodoPairs,\n        uint256 directions,\n        bool isIncentive,\n        uint256 deadLine\n    )\n        external\n        override\n        payable\n        judgeExpired(deadLine)\n        returns (uint256 returnAmount)\n    {\n        require(dodoPairs.length > 0, \"DODOV2Proxy02: PAIRS_EMPTY\");\n        require(minReturnAmount > 0, \"DODOV2Proxy02: RETURN_AMOUNT_ZERO\");\n        uint256 originGas = gasleft();\n        \n        uint256 originToTokenBalance = IERC20(toToken).balanceOf(msg.sender);\n        IWETH(_WETH_).deposit{value: msg.value}();\n        IWETH(_WETH_).transfer(dodoPairs[0], msg.value);\n\n        for (uint256 i = 0; i < dodoPairs.length; i++) {\n            if (i == dodoPairs.length - 1) {\n                if (directions & 1 == 0) {\n                    IDODOV2(dodoPairs[i]).sellBase(msg.sender);\n                } else {\n                    IDODOV2(dodoPairs[i]).sellQuote(msg.sender);\n                }\n            } else {\n                if (directions & 1 == 0) {\n                    IDODOV2(dodoPairs[i]).sellBase(dodoPairs[i + 1]);\n                } else {\n                    IDODOV2(dodoPairs[i]).sellQuote(dodoPairs[i + 1]);\n                }\n            }\n            directions = directions >> 1;\n        }\n\n        returnAmount = IERC20(toToken).balanceOf(msg.sender).sub(originToTokenBalance);\n        require(returnAmount >= minReturnAmount, \"DODOV2Proxy02: Return amount is not enough\");\n\n        _dodoGasReturn(originGas);\n\n        _execIncentive(isIncentive, _ETH_ADDRESS_, toToken);\n\n        emit OrderHistory(\n            _ETH_ADDRESS_,\n            toToken,\n            msg.sender,\n            msg.value,\n            returnAmount\n        );\n    }\n\n    function dodoSwapV2TokenToETH(\n        address fromToken,\n        uint256 fromTokenAmount,\n        uint256 minReturnAmount,\n        address[] memory dodoPairs,\n        uint256 directions,\n        bool isIncentive,\n        uint256 deadLine\n    )\n        external\n        override\n        judgeExpired(deadLine)\n        returns (uint256 returnAmount)\n    {\n        require(dodoPairs.length > 0, \"DODOV2Proxy02: PAIRS_EMPTY\");\n        require(minReturnAmount > 0, \"DODOV2Proxy02: RETURN_AMOUNT_ZERO\");\n        uint256 originGas = gasleft();\n        \n        IDODOApproveProxy(_DODO_APPROVE_PROXY_).claimTokens(fromToken, msg.sender, dodoPairs[0], fromTokenAmount);\n\n        for (uint256 i = 0; i < dodoPairs.length; i++) {\n            if (i == dodoPairs.length - 1) {\n                if (directions & 1 == 0) {\n                    IDODOV2(dodoPairs[i]).sellBase(address(this));\n                } else {\n                    IDODOV2(dodoPairs[i]).sellQuote(address(this));\n                }\n            } else {\n                if (directions & 1 == 0) {\n                    IDODOV2(dodoPairs[i]).sellBase(dodoPairs[i + 1]);\n                } else {\n                    IDODOV2(dodoPairs[i]).sellQuote(dodoPairs[i + 1]);\n                }\n            }\n            directions = directions >> 1;\n        }\n        returnAmount = IWETH(_WETH_).balanceOf(address(this));\n        require(returnAmount >= minReturnAmount, \"DODOV2Proxy02: Return amount is not enough\");\n        IWETH(_WETH_).withdraw(returnAmount);\n        msg.sender.transfer(returnAmount);\n\n        _dodoGasReturn(originGas);\n\n        _execIncentive(isIncentive, fromToken, _ETH_ADDRESS_);\n\n        emit OrderHistory(\n            fromToken,\n            _ETH_ADDRESS_,\n            msg.sender,\n            fromTokenAmount,\n            returnAmount\n        );\n    }\n\n    function dodoSwapV2TokenToToken(\n        address fromToken,\n        address toToken,\n        uint256 fromTokenAmount,\n        uint256 minReturnAmount,\n        address[] memory dodoPairs,\n        uint256 directions,\n        bool isIncentive,\n        uint256 deadLine\n    )\n        external\n        override\n        judgeExpired(deadLine)\n        returns (uint256 returnAmount)\n    {\n        require(dodoPairs.length > 0, \"DODOV2Proxy02: PAIRS_EMPTY\");\n        require(minReturnAmount > 0, \"DODOV2Proxy02: RETURN_AMOUNT_ZERO\");\n        uint256 originGas = gasleft();\n\n        uint256 originToTokenBalance = IERC20(toToken).balanceOf(msg.sender);\n        IDODOApproveProxy(_DODO_APPROVE_PROXY_).claimTokens(fromToken, msg.sender, dodoPairs[0], fromTokenAmount);\n\n        for (uint256 i = 0; i < dodoPairs.length; i++) {\n            if (i == dodoPairs.length - 1) {\n                if (directions & 1 == 0) {\n                    IDODOV2(dodoPairs[i]).sellBase(msg.sender);\n                } else {\n                    IDODOV2(dodoPairs[i]).sellQuote(msg.sender);\n                }\n            } else {\n                if (directions& 1 == 0) {\n                    IDODOV2(dodoPairs[i]).sellBase(dodoPairs[i + 1]);\n                } else {\n                    IDODOV2(dodoPairs[i]).sellQuote(dodoPairs[i + 1]);\n                }\n            }\n            directions = directions >> 1;\n        }\n        returnAmount = IERC20(toToken).balanceOf(msg.sender).sub(originToTokenBalance);\n        require(returnAmount >= minReturnAmount, \"DODOV2Proxy02: Return amount is not enough\");\n        \n        _dodoGasReturn(originGas);\n\n        _execIncentive(isIncentive, fromToken, toToken);\n\n        emit OrderHistory(\n            fromToken,\n            toToken,\n            msg.sender,\n            fromTokenAmount,\n            returnAmount\n        );\n    }\n\n    function externalSwap(\n        address fromToken,\n        address toToken,\n        address approveTarget,\n        address swapTarget,\n        uint256 fromTokenAmount,\n        uint256 minReturnAmount,\n        bytes memory callDataConcat,\n        bool isIncentive,\n        uint256 deadLine\n    )\n        external\n        override\n        payable\n        judgeExpired(deadLine)\n        returns (uint256 returnAmount)\n    {\n        require(minReturnAmount > 0, \"DODOV2Proxy02: RETURN_AMOUNT_ZERO\");\n        require(fromToken != _CHI_TOKEN_, \"DODOV2Proxy02: NOT_SUPPORT_SELL_CHI\");\n        require(toToken != _CHI_TOKEN_, \"DODOV2Proxy02: NOT_SUPPORT_BUY_CHI\");\n        \n        uint256 toTokenOriginBalance = IERC20(toToken).universalBalanceOf(msg.sender);\n        if (fromToken != _ETH_ADDRESS_) {\n            IDODOApproveProxy(_DODO_APPROVE_PROXY_).claimTokens(\n                fromToken,\n                msg.sender,\n                address(this),\n                fromTokenAmount\n            );\n            IERC20(fromToken).universalApproveMax(approveTarget, fromTokenAmount);\n        }\n\n        require(isWhiteListed[swapTarget], \"DODOV2Proxy02: Not Whitelist Contract\");\n        (bool success, ) = swapTarget.call{value: fromToken == _ETH_ADDRESS_ ? msg.value : 0}(callDataConcat);\n\n        require(success, \"DODOV2Proxy02: External Swap execution Failed\");\n\n        IERC20(toToken).universalTransfer(\n            msg.sender,\n            IERC20(toToken).universalBalanceOf(address(this))\n        );\n\n        returnAmount = IERC20(toToken).universalBalanceOf(msg.sender).sub(toTokenOriginBalance);\n        require(returnAmount >= minReturnAmount, \"DODOV2Proxy02: Return amount is not enough\");\n\n        _externalGasReturn();\n\n        _execIncentive(isIncentive, fromToken, toToken);\n\n        emit OrderHistory(\n            fromToken,\n            toToken,\n            msg.sender,\n            fromTokenAmount,\n            returnAmount\n        );\n    }\n\n    function dodoSwapV1(\n        address fromToken,\n        address toToken,\n        uint256 fromTokenAmount,\n        uint256 minReturnAmount,\n        address[] memory dodoPairs,\n        uint256 directions,\n        bool isIncentive,\n        uint256 deadLine\n    )\n        external\n        override\n        payable\n        judgeExpired(deadLine)\n        returns (uint256 returnAmount)\n    {\n        require(dodoPairs.length > 0, \"DODOV2Proxy02: PAIRS_EMPTY\");\n        require(minReturnAmount > 0, \"DODOV2Proxy02: RETURN_AMOUNT_ZERO\");\n        require(fromToken != _CHI_TOKEN_, \"DODOV2Proxy02: NOT_SUPPORT_SELL_CHI\");\n        require(toToken != _CHI_TOKEN_, \"DODOV2Proxy02: NOT_SUPPORT_BUY_CHI\");\n        \n        uint256 originGas = gasleft();\n\n        address _fromToken = fromToken;\n        address _toToken = toToken;\n        \n        _deposit(msg.sender, address(this), _fromToken, fromTokenAmount, _fromToken == _ETH_ADDRESS_);\n\n        for (uint256 i = 0; i < dodoPairs.length; i++) {\n            address curDodoPair = dodoPairs[i];\n            if (directions & 1 == 0) {\n                address curDodoBase = IDODOV1(curDodoPair)._BASE_TOKEN_();\n                require(curDodoBase != _CHI_TOKEN_, \"DODOV2Proxy02: NOT_SUPPORT_CHI\");\n                uint256 curAmountIn = IERC20(curDodoBase).balanceOf(address(this));\n                IERC20(curDodoBase).universalApproveMax(curDodoPair, curAmountIn);\n                IDODOV1(curDodoPair).sellBaseToken(curAmountIn, 0, \"\");\n            } else {\n                address curDodoQuote = IDODOV1(curDodoPair)._QUOTE_TOKEN_();\n                require(curDodoQuote != _CHI_TOKEN_, \"DODOV2Proxy02: NOT_SUPPORT_CHI\");\n                uint256 curAmountIn = IERC20(curDodoQuote).balanceOf(address(this));\n                IERC20(curDodoQuote).universalApproveMax(curDodoPair, curAmountIn);\n                uint256 canBuyBaseAmount = IDODOSellHelper(_DODO_SELL_HELPER_).querySellQuoteToken(\n                    curDodoPair,\n                    curAmountIn\n                );\n                IDODOV1(curDodoPair).buyBaseToken(canBuyBaseAmount, curAmountIn, \"\");\n            }\n            directions = directions >> 1;\n        }\n\n        \n        if (_toToken == _ETH_ADDRESS_) {\n            returnAmount = IWETH(_WETH_).balanceOf(address(this));\n            IWETH(_WETH_).withdraw(returnAmount);\n        } else {\n            returnAmount = IERC20(_toToken).tokenBalanceOf(address(this));\n        }\n        \n        require(returnAmount >= minReturnAmount, \"DODOV2Proxy02: Return amount is not enough\");\n        IERC20(_toToken).universalTransfer(msg.sender, returnAmount);\n\n        _dodoGasReturn(originGas);\n\n        _execIncentive(isIncentive, _fromToken, _toToken);\n\n        emit OrderHistory(_fromToken, _toToken, msg.sender, fromTokenAmount, returnAmount);\n    }\n\n\n    function mixSwap(\n        address fromToken,\n        address toToken,\n        uint256 fromTokenAmount,\n        uint256 minReturnAmount,\n        address[] memory mixAdapters,\n        address[] memory mixPairs,\n        address[] memory assetTo,\n        uint256 directions,\n        bool isIncentive,\n        uint256 deadLine\n    ) external override payable judgeExpired(deadLine) returns (uint256 returnAmount) {\n        require(mixPairs.length > 0, \"DODOV2Proxy02: PAIRS_EMPTY\");\n        require(mixPairs.length == mixAdapters.length, \"DODOV2Proxy02: PAIR_ADAPTER_NOT_MATCH\");\n        require(mixPairs.length == assetTo.length - 1, \"DODOV2Proxy02: PAIR_ASSETTO_NOT_MATCH\");\n        require(minReturnAmount > 0, \"DODOV2Proxy02: RETURN_AMOUNT_ZERO\");\n\n        address _fromToken = fromToken;\n        address _toToken = toToken;\n        uint256 _fromTokenAmount = fromTokenAmount;\n\n        require(_fromToken != _CHI_TOKEN_, \"DODOV2Proxy02: NOT_SUPPORT_SELL_CHI\");\n        require(_toToken != _CHI_TOKEN_, \"DODOV2Proxy02: NOT_SUPPORT_BUY_CHI\");\n        \n        uint256 originGas = gasleft();\n        uint256 toTokenOriginBalance = IERC20(_toToken).universalBalanceOf(msg.sender);\n        \n        _deposit(msg.sender, assetTo[0], _fromToken, _fromTokenAmount, _fromToken == _ETH_ADDRESS_);\n\n        for (uint256 i = 0; i < mixPairs.length; i++) {\n            if (directions & 1 == 0) {\n                IDODOAdapter(mixAdapters[i]).sellBase(assetTo[i + 1],mixPairs[i]);\n            } else {\n                IDODOAdapter(mixAdapters[i]).sellQuote(assetTo[i + 1],mixPairs[i]);\n            }\n            directions = directions >> 1;\n        }\n\n        if(_toToken == _ETH_ADDRESS_) {\n            returnAmount = IWETH(_WETH_).balanceOf(address(this));\n            IWETH(_WETH_).withdraw(returnAmount);\n            msg.sender.transfer(returnAmount);\n        }else {\n            returnAmount = IERC20(_toToken).tokenBalanceOf(msg.sender).sub(toTokenOriginBalance);\n        }\n\n        require(returnAmount >= minReturnAmount, \"DODOV2Proxy02: Return amount is not enough\");\n        \n        _dodoGasReturn(originGas);\n\n        _execIncentive(isIncentive, _fromToken, _toToken);\n\n        emit OrderHistory(\n            _fromToken,\n            _toToken,\n            msg.sender,\n            _fromTokenAmount,\n            returnAmount\n        );\n    }\n\n    //============ CrowdPooling Functions (create & bid) ============\n\n    function createCrowdPooling(\n        address baseToken,\n        address quoteToken,\n        uint256 baseInAmount,\n        uint256[] memory timeLine,\n        uint256[] memory valueList,\n        bool isOpenTWAP,\n        uint256 deadLine\n    ) external override payable preventReentrant judgeExpired(deadLine) returns (address payable newCrowdPooling) {\n        address _baseToken = baseToken;\n        address _quoteToken = quoteToken == _ETH_ADDRESS_ ? _WETH_ : quoteToken;\n        \n        newCrowdPooling = IDODOV2(_CP_FACTORY_).createCrowdPooling();\n\n        _deposit(\n            msg.sender,\n            newCrowdPooling,\n            _baseToken,\n            baseInAmount,\n            false\n        );\n\n        newCrowdPooling.transfer(msg.value);\n\n        IDODOV2(_CP_FACTORY_).initCrowdPooling(\n            newCrowdPooling,\n            msg.sender,\n            _baseToken,\n            _quoteToken,\n            timeLine,\n            valueList,\n            isOpenTWAP\n        );\n    }\n\n    function bid(\n        address cpAddress,\n        uint256 quoteAmount,\n        uint8 flag, // 0 - ERC20, 1 - quoteInETH\n        uint256 deadLine\n    ) external override payable preventReentrant judgeExpired(deadLine) {\n        _deposit(msg.sender, cpAddress, IDODOV2(cpAddress)._QUOTE_TOKEN_(), quoteAmount, flag == 1);\n        IDODOV2(cpAddress).bid(msg.sender);\n    }\n\n\n    function addLiquidityToV1(\n        address pair,\n        uint256 baseAmount,\n        uint256 quoteAmount,\n        uint256 baseMinShares,\n        uint256 quoteMinShares,\n        uint8 flag, // 0 erc20 In  1 baseInETH  2 quoteIn ETH \n        uint256 deadLine\n    ) external override payable preventReentrant judgeExpired(deadLine) returns(uint256 baseShares, uint256 quoteShares) {\n        address _baseToken = IDODOV1(pair)._BASE_TOKEN_();\n        address _quoteToken = IDODOV1(pair)._QUOTE_TOKEN_();\n        \n        _deposit(msg.sender, address(this), _baseToken, baseAmount, flag == 1);\n        _deposit(msg.sender, address(this), _quoteToken, quoteAmount, flag == 2);\n\n        \n        if(baseAmount > 0) {\n            IERC20(_baseToken).universalApproveMax(pair, baseAmount);\n            baseShares = IDODOV1(pair).depositBaseTo(msg.sender, baseAmount);\n        }\n        if(quoteAmount > 0) {\n            IERC20(_quoteToken).universalApproveMax(pair, quoteAmount);\n            quoteShares = IDODOV1(pair).depositQuoteTo(msg.sender, quoteAmount);\n        }\n\n        require(baseShares >= baseMinShares && quoteShares >= quoteMinShares,\"DODOV2Proxy02: Return DLP is not enough\");\n    }\n    \n\n    function _deposit(\n        address from,\n        address to,\n        address token,\n        uint256 amount,\n        bool isETH\n    ) internal {\n        if (isETH) {\n            if (amount > 0) {\n                IWETH(_WETH_).deposit{value: amount}();\n                if (to != address(this)) SafeERC20.safeTransfer(IERC20(_WETH_), to, amount);\n            }\n        } else {\n            IDODOApproveProxy(_DODO_APPROVE_PROXY_).claimTokens(token, from, to, amount);\n        }\n    }\n\n    function _withdraw(\n        address payable to,\n        address token,\n        uint256 amount,\n        bool isETH\n    ) internal {\n        if (isETH) {\n            if (amount > 0) {\n                IWETH(_WETH_).withdraw(amount);\n                to.transfer(amount);\n            }\n        } else {\n            if (amount > 0) {\n                SafeERC20.safeTransfer(IERC20(token), to, amount);\n            }\n        }\n    }\n\n    function _dodoGasReturn(uint256 originGas) internal {\n        uint256 _gasDodoMaxReturn = _GAS_DODO_MAX_RETURN_;\n        if(_gasDodoMaxReturn > 0) {\n            uint256 calcGasTokenBurn = originGas.sub(gasleft()) / 65000;\n            uint256 gasTokenBurn = calcGasTokenBurn > _gasDodoMaxReturn ? _gasDodoMaxReturn : calcGasTokenBurn;\n            if(gasTokenBurn >= 3 && gasleft() > 27710 + gasTokenBurn * 6080)\n                IChi(_CHI_TOKEN_).freeUpTo(gasTokenBurn);\n        }\n    }\n\n    function _externalGasReturn() internal {\n        uint256 _gasExternalReturn = _GAS_EXTERNAL_RETURN_;\n        if(_gasExternalReturn > 0) {\n            if(gasleft() > 27710 + _gasExternalReturn * 6080)\n                IChi(_CHI_TOKEN_).freeUpTo(_gasExternalReturn);\n        }\n    }\n\n    function _execIncentive(bool isIncentive, address fromToken,address toToken) internal {\n        if(isIncentive && gasleft() > 30000) {\n            IDODOIncentive(_DODO_INCENTIVE_).triggerIncentive(fromToken, toToken, msg.sender);\n        }\n    }\n\n}\n",
  "sourcePath": "/Users/niutaotao/projects/dodo/contractV2/contracts/SmartRoute/DODOV2Proxy02.sol",
  "compiler": {
    "name": "solc",
    "version": "0.6.9+commit.3e3065ac.Emscripten.clang"
  },
  "schemaVersion": "3.3.2",
  "updatedAt": "2021-01-29T02:32:05.841Z",
  "devdoc": {
    "author": "DODO Breeder",
    "methods": {},
    "title": "DODOV2Proxy02"
  },
  "userdoc": {
    "methods": {},
    "notice": "Entrance of trading in DODO platform"
  }
}