{
  "contractName": "DODOV1Proxy02",
  "abi": [
    {
      "inputs": [
        {
          "internalType": "address",
          "name": "dodoApporve",
          "type": "address"
        },
        {
          "internalType": "address",
          "name": "dodoSellHelper",
          "type": "address"
        },
        {
          "internalType": "address",
          "name": "weth",
          "type": "address"
        },
        {
          "internalType": "address",
          "name": "chiToken",
          "type": "address"
        }
      ],
      "stateMutability": "nonpayable",
      "type": "constructor"
    },
    {
      "anonymous": false,
      "inputs": [
        {
          "indexed": true,
          "internalType": "address",
          "name": "fromToken",
          "type": "address"
        },
        {
          "indexed": true,
          "internalType": "address",
          "name": "toToken",
          "type": "address"
        },
        {
          "indexed": true,
          "internalType": "address",
          "name": "sender",
          "type": "address"
        },
        {
          "indexed": false,
          "internalType": "uint256",
          "name": "fromAmount",
          "type": "uint256"
        },
        {
          "indexed": false,
          "internalType": "uint256",
          "name": "returnAmount",
          "type": "uint256"
        }
      ],
      "name": "OrderHistory",
      "type": "event"
    },
    {
      "anonymous": false,
      "inputs": [
        {
          "indexed": true,
          "internalType": "address",
          "name": "previousOwner",
          "type": "address"
        },
        {
          "indexed": true,
          "internalType": "address",
          "name": "newOwner",
          "type": "address"
        }
      ],
      "name": "OwnershipTransferPrepared",
      "type": "event"
    },
    {
      "anonymous": false,
      "inputs": [
        {
          "indexed": true,
          "internalType": "address",
          "name": "previousOwner",
          "type": "address"
        },
        {
          "indexed": true,
          "internalType": "address",
          "name": "newOwner",
          "type": "address"
        }
      ],
      "name": "OwnershipTransferred",
      "type": "event"
    },
    {
      "stateMutability": "payable",
      "type": "fallback"
    },
    {
      "inputs": [],
      "name": "_CHI_TOKEN_",
      "outputs": [
        {
          "internalType": "address",
          "name": "",
          "type": "address"
        }
      ],
      "stateMutability": "view",
      "type": "function"
    },
    {
      "inputs": [],
      "name": "_DODO_APPROVE_",
      "outputs": [
        {
          "internalType": "address",
          "name": "",
          "type": "address"
        }
      ],
      "stateMutability": "view",
      "type": "function"
    },
    {
      "inputs": [],
      "name": "_DODO_SELL_HELPER_",
      "outputs": [
        {
          "internalType": "address",
          "name": "",
          "type": "address"
        }
      ],
      "stateMutability": "view",
      "type": "function"
    },
    {
      "inputs": [],
      "name": "_GAS_DODO_MAX_RETURN_",
      "outputs": [
        {
          "internalType": "uint256",
          "name": "",
          "type": "uint256"
        }
      ],
      "stateMutability": "view",
      "type": "function"
    },
    {
      "inputs": [],
      "name": "_GAS_EXTERNAL_RETURN_",
      "outputs": [
        {
          "internalType": "uint256",
          "name": "",
          "type": "uint256"
        }
      ],
      "stateMutability": "view",
      "type": "function"
    },
    {
      "inputs": [],
      "name": "_NEW_OWNER_",
      "outputs": [
        {
          "internalType": "address",
          "name": "",
          "type": "address"
        }
      ],
      "stateMutability": "view",
      "type": "function"
    },
    {
      "inputs": [],
      "name": "_OWNER_",
      "outputs": [
        {
          "internalType": "address",
          "name": "",
          "type": "address"
        }
      ],
      "stateMutability": "view",
      "type": "function"
    },
    {
      "inputs": [],
      "name": "_WETH_",
      "outputs": [
        {
          "internalType": "address",
          "name": "",
          "type": "address"
        }
      ],
      "stateMutability": "view",
      "type": "function"
    },
    {
      "inputs": [],
      "name": "claimOwnership",
      "outputs": [],
      "stateMutability": "nonpayable",
      "type": "function"
    },
    {
      "inputs": [
        {
          "internalType": "address",
          "name": "newOwner",
          "type": "address"
        }
      ],
      "name": "initOwner",
      "outputs": [],
      "stateMutability": "nonpayable",
      "type": "function"
    },
    {
      "inputs": [
        {
          "internalType": "address",
          "name": "",
          "type": "address"
        }
      ],
      "name": "isWhiteListed",
      "outputs": [
        {
          "internalType": "bool",
          "name": "",
          "type": "bool"
        }
      ],
      "stateMutability": "view",
      "type": "function"
    },
    {
      "inputs": [
        {
          "internalType": "address",
          "name": "newOwner",
          "type": "address"
        }
      ],
      "name": "transferOwnership",
      "outputs": [],
      "stateMutability": "nonpayable",
      "type": "function"
    },
    {
      "stateMutability": "payable",
      "type": "receive"
    },
    {
      "inputs": [
        {
          "internalType": "uint256",
          "name": "newDodoGasReturn",
          "type": "uint256"
        },
        {
          "internalType": "uint256",
          "name": "newExternalGasReturn",
          "type": "uint256"
        }
      ],
      "name": "updateGasReturn",
      "outputs": [],
      "stateMutability": "nonpayable",
      "type": "function"
    },
    {
      "inputs": [
        {
          "internalType": "address",
          "name": "contractAddr",
          "type": "address"
        }
      ],
      "name": "addWhiteList",
      "outputs": [],
      "stateMutability": "nonpayable",
      "type": "function"
    },
    {
      "inputs": [
        {
          "internalType": "address",
          "name": "contractAddr",
          "type": "address"
        }
      ],
      "name": "removeWhiteList",
      "outputs": [],
      "stateMutability": "nonpayable",
      "type": "function"
    },
    {
      "inputs": [
        {
          "internalType": "address",
          "name": "fromToken",
          "type": "address"
        },
        {
          "internalType": "address",
          "name": "toToken",
          "type": "address"
        },
        {
          "internalType": "uint256",
          "name": "fromTokenAmount",
          "type": "uint256"
        },
        {
          "internalType": "uint256",
          "name": "minReturnAmount",
          "type": "uint256"
        },
        {
          "internalType": "address[]",
          "name": "dodoPairs",
          "type": "address[]"
        },
        {
          "internalType": "uint256",
          "name": "directions",
          "type": "uint256"
        },
        {
          "internalType": "uint256",
          "name": "deadLine",
          "type": "uint256"
        }
      ],
      "name": "dodoSwapV1",
      "outputs": [
        {
          "internalType": "uint256",
          "name": "returnAmount",
          "type": "uint256"
        }
      ],
      "stateMutability": "payable",
      "type": "function"
    },
    {
      "inputs": [
        {
          "internalType": "address",
          "name": "fromToken",
          "type": "address"
        },
        {
          "internalType": "address",
          "name": "toToken",
          "type": "address"
        },
        {
          "internalType": "address",
          "name": "approveTarget",
          "type": "address"
        },
        {
          "internalType": "address",
          "name": "swapTarget",
          "type": "address"
        },
        {
          "internalType": "uint256",
          "name": "fromTokenAmount",
          "type": "uint256"
        },
        {
          "internalType": "uint256",
          "name": "minReturnAmount",
          "type": "uint256"
        },
        {
          "internalType": "bytes",
          "name": "callDataConcat",
          "type": "bytes"
        },
        {
          "internalType": "uint256",
          "name": "deadLine",
          "type": "uint256"
        }
      ],
      "name": "externalSwap",
      "outputs": [
        {
          "internalType": "uint256",
          "name": "returnAmount",
          "type": "uint256"
        }
      ],
      "stateMutability": "payable",
      "type": "function"
    },
    {
      "inputs": [
        {
          "internalType": "address",
          "name": "fromToken",
          "type": "address"
        },
        {
          "internalType": "address",
          "name": "toToken",
          "type": "address"
        },
        {
          "internalType": "uint256",
          "name": "fromTokenAmount",
          "type": "uint256"
        },
        {
          "internalType": "uint256",
          "name": "minReturnAmount",
          "type": "uint256"
        },
        {
          "internalType": "address[]",
          "name": "mixPairs",
          "type": "address[]"
        },
        {
          "internalType": "uint256[]",
          "name": "directions",
          "type": "uint256[]"
        },
        {
          "internalType": "address[]",
          "name": "portionPath",
          "type": "address[]"
        },
        {
          "internalType": "uint256",
          "name": "deadLine",
          "type": "uint256"
        }
      ],
      "name": "mixSwapV1",
      "outputs": [
        {
          "internalType": "uint256",
          "name": "returnAmount",
          "type": "uint256"
        }
      ],
      "stateMutability": "payable",
      "type": "function"
    }
  ],
  "bytecode": "0x6101006040526000600255600060035534801561001b57600080fd5b50604051612cca380380612cca8339818101604052608081101561003e57600080fd5b508051602082015160408301516060938401516001600160601b031993851b841660805291841b831660a052831b821660c05290911b1660e05260805160601c60a05160601c60c05160601c60e05160601c612bc6610104600039806106b952806108945280610c695280610ecb5280611714528061193252806122bb525080610765528061103f52806114f9528061158f5280611abe52508061139f52806117e85280611e4a52508061097b5280610d0e5280610f985280611a175250612bc66000f3fe60806040526004361061010d5760003560e01c806369dba8ee11610095578063af1280b011610064578063af1280b01461043f578063b0ef714f14610454578063d6354c3e14610621578063e7cd4a0414610651578063f2fde38b1461068457610114565b806369dba8ee146103b95780636f9170f6146103ce5780638456db15146104155780639f6873221461042a57610114565b80632042e5c2116100dc5780632042e5c2146101a457806338f4c188146101d757806346e74298146102c45780634e71e0c8146102d9578063637d7696146102ee57610114565b8063056fc2ee146101165780630d009297146101475780630d4eec8f1461017a57806316048bc41461018f57610114565b3661011457005b005b34801561012257600080fd5b5061012b6106b7565b604080516001600160a01b039092168252519081900360200190f35b34801561015357600080fd5b506101146004803603602081101561016a57600080fd5b50356001600160a01b03166106db565b34801561018657600080fd5b5061012b610763565b34801561019b57600080fd5b5061012b610787565b3480156101b057600080fd5b50610114600480360360208110156101c757600080fd5b50356001600160a01b0316610796565b6102b260048036036101008110156101ee57600080fd5b6001600160a01b038235811692602081013582169260408201358316926060830135169160808101359160a0820135919081019060e0810160c0820135600160201b81111561023c57600080fd5b82018360208201111561024e57600080fd5b803590602001918460018302840111600160201b8311171561026f57600080fd5b91908080601f0160208091040260200160405190810160405280939291908181526020018383808284376000920191909152509295505091359250610802915050565b60408051918252519081900360200190f35b3480156102d057600080fd5b5061012b610d0c565b3480156102e557600080fd5b50610114610d30565b6102b2600480360360e081101561030457600080fd5b6001600160a01b03823581169260208101359091169160408201359160608101359181019060a081016080820135600160201b81111561034357600080fd5b82018360208201111561035557600080fd5b803590602001918460208302840111600160201b8311171561037657600080fd5b9190808060200260200160405190810160405280939291908181526020018383602002808284376000920191909152509295505082359350505060200135610de3565b3480156103c557600080fd5b506102b26117b6565b3480156103da57600080fd5b50610401600480360360208110156103f157600080fd5b50356001600160a01b03166117bc565b604080519115158252519081900360200190f35b34801561042157600080fd5b5061012b6117d1565b34801561043657600080fd5b506102b26117e0565b34801561044b57600080fd5b5061012b6117e6565b6102b2600480360361010081101561046b57600080fd5b6001600160a01b03823581169260208101359091169160408201359160608101359181019060a081016080820135600160201b8111156104aa57600080fd5b8201836020820111156104bc57600080fd5b803590602001918460208302840111600160201b831117156104dd57600080fd5b9190808060200260200160405190810160405280939291908181526020018383602002808284376000920191909152509295949360208101935035915050600160201b81111561052c57600080fd5b82018360208201111561053e57600080fd5b803590602001918460208302840111600160201b8311171561055f57600080fd5b9190808060200260200160405190810160405280939291908181526020018383602002808284376000920191909152509295949360208101935035915050600160201b8111156105ae57600080fd5b8201836020820111156105c057600080fd5b803590602001918460208302840111600160201b831117156105e157600080fd5b919080806020026020016040519081016040528093929190818152602001838360200280828437600092019190915250929550509135925061180a915050565b34801561062d57600080fd5b506101146004803603604081101561064457600080fd5b508035906020013561235b565b34801561065d57600080fd5b506101146004803603602081101561067457600080fd5b50356001600160a01b03166123b1565b34801561069057600080fd5b50610114600480360360208110156106a757600080fd5b50356001600160a01b0316612420565b7f000000000000000000000000000000000000000000000000000000000000000081565b600154600160a01b900460ff161561072d576040805162461bcd60e51b815260206004820152601060248201526f1113d113d7d25392551250531256915160821b604482015290519081900360640190fd5b6001805460ff60a01b1916600160a01b179055600080546001600160a01b039092166001600160a01b0319909216919091179055565b7f000000000000000000000000000000000000000000000000000000000000000081565b6000546001600160a01b031681565b6000546001600160a01b031633146107e1576040805162461bcd60e51b81526020600482015260096024820152682727aa2fa7aba722a960b91b604482015290519081900360640190fd5b6001600160a01b03166000908152600460205260409020805460ff19169055565b60008142811015610853576040805162461bcd60e51b81526020600482015260166024820152751113d113d58c541c9bde1e4c0c8e881156141254915160521b604482015290519081900360640190fd5b600085116108925760405162461bcd60e51b8152600401808060200182810382526021815260200180612aed6021913960400191505060405180910390fd5b7f00000000000000000000000000000000000000000000000000000000000000006001600160a01b03168a6001600160a01b031614156109035760405162461bcd60e51b8152600401808060200182810382526023815260200180612aa06023913960400191505060405180910390fd5b898960006109206001600160a01b0383163363ffffffff6124c616565b90506001600160a01b03831673eeeeeeeeeeeeeeeeeeeeeeeeeeeeeeeeeeeeeeee146109f2576040805163052f523360e11b81526001600160a01b038581166004830152336024830152306044830152606482018c905291517f000000000000000000000000000000000000000000000000000000000000000090921691630a5ea4669160848082019260009290919082900301818387803b1580156109c557600080fd5b505af11580156109d9573d6000803e3d6000fd5b506109f2925050506001600160a01b0384168c8b612572565b6001600160a01b038a1660009081526004602052604090205460ff16610a495760405162461bcd60e51b8152600401808060200182810382526025815260200180612a286025913960400191505060405180910390fd5b60006001600160a01b03808c1690851673eeeeeeeeeeeeeeeeeeeeeeeeeeeeeeeeeeeeeeee14610a7a576000610a7c565b345b896040518082805190602001908083835b60208310610aac5780518252601f199092019160209182019101610a8d565b6001836020036101000a03801982511681845116808217855250505050505090500191505060006040518083038185875af1925050503d8060008114610b0e576040519150601f19603f3d011682016040523d82523d6000602084013e610b13565b606091505b5050905080610b535760405162461bcd60e51b815260040180806020018281038252602d815260200180612a73602d913960400191505060405180910390fd5b610b8733610b706001600160a01b0386163063ffffffff6124c616565b6001600160a01b038616919063ffffffff61263c16565b610bb082610ba46001600160a01b0386163363ffffffff6124c616565b9063ffffffff6126ab16565b955088861015610bf15760405162461bcd60e51b815260040180806020018281038252602a815260200180612ac3602a913960400191505060405180910390fd5b336001600160a01b0316836001600160a01b0316856001600160a01b03167f92ceb067a9883c85aba061e46b9edf505a0d6e81927c4b966ebed543a52217878d8a604051808381526020018281526020019250505060405180910390a46003548015610cfa57806117c002616c3e015a1115610cfa577f00000000000000000000000000000000000000000000000000000000000000006001600160a01b0316636366b936826040518263ffffffff1660e01b815260040180828152602001915050602060405180830381600087803b158015610ccd57600080fd5b505af1158015610ce1573d6000803e3d6000fd5b505050506040513d6020811015610cf757600080fd5b50505b50505050505098975050505050505050565b7f000000000000000000000000000000000000000000000000000000000000000081565b6001546001600160a01b03163314610d7f576040805162461bcd60e51b815260206004820152600d60248201526c494e56414c49445f434c41494d60981b604482015290519081900360640190fd5b600154600080546040516001600160a01b0393841693909116917f8be0079c531659141344cd1fd0a4f28419497f9722a3daafe3b4186f6b6457e091a360018054600080546001600160a01b03199081166001600160a01b03841617909155169055565b60008142811015610e34576040805162461bcd60e51b81526020600482015260166024820152751113d113d58c541c9bde1e4c0c8e881156141254915160521b604482015290519081900360640190fd5b6000855111610e8a576040805162461bcd60e51b815260206004820152601a60248201527f444f444f563150726f787930323a2050414952535f454d505459000000000000604482015290519081900360640190fd5b60008611610ec95760405162461bcd60e51b8152600401808060200182810382526021815260200180612aed6021913960400191505060405180910390fd5b7f00000000000000000000000000000000000000000000000000000000000000006001600160a01b0316896001600160a01b03161415610f3a5760405162461bcd60e51b8152600401808060200182810382526023815260200180612aa06023913960400191505060405180910390fd5b60005a90506001600160a01b038a1673eeeeeeeeeeeeeeeeeeeeeeeeeeeeeeeeeeeeeeee14610fff576040805163052f523360e11b81526001600160a01b038c81166004830152336024830152306044830152606482018b905291517f000000000000000000000000000000000000000000000000000000000000000090921691630a5ea4669160848082019260009290919082900301818387803b158015610fe257600080fd5b505af1158015610ff6573d6000803e3d6000fd5b505050506110b2565b87341461103d5760405162461bcd60e51b8152600401808060200182810382526023815260200180612b6e6023913960400191505060405180910390fd5b7f00000000000000000000000000000000000000000000000000000000000000006001600160a01b031663d0e30db0896040518263ffffffff1660e01b81526004016000604051808303818588803b15801561109857600080fd5b505af11580156110ac573d6000803e3d6000fd5b50505050505b60005b86518110156114b35760008782815181106110cc57fe5b602002602001015190508660011660001415611276576000816001600160a01b0316634a248d2a6040518163ffffffff1660e01b8152600401602060405180830381600087803b15801561111f57600080fd5b505af1158015611133573d6000803e3d6000fd5b505050506040513d602081101561114957600080fd5b5051604080516370a0823160e01b815230600482015290519192506000916001600160a01b038416916370a08231916024808301926020929190829003018186803b15801561119757600080fd5b505afa1580156111ab573d6000803e3d6000fd5b505050506040513d60208110156111c157600080fd5b505190506111df6001600160a01b038316848363ffffffff61257216565b826001600160a01b0316638dae73338260006040518363ffffffff1660e01b815260040180838152602001828152602001806020018281038252600081526020016020019350505050602060405180830381600087803b15801561124257600080fd5b505af1158015611256573d6000803e3d6000fd5b505050506040513d602081101561126c57600080fd5b506114a692505050565b6000816001600160a01b031663d4b970466040518163ffffffff1660e01b8152600401602060405180830381600087803b1580156112b357600080fd5b505af11580156112c7573d6000803e3d6000fd5b505050506040513d60208110156112dd57600080fd5b5051604080516370a0823160e01b815230600482015290519192506000916001600160a01b038416916370a08231916024808301926020929190829003018186803b15801561132b57600080fd5b505afa15801561133f573d6000803e3d6000fd5b505050506040513d602081101561135557600080fd5b505190506113736001600160a01b038316848363ffffffff61257216565b6040805163ca19ebd960e01b81526001600160a01b0385811660048301526024820184905291516000927f0000000000000000000000000000000000000000000000000000000000000000169163ca19ebd9916044808301926020929190829003018186803b1580156113e557600080fd5b505afa1580156113f9573d6000803e3d6000fd5b505050506040513d602081101561140f57600080fd5b50516040805163733e738360e11b815260048101839052602481018590526060604482015260006064820181905291519293506001600160a01b0387169263e67ce7069260a480840193602093929083900390910190829087803b15801561147657600080fd5b505af115801561148a573d6000803e3d6000fd5b505050506040513d60208110156114a057600080fd5b50505050505b50600195861c95016110b5565b506001600160a01b03891673eeeeeeeeeeeeeeeeeeeeeeeeeeeeeeeeeeeeeeee14156115f457604080516370a0823160e01b815230600482015290516001600160a01b037f000000000000000000000000000000000000000000000000000000000000000016916370a08231916024808301926020929190829003018186803b15801561153f57600080fd5b505afa158015611553573d6000803e3d6000fd5b505050506040513d602081101561156957600080fd5b505160408051632e1a7d4d60e01b81526004810183905290519194506001600160a01b037f00000000000000000000000000000000000000000000000000000000000000001691632e1a7d4d9160248082019260009290919082900301818387803b1580156115d757600080fd5b505af11580156115eb573d6000803e3d6000fd5b50505050611610565b61160d6001600160a01b038a163063ffffffff6126f416565b92505b8683101561164f5760405162461bcd60e51b815260040180806020018281038252602a815260200180612ac3602a913960400191505060405180910390fd5b6116696001600160a01b038a16338563ffffffff61263c16565b336001600160a01b0316896001600160a01b03168b6001600160a01b03167f92ceb067a9883c85aba061e46b9edf505a0d6e81927c4b966ebed543a52217878b87604051808381526020018281526020019250505060405180910390a460025480156117a857600061fde86116e55a859063ffffffff6126ab16565b816116ec57fe5b04905060008282116116fe5781611700565b825b9050806117c002616c3e015a11156117a5577f00000000000000000000000000000000000000000000000000000000000000006001600160a01b0316636366b936826040518263ffffffff1660e01b815260040180828152602001915050602060405180830381600087803b15801561177857600080fd5b505af115801561178c573d6000803e3d6000fd5b505050506040513d60208110156117a257600080fd5b50505b50505b505050979650505050505050565b60035481565b60046020526000908152604090205460ff1681565b6001546001600160a01b031681565b60025481565b7f000000000000000000000000000000000000000000000000000000000000000081565b6000814281101561185b576040805162461bcd60e51b81526020600482015260166024820152751113d113d58c541c9bde1e4c0c8e881156141254915160521b604482015290519081900360640190fd5b845186511461189b5760405162461bcd60e51b8152600401808060200182810382526026815260200180612a4d6026913960400191505060405180910390fd5b60008651116118f1576040805162461bcd60e51b815260206004820152601a60248201527f444f444f563150726f787930323a2050414952535f454d505459000000000000604482015290519081900360640190fd5b600087116119305760405162461bcd60e51b8152600401808060200182810382526021815260200180612aed6021913960400191505060405180910390fd5b7f00000000000000000000000000000000000000000000000000000000000000006001600160a01b03168a6001600160a01b031614156119a15760405162461bcd60e51b8152600401808060200182810382526023815260200180612aa06023913960400191505060405180910390fd5b60006119bc6001600160a01b038b163363ffffffff6124c616565b90506001600160a01b038b1673eeeeeeeeeeeeeeeeeeeeeeeeeeeeeeeeeeeeeeee14611a7e576040805163052f523360e11b81526001600160a01b038d81166004830152336024830152306044830152606482018c905291517f000000000000000000000000000000000000000000000000000000000000000090921691630a5ea4669160848082019260009290919082900301818387803b158015611a6157600080fd5b505af1158015611a75573d6000803e3d6000fd5b50505050611b31565b883414611abc5760405162461bcd60e51b8152600401808060200182810382526023815260200180612b6e6023913960400191505060405180910390fd5b7f00000000000000000000000000000000000000000000000000000000000000006001600160a01b031663d0e30db08a6040518263ffffffff1660e01b81526004016000604051808303818588803b158015611b1757600080fd5b505af1158015611b2b573d6000803e3d6000fd5b50505050505b60005b87518110156121b0576000888281518110611b4b57fe5b60200260200101519050878281518110611b6157fe5b602002602001015160001415611d05576000816001600160a01b0316634a248d2a6040518163ffffffff1660e01b8152600401602060405180830381600087803b158015611bae57600080fd5b505af1158015611bc2573d6000803e3d6000fd5b505050506040513d6020811015611bd857600080fd5b5051604080516370a0823160e01b815230600482015290519192506000916001600160a01b038416916370a08231916024808301926020929190829003018186803b158015611c2657600080fd5b505afa158015611c3a573d6000803e3d6000fd5b505050506040513d6020811015611c5057600080fd5b50519050611c6e6001600160a01b038316848363ffffffff61257216565b826001600160a01b0316638dae73338260006040518363ffffffff1660e01b815260040180838152602001828152602001806020018281038252600081526020016020019350505050602060405180830381600087803b158015611cd157600080fd5b505af1158015611ce5573d6000803e3d6000fd5b505050506040513d6020811015611cfb57600080fd5b506121a792505050565b878281518110611d1157fe5b602002602001015160011415611f56576000816001600160a01b031663d4b970466040518163ffffffff1660e01b8152600401602060405180830381600087803b158015611d5e57600080fd5b505af1158015611d72573d6000803e3d6000fd5b505050506040513d6020811015611d8857600080fd5b5051604080516370a0823160e01b815230600482015290519192506000916001600160a01b038416916370a08231916024808301926020929190829003018186803b158015611dd657600080fd5b505afa158015611dea573d6000803e3d6000fd5b505050506040513d6020811015611e0057600080fd5b50519050611e1e6001600160a01b038316848363ffffffff61257216565b6040805163ca19ebd960e01b81526001600160a01b0385811660048301526024820184905291516000927f0000000000000000000000000000000000000000000000000000000000000000169163ca19ebd9916044808301926020929190829003018186803b158015611e9057600080fd5b505afa158015611ea4573d6000803e3d6000fd5b505050506040513d6020811015611eba57600080fd5b50516040805163733e738360e11b815260048101839052602481018590526060604482015260006064820181905291519293506001600160a01b0387169263e67ce7069260a480840193602093929083900390910190829087803b158015611f2157600080fd5b505af1158015611f35573d6000803e3d6000fd5b505050506040513d6020811015611f4b57600080fd5b506121a79350505050565b600087600081518110611f6557fe5b60200260200101516001600160a01b03166370a08231306040518263ffffffff1660e01b815260040180826001600160a01b03166001600160a01b0316815260200191505060206040518083038186803b158015611fc257600080fd5b505afa158015611fd6573d6000803e3d6000fd5b505050506040513d6020811015611fec57600080fd5b5051885190915061202690839083908b9060009061200657fe5b60200260200101516001600160a01b03166125729092919063ffffffff16565b816001600160a01b03166338ed17398260008b308c6040518663ffffffff1660e01b81526004018086815260200185815260200180602001846001600160a01b03166001600160a01b03168152602001838152602001828103825285818151815260200191508051906020019060200280838360005b838110156120b457818101518382015260200161209c565b505050509050019650505050505050600060405180830381600087803b1580156120dd57600080fd5b505af11580156120f1573d6000803e3d6000fd5b505050506040513d6000823e601f3d908101601f19168201604052602081101561211a57600080fd5b8101908080516040519392919084600160201b82111561213957600080fd5b90830190602082018581111561214e57600080fd5b82518660208202830111600160201b8211171561216a57600080fd5b82525081516020918201928201910280838360005b8381101561219757818101518382015260200161217f565b5050505090500160405250505050505b50600101611b34565b506121e5336121ce6001600160a01b038d163063ffffffff6124c616565b6001600160a01b038d16919063ffffffff61263c16565b61220281610ba46001600160a01b038d163363ffffffff6124c616565b9250878310156122435760405162461bcd60e51b815260040180806020018281038252602a815260200180612ac3602a913960400191505060405180910390fd5b336001600160a01b03168a6001600160a01b03168c6001600160a01b03167f92ceb067a9883c85aba061e46b9edf505a0d6e81927c4b966ebed543a52217878c87604051808381526020018281526020019250505060405180910390a4600354801561234c57806117c002616c3e015a111561234c577f00000000000000000000000000000000000000000000000000000000000000006001600160a01b0316636366b936826040518263ffffffff1660e01b815260040180828152602001915050602060405180830381600087803b15801561231f57600080fd5b505af1158015612333573d6000803e3d6000fd5b505050506040513d602081101561234957600080fd5b50505b50505098975050505050505050565b6000546001600160a01b031633146123a6576040805162461bcd60e51b81526020600482015260096024820152682727aa2fa7aba722a960b91b604482015290519081900360640190fd5b600291909155600355565b6000546001600160a01b031633146123fc576040805162461bcd60e51b81526020600482015260096024820152682727aa2fa7aba722a960b91b604482015290519081900360640190fd5b6001600160a01b03166000908152600460205260409020805460ff19166001179055565b6000546001600160a01b0316331461246b576040805162461bcd60e51b81526020600482015260096024820152682727aa2fa7aba722a960b91b604482015290519081900360640190fd5b600080546040516001600160a01b03808516939216917fdcf55418cee3220104fef63f979ff3c4097ad240c0c43dcb33ce837748983e6291a3600180546001600160a01b0319166001600160a01b0392909216919091179055565b60006124d18361274c565b156124e757506001600160a01b0381163161256c565b826001600160a01b03166370a08231836040518263ffffffff1660e01b815260040180826001600160a01b03166001600160a01b0316815260200191505060206040518083038186803b15801561253d57600080fd5b505afa158015612551573d6000803e3d6000fd5b505050506040513d602081101561256757600080fd5b505190505b92915050565b60408051636eb1769f60e11b81523060048201526001600160a01b038481166024830152915160009286169163dd62ed3e916044808301926020929190829003018186803b1580156125c357600080fd5b505afa1580156125d7573d6000803e3d6000fd5b505050506040513d60208110156125ed57600080fd5b505190508181101561263657801561261a5761261a6001600160a01b03851684600063ffffffff61277116565b6126366001600160a01b0385168460001963ffffffff61277116565b50505050565b80156126a65761264b8361274c565b1561268c576040516001600160a01b0383169082156108fc029083906000818181858888f19350505050158015612686573d6000803e3d6000fd5b506126a6565b6126a66001600160a01b038416838363ffffffff61288416565b505050565b6000828211156126ee576040805162461bcd60e51b815260206004820152600960248201526829aaa12fa2a92927a960b91b604482015290519081900360640190fd5b50900390565b6000826001600160a01b03166370a08231836040518263ffffffff1660e01b815260040180826001600160a01b03166001600160a01b0316815260200191505060206040518083038186803b15801561253d57600080fd5b6001600160a01b03811673eeeeeeeeeeeeeeeeeeeeeeeeeeeeeeeeeeeeeeee14919050565b8015806127f7575060408051636eb1769f60e11b81523060048201526001600160a01b03848116602483015291519185169163dd62ed3e91604480820192602092909190829003018186803b1580156127c957600080fd5b505afa1580156127dd573d6000803e3d6000fd5b505050506040513d60208110156127f357600080fd5b5051155b6128325760405162461bcd60e51b8152600401808060200182810382526036815260200180612b386036913960400191505060405180910390fd5b604080516001600160a01b038416602482015260448082018490528251808303909101815260649091019091526020810180516001600160e01b031663095ea7b360e01b1790526126a69084906128d2565b604080516001600160a01b038416602482015260448082018490528251808303909101815260649091019091526020810180516001600160e01b031663a9059cbb60e01b1790526126a69084905b60006060836001600160a01b0316836040518082805190602001908083835b602083106129105780518252601f1990920191602091820191016128f1565b6001836020036101000a0380198251168184511680821785525050505050509050019150506000604051808303816000865af19150503d8060008114612972576040519150601f19603f3d011682016040523d82523d6000602084013e612977565b606091505b5091509150816129ce576040805162461bcd60e51b815260206004820181905260248201527f5361666545524332303a206c6f772d6c6576656c2063616c6c206661696c6564604482015290519081900360640190fd5b805115612636578080602001905160208110156129ea57600080fd5b50516126365760405162461bcd60e51b815260040180806020018281038252602a815260200180612b0e602a913960400191505060405180910390fdfe444f444f563150726f787930323a204e6f742057686974656c69737420436f6e7472616374444f444f563150726f787930323a20504152414d535f4c454e4754485f4e4f545f4d41544348444f444f563150726f787930323a2045787465726e616c205377617020657865637574696f6e204661696c6564444f444f563150726f787930323a204e4f545f535550504f52545f53454c4c5f434849444f444f563150726f787930323a2052657475726e20616d6f756e74206973206e6f7420656e6f756768444f444f563150726f787930323a2052455455524e5f414d4f554e545f5a45524f5361666545524332303a204552433230206f7065726174696f6e20646964206e6f7420737563636565645361666545524332303a20617070726f76652066726f6d206e6f6e2d7a65726f20746f206e6f6e2d7a65726f20616c6c6f77616e6365444f444f563150726f787930323a204554485f414d4f554e545f4e4f545f4d41544348a264697066735822122031c27c714a7d1cb0ccf132485b9e754985a5a71d57f15c831ea67e84ef82b69864736f6c63430006090033",
  "immutableReferences": {
    "11012": [
      {
        "length": 32,
        "start": 2427
      },
      {
        "length": 32,
        "start": 3342
      },
      {
        "length": 32,
        "start": 3992
      },
      {
        "length": 32,
        "start": 6679
      }
    ],
    "11014": [
      {
        "length": 32,
        "start": 5023
      },
      {
        "length": 32,
        "start": 6120
      },
      {
        "length": 32,
        "start": 7754
      }
    ],
    "11016": [
      {
        "length": 32,
        "start": 1893
      },
      {
        "length": 32,
        "start": 4159
      },
      {
        "length": 32,
        "start": 5369
      },
      {
        "length": 32,
        "start": 5519
      },
      {
        "length": 32,
        "start": 6846
      }
    ],
    "11018": [
      {
        "length": 32,
        "start": 1721
      },
      {
        "length": 32,
        "start": 2196
      },
      {
        "length": 32,
        "start": 3177
      },
      {
        "length": 32,
        "start": 3787
      },
      {
        "length": 32,
        "start": 5908
      },
      {
        "length": 32,
        "start": 6450
      },
      {
        "length": 32,
        "start": 8891
      }
    ]
  },
  "source": "/*\n\n    Copyright 2020 DODO ZOO.\n    SPDX-License-Identifier: Apache-2.0\n\n*/\n\npragma solidity 0.6.9;\n\nimport {IERC20} from \"../intf/IERC20.sol\";\nimport {UniversalERC20} from \"./lib/UniversalERC20.sol\";\nimport {SafeMath} from \"../lib/SafeMath.sol\";\nimport {IDODOV1} from \"./intf/IDODOV1.sol\";\nimport {IDODOSellHelper} from \"./helper/DODOSellHelper.sol\";\nimport {IWETH} from \"../intf/IWETH.sol\";\nimport {IChi} from \"./intf/IChi.sol\";\nimport {IUni} from \"./intf/IUni.sol\";\nimport {IDODOApprove} from \"../intf/IDODOApprove.sol\";\nimport {IDODOV1Proxy02} from \"./intf/IDODOV1Proxy02.sol\";\nimport {InitializableOwnable} from \"../lib/InitializableOwnable.sol\";\n\n/**\n * @title DODOV1Proxy02\n * @author DODO Breeder\n *\n * @notice Entrance of trading in DODO platform\n */\ncontract DODOV1Proxy02 is IDODOV1Proxy02, InitializableOwnable {\n    using SafeMath for uint256;\n    using UniversalERC20 for IERC20;\n\n    // ============ Storage ============\n\n    address constant _ETH_ADDRESS_ = 0xEeeeeEeeeEeEeeEeEeEeeEEEeeeeEeeeeeeeEEeE;\n    address public immutable _DODO_APPROVE_;\n    address public immutable _DODO_SELL_HELPER_;\n    address public immutable _WETH_;\n    address public immutable _CHI_TOKEN_;\n    uint256 public _GAS_DODO_MAX_RETURN_ = 0;\n    uint256 public _GAS_EXTERNAL_RETURN_ = 0;\n    mapping (address => bool) public isWhiteListed;\n\n    // ============ Events ============\n\n    event OrderHistory(\n        address indexed fromToken,\n        address indexed toToken,\n        address indexed sender,\n        uint256 fromAmount,\n        uint256 returnAmount\n    );\n\n    // ============ Modifiers ============\n\n    modifier judgeExpired(uint256 deadLine) {\n        require(deadLine >= block.timestamp, \"DODOV1Proxy02: EXPIRED\");\n        _;\n    }\n\n    constructor(\n        address dodoApporve,\n        address dodoSellHelper,\n        address weth,\n        address chiToken\n    ) public {\n        _DODO_APPROVE_ = dodoApporve;\n        _DODO_SELL_HELPER_ = dodoSellHelper;\n        _WETH_ = weth;\n        _CHI_TOKEN_ = chiToken;\n    }\n\n    fallback() external payable {}\n\n    receive() external payable {}\n\n    function updateGasReturn(uint256 newDodoGasReturn, uint256 newExternalGasReturn) public onlyOwner {\n        _GAS_DODO_MAX_RETURN_ = newDodoGasReturn;\n        _GAS_EXTERNAL_RETURN_ = newExternalGasReturn;\n    }\n\n    function addWhiteList (address contractAddr) public onlyOwner {\n        isWhiteListed[contractAddr] = true;\n    }\n\n    function removeWhiteList (address contractAddr) public onlyOwner {\n        isWhiteListed[contractAddr] = false;\n    }\n\n    function dodoSwapV1(\n        address fromToken,\n        address toToken,\n        uint256 fromTokenAmount,\n        uint256 minReturnAmount,\n        address[] memory dodoPairs,\n        uint256 directions,\n        uint256 deadLine\n    ) external override payable judgeExpired(deadLine) returns (uint256 returnAmount) {\n        require(dodoPairs.length > 0, \"DODOV1Proxy02: PAIRS_EMPTY\");\n        require(minReturnAmount > 0, \"DODOV1Proxy02: RETURN_AMOUNT_ZERO\");\n        require(fromToken != _CHI_TOKEN_, \"DODOV1Proxy02: NOT_SUPPORT_SELL_CHI\");\n        uint256 originGas = gasleft();\n\n        if (fromToken != _ETH_ADDRESS_) {\n            IDODOApprove(_DODO_APPROVE_).claimTokens(\n                fromToken,\n                msg.sender,\n                address(this),\n                fromTokenAmount\n            );\n        } else {\n            require(msg.value == fromTokenAmount, \"DODOV1Proxy02: ETH_AMOUNT_NOT_MATCH\");\n            IWETH(_WETH_).deposit{value: fromTokenAmount}();\n        }\n\n        for (uint256 i = 0; i < dodoPairs.length; i++) {\n            address curDodoPair = dodoPairs[i];\n            if (directions & 1 == 0) {\n                address curDodoBase = IDODOV1(curDodoPair)._BASE_TOKEN_();\n                uint256 curAmountIn = IERC20(curDodoBase).balanceOf(address(this));\n                IERC20(curDodoBase).universalApproveMax(curDodoPair, curAmountIn);\n                IDODOV1(curDodoPair).sellBaseToken(curAmountIn, 0, \"\");\n            } else {\n                address curDodoQuote = IDODOV1(curDodoPair)._QUOTE_TOKEN_();\n                uint256 curAmountIn = IERC20(curDodoQuote).balanceOf(address(this));\n                IERC20(curDodoQuote).universalApproveMax(curDodoPair, curAmountIn);\n                uint256 canBuyBaseAmount = IDODOSellHelper(_DODO_SELL_HELPER_).querySellQuoteToken(\n                    curDodoPair,\n                    curAmountIn\n                );\n                IDODOV1(curDodoPair).buyBaseToken(canBuyBaseAmount, curAmountIn, \"\");\n            }\n            directions = directions >> 1;\n        }\n\n        if (toToken == _ETH_ADDRESS_) {\n            returnAmount = IWETH(_WETH_).balanceOf(address(this));\n            IWETH(_WETH_).withdraw(returnAmount);\n        } else {\n            returnAmount = IERC20(toToken).tokenBalanceOf(address(this));\n        }\n        \n        require(returnAmount >= minReturnAmount, \"DODOV1Proxy02: Return amount is not enough\");\n        IERC20(toToken).universalTransfer(msg.sender, returnAmount);\n        \n        emit OrderHistory(fromToken, toToken, msg.sender, fromTokenAmount, returnAmount);\n        \n        uint256 _gasDodoMaxReturn = _GAS_DODO_MAX_RETURN_;\n        if(_gasDodoMaxReturn > 0) {\n            uint256 calcGasTokenBurn = originGas.sub(gasleft()) / 65000;\n            uint256 gasTokenBurn = calcGasTokenBurn > _gasDodoMaxReturn ? _gasDodoMaxReturn : calcGasTokenBurn;\n            if(gasleft() > 27710 + gasTokenBurn * 6080)\n                IChi(_CHI_TOKEN_).freeUpTo(gasTokenBurn);\n        }\n    }\n\n    function externalSwap(\n        address fromToken,\n        address toToken,\n        address approveTarget,\n        address swapTarget,\n        uint256 fromTokenAmount,\n        uint256 minReturnAmount,\n        bytes memory callDataConcat,\n        uint256 deadLine\n    ) external override payable judgeExpired(deadLine) returns (uint256 returnAmount) {\n        require(minReturnAmount > 0, \"DODOV1Proxy02: RETURN_AMOUNT_ZERO\");\n        require(fromToken != _CHI_TOKEN_, \"DODOV1Proxy02: NOT_SUPPORT_SELL_CHI\");\n        \n        address _fromToken = fromToken;\n        address _toToken = toToken;\n        \n        uint256 toTokenOriginBalance = IERC20(_toToken).universalBalanceOf(msg.sender);\n\n        if (_fromToken != _ETH_ADDRESS_) {\n            IDODOApprove(_DODO_APPROVE_).claimTokens(\n                _fromToken,\n                msg.sender,\n                address(this),\n                fromTokenAmount\n            );\n            IERC20(_fromToken).universalApproveMax(approveTarget, fromTokenAmount);\n        }\n\n        require(isWhiteListed[swapTarget], \"DODOV1Proxy02: Not Whitelist Contract\");\n        (bool success, ) = swapTarget.call{value: _fromToken == _ETH_ADDRESS_ ? msg.value : 0}(callDataConcat);\n\n        require(success, \"DODOV1Proxy02: External Swap execution Failed\");\n\n        IERC20(_toToken).universalTransfer(\n            msg.sender,\n            IERC20(_toToken).universalBalanceOf(address(this))\n        );\n        returnAmount = IERC20(_toToken).universalBalanceOf(msg.sender).sub(toTokenOriginBalance);\n        require(returnAmount >= minReturnAmount, \"DODOV1Proxy02: Return amount is not enough\");\n\n        emit OrderHistory(_fromToken, _toToken, msg.sender, fromTokenAmount, returnAmount);\n        \n        uint256 _gasExternalReturn = _GAS_EXTERNAL_RETURN_;\n        if(_gasExternalReturn > 0) {\n            if(gasleft() > 27710 + _gasExternalReturn * 6080)\n                IChi(_CHI_TOKEN_).freeUpTo(_gasExternalReturn);\n        }\n    }\n\n\n    function mixSwapV1(\n        address fromToken,\n        address toToken,\n        uint256 fromTokenAmount,\n        uint256 minReturnAmount,\n        address[] memory mixPairs,\n        uint256[] memory directions,\n        address[] memory portionPath,\n        uint256 deadLine\n    ) external override payable judgeExpired(deadLine) returns (uint256 returnAmount) {\n        require(mixPairs.length == directions.length, \"DODOV1Proxy02: PARAMS_LENGTH_NOT_MATCH\");\n        require(mixPairs.length > 0, \"DODOV1Proxy02: PAIRS_EMPTY\");\n        require(minReturnAmount > 0, \"DODOV1Proxy02: RETURN_AMOUNT_ZERO\");\n        require(fromToken != _CHI_TOKEN_, \"DODOV1Proxy02: NOT_SUPPORT_SELL_CHI\");\n        \n        uint256 toTokenOriginBalance = IERC20(toToken).universalBalanceOf(msg.sender);\n\n        if (fromToken != _ETH_ADDRESS_) {\n            IDODOApprove(_DODO_APPROVE_).claimTokens(\n                fromToken,\n                msg.sender,\n                address(this),\n                fromTokenAmount\n            );\n        } else {\n            require(msg.value == fromTokenAmount, \"DODOV1Proxy02: ETH_AMOUNT_NOT_MATCH\");\n            IWETH(_WETH_).deposit{value: fromTokenAmount}();\n        }\n\n        for (uint256 i = 0; i < mixPairs.length; i++) {\n            address curPair = mixPairs[i];\n            if (directions[i] == 0) {\n                address curDodoBase = IDODOV1(curPair)._BASE_TOKEN_();\n                uint256 curAmountIn = IERC20(curDodoBase).balanceOf(address(this));\n                IERC20(curDodoBase).universalApproveMax(curPair, curAmountIn);\n                IDODOV1(curPair).sellBaseToken(curAmountIn, 0, \"\");\n            } else if(directions[i] == 1){\n                address curDodoQuote = IDODOV1(curPair)._QUOTE_TOKEN_();\n                uint256 curAmountIn = IERC20(curDodoQuote).balanceOf(address(this));\n                IERC20(curDodoQuote).universalApproveMax(curPair, curAmountIn);\n                uint256 canBuyBaseAmount = IDODOSellHelper(_DODO_SELL_HELPER_).querySellQuoteToken(\n                    curPair,\n                    curAmountIn\n                );\n                IDODOV1(curPair).buyBaseToken(canBuyBaseAmount, curAmountIn, \"\");\n            } else {\n                uint256 curAmountIn = IERC20(portionPath[0]).balanceOf(address(this));\n                IERC20(portionPath[0]).universalApproveMax(curPair, curAmountIn);\n                IUni(curPair).swapExactTokensForTokens(curAmountIn,0,portionPath,address(this),deadLine);\n            }\n        }\n\n        IERC20(toToken).universalTransfer(\n            msg.sender,\n            IERC20(toToken).universalBalanceOf(address(this))\n        );\n\n        returnAmount = IERC20(toToken).universalBalanceOf(msg.sender).sub(toTokenOriginBalance);\n        require(returnAmount >= minReturnAmount, \"DODOV1Proxy02: Return amount is not enough\");\n\n        emit OrderHistory(fromToken, toToken, msg.sender, fromTokenAmount, returnAmount);\n        \n        uint256 _gasExternalReturn = _GAS_EXTERNAL_RETURN_;\n        if(_gasExternalReturn > 0) {\n            if(gasleft() > 27710 + _gasExternalReturn * 6080)\n                IChi(_CHI_TOKEN_).freeUpTo(_gasExternalReturn);\n        }\n    }\n}\n",
  "sourcePath": "/Users/niutaotao/projects/dodo/contractV2/contracts/SmartRoute/DODOV1Proxy02.sol",
  "compiler": {
    "name": "solc",
    "version": "0.6.9+commit.3e3065ac.Emscripten.clang"
  },
  "schemaVersion": "3.3.2",
  "updatedAt": "2021-01-15T08:55:54.499Z",
  "devdoc": {
    "author": "DODO Breeder",
    "methods": {},
    "title": "DODOV1Proxy02"
  },
  "userdoc": {
    "methods": {},
    "notice": "Entrance of trading in DODO platform"
  }
}