{
  "contractName": "DODORouteProxy",
  "abi": [
    {
      "inputs": [
        {
          "internalType": "address payable",
          "name": "weth",
          "type": "address"
        },
        {
          "internalType": "address",
          "name": "dodoApproveProxy",
          "type": "address"
        }
      ],
      "stateMutability": "nonpayable",
      "type": "constructor"
    },
    {
      "anonymous": false,
      "inputs": [
        {
          "indexed": false,
          "internalType": "address",
          "name": "fromToken",
          "type": "address"
        },
        {
          "indexed": false,
          "internalType": "address",
          "name": "toToken",
          "type": "address"
        },
        {
          "indexed": false,
          "internalType": "address",
          "name": "sender",
          "type": "address"
        },
        {
          "indexed": false,
          "internalType": "uint256",
          "name": "fromAmount",
          "type": "uint256"
        },
        {
          "indexed": false,
          "internalType": "uint256",
          "name": "returnAmount",
          "type": "uint256"
        }
      ],
      "name": "OrderHistory",
      "type": "event"
    },
    {
      "stateMutability": "payable",
      "type": "fallback"
    },
    {
      "inputs": [],
      "name": "_DODO_APPROVE_PROXY_",
      "outputs": [
        {
          "internalType": "address",
          "name": "",
          "type": "address"
        }
      ],
      "stateMutability": "view",
      "type": "function"
    },
    {
      "inputs": [],
      "name": "_WETH_",
      "outputs": [
        {
          "internalType": "address",
          "name": "",
          "type": "address"
        }
      ],
      "stateMutability": "view",
      "type": "function"
    },
    {
      "stateMutability": "payable",
      "type": "receive"
    },
    {
      "inputs": [
        {
          "internalType": "uint256",
          "name": "fromTokenAmount",
          "type": "uint256"
        },
        {
          "internalType": "uint256",
          "name": "minReturnAmount",
          "type": "uint256"
        },
        {
          "internalType": "uint256[]",
          "name": "totalWeight",
          "type": "uint256[]"
        },
        {
          "internalType": "uint256[]",
          "name": "splitNumber",
          "type": "uint256[]"
        },
        {
          "internalType": "address[]",
          "name": "midToken",
          "type": "address[]"
        },
        {
          "internalType": "address[]",
          "name": "assetFrom",
          "type": "address[]"
        },
        {
          "internalType": "bytes[]",
          "name": "sequence",
          "type": "bytes[]"
        },
        {
          "internalType": "uint256",
          "name": "deadLine",
          "type": "uint256"
        }
      ],
      "name": "dodoMutliSwap",
      "outputs": [
        {
          "internalType": "uint256",
          "name": "returnAmount",
          "type": "uint256"
        }
      ],
      "stateMutability": "payable",
      "type": "function"
    }
  ],
  "bytecode": "0x60c060405234801561001057600080fd5b506040516112ee3803806112ee83398101604081905261002f9161004d565b6001600160601b0319606092831b8116608052911b1660a05261009e565b6000806040838503121561005f578182fd5b825161006a81610086565b602084015190925061007b81610086565b809150509250929050565b6001600160a01b038116811461009b57600080fd5b50565b60805160601c60a05160601c61120f6100df600039806103f5528061059552508060a3528061021e52806102bd52806104cb5280610553525061120f6000f3fe6080604052600436106100385760003560e01c80630d4eec8f14610041578063817917881461006c578063eb99be121461008c5761003f565b3661003f57005b005b34801561004d57600080fd5b506100566100a1565b6040516100639190610ec6565b60405180910390f35b61007f61007a366004610da4565b6100c5565b6040516100639190611171565b34801561009857600080fd5b506100566103f3565b7f000000000000000000000000000000000000000000000000000000000000000081565b600081428110156100f15760405162461bcd60e51b81526004016100e890610f7a565b60405180910390fd5b86518551146101125760405162461bcd60e51b81526004016100e8906110be565b600089116101325760405162461bcd60e51b81526004016100e890611059565b60008a905060008760008151811061014657fe5b6020026020010151905060008860018a51038151811061016257fe5b60200260200101519050600061018a33836001600160a01b031661041790919063ffffffff16565b90506101d5338a60008151811061019d57fe5b6020026020010151858773eeeeeeeeeeeeeeeeeeeeeeeeeeeeeeeeeeeeeeee6001600160a01b0316886001600160a01b0316146104bd565b6101e28c8b8d8b8d61060a565b6001600160a01b03821673eeeeeeeeeeeeeeeeeeeeeeeeeeeeeeeeeeeeeeee1415610357576040516370a0823160e01b81526001600160a01b037f000000000000000000000000000000000000000000000000000000000000000016906370a0823190610253903090600401610ec6565b60206040518083038186803b15801561026b57600080fd5b505afa15801561027f573d6000803e3d6000fd5b505050506040513d601f19601f820116820180604052508101906102a39190610d8c565b604051632e1a7d4d60e01b81529096506001600160a01b037f00000000000000000000000000000000000000000000000000000000000000001690632e1a7d4d906102f2908990600401611171565b600060405180830381600087803b15801561030c57600080fd5b505af1158015610320573d6000803e3d6000fd5b505060405133925088156108fc02915088906000818181858888f19350505050158015610351573d6000803e3d6000fd5b50610383565b610380816103746001600160a01b0385163363ffffffff61099716565b9063ffffffff6109c616565b95505b8c8610156103a35760405162461bcd60e51b81526004016100e890610fb1565b7f92ceb067a9883c85aba061e46b9edf505a0d6e81927c4b966ebed543a5221787838333878a6040516103da959493929190610eda565b60405180910390a1505050505098975050505050505050565b7f000000000000000000000000000000000000000000000000000000000000000081565b6000610422836109ee565b1561043857506001600160a01b038116316104b7565b6040516370a0823160e01b81526001600160a01b038416906370a0823190610464908590600401610ec6565b60206040518083038186803b15801561047c57600080fd5b505afa158015610490573d6000803e3d6000fd5b505050506040513d601f19601f820116820180604052508101906104b49190610d8c565b90505b92915050565b801561057e578115610579577f00000000000000000000000000000000000000000000000000000000000000006001600160a01b031663d0e30db0836040518263ffffffff1660e01b81526004016000604051808303818588803b15801561052457600080fd5b505af1158015610538573d6000803e3d6000fd5b505050506001600160a01b03851630149050610579576105797f00000000000000000000000000000000000000000000000000000000000000008584610a13565b610603565b60405163052f523360e11b81526001600160a01b037f00000000000000000000000000000000000000000000000000000000000000001690630a5ea466906105d0908690899089908890600401610f0e565b600060405180830381600087803b1580156105ea57600080fd5b505af11580156105fe573d6000803e3d6000fd5b505050505b5050505050565b60015b835181101561098f57600061065d83600184038151811061062a57fe5b602002602001015187848151811061063e57fe5b60200260200101516001600160a01b031661099790919063ffffffff16565b9050600087600184038151811061067057fe5b60200260200101519050600086600185038151811061068b57fe5b602002602001015190505b8684815181106106a257fe5b60200260200101518110156109845760008060008884815181106106c257fe5b60200260200101518060200190518101906106dd9190610d2a565b8a519295509093509150601182901c90607f600984901c169060ff84169030908c906000198d0190811061070d57fe5b60200260200101516001600160a01b031614156108815760006107468361073a8c8c63ffffffff610a6e16565b9063ffffffff610aa016565b905081600114156107ea578e8b8151811061075d57fe5b60200260200101516001600160a01b031663a9059cbb87836040518363ffffffff1660e01b8152600401610792929190610f61565b602060405180830381600087803b1580156107ac57600080fd5b505af11580156107c0573d6000803e3d6000fd5b505050506040513d601f19601f820116820180604052508101906107e49190610d6c565b5061087f565b8e8b815181106107f657fe5b60200260200101516001600160a01b031663a9059cbb88836040518363ffffffff1660e01b815260040161082b929190610f61565b602060405180830381600087803b15801561084557600080fd5b505af1158015610859573d6000803e3d6000fd5b505050506040513d601f19601f8201168201806040525081019061087d9190610d6c565b505b505b826108fe57846001600160a01b03166330e6ae318c8c815181106108a157fe5b6020026020010151886040518363ffffffff1660e01b81526004016108c7929190610f38565b600060405180830381600087803b1580156108e157600080fd5b505af11580156108f5573d6000803e3d6000fd5b50505050610972565b846001600160a01b0316636f7929f28c8c8151811061091957fe5b6020026020010151886040518363ffffffff1660e01b815260040161093f929190610f38565b600060405180830381600087803b15801561095957600080fd5b505af115801561096d573d6000803e3d6000fd5b505050505b50506001909401935061069692505050565b50505060010161060d565b505050505050565b6040516370a0823160e01b81526000906001600160a01b038416906370a0823190610464908590600401610ec6565b6000828211156109e85760405162461bcd60e51b81526004016100e89061109b565b50900390565b6001600160a01b03811673eeeeeeeeeeeeeeeeeeeeeeeeeeeeeeeeeeeeeeee14919050565b610a698363a9059cbb60e01b8484604051602401610a32929190610f61565b60408051601f198184030181529190526020810180516001600160e01b03166001600160e01b031990931692909217909152610ada565b505050565b6000808211610a8f5760405162461bcd60e51b81526004016100e890611031565b818381610a9857fe5b049392505050565b600082610aaf575060006104b7565b82820282848281610abc57fe5b04146104b45760405162461bcd60e51b81526004016100e89061114e565b60006060836001600160a01b031683604051610af69190610e8d565b6000604051808303816000865af19150503d8060008114610b33576040519150601f19603f3d011682016040523d82523d6000602084013e610b38565b606091505b509150915081610b5a5760405162461bcd60e51b81526004016100e890610ffc565b805115610b915780806020019051810190610b759190610d6c565b610b915760405162461bcd60e51b81526004016100e890611104565b50505050565b600082601f830112610ba7578081fd5b8135610bba610bb5826111a1565b61117a565b818152915060208083019084810181840286018201871015610bdb57600080fd5b60005b84811015610c03578135610bf1816111c1565b84529282019290820190600101610bde565b505050505092915050565b6000601f8381840112610c1f578182fd5b8235610c2d610bb5826111a1565b818152925060208084019085810160005b84811015610cc0578135880189603f820112610c5957600080fd5b8381013567ffffffffffffffff811115610c7257600080fd5b610c83818901601f1916860161117a565b81815260408c81848601011115610c9957600080fd5b82818501888401375060009181018601919091528552509282019290820190600101610c3e565b50505050505092915050565b600082601f830112610cdc578081fd5b8135610cea610bb5826111a1565b818152915060208083019084810181840286018201871015610d0b57600080fd5b60005b84811015610c0357813584529282019290820190600101610d0e565b600080600060608486031215610d3e578283fd5b8351610d49816111c1565b6020850151909350610d5a816111c1565b80925050604084015190509250925092565b600060208284031215610d7d578081fd5b815180151581146104b4578182fd5b600060208284031215610d9d578081fd5b5051919050565b600080600080600080600080610100898b031215610dc0578384fd5b8835975060208901359650604089013567ffffffffffffffff80821115610de5578586fd5b610df18c838d01610ccc565b975060608b0135915080821115610e06578586fd5b610e128c838d01610ccc565b965060808b0135915080821115610e27578586fd5b610e338c838d01610b97565b955060a08b0135915080821115610e48578485fd5b610e548c838d01610b97565b945060c08b0135915080821115610e69578384fd5b50610e768b828c01610c0e565b92505060e089013590509295985092959890939650565b60008251815b81811015610ead5760208186018101518583015201610e93565b81811115610ebb5782828501525b509190910192915050565b6001600160a01b0391909116815260200190565b6001600160a01b03958616815293851660208501529190931660408301526060820192909252608081019190915260a00190565b6001600160a01b039485168152928416602084015292166040820152606081019190915260800190565b6001600160a01b0392831681529116602082015260606040820181905260009082015260800190565b6001600160a01b03929092168252602082015260400190565b60208082526017908201527f444f444f526f75746550726f78793a2045585049524544000000000000000000604082015260600190565b6020808252602b908201527f444f444f526f75746550726f78793a2052657475726e20616d6f756e7420697360408201526a040dcdee840cadcdeeaced60ab1b606082015260800190565b6020808252818101527f5361666545524332303a206c6f772d6c6576656c2063616c6c206661696c6564604082015260600190565b6020808252600e908201526d2224ab24a224a723afa2a92927a960911b604082015260600190565b60208082526022908201527f444f444f526f75746550726f78793a2052455455524e5f414d4f554e545f5a45604082015261524f60f01b606082015260800190565b60208082526009908201526829aaa12fa2a92927a960b91b604082015260600190565b60208082526026908201527f444f444f526f75746550726f78793a20504149525f4153534554544f5f4e4f546040820152650be9a82a886960d31b606082015260800190565b6020808252602a908201527f5361666545524332303a204552433230206f7065726174696f6e20646964206e6040820152691bdd081cdd58d8d9595960b21b606082015260800190565b60208082526009908201526826aaa62fa2a92927a960b91b604082015260600190565b90815260200190565b60405181810167ffffffffffffffff8111828210171561119957600080fd5b604052919050565b600067ffffffffffffffff8211156111b7578081fd5b5060209081020190565b6001600160a01b03811681146111d657600080fd5b5056fea2646970667358221220ed7716d450444f20e93ea10c274675e9603409defefcec1917cdf3da58dbfa7664736f6c63430006090033",
  "immutableReferences": {
    "25010": [
      {
        "length": 32,
        "start": 163
      },
      {
        "length": 32,
        "start": 542
      },
      {
        "length": 32,
        "start": 701
      },
      {
        "length": 32,
        "start": 1227
      },
      {
        "length": 32,
        "start": 1363
      }
    ],
    "25012": [
      {
        "length": 32,
        "start": 1013
      },
      {
        "length": 32,
        "start": 1429
      }
    ]
  },
  "source": "/*\n\n    Copyright 2020 DODO ZOO.\n    SPDX-License-Identifier: Apache-2.0\n\n*/\n\npragma solidity 0.6.9;\npragma experimental ABIEncoderV2;\n\nimport {IDODOApproveProxy} from \"../DODOApproveProxy.sol\";\nimport {IERC20} from \"../../intf/IERC20.sol\";\nimport {IWETH} from \"../../intf/IWETH.sol\";\nimport {SafeMath} from \"../../lib/SafeMath.sol\";\nimport {UniversalERC20} from \"../lib/UniversalERC20.sol\";\nimport {SafeERC20} from \"../../lib/SafeERC20.sol\";\nimport {IDODOAdapter} from \"../intf/IDODOAdapter.sol\";\n\n\n/**\n * @title DODORouteProxy\n * @author DODO Breeder\n *\n * @notice Entrance of Split trading in DODO platform\n */\ncontract DODORouteProxy {\n    using SafeMath for uint256;\n    using UniversalERC20 for IERC20;\n\n    // ============ Storage ============\n\n    address constant _ETH_ADDRESS_ = 0xEeeeeEeeeEeEeeEeEeEeeEEEeeeeEeeeeeeeEEeE;\n    address public immutable _WETH_;\n    address public immutable _DODO_APPROVE_PROXY_;\n\n    // ============ Events ============\n\n     event OrderHistory(\n        address fromToken,\n        address toToken,\n        address sender,\n        uint256 fromAmount,\n        uint256 returnAmount\n    );\n\n    // ============ Modifiers ============\n\n    modifier judgeExpired(uint256 deadLine) {\n        require(deadLine >= block.timestamp, \"DODORouteProxy: EXPIRED\");\n        _;\n    }\n\n    fallback() external payable {}\n\n    receive() external payable {}\n\n    constructor (\n        address payable weth,\n        address dodoApproveProxy\n    ) public {\n        _WETH_ = weth;\n        _DODO_APPROVE_PROXY_ = dodoApproveProxy;\n    }\n\n    function dodoMutliSwap(\n        uint256 fromTokenAmount,\n        uint256 minReturnAmount,\n        uint256[] memory totalWeight,\n        uint256[] memory splitNumber,\n        address[] memory midToken,\n        address[] memory assetFrom,\n        bytes[] memory sequence,\n        uint256 deadLine\n    ) external payable judgeExpired(deadLine) returns (uint256 returnAmount) {\n        require(assetFrom.length == splitNumber.length, 'DODORouteProxy: PAIR_ASSETTO_NOT_MATCH');        \n        require(minReturnAmount > 0, \"DODORouteProxy: RETURN_AMOUNT_ZERO\");\n        \n        uint256 _fromTokenAmount = fromTokenAmount;\n        address fromToken = midToken[0];\n        address toToken = midToken[midToken.length - 1];\n\n        uint256 toTokenOriginBalance = IERC20(toToken).universalBalanceOf(msg.sender);\n        _deposit(msg.sender, assetFrom[0], fromToken, _fromTokenAmount, fromToken == _ETH_ADDRESS_);\n\n        _multiSwap(totalWeight, midToken, splitNumber, sequence, assetFrom);\n    \n        if(toToken == _ETH_ADDRESS_) {\n            returnAmount = IWETH(_WETH_).balanceOf(address(this));\n            IWETH(_WETH_).withdraw(returnAmount);\n            msg.sender.transfer(returnAmount);\n        }else {\n            returnAmount = IERC20(toToken).tokenBalanceOf(msg.sender).sub(toTokenOriginBalance);\n        }\n\n        require(returnAmount >= minReturnAmount, \"DODORouteProxy: Return amount is not enough\");\n    \n        emit OrderHistory(\n            fromToken,\n            toToken,\n            msg.sender,\n            _fromTokenAmount,\n            returnAmount\n        );    \n    }\n\n    \n    //====================== internal =======================\n\n    function _multiSwap(\n        uint256[] memory totalWeight,\n        address[] memory midToken,\n        uint256[] memory splitNumber,\n        bytes[] memory swapSequence,\n        address[] memory assetFrom\n    ) internal { \n        for(uint256 i = 1; i < splitNumber.length; i++) { \n            // define midtoken address, ETH -> WETH address\n            uint256 curTotalAmount = IERC20(midToken[i]).tokenBalanceOf(assetFrom[i-1]);\n            uint256 curTotalWeight = totalWeight[i-1];\n            \n            for(uint256 j = splitNumber[i-1]; j < splitNumber[i]; j++) {\n                (address pool, address adapter, uint256 mixPara) = abi.decode(swapSequence[j], (address, address, uint256));\n                uint256 direction = mixPara >> 17;\n                uint256 weight = (0xffff & mixPara) >> 9;\n                uint256 poolEdition = (0xff & mixPara);\n\n                if(assetFrom[i-1] == address(this)) {\n                    uint256 curAmount = curTotalAmount.div(curTotalWeight).mul(weight);\n            \n                    if(poolEdition == 1) {  \n                        //For using transferFrom pool (like dodoV1)\n                        IERC20(midToken[i]).transfer(adapter, curAmount);\n                    } else {\n                        //For using transfer pool (like dodoV2)\n                        IERC20(midToken[i]).transfer(pool, curAmount);\n                    }\n                }\n                \n                if(direction == 0) {\n                    IDODOAdapter(adapter).sellBase(assetFrom[i], pool, \"\");\n                } else {\n                    IDODOAdapter(adapter).sellQuote(assetFrom[i], pool, \"\");\n                }\n            }\n        }\n    }\n\n    function _deposit(\n        address from,\n        address to,\n        address token,\n        uint256 amount,\n        bool isETH\n    ) internal {\n        if (isETH) {\n            if (amount > 0) {\n                IWETH(_WETH_).deposit{value: amount}();\n                if (to != address(this)) SafeERC20.safeTransfer(IERC20(_WETH_), to, amount);\n            }\n        } else {\n            IDODOApproveProxy(_DODO_APPROVE_PROXY_).claimTokens(token, from, to, amount);\n        }\n    }\n}",
  "sourcePath": "/Users/niutaotao/projects/dodo/contractV2/contracts/SmartRoute/proxies/DODORouteProxy.sol",
  "compiler": {
    "name": "solc",
    "version": "0.6.9+commit.3e3065ac.Emscripten.clang"
  },
  "schemaVersion": "3.3.2",
  "updatedAt": "2021-05-12T14:17:20.003Z",
  "devdoc": {
    "author": "DODO Breeder",
    "methods": {},
    "title": "DODORouteProxy"
  },
  "userdoc": {
    "methods": {},
    "notice": "Entrance of Split trading in DODO platform"
  }
}