{
  "contractName": "DPP",
  "abi": [
    {
      "anonymous": false,
      "inputs": [
        {
          "indexed": false,
          "internalType": "address",
          "name": "borrower",
          "type": "address"
        },
        {
          "indexed": false,
          "internalType": "address",
          "name": "assetTo",
          "type": "address"
        },
        {
          "indexed": false,
          "internalType": "uint256",
          "name": "baseAmount",
          "type": "uint256"
        },
        {
          "indexed": false,
          "internalType": "uint256",
          "name": "quoteAmount",
          "type": "uint256"
        }
      ],
      "name": "DODOFlashLoan",
      "type": "event"
    },
    {
      "anonymous": false,
      "inputs": [
        {
          "indexed": false,
          "internalType": "address",
          "name": "fromToken",
          "type": "address"
        },
        {
          "indexed": false,
          "internalType": "address",
          "name": "toToken",
          "type": "address"
        },
        {
          "indexed": false,
          "internalType": "uint256",
          "name": "fromAmount",
          "type": "uint256"
        },
        {
          "indexed": false,
          "internalType": "uint256",
          "name": "toAmount",
          "type": "uint256"
        },
        {
          "indexed": false,
          "internalType": "address",
          "name": "trader",
          "type": "address"
        }
      ],
      "name": "DODOSwap",
      "type": "event"
    },
    {
      "anonymous": false,
      "inputs": [
        {
          "indexed": false,
          "internalType": "uint256",
          "name": "newLpFeeRate",
          "type": "uint256"
        }
      ],
      "name": "LpFeeRateChange",
      "type": "event"
    },
    {
      "anonymous": false,
      "inputs": [
        {
          "indexed": true,
          "internalType": "address",
          "name": "previousOwner",
          "type": "address"
        },
        {
          "indexed": true,
          "internalType": "address",
          "name": "newOwner",
          "type": "address"
        }
      ],
      "name": "OwnershipTransferPrepared",
      "type": "event"
    },
    {
      "anonymous": false,
      "inputs": [
        {
          "indexed": true,
          "internalType": "address",
          "name": "previousOwner",
          "type": "address"
        },
        {
          "indexed": true,
          "internalType": "address",
          "name": "newOwner",
          "type": "address"
        }
      ],
      "name": "OwnershipTransferred",
      "type": "event"
    },
    {
      "anonymous": false,
      "inputs": [
        {
          "indexed": false,
          "internalType": "enum PMMPricing.RState",
          "name": "newRState",
          "type": "uint8"
        }
      ],
      "name": "RChange",
      "type": "event"
    },
    {
      "inputs": [],
      "name": "_BASE_RESERVE_",
      "outputs": [
        {
          "internalType": "uint128",
          "name": "",
          "type": "uint128"
        }
      ],
      "stateMutability": "view",
      "type": "function"
    },
    {
      "inputs": [],
      "name": "_BASE_TARGET_",
      "outputs": [
        {
          "internalType": "uint120",
          "name": "",
          "type": "uint120"
        }
      ],
      "stateMutability": "view",
      "type": "function"
    },
    {
      "inputs": [],
      "name": "_BASE_TOKEN_",
      "outputs": [
        {
          "internalType": "contract IERC20",
          "name": "",
          "type": "address"
        }
      ],
      "stateMutability": "view",
      "type": "function"
    },
    {
      "inputs": [],
      "name": "_I_",
      "outputs": [
        {
          "internalType": "uint128",
          "name": "",
          "type": "uint128"
        }
      ],
      "stateMutability": "view",
      "type": "function"
    },
    {
      "inputs": [],
      "name": "_K_",
      "outputs": [
        {
          "internalType": "uint64",
          "name": "",
          "type": "uint64"
        }
      ],
      "stateMutability": "view",
      "type": "function"
    },
    {
      "inputs": [],
      "name": "_LP_FEE_RATE_",
      "outputs": [
        {
          "internalType": "uint64",
          "name": "",
          "type": "uint64"
        }
      ],
      "stateMutability": "view",
      "type": "function"
    },
    {
      "inputs": [],
      "name": "_MAINTAINER_",
      "outputs": [
        {
          "internalType": "address",
          "name": "",
          "type": "address"
        }
      ],
      "stateMutability": "view",
      "type": "function"
    },
    {
      "inputs": [],
      "name": "_MT_FEE_RATE_MODEL_",
      "outputs": [
        {
          "internalType": "contract IFeeRateModel",
          "name": "",
          "type": "address"
        }
      ],
      "stateMutability": "view",
      "type": "function"
    },
    {
      "inputs": [],
      "name": "_NEW_OWNER_",
      "outputs": [
        {
          "internalType": "address",
          "name": "",
          "type": "address"
        }
      ],
      "stateMutability": "view",
      "type": "function"
    },
    {
      "inputs": [],
      "name": "_OWNER_",
      "outputs": [
        {
          "internalType": "address",
          "name": "",
          "type": "address"
        }
      ],
      "stateMutability": "view",
      "type": "function"
    },
    {
      "inputs": [],
      "name": "_QUOTE_RESERVE_",
      "outputs": [
        {
          "internalType": "uint128",
          "name": "",
          "type": "uint128"
        }
      ],
      "stateMutability": "view",
      "type": "function"
    },
    {
      "inputs": [],
      "name": "_QUOTE_TARGET_",
      "outputs": [
        {
          "internalType": "uint120",
          "name": "",
          "type": "uint120"
        }
      ],
      "stateMutability": "view",
      "type": "function"
    },
    {
      "inputs": [],
      "name": "_QUOTE_TOKEN_",
      "outputs": [
        {
          "internalType": "contract IERC20",
          "name": "",
          "type": "address"
        }
      ],
      "stateMutability": "view",
      "type": "function"
    },
    {
      "inputs": [],
      "name": "_RState_",
      "outputs": [
        {
          "internalType": "uint16",
          "name": "",
          "type": "uint16"
        }
      ],
      "stateMutability": "view",
      "type": "function"
    },
    {
      "inputs": [],
      "name": "claimOwnership",
      "outputs": [],
      "stateMutability": "nonpayable",
      "type": "function"
    },
    {
      "inputs": [
        {
          "internalType": "uint256",
          "name": "baseAmount",
          "type": "uint256"
        },
        {
          "internalType": "uint256",
          "name": "quoteAmount",
          "type": "uint256"
        },
        {
          "internalType": "address",
          "name": "assetTo",
          "type": "address"
        },
        {
          "internalType": "bytes",
          "name": "data",
          "type": "bytes"
        }
      ],
      "name": "flashLoan",
      "outputs": [],
      "stateMutability": "nonpayable",
      "type": "function"
    },
    {
      "inputs": [],
      "name": "getBaseInput",
      "outputs": [
        {
          "internalType": "uint256",
          "name": "input",
          "type": "uint256"
        }
      ],
      "stateMutability": "view",
      "type": "function"
    },
    {
      "inputs": [],
      "name": "getMidPrice",
      "outputs": [
        {
          "internalType": "uint256",
          "name": "midPrice",
          "type": "uint256"
        }
      ],
      "stateMutability": "view",
      "type": "function"
    },
    {
      "inputs": [],
      "name": "getPMMState",
      "outputs": [
        {
          "components": [
            {
              "internalType": "uint256",
              "name": "i",
              "type": "uint256"
            },
            {
              "internalType": "uint256",
              "name": "K",
              "type": "uint256"
            },
            {
              "internalType": "uint256",
              "name": "B",
              "type": "uint256"
            },
            {
              "internalType": "uint256",
              "name": "Q",
              "type": "uint256"
            },
            {
              "internalType": "uint256",
              "name": "B0",
              "type": "uint256"
            },
            {
              "internalType": "uint256",
              "name": "Q0",
              "type": "uint256"
            },
            {
              "internalType": "enum PMMPricing.RState",
              "name": "R",
              "type": "uint8"
            }
          ],
          "internalType": "struct PMMPricing.PMMState",
          "name": "state",
          "type": "tuple"
        }
      ],
      "stateMutability": "view",
      "type": "function"
    },
    {
      "inputs": [],
      "name": "getPMMStateForCall",
      "outputs": [
        {
          "internalType": "uint256",
          "name": "i",
          "type": "uint256"
        },
        {
          "internalType": "uint256",
          "name": "K",
          "type": "uint256"
        },
        {
          "internalType": "uint256",
          "name": "B",
          "type": "uint256"
        },
        {
          "internalType": "uint256",
          "name": "Q",
          "type": "uint256"
        },
        {
          "internalType": "uint256",
          "name": "B0",
          "type": "uint256"
        },
        {
          "internalType": "uint256",
          "name": "Q0",
          "type": "uint256"
        },
        {
          "internalType": "uint256",
          "name": "R",
          "type": "uint256"
        }
      ],
      "stateMutability": "view",
      "type": "function"
    },
    {
      "inputs": [],
      "name": "getQuoteInput",
      "outputs": [
        {
          "internalType": "uint256",
          "name": "input",
          "type": "uint256"
        }
      ],
      "stateMutability": "view",
      "type": "function"
    },
    {
      "inputs": [
        {
          "internalType": "address",
          "name": "user",
          "type": "address"
        }
      ],
      "name": "getUserFeeRate",
      "outputs": [
        {
          "internalType": "uint256",
          "name": "lpFeeRate",
          "type": "uint256"
        },
        {
          "internalType": "uint256",
          "name": "mtFeeRate",
          "type": "uint256"
        }
      ],
      "stateMutability": "view",
      "type": "function"
    },
    {
      "inputs": [],
      "name": "getVaultReserve",
      "outputs": [
        {
          "internalType": "uint256",
          "name": "baseReserve",
          "type": "uint256"
        },
        {
          "internalType": "uint256",
          "name": "quoteReserve",
          "type": "uint256"
        }
      ],
      "stateMutability": "view",
      "type": "function"
    },
    {
      "inputs": [
        {
          "internalType": "address",
          "name": "newOwner",
          "type": "address"
        }
      ],
      "name": "initOwner",
      "outputs": [],
      "stateMutability": "nonpayable",
      "type": "function"
    },
    {
      "inputs": [
        {
          "internalType": "address",
          "name": "trader",
          "type": "address"
        },
        {
          "internalType": "uint256",
          "name": "payBaseAmount",
          "type": "uint256"
        }
      ],
      "name": "querySellBase",
      "outputs": [
        {
          "internalType": "uint256",
          "name": "receiveQuoteAmount",
          "type": "uint256"
        },
        {
          "internalType": "uint256",
          "name": "mtFee",
          "type": "uint256"
        },
        {
          "internalType": "enum PMMPricing.RState",
          "name": "newRState",
          "type": "uint8"
        },
        {
          "internalType": "uint256",
          "name": "newBaseTarget",
          "type": "uint256"
        }
      ],
      "stateMutability": "view",
      "type": "function"
    },
    {
      "inputs": [
        {
          "internalType": "address",
          "name": "trader",
          "type": "address"
        },
        {
          "internalType": "uint256",
          "name": "payQuoteAmount",
          "type": "uint256"
        }
      ],
      "name": "querySellQuote",
      "outputs": [
        {
          "internalType": "uint256",
          "name": "receiveBaseAmount",
          "type": "uint256"
        },
        {
          "internalType": "uint256",
          "name": "mtFee",
          "type": "uint256"
        },
        {
          "internalType": "enum PMMPricing.RState",
          "name": "newRState",
          "type": "uint8"
        },
        {
          "internalType": "uint256",
          "name": "newQuoteTarget",
          "type": "uint256"
        }
      ],
      "stateMutability": "view",
      "type": "function"
    },
    {
      "inputs": [],
      "name": "ratioSync",
      "outputs": [],
      "stateMutability": "nonpayable",
      "type": "function"
    },
    {
      "inputs": [
        {
          "internalType": "address",
          "name": "assetTo",
          "type": "address"
        },
        {
          "internalType": "uint256",
          "name": "newLpFeeRate",
          "type": "uint256"
        },
        {
          "internalType": "uint256",
          "name": "newI",
          "type": "uint256"
        },
        {
          "internalType": "uint256",
          "name": "newK",
          "type": "uint256"
        },
        {
          "internalType": "uint256",
          "name": "baseOutAmount",
          "type": "uint256"
        },
        {
          "internalType": "uint256",
          "name": "quoteOutAmount",
          "type": "uint256"
        },
        {
          "internalType": "uint256",
          "name": "minBaseReserve",
          "type": "uint256"
        },
        {
          "internalType": "uint256",
          "name": "minQuoteReserve",
          "type": "uint256"
        }
      ],
      "name": "reset",
      "outputs": [
        {
          "internalType": "bool",
          "name": "",
          "type": "bool"
        }
      ],
      "stateMutability": "nonpayable",
      "type": "function"
    },
    {
      "inputs": [
        {
          "internalType": "address",
          "name": "to",
          "type": "address"
        },
        {
          "internalType": "address",
          "name": "token",
          "type": "address"
        },
        {
          "internalType": "uint256",
          "name": "amount",
          "type": "uint256"
        }
      ],
      "name": "retrieve",
      "outputs": [],
      "stateMutability": "nonpayable",
      "type": "function"
    },
    {
      "inputs": [
        {
          "internalType": "address",
          "name": "to",
          "type": "address"
        }
      ],
      "name": "sellBase",
      "outputs": [
        {
          "internalType": "uint256",
          "name": "receiveQuoteAmount",
          "type": "uint256"
        }
      ],
      "stateMutability": "nonpayable",
      "type": "function"
    },
    {
      "inputs": [
        {
          "internalType": "address",
          "name": "to",
          "type": "address"
        }
      ],
      "name": "sellQuote",
      "outputs": [
        {
          "internalType": "uint256",
          "name": "receiveBaseAmount",
          "type": "uint256"
        }
      ],
      "stateMutability": "nonpayable",
      "type": "function"
    },
    {
      "inputs": [
        {
          "internalType": "address",
          "name": "newOwner",
          "type": "address"
        }
      ],
      "name": "transferOwnership",
      "outputs": [],
      "stateMutability": "nonpayable",
      "type": "function"
    },
    {
      "inputs": [
        {
          "internalType": "address",
          "name": "owner",
          "type": "address"
        },
        {
          "internalType": "address",
          "name": "maintainer",
          "type": "address"
        },
        {
          "internalType": "address",
          "name": "baseTokenAddress",
          "type": "address"
        },
        {
          "internalType": "address",
          "name": "quoteTokenAddress",
          "type": "address"
        },
        {
          "internalType": "uint256",
          "name": "lpFeeRate",
          "type": "uint256"
        },
        {
          "internalType": "address",
          "name": "mtFeeRateModel",
          "type": "address"
        },
        {
          "internalType": "uint256",
          "name": "k",
          "type": "uint256"
        },
        {
          "internalType": "uint256",
          "name": "i",
          "type": "uint256"
        }
      ],
      "name": "init",
      "outputs": [],
      "stateMutability": "nonpayable",
      "type": "function"
    },
    {
      "inputs": [],
      "name": "version",
      "outputs": [
        {
          "internalType": "string",
          "name": "",
          "type": "string"
        }
      ],
      "stateMutability": "pure",
      "type": "function"
    }
  ],
  "bytecode": "0x608060405234801561001057600080fd5b506136c1806100206000396000f3fe608060405234801561001057600080fd5b50600436106102065760003560e01c80638ff3928c1161011a578063d4b97046116100ad578063ee27c6891161007c578063ee27c689146103ff578063f2fde38b14610407578063f6b06e701461041a578063f811d69214610422578063fd1ed7e91461042a57610206565b8063d4b97046146103d4578063dd93f59a146103dc578063e539ef49146103ef578063ec2fd46d146103f757610206565b8063bd6015b4116100e9578063bd6015b414610391578063bf357dae146103a4578063c57a5d03146103b9578063d0a494e4146103c157610206565b80638ff3928c1461033f578063a382d1b91461035f578063ab44a7a314610374578063bbf5ce781461038957610206565b80634e71e0c81161019d57806371f9100c1161016c57806371f9100c146102f257806377f58657146102fa57806379a048761461030f5780637d721504146103225780638456db151461033757610206565b80634e71e0c81461029d57806354fd4d50146102a557806365f6fcbb146102ba57806366410a21146102cf57610206565b806336223ce9116101d957806336223ce9146102645780634322ec831461027a57806344096609146102825780634a248d2a1461029557610206565b80630d0092971461020b57806316048bc41461022057806328c4e24c1461023e5780633044ace414610251575b600080fd5b61021e610219366004612e47565b610445565b005b6102286104ae565b60405161023591906130a4565b60405180910390f35b61021e61024c366004612ee8565b6104bd565b61021e61025f366004612e62565b61059a565b61026c610720565b60405161023592919061358d565b61022861073b565b61026c610290366004612e47565b61074a565b6102286107e6565b61021e6107f5565b6102ad610883565b604051610235919061318f565b6102c26108a7565b6040516102359190613584565b6102e26102dd366004612f28565b61094e565b604051610235949392919061359b565b6102c2610a4a565b610302610a93565b604051610235919061354d565b6102e261031d366004612f28565b610aa9565b61032a610b98565b6040516102359190613561565b610228610ba7565b61035261034d366004612f52565b610bb6565b6040516102359190613176565b610367610dc7565b60405161023591906134f6565b61037c610e6e565b60405161023591906135f5565b61032a610e85565b6102c261039f366004612e47565b610e9b565b6103ac611154565b6040516102359190613575565b61021e611165565b61021e6103cf366004612fe7565b61143c565b6102286119f8565b6102c26103ea366004612e47565b611a07565b610302611cab565b61037c611cba565b6102c2611cca565b61021e610415366004612e47565b611cdc565b610228611d61565b61032a611d70565b610432611d86565b60405161023597969594939291906135c5565b600154600160a01b900460ff16156104785760405162461bcd60e51b815260040161046f9061333e565b60405180910390fd5b6001805460ff60a01b1916600160a01b179055600080546001600160a01b039092166001600160a01b0319909216919091179055565b6000546001600160a01b031681565b600154600160a81b900460ff16156104e75760405162461bcd60e51b815260040161046f90613264565b6001805460ff60a81b1916600160a81b179055600054336001600160a01b03909116146105265760405162461bcd60e51b815260040161046f90613420565b6003546001600160a01b0383811691161480159061055257506004546001600160a01b03838116911614155b61056e5760405162461bcd60e51b815260040161046f906134b0565b6105886001600160a01b038316848363ffffffff611de916565b50506001805460ff60a81b1916905550565b6105a388610445565b846001600160a01b0316866001600160a01b031614156105d55760405162461bcd60e51b815260040161046f90613287565b600380546001600160a01b038089166001600160a01b03199283161790925560048054888416908316179055600280548a84169083161790556007805492861692909116919091179055670de0b6b3a76400008411156106475760405162461bcd60e51b815260040161046f906133c7565b670de0b6b3a764000082111561066f5760405162461bcd60e51b815260040161046f9061339f565b60008111801561068e57506ec097ce7bc90715b34b9f10000000008111155b6106aa5760405162461bcd60e51b815260040161046f9061323c565b6007805467ffffffffffffffff60a01b1916600160a01b67ffffffffffffffff87811691909102919091179091556008805467ffffffffffffffff191691841691909117600160401b600160c01b031916600160401b6001600160801b03841602179055610716611e44565b5050505050505050565b6005546001600160801b0380821692600160801b9092041690565b6002546001600160a01b031681565b600754604051638198edbf60e01b815267ffffffffffffffff600160a01b830416916000916001600160a01b0390911690638198edbf9061078f9086906004016130a4565b60206040518083038186803b1580156107a757600080fd5b505afa1580156107bb573d6000803e3d6000fd5b505050506040513d601f19601f820116820180604052508101906107df9190612fcf565b9050915091565b6003546001600160a01b031681565b6001546001600160a01b0316331461081f5760405162461bcd60e51b815260040161046f906131ed565b600154600080546040516001600160a01b0393841693909116917f8be0079c531659141344cd1fd0a4f28419497f9722a3daafe3b4186f6b6457e091a360018054600080546001600160a01b03199081166001600160a01b03841617909155169055565b604080518082019091526009815268044505020312e302e360bc1b60208201525b90565b6005546003546040516370a0823160e01b8152600092610949926001600160801b03909116916001600160a01b03909116906370a08231906108ed9030906004016130a4565b60206040518083038186803b15801561090557600080fd5b505afa158015610919573d6000803e3d6000fd5b505050506040513d601f19601f8201168201806040525081019061093d9190612fcf565b9063ffffffff611ff916565b905090565b60008060008061095c612de9565b610964610dc7565b90506109708187612026565b600754604051638198edbf60e01b815292975090945067ffffffffffffffff600160a01b820416916000916001600160a01b031690638198edbf906109b9908c906004016130a4565b60206040518083038186803b1580156109d157600080fd5b505afa1580156109e5573d6000803e3d6000fd5b505050506040513d601f19601f82011682018060405250810190610a099190612fcf565b9050610a15878261212c565b9550610a358661093d610a288a8661212c565b8a9063ffffffff611ff916565b96508260a00151935050505092959194509250565b600554600480546040516370a0823160e01b815260009361094993600160801b9091046001600160801b0316926001600160a01b0316916370a08231916108ed913091016130a4565b600654600160781b90046001600160781b031681565b600080600080610ab7612de9565b610abf610dc7565b9050610acb8187612156565b600754604051638198edbf60e01b815292975090945067ffffffffffffffff600160a01b820416916000916001600160a01b031690638198edbf90610b14908c906004016130a4565b60206040518083038186803b158015610b2c57600080fd5b505afa158015610b40573d6000803e3d6000fd5b505050506040513d601f19601f82011682018060405250810190610b649190612fcf565b9050610b70878261212c565b9550610b838661093d610a288a8661212c565b96508260800151935050505092959194509250565b6005546001600160801b031681565b6001546001600160a01b031681565b600154600090600160a81b900460ff1615610be35760405162461bcd60e51b815260040161046f90613264565b6001805460ff60a81b1916600160a81b179055600054336001600160a01b0390911614610c225760405162461bcd60e51b815260040161046f90613420565b6005546001600160801b03168311801590610c4f5750600554600160801b90046001600160801b03168211155b610c6b5760405162461bcd60e51b815260040161046f90613368565b670de0b6b3a7640000881115610c935760405162461bcd60e51b815260040161046f906133c7565b670de0b6b3a7640000861115610cbb5760405162461bcd60e51b815260040161046f9061339f565b600087118015610cda57506ec097ce7bc90715b34b9f10000000008711155b610cf65760405162461bcd60e51b815260040161046f9061323c565b6007805467ffffffffffffffff60a01b1916600160a01b67ffffffffffffffff8b811691909102919091179091556008805467ffffffffffffffff191691881691909117600160401b600160c01b031916600160401b6001600160801b038a1602179055610d648986612257565b610d6e898561227e565b610d76611e44565b7f9950d5a2f2c7264863d40100bf993f0cdbc4711806caba6284d07e80fd50087988604051610da59190613584565b60405180910390a150506001805460ff60a81b19168155979650505050505050565b610dcf612de9565b6008546001600160801b03600160401b82048116835267ffffffffffffffff90911660208301526005548082166040840152600160801b90041660608201526006546001600160781b038082166080840152600160781b82041660a083015261ffff600160f01b909104166002811115610e4557fe5b8160c001906002811115610e5557fe5b90816002811115610e6257fe5b9052506108a4816122a1565b600754600160a01b900467ffffffffffffffff1681565b600554600160801b90046001600160801b031681565b600154600090600160a81b900460ff1615610ec85760405162461bcd60e51b815260040161046f90613264565b6001805460ff60a81b1916600160a81b1790556003546040516370a0823160e01b81526000916001600160a01b0316906370a0823190610f0c9030906004016130a4565b60206040518083038186803b158015610f2457600080fd5b505afa158015610f38573d6000803e3d6000fd5b505050506040513d601f19601f82011682018060405250810190610f5c9190612fcf565b600554909150600090610f7f9083906001600160801b031663ffffffff611ff916565b90506000806000610f903285610aa9565b9298509094509092509050610fa5878761227e565b600254610fbb906001600160a01b03168461227e565b600480546040516370a0823160e01b81526110439288926001600160a01b0316916370a0823191610fee913091016130a4565b60206040518083038186803b15801561100657600080fd5b505afa15801561101a573d6000803e3d6000fd5b505050506040513d601f19601f8201168201806040525081019061103e9190612fcf565b61234b565b80600281111561104f57fe5b600654600160f01b900461ffff9081169116146110fd5780600281111561107257fe5b6006805461ffff92909216600160f01b026001600160f01b039092169190911790556001600160781b038211156110bb5760405162461bcd60e51b815260040161046f906133fe565b600680546001600160781b0319166001600160781b03841617905560405160008051602061366c833981519152906110f4908390613181565b60405180910390a15b60035460045460405160008051602061364c83398151915292611134926001600160a01b039182169291169088908b90339061312d565b60405180910390a150506001805460ff60a81b1916905550919392505050565b600654600160f01b900461ffff1681565b600154600160a81b900460ff161561118f5760405162461bcd60e51b815260040161046f90613264565b6001805460ff60a81b1916600160a81b179055600054336001600160a01b03909116146111ce5760405162461bcd60e51b815260040161046f90613420565b6003546040516370a0823160e01b81526000916001600160a01b0316906370a08231906111ff9030906004016130a4565b60206040518083038186803b15801561121757600080fd5b505afa15801561122b573d6000803e3d6000fd5b505050506040513d601f19601f8201168201806040525081019061124f9190612fcf565b600480546040516370a0823160e01b81529293506000926001600160a01b03909116916370a0823191611284913091016130a4565b60206040518083038186803b15801561129c57600080fd5b505afa1580156112b0573d6000803e3d6000fd5b505050506040513d601f19601f820116820180604052508101906112d49190612fcf565b90506001600160781b0382118015906112f457506001600160781b038111155b6113105760405162461bcd60e51b815260040161046f906133fe565b6005546001600160801b031682146113975760055460065461135b916001600160801b03169061134f906001600160781b03168563ffffffff6123b516565b9063ffffffff6123f616565b600680546001600160781b0319166001600160781b0392909216919091179055600580546001600160801b0319166001600160801b0384161790555b600554600160801b90046001600160801b0316811461142b576005546006546113e591600160801b90046001600160801b03169061134f90600160781b90046001600160781b0316846123b5565b600680546001600160781b0392909216600160781b02600160781b600160f01b0319909216919091179055600580546001600160801b03808416600160801b0291161790555b50506001805460ff60a81b19169055565b600154600160a81b900460ff16156114665760405162461bcd60e51b815260040161046f90613264565b6001805460ff60a81b1916600160a81b1790556114838386612257565b61148d838561227e565b80156114fa57604051637ed1f1dd60e01b81526001600160a01b03841690637ed1f1dd906114c790339089908990889088906004016130e1565b600060405180830381600087803b1580156114e157600080fd5b505af11580156114f5573d6000803e3d6000fd5b505050505b6003546040516370a0823160e01b81526000916001600160a01b0316906370a082319061152b9030906004016130a4565b60206040518083038186803b15801561154357600080fd5b505afa158015611557573d6000803e3d6000fd5b505050506040513d601f19601f8201168201806040525081019061157b9190612fcf565b600480546040516370a0823160e01b81529293506000926001600160a01b03909116916370a08231916115b0913091016130a4565b60206040518083038186803b1580156115c857600080fd5b505afa1580156115dc573d6000803e3d6000fd5b505050506040513d601f19601f820116820180604052508101906116009190612fcf565b6005549091506001600160801b03168210158061162f5750600554600160801b90046001600160801b03168110155b61164b5760405162461bcd60e51b815260040161046f906131c2565b6005546001600160801b03168210156117f55760055460009061167f908390600160801b90046001600160801b0316611ff9565b9050600080600080611691328661094e565b6005549397509195509350915084906116b9906001600160801b03168963ffffffff611ff916565b11156116d75760405162461bcd60e51b815260040161046f906131c2565b6002546116ed906001600160a01b031684612257565b8160028111156116f957fe5b600654600160f01b900461ffff9081169116146117b05781600281111561171c57fe5b6006805461ffff92909216600160f01b026001600160f01b039092169190911790556001600160781b038111156117655760405162461bcd60e51b815260040161046f906133fe565b60068054600160781b600160f01b031916600160781b6001600160781b0384160217905560405160008051602061366c833981519152906117a7908490613181565b60405180910390a15b60045460035460405160008051602061364c833981519152926117e7926001600160a01b039182169291169089908990339061312d565b60405180910390a150505050505b600554600160801b90046001600160801b031681101561199d5760055460009061182f9084906001600160801b031663ffffffff611ff916565b90506000806000806118413286610aa9565b60055493975091955093509150849061186a90600160801b90046001600160801b031688611ff9565b11156118885760405162461bcd60e51b815260040161046f906131c2565b60025461189e906001600160a01b03168461227e565b8160028111156118aa57fe5b600654600160f01b900461ffff908116911614611958578160028111156118cd57fe5b6006805461ffff92909216600160f01b026001600160f01b039092169190911790556001600160781b038111156119165760405162461bcd60e51b815260040161046f906133fe565b600680546001600160781b0319166001600160781b03831617905560405160008051602061366c8339815191529061194f908490613181565b60405180910390a15b60035460045460405160008051602061364c8339815191529261198f926001600160a01b039182169291169089908990339061312d565b60405180910390a150505050505b6119a5612420565b7f0b82e93068db15abd9fbb2682c65462ea8a0a10582dce93a5664818e296f54eb338689896040516119da94939291906130b8565b60405180910390a150506001805460ff60a81b191690555050505050565b6004546001600160a01b031681565b600154600090600160a81b900460ff1615611a345760405162461bcd60e51b815260040161046f90613264565b6001805460ff60a81b1916600160a81b179055600480546040516370a0823160e01b81526000926001600160a01b03909216916370a0823191611a79913091016130a4565b60206040518083038186803b158015611a9157600080fd5b505afa158015611aa5573d6000803e3d6000fd5b505050506040513d601f19601f82011682018060405250810190611ac99190612fcf565b600554909150600090611aed908390600160801b90046001600160801b0316611ff9565b90506000806000611afe328561094e565b9298509094509092509050611b138787612257565b600254611b29906001600160a01b031684612257565b6003546040516370a0823160e01b8152611bb1916001600160a01b0316906370a0823190611b5b9030906004016130a4565b60206040518083038186803b158015611b7357600080fd5b505afa158015611b87573d6000803e3d6000fd5b505050506040513d601f19601f82011682018060405250810190611bab9190612fcf565b8661234b565b806002811115611bbd57fe5b600654600160f01b900461ffff908116911614611c7457806002811115611be057fe5b6006805461ffff92909216600160f01b026001600160f01b039092169190911790556001600160781b03821115611c295760405162461bcd60e51b815260040161046f906133fe565b60068054600160781b600160f01b031916600160781b6001600160781b0385160217905560405160008051602061366c83398151915290611c6b908390613181565b60405180910390a15b60045460035460405160008051602061364c83398151915292611134926001600160a01b039182169291169088908b90339061312d565b6006546001600160781b031681565b60085467ffffffffffffffff1681565b6000610949611cd7610dc7565b6125c7565b6000546001600160a01b03163314611d065760405162461bcd60e51b815260040161046f90613420565b600080546040516001600160a01b03808516939216917fdcf55418cee3220104fef63f979ff3c4097ad240c0c43dcb33ce837748983e6291a3600180546001600160a01b0319166001600160a01b0392909216919091179055565b6007546001600160a01b031681565b600854600160401b90046001600160801b031681565b6000806000806000806000611d99612de9565b611da1610dc7565b905080600001519750806020015196508060400151955080606001519450806080015193508060a0015192508060c001516002811115611ddd57fe5b91505090919293949596565b611e3f8363a9059cbb60e01b8484604051602401611e0892919061315d565b60408051601f198184030181529190526020810180516001600160e01b03166001600160e01b0319909316929092179091526126be565b505050565b6003546040516370a0823160e01b81526000916001600160a01b0316906370a0823190611e759030906004016130a4565b60206040518083038186803b158015611e8d57600080fd5b505afa158015611ea1573d6000803e3d6000fd5b505050506040513d601f19601f82011682018060405250810190611ec59190612fcf565b600480546040516370a0823160e01b81529293506000926001600160a01b03909116916370a0823191611efa913091016130a4565b60206040518083038186803b158015611f1257600080fd5b505afa158015611f26573d6000803e3d6000fd5b505050506040513d601f19601f82011682018060405250810190611f4a9190612fcf565b90506001600160781b038211801590611f6a57506001600160781b038111155b611f865760405162461bcd60e51b815260040161046f906133fe565b600580546001600160801b03838116600160801b028582166001600160801b03199093169290921716179055600680546001600160781b03928316600160781b02600160781b600160f01b0319939094166001600160781b03199091161791909116919091176001600160f01b03169055565b60008282111561201b5760405162461bcd60e51b815260040161046f9061331b565b508082035b92915050565b600080808460c00151600281111561203a57fe5b14156120555761204a848461277b565b915060019050612125565b60018460c00151600281111561206757fe5b14156120775761204a84846127a2565b600061209485606001518660a00151611ff990919063ffffffff16565b905060006120b386608001518760400151611ff990919063ffffffff16565b9050818510156120de576120c786866127bf565b935060029250808411156120d9578093505b612122565b818514156120f25780935060009250612122565b61211b61210e87612109888663ffffffff611ff916565b61277b565b829063ffffffff6127fa16565b9350600192505b50505b9250929050565b6000670de0b6b3a7640000612147848463ffffffff6123b516565b8161214e57fe5b049392505050565b600080808460c00151600281111561216a57fe5b14156121855761217a848461281f565b915060029050612125565b60018460c00151600281111561219757fe5b14156122425760006121ba85604001518660800151611ff990919063ffffffff16565b905060006121d98660a001518760600151611ff990919063ffffffff16565b905081851015612204576121ed868661283e565b935060019250808411156121ff578093505b61223b565b81851415612218578093506000925061223b565b61223461210e8761222f888663ffffffff611ff916565b61281f565b9350600292505b5050612125565b61224c8484612870565b946002945092505050565b801561227a5760035461227a906001600160a01b0316838363ffffffff611de916565b5050565b801561227a5760045461227a906001600160a01b0316838363ffffffff611de916565b60028160c0015160028111156122b357fe5b14156122f2576122e881606001516122dc83608001518460400151611ff990919063ffffffff16565b8351602085015161288f565b60a0820152612348565b60018160c00151600281111561230457fe5b141561234857612342816040015161232d8360a001518460600151611ff990919063ffffffff16565b8351612338906129b5565b846020015161288f565b60808201525b50565b6001600160781b03821180159061236957506001600160781b038111155b6123855760405162461bcd60e51b815260040161046f906133fe565b600580546001600160801b03928316600160801b029383166001600160801b031990911617909116919091179055565b6000826123c457506000612020565b828202828482816123d157fe5b04146123ef5760405162461bcd60e51b815260040161046f906134d3565b9392505050565b60008082116124175760405162461bcd60e51b815260040161046f906132f3565b81838161214e57fe5b6003546040516370a0823160e01b81526000916001600160a01b0316906370a08231906124519030906004016130a4565b60206040518083038186803b15801561246957600080fd5b505afa15801561247d573d6000803e3d6000fd5b505050506040513d601f19601f820116820180604052508101906124a19190612fcf565b600480546040516370a0823160e01b81529293506000926001600160a01b03909116916370a08231916124d6913091016130a4565b60206040518083038186803b1580156124ee57600080fd5b505afa158015612502573d6000803e3d6000fd5b505050506040513d601f19601f820116820180604052508101906125269190612fcf565b90506001600160781b03821180159061254657506001600160781b038111155b6125625760405162461bcd60e51b815260040161046f906133fe565b6005546001600160801b0316821461259057600580546001600160801b0319166001600160801b0384161790555b600554600160801b90046001600160801b0316811461227a57600580546001600160801b03808416600160801b0291161790555050565b600060028260c0015160028111156125db57fe5b141561266657606082015160a083015160009161261191612607919061134f908063ffffffff6123b516565b84606001516129d6565b905061264e61262484602001518361212c565b602085015161264290670de0b6b3a76400009063ffffffff611ff916565b9063ffffffff6127fa16565b905061265e8360000151826129d6565b9150506126b9565b604082015160808301516000916126969161268c919061134f908063ffffffff6123b516565b84604001516129d6565b90506126a961262484602001518361212c565b905061265e83600001518261212c565b919050565b60006060836001600160a01b0316836040516126da9190613088565b6000604051808303816000865af19150503d8060008114612717576040519150601f19603f3d011682016040523d82523d6000602084013e61271c565b606091505b50915091508161273e5760405162461bcd60e51b815260040161046f906132be565b80511561277557808060200190518101906127599190612faf565b6127755760405162461bcd60e51b815260040161046f90613466565b50505050565b60006123ef836080015184608001518461279887600001516129b5565b87602001516129f4565b60006123ef836080015184604001518461279887600001516129b5565b60006123ef8360a001516127e08486606001516127fa90919063ffffffff16565b606086015186516127f0906129b5565b8760200151612c82565b6000828201838110156123ef5760405162461bcd60e51b815260040161046f90613443565b60006123ef8360a001518460a0015184866000015187602001516129f4565b60006123ef836080015161285f8486604001516127fa90919063ffffffff16565b604086015186516020880151612c82565b60006123ef8360a00151846060015184866000015187602001516129f4565b60008461289e575060006129ad565b816128c4576128bd6128b0848661212c565b869063ffffffff6127fa16565b90506129ad565b6000806128da600485028663ffffffff6123b516565b9050806128f157670de0b6b3a76400009150612971565b8581878302816128fd57fe5b0414156129385761293161292c6ec097ce7bc90715b34b9f1000000000612642848a028b63ffffffff6123f616565b612d5b565b9150612971565b61296e61292c6ec097ce7bc90715b34b9f100000000061264289612962868d63ffffffff6123f616565b9063ffffffff6123b516565b91505b600061299b670de0b6b3a7640000612642612992868363ffffffff611ff916565b886002026129d6565b90506129a7888261212c565b93505050505b949350505050565b60006120206ec097ce7bc90715b34b9f10000000008363ffffffff6123f616565b60006123ef8261134f85670de0b6b3a764000063ffffffff6123b516565b6000808611612a155760405162461bcd60e51b815260040161046f90613214565b83612a2257506000612c79565b81612a4f5784612a32848661212c565b11612a4657612a41838561212c565b612a48565b845b9050612c79565b670de0b6b3a7640000821415612b0f57600080612a72858763ffffffff6123b516565b905080612a825760009150612adb565b868188830281612a8e57fe5b041415612abe57612ab7612aa8898063ffffffff6123b516565b8289029063ffffffff6123f616565b9150612adb565b612ad88861134f8761296283838c8e63ffffffff6123b516565b91505b612b06612af683670de0b6b3a764000063ffffffff6127fa16565b61134f898563ffffffff6123b516565b92505050612c79565b6000612b3c612b24858763ffffffff6123b516565b612642896129628a61134f898463ffffffff6123b516565b90506000612b5c87612962670de0b6b3a76400008763ffffffff611ff916565b90506000828210612b8257612b77828463ffffffff611ff916565b915060009050612b99565b612b92838363ffffffff611ff916565b9150600190505b612bb182670de0b6b3a764000063ffffffff6123f616565b91506000612be8612bd56004612962670de0b6b3a76400008a63ffffffff611ff916565b612be38c6129628a8f61212c565b61212c565b9050612c0161292c82612642868063ffffffff6123b516565b90506000612c226002612962670de0b6b3a76400008a63ffffffff611ff916565b905060008315612c4357612c3c838663ffffffff611ff916565b9050612c56565b612c53858463ffffffff6127fa16565b90505b612c70612c638284612d92565b8c9063ffffffff611ff916565b96505050505050505b95945050505050565b6000808611612ca35760405162461bcd60e51b815260040161046f90613214565b6000612cc5612cb8878763ffffffff611ff916565b859063ffffffff6123b516565b905082612cec57612ce481670de0b6b3a764000063ffffffff6123f616565b915050612c79565b6000612d0b612d058861134f8b8063ffffffff6123b516565b876129d6565b90506000612d19858361212c565b9050612d4e6ec097ce7bc90715b34b9f100000000061134f8561296285612642670de0b6b3a76400008c63ffffffff611ff916565b9998505050505050505050565b80600160028204015b81811015612d8c57809150600281828581612d7b57fe5b040181612d8457fe5b049050612d64565b50919050565b60006123ef82612db085670de0b6b3a764000063ffffffff6123b516565b9063ffffffff612dbc16565b600080612dc984846123f6565b905082810284038015612de157506001019050612020565b509050612020565b6040518060e0016040528060008152602001600081526020016000815260200160008152602001600081526020016000815260200160006002811115612e2b57fe5b905290565b80356001600160a01b038116811461202057600080fd5b600060208284031215612e58578081fd5b6123ef8383612e30565b600080600080600080600080610100898b031215612e7e578384fd5b612e888a8a612e30565b9750612e978a60208b01612e30565b9650612ea68a60408b01612e30565b9550612eb58a60608b01612e30565b945060808901359350612ecb8a60a08b01612e30565b925060c0890135915060e089013590509295985092959890939650565b600080600060608486031215612efc578283fd5b8335612f0781613636565b92506020840135612f1781613636565b929592945050506040919091013590565b60008060408385031215612f3a578182fd5b612f448484612e30565b946020939093013593505050565b600080600080600080600080610100898b031215612f6e578384fd5b8835612f7981613636565b9a60208a01359a5060408a013599606081013599506080810135985060a0810135975060c0810135965060e00135945092505050565b600060208284031215612fc0578081fd5b815180151581146123ef578182fd5b600060208284031215612fe0578081fd5b5051919050565b600080600080600060808688031215612ffe578081fd5b85359450602086013593506130168760408801612e30565b9250606086013567ffffffffffffffff80821115613032578283fd5b81880189601f820112613043578384fd5b8035925081831115613053578384fd5b896020848301011115613064578384fd5b6020810194505050809150509295509295909350565b6003811061308457fe5b9052565b6000825161309a81846020870161360a565b9190910192915050565b6001600160a01b0391909116815260200190565b6001600160a01b0394851681529290931660208301526040820152606081019190915260800190565b600060018060a01b038716825285602083015284604083015260806060830152826080830152828460a084013781830160a090810191909152601f909201601f19160101949350505050565b6001600160a01b039586168152938516602085015260408401929092526060830152909116608082015260a00190565b6001600160a01b03929092168252602082015260400190565b901515815260200190565b60208101612020828461307a565b60006020825282518060208401526131ae81604085016020870161360a565b601f01601f19169190910160400192915050565b60208082526011908201527011931054d217d313d05397d19052531151607a1b604082015260600190565b6020808252600d908201526c494e56414c49445f434c41494d60981b604082015260600190565b6020808252600e908201526d5441524745545f49535f5a45524f60901b604082015260600190565b6020808252600e908201526d495f4f55545f4f465f52414e474560901b604082015260600190565b60208082526009908201526814915153951490539560ba1b604082015260600190565b6020808252601a908201527f424153455f51554f54455f43414e5f4e4f545f42455f53414d45000000000000604082015260600190565b6020808252818101527f5361666545524332303a206c6f772d6c6576656c2063616c6c206661696c6564604082015260600190565b6020808252600e908201526d2224ab24a224a723afa2a92927a960911b604082015260600190565b60208082526009908201526829aaa12fa2a92927a960b91b604082015260600190565b60208082526010908201526f1113d113d7d25392551250531256915160821b604082015260600190565b6020808252601c908201527f524553455256455f414d4f554e545f49535f4e4f545f454e4f55474800000000604082015260600190565b6020808252600e908201526d4b5f4f55545f4f465f52414e474560901b604082015260600190565b60208082526018908201527f4c505f4645455f524154455f4f55545f4f465f52414e47450000000000000000604082015260600190565b6020808252600890820152674f564552464c4f5760c01b604082015260600190565b6020808252600990820152682727aa2fa7aba722a960b91b604082015260600190565b60208082526009908201526820a2222fa2a92927a960b91b604082015260600190565b6020808252602a908201527f5361666545524332303a204552433230206f7065726174696f6e20646964206e6040820152691bdd081cdd58d8d9595960b21b606082015260800190565b6020808252600990820152681554d157d49154d15560ba1b604082015260600190565b60208082526009908201526826aaa62fa2a92927a960b91b604082015260600190565b600060e082019050825182526020830151602083015260408301516040830152606083015160608301526080830151608083015260a083015160a083015260c083015161354660c084018261307a565b5092915050565b6001600160781b0391909116815260200190565b6001600160801b0391909116815260200190565b61ffff91909116815260200190565b90815260200190565b918252602082015260400190565b84815260208101849052608081016135b6604083018561307a565b82606083015295945050505050565b968752602087019590955260408601939093526060850191909152608084015260a083015260c082015260e00190565b67ffffffffffffffff91909116815260200190565b60005b8381101561362557818101518382015260200161360d565b838111156127755750506000910152565b6001600160a01b038116811461234857600080fdfeaab6d03ea36f5f89ed87167c37cd684594ee4d483b7d8b82cef6c3fcc54dc24cdf176ad18be4f9f32efaa32f06e9d1175476504739a745f1399a6d3fa4b75917a26469706673582212208072ff7a952fc088d86dfb070215dcc74ccccd2ddc15c5b5e29304f4b4ee594964736f6c63430006090033",
  "immutableReferences": {},
  "source": "/*\n\n    Copyright 2020 DODO ZOO.\n    SPDX-License-Identifier: Apache-2.0\n\n*/\n\npragma solidity 0.6.9;\npragma experimental ABIEncoderV2;\n\nimport {IFeeRateModel} from \"../../lib/FeeRateModel.sol\";\nimport {IERC20} from \"../../intf/IERC20.sol\";\nimport {DPPTrader} from \"./DPPTrader.sol\";\n\n/**\n * @title DODO PrivatePool\n * @author DODO Breeder\n *\n * @notice DODOPrivatePool initialization\n */\ncontract DPP is DPPTrader {\n    function init(\n        address owner,\n        address maintainer,\n        address baseTokenAddress,\n        address quoteTokenAddress,\n        uint256 lpFeeRate,\n        address mtFeeRateModel,\n        uint256 k,\n        uint256 i\n    ) external {\n        initOwner(owner);\n\n        require(baseTokenAddress != quoteTokenAddress, \"BASE_QUOTE_CAN_NOT_BE_SAME\");\n        _BASE_TOKEN_ = IERC20(baseTokenAddress);\n        _QUOTE_TOKEN_ = IERC20(quoteTokenAddress);\n\n        _MAINTAINER_ = maintainer;\n        _MT_FEE_RATE_MODEL_ = IFeeRateModel(mtFeeRateModel);\n        \n        require(lpFeeRate <= 1e18, \"LP_FEE_RATE_OUT_OF_RANGE\");\n        require(k <= 1e18, \"K_OUT_OF_RANGE\");\n        require(i > 0 && i <= 1e36, \"I_OUT_OF_RANGE\");\n        _LP_FEE_RATE_ = uint64(lpFeeRate);\n        _K_ = uint64(k);\n        _I_ = uint128(i);\n        _resetTargetAndReserve();\n    }\n\n    // ============ Version Control ============\n\n    function version() external pure returns (string memory) {\n        return \"DPP 1.0.0\";\n    }\n}\n",
  "sourcePath": "/Users/niutaotao/projects/dodo/contractV2/contracts/DODOPrivatePool/impl/DPP.sol",
  "compiler": {
    "name": "solc",
    "version": "0.6.9+commit.3e3065ac.Emscripten.clang"
  },
  "schemaVersion": "3.3.2",
  "updatedAt": "2021-01-13T13:03:23.704Z",
  "devdoc": {
    "author": "DODO Breeder",
    "methods": {},
    "title": "DODO PrivatePool"
  },
  "userdoc": {
    "methods": {},
    "notice": "DODOPrivatePool initialization"
  }
}