{
  "contractName": "DPP",
  "abi": [
    {
      "anonymous": false,
      "inputs": [
        {
          "indexed": false,
          "internalType": "address",
          "name": "borrower",
          "type": "address"
        },
        {
          "indexed": false,
          "internalType": "address",
          "name": "assetTo",
          "type": "address"
        },
        {
          "indexed": false,
          "internalType": "uint256",
          "name": "baseAmount",
          "type": "uint256"
        },
        {
          "indexed": false,
          "internalType": "uint256",
          "name": "quoteAmount",
          "type": "uint256"
        }
      ],
      "name": "DODOFlashLoan",
      "type": "event"
    },
    {
      "anonymous": false,
      "inputs": [
        {
          "indexed": false,
          "internalType": "address",
          "name": "fromToken",
          "type": "address"
        },
        {
          "indexed": false,
          "internalType": "address",
          "name": "toToken",
          "type": "address"
        },
        {
          "indexed": false,
          "internalType": "uint256",
          "name": "fromAmount",
          "type": "uint256"
        },
        {
          "indexed": false,
          "internalType": "uint256",
          "name": "toAmount",
          "type": "uint256"
        },
        {
          "indexed": false,
          "internalType": "address",
          "name": "trader",
          "type": "address"
        },
        {
          "indexed": false,
          "internalType": "address",
          "name": "receiver",
          "type": "address"
        }
      ],
      "name": "DODOSwap",
      "type": "event"
    },
    {
      "anonymous": false,
      "inputs": [
        {
          "indexed": false,
          "internalType": "uint256",
          "name": "newLpFeeRate",
          "type": "uint256"
        }
      ],
      "name": "LpFeeRateChange",
      "type": "event"
    },
    {
      "anonymous": false,
      "inputs": [
        {
          "indexed": true,
          "internalType": "address",
          "name": "previousOwner",
          "type": "address"
        },
        {
          "indexed": true,
          "internalType": "address",
          "name": "newOwner",
          "type": "address"
        }
      ],
      "name": "OwnershipTransferPrepared",
      "type": "event"
    },
    {
      "anonymous": false,
      "inputs": [
        {
          "indexed": true,
          "internalType": "address",
          "name": "previousOwner",
          "type": "address"
        },
        {
          "indexed": true,
          "internalType": "address",
          "name": "newOwner",
          "type": "address"
        }
      ],
      "name": "OwnershipTransferred",
      "type": "event"
    },
    {
      "anonymous": false,
      "inputs": [
        {
          "indexed": false,
          "internalType": "enum PMMPricing.RState",
          "name": "newRState",
          "type": "uint8"
        }
      ],
      "name": "RChange",
      "type": "event"
    },
    {
      "inputs": [],
      "name": "_BASE_RESERVE_",
      "outputs": [
        {
          "internalType": "uint128",
          "name": "",
          "type": "uint128"
        }
      ],
      "stateMutability": "view",
      "type": "function"
    },
    {
      "inputs": [],
      "name": "_BASE_TARGET_",
      "outputs": [
        {
          "internalType": "uint120",
          "name": "",
          "type": "uint120"
        }
      ],
      "stateMutability": "view",
      "type": "function"
    },
    {
      "inputs": [],
      "name": "_BASE_TOKEN_",
      "outputs": [
        {
          "internalType": "contract IERC20",
          "name": "",
          "type": "address"
        }
      ],
      "stateMutability": "view",
      "type": "function"
    },
    {
      "inputs": [],
      "name": "_I_",
      "outputs": [
        {
          "internalType": "uint128",
          "name": "",
          "type": "uint128"
        }
      ],
      "stateMutability": "view",
      "type": "function"
    },
    {
      "inputs": [],
      "name": "_K_",
      "outputs": [
        {
          "internalType": "uint64",
          "name": "",
          "type": "uint64"
        }
      ],
      "stateMutability": "view",
      "type": "function"
    },
    {
      "inputs": [],
      "name": "_LP_FEE_RATE_",
      "outputs": [
        {
          "internalType": "uint64",
          "name": "",
          "type": "uint64"
        }
      ],
      "stateMutability": "view",
      "type": "function"
    },
    {
      "inputs": [],
      "name": "_MAINTAINER_",
      "outputs": [
        {
          "internalType": "address",
          "name": "",
          "type": "address"
        }
      ],
      "stateMutability": "view",
      "type": "function"
    },
    {
      "inputs": [],
      "name": "_MT_FEE_RATE_MODEL_",
      "outputs": [
        {
          "internalType": "contract IFeeRateModel",
          "name": "",
          "type": "address"
        }
      ],
      "stateMutability": "view",
      "type": "function"
    },
    {
      "inputs": [],
      "name": "_NEW_OWNER_",
      "outputs": [
        {
          "internalType": "address",
          "name": "",
          "type": "address"
        }
      ],
      "stateMutability": "view",
      "type": "function"
    },
    {
      "inputs": [],
      "name": "_OWNER_",
      "outputs": [
        {
          "internalType": "address",
          "name": "",
          "type": "address"
        }
      ],
      "stateMutability": "view",
      "type": "function"
    },
    {
      "inputs": [],
      "name": "_QUOTE_RESERVE_",
      "outputs": [
        {
          "internalType": "uint128",
          "name": "",
          "type": "uint128"
        }
      ],
      "stateMutability": "view",
      "type": "function"
    },
    {
      "inputs": [],
      "name": "_QUOTE_TARGET_",
      "outputs": [
        {
          "internalType": "uint120",
          "name": "",
          "type": "uint120"
        }
      ],
      "stateMutability": "view",
      "type": "function"
    },
    {
      "inputs": [],
      "name": "_QUOTE_TOKEN_",
      "outputs": [
        {
          "internalType": "contract IERC20",
          "name": "",
          "type": "address"
        }
      ],
      "stateMutability": "view",
      "type": "function"
    },
    {
      "inputs": [],
      "name": "_RState_",
      "outputs": [
        {
          "internalType": "uint16",
          "name": "",
          "type": "uint16"
        }
      ],
      "stateMutability": "view",
      "type": "function"
    },
    {
      "inputs": [],
      "name": "claimOwnership",
      "outputs": [],
      "stateMutability": "nonpayable",
      "type": "function"
    },
    {
      "inputs": [
        {
          "internalType": "uint256",
          "name": "baseAmount",
          "type": "uint256"
        },
        {
          "internalType": "uint256",
          "name": "quoteAmount",
          "type": "uint256"
        },
        {
          "internalType": "address",
          "name": "assetTo",
          "type": "address"
        },
        {
          "internalType": "bytes",
          "name": "data",
          "type": "bytes"
        }
      ],
      "name": "flashLoan",
      "outputs": [],
      "stateMutability": "nonpayable",
      "type": "function"
    },
    {
      "inputs": [],
      "name": "getBaseInput",
      "outputs": [
        {
          "internalType": "uint256",
          "name": "input",
          "type": "uint256"
        }
      ],
      "stateMutability": "view",
      "type": "function"
    },
    {
      "inputs": [],
      "name": "getMidPrice",
      "outputs": [
        {
          "internalType": "uint256",
          "name": "midPrice",
          "type": "uint256"
        }
      ],
      "stateMutability": "view",
      "type": "function"
    },
    {
      "inputs": [],
      "name": "getPMMState",
      "outputs": [
        {
          "components": [
            {
              "internalType": "uint256",
              "name": "i",
              "type": "uint256"
            },
            {
              "internalType": "uint256",
              "name": "K",
              "type": "uint256"
            },
            {
              "internalType": "uint256",
              "name": "B",
              "type": "uint256"
            },
            {
              "internalType": "uint256",
              "name": "Q",
              "type": "uint256"
            },
            {
              "internalType": "uint256",
              "name": "B0",
              "type": "uint256"
            },
            {
              "internalType": "uint256",
              "name": "Q0",
              "type": "uint256"
            },
            {
              "internalType": "enum PMMPricing.RState",
              "name": "R",
              "type": "uint8"
            }
          ],
          "internalType": "struct PMMPricing.PMMState",
          "name": "state",
          "type": "tuple"
        }
      ],
      "stateMutability": "view",
      "type": "function"
    },
    {
      "inputs": [],
      "name": "getPMMStateForCall",
      "outputs": [
        {
          "internalType": "uint256",
          "name": "i",
          "type": "uint256"
        },
        {
          "internalType": "uint256",
          "name": "K",
          "type": "uint256"
        },
        {
          "internalType": "uint256",
          "name": "B",
          "type": "uint256"
        },
        {
          "internalType": "uint256",
          "name": "Q",
          "type": "uint256"
        },
        {
          "internalType": "uint256",
          "name": "B0",
          "type": "uint256"
        },
        {
          "internalType": "uint256",
          "name": "Q0",
          "type": "uint256"
        },
        {
          "internalType": "uint256",
          "name": "R",
          "type": "uint256"
        }
      ],
      "stateMutability": "view",
      "type": "function"
    },
    {
      "inputs": [],
      "name": "getQuoteInput",
      "outputs": [
        {
          "internalType": "uint256",
          "name": "input",
          "type": "uint256"
        }
      ],
      "stateMutability": "view",
      "type": "function"
    },
    {
      "inputs": [
        {
          "internalType": "address",
          "name": "user",
          "type": "address"
        }
      ],
      "name": "getUserFeeRate",
      "outputs": [
        {
          "internalType": "uint256",
          "name": "lpFeeRate",
          "type": "uint256"
        },
        {
          "internalType": "uint256",
          "name": "mtFeeRate",
          "type": "uint256"
        }
      ],
      "stateMutability": "view",
      "type": "function"
    },
    {
      "inputs": [],
      "name": "getVaultReserve",
      "outputs": [
        {
          "internalType": "uint256",
          "name": "baseReserve",
          "type": "uint256"
        },
        {
          "internalType": "uint256",
          "name": "quoteReserve",
          "type": "uint256"
        }
      ],
      "stateMutability": "view",
      "type": "function"
    },
    {
      "inputs": [
        {
          "internalType": "address",
          "name": "newOwner",
          "type": "address"
        }
      ],
      "name": "initOwner",
      "outputs": [],
      "stateMutability": "nonpayable",
      "type": "function"
    },
    {
      "inputs": [
        {
          "internalType": "address",
          "name": "trader",
          "type": "address"
        },
        {
          "internalType": "uint256",
          "name": "payBaseAmount",
          "type": "uint256"
        }
      ],
      "name": "querySellBase",
      "outputs": [
        {
          "internalType": "uint256",
          "name": "receiveQuoteAmount",
          "type": "uint256"
        },
        {
          "internalType": "uint256",
          "name": "mtFee",
          "type": "uint256"
        },
        {
          "internalType": "enum PMMPricing.RState",
          "name": "newRState",
          "type": "uint8"
        },
        {
          "internalType": "uint256",
          "name": "newBaseTarget",
          "type": "uint256"
        }
      ],
      "stateMutability": "view",
      "type": "function"
    },
    {
      "inputs": [
        {
          "internalType": "address",
          "name": "trader",
          "type": "address"
        },
        {
          "internalType": "uint256",
          "name": "payQuoteAmount",
          "type": "uint256"
        }
      ],
      "name": "querySellQuote",
      "outputs": [
        {
          "internalType": "uint256",
          "name": "receiveBaseAmount",
          "type": "uint256"
        },
        {
          "internalType": "uint256",
          "name": "mtFee",
          "type": "uint256"
        },
        {
          "internalType": "enum PMMPricing.RState",
          "name": "newRState",
          "type": "uint8"
        },
        {
          "internalType": "uint256",
          "name": "newQuoteTarget",
          "type": "uint256"
        }
      ],
      "stateMutability": "view",
      "type": "function"
    },
    {
      "inputs": [],
      "name": "ratioSync",
      "outputs": [],
      "stateMutability": "nonpayable",
      "type": "function"
    },
    {
      "inputs": [
        {
          "internalType": "address",
          "name": "assetTo",
          "type": "address"
        },
        {
          "internalType": "uint256",
          "name": "newLpFeeRate",
          "type": "uint256"
        },
        {
          "internalType": "uint256",
          "name": "newI",
          "type": "uint256"
        },
        {
          "internalType": "uint256",
          "name": "newK",
          "type": "uint256"
        },
        {
          "internalType": "uint256",
          "name": "baseOutAmount",
          "type": "uint256"
        },
        {
          "internalType": "uint256",
          "name": "quoteOutAmount",
          "type": "uint256"
        },
        {
          "internalType": "uint256",
          "name": "minBaseReserve",
          "type": "uint256"
        },
        {
          "internalType": "uint256",
          "name": "minQuoteReserve",
          "type": "uint256"
        }
      ],
      "name": "reset",
      "outputs": [
        {
          "internalType": "bool",
          "name": "",
          "type": "bool"
        }
      ],
      "stateMutability": "nonpayable",
      "type": "function"
    },
    {
      "inputs": [
        {
          "internalType": "address",
          "name": "to",
          "type": "address"
        },
        {
          "internalType": "address",
          "name": "token",
          "type": "address"
        },
        {
          "internalType": "uint256",
          "name": "amount",
          "type": "uint256"
        }
      ],
      "name": "retrieve",
      "outputs": [],
      "stateMutability": "nonpayable",
      "type": "function"
    },
    {
      "inputs": [
        {
          "internalType": "address",
          "name": "to",
          "type": "address"
        }
      ],
      "name": "sellBase",
      "outputs": [
        {
          "internalType": "uint256",
          "name": "receiveQuoteAmount",
          "type": "uint256"
        }
      ],
      "stateMutability": "nonpayable",
      "type": "function"
    },
    {
      "inputs": [
        {
          "internalType": "address",
          "name": "to",
          "type": "address"
        }
      ],
      "name": "sellQuote",
      "outputs": [
        {
          "internalType": "uint256",
          "name": "receiveBaseAmount",
          "type": "uint256"
        }
      ],
      "stateMutability": "nonpayable",
      "type": "function"
    },
    {
      "inputs": [
        {
          "internalType": "address",
          "name": "newOwner",
          "type": "address"
        }
      ],
      "name": "transferOwnership",
      "outputs": [],
      "stateMutability": "nonpayable",
      "type": "function"
    },
    {
      "inputs": [
        {
          "internalType": "address",
          "name": "owner",
          "type": "address"
        },
        {
          "internalType": "address",
          "name": "maintainer",
          "type": "address"
        },
        {
          "internalType": "address",
          "name": "baseTokenAddress",
          "type": "address"
        },
        {
          "internalType": "address",
          "name": "quoteTokenAddress",
          "type": "address"
        },
        {
          "internalType": "uint256",
          "name": "lpFeeRate",
          "type": "uint256"
        },
        {
          "internalType": "address",
          "name": "mtFeeRateModel",
          "type": "address"
        },
        {
          "internalType": "uint256",
          "name": "k",
          "type": "uint256"
        },
        {
          "internalType": "uint256",
          "name": "i",
          "type": "uint256"
        }
      ],
      "name": "init",
      "outputs": [],
      "stateMutability": "nonpayable",
      "type": "function"
    },
    {
      "inputs": [],
      "name": "version",
      "outputs": [
        {
          "internalType": "string",
          "name": "",
          "type": "string"
        }
      ],
      "stateMutability": "pure",
      "type": "function"
    }
  ],
  "bytecode": "0x608060405234801561001057600080fd5b50613705806100206000396000f3fe608060405234801561001057600080fd5b50600436106102065760003560e01c80638ff3928c1161011a578063d4b97046116100ad578063ee27c6891161007c578063ee27c689146103ff578063f2fde38b14610407578063f6b06e701461041a578063f811d69214610422578063fd1ed7e91461042a57610206565b8063d4b97046146103d4578063dd93f59a146103dc578063e539ef49146103ef578063ec2fd46d146103f757610206565b8063bd6015b4116100e9578063bd6015b414610391578063bf357dae146103a4578063c57a5d03146103b9578063d0a494e4146103c157610206565b80638ff3928c1461033f578063a382d1b91461035f578063ab44a7a314610374578063bbf5ce781461038957610206565b80634e71e0c81161019d57806371f9100c1161016c57806371f9100c146102f257806377f58657146102fa57806379a048761461030f5780637d721504146103225780638456db151461033757610206565b80634e71e0c81461029d57806354fd4d50146102a557806365f6fcbb146102ba57806366410a21146102cf57610206565b806336223ce9116101d957806336223ce9146102645780634322ec831461027a57806344096609146102825780634a248d2a1461029557610206565b80630d0092971461020b57806316048bc41461022057806328c4e24c1461023e5780633044ace414610251575b600080fd5b61021e610219366004612e7f565b610445565b005b6102286104ae565b60405161023591906130ce565b60405180910390f35b61021e61024c366004612f20565b6104bd565b61021e61025f366004612e9a565b61059a565b61026c610720565b6040516102359291906135c8565b61022861073b565b61026c610290366004612e7f565b61074a565b6102286107e6565b61021e6107f5565b6102ad610883565b60405161023591906131c8565b6102c26108a7565b60405161023591906135bf565b6102e26102dd366004612f60565b61094e565b60405161023594939291906135d6565b6102c2610a4a565b610302610a93565b6040516102359190613588565b6102e261031d366004612f60565b610aa9565b61032a610b98565b604051610235919061359c565b610228610ba7565b61035261034d366004612f8a565b610bb6565b60405161023591906131aa565b610367610dc7565b604051610235919061352f565b61037c610e6e565b604051610235919061362f565b61032a610e85565b6102c261039f366004612e7f565b610e9b565b6103ac611156565b60405161023591906135b0565b61021e611167565b61021e6103cf36600461301f565b61143e565b610228611a2e565b6102c26103ea366004612e7f565b611a3d565b610302611ce3565b61037c611cf2565b6102c2611d02565b61021e610415366004612e7f565b611d14565b610228611d99565b61032a611da8565b610432611dbe565b60405161023597969594939291906135ff565b600154600160a01b900460ff16156104785760405162461bcd60e51b815260040161046f90613377565b60405180910390fd5b6001805460ff60a01b1916600160a01b179055600080546001600160a01b039092166001600160a01b0319909216919091179055565b6000546001600160a01b031681565b600154600160a81b900460ff16156104e75760405162461bcd60e51b815260040161046f9061329d565b6001805460ff60a81b1916600160a81b179055600054336001600160a01b03909116146105265760405162461bcd60e51b815260040161046f90613459565b6003546001600160a01b0383811691161480159061055257506004546001600160a01b03838116911614155b61056e5760405162461bcd60e51b815260040161046f906134e9565b6105886001600160a01b038316848363ffffffff611e2116565b50506001805460ff60a81b1916905550565b6105a388610445565b846001600160a01b0316866001600160a01b031614156105d55760405162461bcd60e51b815260040161046f906132c0565b600380546001600160a01b038089166001600160a01b03199283161790925560048054888416908316179055600280548a84169083161790556007805492861692909116919091179055670de0b6b3a76400008411156106475760405162461bcd60e51b815260040161046f90613400565b670de0b6b3a764000082111561066f5760405162461bcd60e51b815260040161046f906133d8565b60008111801561068e57506ec097ce7bc90715b34b9f10000000008111155b6106aa5760405162461bcd60e51b815260040161046f90613275565b6007805467ffffffffffffffff60a01b1916600160a01b67ffffffffffffffff87811691909102919091179091556008805467ffffffffffffffff191691841691909117600160401b600160c01b031916600160401b6001600160801b03841602179055610716611e7c565b5050505050505050565b6005546001600160801b0380821692600160801b9092041690565b6002546001600160a01b031681565b600754604051638198edbf60e01b815267ffffffffffffffff600160a01b830416916000916001600160a01b0390911690638198edbf9061078f9086906004016130ce565b60206040518083038186803b1580156107a757600080fd5b505afa1580156107bb573d6000803e3d6000fd5b505050506040513d601f19601f820116820180604052508101906107df9190613007565b9050915091565b6003546001600160a01b031681565b6001546001600160a01b0316331461081f5760405162461bcd60e51b815260040161046f90613226565b600154600080546040516001600160a01b0393841693909116917f8be0079c531659141344cd1fd0a4f28419497f9722a3daafe3b4186f6b6457e091a360018054600080546001600160a01b03199081166001600160a01b03841617909155169055565b604080518082019091526009815268044505020312e302e360bc1b60208201525b90565b6005546003546040516370a0823160e01b8152600092610949926001600160801b03909116916001600160a01b03909116906370a08231906108ed9030906004016130ce565b60206040518083038186803b15801561090557600080fd5b505afa158015610919573d6000803e3d6000fd5b505050506040513d601f19601f8201168201806040525081019061093d9190613007565b9063ffffffff61203116565b905090565b60008060008061095c612e21565b610964610dc7565b9050610970818761205e565b600754604051638198edbf60e01b815292975090945067ffffffffffffffff600160a01b820416916000916001600160a01b031690638198edbf906109b9908c906004016130ce565b60206040518083038186803b1580156109d157600080fd5b505afa1580156109e5573d6000803e3d6000fd5b505050506040513d601f19601f82011682018060405250810190610a099190613007565b9050610a158782612164565b9550610a358661093d610a288a86612164565b8a9063ffffffff61203116565b96508260a00151935050505092959194509250565b600554600480546040516370a0823160e01b815260009361094993600160801b9091046001600160801b0316926001600160a01b0316916370a08231916108ed913091016130ce565b600654600160781b90046001600160781b031681565b600080600080610ab7612e21565b610abf610dc7565b9050610acb818761218e565b600754604051638198edbf60e01b815292975090945067ffffffffffffffff600160a01b820416916000916001600160a01b031690638198edbf90610b14908c906004016130ce565b60206040518083038186803b158015610b2c57600080fd5b505afa158015610b40573d6000803e3d6000fd5b505050506040513d601f19601f82011682018060405250810190610b649190613007565b9050610b708782612164565b9550610b838661093d610a288a86612164565b96508260800151935050505092959194509250565b6005546001600160801b031681565b6001546001600160a01b031681565b600154600090600160a81b900460ff1615610be35760405162461bcd60e51b815260040161046f9061329d565b6001805460ff60a81b1916600160a81b179055600054336001600160a01b0390911614610c225760405162461bcd60e51b815260040161046f90613459565b6005546001600160801b03168311801590610c4f5750600554600160801b90046001600160801b03168211155b610c6b5760405162461bcd60e51b815260040161046f906133a1565b670de0b6b3a7640000881115610c935760405162461bcd60e51b815260040161046f90613400565b670de0b6b3a7640000861115610cbb5760405162461bcd60e51b815260040161046f906133d8565b600087118015610cda57506ec097ce7bc90715b34b9f10000000008711155b610cf65760405162461bcd60e51b815260040161046f90613275565b6007805467ffffffffffffffff60a01b1916600160a01b67ffffffffffffffff8b811691909102919091179091556008805467ffffffffffffffff191691881691909117600160401b600160c01b031916600160401b6001600160801b038a1602179055610d64898661228f565b610d6e89856122b6565b610d76611e7c565b7f9950d5a2f2c7264863d40100bf993f0cdbc4711806caba6284d07e80fd50087988604051610da591906135bf565b60405180910390a150506001805460ff60a81b19168155979650505050505050565b610dcf612e21565b6008546001600160801b03600160401b82048116835267ffffffffffffffff90911660208301526005548082166040840152600160801b90041660608201526006546001600160781b038082166080840152600160781b82041660a083015261ffff600160f01b909104166002811115610e4557fe5b8160c001906002811115610e5557fe5b90816002811115610e6257fe5b9052506108a4816122d9565b600754600160a01b900467ffffffffffffffff1681565b600554600160801b90046001600160801b031681565b600154600090600160a81b900460ff1615610ec85760405162461bcd60e51b815260040161046f9061329d565b6001805460ff60a81b1916600160a81b1790556003546040516370a0823160e01b81526000916001600160a01b0316906370a0823190610f0c9030906004016130ce565b60206040518083038186803b158015610f2457600080fd5b505afa158015610f38573d6000803e3d6000fd5b505050506040513d601f19601f82011682018060405250810190610f5c9190613007565b600554909150600090610f7f9083906001600160801b031663ffffffff61203116565b90506000806000610f903285610aa9565b9298509094509092509050610fa587876122b6565b600254610fbb906001600160a01b0316846122b6565b600480546040516370a0823160e01b81526110439288926001600160a01b0316916370a0823191610fee913091016130ce565b60206040518083038186803b15801561100657600080fd5b505afa15801561101a573d6000803e3d6000fd5b505050506040513d601f19601f8201168201806040525081019061103e9190613007565b612383565b80600281111561104f57fe5b600654600160f01b900461ffff9081169116146110fd5780600281111561107257fe5b6006805461ffff92909216600160f01b026001600160f01b039092169190911790556001600160781b038211156110bb5760405162461bcd60e51b815260040161046f90613437565b600680546001600160781b0319166001600160781b038416179055604051600080516020613690833981519152906110f49083906131b5565b60405180910390a15b6003546004546040516000805160206136b083398151915292611136926001600160a01b039182169291169088908b9033908e90613157565b60405180910390a150506001805460ff60a81b1916905550919392505050565b600654600160f01b900461ffff1681565b600154600160a81b900460ff16156111915760405162461bcd60e51b815260040161046f9061329d565b6001805460ff60a81b1916600160a81b179055600054336001600160a01b03909116146111d05760405162461bcd60e51b815260040161046f90613459565b6003546040516370a0823160e01b81526000916001600160a01b0316906370a08231906112019030906004016130ce565b60206040518083038186803b15801561121957600080fd5b505afa15801561122d573d6000803e3d6000fd5b505050506040513d601f19601f820116820180604052508101906112519190613007565b600480546040516370a0823160e01b81529293506000926001600160a01b03909116916370a0823191611286913091016130ce565b60206040518083038186803b15801561129e57600080fd5b505afa1580156112b2573d6000803e3d6000fd5b505050506040513d601f19601f820116820180604052508101906112d69190613007565b90506001600160781b0382118015906112f657506001600160781b038111155b6113125760405162461bcd60e51b815260040161046f90613437565b6005546001600160801b031682146113995760055460065461135d916001600160801b031690611351906001600160781b03168563ffffffff6123ed16565b9063ffffffff61242e16565b600680546001600160781b0319166001600160781b0392909216919091179055600580546001600160801b0319166001600160801b0384161790555b600554600160801b90046001600160801b0316811461142d576005546006546113e791600160801b90046001600160801b03169061135190600160781b90046001600160781b0316846123ed565b600680546001600160781b0392909216600160781b02600160781b600160f01b0319909216919091179055600580546001600160801b03808416600160801b0291161790555b50506001805460ff60a81b19169055565b600154600160a81b900460ff16156114685760405162461bcd60e51b815260040161046f9061329d565b6001805460ff60a81b1916600160a81b179055611485838661228f565b61148f83856122b6565b80156114fc57604051637ed1f1dd60e01b81526001600160a01b03841690637ed1f1dd906114c9903390899089908890889060040161310b565b600060405180830381600087803b1580156114e357600080fd5b505af11580156114f7573d6000803e3d6000fd5b505050505b6003546040516370a0823160e01b81526000916001600160a01b0316906370a082319061152d9030906004016130ce565b60206040518083038186803b15801561154557600080fd5b505afa158015611559573d6000803e3d6000fd5b505050506040513d601f19601f8201168201806040525081019061157d9190613007565b600480546040516370a0823160e01b81529293506000926001600160a01b03909116916370a08231916115b2913091016130ce565b60206040518083038186803b1580156115ca57600080fd5b505afa1580156115de573d6000803e3d6000fd5b505050506040513d601f19601f820116820180604052508101906116029190613007565b6005549091506001600160801b0316821015806116315750600554600160801b90046001600160801b03168110155b61164d5760405162461bcd60e51b815260040161046f906131fb565b6005546001600160801b031682101561181157600554600090611681908390600160801b90046001600160801b0316612031565b9050600080600080611693328661094e565b6005549397509195509350915084906116bb906001600160801b03168963ffffffff61203116565b11156116d95760405162461bcd60e51b815260040161046f906131fb565b6002546116ef906001600160a01b03168461228f565b8160028111156116fb57fe5b600654600160f01b900461ffff9081169116146117b25781600281111561171e57fe5b6006805461ffff92909216600160f01b026001600160f01b039092169190911790556001600160781b038111156117675760405162461bcd60e51b815260040161046f90613437565b60068054600160781b600160f01b031916600160781b6001600160781b03841602179055604051600080516020613690833981519152906117a99084906131b5565b60405180910390a15b6000805160206136b0833981519152600460009054906101000a90046001600160a01b0316600360009054906101000a90046001600160a01b03168787338f60405161180396959493929190613157565b60405180910390a150505050505b600554600160801b90046001600160801b03168110156119d35760055460009061184b9084906001600160801b031663ffffffff61203116565b905060008060008061185d3286610aa9565b60055493975091955093509150849061188690600160801b90046001600160801b031688612031565b11156118a45760405162461bcd60e51b815260040161046f906131fb565b6002546118ba906001600160a01b0316846122b6565b8160028111156118c657fe5b600654600160f01b900461ffff908116911614611974578160028111156118e957fe5b6006805461ffff92909216600160f01b026001600160f01b039092169190911790556001600160781b038111156119325760405162461bcd60e51b815260040161046f90613437565b600680546001600160781b0319166001600160781b0383161790556040516000805160206136908339815191529061196b9084906131b5565b60405180910390a15b6000805160206136b0833981519152600360009054906101000a90046001600160a01b0316600460009054906101000a90046001600160a01b03168787338f6040516119c596959493929190613157565b60405180910390a150505050505b6119db612458565b7f0b82e93068db15abd9fbb2682c65462ea8a0a10582dce93a5664818e296f54eb33868989604051611a1094939291906130e2565b60405180910390a150506001805460ff60a81b191690555050505050565b6004546001600160a01b031681565b600154600090600160a81b900460ff1615611a6a5760405162461bcd60e51b815260040161046f9061329d565b6001805460ff60a81b1916600160a81b179055600480546040516370a0823160e01b81526000926001600160a01b03909216916370a0823191611aaf913091016130ce565b60206040518083038186803b158015611ac757600080fd5b505afa158015611adb573d6000803e3d6000fd5b505050506040513d601f19601f82011682018060405250810190611aff9190613007565b600554909150600090611b23908390600160801b90046001600160801b0316612031565b90506000806000611b34328561094e565b9298509094509092509050611b49878761228f565b600254611b5f906001600160a01b03168461228f565b6003546040516370a0823160e01b8152611be7916001600160a01b0316906370a0823190611b919030906004016130ce565b60206040518083038186803b158015611ba957600080fd5b505afa158015611bbd573d6000803e3d6000fd5b505050506040513d601f19601f82011682018060405250810190611be19190613007565b86612383565b806002811115611bf357fe5b600654600160f01b900461ffff908116911614611caa57806002811115611c1657fe5b6006805461ffff92909216600160f01b026001600160f01b039092169190911790556001600160781b03821115611c5f5760405162461bcd60e51b815260040161046f90613437565b60068054600160781b600160f01b031916600160781b6001600160781b0385160217905560405160008051602061369083398151915290611ca19083906131b5565b60405180910390a15b6004546003546040516000805160206136b083398151915292611136926001600160a01b039182169291169088908b9033908e90613157565b6006546001600160781b031681565b60085467ffffffffffffffff1681565b6000610949611d0f610dc7565b6125ff565b6000546001600160a01b03163314611d3e5760405162461bcd60e51b815260040161046f90613459565b600080546040516001600160a01b03808516939216917fdcf55418cee3220104fef63f979ff3c4097ad240c0c43dcb33ce837748983e6291a3600180546001600160a01b0319166001600160a01b0392909216919091179055565b6007546001600160a01b031681565b600854600160401b90046001600160801b031681565b6000806000806000806000611dd1612e21565b611dd9610dc7565b905080600001519750806020015196508060400151955080606001519450806080015193508060a0015192508060c001516002811115611e1557fe5b91505090919293949596565b611e778363a9059cbb60e01b8484604051602401611e40929190613191565b60408051601f198184030181529190526020810180516001600160e01b03166001600160e01b0319909316929092179091526126f6565b505050565b6003546040516370a0823160e01b81526000916001600160a01b0316906370a0823190611ead9030906004016130ce565b60206040518083038186803b158015611ec557600080fd5b505afa158015611ed9573d6000803e3d6000fd5b505050506040513d601f19601f82011682018060405250810190611efd9190613007565b600480546040516370a0823160e01b81529293506000926001600160a01b03909116916370a0823191611f32913091016130ce565b60206040518083038186803b158015611f4a57600080fd5b505afa158015611f5e573d6000803e3d6000fd5b505050506040513d601f19601f82011682018060405250810190611f829190613007565b90506001600160781b038211801590611fa257506001600160781b038111155b611fbe5760405162461bcd60e51b815260040161046f90613437565b600580546001600160801b03838116600160801b028582166001600160801b03199093169290921716179055600680546001600160781b03928316600160781b02600160781b600160f01b0319939094166001600160781b03199091161791909116919091176001600160f01b03169055565b6000828211156120535760405162461bcd60e51b815260040161046f90613354565b508082035b92915050565b600080808460c00151600281111561207257fe5b141561208d5761208284846127b3565b91506001905061215d565b60018460c00151600281111561209f57fe5b14156120af5761208284846127da565b60006120cc85606001518660a0015161203190919063ffffffff16565b905060006120eb8660800151876040015161203190919063ffffffff16565b905081851015612116576120ff86866127f7565b93506002925080841115612111578093505b61215a565b8185141561212a578093506000925061215a565b61215361214687612141888663ffffffff61203116565b6127b3565b829063ffffffff61283216565b9350600192505b50505b9250929050565b6000670de0b6b3a764000061217f848463ffffffff6123ed16565b8161218657fe5b049392505050565b600080808460c0015160028111156121a257fe5b14156121bd576121b28484612857565b91506002905061215d565b60018460c0015160028111156121cf57fe5b141561227a5760006121f28560400151866080015161203190919063ffffffff16565b905060006122118660a00151876060015161203190919063ffffffff16565b90508185101561223c576122258686612876565b93506001925080841115612237578093505b612273565b818514156122505780935060009250612273565b61226c61214687612267888663ffffffff61203116565b612857565b9350600292505b505061215d565b61228484846128a8565b946002945092505050565b80156122b2576003546122b2906001600160a01b0316838363ffffffff611e2116565b5050565b80156122b2576004546122b2906001600160a01b0316838363ffffffff611e2116565b60028160c0015160028111156122eb57fe5b141561232a5761232081606001516123148360800151846040015161203190919063ffffffff16565b835160208501516128c7565b60a0820152612380565b60018160c00151600281111561233c57fe5b14156123805761237a81604001516123658360a00151846060015161203190919063ffffffff16565b8351612370906129ed565b84602001516128c7565b60808201525b50565b6001600160781b0382118015906123a157506001600160781b038111155b6123bd5760405162461bcd60e51b815260040161046f90613437565b600580546001600160801b03928316600160801b029383166001600160801b031990911617909116919091179055565b6000826123fc57506000612058565b8282028284828161240957fe5b04146124275760405162461bcd60e51b815260040161046f9061350c565b9392505050565b600080821161244f5760405162461bcd60e51b815260040161046f9061332c565b81838161218657fe5b6003546040516370a0823160e01b81526000916001600160a01b0316906370a08231906124899030906004016130ce565b60206040518083038186803b1580156124a157600080fd5b505afa1580156124b5573d6000803e3d6000fd5b505050506040513d601f19601f820116820180604052508101906124d99190613007565b600480546040516370a0823160e01b81529293506000926001600160a01b03909116916370a082319161250e913091016130ce565b60206040518083038186803b15801561252657600080fd5b505afa15801561253a573d6000803e3d6000fd5b505050506040513d601f19601f8201168201806040525081019061255e9190613007565b90506001600160781b03821180159061257e57506001600160781b038111155b61259a5760405162461bcd60e51b815260040161046f90613437565b6005546001600160801b031682146125c857600580546001600160801b0319166001600160801b0384161790555b600554600160801b90046001600160801b031681146122b257600580546001600160801b03808416600160801b0291161790555050565b600060028260c00151600281111561261357fe5b141561269e57606082015160a08301516000916126499161263f9190611351908063ffffffff6123ed16565b8460600151612a0e565b905061268661265c846020015183612164565b602085015161267a90670de0b6b3a76400009063ffffffff61203116565b9063ffffffff61283216565b9050612696836000015182612a0e565b9150506126f1565b604082015160808301516000916126ce916126c49190611351908063ffffffff6123ed16565b8460400151612a0e565b90506126e161265c846020015183612164565b9050612696836000015182612164565b919050565b60006060836001600160a01b03168360405161271291906130b2565b6000604051808303816000865af19150503d806000811461274f576040519150601f19603f3d011682016040523d82523d6000602084013e612754565b606091505b5091509150816127765760405162461bcd60e51b815260040161046f906132f7565b8051156127ad57808060200190518101906127919190612fe7565b6127ad5760405162461bcd60e51b815260040161046f9061349f565b50505050565b600061242783608001518460800151846127d087600001516129ed565b8760200151612a2c565b600061242783608001518460400151846127d087600001516129ed565b60006124278360a0015161281884866060015161283290919063ffffffff16565b60608601518651612828906129ed565b8760200151612cba565b6000828201838110156124275760405162461bcd60e51b815260040161046f9061347c565b60006124278360a001518460a001518486600001518760200151612a2c565b6000612427836080015161289784866040015161283290919063ffffffff16565b604086015186516020880151612cba565b60006124278360a0015184606001518486600001518760200151612a2c565b6000846128d6575060006129e5565b816128fc576128f56128e88486612164565b869063ffffffff61283216565b90506129e5565b600080612912600485028663ffffffff6123ed16565b90508061292957670de0b6b3a764000091506129a9565b85818783028161293557fe5b041415612970576129696129646ec097ce7bc90715b34b9f100000000061267a848a028b63ffffffff61242e16565b612d93565b91506129a9565b6129a66129646ec097ce7bc90715b34b9f100000000061267a8961299a868d63ffffffff61242e16565b9063ffffffff6123ed16565b91505b60006129d3670de0b6b3a764000061267a6129ca868363ffffffff61203116565b88600202612a0e565b90506129df8882612164565b93505050505b949350505050565b60006120586ec097ce7bc90715b34b9f10000000008363ffffffff61242e16565b60006124278261135185670de0b6b3a764000063ffffffff6123ed16565b6000808611612a4d5760405162461bcd60e51b815260040161046f9061324d565b83612a5a57506000612cb1565b81612a875784612a6a8486612164565b11612a7e57612a798385612164565b612a80565b845b9050612cb1565b670de0b6b3a7640000821415612b4757600080612aaa858763ffffffff6123ed16565b905080612aba5760009150612b13565b868188830281612ac657fe5b041415612af657612aef612ae0898063ffffffff6123ed16565b8289029063ffffffff61242e16565b9150612b13565b612b10886113518761299a83838c8e63ffffffff6123ed16565b91505b612b3e612b2e83670de0b6b3a764000063ffffffff61283216565b611351898563ffffffff6123ed16565b92505050612cb1565b6000612b74612b5c858763ffffffff6123ed16565b61267a8961299a8a611351898463ffffffff6123ed16565b90506000612b948761299a670de0b6b3a76400008763ffffffff61203116565b90506000828210612bba57612baf828463ffffffff61203116565b915060009050612bd1565b612bca838363ffffffff61203116565b9150600190505b612be982670de0b6b3a764000063ffffffff61242e16565b91506000612c20612c0d600461299a670de0b6b3a76400008a63ffffffff61203116565b612c1b8c61299a8a8f612164565b612164565b9050612c396129648261267a868063ffffffff6123ed16565b90506000612c5a600261299a670de0b6b3a76400008a63ffffffff61203116565b905060008315612c7b57612c74838663ffffffff61203116565b9050612c8e565b612c8b858463ffffffff61283216565b90505b612ca8612c9b8284612dca565b8c9063ffffffff61203116565b96505050505050505b95945050505050565b6000808611612cdb5760405162461bcd60e51b815260040161046f9061324d565b6000612cfd612cf0878763ffffffff61203116565b859063ffffffff6123ed16565b905082612d2457612d1c81670de0b6b3a764000063ffffffff61242e16565b915050612cb1565b6000612d43612d3d886113518b8063ffffffff6123ed16565b87612a0e565b90506000612d518583612164565b9050612d866ec097ce7bc90715b34b9f10000000006113518561299a8561267a670de0b6b3a76400008c63ffffffff61203116565b9998505050505050505050565b80600160028204015b81811015612dc457809150600281828581612db357fe5b040181612dbc57fe5b049050612d9c565b50919050565b600061242782612de885670de0b6b3a764000063ffffffff6123ed16565b9063ffffffff612df416565b600080612e01848461242e565b905082810284038015612e1957506001019050612058565b509050612058565b6040518060e0016040528060008152602001600081526020016000815260200160008152602001600081526020016000815260200160006002811115612e6357fe5b905290565b80356001600160a01b038116811461205857600080fd5b600060208284031215612e90578081fd5b6124278383612e68565b600080600080600080600080610100898b031215612eb6578384fd5b612ec08a8a612e68565b9750612ecf8a60208b01612e68565b9650612ede8a60408b01612e68565b9550612eed8a60608b01612e68565b945060808901359350612f038a60a08b01612e68565b925060c0890135915060e089013590509295985092959890939650565b600080600060608486031215612f34578283fd5b8335612f3f8161367a565b92506020840135612f4f8161367a565b929592945050506040919091013590565b60008060408385031215612f72578182fd5b612f7c8484612e68565b946020939093013593505050565b600080600080600080600080610100898b031215612fa6578384fd5b8835612fb18161367a565b9a60208a01359a5060408a013599606081013599506080810135985060a0810135975060c0810135965060e00135945092505050565b600060208284031215612ff8578081fd5b81518015158114612427578182fd5b600060208284031215613018578081fd5b5051919050565b600080600080600060808688031215613036578081fd5b853594506020860135935061304e8760408801612e68565b9250606086013567ffffffffffffffff8082111561306a578283fd5b81880189601f82011261307b578384fd5b803592508183111561308b578384fd5b89602084830101111561309c578384fd5b6020810194505050809150509295509295909350565b600082516130c4818460208701613644565b9190910192915050565b6001600160a01b0391909116815260200190565b6001600160a01b0394851681529290931660208301526040820152606081019190915260800190565b600060018060a01b038716825285602083015284604083015260806060830152826080830152828460a084013781830160a090810191909152601f909201601f19160101949350505050565b6001600160a01b0396871681529486166020860152604085019390935260608401919091528316608083015290911660a082015260c00190565b6001600160a01b03929092168252602082015260400190565b901515815260200190565b602081016131c283613670565b91905290565b60006020825282518060208401526131e7816040850160208701613644565b601f01601f19169190910160400192915050565b60208082526011908201527011931054d217d313d05397d19052531151607a1b604082015260600190565b6020808252600d908201526c494e56414c49445f434c41494d60981b604082015260600190565b6020808252600e908201526d5441524745545f49535f5a45524f60901b604082015260600190565b6020808252600e908201526d495f4f55545f4f465f52414e474560901b604082015260600190565b60208082526009908201526814915153951490539560ba1b604082015260600190565b6020808252601a908201527f424153455f51554f54455f43414e5f4e4f545f42455f53414d45000000000000604082015260600190565b6020808252818101527f5361666545524332303a206c6f772d6c6576656c2063616c6c206661696c6564604082015260600190565b6020808252600e908201526d2224ab24a224a723afa2a92927a960911b604082015260600190565b60208082526009908201526829aaa12fa2a92927a960b91b604082015260600190565b60208082526010908201526f1113d113d7d25392551250531256915160821b604082015260600190565b6020808252601c908201527f524553455256455f414d4f554e545f49535f4e4f545f454e4f55474800000000604082015260600190565b6020808252600e908201526d4b5f4f55545f4f465f52414e474560901b604082015260600190565b60208082526018908201527f4c505f4645455f524154455f4f55545f4f465f52414e47450000000000000000604082015260600190565b6020808252600890820152674f564552464c4f5760c01b604082015260600190565b6020808252600990820152682727aa2fa7aba722a960b91b604082015260600190565b60208082526009908201526820a2222fa2a92927a960b91b604082015260600190565b6020808252602a908201527f5361666545524332303a204552433230206f7065726174696f6e20646964206e6040820152691bdd081cdd58d8d9595960b21b606082015260800190565b6020808252600990820152681554d157d49154d15560ba1b604082015260600190565b60208082526009908201526826aaa62fa2a92927a960b91b604082015260600190565b600060e082019050825182526020830151602083015260408301516040830152606083015160608301526080830151608083015260a083015160a083015260c083015161357b81613670565b8060c08401525092915050565b6001600160781b0391909116815260200190565b6001600160801b0391909116815260200190565b61ffff91909116815260200190565b90815260200190565b918252602082015260400190565b84815260208101849052608081016135ed84613670565b60408201939093526060015292915050565b968752602087019590955260408601939093526060850191909152608084015260a083015260c082015260e00190565b67ffffffffffffffff91909116815260200190565b60005b8381101561365f578181015183820152602001613647565b838111156127ad5750506000910152565b6003811061238057fe5b6001600160a01b038116811461238057600080fdfedf176ad18be4f9f32efaa32f06e9d1175476504739a745f1399a6d3fa4b75917c2c0245e056d5fb095f04cd6373bc770802ebd1e6c918eb78fdef843cdb37b0fa2646970667358221220b45fa48c87cac74bbec9bd5c7373796de2048441a1720a407535e516cda3c77264736f6c63430006090033",
  "immutableReferences": {},
  "source": "/*\n\n    Copyright 2020 DODO ZOO.\n    SPDX-License-Identifier: Apache-2.0\n\n*/\n\npragma solidity 0.6.9;\npragma experimental ABIEncoderV2;\n\nimport {IFeeRateModel} from \"../../lib/FeeRateModel.sol\";\nimport {IERC20} from \"../../intf/IERC20.sol\";\nimport {DPPTrader} from \"./DPPTrader.sol\";\n\n/**\n * @title DODO PrivatePool\n * @author DODO Breeder\n *\n * @notice DODOPrivatePool initialization\n */\ncontract DPP is DPPTrader {\n    function init(\n        address owner,\n        address maintainer,\n        address baseTokenAddress,\n        address quoteTokenAddress,\n        uint256 lpFeeRate,\n        address mtFeeRateModel,\n        uint256 k,\n        uint256 i\n    ) external {\n        initOwner(owner);\n\n        require(baseTokenAddress != quoteTokenAddress, \"BASE_QUOTE_CAN_NOT_BE_SAME\");\n        _BASE_TOKEN_ = IERC20(baseTokenAddress);\n        _QUOTE_TOKEN_ = IERC20(quoteTokenAddress);\n\n        _MAINTAINER_ = maintainer;\n        _MT_FEE_RATE_MODEL_ = IFeeRateModel(mtFeeRateModel);\n        \n        require(lpFeeRate <= 1e18, \"LP_FEE_RATE_OUT_OF_RANGE\");\n        require(k <= 1e18, \"K_OUT_OF_RANGE\");\n        require(i > 0 && i <= 1e36, \"I_OUT_OF_RANGE\");\n        _LP_FEE_RATE_ = uint64(lpFeeRate);\n        _K_ = uint64(k);\n        _I_ = uint128(i);\n        _resetTargetAndReserve();\n    }\n\n    // ============ Version Control ============\n\n    function version() external pure returns (string memory) {\n        return \"DPP 1.0.0\";\n    }\n}\n",
  "sourcePath": "/Users/niutaotao/projects/dodo/contractV2/contracts/DODOPrivatePool/impl/DPP.sol",
  "compiler": {
    "name": "solc",
    "version": "0.6.9+commit.3e3065ac.Emscripten.clang"
  },
  "schemaVersion": "3.3.2",
  "updatedAt": "2021-01-15T08:55:54.434Z",
  "devdoc": {
    "author": "DODO Breeder",
    "methods": {},
    "title": "DODO PrivatePool"
  },
  "userdoc": {
    "methods": {},
    "notice": "DODOPrivatePool initialization"
  }
}