{
  "contractName": "DPP",
  "abi": [
    {
      "anonymous": false,
      "inputs": [
        {
          "indexed": false,
          "internalType": "address",
          "name": "borrower",
          "type": "address"
        },
        {
          "indexed": false,
          "internalType": "address",
          "name": "assetTo",
          "type": "address"
        },
        {
          "indexed": false,
          "internalType": "uint256",
          "name": "baseAmount",
          "type": "uint256"
        },
        {
          "indexed": false,
          "internalType": "uint256",
          "name": "quoteAmount",
          "type": "uint256"
        }
      ],
      "name": "DODOFlashLoan",
      "type": "event"
    },
    {
      "anonymous": false,
      "inputs": [
        {
          "indexed": false,
          "internalType": "address",
          "name": "fromToken",
          "type": "address"
        },
        {
          "indexed": false,
          "internalType": "address",
          "name": "toToken",
          "type": "address"
        },
        {
          "indexed": false,
          "internalType": "uint256",
          "name": "fromAmount",
          "type": "uint256"
        },
        {
          "indexed": false,
          "internalType": "uint256",
          "name": "toAmount",
          "type": "uint256"
        },
        {
          "indexed": false,
          "internalType": "address",
          "name": "trader",
          "type": "address"
        },
        {
          "indexed": false,
          "internalType": "address",
          "name": "receiver",
          "type": "address"
        }
      ],
      "name": "DODOSwap",
      "type": "event"
    },
    {
      "anonymous": false,
      "inputs": [
        {
          "indexed": false,
          "internalType": "uint256",
          "name": "newLpFeeRate",
          "type": "uint256"
        }
      ],
      "name": "LpFeeRateChange",
      "type": "event"
    },
    {
      "anonymous": false,
      "inputs": [
        {
          "indexed": true,
          "internalType": "address",
          "name": "previousOwner",
          "type": "address"
        },
        {
          "indexed": true,
          "internalType": "address",
          "name": "newOwner",
          "type": "address"
        }
      ],
      "name": "OwnershipTransferPrepared",
      "type": "event"
    },
    {
      "anonymous": false,
      "inputs": [
        {
          "indexed": true,
          "internalType": "address",
          "name": "previousOwner",
          "type": "address"
        },
        {
          "indexed": true,
          "internalType": "address",
          "name": "newOwner",
          "type": "address"
        }
      ],
      "name": "OwnershipTransferred",
      "type": "event"
    },
    {
      "anonymous": false,
      "inputs": [
        {
          "indexed": false,
          "internalType": "enum PMMPricing.RState",
          "name": "newRState",
          "type": "uint8"
        }
      ],
      "name": "RChange",
      "type": "event"
    },
    {
      "inputs": [],
      "name": "_BASE_PRICE_CUMULATIVE_LAST_",
      "outputs": [
        {
          "internalType": "uint256",
          "name": "",
          "type": "uint256"
        }
      ],
      "stateMutability": "view",
      "type": "function"
    },
    {
      "inputs": [],
      "name": "_BASE_RESERVE_",
      "outputs": [
        {
          "internalType": "uint112",
          "name": "",
          "type": "uint112"
        }
      ],
      "stateMutability": "view",
      "type": "function"
    },
    {
      "inputs": [],
      "name": "_BASE_TARGET_",
      "outputs": [
        {
          "internalType": "uint112",
          "name": "",
          "type": "uint112"
        }
      ],
      "stateMutability": "view",
      "type": "function"
    },
    {
      "inputs": [],
      "name": "_BASE_TOKEN_",
      "outputs": [
        {
          "internalType": "contract IERC20",
          "name": "",
          "type": "address"
        }
      ],
      "stateMutability": "view",
      "type": "function"
    },
    {
      "inputs": [],
      "name": "_BLOCK_TIMESTAMP_LAST_",
      "outputs": [
        {
          "internalType": "uint32",
          "name": "",
          "type": "uint32"
        }
      ],
      "stateMutability": "view",
      "type": "function"
    },
    {
      "inputs": [],
      "name": "_IS_OPEN_TWAP_",
      "outputs": [
        {
          "internalType": "bool",
          "name": "",
          "type": "bool"
        }
      ],
      "stateMutability": "view",
      "type": "function"
    },
    {
      "inputs": [],
      "name": "_I_",
      "outputs": [
        {
          "internalType": "uint128",
          "name": "",
          "type": "uint128"
        }
      ],
      "stateMutability": "view",
      "type": "function"
    },
    {
      "inputs": [],
      "name": "_K_",
      "outputs": [
        {
          "internalType": "uint64",
          "name": "",
          "type": "uint64"
        }
      ],
      "stateMutability": "view",
      "type": "function"
    },
    {
      "inputs": [],
      "name": "_LP_FEE_RATE_",
      "outputs": [
        {
          "internalType": "uint64",
          "name": "",
          "type": "uint64"
        }
      ],
      "stateMutability": "view",
      "type": "function"
    },
    {
      "inputs": [],
      "name": "_MAINTAINER_",
      "outputs": [
        {
          "internalType": "address",
          "name": "",
          "type": "address"
        }
      ],
      "stateMutability": "view",
      "type": "function"
    },
    {
      "inputs": [],
      "name": "_MT_FEE_RATE_MODEL_",
      "outputs": [
        {
          "internalType": "contract IFeeRateModel",
          "name": "",
          "type": "address"
        }
      ],
      "stateMutability": "view",
      "type": "function"
    },
    {
      "inputs": [],
      "name": "_NEW_OWNER_",
      "outputs": [
        {
          "internalType": "address",
          "name": "",
          "type": "address"
        }
      ],
      "stateMutability": "view",
      "type": "function"
    },
    {
      "inputs": [],
      "name": "_OWNER_",
      "outputs": [
        {
          "internalType": "address",
          "name": "",
          "type": "address"
        }
      ],
      "stateMutability": "view",
      "type": "function"
    },
    {
      "inputs": [],
      "name": "_QUOTE_RESERVE_",
      "outputs": [
        {
          "internalType": "uint112",
          "name": "",
          "type": "uint112"
        }
      ],
      "stateMutability": "view",
      "type": "function"
    },
    {
      "inputs": [],
      "name": "_QUOTE_TARGET_",
      "outputs": [
        {
          "internalType": "uint112",
          "name": "",
          "type": "uint112"
        }
      ],
      "stateMutability": "view",
      "type": "function"
    },
    {
      "inputs": [],
      "name": "_QUOTE_TOKEN_",
      "outputs": [
        {
          "internalType": "contract IERC20",
          "name": "",
          "type": "address"
        }
      ],
      "stateMutability": "view",
      "type": "function"
    },
    {
      "inputs": [],
      "name": "_RState_",
      "outputs": [
        {
          "internalType": "uint32",
          "name": "",
          "type": "uint32"
        }
      ],
      "stateMutability": "view",
      "type": "function"
    },
    {
      "inputs": [],
      "name": "claimOwnership",
      "outputs": [],
      "stateMutability": "nonpayable",
      "type": "function"
    },
    {
      "inputs": [
        {
          "internalType": "uint256",
          "name": "baseAmount",
          "type": "uint256"
        },
        {
          "internalType": "uint256",
          "name": "quoteAmount",
          "type": "uint256"
        },
        {
          "internalType": "address",
          "name": "assetTo",
          "type": "address"
        },
        {
          "internalType": "bytes",
          "name": "data",
          "type": "bytes"
        }
      ],
      "name": "flashLoan",
      "outputs": [],
      "stateMutability": "nonpayable",
      "type": "function"
    },
    {
      "inputs": [],
      "name": "getBaseInput",
      "outputs": [
        {
          "internalType": "uint256",
          "name": "input",
          "type": "uint256"
        }
      ],
      "stateMutability": "view",
      "type": "function"
    },
    {
      "inputs": [],
      "name": "getMidPrice",
      "outputs": [
        {
          "internalType": "uint256",
          "name": "midPrice",
          "type": "uint256"
        }
      ],
      "stateMutability": "view",
      "type": "function"
    },
    {
      "inputs": [],
      "name": "getPMMState",
      "outputs": [
        {
          "components": [
            {
              "internalType": "uint256",
              "name": "i",
              "type": "uint256"
            },
            {
              "internalType": "uint256",
              "name": "K",
              "type": "uint256"
            },
            {
              "internalType": "uint256",
              "name": "B",
              "type": "uint256"
            },
            {
              "internalType": "uint256",
              "name": "Q",
              "type": "uint256"
            },
            {
              "internalType": "uint256",
              "name": "B0",
              "type": "uint256"
            },
            {
              "internalType": "uint256",
              "name": "Q0",
              "type": "uint256"
            },
            {
              "internalType": "enum PMMPricing.RState",
              "name": "R",
              "type": "uint8"
            }
          ],
          "internalType": "struct PMMPricing.PMMState",
          "name": "state",
          "type": "tuple"
        }
      ],
      "stateMutability": "view",
      "type": "function"
    },
    {
      "inputs": [],
      "name": "getPMMStateForCall",
      "outputs": [
        {
          "internalType": "uint256",
          "name": "i",
          "type": "uint256"
        },
        {
          "internalType": "uint256",
          "name": "K",
          "type": "uint256"
        },
        {
          "internalType": "uint256",
          "name": "B",
          "type": "uint256"
        },
        {
          "internalType": "uint256",
          "name": "Q",
          "type": "uint256"
        },
        {
          "internalType": "uint256",
          "name": "B0",
          "type": "uint256"
        },
        {
          "internalType": "uint256",
          "name": "Q0",
          "type": "uint256"
        },
        {
          "internalType": "uint256",
          "name": "R",
          "type": "uint256"
        }
      ],
      "stateMutability": "view",
      "type": "function"
    },
    {
      "inputs": [],
      "name": "getQuoteInput",
      "outputs": [
        {
          "internalType": "uint256",
          "name": "input",
          "type": "uint256"
        }
      ],
      "stateMutability": "view",
      "type": "function"
    },
    {
      "inputs": [
        {
          "internalType": "address",
          "name": "user",
          "type": "address"
        }
      ],
      "name": "getUserFeeRate",
      "outputs": [
        {
          "internalType": "uint256",
          "name": "lpFeeRate",
          "type": "uint256"
        },
        {
          "internalType": "uint256",
          "name": "mtFeeRate",
          "type": "uint256"
        }
      ],
      "stateMutability": "view",
      "type": "function"
    },
    {
      "inputs": [],
      "name": "getVaultReserve",
      "outputs": [
        {
          "internalType": "uint256",
          "name": "baseReserve",
          "type": "uint256"
        },
        {
          "internalType": "uint256",
          "name": "quoteReserve",
          "type": "uint256"
        }
      ],
      "stateMutability": "view",
      "type": "function"
    },
    {
      "inputs": [
        {
          "internalType": "address",
          "name": "newOwner",
          "type": "address"
        }
      ],
      "name": "initOwner",
      "outputs": [],
      "stateMutability": "nonpayable",
      "type": "function"
    },
    {
      "inputs": [
        {
          "internalType": "address",
          "name": "trader",
          "type": "address"
        },
        {
          "internalType": "uint256",
          "name": "payBaseAmount",
          "type": "uint256"
        }
      ],
      "name": "querySellBase",
      "outputs": [
        {
          "internalType": "uint256",
          "name": "receiveQuoteAmount",
          "type": "uint256"
        },
        {
          "internalType": "uint256",
          "name": "mtFee",
          "type": "uint256"
        },
        {
          "internalType": "enum PMMPricing.RState",
          "name": "newRState",
          "type": "uint8"
        },
        {
          "internalType": "uint256",
          "name": "newBaseTarget",
          "type": "uint256"
        }
      ],
      "stateMutability": "view",
      "type": "function"
    },
    {
      "inputs": [
        {
          "internalType": "address",
          "name": "trader",
          "type": "address"
        },
        {
          "internalType": "uint256",
          "name": "payQuoteAmount",
          "type": "uint256"
        }
      ],
      "name": "querySellQuote",
      "outputs": [
        {
          "internalType": "uint256",
          "name": "receiveBaseAmount",
          "type": "uint256"
        },
        {
          "internalType": "uint256",
          "name": "mtFee",
          "type": "uint256"
        },
        {
          "internalType": "enum PMMPricing.RState",
          "name": "newRState",
          "type": "uint8"
        },
        {
          "internalType": "uint256",
          "name": "newQuoteTarget",
          "type": "uint256"
        }
      ],
      "stateMutability": "view",
      "type": "function"
    },
    {
      "inputs": [],
      "name": "ratioSync",
      "outputs": [],
      "stateMutability": "nonpayable",
      "type": "function"
    },
    {
      "inputs": [
        {
          "internalType": "address",
          "name": "assetTo",
          "type": "address"
        },
        {
          "internalType": "uint256",
          "name": "newLpFeeRate",
          "type": "uint256"
        },
        {
          "internalType": "uint256",
          "name": "newI",
          "type": "uint256"
        },
        {
          "internalType": "uint256",
          "name": "newK",
          "type": "uint256"
        },
        {
          "internalType": "uint256",
          "name": "baseOutAmount",
          "type": "uint256"
        },
        {
          "internalType": "uint256",
          "name": "quoteOutAmount",
          "type": "uint256"
        },
        {
          "internalType": "uint256",
          "name": "minBaseReserve",
          "type": "uint256"
        },
        {
          "internalType": "uint256",
          "name": "minQuoteReserve",
          "type": "uint256"
        }
      ],
      "name": "reset",
      "outputs": [
        {
          "internalType": "bool",
          "name": "",
          "type": "bool"
        }
      ],
      "stateMutability": "nonpayable",
      "type": "function"
    },
    {
      "inputs": [
        {
          "internalType": "address",
          "name": "to",
          "type": "address"
        },
        {
          "internalType": "address",
          "name": "token",
          "type": "address"
        },
        {
          "internalType": "uint256",
          "name": "amount",
          "type": "uint256"
        }
      ],
      "name": "retrieve",
      "outputs": [],
      "stateMutability": "nonpayable",
      "type": "function"
    },
    {
      "inputs": [
        {
          "internalType": "address",
          "name": "to",
          "type": "address"
        }
      ],
      "name": "sellBase",
      "outputs": [
        {
          "internalType": "uint256",
          "name": "receiveQuoteAmount",
          "type": "uint256"
        }
      ],
      "stateMutability": "nonpayable",
      "type": "function"
    },
    {
      "inputs": [
        {
          "internalType": "address",
          "name": "to",
          "type": "address"
        }
      ],
      "name": "sellQuote",
      "outputs": [
        {
          "internalType": "uint256",
          "name": "receiveBaseAmount",
          "type": "uint256"
        }
      ],
      "stateMutability": "nonpayable",
      "type": "function"
    },
    {
      "inputs": [
        {
          "internalType": "address",
          "name": "newOwner",
          "type": "address"
        }
      ],
      "name": "transferOwnership",
      "outputs": [],
      "stateMutability": "nonpayable",
      "type": "function"
    },
    {
      "inputs": [
        {
          "internalType": "address",
          "name": "owner",
          "type": "address"
        },
        {
          "internalType": "address",
          "name": "maintainer",
          "type": "address"
        },
        {
          "internalType": "address",
          "name": "baseTokenAddress",
          "type": "address"
        },
        {
          "internalType": "address",
          "name": "quoteTokenAddress",
          "type": "address"
        },
        {
          "internalType": "uint256",
          "name": "lpFeeRate",
          "type": "uint256"
        },
        {
          "internalType": "address",
          "name": "mtFeeRateModel",
          "type": "address"
        },
        {
          "internalType": "uint256",
          "name": "k",
          "type": "uint256"
        },
        {
          "internalType": "uint256",
          "name": "i",
          "type": "uint256"
        },
        {
          "internalType": "bool",
          "name": "isOpenTWAP",
          "type": "bool"
        }
      ],
      "name": "init",
      "outputs": [],
      "stateMutability": "nonpayable",
      "type": "function"
    },
    {
      "inputs": [],
      "name": "version",
      "outputs": [
        {
          "internalType": "string",
          "name": "",
          "type": "string"
        }
      ],
      "stateMutability": "pure",
      "type": "function"
    }
  ],
  "bytecode": "0x60806040526001805460ff60b01b1916905534801561001d57600080fd5b5061388c8061002d6000396000f3fe608060405234801561001057600080fd5b50600436106102275760003560e01c8063880a4d8711610130578063d4b97046116100b8578063f2fde38b1161007c578063f2fde38b1461042b578063f6b06e701461043e578063f811d69214610446578063fd1ed7e91461045b578063fe24cb7f1461047657610227565b8063d4b97046146103f8578063dd93f59a14610400578063e539ef4914610413578063ec2fd46d1461041b578063ee27c6891461042357610227565b8063bbf5ce78116100ff578063bbf5ce78146103ba578063bd6015b4146103c2578063bf357dae146103d5578063c57a5d03146103dd578063d0a494e4146103e557610227565b8063880a4d87146103685780638ff3928c1461037d578063a382d1b914610390578063ab44a7a3146103a557610227565b80634e71e0c8116101b357806371f9100c1161018257806371f9100c1461032857806377f586571461033057806379a04876146103455780637d721504146103585780638456db151461036057610227565b80634e71e0c8146102d357806354fd4d50146102db57806365f6fcbb146102f057806366410a211461030557610227565b80632df6cb48116101fa5780632df6cb481461028557806336223ce91461029a5780634322ec83146102b057806344096609146102b85780634a248d2a146102cb57610227565b806301a3c30b1461022c5780630d0092971461024157806316048bc41461025457806328c4e24c14610272575b600080fd5b61023f61023a366004612ff9565b61047e565b005b61023f61024f366004612fde565b61064f565b61025c6106af565b6040516102699190613243565b60405180910390f35b61023f610280366004613099565b6106be565b61028d61079b565b604051610269919061331f565b6102a26107ab565b60405161026992919061372d565b61025c6107c6565b6102a26102c6366004612fde565b6107d5565b61025c610871565b61023f610880565b6102e361090e565b604051610269919061333f565b6102f8610932565b6040516102699190613724565b6103186103133660046130d9565b6109d9565b604051610269949392919061373b565b6102f8610ad5565b610338610b1e565b60405161026991906136fc565b6103186103533660046130d9565b610b34565b610338610c23565b61025c610c32565b610370610c41565b6040516102699190613796565b61028d61038b366004613103565b610c54565b610398610e65565b60405161026991906136a6565b6103ad610f09565b60405161026991906137a7565b610338610f20565b6102f86103d0366004612fde565b610f36565b6103706111f0565b61023f611203565b61023f6103f3366004613194565b6114d5565b61025c611ac3565b6102f861040e366004612fde565b611ad2565b610338611d77565b6103ad611d86565b6102f8611d96565b61023f610439366004612fde565b611da8565b61025c611e2d565b61044e611e3c565b6040516102699190613710565b610463611e52565b6040516102699796959493929190613766565b6102f8611eb5565b6104878961064f565b856001600160a01b0316876001600160a01b031614156104c25760405162461bcd60e51b81526004016104b990613437565b60405180910390fd5b600380546001600160a01b03808a166001600160a01b03199283161790925560048054898416908316179055600280548b84169083161790556008805492871692909116919091179055670de0b6b3a76400008511156105345760405162461bcd60e51b81526004016104b990613577565b670de0b6b3a764000083111561055c5760405162461bcd60e51b81526004016104b99061354f565b60008211801561057b57506ec097ce7bc90715b34b9f10000000008211155b6105975760405162461bcd60e51b81526004016104b9906133ec565b6008805467ffffffffffffffff60a01b1916600160a01b67ffffffffffffffff88811691909102919091179091556009805467ffffffffffffffff191691851691909117600160401b600160c01b031916600160401b6001600160801b038516021790556001805460ff60b01b1916600160b01b83158015919091029190911790915561063c57600580546001600160e01b03164263ffffffff16600160e01b021790555b610644611ebb565b505050505050505050565b600154600160a01b900460ff16156106795760405162461bcd60e51b81526004016104b9906134ee565b6001805460ff60a01b1916600160a01b179055600080546001600160a01b039092166001600160a01b0319909216919091179055565b6000546001600160a01b031681565b600154600160a81b900460ff16156106e85760405162461bcd60e51b81526004016104b990613414565b6001805460ff60a81b1916600160a81b179055600054336001600160a01b03909116146107275760405162461bcd60e51b81526004016104b9906135d0565b6003546001600160a01b0383811691161480159061075357506004546001600160a01b03838116911614155b61076f5760405162461bcd60e51b81526004016104b990613660565b6107896001600160a01b038316848363ffffffff61206e16565b50506001805460ff60a81b1916905550565b600154600160b01b900460ff1681565b6005546001600160701b0380821692600160701b9092041690565b6002546001600160a01b031681565b600854604051638198edbf60e01b815267ffffffffffffffff600160a01b830416916000916001600160a01b0390911690638198edbf9061081a908690600401613243565b60206040518083038186803b15801561083257600080fd5b505afa158015610846573d6000803e3d6000fd5b505050506040513d601f19601f8201168201806040525081019061086a919061317c565b9050915091565b6003546001600160a01b031681565b6001546001600160a01b031633146108aa5760405162461bcd60e51b81526004016104b99061339d565b600154600080546040516001600160a01b0393841693909116917f8be0079c531659141344cd1fd0a4f28419497f9722a3daafe3b4186f6b6457e091a360018054600080546001600160a01b03199081166001600160a01b03841617909155169055565b604080518082019091526009815268044505020312e302e360bc1b60208201525b90565b6005546003546040516370a0823160e01b81526000926109d4926001600160701b03909116916001600160a01b03909116906370a0823190610978903090600401613243565b60206040518083038186803b15801561099057600080fd5b505afa1580156109a4573d6000803e3d6000fd5b505050506040513d601f19601f820116820180604052508101906109c8919061317c565b9063ffffffff6120c916565b905090565b6000806000806109e7612f80565b6109ef610e65565b90506109fb81876120f6565b600854604051638198edbf60e01b815292975090945067ffffffffffffffff600160a01b820416916000916001600160a01b031690638198edbf90610a44908c90600401613243565b60206040518083038186803b158015610a5c57600080fd5b505afa158015610a70573d6000803e3d6000fd5b505050506040513d601f19601f82011682018060405250810190610a94919061317c565b9050610aa087826121fc565b9550610ac0866109c8610ab38a866121fc565b8a9063ffffffff6120c916565b96508260a00151935050505092959194509250565b600554600480546040516370a0823160e01b81526000936109d493600160701b9091046001600160701b0316926001600160a01b0316916370a082319161097891309101613243565b600654600160701b90046001600160701b031681565b600080600080610b42612f80565b610b4a610e65565b9050610b568187612226565b600854604051638198edbf60e01b815292975090945067ffffffffffffffff600160a01b820416916000916001600160a01b031690638198edbf90610b9f908c90600401613243565b60206040518083038186803b158015610bb757600080fd5b505afa158015610bcb573d6000803e3d6000fd5b505050506040513d601f19601f82011682018060405250810190610bef919061317c565b9050610bfb87826121fc565b9550610c0e866109c8610ab38a866121fc565b96508260800151935050505092959194509250565b6005546001600160701b031681565b6001546001600160a01b031681565b600554600160e01b900463ffffffff1681565b600154600090600160a81b900460ff1615610c815760405162461bcd60e51b81526004016104b990613414565b6001805460ff60a81b1916600160a81b179055600054336001600160a01b0390911614610cc05760405162461bcd60e51b81526004016104b9906135d0565b6005546001600160701b03168311801590610ced5750600554600160701b90046001600160701b03168211155b610d095760405162461bcd60e51b81526004016104b990613518565b670de0b6b3a7640000881115610d315760405162461bcd60e51b81526004016104b990613577565b670de0b6b3a7640000861115610d595760405162461bcd60e51b81526004016104b99061354f565b600087118015610d7857506ec097ce7bc90715b34b9f10000000008711155b610d945760405162461bcd60e51b81526004016104b9906133ec565b6008805467ffffffffffffffff60a01b1916600160a01b67ffffffffffffffff8b811691909102919091179091556009805467ffffffffffffffff191691881691909117600160401b600160c01b031916600160401b6001600160801b038a1602179055610e028986612327565b610e0c898561234a565b610e14611ebb565b7f9950d5a2f2c7264863d40100bf993f0cdbc4711806caba6284d07e80fd50087988604051610e439190613724565b60405180910390a150506001805460ff60a81b19168155979650505050505050565b610e6d612f80565b600954600160401b81046001600160801b0316825267ffffffffffffffff1660208201526005546001600160701b038082166040840152600160701b918290048116606084015260065480821660808501529182041660a0830152600160e01b900463ffffffff166002811115610ee057fe5b8160c001906002811115610ef057fe5b90816002811115610efd57fe5b90525061092f8161236d565b600854600160a01b900467ffffffffffffffff1681565b600554600160701b90046001600160701b031681565b600154600090600160a81b900460ff1615610f635760405162461bcd60e51b81526004016104b990613414565b6001805460ff60a81b1916600160a81b1790556003546040516370a0823160e01b81526000916001600160a01b0316906370a0823190610fa7903090600401613243565b60206040518083038186803b158015610fbf57600080fd5b505afa158015610fd3573d6000803e3d6000fd5b505050506040513d601f19601f82011682018060405250810190610ff7919061317c565b60055490915060009061101a9083906001600160701b031663ffffffff6120c916565b9050600080600061102b3285610b34565b9298509094509092509050611040878761234a565b600254611056906001600160a01b03168461234a565b80600281111561106257fe5b600654600160e01b900463ffffffff90811691161461110f576001600160701b038211156110a25760405162461bcd60e51b81526004016104b9906135ae565b600680546001600160701b0319166001600160701b0384161790558060028111156110c957fe5b6006601c6101000a81548163ffffffff021916908363ffffffff16021790555060008051602061381783398151915281604051611106919061332a565b60405180910390a15b600480546040516370a0823160e01b81526111979288926001600160a01b0316916370a082319161114291309101613243565b60206040518083038186803b15801561115a57600080fd5b505afa15801561116e573d6000803e3d6000fd5b505050506040513d601f19601f82011682018060405250810190611192919061317c565b612417565b600354600454604051600080516020613837833981519152926111d0926001600160a01b039182169291169088908b9033908e906132cc565b60405180910390a150506001805460ff60a81b1916905550919392505050565b600654600160e01b900463ffffffff1681565b600154600160a81b900460ff161561122d5760405162461bcd60e51b81526004016104b990613414565b6001805460ff60a81b1916600160a81b179055600054336001600160a01b039091161461126c5760405162461bcd60e51b81526004016104b9906135d0565b6003546040516370a0823160e01b81526000916001600160a01b0316906370a082319061129d903090600401613243565b60206040518083038186803b1580156112b557600080fd5b505afa1580156112c9573d6000803e3d6000fd5b505050506040513d601f19601f820116820180604052508101906112ed919061317c565b600480546040516370a0823160e01b81529293506000926001600160a01b03909116916370a082319161132291309101613243565b60206040518083038186803b15801561133a57600080fd5b505afa15801561134e573d6000803e3d6000fd5b505050506040513d601f19601f82011682018060405250810190611372919061317c565b90506001600160701b03821180159061139257506001600160701b038111155b6113ae5760405162461bcd60e51b81526004016104b9906135ae565b6005546001600160701b03168214611423576005546006546113f3916001600160701b03908116916113e791168563ffffffff6124a416565b9063ffffffff6124e516565b600680546001600160701b03199081166001600160701b0393841617909155600580549091169184169190911790555b600554600160701b90046001600160701b031681146114aa5760055460065461146d916001600160701b03600160701b918290048116926113e7929004168463ffffffff6124a416565b600680546001600160701b03928316600160701b908102600160701b600160e01b0319928316179092556005805493851690920292169190911790555b600154600160b01b900460ff16156114c4576114c461250f565b50506001805460ff60a81b19169055565b600154600160a81b900460ff16156114ff5760405162461bcd60e51b81526004016104b990613414565b6001805460ff60a81b1916600160a81b17905561151c8386612327565b611526838561234a565b801561159357604051637ed1f1dd60e01b81526001600160a01b03841690637ed1f1dd906115609033908990899088908890600401613280565b600060405180830381600087803b15801561157a57600080fd5b505af115801561158e573d6000803e3d6000fd5b505050505b6003546040516370a0823160e01b81526000916001600160a01b0316906370a08231906115c4903090600401613243565b60206040518083038186803b1580156115dc57600080fd5b505afa1580156115f0573d6000803e3d6000fd5b505050506040513d601f19601f82011682018060405250810190611614919061317c565b600480546040516370a0823160e01b81529293506000926001600160a01b03909116916370a082319161164991309101613243565b60206040518083038186803b15801561166157600080fd5b505afa158015611675573d6000803e3d6000fd5b505050506040513d601f19601f82011682018060405250810190611699919061317c565b6005549091506001600160701b0316821015806116c85750600554600160701b90046001600160701b03168110155b6116e45760405162461bcd60e51b81526004016104b990613372565b6005546001600160701b03168210156118a757600554600090611718908390600160701b90046001600160701b03166120c9565b905060008060008061172a32866109d9565b600554939750919550935091508490611752906001600160701b03168963ffffffff6120c916565b11156117705760405162461bcd60e51b81526004016104b990613372565b600254611786906001600160a01b031684612327565b81600281111561179257fe5b600654600160e01b900463ffffffff908116911614611848576001600160701b038111156117d25760405162461bcd60e51b81526004016104b9906135ae565b60068054600160701b600160e01b031916600160701b6001600160701b0384160217905581600281111561180257fe5b6006601c6101000a81548163ffffffff021916908363ffffffff1602179055506000805160206138178339815191528260405161183f919061332a565b60405180910390a15b600080516020613837833981519152600460009054906101000a90046001600160a01b0316600360009054906101000a90046001600160a01b03168787338f604051611899969594939291906132cc565b60405180910390a150505050505b600554600160701b90046001600160701b0316811015611a68576005546000906118e19084906001600160701b031663ffffffff6120c916565b90506000806000806118f33286610b34565b60055493975091955093509150849061191c90600160701b90046001600160701b0316886120c9565b111561193a5760405162461bcd60e51b81526004016104b990613372565b600254611950906001600160a01b03168461234a565b81600281111561195c57fe5b600654600160e01b900463ffffffff908116911614611a09576001600160701b0381111561199c5760405162461bcd60e51b81526004016104b9906135ae565b600680546001600160701b0319166001600160701b0383161790558160028111156119c357fe5b6006601c6101000a81548163ffffffff021916908363ffffffff16021790555060008051602061381783398151915282604051611a00919061332a565b60405180910390a15b600080516020613837833981519152600360009054906101000a90046001600160a01b0316600460009054906101000a90046001600160a01b03168787338f604051611a5a969594939291906132cc565b60405180910390a150505050505b611a706125a4565b7f0b82e93068db15abd9fbb2682c65462ea8a0a10582dce93a5664818e296f54eb33868989604051611aa59493929190613257565b60405180910390a150506001805460ff60a81b191690555050505050565b6004546001600160a01b031681565b600154600090600160a81b900460ff1615611aff5760405162461bcd60e51b81526004016104b990613414565b6001805460ff60a81b1916600160a81b179055600480546040516370a0823160e01b81526000926001600160a01b03909216916370a0823191611b4491309101613243565b60206040518083038186803b158015611b5c57600080fd5b505afa158015611b70573d6000803e3d6000fd5b505050506040513d601f19601f82011682018060405250810190611b94919061317c565b600554909150600090611bb8908390600160701b90046001600160701b03166120c9565b90506000806000611bc932856109d9565b9298509094509092509050611bde8787612327565b600254611bf4906001600160a01b031684612327565b806002811115611c0057fe5b600654600160e01b900463ffffffff908116911614611cb6576001600160701b03821115611c405760405162461bcd60e51b81526004016104b9906135ae565b60068054600160701b600160e01b031916600160701b6001600160701b03851602179055806002811115611c7057fe5b6006601c6101000a81548163ffffffff021916908363ffffffff16021790555060008051602061381783398151915281604051611cad919061332a565b60405180910390a15b6003546040516370a0823160e01b8152611d3e916001600160a01b0316906370a0823190611ce8903090600401613243565b60206040518083038186803b158015611d0057600080fd5b505afa158015611d14573d6000803e3d6000fd5b505050506040513d601f19601f82011682018060405250810190611d38919061317c565b86612417565b600454600354604051600080516020613837833981519152926111d0926001600160a01b039182169291169088908b9033908e906132cc565b6006546001600160701b031681565b60095467ffffffffffffffff1681565b60006109d4611da3610e65565b61276c565b6000546001600160a01b03163314611dd25760405162461bcd60e51b81526004016104b9906135d0565b600080546040516001600160a01b03808516939216917fdcf55418cee3220104fef63f979ff3c4097ad240c0c43dcb33ce837748983e6291a3600180546001600160a01b0319166001600160a01b0392909216919091179055565b6008546001600160a01b031681565b600954600160401b90046001600160801b031681565b6000806000806000806000611e65612f80565b611e6d610e65565b905080600001519750806020015196508060400151955080606001519450806080015193508060a0015192508060c001516002811115611ea957fe5b91505090919293949596565b60075481565b6003546040516370a0823160e01b81526000916001600160a01b0316906370a0823190611eec903090600401613243565b60206040518083038186803b158015611f0457600080fd5b505afa158015611f18573d6000803e3d6000fd5b505050506040513d601f19601f82011682018060405250810190611f3c919061317c565b600480546040516370a0823160e01b81529293506000926001600160a01b03909116916370a0823191611f7191309101613243565b60206040518083038186803b158015611f8957600080fd5b505afa158015611f9d573d6000803e3d6000fd5b505050506040513d601f19601f82011682018060405250810190611fc1919061317c565b90506001600160701b038211801590611fe157506001600160701b038111155b611ffd5760405162461bcd60e51b81526004016104b9906135ae565b600580546001600160701b03838116600160701b02600160701b600160e01b03199186166001600160701b031993841681178316821790945560068054909316909317169091176001600160e01b0316905560015460ff600160b01b909104161561206a5761206a61250f565b5050565b6120c48363a9059cbb60e01b848460405160240161208d929190613306565b60408051601f198184030181529190526020810180516001600160e01b03166001600160e01b031990931692909217909152612863565b505050565b6000828211156120eb5760405162461bcd60e51b81526004016104b9906134cb565b508082035b92915050565b600080808460c00151600281111561210a57fe5b14156121255761211a8484612920565b9150600190506121f5565b60018460c00151600281111561213757fe5b14156121475761211a8484612947565b600061216485606001518660a001516120c990919063ffffffff16565b90506000612183866080015187604001516120c990919063ffffffff16565b9050818510156121ae576121978686612964565b935060029250808411156121a9578093505b6121f2565b818514156121c257809350600092506121f2565b6121eb6121de876121d9888663ffffffff6120c916565b612920565b829063ffffffff61299f16565b9350600192505b50505b9250929050565b6000670de0b6b3a7640000612217848463ffffffff6124a416565b8161221e57fe5b049392505050565b600080808460c00151600281111561223a57fe5b14156122555761224a84846129c4565b9150600290506121f5565b60018460c00151600281111561226757fe5b141561231257600061228a856040015186608001516120c990919063ffffffff16565b905060006122a98660a0015187606001516120c990919063ffffffff16565b9050818510156122d4576122bd86866129e3565b935060019250808411156122cf578093505b61230b565b818514156122e8578093506000925061230b565b6123046121de876122ff888663ffffffff6120c916565b6129c4565b9350600292505b50506121f5565b61231c8484612a15565b946002945092505050565b801561206a5760035461206a906001600160a01b0316838363ffffffff61206e16565b801561206a5760045461206a906001600160a01b0316838363ffffffff61206e16565b60028160c00151600281111561237f57fe5b14156123be576123b481606001516123a8836080015184604001516120c990919063ffffffff16565b83516020850151612a34565b60a0820152612414565b60018160c0015160028111156123d057fe5b14156124145761240e81604001516123f98360a0015184606001516120c990919063ffffffff16565b835161240490612b5a565b8460200151612a34565b60808201525b50565b6001600160701b03821180159061243557506001600160701b038111155b6124515760405162461bcd60e51b81526004016104b9906135ae565b600580546001600160701b03838116600160701b02600160701b600160e01b03199186166001600160701b0319909316929092171617905560015460ff600160b01b909104161561206a5761206a61250f565b6000826124b3575060006120f0565b828202828482816124c057fe5b04146124de5760405162461bcd60e51b81526004016104b990613683565b9392505050565b60008082116125065760405162461bcd60e51b81526004016104b9906134a3565b81838161221e57fe5b60055463ffffffff42811691600160e01b9004811682039081161580159061254157506005546001600160701b031615155b801561255e5750600554600160701b90046001600160701b031615155b1561257e578063ffffffff16612572611d96565b60078054919092020190555b506005805463ffffffff909216600160e01b026001600160e01b03909216919091179055565b6003546040516370a0823160e01b81526000916001600160a01b0316906370a08231906125d5903090600401613243565b60206040518083038186803b1580156125ed57600080fd5b505afa158015612601573d6000803e3d6000fd5b505050506040513d601f19601f82011682018060405250810190612625919061317c565b600480546040516370a0823160e01b81529293506000926001600160a01b03909116916370a082319161265a91309101613243565b60206040518083038186803b15801561267257600080fd5b505afa158015612686573d6000803e3d6000fd5b505050506040513d601f19601f820116820180604052508101906126aa919061317c565b90506001600160701b0382118015906126ca57506001600160701b038111155b6126e65760405162461bcd60e51b81526004016104b9906135ae565b6005546001600160701b0316821461271457600580546001600160701b0319166001600160701b0384161790555b600554600160701b90046001600160701b031681146127525760058054600160701b600160e01b031916600160701b6001600160701b038416021790555b600154600160b01b900460ff161561206a5761206a61250f565b600060028260c00151600281111561278057fe5b141561280b57606082015160a08301516000916127b6916127ac91906113e7908063ffffffff6124a416565b8460600151612b7b565b90506127f36127c98460200151836121fc565b60208501516127e790670de0b6b3a76400009063ffffffff6120c916565b9063ffffffff61299f16565b9050612803836000015182612b7b565b91505061285e565b6040820151608083015160009161283b9161283191906113e7908063ffffffff6124a416565b8460400151612b7b565b905061284e6127c98460200151836121fc565b90506128038360000151826121fc565b919050565b60006060836001600160a01b03168360405161287f9190613227565b6000604051808303816000865af19150503d80600081146128bc576040519150601f19603f3d011682016040523d82523d6000602084013e6128c1565b606091505b5091509150816128e35760405162461bcd60e51b81526004016104b99061346e565b80511561291a57808060200190518101906128fe9190613160565b61291a5760405162461bcd60e51b81526004016104b990613616565b50505050565b60006124de836080015184608001518461293d8760000151612b5a565b8760200151612b99565b60006124de836080015184604001518461293d8760000151612b5a565b60006124de8360a0015161298584866060015161299f90919063ffffffff16565b6060860151865161299590612b5a565b8760200151612e19565b6000828201838110156124de5760405162461bcd60e51b81526004016104b9906135f3565b60006124de8360a001518460a001518486600001518760200151612b99565b60006124de8360800151612a0484866040015161299f90919063ffffffff16565b604086015186516020880151612e19565b60006124de8360a0015184606001518486600001518760200151612b99565b600084612a4357506000612b52565b81612a6957612a62612a5584866121fc565b869063ffffffff61299f16565b9050612b52565b600080612a7f600485028663ffffffff6124a416565b905080612a9657670de0b6b3a76400009150612b16565b858187830281612aa257fe5b041415612add57612ad6612ad16ec097ce7bc90715b34b9f10000000006127e7848a028b63ffffffff6124e516565b612ef2565b9150612b16565b612b13612ad16ec097ce7bc90715b34b9f10000000006127e789612b07868d63ffffffff6124e516565b9063ffffffff6124a416565b91505b6000612b40670de0b6b3a76400006127e7612b37868363ffffffff6120c916565b88600202612b7b565b9050612b4c88826121fc565b93505050505b949350505050565b60006120f06ec097ce7bc90715b34b9f10000000008363ffffffff6124e516565b60006124de826113e785670de0b6b3a764000063ffffffff6124a416565b6000808611612bba5760405162461bcd60e51b81526004016104b9906133c4565b83612bc757506000612e10565b81612bf45784612bd784866121fc565b11612beb57612be683856121fc565b612bed565b845b9050612e10565b670de0b6b3a7640000821415612cb457600080612c17858763ffffffff6124a416565b905080612c275760009150612c80565b868188830281612c3357fe5b041415612c6357612c5c612c4d898063ffffffff6124a416565b8289029063ffffffff6124e516565b9150612c80565b612c7d886113e787612b0783838c8e63ffffffff6124a416565b91505b612cab612c9b83670de0b6b3a764000063ffffffff61299f16565b6113e7898563ffffffff6124a416565b92505050612e10565b6000612ce1612cc9858763ffffffff6124a416565b6127e789612b078a6113e7898463ffffffff6124a416565b90506000612d0187612b07670de0b6b3a76400008763ffffffff6120c916565b90506000828210612d1757508190036000612d1d565b50810360015b612d3582670de0b6b3a764000063ffffffff6124e516565b91506000612d6c612d596004612b07670de0b6b3a76400008a63ffffffff6120c916565b612d678c612b078a8f6121fc565b6121fc565b9050612d85612ad1826127e7868063ffffffff6124a416565b90506000612da66002612b07670de0b6b3a76400008a63ffffffff6120c916565b905060008315612dc757612dc0838663ffffffff6120c916565b9050612dda565b612dd7858463ffffffff61299f16565b90505b6000612de68284612f29565b90508b811115612e00576000975050505050505050612e10565b8b039650612e1095505050505050565b95945050505050565b6000808611612e3a5760405162461bcd60e51b81526004016104b9906133c4565b6000612e5c612e4f878763ffffffff6120c916565b859063ffffffff6124a416565b905082612e8357612e7b81670de0b6b3a764000063ffffffff6124e516565b915050612e10565b6000612ea2612e9c886113e78b8063ffffffff6124a416565b87612b7b565b90506000612eb085836121fc565b9050612ee56ec097ce7bc90715b34b9f10000000006113e785612b07856127e7670de0b6b3a76400008c63ffffffff6120c916565b9998505050505050505050565b80600160028204015b81811015612f2357809150600281828581612f1257fe5b040181612f1b57fe5b049050612efb565b50919050565b60006124de82612f4785670de0b6b3a764000063ffffffff6124a416565b9063ffffffff612f5316565b600080612f6084846124e5565b905082810284038015612f78575060010190506120f0565b5090506120f0565b6040518060e0016040528060008152602001600081526020016000815260200160008152602001600081526020016000815260200160006002811115612fc257fe5b905290565b80356001600160a01b03811681146120f057600080fd5b600060208284031215612fef578081fd5b6124de8383612fc7565b60008060008060008060008060006101208a8c031215613017578485fd5b8935613022816137f3565b985060208a0135613032816137f3565b975060408a0135613042816137f3565b965060608a0135613052816137f3565b955060808a0135945060a08a0135613069816137f3565b935060c08a0135925060e08a013591506101008a013561308881613808565b809150509295985092959850929598565b6000806000606084860312156130ad578283fd5b83356130b8816137f3565b925060208401356130c8816137f3565b929592945050506040919091013590565b600080604083850312156130eb578182fd5b6130f58484612fc7565b946020939093013593505050565b600080600080600080600080610100898b03121561311f578384fd5b883561312a816137f3565b9a60208a01359a5060408a013599606081013599506080810135985060a0810135975060c0810135965060e00135945092505050565b600060208284031215613171578081fd5b81516124de81613808565b60006020828403121561318d578081fd5b5051919050565b6000806000806000608086880312156131ab578081fd5b85359450602086013593506131c38760408801612fc7565b9250606086013567ffffffffffffffff808211156131df578283fd5b81880189601f8201126131f0578384fd5b8035925081831115613200578384fd5b896020848301011115613211578384fd5b6020810194505050809150509295509295909350565b600082516132398184602087016137c7565b9190910192915050565b6001600160a01b0391909116815260200190565b6001600160a01b0394851681529290931660208301526040820152606081019190915260800190565b600060018060a01b038716825285602083015284604083015260806060830152826080830152828460a084013781830160a090810191909152601f909201601f19160101949350505050565b6001600160a01b0396871681529486166020860152604085019390935260608401919091528316608083015290911660a082015260c00190565b6001600160a01b03929092168252602082015260400190565b901515815260200190565b60208101613337836137bc565b825292915050565b600060208252825180602084015261335e8160408501602087016137c7565b601f01601f19169190910160400192915050565b60208082526011908201527011931054d217d313d05397d19052531151607a1b604082015260600190565b6020808252600d908201526c494e56414c49445f434c41494d60981b604082015260600190565b6020808252600e908201526d5441524745545f49535f5a45524f60901b604082015260600190565b6020808252600e908201526d495f4f55545f4f465f52414e474560901b604082015260600190565b60208082526009908201526814915153951490539560ba1b604082015260600190565b6020808252601a908201527f424153455f51554f54455f43414e5f4e4f545f42455f53414d45000000000000604082015260600190565b6020808252818101527f5361666545524332303a206c6f772d6c6576656c2063616c6c206661696c6564604082015260600190565b6020808252600e908201526d2224ab24a224a723afa2a92927a960911b604082015260600190565b60208082526009908201526829aaa12fa2a92927a960b91b604082015260600190565b60208082526010908201526f1113d113d7d25392551250531256915160821b604082015260600190565b6020808252601c908201527f524553455256455f414d4f554e545f49535f4e4f545f454e4f55474800000000604082015260600190565b6020808252600e908201526d4b5f4f55545f4f465f52414e474560901b604082015260600190565b60208082526018908201527f4c505f4645455f524154455f4f55545f4f465f52414e47450000000000000000604082015260600190565b6020808252600890820152674f564552464c4f5760c01b604082015260600190565b6020808252600990820152682727aa2fa7aba722a960b91b604082015260600190565b60208082526009908201526820a2222fa2a92927a960b91b604082015260600190565b6020808252602a908201527f5361666545524332303a204552433230206f7065726174696f6e20646964206e6040820152691bdd081cdd58d8d9595960b21b606082015260800190565b6020808252600990820152681554d157d49154d15560ba1b604082015260600190565b60208082526009908201526826aaa62fa2a92927a960b91b604082015260600190565b600060e082019050825182526020830151602083015260408301516040830152606083015160608301526080830151608083015260a083015160a08301526136f160c08401516137bc565b60c083015292915050565b6001600160701b0391909116815260200190565b6001600160801b0391909116815260200190565b90815260200190565b918252602082015260400190565b8481526020810184905260808101613752846137bc565b604083015282606083015295945050505050565b968752602087019590955260408601939093526060850191909152608084015260a083015260c082015260e00190565b63ffffffff91909116815260200190565b67ffffffffffffffff91909116815260200190565b806003811061285e57fe5b60005b838110156137e25781810151838201526020016137ca565b8381111561291a5750506000910152565b6001600160a01b038116811461241457600080fd5b801515811461241457600080fdfedf176ad18be4f9f32efaa32f06e9d1175476504739a745f1399a6d3fa4b75917c2c0245e056d5fb095f04cd6373bc770802ebd1e6c918eb78fdef843cdb37b0fa264697066735822122078ef1b685fea409e11e1dc962cd769d9410ea3a2e771919afcdc33688e7d541d64736f6c63430006090033",
  "immutableReferences": {},
  "source": "/*\n\n    Copyright 2020 DODO ZOO.\n    SPDX-License-Identifier: Apache-2.0\n\n*/\n\npragma solidity 0.6.9;\npragma experimental ABIEncoderV2;\n\nimport {IFeeRateModel} from \"../../lib/FeeRateModel.sol\";\nimport {IERC20} from \"../../intf/IERC20.sol\";\nimport {DPPTrader} from \"./DPPTrader.sol\";\n\n/**\n * @title DODO PrivatePool\n * @author DODO Breeder\n *\n * @notice DODOPrivatePool initialization\n */\ncontract DPP is DPPTrader {\n    function init(\n        address owner,\n        address maintainer,\n        address baseTokenAddress,\n        address quoteTokenAddress,\n        uint256 lpFeeRate,\n        address mtFeeRateModel,\n        uint256 k,\n        uint256 i,\n        bool isOpenTWAP\n    ) external {\n        initOwner(owner);\n\n        require(baseTokenAddress != quoteTokenAddress, \"BASE_QUOTE_CAN_NOT_BE_SAME\");\n        _BASE_TOKEN_ = IERC20(baseTokenAddress);\n        _QUOTE_TOKEN_ = IERC20(quoteTokenAddress);\n\n        _MAINTAINER_ = maintainer;\n        _MT_FEE_RATE_MODEL_ = IFeeRateModel(mtFeeRateModel);\n        \n        require(lpFeeRate <= 1e18, \"LP_FEE_RATE_OUT_OF_RANGE\");\n        require(k <= 1e18, \"K_OUT_OF_RANGE\");\n        require(i > 0 && i <= 1e36, \"I_OUT_OF_RANGE\");\n        _LP_FEE_RATE_ = uint64(lpFeeRate);\n        _K_ = uint64(k);\n        _I_ = uint128(i);\n\n        _IS_OPEN_TWAP_ = isOpenTWAP;\n        if(isOpenTWAP) _BLOCK_TIMESTAMP_LAST_ = uint32(block.timestamp % 2**32);\n        \n        _resetTargetAndReserve();\n    }\n\n    // ============ Version Control ============\n\n    function version() external pure returns (string memory) {\n        return \"DPP 1.0.0\";\n    }\n}\n",
  "sourcePath": "/Users/niutaotao/projects/dodo/contractV2/contracts/DODOPrivatePool/impl/DPP.sol",
  "compiler": {
    "name": "solc",
    "version": "0.6.9+commit.3e3065ac.Emscripten.clang"
  },
  "schemaVersion": "3.3.2",
  "updatedAt": "2021-01-29T02:32:05.635Z",
  "devdoc": {
    "author": "DODO Breeder",
    "methods": {},
    "title": "DODO PrivatePool"
  },
  "userdoc": {
    "methods": {},
    "notice": "DODOPrivatePool initialization"
  }
}