{
  "contractName": "DPP",
  "abi": [
    {
      "anonymous": false,
      "inputs": [
        {
          "indexed": false,
          "internalType": "address",
          "name": "borrower",
          "type": "address"
        },
        {
          "indexed": false,
          "internalType": "address",
          "name": "assetTo",
          "type": "address"
        },
        {
          "indexed": false,
          "internalType": "uint256",
          "name": "baseAmount",
          "type": "uint256"
        },
        {
          "indexed": false,
          "internalType": "uint256",
          "name": "quoteAmount",
          "type": "uint256"
        }
      ],
      "name": "DODOFlashLoan",
      "type": "event"
    },
    {
      "anonymous": false,
      "inputs": [
        {
          "indexed": false,
          "internalType": "address",
          "name": "fromToken",
          "type": "address"
        },
        {
          "indexed": false,
          "internalType": "address",
          "name": "toToken",
          "type": "address"
        },
        {
          "indexed": false,
          "internalType": "uint256",
          "name": "fromAmount",
          "type": "uint256"
        },
        {
          "indexed": false,
          "internalType": "uint256",
          "name": "toAmount",
          "type": "uint256"
        },
        {
          "indexed": false,
          "internalType": "address",
          "name": "trader",
          "type": "address"
        }
      ],
      "name": "DODOSwap",
      "type": "event"
    },
    {
      "anonymous": false,
      "inputs": [
        {
          "indexed": true,
          "internalType": "address",
          "name": "previousOwner",
          "type": "address"
        },
        {
          "indexed": true,
          "internalType": "address",
          "name": "newOwner",
          "type": "address"
        }
      ],
      "name": "OwnershipTransferPrepared",
      "type": "event"
    },
    {
      "anonymous": false,
      "inputs": [
        {
          "indexed": true,
          "internalType": "address",
          "name": "previousOwner",
          "type": "address"
        },
        {
          "indexed": true,
          "internalType": "address",
          "name": "newOwner",
          "type": "address"
        }
      ],
      "name": "OwnershipTransferred",
      "type": "event"
    },
    {
      "anonymous": false,
      "inputs": [
        {
          "indexed": false,
          "internalType": "enum PMMPricing.RState",
          "name": "newRState",
          "type": "uint8"
        }
      ],
      "name": "RChange",
      "type": "event"
    },
    {
      "anonymous": false,
      "inputs": [
        {
          "indexed": false,
          "internalType": "uint256",
          "name": "newLpFeeRate",
          "type": "uint256"
        },
        {
          "indexed": false,
          "internalType": "uint256",
          "name": "newMtFeeRate",
          "type": "uint256"
        }
      ],
      "name": "Reset",
      "type": "event"
    },
    {
      "anonymous": false,
      "inputs": [
        {
          "indexed": false,
          "internalType": "bool",
          "name": "allow",
          "type": "bool"
        }
      ],
      "name": "SetBuy",
      "type": "event"
    },
    {
      "anonymous": false,
      "inputs": [
        {
          "indexed": false,
          "internalType": "address",
          "name": "oldAddr",
          "type": "address"
        },
        {
          "indexed": false,
          "internalType": "address",
          "name": "newAddr",
          "type": "address"
        }
      ],
      "name": "SetGasPriceSource",
      "type": "event"
    },
    {
      "anonymous": false,
      "inputs": [
        {
          "indexed": false,
          "internalType": "address",
          "name": "oldAddr",
          "type": "address"
        },
        {
          "indexed": false,
          "internalType": "address",
          "name": "newAddr",
          "type": "address"
        }
      ],
      "name": "SetISource",
      "type": "event"
    },
    {
      "anonymous": false,
      "inputs": [
        {
          "indexed": false,
          "internalType": "address",
          "name": "oldAddr",
          "type": "address"
        },
        {
          "indexed": false,
          "internalType": "address",
          "name": "newAddr",
          "type": "address"
        }
      ],
      "name": "SetKSource",
      "type": "event"
    },
    {
      "anonymous": false,
      "inputs": [
        {
          "indexed": false,
          "internalType": "address",
          "name": "oldAddr",
          "type": "address"
        },
        {
          "indexed": false,
          "internalType": "address",
          "name": "newAddr",
          "type": "address"
        }
      ],
      "name": "SetLpFeeRateModel",
      "type": "event"
    },
    {
      "anonymous": false,
      "inputs": [
        {
          "indexed": false,
          "internalType": "address",
          "name": "oldAddr",
          "type": "address"
        },
        {
          "indexed": false,
          "internalType": "address",
          "name": "newAddr",
          "type": "address"
        }
      ],
      "name": "SetMaintainer",
      "type": "event"
    },
    {
      "anonymous": false,
      "inputs": [
        {
          "indexed": false,
          "internalType": "address",
          "name": "oldAddr",
          "type": "address"
        },
        {
          "indexed": false,
          "internalType": "address",
          "name": "newAddr",
          "type": "address"
        }
      ],
      "name": "SetMtFeeRateModel",
      "type": "event"
    },
    {
      "anonymous": false,
      "inputs": [
        {
          "indexed": false,
          "internalType": "bool",
          "name": "allow",
          "type": "bool"
        }
      ],
      "name": "SetSell",
      "type": "event"
    },
    {
      "anonymous": false,
      "inputs": [
        {
          "indexed": false,
          "internalType": "address",
          "name": "oldAddr",
          "type": "address"
        },
        {
          "indexed": false,
          "internalType": "address",
          "name": "newAddr",
          "type": "address"
        }
      ],
      "name": "SetTradePermissionManager",
      "type": "event"
    },
    {
      "inputs": [],
      "name": "_BASE_RESERVE_",
      "outputs": [
        {
          "internalType": "uint256",
          "name": "",
          "type": "uint256"
        }
      ],
      "stateMutability": "view",
      "type": "function"
    },
    {
      "inputs": [],
      "name": "_BASE_TARGET_",
      "outputs": [
        {
          "internalType": "uint256",
          "name": "",
          "type": "uint256"
        }
      ],
      "stateMutability": "view",
      "type": "function"
    },
    {
      "inputs": [],
      "name": "_BASE_TOKEN_",
      "outputs": [
        {
          "internalType": "contract IERC20",
          "name": "",
          "type": "address"
        }
      ],
      "stateMutability": "view",
      "type": "function"
    },
    {
      "inputs": [],
      "name": "_BUYING_CLOSE_",
      "outputs": [
        {
          "internalType": "bool",
          "name": "",
          "type": "bool"
        }
      ],
      "stateMutability": "view",
      "type": "function"
    },
    {
      "inputs": [],
      "name": "_GAS_PRICE_LIMIT_",
      "outputs": [
        {
          "internalType": "contract IExternalValue",
          "name": "",
          "type": "address"
        }
      ],
      "stateMutability": "view",
      "type": "function"
    },
    {
      "inputs": [],
      "name": "_I_",
      "outputs": [
        {
          "internalType": "contract IExternalValue",
          "name": "",
          "type": "address"
        }
      ],
      "stateMutability": "view",
      "type": "function"
    },
    {
      "inputs": [],
      "name": "_K_",
      "outputs": [
        {
          "internalType": "contract IExternalValue",
          "name": "",
          "type": "address"
        }
      ],
      "stateMutability": "view",
      "type": "function"
    },
    {
      "inputs": [],
      "name": "_LP_FEE_RATE_MODEL_",
      "outputs": [
        {
          "internalType": "contract IFeeRateModel",
          "name": "",
          "type": "address"
        }
      ],
      "stateMutability": "view",
      "type": "function"
    },
    {
      "inputs": [],
      "name": "_MAINTAINER_",
      "outputs": [
        {
          "internalType": "address",
          "name": "",
          "type": "address"
        }
      ],
      "stateMutability": "view",
      "type": "function"
    },
    {
      "inputs": [],
      "name": "_MT_FEE_RATE_MODEL_",
      "outputs": [
        {
          "internalType": "contract IFeeRateModel",
          "name": "",
          "type": "address"
        }
      ],
      "stateMutability": "view",
      "type": "function"
    },
    {
      "inputs": [],
      "name": "_NEW_OWNER_",
      "outputs": [
        {
          "internalType": "address",
          "name": "",
          "type": "address"
        }
      ],
      "stateMutability": "view",
      "type": "function"
    },
    {
      "inputs": [],
      "name": "_OWNER_",
      "outputs": [
        {
          "internalType": "address",
          "name": "",
          "type": "address"
        }
      ],
      "stateMutability": "view",
      "type": "function"
    },
    {
      "inputs": [],
      "name": "_QUOTE_RESERVE_",
      "outputs": [
        {
          "internalType": "uint256",
          "name": "",
          "type": "uint256"
        }
      ],
      "stateMutability": "view",
      "type": "function"
    },
    {
      "inputs": [],
      "name": "_QUOTE_TARGET_",
      "outputs": [
        {
          "internalType": "uint256",
          "name": "",
          "type": "uint256"
        }
      ],
      "stateMutability": "view",
      "type": "function"
    },
    {
      "inputs": [],
      "name": "_QUOTE_TOKEN_",
      "outputs": [
        {
          "internalType": "contract IERC20",
          "name": "",
          "type": "address"
        }
      ],
      "stateMutability": "view",
      "type": "function"
    },
    {
      "inputs": [],
      "name": "_RState_",
      "outputs": [
        {
          "internalType": "enum PMMPricing.RState",
          "name": "",
          "type": "uint8"
        }
      ],
      "stateMutability": "view",
      "type": "function"
    },
    {
      "inputs": [],
      "name": "_SELLING_CLOSE_",
      "outputs": [
        {
          "internalType": "bool",
          "name": "",
          "type": "bool"
        }
      ],
      "stateMutability": "view",
      "type": "function"
    },
    {
      "inputs": [],
      "name": "_TRADE_PERMISSION_",
      "outputs": [
        {
          "internalType": "contract IPermissionManager",
          "name": "",
          "type": "address"
        }
      ],
      "stateMutability": "view",
      "type": "function"
    },
    {
      "inputs": [],
      "name": "claimOwnership",
      "outputs": [],
      "stateMutability": "nonpayable",
      "type": "function"
    },
    {
      "inputs": [
        {
          "internalType": "uint256",
          "name": "baseAmount",
          "type": "uint256"
        },
        {
          "internalType": "uint256",
          "name": "quoteAmount",
          "type": "uint256"
        },
        {
          "internalType": "address",
          "name": "assetTo",
          "type": "address"
        },
        {
          "internalType": "bytes",
          "name": "data",
          "type": "bytes"
        }
      ],
      "name": "flashLoan",
      "outputs": [],
      "stateMutability": "nonpayable",
      "type": "function"
    },
    {
      "inputs": [],
      "name": "getBaseInput",
      "outputs": [
        {
          "internalType": "uint256",
          "name": "input",
          "type": "uint256"
        }
      ],
      "stateMutability": "view",
      "type": "function"
    },
    {
      "inputs": [],
      "name": "getMidPrice",
      "outputs": [
        {
          "internalType": "uint256",
          "name": "midPrice",
          "type": "uint256"
        }
      ],
      "stateMutability": "view",
      "type": "function"
    },
    {
      "inputs": [],
      "name": "getPMMState",
      "outputs": [
        {
          "components": [
            {
              "internalType": "uint256",
              "name": "i",
              "type": "uint256"
            },
            {
              "internalType": "uint256",
              "name": "K",
              "type": "uint256"
            },
            {
              "internalType": "uint256",
              "name": "B",
              "type": "uint256"
            },
            {
              "internalType": "uint256",
              "name": "Q",
              "type": "uint256"
            },
            {
              "internalType": "uint256",
              "name": "B0",
              "type": "uint256"
            },
            {
              "internalType": "uint256",
              "name": "Q0",
              "type": "uint256"
            },
            {
              "internalType": "enum PMMPricing.RState",
              "name": "R",
              "type": "uint8"
            }
          ],
          "internalType": "struct PMMPricing.PMMState",
          "name": "state",
          "type": "tuple"
        }
      ],
      "stateMutability": "view",
      "type": "function"
    },
    {
      "inputs": [],
      "name": "getPMMStateForCall",
      "outputs": [
        {
          "internalType": "uint256",
          "name": "i",
          "type": "uint256"
        },
        {
          "internalType": "uint256",
          "name": "K",
          "type": "uint256"
        },
        {
          "internalType": "uint256",
          "name": "B",
          "type": "uint256"
        },
        {
          "internalType": "uint256",
          "name": "Q",
          "type": "uint256"
        },
        {
          "internalType": "uint256",
          "name": "B0",
          "type": "uint256"
        },
        {
          "internalType": "uint256",
          "name": "Q0",
          "type": "uint256"
        },
        {
          "internalType": "uint8",
          "name": "R",
          "type": "uint8"
        }
      ],
      "stateMutability": "view",
      "type": "function"
    },
    {
      "inputs": [],
      "name": "getQuoteInput",
      "outputs": [
        {
          "internalType": "uint256",
          "name": "input",
          "type": "uint256"
        }
      ],
      "stateMutability": "view",
      "type": "function"
    },
    {
      "inputs": [
        {
          "internalType": "address",
          "name": "user",
          "type": "address"
        }
      ],
      "name": "getUserFeeRate",
      "outputs": [
        {
          "internalType": "uint256",
          "name": "lpFeeRate",
          "type": "uint256"
        },
        {
          "internalType": "uint256",
          "name": "mtFeeRate",
          "type": "uint256"
        }
      ],
      "stateMutability": "view",
      "type": "function"
    },
    {
      "inputs": [
        {
          "internalType": "address",
          "name": "user",
          "type": "address"
        }
      ],
      "name": "getUserTradePermission",
      "outputs": [
        {
          "internalType": "bool",
          "name": "isBuyAllow",
          "type": "bool"
        },
        {
          "internalType": "bool",
          "name": "isSellAllow",
          "type": "bool"
        }
      ],
      "stateMutability": "view",
      "type": "function"
    },
    {
      "inputs": [],
      "name": "getVaultReserve",
      "outputs": [
        {
          "internalType": "uint256",
          "name": "baseReserve",
          "type": "uint256"
        },
        {
          "internalType": "uint256",
          "name": "quoteReserve",
          "type": "uint256"
        }
      ],
      "stateMutability": "view",
      "type": "function"
    },
    {
      "inputs": [
        {
          "internalType": "address",
          "name": "newOwner",
          "type": "address"
        }
      ],
      "name": "initOwner",
      "outputs": [],
      "stateMutability": "nonpayable",
      "type": "function"
    },
    {
      "inputs": [
        {
          "internalType": "address",
          "name": "trader",
          "type": "address"
        },
        {
          "internalType": "uint256",
          "name": "payBaseAmount",
          "type": "uint256"
        }
      ],
      "name": "querySellBase",
      "outputs": [
        {
          "internalType": "uint256",
          "name": "receiveQuoteAmount",
          "type": "uint256"
        },
        {
          "internalType": "uint256",
          "name": "mtFee",
          "type": "uint256"
        },
        {
          "internalType": "enum PMMPricing.RState",
          "name": "newRState",
          "type": "uint8"
        },
        {
          "internalType": "uint256",
          "name": "newBaseTarget",
          "type": "uint256"
        }
      ],
      "stateMutability": "view",
      "type": "function"
    },
    {
      "inputs": [
        {
          "internalType": "address",
          "name": "trader",
          "type": "address"
        },
        {
          "internalType": "uint256",
          "name": "payQuoteAmount",
          "type": "uint256"
        }
      ],
      "name": "querySellQuote",
      "outputs": [
        {
          "internalType": "uint256",
          "name": "receiveBaseAmount",
          "type": "uint256"
        },
        {
          "internalType": "uint256",
          "name": "mtFee",
          "type": "uint256"
        },
        {
          "internalType": "enum PMMPricing.RState",
          "name": "newRState",
          "type": "uint8"
        },
        {
          "internalType": "uint256",
          "name": "newQuoteTarget",
          "type": "uint256"
        }
      ],
      "stateMutability": "view",
      "type": "function"
    },
    {
      "inputs": [],
      "name": "ratioSync",
      "outputs": [],
      "stateMutability": "nonpayable",
      "type": "function"
    },
    {
      "inputs": [
        {
          "internalType": "address",
          "name": "assetTo",
          "type": "address"
        },
        {
          "internalType": "uint256",
          "name": "newLpFeeRate",
          "type": "uint256"
        },
        {
          "internalType": "uint256",
          "name": "newMtFeeRate",
          "type": "uint256"
        },
        {
          "internalType": "uint256",
          "name": "newI",
          "type": "uint256"
        },
        {
          "internalType": "uint256",
          "name": "newK",
          "type": "uint256"
        },
        {
          "internalType": "uint256",
          "name": "baseOutAmount",
          "type": "uint256"
        },
        {
          "internalType": "uint256",
          "name": "quoteOutAmount",
          "type": "uint256"
        },
        {
          "internalType": "uint256",
          "name": "minBaseReserve",
          "type": "uint256"
        },
        {
          "internalType": "uint256",
          "name": "minQuoteReserve",
          "type": "uint256"
        }
      ],
      "name": "reset",
      "outputs": [
        {
          "internalType": "bool",
          "name": "",
          "type": "bool"
        }
      ],
      "stateMutability": "nonpayable",
      "type": "function"
    },
    {
      "inputs": [
        {
          "internalType": "address",
          "name": "to",
          "type": "address"
        },
        {
          "internalType": "address",
          "name": "token",
          "type": "address"
        },
        {
          "internalType": "uint256",
          "name": "amount",
          "type": "uint256"
        }
      ],
      "name": "retrieve",
      "outputs": [],
      "stateMutability": "nonpayable",
      "type": "function"
    },
    {
      "inputs": [
        {
          "internalType": "address",
          "name": "to",
          "type": "address"
        }
      ],
      "name": "sellBase",
      "outputs": [
        {
          "internalType": "uint256",
          "name": "receiveQuoteAmount",
          "type": "uint256"
        }
      ],
      "stateMutability": "nonpayable",
      "type": "function"
    },
    {
      "inputs": [
        {
          "internalType": "address",
          "name": "to",
          "type": "address"
        }
      ],
      "name": "sellQuote",
      "outputs": [
        {
          "internalType": "uint256",
          "name": "receiveBaseAmount",
          "type": "uint256"
        }
      ],
      "stateMutability": "nonpayable",
      "type": "function"
    },
    {
      "inputs": [
        {
          "internalType": "bool",
          "name": "open",
          "type": "bool"
        }
      ],
      "name": "setBuy",
      "outputs": [],
      "stateMutability": "nonpayable",
      "type": "function"
    },
    {
      "inputs": [
        {
          "internalType": "address",
          "name": "newGasPriceLimitSource",
          "type": "address"
        }
      ],
      "name": "setGasPriceSource",
      "outputs": [],
      "stateMutability": "nonpayable",
      "type": "function"
    },
    {
      "inputs": [
        {
          "internalType": "address",
          "name": "newISource",
          "type": "address"
        }
      ],
      "name": "setISource",
      "outputs": [],
      "stateMutability": "nonpayable",
      "type": "function"
    },
    {
      "inputs": [
        {
          "internalType": "address",
          "name": "newKSource",
          "type": "address"
        }
      ],
      "name": "setKSource",
      "outputs": [],
      "stateMutability": "nonpayable",
      "type": "function"
    },
    {
      "inputs": [
        {
          "internalType": "address",
          "name": "newLpFeeRateModel",
          "type": "address"
        }
      ],
      "name": "setLpFeeRateModel",
      "outputs": [],
      "stateMutability": "nonpayable",
      "type": "function"
    },
    {
      "inputs": [
        {
          "internalType": "address",
          "name": "newMaintainer",
          "type": "address"
        }
      ],
      "name": "setMaintainer",
      "outputs": [],
      "stateMutability": "nonpayable",
      "type": "function"
    },
    {
      "inputs": [
        {
          "internalType": "address",
          "name": "newMtFeeRateModel",
          "type": "address"
        }
      ],
      "name": "setMtFeeRateModel",
      "outputs": [],
      "stateMutability": "nonpayable",
      "type": "function"
    },
    {
      "inputs": [
        {
          "internalType": "bool",
          "name": "open",
          "type": "bool"
        }
      ],
      "name": "setSell",
      "outputs": [],
      "stateMutability": "nonpayable",
      "type": "function"
    },
    {
      "inputs": [
        {
          "internalType": "uint256",
          "name": "baseTarget",
          "type": "uint256"
        },
        {
          "internalType": "uint256",
          "name": "quoteTarget",
          "type": "uint256"
        }
      ],
      "name": "setTarget",
      "outputs": [],
      "stateMutability": "nonpayable",
      "type": "function"
    },
    {
      "inputs": [
        {
          "internalType": "address",
          "name": "newTradePermissionManager",
          "type": "address"
        }
      ],
      "name": "setTradePermissionManager",
      "outputs": [],
      "stateMutability": "nonpayable",
      "type": "function"
    },
    {
      "inputs": [
        {
          "internalType": "address",
          "name": "newOwner",
          "type": "address"
        }
      ],
      "name": "transferOwnership",
      "outputs": [],
      "stateMutability": "nonpayable",
      "type": "function"
    },
    {
      "inputs": [
        {
          "internalType": "address",
          "name": "owner",
          "type": "address"
        },
        {
          "internalType": "address",
          "name": "maintainer",
          "type": "address"
        },
        {
          "internalType": "address",
          "name": "baseTokenAddress",
          "type": "address"
        },
        {
          "internalType": "address",
          "name": "quoteTokenAddress",
          "type": "address"
        },
        {
          "internalType": "address",
          "name": "lpFeeRateModel",
          "type": "address"
        },
        {
          "internalType": "address",
          "name": "mtFeeRateModel",
          "type": "address"
        },
        {
          "internalType": "address",
          "name": "kSource",
          "type": "address"
        },
        {
          "internalType": "address",
          "name": "iSource",
          "type": "address"
        },
        {
          "internalType": "address",
          "name": "gasPriceSource",
          "type": "address"
        },
        {
          "internalType": "address",
          "name": "tradePermissionManager",
          "type": "address"
        }
      ],
      "name": "init",
      "outputs": [],
      "stateMutability": "nonpayable",
      "type": "function"
    },
    {
      "inputs": [],
      "name": "version",
      "outputs": [
        {
          "internalType": "string",
          "name": "",
          "type": "string"
        }
      ],
      "stateMutability": "pure",
      "type": "function"
    }
  ],
  "bytecode": "0x608060405234801561001057600080fd5b506140d1806100206000396000f3fe608060405234801561001057600080fd5b50600436106102bb5760003560e01c8063812700ab11610182578063d266d298116100e9578063eae8054e116100a2578063f2fde38b1161007c578063f2fde38b14610594578063f6b06e70146105a7578063f811d692146105af578063fd1ed7e9146105b7576102bb565b8063eae8054e14610571578063ec2fd46d14610584578063ee27c6891461058c576102bb565b8063d266d29814610515578063d4b9704614610528578063dd93f59a14610530578063e539ef4914610543578063e60645191461054b578063e92b201e1461055e576102bb565b8063b441ef1a1161013b578063b441ef1a146104c2578063bbf5ce78146104ca578063bd6015b4146104d2578063bf357dae146104e5578063c57a5d03146104fa578063d0a494e414610502576102bb565b8063812700ab146104575780638456db151461046c578063a1b6233814610474578063a382d1b914610487578063a8a4e9a41461049c578063b076a53a146104af576102bb565b80634cc6cf4e1161022657806371f9100c116101df57806371f9100c1461040357806377f586571461040b57806379a04876146104135780637c8135b4146104265780637d7215041461044757806380b4105f1461044f576102bb565b80634cc6cf4e1461039e5780634de4527e146103a65780634e71e0c8146103ae57806354fd4d50146103b657806365f6fcbb146103cb57806366410a21146103e0576102bb565b806327c2a2911161027857806327c2a2911461033f57806328c4e24c1461035257806336223ce9146103655780634322ec831461037b57806344096609146103835780634a248d2a14610396576102bb565b8063030ceb1d146102c05780630d009297146102d557806313ea5d29146102e857806316048bc4146102fb5780631755930d146103195780631d0f2c991461032c575b600080fd5b6102d36102ce366004613783565b6105d2565b005b6102d36102e3366004613783565b61067b565b6102d36102f6366004613783565b6106db565b61030361076e565b6040516103109190613a52565b60405180910390f35b6102d3610327366004613783565b61077d565b6102d361033a366004613982565b610814565b6102d361034d36600461379e565b6108a0565b6102d3610360366004613861565b61098a565b61036d610a67565b604051610310929190613f95565b610303610a71565b61036d610391366004613783565b610a80565b610303610b91565b610303610ba0565b610303610bb4565b6102d3610bc3565b6103be610c51565b6040516103109190613b70565b6103d3610c75565b6040516103109190613f8c565b6103f36103ee3660046138a1565b610d12565b6040516103109493929190613fa3565b6103d3610e88565b6103d3610ec4565b6103f36104213660046138a1565b610eca565b610439610434366004613783565b611033565b604051610310929190613b49565b6103d3611165565b61030361116b565b61045f61117a565b6040516103109190613b3e565b61030361118a565b6102d3610482366004613783565b611199565b61048f61122d565b6040516103109190613f36565b6102d36104aa366004613783565b61138e565b6102d36104bd366004613932565b611421565b61045f61149d565b6103d36114ad565b6103d36104e0366004613783565b6114b3565b6104ed611753565b6040516103109190613b5b565b6102d361175c565b6102d36105103660046139a3565b611941565b6102d3610523366004613783565b611f65565b610303611ff8565b6103d361053e366004613783565b612007565b6103d3612287565b6102d3610559366004613932565b61228d565b61045f61056c3660046138cb565b612309565b6102d361057f366004613783565b6125a9565b61030361263c565b6103d361264b565b6102d36105a2366004613783565b61265d565b6103036126e2565b6103036126f1565b6105bf612700565b6040516103109796959493929190613fce565b6000546001600160a01b031633146106055760405162461bcd60e51b81526004016105fc90613e06565b60405180910390fd5b7fcf5d25c0bfc3116f92ae66ef383cb1711740b7d63bc9a398dcea81db50b14867600b60019054906101000a90046001600160a01b03168260405161064b929190613adb565b60405180910390a1600b80546001600160a01b0390921661010002610100600160a81b0319909216919091179055565b600154600160a01b900460ff16156106a55760405162461bcd60e51b81526004016105fc90613d46565b6001805460ff60a01b1916600160a01b179055600080546001600160a01b039092166001600160a01b0319909216919091179055565b6000546001600160a01b031633146107055760405162461bcd60e51b81526004016105fc90613e06565b6004546040517f4a0b4f56d51e80b4326f54a5c49a82dd619e7f6f936f3f381de080d05dcbab1b91610744916001600160a01b03909116908490613adb565b60405180910390a1600480546001600160a01b0319166001600160a01b0392909216919091179055565b6000546001600160a01b031681565b6000546001600160a01b031633146107a75760405162461bcd60e51b81526004016105fc90613e06565b600d546040517f9de9426e52d30eff1ec56117e7eaf38c7b99ea23a208f6f21549c812cdb95026916107e6916001600160a01b03909116908490613adb565b60405180910390a1600d80546001600160a01b0319166001600160a01b038316179055610811612763565b50565b600154600160a81b900460ff161561083e5760405162461bcd60e51b81526004016105fc90613c6c565b6001805460ff60a81b1916600160a81b179055600054336001600160a01b039091161461087d5760405162461bcd60e51b81526004016105fc90613e06565b6009829055600a81905561088f6128d3565b50506001805460ff60a81b19169055565b6108a98a61067b565b866001600160a01b0316886001600160a01b031614156108db5760405162461bcd60e51b81526004016105fc90613c8f565b600580546001600160a01b03199081166001600160a01b038b8116919091179092556006805482168a8416179055600b8054610100600160a81b0319166101008a851602179055600c80548216888416179055600e80548216868416179055600d8054821687841617905560038054821685841617905560028054821684841617905560048054909116918b1691909117905561097661297f565b61097e612763565b50505050505050505050565b600154600160a81b900460ff16156109b45760405162461bcd60e51b81526004016105fc90613c6c565b6001805460ff60a81b1916600160a81b179055600054336001600160a01b03909116146109f35760405162461bcd60e51b81526004016105fc90613e06565b6005546001600160a01b03838116911614801590610a1f57506006546001600160a01b03838116911614155b610a3b5760405162461bcd60e51b81526004016105fc90613ec6565b610a556001600160a01b038316848363ffffffff612a9816565b50506001805460ff60a81b1916905550565b6007546008549091565b6004546001600160a01b031681565b600b54604051638198edbf60e01b815260009182916101009091046001600160a01b031690638198edbf90610ab9908690600401613a52565b60206040518083038186803b158015610ad157600080fd5b505afa158015610ae5573d6000803e3d6000fd5b505050506040513d601f19601f82011682018060405250810190610b09919061396a565b600c54604051638198edbf60e01b81529193506001600160a01b031690638198edbf90610b3a908690600401613a52565b60206040518083038186803b158015610b5257600080fd5b505afa158015610b66573d6000803e3d6000fd5b505050506040513d601f19601f82011682018060405250810190610b8a919061396a565b9050915091565b6005546001600160a01b031681565b600b5461010090046001600160a01b031681565b6003546001600160a01b031681565b6001546001600160a01b03163314610bed5760405162461bcd60e51b81526004016105fc90613bf5565b600154600080546040516001600160a01b0393841693909116917f8be0079c531659141344cd1fd0a4f28419497f9722a3daafe3b4186f6b6457e091a360018054600080546001600160a01b03199081166001600160a01b03841617909155169055565b604080518082019091526009815268044505020312e302e360bc1b60208201525b90565b6007546005546040516370a0823160e01b8152600092610d0d9290916001600160a01b03909116906370a0823190610cb1903090600401613a52565b60206040518083038186803b158015610cc957600080fd5b505afa158015610cdd573d6000803e3d6000fd5b505050506040513d601f19601f82011682018060405250810190610d01919061396a565b9063ffffffff612af316565b905090565b600080600080610d20613725565b610d2861122d565b9050610d348187612b20565b600b54604051638198edbf60e01b81529297509094506000916101009091046001600160a01b031690638198edbf90610d71908b90600401613a52565b60206040518083038186803b158015610d8957600080fd5b505afa158015610d9d573d6000803e3d6000fd5b505050506040513d601f19601f82011682018060405250810190610dc1919061396a565b600c54604051638198edbf60e01b81529192506000916001600160a01b0390911690638198edbf90610df7908c90600401613a52565b60206040518083038186803b158015610e0f57600080fd5b505afa158015610e23573d6000803e3d6000fd5b505050506040513d601f19601f82011682018060405250810190610e47919061396a565b9050610e538782612c26565b9550610e7386610d01610e668a86612c26565b8a9063ffffffff612af316565b96508260a00151935050505092959194509250565b6008546006546040516370a0823160e01b8152600092610d0d9290916001600160a01b03909116906370a0823190610cb1903090600401613a52565b600a5481565b600080600080610ed8613725565b610ee061122d565b9050610eec8187612c50565b600b54604051638198edbf60e01b81529297509094506000916101009091046001600160a01b031690638198edbf90610f29908b90600401613a52565b60206040518083038186803b158015610f4157600080fd5b505afa158015610f55573d6000803e3d6000fd5b505050506040513d601f19601f82011682018060405250810190610f79919061396a565b600c54604051638198edbf60e01b81529192506000916001600160a01b0390911690638198edbf90610faf908c90600401613a52565b60206040518083038186803b158015610fc757600080fd5b505afa158015610fdb573d6000803e3d6000fd5b505050506040513d601f19601f82011682018060405250810190610fff919061396a565b905061100b8782612c26565b955061101e86610d01610e668a86612c26565b96508260800151935050505092959194509250565b6001546000908190600160b01b900460ff161580156110cd575060025460405163babcc53960e01b81526001600160a01b039091169063babcc5399061107d908690600401613a52565b60206040518083038186803b15801561109557600080fd5b505afa1580156110a9573d6000803e3d6000fd5b505050506040513d601f19601f820116820180604052508101906110cd919061394e565b600154909250600160b81b900460ff16158015610b8a575060025460405163babcc53960e01b81526001600160a01b039091169063babcc53990611115908690600401613a52565b60206040518083038186803b15801561112d57600080fd5b505afa158015611141573d6000803e3d6000fd5b505050506040513d601f19601f82011682018060405250810190610b8a919061394e565b60075481565b6002546001600160a01b031681565b600154600160b81b900460ff1681565b6001546001600160a01b031681565b6000546001600160a01b031633146111c35760405162461bcd60e51b81526004016105fc90613e06565b600e546040517fba4ac14ee5083172dadfba9afd7b1faba43d0cb573f19fa2fcde2c4efb8da8f991611202916001600160a01b03909116908490613adb565b60405180910390a1600e80546001600160a01b0319166001600160a01b038316179055610811612763565b611235613725565b600e60009054906101000a90046001600160a01b03166001600160a01b0316636d4ce63c6040518163ffffffff1660e01b815260040160206040518083038186803b15801561128357600080fd5b505afa158015611297573d6000803e3d6000fd5b505050506040513d601f19601f820116820180604052508101906112bb919061396a565b8152600d5460408051631b53398f60e21b815290516001600160a01b0390921691636d4ce63c91600480820192602092909190829003018186803b15801561130257600080fd5b505afa158015611316573d6000803e3d6000fd5b505050506040513d601f19601f8201168201806040525081019061133a919061396a565b6020820152600754604082015260085460608201526009546080820152600a5460a0820152600b5460c082019060ff16600281111561137557fe5b9081600281111561138257fe5b905250610c7281612d51565b6000546001600160a01b031633146113b85760405162461bcd60e51b81526004016105fc90613e06565b600c546040517fe968821edb3ccf820ae1a0362f3908c52be12dee0bde48a6b98adf57c3277d3e916113f7916001600160a01b03909116908490613adb565b60405180910390a1600c80546001600160a01b0319166001600160a01b0392909216919091179055565b6000546001600160a01b0316331461144b5760405162461bcd60e51b81526004016105fc90613e06565b7fc2e7debb07fdaffbfccbf1e1473673167b6a960decabe5d1dbf22b4597d557778160405161147a9190613b3e565b60405180910390a16001805460ff60b81b19169115600160b81b02919091179055565b600154600160b01b900460ff1681565b60085481565b600154600090600160a81b900460ff16156114e05760405162461bcd60e51b81526004016105fc90613c6c565b6001805460ff60a81b1916600160a81b17905560035460408051631b53398f60e21b815290516001600160a01b0390921691636d4ce63c91600480820192602092909190829003018186803b15801561153857600080fd5b505afa15801561154c573d6000803e3d6000fd5b505050506040513d601f19601f82011682018060405250810190611570919061396a565b3a111561158f5760405162461bcd60e51b81526004016105fc90613f0c565b6001548290600160b81b900460ff16158015611626575060025460405163babcc53960e01b81526001600160a01b039091169063babcc539906115d6908490600401613a52565b60206040518083038186803b1580156115ee57600080fd5b505afa158015611602573d6000803e3d6000fd5b505050506040513d601f19601f82011682018060405250810190611626919061394e565b6116425760405162461bcd60e51b81526004016105fc90613dcf565b600061164c610c75565b9050600080600061165d3285610eca565b92985090945090925090506116728787612dfa565b600454611688906001600160a01b031684612dfa565b611690612e1d565b80600281111561169c57fe5b600b5460ff1660028111156116ad57fe5b146116fc57600b805482919060ff191660018360028111156116cb57fe5b0217905550600982905560405160008051602061407c833981519152906116f3908390613b5b565b60405180910390a15b60055460065460405160008051602061405c83398151915292611733926001600160a01b039182169291169088908b903390613af5565b60405180910390a150506001805460ff60a81b1916905550919392505050565b600b5460ff1681565b600154600160a81b900460ff16156117865760405162461bcd60e51b81526004016105fc90613c6c565b6001805460ff60a81b1916600160a81b179055600054336001600160a01b03909116146117c55760405162461bcd60e51b81526004016105fc90613e06565b6005546040516370a0823160e01b81526000916001600160a01b0316906370a08231906117f6903090600401613a52565b60206040518083038186803b15801561180e57600080fd5b505afa158015611822573d6000803e3d6000fd5b505050506040513d601f19601f82011682018060405250810190611846919061396a565b6006546040516370a0823160e01b81529192506000916001600160a01b03909116906370a082319061187c903090600401613a52565b60206040518083038186803b15801561189457600080fd5b505afa1580156118a8573d6000803e3d6000fd5b505050506040513d601f19601f820116820180604052508101906118cc919061396a565b90506007548214611907576118fe6007546118f284600954612f4490919063ffffffff16565b9063ffffffff612f8516565b60095560078290555b600854811461088f5761192b6008546118f283600a54612f4490919063ffffffff16565b600a55600855506001805460ff60a81b19169055565b600154600160a81b900460ff161561196b5760405162461bcd60e51b81526004016105fc90613c6c565b6001805460ff60a81b1916600160a81b17908190558390600160b81b900460ff16158015611a14575060025460405163babcc53960e01b81526001600160a01b039091169063babcc539906119c4908490600401613a52565b60206040518083038186803b1580156119dc57600080fd5b505afa1580156119f0573d6000803e3d6000fd5b505050506040513d601f19601f82011682018060405250810190611a14919061394e565b611a305760405162461bcd60e51b81526004016105fc90613dcf565b6001548490600160b01b900460ff16158015611ac7575060025460405163babcc53960e01b81526001600160a01b039091169063babcc53990611a77908490600401613a52565b60206040518083038186803b158015611a8f57600080fd5b505afa158015611aa3573d6000803e3d6000fd5b505050506040513d601f19601f82011682018060405250810190611ac7919061394e565b611ae35760405162461bcd60e51b81526004016105fc90613e96565b611aed8588612faf565b611af78587612dfa565b8215611b6457604051637ed1f1dd60e01b81526001600160a01b03861690637ed1f1dd90611b319033908b908b908a908a90600401613a8f565b600060405180830381600087803b158015611b4b57600080fd5b505af1158015611b5f573d6000803e3d6000fd5b505050505b6005546040516370a0823160e01b81526000916001600160a01b0316906370a0823190611b95903090600401613a52565b60206040518083038186803b158015611bad57600080fd5b505afa158015611bc1573d6000803e3d6000fd5b505050506040513d601f19601f82011682018060405250810190611be5919061396a565b6006546040516370a0823160e01b81529192506000916001600160a01b03909116906370a0823190611c1b903090600401613a52565b60206040518083038186803b158015611c3357600080fd5b505afa158015611c47573d6000803e3d6000fd5b505050506040513d601f19601f82011682018060405250810190611c6b919061396a565b905060075482101580611c8057506008548110155b611c9c5760405162461bcd60e51b81526004016105fc90613ba3565b600754821015611dd2576000611cbd60085483612af390919063ffffffff16565b9050600080600080611ccf3286610d12565b935093509350935083611ced88600754612af390919063ffffffff16565b1115611d0b5760405162461bcd60e51b81526004016105fc90613ba3565b600454611d21906001600160a01b031684612faf565b816002811115611d2d57fe5b600b5460ff166002811115611d3e57fe5b14611d8d57600b805483919060ff19166001836002811115611d5c57fe5b0217905550600a81905560405160008051602061407c83398151915290611d84908490613b5b565b60405180910390a15b60065460055460405160008051602061405c83398151915292611dc4926001600160a01b0391821692911690899089903390613af5565b60405180910390a150505050505b600854811015611f08576000611df360075484612af390919063ffffffff16565b9050600080600080611e053286610eca565b935093509350935083611e2387600854612af390919063ffffffff16565b1115611e415760405162461bcd60e51b81526004016105fc90613ba3565b600454611e57906001600160a01b031684612dfa565b816002811115611e6357fe5b600b5460ff166002811115611e7457fe5b14611ec357600b805483919060ff19166001836002811115611e9257fe5b0217905550600981905560405160008051602061407c83398151915290611eba908490613b5b565b60405180910390a15b60055460065460405160008051602061405c83398151915292611efa926001600160a01b0391821692911690899089903390613af5565b60405180910390a150505050505b611f10612e1d565b7f0b82e93068db15abd9fbb2682c65462ea8a0a10582dce93a5664818e296f54eb33888b8b604051611f459493929190613a66565b60405180910390a150506001805460ff60a81b1916905550505050505050565b6000546001600160a01b03163314611f8f5760405162461bcd60e51b81526004016105fc90613e06565b6003546040517fe71e5f179a8230ba59e5796a124135ebe7a4c9ba66e777a77dd67f0f5085871e91611fce916001600160a01b03909116908490613adb565b60405180910390a1600380546001600160a01b0319166001600160a01b0392909216919091179055565b6006546001600160a01b031681565b600154600090600160a81b900460ff16156120345760405162461bcd60e51b81526004016105fc90613c6c565b6001805460ff60a81b1916600160a81b17905560035460408051631b53398f60e21b815290516001600160a01b0390921691636d4ce63c91600480820192602092909190829003018186803b15801561208c57600080fd5b505afa1580156120a0573d6000803e3d6000fd5b505050506040513d601f19601f820116820180604052508101906120c4919061396a565b3a11156120e35760405162461bcd60e51b81526004016105fc90613f0c565b6001548290600160b01b900460ff1615801561217a575060025460405163babcc53960e01b81526001600160a01b039091169063babcc5399061212a908490600401613a52565b60206040518083038186803b15801561214257600080fd5b505afa158015612156573d6000803e3d6000fd5b505050506040513d601f19601f8201168201806040525081019061217a919061394e565b6121965760405162461bcd60e51b81526004016105fc90613e96565b60006121a0610e88565b905060008060006121b13285610d12565b92985090945090925090506121c68787612faf565b6004546121dc906001600160a01b031684612faf565b6121e4612e1d565b8060028111156121f057fe5b600b5460ff16600281111561220157fe5b1461225057600b805482919060ff1916600183600281111561221f57fe5b0217905550600a82905560405160008051602061407c83398151915290612247908390613b5b565b60405180910390a15b60065460055460405160008051602061405c83398151915292611733926001600160a01b039182169291169088908b903390613af5565b60095481565b6000546001600160a01b031633146122b75760405162461bcd60e51b81526004016105fc90613e06565b7f783ddcbb9605b3a4e2249c445cee962edf1b7c5e40eef0571e0a45311ac1cec1816040516122e69190613b3e565b60405180910390a16001805460ff60b01b19169115600160b01b02919091179055565b600154600090600160a81b900460ff16156123365760405162461bcd60e51b81526004016105fc90613c6c565b6001805460ff60a81b1916600160a81b179055600054336001600160a01b03909116146123755760405162461bcd60e51b81526004016105fc90613e06565b826007541015801561238957508160085410155b6123a55760405162461bcd60e51b81526004016105fc90613d70565b600b546040516322acb71760e11b81526101009091046001600160a01b0316906345596e2e906123d9908c90600401613f8c565b600060405180830381600087803b1580156123f357600080fd5b505af1158015612407573d6000803e3d6000fd5b5050600c546040516322acb71760e11b81526001600160a01b0390911692506345596e2e915061243b908b90600401613f8c565b600060405180830381600087803b15801561245557600080fd5b505af1158015612469573d6000803e3d6000fd5b5050600e546040516360fe47b160e01b81526001600160a01b0390911692506360fe47b1915061249d908a90600401613f8c565b600060405180830381600087803b1580156124b757600080fd5b505af11580156124cb573d6000803e3d6000fd5b5050600d546040516360fe47b160e01b81526001600160a01b0390911692506360fe47b191506124ff908990600401613f8c565b600060405180830381600087803b15801561251957600080fd5b505af115801561252d573d6000803e3d6000fd5b5050505061253b8a86612faf565b6125458a85612dfa565b61254d61297f565b612555612763565b7f5ae2e83411b15aef3c1609c37f90fc7c912666cfac3ba72a9ba900a39c5bfaa38989604051612586929190613f95565b60405180910390a150506001805460ff60a81b1916815598975050505050505050565b6000546001600160a01b031633146125d35760405162461bcd60e51b81526004016105fc90613e06565b6002546040517f0bec6c367a89b143790909eb85c607d6b4661114e71f4855130d0a78c4613f5691612612916001600160a01b03909116908490613adb565b60405180910390a1600280546001600160a01b0319166001600160a01b0392909216919091179055565b600d546001600160a01b031681565b6000610d0d61265861122d565b612fd2565b6000546001600160a01b031633146126875760405162461bcd60e51b81526004016105fc90613e06565b600080546040516001600160a01b03808516939216917fdcf55418cee3220104fef63f979ff3c4097ad240c0c43dcb33ce837748983e6291a3600180546001600160a01b0319166001600160a01b0392909216919091179055565b600c546001600160a01b031681565b600e546001600160a01b031681565b6000806000806000806000612713613725565b61271b61122d565b905080600001519750806020015196508060400151955080606001519450806080015193508060a0015192508060c00151600281111561275757fe5b91505090919293949596565b600d5460408051631b53398f60e21b815290516000926001600160a01b031691636d4ce63c916004808301926020929190829003018186803b1580156127a857600080fd5b505afa1580156127bc573d6000803e3d6000fd5b505050506040513d601f19601f820116820180604052508101906127e0919061396a565b90506000600e60009054906101000a90046001600160a01b03166001600160a01b0316636d4ce63c6040518163ffffffff1660e01b815260040160206040518083038186803b15801561283257600080fd5b505afa158015612846573d6000803e3d6000fd5b505050506040513d601f19601f8201168201806040525081019061286a919061396a565b9050670de0b6b3a76400008211156128945760405162461bcd60e51b81526004016105fc90613da7565b6000811180156128b357506ec097ce7bc90715b34b9f10000000008111155b6128cf5760405162461bcd60e51b81526004016105fc90613c44565b5050565b6009546007541480156128e95750600a54600854145b1561290857600b80546000919060ff19166001835b021790555061297d565b60095460075411801561291e5750600a54600854105b1561293757600b80546002919060ff19166001836128fe565b60095460075410801561294d5750600a54600854115b1561296557600b80546001919060ff191682806128fe565b60405162461bcd60e51b81526004016105fc90613bce565b565b6005546040516370a0823160e01b81526001600160a01b03909116906370a08231906129af903090600401613a52565b60206040518083038186803b1580156129c757600080fd5b505afa1580156129db573d6000803e3d6000fd5b505050506040513d601f19601f820116820180604052508101906129ff919061396a565b6009556006546040516370a0823160e01b81526001600160a01b03909116906370a0823190612a32903090600401613a52565b60206040518083038186803b158015612a4a57600080fd5b505afa158015612a5e573d6000803e3d6000fd5b505050506040513d601f19601f82011682018060405250810190612a82919061396a565b600a81905560095460075560085561297d6128d3565b612aee8363a9059cbb60e01b8484604051602401612ab7929190613b25565b60408051601f198184030181529190526020810180516001600160e01b03166001600160e01b0319909316929092179091526130c9565b505050565b600082821115612b155760405162461bcd60e51b81526004016105fc90613d23565b508082035b92915050565b600080808460c001516002811115612b3457fe5b1415612b4f57612b448484613186565b915060019050612c1f565b60018460c001516002811115612b6157fe5b1415612b7157612b4484846131ad565b6000612b8e85606001518660a00151612af390919063ffffffff16565b90506000612bad86608001518760400151612af390919063ffffffff16565b905081851015612bd857612bc186866131ca565b93506002925080841115612bd3578093505b612c1c565b81851415612bec5780935060009250612c1c565b612c15612c0887612c03888663ffffffff612af316565b613186565b829063ffffffff61320516565b9350600192505b50505b9250929050565b6000670de0b6b3a7640000612c41848463ffffffff612f4416565b81612c4857fe5b049392505050565b600080808460c001516002811115612c6457fe5b1415612c7f57612c74848461322a565b915060029050612c1f565b60018460c001516002811115612c9157fe5b1415612d3c576000612cb485604001518660800151612af390919063ffffffff16565b90506000612cd38660a001518760600151612af390919063ffffffff16565b905081851015612cfe57612ce78686613249565b93506001925080841115612cf9578093505b612d35565b81851415612d125780935060009250612d35565b612d2e612c0887612d29888663ffffffff612af316565b61322a565b9350600292505b5050612c1f565b612d46848461327b565b946002945092505050565b60028160c001516002811115612d6357fe5b1415612da257612d988160600151612d8c83608001518460400151612af390919063ffffffff16565b8351602085015161329a565b60a0820152610811565b60018160c001516002811115612db457fe5b141561081157612df28160400151612ddd8360a001518460600151612af390919063ffffffff16565b8351612de89061334b565b846020015161329a565b608082015250565b80156128cf576006546128cf906001600160a01b0316838363ffffffff612a9816565b6005546040516370a0823160e01b81526000916001600160a01b0316906370a0823190612e4e903090600401613a52565b60206040518083038186803b158015612e6657600080fd5b505afa158015612e7a573d6000803e3d6000fd5b505050506040513d601f19601f82011682018060405250810190612e9e919061396a565b6006546040516370a0823160e01b81529192506000916001600160a01b03909116906370a0823190612ed4903090600401613a52565b60206040518083038186803b158015612eec57600080fd5b505afa158015612f00573d6000803e3d6000fd5b505050506040513d601f19601f82011682018060405250810190612f24919061396a565b90506007548214612f355760078290555b60085481146128cf5760085550565b600082612f5357506000612b1a565b82820282848281612f6057fe5b0414612f7e5760405162461bcd60e51b81526004016105fc90613ee9565b9392505050565b6000808211612fa65760405162461bcd60e51b81526004016105fc90613cfb565b818381612c4857fe5b80156128cf576005546128cf906001600160a01b0316838363ffffffff612a9816565b600060028260c001516002811115612fe657fe5b141561307157606082015160a083015160009161301c9161301291906118f2908063ffffffff612f4416565b846060015161336c565b905061305961302f846020015183612c26565b602085015161304d90670de0b6b3a76400009063ffffffff612af316565b9063ffffffff61320516565b905061306983600001518261336c565b9150506130c4565b604082015160808301516000916130a19161309791906118f2908063ffffffff612f4416565b846040015161336c565b90506130b461302f846020015183612c26565b9050613069836000015182612c26565b919050565b60006060836001600160a01b0316836040516130e59190613a36565b6000604051808303816000865af19150503d8060008114613122576040519150601f19603f3d011682016040523d82523d6000602084013e613127565b606091505b5091509150816131495760405162461bcd60e51b81526004016105fc90613cc6565b8051156131805780806020019051810190613164919061394e565b6131805760405162461bcd60e51b81526004016105fc90613e4c565b50505050565b6000612f7e83608001518460800151846131a3876000015161334b565b876020015161338a565b6000612f7e83608001518460400151846131a3876000015161334b565b6000612f7e8360a001516131eb84866060015161320590919063ffffffff16565b606086015186516131fb9061334b565b87602001516135c6565b600082820183811015612f7e5760405162461bcd60e51b81526004016105fc90613e29565b6000612f7e8360a001518460a00151848660000151876020015161338a565b6000612f7e836080015161326a84866040015161320590919063ffffffff16565b6040860151865160208801516135c6565b6000612f7e8360a001518460600151848660000151876020015161338a565b6000816132c2576132bb6132ae8486612c26565b869063ffffffff61320516565b9050613343565b60006133066133016ec097ce7bc90715b34b9f100000000061304d896118f28a6132f560048b028c63ffffffff612f4416565b9063ffffffff612f4416565b613697565b90506000613332670de0b6b3a764000061304d613329858363ffffffff612af316565b8760020261336c565b905061333e8782612c26565b925050505b949350505050565b6000612b1a6ec097ce7bc90715b34b9f10000000008363ffffffff612f8516565b6000612f7e826118f285670de0b6b3a764000063ffffffff612f4416565b60008086116133ab5760405162461bcd60e51b81526004016105fc90613c1c565b836133b8575060006135bd565b816133e557846133c88486612c26565b116133dc576133d78385612c26565b6133de565b845b90506135bd565b670de0b6b3a764000082141561345357600061341e61340a888063ffffffff612f4416565b6118f2886132f5888a63ffffffff612f4416565b905061344b61343b82670de0b6b3a764000063ffffffff61320516565b6118f2888463ffffffff612f4416565b9150506135bd565b6000613480613468858763ffffffff612f4416565b61304d896132f58a6118f2898463ffffffff612f4416565b905060006134a0876132f5670de0b6b3a76400008763ffffffff612af316565b905060008282106134c6576134bb828463ffffffff612af316565b9150600090506134dd565b6134d6838363ffffffff612af316565b9150600190505b6134f582670de0b6b3a764000063ffffffff612f8516565b9150600061352c61351960046132f5670de0b6b3a76400008a63ffffffff612af316565b6135278c6132f58a8f612c26565b612c26565b90506135456133018261304d868063ffffffff612f4416565b9050600061356660026132f5670de0b6b3a76400008a63ffffffff612af316565b90506000831561358757613580838663ffffffff612af316565b905061359a565b613597858463ffffffff61320516565b90505b6135b46135a782846136ce565b8c9063ffffffff612af316565b96505050505050505b95945050505050565b60008086116135e75760405162461bcd60e51b81526004016105fc90613c1c565b60006136096135fc878763ffffffff612af316565b859063ffffffff612f4416565b9050826136285761344b81670de0b6b3a764000063ffffffff612f8516565b6000613647613641886118f28b8063ffffffff612f4416565b8761336c565b905060006136558583612c26565b905061368a6ec097ce7bc90715b34b9f10000000006118f2856132f58561304d670de0b6b3a76400008c63ffffffff612af316565b9998505050505050505050565b80600160028204015b818110156136c8578091506002818285816136b757fe5b0401816136c057fe5b0490506136a0565b50919050565b6000612f7e826136ec85670de0b6b3a764000063ffffffff612f4416565b9063ffffffff6136f816565b6000806137058484612f85565b90508281028403801561371d57506001019050612b1a565b509050612b1a565b6040518060e001604052806000815260200160008152602001600081526020016000815260200160008152602001600081526020016000600281111561376757fe5b905290565b80356001600160a01b0381168114612b1a57600080fd5b600060208284031215613794578081fd5b612f7e838361376c565b6000806000806000806000806000806101408b8d0312156137bd578586fd5b6137c78c8c61376c565b99506137d68c60208d0161376c565b98506137e58c60408d0161376c565b97506137f48c60608d0161376c565b96506138038c60808d0161376c565b95506138128c60a08d0161376c565b94506138218c60c08d0161376c565b93506138308c60e08d0161376c565b92506138408c6101008d0161376c565b91506138508c6101208d0161376c565b90509295989b9194979a5092959850565b600080600060608486031215613875578283fd5b833561388081614038565b9250602084013561389081614038565b929592945050506040919091013590565b600080604083850312156138b3578182fd5b6138bd848461376c565b946020939093013593505050565b60008060008060008060008060006101208a8c0312156138e9578485fd5b89356138f481614038565b9b60208b01359b5060408b01359a60608101359a506080810135995060a0810135985060c0810135975060e081013596506101000135945092505050565b600060208284031215613943578081fd5b8135612f7e8161404d565b60006020828403121561395f578081fd5b8151612f7e8161404d565b60006020828403121561397b578081fd5b5051919050565b60008060408385031215613994578182fd5b50508035926020909101359150565b6000806000806000608086880312156139ba578081fd5b85359450602086013593506139d2876040880161376c565b9250606086013567ffffffffffffffff808211156139ee578283fd5b81880189601f8201126139ff578384fd5b8035925081831115613a0f578384fd5b896020848301011115613a20578384fd5b6020810194505050809150509295509295909350565b60008251613a4881846020870161400c565b9190910192915050565b6001600160a01b0391909116815260200190565b6001600160a01b0394851681529290931660208301526040820152606081019190915260800190565b600060018060a01b038716825285602083015284604083015260806060830152826080830152828460a084013781830160a090810191909152601f909201601f19160101949350505050565b6001600160a01b0392831681529116602082015260400190565b6001600160a01b039586168152938516602085015260408401929092526060830152909116608082015260a00190565b6001600160a01b03929092168252602082015260400190565b901515815260200190565b91151582521515602082015260400190565b60208101613b6883614001565b825292915050565b6000602082528251806020840152613b8f81604085016020870161400c565b601f01601f19169190910160400192915050565b60208082526011908201527011931054d217d313d05397d19052531151607a1b604082015260600190565b6020808252600d908201526c525f53544154455f57524f4e4760981b604082015260600190565b6020808252600d908201526c494e56414c49445f434c41494d60981b604082015260600190565b6020808252600e908201526d5441524745545f49535f5a45524f60901b604082015260600190565b6020808252600e908201526d495f4f55545f4f465f52414e474560901b604082015260600190565b60208082526009908201526814915153951490539560ba1b604082015260600190565b6020808252601a908201527f424153455f51554f54455f43414e5f4e4f545f42455f53414d45000000000000604082015260600190565b6020808252818101527f5361666545524332303a206c6f772d6c6576656c2063616c6c206661696c6564604082015260600190565b6020808252600e908201526d2224ab24a224a723afa2a92927a960911b604082015260600190565b60208082526009908201526829aaa12fa2a92927a960b91b604082015260600190565b60208082526010908201526f1113d113d7d25392551250531256915160821b604082015260600190565b6020808252601c908201527f524553455256455f414d4f554e545f49535f4e4f545f454e4f55474800000000604082015260600190565b6020808252600e908201526d4b5f4f55545f4f465f52414e474560901b604082015260600190565b60208082526017908201527f5452414445525f53454c4c5f4e4f545f414c4c4f574544000000000000000000604082015260600190565b6020808252600990820152682727aa2fa7aba722a960b91b604082015260600190565b60208082526009908201526820a2222fa2a92927a960b91b604082015260600190565b6020808252602a908201527f5361666545524332303a204552433230206f7065726174696f6e20646964206e6040820152691bdd081cdd58d8d9595960b21b606082015260800190565b60208082526016908201527515149051115497d0955657d393d517d0531313d5d15160521b604082015260600190565b6020808252600990820152681554d157d49154d15560ba1b604082015260600190565b60208082526009908201526826aaa62fa2a92927a960b91b604082015260600190565b60208082526010908201526f11d054d7d4149250d157d15610d1515160821b604082015260600190565b600060e082019050825182526020830151602083015260408301516040830152606083015160608301526080830151608083015260a083015160a0830152613f8160c0840151614001565b60c083015292915050565b90815260200190565b918252602082015260400190565b8481526020810184905260808101613fba84614001565b604083015282606083015295945050505050565b968752602087019590955260408601939093526060850191909152608084015260a083015260ff1660c082015260e00190565b80600381106130c457fe5b60005b8381101561402757818101518382015260200161400f565b838111156131805750506000910152565b6001600160a01b038116811461081157600080fd5b801515811461081157600080fdfeaab6d03ea36f5f89ed87167c37cd684594ee4d483b7d8b82cef6c3fcc54dc24cdf176ad18be4f9f32efaa32f06e9d1175476504739a745f1399a6d3fa4b75917a26469706673582212208f84b208bb2c20fe294b52363740763e4182e2ba1ddf6aedec7c95449718192764736f6c63430006090033",
  "immutableReferences": {},
  "source": "/*\n\n    Copyright 2020 DODO ZOO.\n    SPDX-License-Identifier: Apache-2.0\n\n*/\n\npragma solidity 0.6.9;\npragma experimental ABIEncoderV2;\n\nimport {IFeeRateModel} from \"../../lib/FeeRateModel.sol\";\nimport {IPermissionManager} from \"../../lib/PermissionManager.sol\";\nimport {IExternalValue} from \"../../lib/ExternalValue.sol\";\nimport {IERC20} from \"../../intf/IERC20.sol\";\nimport {DPPTrader} from \"./DPPTrader.sol\";\n\ncontract DPP is DPPTrader {\n    function init(\n        address owner,\n        address maintainer,\n        address baseTokenAddress,\n        address quoteTokenAddress,\n        address lpFeeRateModel,\n        address mtFeeRateModel,\n        address kSource,\n        address iSource,\n        address gasPriceSource,\n        address tradePermissionManager\n    ) external {\n        initOwner(owner);\n\n        require(baseTokenAddress != quoteTokenAddress, \"BASE_QUOTE_CAN_NOT_BE_SAME\");\n        _BASE_TOKEN_ = IERC20(baseTokenAddress);\n        _QUOTE_TOKEN_ = IERC20(quoteTokenAddress);\n\n        _LP_FEE_RATE_MODEL_ = IFeeRateModel(lpFeeRateModel);\n        _MT_FEE_RATE_MODEL_ = IFeeRateModel(mtFeeRateModel);\n        _I_ = IExternalValue(iSource);\n        _K_ = IExternalValue(kSource);\n        _GAS_PRICE_LIMIT_ = IExternalValue(gasPriceSource);\n        _TRADE_PERMISSION_ = IPermissionManager(tradePermissionManager);\n        _MAINTAINER_ = maintainer;\n\n        _resetTargetAndReserve();\n        _checkIK();\n    }\n\n    // ============ Version Control ============\n\n    function version() external pure returns (string memory) {\n        return \"DPP 1.0.0\";\n    }\n}\n",
  "sourcePath": "/Users/niutaotao/projects/dodo/contractV2/contracts/DODOPrivatePool/impl/DPP.sol",
  "compiler": {
    "name": "solc",
    "version": "0.6.9+commit.3e3065ac.Emscripten.clang"
  },
  "schemaVersion": "3.3.2",
  "updatedAt": "2020-12-24T13:41:25.667Z",
  "devdoc": {
    "methods": {}
  },
  "userdoc": {
    "methods": {}
  }
}