{
  "contractName": "DPPFactory",
  "abi": [
    {
      "inputs": [
        {
          "internalType": "address",
          "name": "cloneFactory",
          "type": "address"
        },
        {
          "internalType": "address",
          "name": "dppTemplate",
          "type": "address"
        },
        {
          "internalType": "address",
          "name": "dppAdminTemplate",
          "type": "address"
        },
        {
          "internalType": "address",
          "name": "defaultMaintainer",
          "type": "address"
        },
        {
          "internalType": "address",
          "name": "defaultMtFeeRateModel",
          "type": "address"
        },
        {
          "internalType": "address",
          "name": "dodoApprove",
          "type": "address"
        }
      ],
      "stateMutability": "nonpayable",
      "type": "constructor"
    },
    {
      "anonymous": false,
      "inputs": [
        {
          "indexed": false,
          "internalType": "address",
          "name": "baseToken",
          "type": "address"
        },
        {
          "indexed": false,
          "internalType": "address",
          "name": "quoteToken",
          "type": "address"
        },
        {
          "indexed": false,
          "internalType": "address",
          "name": "creator",
          "type": "address"
        },
        {
          "indexed": false,
          "internalType": "address",
          "name": "dpp",
          "type": "address"
        }
      ],
      "name": "NewDPP",
      "type": "event"
    },
    {
      "anonymous": false,
      "inputs": [
        {
          "indexed": true,
          "internalType": "address",
          "name": "previousOwner",
          "type": "address"
        },
        {
          "indexed": true,
          "internalType": "address",
          "name": "newOwner",
          "type": "address"
        }
      ],
      "name": "OwnershipTransferPrepared",
      "type": "event"
    },
    {
      "anonymous": false,
      "inputs": [
        {
          "indexed": true,
          "internalType": "address",
          "name": "previousOwner",
          "type": "address"
        },
        {
          "indexed": true,
          "internalType": "address",
          "name": "newOwner",
          "type": "address"
        }
      ],
      "name": "OwnershipTransferred",
      "type": "event"
    },
    {
      "anonymous": false,
      "inputs": [
        {
          "indexed": false,
          "internalType": "address",
          "name": "dpp",
          "type": "address"
        }
      ],
      "name": "RemoveDPP",
      "type": "event"
    },
    {
      "inputs": [],
      "name": "_CLONE_FACTORY_",
      "outputs": [
        {
          "internalType": "address",
          "name": "",
          "type": "address"
        }
      ],
      "stateMutability": "view",
      "type": "function"
    },
    {
      "inputs": [],
      "name": "_DEFAULT_MAINTAINER_",
      "outputs": [
        {
          "internalType": "address",
          "name": "",
          "type": "address"
        }
      ],
      "stateMutability": "view",
      "type": "function"
    },
    {
      "inputs": [],
      "name": "_DEFAULT_MT_FEE_RATE_MODEL_",
      "outputs": [
        {
          "internalType": "address",
          "name": "",
          "type": "address"
        }
      ],
      "stateMutability": "view",
      "type": "function"
    },
    {
      "inputs": [],
      "name": "_DODO_APPROVE_",
      "outputs": [
        {
          "internalType": "address",
          "name": "",
          "type": "address"
        }
      ],
      "stateMutability": "view",
      "type": "function"
    },
    {
      "inputs": [],
      "name": "_DPP_ADMIN_TEMPLATE_",
      "outputs": [
        {
          "internalType": "address",
          "name": "",
          "type": "address"
        }
      ],
      "stateMutability": "view",
      "type": "function"
    },
    {
      "inputs": [],
      "name": "_DPP_TEMPLATE_",
      "outputs": [
        {
          "internalType": "address",
          "name": "",
          "type": "address"
        }
      ],
      "stateMutability": "view",
      "type": "function"
    },
    {
      "inputs": [],
      "name": "_NEW_OWNER_",
      "outputs": [
        {
          "internalType": "address",
          "name": "",
          "type": "address"
        }
      ],
      "stateMutability": "view",
      "type": "function"
    },
    {
      "inputs": [],
      "name": "_OWNER_",
      "outputs": [
        {
          "internalType": "address",
          "name": "",
          "type": "address"
        }
      ],
      "stateMutability": "view",
      "type": "function"
    },
    {
      "inputs": [
        {
          "internalType": "address",
          "name": "",
          "type": "address"
        },
        {
          "internalType": "address",
          "name": "",
          "type": "address"
        },
        {
          "internalType": "uint256",
          "name": "",
          "type": "uint256"
        }
      ],
      "name": "_REGISTRY_",
      "outputs": [
        {
          "internalType": "address",
          "name": "",
          "type": "address"
        }
      ],
      "stateMutability": "view",
      "type": "function"
    },
    {
      "inputs": [
        {
          "internalType": "address",
          "name": "",
          "type": "address"
        },
        {
          "internalType": "uint256",
          "name": "",
          "type": "uint256"
        }
      ],
      "name": "_USER_REGISTRY_",
      "outputs": [
        {
          "internalType": "address",
          "name": "",
          "type": "address"
        }
      ],
      "stateMutability": "view",
      "type": "function"
    },
    {
      "inputs": [],
      "name": "claimOwnership",
      "outputs": [],
      "stateMutability": "nonpayable",
      "type": "function"
    },
    {
      "inputs": [
        {
          "internalType": "address",
          "name": "newOwner",
          "type": "address"
        }
      ],
      "name": "initOwner",
      "outputs": [],
      "stateMutability": "nonpayable",
      "type": "function"
    },
    {
      "inputs": [
        {
          "internalType": "address",
          "name": "newOwner",
          "type": "address"
        }
      ],
      "name": "transferOwnership",
      "outputs": [],
      "stateMutability": "nonpayable",
      "type": "function"
    },
    {
      "inputs": [],
      "name": "createDODOPrivatePool",
      "outputs": [
        {
          "internalType": "address",
          "name": "newPrivatePool",
          "type": "address"
        }
      ],
      "stateMutability": "nonpayable",
      "type": "function"
    },
    {
      "inputs": [
        {
          "internalType": "address",
          "name": "dppAddress",
          "type": "address"
        },
        {
          "internalType": "address",
          "name": "creator",
          "type": "address"
        },
        {
          "internalType": "address",
          "name": "baseToken",
          "type": "address"
        },
        {
          "internalType": "address",
          "name": "quoteToken",
          "type": "address"
        },
        {
          "internalType": "uint256",
          "name": "lpFeeRate",
          "type": "uint256"
        },
        {
          "internalType": "uint256",
          "name": "k",
          "type": "uint256"
        },
        {
          "internalType": "uint256",
          "name": "i",
          "type": "uint256"
        }
      ],
      "name": "initDODOPrivatePool",
      "outputs": [],
      "stateMutability": "nonpayable",
      "type": "function"
    },
    {
      "inputs": [
        {
          "internalType": "address",
          "name": "_newDPPAdminTemplate",
          "type": "address"
        }
      ],
      "name": "updateAdminTemplate",
      "outputs": [],
      "stateMutability": "nonpayable",
      "type": "function"
    },
    {
      "inputs": [
        {
          "internalType": "address",
          "name": "_newDPPTemplate",
          "type": "address"
        }
      ],
      "name": "updateDppTemplate",
      "outputs": [],
      "stateMutability": "nonpayable",
      "type": "function"
    },
    {
      "inputs": [
        {
          "internalType": "address",
          "name": "creator",
          "type": "address"
        },
        {
          "internalType": "address",
          "name": "baseToken",
          "type": "address"
        },
        {
          "internalType": "address",
          "name": "quoteToken",
          "type": "address"
        },
        {
          "internalType": "address",
          "name": "pool",
          "type": "address"
        }
      ],
      "name": "addPoolByAdmin",
      "outputs": [],
      "stateMutability": "nonpayable",
      "type": "function"
    },
    {
      "inputs": [
        {
          "internalType": "address",
          "name": "creator",
          "type": "address"
        },
        {
          "internalType": "address",
          "name": "baseToken",
          "type": "address"
        },
        {
          "internalType": "address",
          "name": "quoteToken",
          "type": "address"
        },
        {
          "internalType": "address",
          "name": "pool",
          "type": "address"
        }
      ],
      "name": "removePoolByAdmin",
      "outputs": [],
      "stateMutability": "nonpayable",
      "type": "function"
    },
    {
      "inputs": [
        {
          "internalType": "address",
          "name": "baseToken",
          "type": "address"
        },
        {
          "internalType": "address",
          "name": "quoteToken",
          "type": "address"
        }
      ],
      "name": "getPrivatePool",
      "outputs": [
        {
          "internalType": "address[]",
          "name": "pools",
          "type": "address[]"
        }
      ],
      "stateMutability": "view",
      "type": "function"
    },
    {
      "inputs": [
        {
          "internalType": "address",
          "name": "token0",
          "type": "address"
        },
        {
          "internalType": "address",
          "name": "token1",
          "type": "address"
        }
      ],
      "name": "getPrivatePoolBidirection",
      "outputs": [
        {
          "internalType": "address[]",
          "name": "baseToken0Pool",
          "type": "address[]"
        },
        {
          "internalType": "address[]",
          "name": "baseToken1Pool",
          "type": "address[]"
        }
      ],
      "stateMutability": "view",
      "type": "function"
    },
    {
      "inputs": [
        {
          "internalType": "address",
          "name": "user",
          "type": "address"
        }
      ],
      "name": "getPrivatePoolByUser",
      "outputs": [
        {
          "internalType": "address[]",
          "name": "pools",
          "type": "address[]"
        }
      ],
      "stateMutability": "view",
      "type": "function"
    }
  ],
  "bytecode": "0x6101006040523480156200001257600080fd5b50604051620015b7380380620015b78339810160408190526200003591620000b1565b6001600160601b0319606096871b8116608052600280546001600160a01b039788166001600160a01b031991821617909155600380549690971695169490941790945590841b821660a052831b811660c052911b1660e05262000137565b80516001600160a01b0381168114620000ab57600080fd5b92915050565b60008060008060008060c08789031215620000ca578182fd5b620000d6888862000093565b9550620000e7886020890162000093565b9450620000f8886040890162000093565b935062000109886060890162000093565b92506200011a886080890162000093565b91506200012b8860a0890162000093565b90509295509295509295565b60805160601c60a05160601c60c05160601c60e05160601c61142562000192600039806103cc5280610b775250806104415280610c385250806104195280610ca85250806102cb5280610e5a5280610f1e52506114256000f3fe608060405234801561001057600080fd5b50600436106101425760003560e01c80636c5ccb9b116100b8578063ace378ca1161007c578063ace378ca14610245578063b15b2ff71461024d578063bdeb0a911461026d578063c427540d14610280578063eb774d0514610293578063f2fde38b1461029b57610142565b80636c5ccb9b146102075780637d2c82d71461020f57806381ab4d0a146102225780638456db151461022a578063a58888db1461023257610142565b806339d00ef91161010a57806339d00ef9146101b657806343274b82146101c957806344b7f78e146101dc57806346e74298146101ef5780634e71e0c8146101f7578063633644d6146101ff57610142565b806309b8adb8146101475780630d009297146101655780630dcd272e1461017a5780630e6a632c1461018d57806316048bc4146101ae575b600080fd5b61014f6102ae565b60405161015c9190611297565b60405180910390f35b6101786101733660046110a1565b610358565b005b610178610188366004611173565b6103c1565b6101a061019b3660046110e0565b6105e2565b60405161015c929190611335565b61014f6106da565b6101786101c4366004611118565b6106e9565b6101786101d7366004611118565b6107c6565b6101786101ea3660046110a1565b610b29565b61014f610b75565b610178610b99565b61014f610c27565b61014f610c36565b61017861021d3660046110a1565b610c5a565b61014f610ca6565b61014f610cca565b61014f610240366004611229565b610cd9565b61014f610d0e565b61026061025b3660046110a1565b610d1d565b60405161015c9190611322565b61014f61027b3660046111e9565b610d93565b61026061028e3660046110e0565b610dd5565b61014f610e58565b6101786102a93660046110a1565b610e7c565b6002546040516340925bc760e11b81526000916001600160a01b037f0000000000000000000000000000000000000000000000000000000000000000811692638124b78e92610301921690600401611297565b602060405180830381600087803b15801561031b57600080fd5b505af115801561032f573d6000803e3d6000fd5b505050506040513d601f19601f8201168201806040525081019061035391906110c4565b905090565b600154600160a01b900460ff161561038b5760405162461bcd60e51b81526004016103829061138a565b60405180910390fd5b6001805460ff60a01b1916600160a01b179055600080546001600160a01b039092166001600160a01b0319909216919091179055565b8660006103f08883817f0000000000000000000000000000000000000000000000000000000000000000610f01565b604051630c112b3960e21b81529091506001600160a01b03831690633044ace49061046d9084907f0000000000000000000000000000000000000000000000000000000000000000908c908c908c907f0000000000000000000000000000000000000000000000000000000000000000908d908d906004016112d6565b600060405180830381600087803b15801561048757600080fd5b505af115801561049b573d6000803e3d6000fd5b50505050505060046000866001600160a01b03166001600160a01b031681526020019081526020016000206000856001600160a01b03166001600160a01b03168152602001908152602001600020879080600181540180825580915050600190039060005260206000200160009091909190916101000a8154816001600160a01b0302191690836001600160a01b0316021790555060056000876001600160a01b03166001600160a01b03168152602001908152602001600020879080600181540180825580915050600190039060005260206000200160009091909190916101000a8154816001600160a01b0302191690836001600160a01b031602179055507f8494fe594cd5087021d4b11758a2bbc7be28a430e94f2b268d668e5991ed3b8a8585888a6040516105d194939291906112ab565b60405180910390a150505050505050565b6001600160a01b038083166000818152600460208181526040808420958716845294815284832091815284832093835292835290839020815484518185028101850190955280855260609485949091849183018282801561066c57602002820191906000526020600020905b81546001600160a01b0316815260019091019060200180831161064e575b50505050509150808054806020026020016040519081016040528092919081815260200182805480156106c857602002820191906000526020600020905b81546001600160a01b031681526001909101906020018083116106aa575b50505050509050915091509250929050565b6000546001600160a01b031681565b6000546001600160a01b031633146107135760405162461bcd60e51b8152600401610382906113b4565b6001600160a01b038084166000908152600460209081526040808320868516845282528083208054600181810183559185528385200180548787166001600160a01b03199182168117909255958a1685526005845282852080549283018155855292909320909201805490931617909155517f8494fe594cd5087021d4b11758a2bbc7be28a430e94f2b268d668e5991ed3b8a906107b89085908590889086906112ab565b60405180910390a150505050565b6000546001600160a01b031633146107f05760405162461bcd60e51b8152600401610382906113b4565b6001600160a01b03808416600090815260046020908152604080832093861683529281529082902080548351818402810184019094528084526060939283018282801561086657602002820191906000526020600020905b81546001600160a01b03168152600190910190602001808311610848575b50939450600093505050505b81518110156108f957826001600160a01b031682828151811061089157fe5b60200260200101516001600160a01b031614156108f157816001835103815181106108b857fe5b60200260200101518282815181106108cc57fe5b60200260200101906001600160a01b031690816001600160a01b0316815250506108f9565b600101610872565b506001600160a01b0380851660009081526004602090815260408083209387168352928152919020825161092f92840190611015565b506001600160a01b03808516600090815260046020908152604080832093871683529290522080548061095e57fe5b60008281526020808220830160001990810180546001600160a01b03191690559092019092556001600160a01b0387168252600581526040918290208054835181840281018401909452808452606093928301828280156109e857602002820191906000526020600020905b81546001600160a01b031681526001909101906020018083116109ca575b50939450600093505050505b8151811015610a7b57836001600160a01b0316828281518110610a1357fe5b60200260200101516001600160a01b03161415610a735781600183510381518110610a3a57fe5b6020026020010151828281518110610a4e57fe5b60200260200101906001600160a01b031690816001600160a01b031681525050610a7b565b6001016109f4565b506001600160a01b03861660009081526005602090815260409091208251610aa592840190611015565b506001600160a01b0386166000908152600560205260409020805480610ac757fe5b600082815260209020810160001990810180546001600160a01b03191690550190556040517fafed4f6701f0e943874e915e49e2e7b67ae31f18e083f540e890af2275aa116d90610b19908590611297565b60405180910390a1505050505050565b6000546001600160a01b03163314610b535760405162461bcd60e51b8152600401610382906113b4565b600280546001600160a01b0319166001600160a01b0392909216919091179055565b7f000000000000000000000000000000000000000000000000000000000000000081565b6001546001600160a01b03163314610bc35760405162461bcd60e51b815260040161038290611363565b600154600080546040516001600160a01b0393841693909116917f8be0079c531659141344cd1fd0a4f28419497f9722a3daafe3b4186f6b6457e091a360018054600080546001600160a01b03199081166001600160a01b03841617909155169055565b6003546001600160a01b031681565b7f000000000000000000000000000000000000000000000000000000000000000081565b6000546001600160a01b03163314610c845760405162461bcd60e51b8152600401610382906113b4565b600380546001600160a01b0319166001600160a01b0392909216919091179055565b7f000000000000000000000000000000000000000000000000000000000000000081565b6001546001600160a01b031681565b60056020528160005260406000208181548110610cf257fe5b6000918252602090912001546001600160a01b03169150829050565b6002546001600160a01b031681565b6001600160a01b038116600090815260056020908152604091829020805483518184028101840190945280845260609392830182828015610d8757602002820191906000526020600020905b81546001600160a01b03168152600190910190602001808311610d69575b50505050509050919050565b60046020528260005260406000206020528160005260406000208181548110610db857fe5b6000918252602090912001546001600160a01b0316925083915050565b6001600160a01b038083166000908152600460209081526040808320938516835292815290829020805483518184028101840190945280845260609392830182828015610e4b57602002820191906000526020600020905b81546001600160a01b03168152600190910190602001808311610e2d575b5050505050905092915050565b7f000000000000000000000000000000000000000000000000000000000000000081565b6000546001600160a01b03163314610ea65760405162461bcd60e51b8152600401610382906113b4565b600080546040516001600160a01b03808516939216917fdcf55418cee3220104fef63f979ff3c4097ad240c0c43dcb33ce837748983e6291a3600180546001600160a01b0319166001600160a01b0392909216919091179055565b6003546040516340925bc760e11b81526000916001600160a01b037f0000000000000000000000000000000000000000000000000000000000000000811692638124b78e92610f54921690600401611297565b602060405180830381600087803b158015610f6e57600080fd5b505af1158015610f82573d6000803e3d6000fd5b505050506040513d601f19601f82011682018060405250810190610fa691906110c4565b6040516306552ff360e01b81529091506001600160a01b038216906306552ff390610fdb9088908890889088906004016112ab565b600060405180830381600087803b158015610ff557600080fd5b505af1158015611009573d6000803e3d6000fd5b50505050949350505050565b82805482825590600052602060002090810192821561106a579160200282015b8281111561106a57825182546001600160a01b0319166001600160a01b03909116178255602090920191600190910190611035565b5061107692915061107a565b5090565b61109e91905b808211156110765780546001600160a01b0319168155600101611080565b90565b6000602082840312156110b2578081fd5b81356110bd816113d7565b9392505050565b6000602082840312156110d5578081fd5b81516110bd816113d7565b600080604083850312156110f2578081fd5b82356110fd816113d7565b9150602083013561110d816113d7565b809150509250929050565b6000806000806080858703121561112d578182fd5b8435611138816113d7565b93506020850135611148816113d7565b92506040850135611158816113d7565b91506060850135611168816113d7565b939692955090935050565b600080600080600080600060e0888a03121561118d578283fd5b8735611198816113d7565b965060208801356111a8816113d7565b955060408801356111b8816113d7565b945060608801356111c8816113d7565b9699959850939660808101359560a0820135955060c0909101359350915050565b6000806000606084860312156111fd578283fd5b8335611208816113d7565b92506020840135611218816113d7565b929592945050506040919091013590565b6000806040838503121561123b578182fd5b8235611246816113d7565b946020939093013593505050565b6000815180845260208085019450808401835b8381101561128c5781516001600160a01b031687529582019590820190600101611267565b509495945050505050565b6001600160a01b0391909116815260200190565b6001600160a01b03948516815292841660208401529083166040830152909116606082015260800190565b6001600160a01b039889168152968816602088015294871660408701529286166060860152608085019190915290931660a083015260c082019290925260e08101919091526101000190565b6000602082526110bd6020830184611254565b6000604082526113486040830185611254565b828103602084015261135a8185611254565b95945050505050565b6020808252600d908201526c494e56414c49445f434c41494d60981b604082015260600190565b60208082526010908201526f1113d113d7d25392551250531256915160821b604082015260600190565b6020808252600990820152682727aa2fa7aba722a960b91b604082015260600190565b6001600160a01b03811681146113ec57600080fd5b5056fea2646970667358221220035a5453a028e03f0d14ebedabc465f3d9ee0a1ece819c9d576ead90b861ec1d64736f6c63430006090033",
  "immutableReferences": {
    "8385": [
      {
        "length": 32,
        "start": 715
      },
      {
        "length": 32,
        "start": 3674
      },
      {
        "length": 32,
        "start": 3870
      }
    ],
    "8387": [
      {
        "length": 32,
        "start": 1049
      },
      {
        "length": 32,
        "start": 3240
      }
    ],
    "8389": [
      {
        "length": 32,
        "start": 1089
      },
      {
        "length": 32,
        "start": 3128
      }
    ],
    "8391": [
      {
        "length": 32,
        "start": 972
      },
      {
        "length": 32,
        "start": 2935
      }
    ]
  },
  "source": "/*\n\n    Copyright 2020 DODO ZOO.\n    SPDX-License-Identifier: Apache-2.0\n\n*/\n\npragma solidity 0.6.9;\npragma experimental ABIEncoderV2;\n\nimport {InitializableOwnable} from \"../lib/InitializableOwnable.sol\";\nimport {ICloneFactory} from \"../lib/CloneFactory.sol\";\nimport {IFeeRateModel} from \"../lib/FeeRateModel.sol\";\nimport {IDPP} from \"../DODOPrivatePool/intf/IDPP.sol\";\nimport {IDPPAdmin} from \"../DODOPrivatePool/intf/IDPPAdmin.sol\";\n\n/**\n * @title DODO PrivatePool Factory\n * @author DODO Breeder\n *\n * @notice Create And Register DPP Pools \n */\ncontract DPPFactory is InitializableOwnable {\n    // ============ Templates ============\n\n    address public immutable _CLONE_FACTORY_;\n    address public immutable _DEFAULT_MAINTAINER_;\n    address public immutable _DEFAULT_MT_FEE_RATE_MODEL_;\n    address public immutable _DODO_APPROVE_;\n    address public _DPP_TEMPLATE_;\n    address public _DPP_ADMIN_TEMPLATE_;\n\n    // ============ Registry ============\n\n    // base -> quote -> DPP address list\n    mapping(address => mapping(address => address[])) public _REGISTRY_;\n    // creator -> DPP address list\n    mapping(address => address[]) public _USER_REGISTRY_;\n\n    // ============ Events ============\n\n    event NewDPP(\n        address baseToken,\n        address quoteToken,\n        address creator,\n        address dpp\n    );\n\n\n    event RemoveDPP(address dpp);\n\n    constructor(\n        address cloneFactory,\n        address dppTemplate,\n        address dppAdminTemplate,\n        address defaultMaintainer,\n        address defaultMtFeeRateModel,\n        address dodoApprove\n    ) public {\n        _CLONE_FACTORY_ = cloneFactory;\n        _DPP_TEMPLATE_ = dppTemplate;\n        _DPP_ADMIN_TEMPLATE_ = dppAdminTemplate;\n        _DEFAULT_MAINTAINER_ = defaultMaintainer;\n        _DEFAULT_MT_FEE_RATE_MODEL_ = defaultMtFeeRateModel;\n        _DODO_APPROVE_ = dodoApprove;\n    }\n\n    // ============ Functions ============\n\n    function createDODOPrivatePool() external returns (address newPrivatePool) {\n        newPrivatePool = ICloneFactory(_CLONE_FACTORY_).clone(_DPP_TEMPLATE_);\n    }\n\n    function initDODOPrivatePool(\n        address dppAddress,\n        address creator,\n        address baseToken,\n        address quoteToken,\n        uint256 lpFeeRate,\n        uint256 k,\n        uint256 i\n    ) external {\n        {\n            address _dppAddress = dppAddress;\n            address adminModel = _createDPPAdminModel(\n                creator,\n                _dppAddress,\n                creator,\n                _DODO_APPROVE_\n            );\n            IDPP(_dppAddress).init(\n                adminModel,\n                _DEFAULT_MAINTAINER_,\n                baseToken,\n                quoteToken,\n                lpFeeRate,\n                _DEFAULT_MT_FEE_RATE_MODEL_,\n                k,\n                i\n            );\n        }\n\n        _REGISTRY_[baseToken][quoteToken].push(dppAddress);\n        _USER_REGISTRY_[creator].push(dppAddress);\n        emit NewDPP(baseToken, quoteToken, creator, dppAddress);\n    }\n\n    function _createDPPAdminModel(\n        address owner,\n        address dpp,\n        address operator,\n        address dodoApprove\n    ) internal returns (address adminModel) {\n        adminModel = ICloneFactory(_CLONE_FACTORY_).clone(_DPP_ADMIN_TEMPLATE_);\n        IDPPAdmin(adminModel).init(owner, dpp, operator, dodoApprove);\n    }\n\n    // ============ Admin Operation Functions ============\n    \n    function updateAdminTemplate(address _newDPPAdminTemplate) external onlyOwner {\n        _DPP_ADMIN_TEMPLATE_ = _newDPPAdminTemplate;\n    }\n\n    function updateDppTemplate(address _newDPPTemplate) external onlyOwner {\n        _DPP_TEMPLATE_ = _newDPPTemplate;\n    }\n\n    function addPoolByAdmin(\n        address creator,\n        address baseToken, \n        address quoteToken,\n        address pool\n    ) external onlyOwner {\n        _REGISTRY_[baseToken][quoteToken].push(pool);\n        _USER_REGISTRY_[creator].push(pool);\n        emit NewDPP(baseToken, quoteToken, creator, pool);\n    }\n\n    function removePoolByAdmin(\n        address creator,\n        address baseToken, \n        address quoteToken,\n        address pool\n    ) external onlyOwner {\n        address[] memory registryList = _REGISTRY_[baseToken][quoteToken];\n        for (uint256 i = 0; i < registryList.length; i++) {\n            if (registryList[i] == pool) {\n                registryList[i] = registryList[registryList.length - 1];\n                break;\n            }\n        }\n        _REGISTRY_[baseToken][quoteToken] = registryList;\n        _REGISTRY_[baseToken][quoteToken].pop();\n        address[] memory userRegistryList = _USER_REGISTRY_[creator];\n        for (uint256 i = 0; i < userRegistryList.length; i++) {\n            if (userRegistryList[i] == pool) {\n                userRegistryList[i] = userRegistryList[userRegistryList.length - 1];\n                break;\n            }\n        }\n        _USER_REGISTRY_[creator] = userRegistryList;\n        _USER_REGISTRY_[creator].pop();\n        emit RemoveDPP(pool);\n    }\n\n    // ============ View Functions ============\n\n    function getPrivatePool(address baseToken, address quoteToken)\n        external\n        view\n        returns (address[] memory pools)\n    {\n        return _REGISTRY_[baseToken][quoteToken];\n    }\n\n    function getPrivatePoolBidirection(address token0, address token1)\n        external\n        view\n        returns (address[] memory baseToken0Pool, address[] memory baseToken1Pool)\n    {\n        return (_REGISTRY_[token0][token1], _REGISTRY_[token1][token0]);\n    }\n\n    function getPrivatePoolByUser(address user) \n        external\n        view\n        returns (address[] memory pools)\n    {\n        return _USER_REGISTRY_[user];\n    }\n}\n",
  "sourcePath": "/Users/niutaotao/projects/dodo/contractV2/contracts/Factory/DPPFactory.sol",
  "compiler": {
    "name": "solc",
    "version": "0.6.9+commit.3e3065ac.Emscripten.clang"
  },
  "schemaVersion": "3.3.2",
  "updatedAt": "2021-01-13T13:03:23.763Z",
  "devdoc": {
    "author": "DODO Breeder",
    "methods": {},
    "title": "DODO PrivatePool Factory"
  },
  "userdoc": {
    "methods": {},
    "notice": "Create And Register DPP Pools "
  }
}