{
  "contractName": "DPPFactory",
  "abi": [
    {
      "inputs": [
        {
          "internalType": "address",
          "name": "cloneFactory",
          "type": "address"
        },
        {
          "internalType": "address",
          "name": "dppTemplate",
          "type": "address"
        },
        {
          "internalType": "address",
          "name": "dppAdminTemplate",
          "type": "address"
        },
        {
          "internalType": "address",
          "name": "defautFeeRateModelTemplate",
          "type": "address"
        },
        {
          "internalType": "address",
          "name": "defaultPermissionManagerTemplate",
          "type": "address"
        },
        {
          "internalType": "address",
          "name": "defaultExternalValueTemplate",
          "type": "address"
        },
        {
          "internalType": "address",
          "name": "defaultGasPriceSource",
          "type": "address"
        },
        {
          "internalType": "address",
          "name": "dodoSmartApprove",
          "type": "address"
        }
      ],
      "stateMutability": "nonpayable",
      "type": "constructor"
    },
    {
      "anonymous": false,
      "inputs": [
        {
          "indexed": false,
          "internalType": "address",
          "name": "baseToken",
          "type": "address"
        },
        {
          "indexed": false,
          "internalType": "address",
          "name": "quoteToken",
          "type": "address"
        },
        {
          "indexed": false,
          "internalType": "address",
          "name": "creator",
          "type": "address"
        },
        {
          "indexed": false,
          "internalType": "address",
          "name": "dpp",
          "type": "address"
        }
      ],
      "name": "NewDPP",
      "type": "event"
    },
    {
      "anonymous": false,
      "inputs": [
        {
          "indexed": true,
          "internalType": "address",
          "name": "previousOwner",
          "type": "address"
        },
        {
          "indexed": true,
          "internalType": "address",
          "name": "newOwner",
          "type": "address"
        }
      ],
      "name": "OwnershipTransferPrepared",
      "type": "event"
    },
    {
      "anonymous": false,
      "inputs": [
        {
          "indexed": true,
          "internalType": "address",
          "name": "previousOwner",
          "type": "address"
        },
        {
          "indexed": true,
          "internalType": "address",
          "name": "newOwner",
          "type": "address"
        }
      ],
      "name": "OwnershipTransferred",
      "type": "event"
    },
    {
      "anonymous": false,
      "inputs": [
        {
          "indexed": false,
          "internalType": "address",
          "name": "dpp",
          "type": "address"
        }
      ],
      "name": "RemoveDPP",
      "type": "event"
    },
    {
      "inputs": [],
      "name": "_CLONE_FACTORY_",
      "outputs": [
        {
          "internalType": "address",
          "name": "",
          "type": "address"
        }
      ],
      "stateMutability": "view",
      "type": "function"
    },
    {
      "inputs": [],
      "name": "_DEFAULT_GAS_PRICE_SOURCE_",
      "outputs": [
        {
          "internalType": "address",
          "name": "",
          "type": "address"
        }
      ],
      "stateMutability": "view",
      "type": "function"
    },
    {
      "inputs": [],
      "name": "_DODO_SMART_APPROVE_",
      "outputs": [
        {
          "internalType": "address",
          "name": "",
          "type": "address"
        }
      ],
      "stateMutability": "view",
      "type": "function"
    },
    {
      "inputs": [],
      "name": "_DPP_ADMIN_TEMPLATE_",
      "outputs": [
        {
          "internalType": "address",
          "name": "",
          "type": "address"
        }
      ],
      "stateMutability": "view",
      "type": "function"
    },
    {
      "inputs": [],
      "name": "_DPP_TEMPLATE_",
      "outputs": [
        {
          "internalType": "address",
          "name": "",
          "type": "address"
        }
      ],
      "stateMutability": "view",
      "type": "function"
    },
    {
      "inputs": [],
      "name": "_FEE_RATE_MODEL_TEMPLATE_",
      "outputs": [
        {
          "internalType": "address",
          "name": "",
          "type": "address"
        }
      ],
      "stateMutability": "view",
      "type": "function"
    },
    {
      "inputs": [],
      "name": "_NEW_OWNER_",
      "outputs": [
        {
          "internalType": "address",
          "name": "",
          "type": "address"
        }
      ],
      "stateMutability": "view",
      "type": "function"
    },
    {
      "inputs": [],
      "name": "_OWNER_",
      "outputs": [
        {
          "internalType": "address",
          "name": "",
          "type": "address"
        }
      ],
      "stateMutability": "view",
      "type": "function"
    },
    {
      "inputs": [],
      "name": "_PERMISSION_MANAGER_TEMPLATE_",
      "outputs": [
        {
          "internalType": "address",
          "name": "",
          "type": "address"
        }
      ],
      "stateMutability": "view",
      "type": "function"
    },
    {
      "inputs": [
        {
          "internalType": "address",
          "name": "",
          "type": "address"
        },
        {
          "internalType": "address",
          "name": "",
          "type": "address"
        },
        {
          "internalType": "uint256",
          "name": "",
          "type": "uint256"
        }
      ],
      "name": "_REGISTRY_",
      "outputs": [
        {
          "internalType": "address",
          "name": "",
          "type": "address"
        }
      ],
      "stateMutability": "view",
      "type": "function"
    },
    {
      "inputs": [
        {
          "internalType": "address",
          "name": "",
          "type": "address"
        },
        {
          "internalType": "uint256",
          "name": "",
          "type": "uint256"
        }
      ],
      "name": "_USER_REGISTRY_",
      "outputs": [
        {
          "internalType": "address",
          "name": "",
          "type": "address"
        }
      ],
      "stateMutability": "view",
      "type": "function"
    },
    {
      "inputs": [],
      "name": "_VALUE_SOURCE_",
      "outputs": [
        {
          "internalType": "address",
          "name": "",
          "type": "address"
        }
      ],
      "stateMutability": "view",
      "type": "function"
    },
    {
      "inputs": [],
      "name": "claimOwnership",
      "outputs": [],
      "stateMutability": "nonpayable",
      "type": "function"
    },
    {
      "inputs": [
        {
          "internalType": "address",
          "name": "newOwner",
          "type": "address"
        }
      ],
      "name": "initOwner",
      "outputs": [],
      "stateMutability": "nonpayable",
      "type": "function"
    },
    {
      "inputs": [
        {
          "internalType": "address",
          "name": "newOwner",
          "type": "address"
        }
      ],
      "name": "transferOwnership",
      "outputs": [],
      "stateMutability": "nonpayable",
      "type": "function"
    },
    {
      "inputs": [],
      "name": "createDODOPrivatePool",
      "outputs": [
        {
          "internalType": "address",
          "name": "newPrivatePool",
          "type": "address"
        }
      ],
      "stateMutability": "nonpayable",
      "type": "function"
    },
    {
      "inputs": [
        {
          "internalType": "address",
          "name": "dppAddress",
          "type": "address"
        },
        {
          "internalType": "address",
          "name": "creator",
          "type": "address"
        },
        {
          "internalType": "address",
          "name": "baseToken",
          "type": "address"
        },
        {
          "internalType": "address",
          "name": "quoteToken",
          "type": "address"
        },
        {
          "internalType": "uint256",
          "name": "lpFeeRate",
          "type": "uint256"
        },
        {
          "internalType": "uint256",
          "name": "mtFeeRate",
          "type": "uint256"
        },
        {
          "internalType": "uint256",
          "name": "k",
          "type": "uint256"
        },
        {
          "internalType": "uint256",
          "name": "i",
          "type": "uint256"
        }
      ],
      "name": "initDODOPrivatePool",
      "outputs": [],
      "stateMutability": "nonpayable",
      "type": "function"
    },
    {
      "inputs": [
        {
          "internalType": "address",
          "name": "_newDPPAdminTemplate",
          "type": "address"
        }
      ],
      "name": "updateAdminTemplate",
      "outputs": [],
      "stateMutability": "nonpayable",
      "type": "function"
    },
    {
      "inputs": [
        {
          "internalType": "address",
          "name": "creator",
          "type": "address"
        },
        {
          "internalType": "address",
          "name": "baseToken",
          "type": "address"
        },
        {
          "internalType": "address",
          "name": "quoteToken",
          "type": "address"
        },
        {
          "internalType": "address",
          "name": "pool",
          "type": "address"
        }
      ],
      "name": "addPoolByAdmin",
      "outputs": [],
      "stateMutability": "nonpayable",
      "type": "function"
    },
    {
      "inputs": [
        {
          "internalType": "address",
          "name": "creator",
          "type": "address"
        },
        {
          "internalType": "address",
          "name": "baseToken",
          "type": "address"
        },
        {
          "internalType": "address",
          "name": "quoteToken",
          "type": "address"
        },
        {
          "internalType": "address",
          "name": "pool",
          "type": "address"
        }
      ],
      "name": "removePoolByAdmin",
      "outputs": [],
      "stateMutability": "nonpayable",
      "type": "function"
    },
    {
      "inputs": [
        {
          "internalType": "address",
          "name": "baseToken",
          "type": "address"
        },
        {
          "internalType": "address",
          "name": "quoteToken",
          "type": "address"
        }
      ],
      "name": "getPrivatePool",
      "outputs": [
        {
          "internalType": "address[]",
          "name": "pools",
          "type": "address[]"
        }
      ],
      "stateMutability": "view",
      "type": "function"
    },
    {
      "inputs": [
        {
          "internalType": "address",
          "name": "token0",
          "type": "address"
        },
        {
          "internalType": "address",
          "name": "token1",
          "type": "address"
        }
      ],
      "name": "getPrivatePoolBidirection",
      "outputs": [
        {
          "internalType": "address[]",
          "name": "baseToken0Pool",
          "type": "address[]"
        },
        {
          "internalType": "address[]",
          "name": "baseToken1Pool",
          "type": "address[]"
        }
      ],
      "stateMutability": "view",
      "type": "function"
    },
    {
      "inputs": [
        {
          "internalType": "address",
          "name": "user",
          "type": "address"
        }
      ],
      "name": "getPrivatePoolByUser",
      "outputs": [
        {
          "internalType": "address[]",
          "name": "pools",
          "type": "address[]"
        }
      ],
      "stateMutability": "view",
      "type": "function"
    }
  ],
  "bytecode": "0x6101606040523480156200001257600080fd5b5060405162001968380380620019688339810160408190526200003591620000be565b606097881b6001600160601b031990811660805296881b871660a052600280546001600160a01b0319166001600160a01b03979097169690961790955593861b85166101405291851b841660c052841b831660e052831b82166101205290911b16610100526200016d565b80516001600160a01b0381168114620000b857600080fd5b92915050565b600080600080600080600080610100898b031215620000db578384fd5b620000e78a8a620000a0565b9750620000f88a60208b01620000a0565b9650620001098a60408b01620000a0565b95506200011a8a60608b01620000a0565b94506200012b8a60808b01620000a0565b93506200013c8a60a08b01620000a0565b92506200014d8a60c08b01620000a0565b91506200015e8a60e08b01620000a0565b90509295985092959890939650565b60805160601c60a05160601c60c05160601c60e05160601c6101005160601c6101205160601c6101405160601c61175b6200020d60003980610aeb5280610bf45250806109e052806111cb525080610a135280610c57525080610a37528061123a5250806104ee52806110a15250806102fd5280610b0f5250806102d05280610e9f5280610f635280611074528061119e528061120d525061175b6000f3fe608060405234801561001057600080fd5b506004361061014d5760003560e01c80636acbb1b4116100c3578063b15b2ff71161007c578063b15b2ff714610242578063bdeb0a9114610262578063c239212b14610275578063c427540d14610288578063eb774d051461029b578063f2fde38b146102a35761014d565b80636acbb1b4146101fc5780637d2c82d7146102045780638456db1514610217578063a58888db1461021f578063aa15958d14610232578063ace378ca1461023a5761014d565b806339d00ef91161011557806339d00ef9146101b657806343274b82146101c95780634e71e0c8146101dc57806362f17ace146101e4578063633644d6146101ec578063658ba1a9146101f45761014d565b806309b8adb8146101525780630d009297146101705780630e6a632c1461018557806316048bc4146101a6578063378ac467146101ae575b600080fd5b61015a6102b6565b60405161016791906115a5565b60405180910390f35b61018361017e3660046113a6565b61037c565b005b6101986101933660046113e5565b6103e5565b60405161016792919061166b565b61015a6104dd565b61015a6104ec565b6101836101c436600461141d565b610510565b6101836101d736600461141d565b6105ed565b610183610950565b61015a6109de565b61015a610a02565b61015a610a11565b61015a610a35565b6101836102123660046113a6565b610a59565b61015a610aa5565b61015a61022d366004611537565b610ab4565b61015a610ae9565b61015a610b0d565b6102556102503660046113a6565b610b31565b6040516101679190611658565b61015a6102703660046114f7565b610ba7565b610183610283366004611478565b610be9565b6102556102963660046113e5565b610e1a565b61015a610e9d565b6101836102b13660046113a6565b610ec1565b6040516340925bc760e11b81526000906001600160a01b037f00000000000000000000000000000000000000000000000000000000000000001690638124b78e90610325907f0000000000000000000000000000000000000000000000000000000000000000906004016115a5565b602060405180830381600087803b15801561033f57600080fd5b505af1158015610353573d6000803e3d6000fd5b505050506040513d601f19601f8201168201806040525081019061037791906113c9565b905090565b600154600160a01b900460ff16156103af5760405162461bcd60e51b81526004016103a6906116c0565b60405180910390fd5b6001805460ff60a01b1916600160a01b179055600080546001600160a01b039092166001600160a01b0319909216919091179055565b6001600160a01b038083166000818152600360208181526040808420958716845294815284832091815284832093835292835290839020815484518185028101850190955280855260609485949091849183018282801561046f57602002820191906000526020600020905b81546001600160a01b03168152600190910190602001808311610451575b50505050509150808054806020026020016040519081016040528092919081815260200182805480156104cb57602002820191906000526020600020905b81546001600160a01b031681526001909101906020018083116104ad575b50505050509050915091509250929050565b6000546001600160a01b031681565b7f000000000000000000000000000000000000000000000000000000000000000081565b6000546001600160a01b0316331461053a5760405162461bcd60e51b81526004016103a6906116ea565b6001600160a01b038084166000908152600360209081526040808320868516845282528083208054600181810183559185528385200180548787166001600160a01b03199182168117909255958a1685526004845282852080549283018155855292909320909201805490931617909155517f8494fe594cd5087021d4b11758a2bbc7be28a430e94f2b268d668e5991ed3b8a906105df9085908590889086906115b9565b60405180910390a150505050565b6000546001600160a01b031633146106175760405162461bcd60e51b81526004016103a6906116ea565b6001600160a01b03808416600090815260036020908152604080832093861683529281529082902080548351818402810184019094528084526060939283018282801561068d57602002820191906000526020600020905b81546001600160a01b0316815260019091019060200180831161066f575b50939450600093505050505b815181101561072057826001600160a01b03168282815181106106b857fe5b60200260200101516001600160a01b0316141561071857816001835103815181106106df57fe5b60200260200101518282815181106106f357fe5b60200260200101906001600160a01b031690816001600160a01b031681525050610720565b600101610699565b506001600160a01b038085166000908152600360209081526040808320938716835292815291902082516107569284019061131a565b506001600160a01b03808516600090815260036020908152604080832093871683529290522080548061078557fe5b60008281526020808220830160001990810180546001600160a01b03191690559092019092556001600160a01b03871682526004815260409182902080548351818402810184019094528084526060939283018282801561080f57602002820191906000526020600020905b81546001600160a01b031681526001909101906020018083116107f1575b50939450600093505050505b81518110156108a257836001600160a01b031682828151811061083a57fe5b60200260200101516001600160a01b0316141561089a578160018351038151811061086157fe5b602002602001015182828151811061087557fe5b60200260200101906001600160a01b031690816001600160a01b0316815250506108a2565b60010161081b565b506001600160a01b038616600090815260046020908152604090912082516108cc9284019061131a565b506001600160a01b03861660009081526004602052604090208054806108ee57fe5b600082815260209020810160001990810180546001600160a01b03191690550190556040517fafed4f6701f0e943874e915e49e2e7b67ae31f18e083f540e890af2275aa116d906109409085906115a5565b60405180910390a1505050505050565b6001546001600160a01b0316331461097a5760405162461bcd60e51b81526004016103a690611699565b600154600080546040516001600160a01b0393841693909116917f8be0079c531659141344cd1fd0a4f28419497f9722a3daafe3b4186f6b6457e091a360018054600080546001600160a01b03199081166001600160a01b03841617909155169055565b7f000000000000000000000000000000000000000000000000000000000000000081565b6002546001600160a01b031681565b7f000000000000000000000000000000000000000000000000000000000000000081565b7f000000000000000000000000000000000000000000000000000000000000000081565b6000546001600160a01b03163314610a835760405162461bcd60e51b81526004016103a6906116ea565b600280546001600160a01b0319166001600160a01b0392909216919091179055565b6001546001600160a01b031681565b60046020528160005260406000208181548110610acd57fe5b6000918252602090912001546001600160a01b03169150829050565b7f000000000000000000000000000000000000000000000000000000000000000081565b7f000000000000000000000000000000000000000000000000000000000000000081565b6001600160a01b038116600090815260046020908152604091829020805483518184028101840190945280845260609392830182828015610b9b57602002820191906000526020600020905b81546001600160a01b03168152600190910190602001808311610b7d575b50505050509050919050565b60036020528260005260406000206020528160005260406000208181548110610bcc57fe5b6000918252602090912001546001600160a01b0316925083915050565b876000610c188983817f0000000000000000000000000000000000000000000000000000000000000000610f46565b9050816001600160a01b03166327c2a291828b8b8b610c37888d61105a565b610c41898d61105a565b610c4b8a8d611184565b610c558b8d611184565b7f0000000000000000000000000000000000000000000000000000000000000000610c7f8c6111f3565b6040518b63ffffffff1660e01b8152600401610ca49a999897969594939291906115e4565b600060405180830381600087803b158015610cbe57600080fd5b505af1158015610cd2573d6000803e3d6000fd5b50505050505060036000876001600160a01b03166001600160a01b031681526020019081526020016000206000866001600160a01b03166001600160a01b03168152602001908152602001600020889080600181540180825580915050600190039060005260206000200160009091909190916101000a8154816001600160a01b0302191690836001600160a01b0316021790555060046000886001600160a01b03166001600160a01b03168152602001908152602001600020889080600181540180825580915050600190039060005260206000200160009091909190916101000a8154816001600160a01b0302191690836001600160a01b031602179055507f8494fe594cd5087021d4b11758a2bbc7be28a430e94f2b268d668e5991ed3b8a8686898b604051610e0894939291906115b9565b60405180910390a15050505050505050565b6001600160a01b038083166000908152600360209081526040808320938516835292815290829020805483518184028101840190945280845260609392830182828015610e9057602002820191906000526020600020905b81546001600160a01b03168152600190910190602001808311610e72575b5050505050905092915050565b7f000000000000000000000000000000000000000000000000000000000000000081565b6000546001600160a01b03163314610eeb5760405162461bcd60e51b81526004016103a6906116ea565b600080546040516001600160a01b03808516939216917fdcf55418cee3220104fef63f979ff3c4097ad240c0c43dcb33ce837748983e6291a3600180546001600160a01b0319166001600160a01b0392909216919091179055565b6002546040516340925bc760e11b81526000916001600160a01b037f0000000000000000000000000000000000000000000000000000000000000000811692638124b78e92610f999216906004016115a5565b602060405180830381600087803b158015610fb357600080fd5b505af1158015610fc7573d6000803e3d6000fd5b505050506040513d601f19601f82011682018060405250810190610feb91906113c9565b6040516306552ff360e01b81529091506001600160a01b038216906306552ff3906110209088908890889088906004016115b9565b600060405180830381600087803b15801561103a57600080fd5b505af115801561104e573d6000803e3d6000fd5b50505050949350505050565b6040516340925bc760e11b81526000906001600160a01b037f00000000000000000000000000000000000000000000000000000000000000001690638124b78e906110c9907f0000000000000000000000000000000000000000000000000000000000000000906004016115a5565b602060405180830381600087803b1580156110e357600080fd5b505af11580156110f7573d6000803e3d6000fd5b505050506040513d601f19601f8201168201806040525081019061111b91906113c9565b604051630e66b9c960e21b81529091506001600160a01b0382169063399ae7249061114c908690869060040161163f565b600060405180830381600087803b15801561116657600080fd5b505af115801561117a573d6000803e3d6000fd5b5050505092915050565b6040516340925bc760e11b81526000906001600160a01b037f00000000000000000000000000000000000000000000000000000000000000001690638124b78e906110c9907f0000000000000000000000000000000000000000000000000000000000000000906004016115a5565b6040516340925bc760e11b81526000906001600160a01b037f00000000000000000000000000000000000000000000000000000000000000001690638124b78e90611262907f0000000000000000000000000000000000000000000000000000000000000000906004016115a5565b602060405180830381600087803b15801561127c57600080fd5b505af1158015611290573d6000803e3d6000fd5b505050506040513d601f19601f820116820180604052508101906112b491906113c9565b604051630d00929760e01b81529091506001600160a01b03821690630d009297906112e39085906004016115a5565b600060405180830381600087803b1580156112fd57600080fd5b505af1158015611311573d6000803e3d6000fd5b50505050919050565b82805482825590600052602060002090810192821561136f579160200282015b8281111561136f57825182546001600160a01b0319166001600160a01b0390911617825560209092019160019091019061133a565b5061137b92915061137f565b5090565b6113a391905b8082111561137b5780546001600160a01b0319168155600101611385565b90565b6000602082840312156113b7578081fd5b81356113c28161170d565b9392505050565b6000602082840312156113da578081fd5b81516113c28161170d565b600080604083850312156113f7578081fd5b82356114028161170d565b915060208301356114128161170d565b809150509250929050565b60008060008060808587031215611432578182fd5b843561143d8161170d565b9350602085013561144d8161170d565b9250604085013561145d8161170d565b9150606085013561146d8161170d565b939692955090935050565b600080600080600080600080610100898b031215611494578384fd5b883561149f8161170d565b975060208901356114af8161170d565b965060408901356114bf8161170d565b955060608901356114cf8161170d565b979a969950949760808101359660a0820135965060c0820135955060e0909101359350915050565b60008060006060848603121561150b578283fd5b83356115168161170d565b925060208401356115268161170d565b929592945050506040919091013590565b60008060408385031215611549578182fd5b82356115548161170d565b946020939093013593505050565b6000815180845260208085019450808401835b8381101561159a5781516001600160a01b031687529582019590820190600101611575565b509495945050505050565b6001600160a01b0391909116815260200190565b6001600160a01b03948516815292841660208401529083166040830152909116606082015260800190565b6001600160a01b039a8b168152988a1660208a015296891660408901529488166060880152928716608087015290861660a0860152851660c0850152841660e084015283166101008301529091166101208201526101400190565b6001600160a01b03929092168252602082015260400190565b6000602082526113c26020830184611562565b60006040825261167e6040830185611562565b82810360208401526116908185611562565b95945050505050565b6020808252600d908201526c494e56414c49445f434c41494d60981b604082015260600190565b60208082526010908201526f1113d113d7d25392551250531256915160821b604082015260600190565b6020808252600990820152682727aa2fa7aba722a960b91b604082015260600190565b6001600160a01b038116811461172257600080fd5b5056fea2646970667358221220a0bf6e4e10255e04b6adf9bcb4d45beddf53650c9c78559adf5615f70d60fec964736f6c63430006090033",
  "immutableReferences": {
    "8933": [
      {
        "length": 32,
        "start": 720
      },
      {
        "length": 32,
        "start": 3743
      },
      {
        "length": 32,
        "start": 3939
      },
      {
        "length": 32,
        "start": 4212
      },
      {
        "length": 32,
        "start": 4510
      },
      {
        "length": 32,
        "start": 4621
      }
    ],
    "8935": [
      {
        "length": 32,
        "start": 765
      },
      {
        "length": 32,
        "start": 2831
      }
    ],
    "8937": [
      {
        "length": 32,
        "start": 1262
      },
      {
        "length": 32,
        "start": 4257
      }
    ],
    "8939": [
      {
        "length": 32,
        "start": 2615
      },
      {
        "length": 32,
        "start": 4666
      }
    ],
    "8941": [
      {
        "length": 32,
        "start": 2579
      },
      {
        "length": 32,
        "start": 3159
      }
    ],
    "8943": [
      {
        "length": 32,
        "start": 2528
      },
      {
        "length": 32,
        "start": 4555
      }
    ],
    "8945": [
      {
        "length": 32,
        "start": 2795
      },
      {
        "length": 32,
        "start": 3060
      }
    ]
  },
  "source": "/*\n\n    Copyright 2020 DODO ZOO.\n    SPDX-License-Identifier: Apache-2.0\n\n*/\n\npragma solidity 0.6.9;\npragma experimental ABIEncoderV2;\n\nimport {InitializableOwnable} from \"../lib/InitializableOwnable.sol\";\nimport {ICloneFactory} from \"../lib/CloneFactory.sol\";\nimport {IFeeRateModel} from \"../lib/FeeRateModel.sol\";\nimport {IExternalValue} from \"../lib/ExternalValue.sol\";\nimport {IDPP} from \"../DODOPrivatePool/intf/IDPP.sol\";\nimport {IDPPAdmin} from \"../DODOPrivatePool/intf/IDPPAdmin.sol\";\nimport {IPermissionManager} from \"../lib/PermissionManager.sol\";\n\ncontract DPPFactory is InitializableOwnable {\n    // ============ Templates ============\n\n    address public immutable _CLONE_FACTORY_;\n    address public immutable _DPP_TEMPLATE_;\n    address public immutable _FEE_RATE_MODEL_TEMPLATE_;\n    address public immutable _PERMISSION_MANAGER_TEMPLATE_;\n    address public immutable _DEFAULT_GAS_PRICE_SOURCE_;\n    address public immutable _VALUE_SOURCE_;\n    address public immutable _DODO_SMART_APPROVE_;\n    address public _DPP_ADMIN_TEMPLATE_;\n\n    // ============ Registry ============\n\n    // base -> quote -> DPP address list\n    mapping(address => mapping(address => address[])) public _REGISTRY_;\n    // creator -> DPP address list\n    mapping(address => address[]) public _USER_REGISTRY_;\n\n    // ============ Events ============\n\n    event NewDPP(\n        address baseToken,\n        address quoteToken,\n        address creator,\n        address dpp\n    );\n\n\n    event RemoveDPP(address dpp);\n\n    // ============ Functions ============\n\n    constructor(\n        address cloneFactory,\n        address dppTemplate,\n        address dppAdminTemplate,\n        address defautFeeRateModelTemplate,\n        address defaultPermissionManagerTemplate,\n        address defaultExternalValueTemplate,\n        address defaultGasPriceSource,\n        address dodoSmartApprove\n    ) public {\n        _CLONE_FACTORY_ = cloneFactory;\n        _DPP_TEMPLATE_ = dppTemplate;\n        _DPP_ADMIN_TEMPLATE_ = dppAdminTemplate;\n        _DODO_SMART_APPROVE_ = dodoSmartApprove;\n        _FEE_RATE_MODEL_TEMPLATE_ = defautFeeRateModelTemplate;\n        _PERMISSION_MANAGER_TEMPLATE_ = defaultPermissionManagerTemplate;\n        _VALUE_SOURCE_ = defaultExternalValueTemplate;\n        _DEFAULT_GAS_PRICE_SOURCE_ = defaultGasPriceSource;\n    }\n\n    function createDODOPrivatePool() external returns (address newPrivatePool) {\n        newPrivatePool = ICloneFactory(_CLONE_FACTORY_).clone(_DPP_TEMPLATE_);\n    }\n\n    function initDODOPrivatePool(\n        address dppAddress,\n        address creator,\n        address baseToken,\n        address quoteToken,\n        uint256 lpFeeRate,\n        uint256 mtFeeRate,\n        uint256 k,\n        uint256 i\n    ) external {\n        {\n            address _dppAddress = dppAddress;\n            address adminModel = _createDPPAdminModel(\n                creator,\n                _dppAddress,\n                creator,\n                _DODO_SMART_APPROVE_\n            );\n            IDPP(_dppAddress).init(\n                adminModel,\n                creator,\n                baseToken,\n                quoteToken,\n                _createFeeRateModel(_dppAddress, lpFeeRate),\n                _createFeeRateModel(_dppAddress, mtFeeRate),\n                _createExternalValueModel(_dppAddress, k),\n                _createExternalValueModel(_dppAddress, i),\n                _DEFAULT_GAS_PRICE_SOURCE_,\n                _createPermissionManager(adminModel)\n            );\n        }\n\n        _REGISTRY_[baseToken][quoteToken].push(dppAddress);\n        _USER_REGISTRY_[creator].push(dppAddress);\n        emit NewDPP(baseToken, quoteToken, creator, dppAddress);\n    }\n\n    function _createFeeRateModel(address owner, uint256 feeRate)\n        internal\n        returns (address feeRateModel)\n    {\n        feeRateModel = ICloneFactory(_CLONE_FACTORY_).clone(_FEE_RATE_MODEL_TEMPLATE_);\n        IFeeRateModel(feeRateModel).init(owner, feeRate);\n    }\n\n    function _createPermissionManager(address owner) internal returns (address permissionManager) {\n        permissionManager = ICloneFactory(_CLONE_FACTORY_).clone(_PERMISSION_MANAGER_TEMPLATE_);\n        IPermissionManager(permissionManager).initOwner(owner);\n    }\n\n    function _createExternalValueModel(address owner, uint256 value)\n        internal\n        returns (address valueModel)\n    {\n        valueModel = ICloneFactory(_CLONE_FACTORY_).clone(_VALUE_SOURCE_);\n        IExternalValue(valueModel).init(owner, value);\n    }\n\n    function _createDPPAdminModel(\n        address owner,\n        address dpp,\n        address operator,\n        address dodoSmartApprove\n    ) internal returns (address adminModel) {\n        adminModel = ICloneFactory(_CLONE_FACTORY_).clone(_DPP_ADMIN_TEMPLATE_);\n        IDPPAdmin(adminModel).init(owner, dpp, operator, dodoSmartApprove);\n    }\n\n    // ============ Admin Operation Functions ============\n    \n    function updateAdminTemplate(address _newDPPAdminTemplate) external onlyOwner {\n        _DPP_ADMIN_TEMPLATE_ = _newDPPAdminTemplate;\n    }\n\n    function addPoolByAdmin(\n        address creator,\n        address baseToken, \n        address quoteToken,\n        address pool\n    ) external onlyOwner {\n        _REGISTRY_[baseToken][quoteToken].push(pool);\n        _USER_REGISTRY_[creator].push(pool);\n        emit NewDPP(baseToken, quoteToken, creator, pool);\n    }\n\n    function removePoolByAdmin(\n        address creator,\n        address baseToken, \n        address quoteToken,\n        address pool\n    ) external onlyOwner {\n        address[] memory registryList = _REGISTRY_[baseToken][quoteToken];\n        for (uint256 i = 0; i < registryList.length; i++) {\n            if (registryList[i] == pool) {\n                registryList[i] = registryList[registryList.length - 1];\n                break;\n            }\n        }\n        _REGISTRY_[baseToken][quoteToken] = registryList;\n        _REGISTRY_[baseToken][quoteToken].pop();\n        address[] memory userRegistryList = _USER_REGISTRY_[creator];\n        for (uint256 i = 0; i < userRegistryList.length; i++) {\n            if (userRegistryList[i] == pool) {\n                userRegistryList[i] = userRegistryList[userRegistryList.length - 1];\n                break;\n            }\n        }\n        _USER_REGISTRY_[creator] = userRegistryList;\n        _USER_REGISTRY_[creator].pop();\n        emit RemoveDPP(pool);\n    }\n\n    // ============ View Functions ============\n\n    function getPrivatePool(address baseToken, address quoteToken)\n        external\n        view\n        returns (address[] memory pools)\n    {\n        return _REGISTRY_[baseToken][quoteToken];\n    }\n\n    function getPrivatePoolBidirection(address token0, address token1)\n        external\n        view\n        returns (address[] memory baseToken0Pool, address[] memory baseToken1Pool)\n    {\n        return (_REGISTRY_[token0][token1], _REGISTRY_[token1][token0]);\n    }\n\n    function getPrivatePoolByUser(address user) \n        external\n        view\n        returns (address[] memory pools)\n    {\n        return _USER_REGISTRY_[user];\n    }\n}\n",
  "sourcePath": "/Users/niutaotao/projects/dodo/contractV2/contracts/Factory/DPPFactory.sol",
  "compiler": {
    "name": "solc",
    "version": "0.6.9+commit.3e3065ac.Emscripten.clang"
  },
  "schemaVersion": "3.3.2",
  "updatedAt": "2020-12-24T13:41:25.743Z",
  "devdoc": {
    "methods": {}
  },
  "userdoc": {
    "methods": {}
  }
}