{
  "contractName": "DPPFactory",
  "abi": [
    {
      "inputs": [
        {
          "internalType": "address",
          "name": "cloneFactory",
          "type": "address"
        },
        {
          "internalType": "address",
          "name": "dppTemplate",
          "type": "address"
        },
        {
          "internalType": "address",
          "name": "dppAdminTemplate",
          "type": "address"
        },
        {
          "internalType": "address",
          "name": "defaultMaintainer",
          "type": "address"
        },
        {
          "internalType": "address",
          "name": "defaultMtFeeRateModel",
          "type": "address"
        },
        {
          "internalType": "address",
          "name": "dodoApproveProxy",
          "type": "address"
        }
      ],
      "stateMutability": "nonpayable",
      "type": "constructor"
    },
    {
      "anonymous": false,
      "inputs": [
        {
          "indexed": false,
          "internalType": "address",
          "name": "baseToken",
          "type": "address"
        },
        {
          "indexed": false,
          "internalType": "address",
          "name": "quoteToken",
          "type": "address"
        },
        {
          "indexed": false,
          "internalType": "address",
          "name": "creator",
          "type": "address"
        },
        {
          "indexed": false,
          "internalType": "address",
          "name": "dpp",
          "type": "address"
        }
      ],
      "name": "NewDPP",
      "type": "event"
    },
    {
      "anonymous": false,
      "inputs": [
        {
          "indexed": true,
          "internalType": "address",
          "name": "previousOwner",
          "type": "address"
        },
        {
          "indexed": true,
          "internalType": "address",
          "name": "newOwner",
          "type": "address"
        }
      ],
      "name": "OwnershipTransferPrepared",
      "type": "event"
    },
    {
      "anonymous": false,
      "inputs": [
        {
          "indexed": true,
          "internalType": "address",
          "name": "previousOwner",
          "type": "address"
        },
        {
          "indexed": true,
          "internalType": "address",
          "name": "newOwner",
          "type": "address"
        }
      ],
      "name": "OwnershipTransferred",
      "type": "event"
    },
    {
      "anonymous": false,
      "inputs": [
        {
          "indexed": false,
          "internalType": "address",
          "name": "dpp",
          "type": "address"
        }
      ],
      "name": "RemoveDPP",
      "type": "event"
    },
    {
      "inputs": [],
      "name": "_CLONE_FACTORY_",
      "outputs": [
        {
          "internalType": "address",
          "name": "",
          "type": "address"
        }
      ],
      "stateMutability": "view",
      "type": "function"
    },
    {
      "inputs": [],
      "name": "_DEFAULT_MAINTAINER_",
      "outputs": [
        {
          "internalType": "address",
          "name": "",
          "type": "address"
        }
      ],
      "stateMutability": "view",
      "type": "function"
    },
    {
      "inputs": [],
      "name": "_DEFAULT_MT_FEE_RATE_MODEL_",
      "outputs": [
        {
          "internalType": "address",
          "name": "",
          "type": "address"
        }
      ],
      "stateMutability": "view",
      "type": "function"
    },
    {
      "inputs": [],
      "name": "_DODO_APPROVE_PROXY_",
      "outputs": [
        {
          "internalType": "address",
          "name": "",
          "type": "address"
        }
      ],
      "stateMutability": "view",
      "type": "function"
    },
    {
      "inputs": [],
      "name": "_DPP_ADMIN_TEMPLATE_",
      "outputs": [
        {
          "internalType": "address",
          "name": "",
          "type": "address"
        }
      ],
      "stateMutability": "view",
      "type": "function"
    },
    {
      "inputs": [],
      "name": "_DPP_TEMPLATE_",
      "outputs": [
        {
          "internalType": "address",
          "name": "",
          "type": "address"
        }
      ],
      "stateMutability": "view",
      "type": "function"
    },
    {
      "inputs": [],
      "name": "_NEW_OWNER_",
      "outputs": [
        {
          "internalType": "address",
          "name": "",
          "type": "address"
        }
      ],
      "stateMutability": "view",
      "type": "function"
    },
    {
      "inputs": [],
      "name": "_OWNER_",
      "outputs": [
        {
          "internalType": "address",
          "name": "",
          "type": "address"
        }
      ],
      "stateMutability": "view",
      "type": "function"
    },
    {
      "inputs": [
        {
          "internalType": "address",
          "name": "",
          "type": "address"
        },
        {
          "internalType": "address",
          "name": "",
          "type": "address"
        },
        {
          "internalType": "uint256",
          "name": "",
          "type": "uint256"
        }
      ],
      "name": "_REGISTRY_",
      "outputs": [
        {
          "internalType": "address",
          "name": "",
          "type": "address"
        }
      ],
      "stateMutability": "view",
      "type": "function"
    },
    {
      "inputs": [
        {
          "internalType": "address",
          "name": "",
          "type": "address"
        },
        {
          "internalType": "uint256",
          "name": "",
          "type": "uint256"
        }
      ],
      "name": "_USER_REGISTRY_",
      "outputs": [
        {
          "internalType": "address",
          "name": "",
          "type": "address"
        }
      ],
      "stateMutability": "view",
      "type": "function"
    },
    {
      "inputs": [],
      "name": "claimOwnership",
      "outputs": [],
      "stateMutability": "nonpayable",
      "type": "function"
    },
    {
      "inputs": [
        {
          "internalType": "address",
          "name": "newOwner",
          "type": "address"
        }
      ],
      "name": "initOwner",
      "outputs": [],
      "stateMutability": "nonpayable",
      "type": "function"
    },
    {
      "inputs": [
        {
          "internalType": "address",
          "name": "newOwner",
          "type": "address"
        }
      ],
      "name": "transferOwnership",
      "outputs": [],
      "stateMutability": "nonpayable",
      "type": "function"
    },
    {
      "inputs": [],
      "name": "createDODOPrivatePool",
      "outputs": [
        {
          "internalType": "address",
          "name": "newPrivatePool",
          "type": "address"
        }
      ],
      "stateMutability": "nonpayable",
      "type": "function"
    },
    {
      "inputs": [
        {
          "internalType": "address",
          "name": "dppAddress",
          "type": "address"
        },
        {
          "internalType": "address",
          "name": "creator",
          "type": "address"
        },
        {
          "internalType": "address",
          "name": "baseToken",
          "type": "address"
        },
        {
          "internalType": "address",
          "name": "quoteToken",
          "type": "address"
        },
        {
          "internalType": "uint256",
          "name": "lpFeeRate",
          "type": "uint256"
        },
        {
          "internalType": "uint256",
          "name": "k",
          "type": "uint256"
        },
        {
          "internalType": "uint256",
          "name": "i",
          "type": "uint256"
        },
        {
          "internalType": "bool",
          "name": "isOpenTwap",
          "type": "bool"
        }
      ],
      "name": "initDODOPrivatePool",
      "outputs": [],
      "stateMutability": "nonpayable",
      "type": "function"
    },
    {
      "inputs": [
        {
          "internalType": "address",
          "name": "_newDPPAdminTemplate",
          "type": "address"
        }
      ],
      "name": "updateAdminTemplate",
      "outputs": [],
      "stateMutability": "nonpayable",
      "type": "function"
    },
    {
      "inputs": [
        {
          "internalType": "address",
          "name": "_newDPPTemplate",
          "type": "address"
        }
      ],
      "name": "updateDppTemplate",
      "outputs": [],
      "stateMutability": "nonpayable",
      "type": "function"
    },
    {
      "inputs": [
        {
          "internalType": "address",
          "name": "creator",
          "type": "address"
        },
        {
          "internalType": "address",
          "name": "baseToken",
          "type": "address"
        },
        {
          "internalType": "address",
          "name": "quoteToken",
          "type": "address"
        },
        {
          "internalType": "address",
          "name": "pool",
          "type": "address"
        }
      ],
      "name": "addPoolByAdmin",
      "outputs": [],
      "stateMutability": "nonpayable",
      "type": "function"
    },
    {
      "inputs": [
        {
          "internalType": "address",
          "name": "creator",
          "type": "address"
        },
        {
          "internalType": "address",
          "name": "baseToken",
          "type": "address"
        },
        {
          "internalType": "address",
          "name": "quoteToken",
          "type": "address"
        },
        {
          "internalType": "address",
          "name": "pool",
          "type": "address"
        }
      ],
      "name": "removePoolByAdmin",
      "outputs": [],
      "stateMutability": "nonpayable",
      "type": "function"
    },
    {
      "inputs": [
        {
          "internalType": "address",
          "name": "baseToken",
          "type": "address"
        },
        {
          "internalType": "address",
          "name": "quoteToken",
          "type": "address"
        }
      ],
      "name": "getDODOPool",
      "outputs": [
        {
          "internalType": "address[]",
          "name": "pools",
          "type": "address[]"
        }
      ],
      "stateMutability": "view",
      "type": "function"
    },
    {
      "inputs": [
        {
          "internalType": "address",
          "name": "token0",
          "type": "address"
        },
        {
          "internalType": "address",
          "name": "token1",
          "type": "address"
        }
      ],
      "name": "getDODOPoolBidirection",
      "outputs": [
        {
          "internalType": "address[]",
          "name": "baseToken0Pool",
          "type": "address[]"
        },
        {
          "internalType": "address[]",
          "name": "baseToken1Pool",
          "type": "address[]"
        }
      ],
      "stateMutability": "view",
      "type": "function"
    },
    {
      "inputs": [
        {
          "internalType": "address",
          "name": "user",
          "type": "address"
        }
      ],
      "name": "getDODOPoolByUser",
      "outputs": [
        {
          "internalType": "address[]",
          "name": "pools",
          "type": "address[]"
        }
      ],
      "stateMutability": "view",
      "type": "function"
    }
  ],
  "bytecode": "0x6101006040523480156200001257600080fd5b50604051620015de380380620015de8339810160408190526200003591620000b1565b6001600160601b0319606096871b8116608052600280546001600160a01b039788166001600160a01b031991821617909155600380549690971695169490941790945590841b821660a052831b811660c052911b1660e05262000137565b80516001600160a01b0381168114620000ab57600080fd5b92915050565b60008060008060008060c08789031215620000ca578182fd5b620000d6888862000093565b9550620000e7886020890162000093565b9450620000f8886040890162000093565b935062000109886060890162000093565b92506200011a886080890162000093565b91506200012b8860a0890162000093565b90509295509295509295565b60805160601c60a05160601c60c05160601c60e05160601c61144c62000192600039806103db5280610e5d5250806104505280610ba25250806104285280610d0a5250806102cb5280610e395280610f21525061144c6000f3fe608060405234801561001057600080fd5b50600436106101425760003560e01c8063794e5538116100b8578063ace378ca1161007c578063ace378ca1461025d578063bdeb0a9114610265578063e65f702914610278578063eb774d051461028b578063eb99be1214610293578063f2fde38b1461029b57610142565b8063794e5538146102065780637d2c82d71461022757806381ab4d0a1461023a5780638456db1514610242578063a58888db1461024a57610142565b806343274b821161010a57806343274b82146101a857806344b7f78e146101bb5780634e71e0c8146101ce57806357a281dc146101d6578063633644d6146101f65780636c5ccb9b146101fe57610142565b806309b8adb8146101475780630d0092971461016557806316048bc41461017a578063195eefe01461018257806339d00ef914610195575b600080fd5b61014f6102ae565b60405161015c91906112b5565b60405180910390f35b6101786101733660046110a4565b610358565b005b61014f6103c1565b610178610190366004611176565b6103d0565b6101786101a336600461111b565b6105f4565b6101786101b636600461111b565b6106d1565b6101786101c93660046110a4565b610a34565b610178610a80565b6101e96101e43660046110e3565b610b0e565b60405161015c9190611349565b61014f610b91565b61014f610ba0565b6102196102143660046110e3565b610bc4565b60405161015c92919061135c565b6101786102353660046110a4565b610cbc565b61014f610d08565b61014f610d2c565b61014f610258366004611247565b610d3b565b61014f610d70565b61014f610273366004611207565b610d7f565b6101e96102863660046110a4565b610dc1565b61014f610e37565b61014f610e5b565b6101786102a93660046110a4565b610e7f565b6002546040516340925bc760e11b81526000916001600160a01b037f0000000000000000000000000000000000000000000000000000000000000000811692638124b78e926103019216906004016112b5565b602060405180830381600087803b15801561031b57600080fd5b505af115801561032f573d6000803e3d6000fd5b505050506040513d601f19601f8201168201806040525081019061035391906110c7565b905090565b600154600160a01b900460ff161561038b5760405162461bcd60e51b8152600401610382906113b1565b60405180910390fd5b6001805460ff60a01b1916600160a01b179055600080546001600160a01b039092166001600160a01b0319909216919091179055565b6000546001600160a01b031681565b8760006103ff8983817f0000000000000000000000000000000000000000000000000000000000000000610f04565b6040516301a3c30b60e01b81529091506001600160a01b038316906301a3c30b9061047e9084907f0000000000000000000000000000000000000000000000000000000000000000908d908d908d907f0000000000000000000000000000000000000000000000000000000000000000908e908e908e906004016112f4565b600060405180830381600087803b15801561049857600080fd5b505af11580156104ac573d6000803e3d6000fd5b50505050505060046000876001600160a01b03166001600160a01b031681526020019081526020016000206000866001600160a01b03166001600160a01b03168152602001908152602001600020889080600181540180825580915050600190039060005260206000200160009091909190916101000a8154816001600160a01b0302191690836001600160a01b0316021790555060056000886001600160a01b03166001600160a01b03168152602001908152602001600020889080600181540180825580915050600190039060005260206000200160009091909190916101000a8154816001600160a01b0302191690836001600160a01b031602179055507f8494fe594cd5087021d4b11758a2bbc7be28a430e94f2b268d668e5991ed3b8a8686898b6040516105e294939291906112c9565b60405180910390a15050505050505050565b6000546001600160a01b0316331461061e5760405162461bcd60e51b8152600401610382906113db565b6001600160a01b038084166000908152600460209081526040808320868516845282528083208054600181810183559185528385200180548787166001600160a01b03199182168117909255958a1685526005845282852080549283018155855292909320909201805490931617909155517f8494fe594cd5087021d4b11758a2bbc7be28a430e94f2b268d668e5991ed3b8a906106c39085908590889086906112c9565b60405180910390a150505050565b6000546001600160a01b031633146106fb5760405162461bcd60e51b8152600401610382906113db565b6001600160a01b03808416600090815260046020908152604080832093861683529281529082902080548351818402810184019094528084526060939283018282801561077157602002820191906000526020600020905b81546001600160a01b03168152600190910190602001808311610753575b50939450600093505050505b815181101561080457826001600160a01b031682828151811061079c57fe5b60200260200101516001600160a01b031614156107fc57816001835103815181106107c357fe5b60200260200101518282815181106107d757fe5b60200260200101906001600160a01b031690816001600160a01b031681525050610804565b60010161077d565b506001600160a01b0380851660009081526004602090815260408083209387168352928152919020825161083a92840190611018565b506001600160a01b03808516600090815260046020908152604080832093871683529290522080548061086957fe5b60008281526020808220830160001990810180546001600160a01b03191690559092019092556001600160a01b0387168252600581526040918290208054835181840281018401909452808452606093928301828280156108f357602002820191906000526020600020905b81546001600160a01b031681526001909101906020018083116108d5575b50939450600093505050505b815181101561098657836001600160a01b031682828151811061091e57fe5b60200260200101516001600160a01b0316141561097e578160018351038151811061094557fe5b602002602001015182828151811061095957fe5b60200260200101906001600160a01b031690816001600160a01b031681525050610986565b6001016108ff565b506001600160a01b038616600090815260056020908152604090912082516109b092840190611018565b506001600160a01b03861660009081526005602052604090208054806109d257fe5b600082815260209020810160001990810180546001600160a01b03191690550190556040517fafed4f6701f0e943874e915e49e2e7b67ae31f18e083f540e890af2275aa116d90610a249085906112b5565b60405180910390a1505050505050565b6000546001600160a01b03163314610a5e5760405162461bcd60e51b8152600401610382906113db565b600280546001600160a01b0319166001600160a01b0392909216919091179055565b6001546001600160a01b03163314610aaa5760405162461bcd60e51b81526004016103829061138a565b600154600080546040516001600160a01b0393841693909116917f8be0079c531659141344cd1fd0a4f28419497f9722a3daafe3b4186f6b6457e091a360018054600080546001600160a01b03199081166001600160a01b03841617909155169055565b6001600160a01b038083166000908152600460209081526040808320938516835292815290829020805483518184028101840190945280845260609392830182828015610b8457602002820191906000526020600020905b81546001600160a01b03168152600190910190602001808311610b66575b5050505050905092915050565b6003546001600160a01b031681565b7f000000000000000000000000000000000000000000000000000000000000000081565b6001600160a01b0380831660008181526004602081815260408084209587168452948152848320918152848320938352928352908390208154845181850281018501909552808552606094859490918491830182828015610c4e57602002820191906000526020600020905b81546001600160a01b03168152600190910190602001808311610c30575b5050505050915080805480602002602001604051908101604052809291908181526020018280548015610caa57602002820191906000526020600020905b81546001600160a01b03168152600190910190602001808311610c8c575b50505050509050915091509250929050565b6000546001600160a01b03163314610ce65760405162461bcd60e51b8152600401610382906113db565b600380546001600160a01b0319166001600160a01b0392909216919091179055565b7f000000000000000000000000000000000000000000000000000000000000000081565b6001546001600160a01b031681565b60056020528160005260406000208181548110610d5457fe5b6000918252602090912001546001600160a01b03169150829050565b6002546001600160a01b031681565b60046020528260005260406000206020528160005260406000208181548110610da457fe5b6000918252602090912001546001600160a01b0316925083915050565b6001600160a01b038116600090815260056020908152604091829020805483518184028101840190945280845260609392830182828015610e2b57602002820191906000526020600020905b81546001600160a01b03168152600190910190602001808311610e0d575b50505050509050919050565b7f000000000000000000000000000000000000000000000000000000000000000081565b7f000000000000000000000000000000000000000000000000000000000000000081565b6000546001600160a01b03163314610ea95760405162461bcd60e51b8152600401610382906113db565b600080546040516001600160a01b03808516939216917fdcf55418cee3220104fef63f979ff3c4097ad240c0c43dcb33ce837748983e6291a3600180546001600160a01b0319166001600160a01b0392909216919091179055565b6003546040516340925bc760e11b81526000916001600160a01b037f0000000000000000000000000000000000000000000000000000000000000000811692638124b78e92610f579216906004016112b5565b602060405180830381600087803b158015610f7157600080fd5b505af1158015610f85573d6000803e3d6000fd5b505050506040513d601f19601f82011682018060405250810190610fa991906110c7565b6040516306552ff360e01b81529091506001600160a01b038216906306552ff390610fde9088908890889088906004016112c9565b600060405180830381600087803b158015610ff857600080fd5b505af115801561100c573d6000803e3d6000fd5b50505050949350505050565b82805482825590600052602060002090810192821561106d579160200282015b8281111561106d57825182546001600160a01b0319166001600160a01b03909116178255602090920191600190910190611038565b5061107992915061107d565b5090565b6110a191905b808211156110795780546001600160a01b0319168155600101611083565b90565b6000602082840312156110b5578081fd5b81356110c0816113fe565b9392505050565b6000602082840312156110d8578081fd5b81516110c0816113fe565b600080604083850312156110f5578081fd5b8235611100816113fe565b91506020830135611110816113fe565b809150509250929050565b60008060008060808587031215611130578182fd5b843561113b816113fe565b9350602085013561114b816113fe565b9250604085013561115b816113fe565b9150606085013561116b816113fe565b939692955090935050565b600080600080600080600080610100898b031215611192578384fd5b883561119d816113fe565b975060208901356111ad816113fe565b965060408901356111bd816113fe565b955060608901356111cd816113fe565b94506080890135935060a0890135925060c0890135915060e089013580151581146111f6578182fd5b809150509295985092959890939650565b60008060006060848603121561121b578283fd5b8335611226816113fe565b92506020840135611236816113fe565b929592945050506040919091013590565b60008060408385031215611259578182fd5b8235611264816113fe565b946020939093013593505050565b6000815180845260208085019450808401835b838110156112aa5781516001600160a01b031687529582019590820190600101611285565b509495945050505050565b6001600160a01b0391909116815260200190565b6001600160a01b03948516815292841660208401529083166040830152909116606082015260800190565b6001600160a01b03998a168152978916602089015295881660408801529387166060870152608086019290925290941660a084015260c083019390935260e08201929092529015156101008201526101200190565b6000602082526110c06020830184611272565b60006040825261136f6040830185611272565b82810360208401526113818185611272565b95945050505050565b6020808252600d908201526c494e56414c49445f434c41494d60981b604082015260600190565b60208082526010908201526f1113d113d7d25392551250531256915160821b604082015260600190565b6020808252600990820152682727aa2fa7aba722a960b91b604082015260600190565b6001600160a01b038116811461141357600080fd5b5056fea264697066735822122085de877504cfc0fac24001a79ff028010f487cd60971d7019a7730bd0a0305c464736f6c63430006090033",
  "immutableReferences": {
    "9131": [
      {
        "length": 32,
        "start": 715
      },
      {
        "length": 32,
        "start": 3641
      },
      {
        "length": 32,
        "start": 3873
      }
    ],
    "9133": [
      {
        "length": 32,
        "start": 1064
      },
      {
        "length": 32,
        "start": 3338
      }
    ],
    "9135": [
      {
        "length": 32,
        "start": 1104
      },
      {
        "length": 32,
        "start": 2978
      }
    ],
    "9137": [
      {
        "length": 32,
        "start": 987
      },
      {
        "length": 32,
        "start": 3677
      }
    ]
  },
  "source": "/*\n\n    Copyright 2020 DODO ZOO.\n    SPDX-License-Identifier: Apache-2.0\n\n*/\n\npragma solidity 0.6.9;\npragma experimental ABIEncoderV2;\n\nimport {InitializableOwnable} from \"../lib/InitializableOwnable.sol\";\nimport {ICloneFactory} from \"../lib/CloneFactory.sol\";\nimport {IFeeRateModel} from \"../lib/FeeRateModel.sol\";\nimport {IDPP} from \"../DODOPrivatePool/intf/IDPP.sol\";\nimport {IDPPAdmin} from \"../DODOPrivatePool/intf/IDPPAdmin.sol\";\n\n/**\n * @title DODO PrivatePool Factory\n * @author DODO Breeder\n *\n * @notice Create And Register DPP Pools \n */\ncontract DPPFactory is InitializableOwnable {\n    // ============ Templates ============\n\n    address public immutable _CLONE_FACTORY_;\n    address public immutable _DEFAULT_MAINTAINER_;\n    address public immutable _DEFAULT_MT_FEE_RATE_MODEL_;\n    address public immutable _DODO_APPROVE_PROXY_;\n    address public _DPP_TEMPLATE_;\n    address public _DPP_ADMIN_TEMPLATE_;\n\n    // ============ Registry ============\n\n    // base -> quote -> DPP address list\n    mapping(address => mapping(address => address[])) public _REGISTRY_;\n    // creator -> DPP address list\n    mapping(address => address[]) public _USER_REGISTRY_;\n\n    // ============ Events ============\n\n    event NewDPP(\n        address baseToken,\n        address quoteToken,\n        address creator,\n        address dpp\n    );\n\n\n    event RemoveDPP(address dpp);\n\n    constructor(\n        address cloneFactory,\n        address dppTemplate,\n        address dppAdminTemplate,\n        address defaultMaintainer,\n        address defaultMtFeeRateModel,\n        address dodoApproveProxy\n    ) public {\n        _CLONE_FACTORY_ = cloneFactory;\n        _DPP_TEMPLATE_ = dppTemplate;\n        _DPP_ADMIN_TEMPLATE_ = dppAdminTemplate;\n        _DEFAULT_MAINTAINER_ = defaultMaintainer;\n        _DEFAULT_MT_FEE_RATE_MODEL_ = defaultMtFeeRateModel;\n        _DODO_APPROVE_PROXY_ = dodoApproveProxy;\n    }\n\n    // ============ Functions ============\n\n    function createDODOPrivatePool() external returns (address newPrivatePool) {\n        newPrivatePool = ICloneFactory(_CLONE_FACTORY_).clone(_DPP_TEMPLATE_);\n    }\n\n    function initDODOPrivatePool(\n        address dppAddress,\n        address creator,\n        address baseToken,\n        address quoteToken,\n        uint256 lpFeeRate,\n        uint256 k,\n        uint256 i,\n        bool isOpenTwap\n    ) external {\n        {\n            address _dppAddress = dppAddress;\n            address adminModel = _createDPPAdminModel(\n                creator,\n                _dppAddress,\n                creator,\n                _DODO_APPROVE_PROXY_\n            );\n            IDPP(_dppAddress).init(\n                adminModel,\n                _DEFAULT_MAINTAINER_,\n                baseToken,\n                quoteToken,\n                lpFeeRate,\n                _DEFAULT_MT_FEE_RATE_MODEL_,\n                k,\n                i,\n                isOpenTwap\n            );\n        }\n\n        _REGISTRY_[baseToken][quoteToken].push(dppAddress);\n        _USER_REGISTRY_[creator].push(dppAddress);\n        emit NewDPP(baseToken, quoteToken, creator, dppAddress);\n    }\n\n    function _createDPPAdminModel(\n        address owner,\n        address dpp,\n        address operator,\n        address dodoApproveProxy\n    ) internal returns (address adminModel) {\n        adminModel = ICloneFactory(_CLONE_FACTORY_).clone(_DPP_ADMIN_TEMPLATE_);\n        IDPPAdmin(adminModel).init(owner, dpp, operator, dodoApproveProxy);\n    }\n\n    // ============ Admin Operation Functions ============\n    \n    function updateAdminTemplate(address _newDPPAdminTemplate) external onlyOwner {\n        _DPP_ADMIN_TEMPLATE_ = _newDPPAdminTemplate;\n    }\n\n    function updateDppTemplate(address _newDPPTemplate) external onlyOwner {\n        _DPP_TEMPLATE_ = _newDPPTemplate;\n    }\n\n    function addPoolByAdmin(\n        address creator,\n        address baseToken, \n        address quoteToken,\n        address pool\n    ) external onlyOwner {\n        _REGISTRY_[baseToken][quoteToken].push(pool);\n        _USER_REGISTRY_[creator].push(pool);\n        emit NewDPP(baseToken, quoteToken, creator, pool);\n    }\n\n    function removePoolByAdmin(\n        address creator,\n        address baseToken, \n        address quoteToken,\n        address pool\n    ) external onlyOwner {\n        address[] memory registryList = _REGISTRY_[baseToken][quoteToken];\n        for (uint256 i = 0; i < registryList.length; i++) {\n            if (registryList[i] == pool) {\n                registryList[i] = registryList[registryList.length - 1];\n                break;\n            }\n        }\n        _REGISTRY_[baseToken][quoteToken] = registryList;\n        _REGISTRY_[baseToken][quoteToken].pop();\n        address[] memory userRegistryList = _USER_REGISTRY_[creator];\n        for (uint256 i = 0; i < userRegistryList.length; i++) {\n            if (userRegistryList[i] == pool) {\n                userRegistryList[i] = userRegistryList[userRegistryList.length - 1];\n                break;\n            }\n        }\n        _USER_REGISTRY_[creator] = userRegistryList;\n        _USER_REGISTRY_[creator].pop();\n        emit RemoveDPP(pool);\n    }\n\n    // ============ View Functions ============\n\n    function getDODOPool(address baseToken, address quoteToken)\n        external\n        view\n        returns (address[] memory pools)\n    {\n        return _REGISTRY_[baseToken][quoteToken];\n    }\n\n    function getDODOPoolBidirection(address token0, address token1)\n        external\n        view\n        returns (address[] memory baseToken0Pool, address[] memory baseToken1Pool)\n    {\n        return (_REGISTRY_[token0][token1], _REGISTRY_[token1][token0]);\n    }\n\n    function getDODOPoolByUser(address user) \n        external\n        view\n        returns (address[] memory pools)\n    {\n        return _USER_REGISTRY_[user];\n    }\n}\n",
  "sourcePath": "/Users/niutaotao/projects/dodo/contractV2/contracts/Factory/DPPFactory.sol",
  "compiler": {
    "name": "solc",
    "version": "0.6.9+commit.3e3065ac.Emscripten.clang"
  },
  "schemaVersion": "3.3.2",
  "updatedAt": "2021-01-29T02:32:05.725Z",
  "devdoc": {
    "author": "DODO Breeder",
    "methods": {},
    "title": "DODO PrivatePool Factory"
  },
  "userdoc": {
    "methods": {},
    "notice": "Create And Register DPP Pools "
  }
}