{
  "contractName": "DSP",
  "abi": [
    {
      "anonymous": false,
      "inputs": [
        {
          "indexed": true,
          "internalType": "address",
          "name": "owner",
          "type": "address"
        },
        {
          "indexed": true,
          "internalType": "address",
          "name": "spender",
          "type": "address"
        },
        {
          "indexed": false,
          "internalType": "uint256",
          "name": "amount",
          "type": "uint256"
        }
      ],
      "name": "Approval",
      "type": "event"
    },
    {
      "anonymous": false,
      "inputs": [
        {
          "indexed": true,
          "internalType": "address",
          "name": "user",
          "type": "address"
        },
        {
          "indexed": false,
          "internalType": "uint256",
          "name": "value",
          "type": "uint256"
        }
      ],
      "name": "Burn",
      "type": "event"
    },
    {
      "anonymous": false,
      "inputs": [
        {
          "indexed": false,
          "internalType": "address",
          "name": "to",
          "type": "address"
        },
        {
          "indexed": false,
          "internalType": "uint256",
          "name": "increaseShares",
          "type": "uint256"
        },
        {
          "indexed": false,
          "internalType": "uint256",
          "name": "totalShares",
          "type": "uint256"
        }
      ],
      "name": "BuyShares",
      "type": "event"
    },
    {
      "anonymous": false,
      "inputs": [
        {
          "indexed": false,
          "internalType": "address",
          "name": "borrower",
          "type": "address"
        },
        {
          "indexed": false,
          "internalType": "address",
          "name": "assetTo",
          "type": "address"
        },
        {
          "indexed": false,
          "internalType": "uint256",
          "name": "baseAmount",
          "type": "uint256"
        },
        {
          "indexed": false,
          "internalType": "uint256",
          "name": "quoteAmount",
          "type": "uint256"
        }
      ],
      "name": "DODOFlashLoan",
      "type": "event"
    },
    {
      "anonymous": false,
      "inputs": [
        {
          "indexed": false,
          "internalType": "address",
          "name": "fromToken",
          "type": "address"
        },
        {
          "indexed": false,
          "internalType": "address",
          "name": "toToken",
          "type": "address"
        },
        {
          "indexed": false,
          "internalType": "uint256",
          "name": "fromAmount",
          "type": "uint256"
        },
        {
          "indexed": false,
          "internalType": "uint256",
          "name": "toAmount",
          "type": "uint256"
        },
        {
          "indexed": false,
          "internalType": "address",
          "name": "trader",
          "type": "address"
        },
        {
          "indexed": false,
          "internalType": "address",
          "name": "receiver",
          "type": "address"
        }
      ],
      "name": "DODOSwap",
      "type": "event"
    },
    {
      "anonymous": false,
      "inputs": [
        {
          "indexed": true,
          "internalType": "address",
          "name": "user",
          "type": "address"
        },
        {
          "indexed": false,
          "internalType": "uint256",
          "name": "value",
          "type": "uint256"
        }
      ],
      "name": "Mint",
      "type": "event"
    },
    {
      "anonymous": false,
      "inputs": [
        {
          "indexed": false,
          "internalType": "enum PMMPricing.RState",
          "name": "newRState",
          "type": "uint8"
        }
      ],
      "name": "RChange",
      "type": "event"
    },
    {
      "anonymous": false,
      "inputs": [
        {
          "indexed": false,
          "internalType": "address",
          "name": "payer",
          "type": "address"
        },
        {
          "indexed": false,
          "internalType": "address",
          "name": "to",
          "type": "address"
        },
        {
          "indexed": false,
          "internalType": "uint256",
          "name": "decreaseShares",
          "type": "uint256"
        },
        {
          "indexed": false,
          "internalType": "uint256",
          "name": "totalShares",
          "type": "uint256"
        }
      ],
      "name": "SellShares",
      "type": "event"
    },
    {
      "anonymous": false,
      "inputs": [
        {
          "indexed": true,
          "internalType": "address",
          "name": "from",
          "type": "address"
        },
        {
          "indexed": true,
          "internalType": "address",
          "name": "to",
          "type": "address"
        },
        {
          "indexed": false,
          "internalType": "uint256",
          "name": "amount",
          "type": "uint256"
        }
      ],
      "name": "Transfer",
      "type": "event"
    },
    {
      "inputs": [],
      "name": "DOMAIN_SEPARATOR",
      "outputs": [
        {
          "internalType": "bytes32",
          "name": "",
          "type": "bytes32"
        }
      ],
      "stateMutability": "view",
      "type": "function"
    },
    {
      "inputs": [],
      "name": "PERMIT_TYPEHASH",
      "outputs": [
        {
          "internalType": "bytes32",
          "name": "",
          "type": "bytes32"
        }
      ],
      "stateMutability": "view",
      "type": "function"
    },
    {
      "inputs": [],
      "name": "_BASE_PRICE_CUMULATIVE_LAST_",
      "outputs": [
        {
          "internalType": "uint256",
          "name": "",
          "type": "uint256"
        }
      ],
      "stateMutability": "view",
      "type": "function"
    },
    {
      "inputs": [],
      "name": "_BASE_RESERVE_",
      "outputs": [
        {
          "internalType": "uint112",
          "name": "",
          "type": "uint112"
        }
      ],
      "stateMutability": "view",
      "type": "function"
    },
    {
      "inputs": [],
      "name": "_BASE_TARGET_",
      "outputs": [
        {
          "internalType": "uint112",
          "name": "",
          "type": "uint112"
        }
      ],
      "stateMutability": "view",
      "type": "function"
    },
    {
      "inputs": [],
      "name": "_BASE_TOKEN_",
      "outputs": [
        {
          "internalType": "contract IERC20",
          "name": "",
          "type": "address"
        }
      ],
      "stateMutability": "view",
      "type": "function"
    },
    {
      "inputs": [],
      "name": "_BLOCK_TIMESTAMP_LAST_",
      "outputs": [
        {
          "internalType": "uint32",
          "name": "",
          "type": "uint32"
        }
      ],
      "stateMutability": "view",
      "type": "function"
    },
    {
      "inputs": [],
      "name": "_IS_OPEN_TWAP_",
      "outputs": [
        {
          "internalType": "bool",
          "name": "",
          "type": "bool"
        }
      ],
      "stateMutability": "view",
      "type": "function"
    },
    {
      "inputs": [],
      "name": "_I_",
      "outputs": [
        {
          "internalType": "uint256",
          "name": "",
          "type": "uint256"
        }
      ],
      "stateMutability": "view",
      "type": "function"
    },
    {
      "inputs": [],
      "name": "_K_",
      "outputs": [
        {
          "internalType": "uint256",
          "name": "",
          "type": "uint256"
        }
      ],
      "stateMutability": "view",
      "type": "function"
    },
    {
      "inputs": [],
      "name": "_LP_FEE_RATE_",
      "outputs": [
        {
          "internalType": "uint256",
          "name": "",
          "type": "uint256"
        }
      ],
      "stateMutability": "view",
      "type": "function"
    },
    {
      "inputs": [],
      "name": "_MAINTAINER_",
      "outputs": [
        {
          "internalType": "address",
          "name": "",
          "type": "address"
        }
      ],
      "stateMutability": "view",
      "type": "function"
    },
    {
      "inputs": [],
      "name": "_MT_FEE_RATE_MODEL_",
      "outputs": [
        {
          "internalType": "contract IFeeRateModel",
          "name": "",
          "type": "address"
        }
      ],
      "stateMutability": "view",
      "type": "function"
    },
    {
      "inputs": [],
      "name": "_QUOTE_RESERVE_",
      "outputs": [
        {
          "internalType": "uint112",
          "name": "",
          "type": "uint112"
        }
      ],
      "stateMutability": "view",
      "type": "function"
    },
    {
      "inputs": [],
      "name": "_QUOTE_TARGET_",
      "outputs": [
        {
          "internalType": "uint112",
          "name": "",
          "type": "uint112"
        }
      ],
      "stateMutability": "view",
      "type": "function"
    },
    {
      "inputs": [],
      "name": "_QUOTE_TOKEN_",
      "outputs": [
        {
          "internalType": "contract IERC20",
          "name": "",
          "type": "address"
        }
      ],
      "stateMutability": "view",
      "type": "function"
    },
    {
      "inputs": [],
      "name": "_RState_",
      "outputs": [
        {
          "internalType": "uint32",
          "name": "",
          "type": "uint32"
        }
      ],
      "stateMutability": "view",
      "type": "function"
    },
    {
      "inputs": [
        {
          "internalType": "address",
          "name": "owner",
          "type": "address"
        },
        {
          "internalType": "address",
          "name": "spender",
          "type": "address"
        }
      ],
      "name": "allowance",
      "outputs": [
        {
          "internalType": "uint256",
          "name": "",
          "type": "uint256"
        }
      ],
      "stateMutability": "view",
      "type": "function"
    },
    {
      "inputs": [
        {
          "internalType": "address",
          "name": "spender",
          "type": "address"
        },
        {
          "internalType": "uint256",
          "name": "amount",
          "type": "uint256"
        }
      ],
      "name": "approve",
      "outputs": [
        {
          "internalType": "bool",
          "name": "",
          "type": "bool"
        }
      ],
      "stateMutability": "nonpayable",
      "type": "function"
    },
    {
      "inputs": [
        {
          "internalType": "address",
          "name": "owner",
          "type": "address"
        }
      ],
      "name": "balanceOf",
      "outputs": [
        {
          "internalType": "uint256",
          "name": "balance",
          "type": "uint256"
        }
      ],
      "stateMutability": "view",
      "type": "function"
    },
    {
      "inputs": [
        {
          "internalType": "address",
          "name": "to",
          "type": "address"
        }
      ],
      "name": "buyShares",
      "outputs": [
        {
          "internalType": "uint256",
          "name": "shares",
          "type": "uint256"
        },
        {
          "internalType": "uint256",
          "name": "baseInput",
          "type": "uint256"
        },
        {
          "internalType": "uint256",
          "name": "quoteInput",
          "type": "uint256"
        }
      ],
      "stateMutability": "nonpayable",
      "type": "function"
    },
    {
      "inputs": [],
      "name": "decimals",
      "outputs": [
        {
          "internalType": "uint8",
          "name": "",
          "type": "uint8"
        }
      ],
      "stateMutability": "view",
      "type": "function"
    },
    {
      "inputs": [
        {
          "internalType": "uint256",
          "name": "baseAmount",
          "type": "uint256"
        },
        {
          "internalType": "uint256",
          "name": "quoteAmount",
          "type": "uint256"
        },
        {
          "internalType": "address",
          "name": "assetTo",
          "type": "address"
        },
        {
          "internalType": "bytes",
          "name": "data",
          "type": "bytes"
        }
      ],
      "name": "flashLoan",
      "outputs": [],
      "stateMutability": "nonpayable",
      "type": "function"
    },
    {
      "inputs": [],
      "name": "getBaseInput",
      "outputs": [
        {
          "internalType": "uint256",
          "name": "input",
          "type": "uint256"
        }
      ],
      "stateMutability": "view",
      "type": "function"
    },
    {
      "inputs": [],
      "name": "getMidPrice",
      "outputs": [
        {
          "internalType": "uint256",
          "name": "midPrice",
          "type": "uint256"
        }
      ],
      "stateMutability": "view",
      "type": "function"
    },
    {
      "inputs": [],
      "name": "getPMMState",
      "outputs": [
        {
          "components": [
            {
              "internalType": "uint256",
              "name": "i",
              "type": "uint256"
            },
            {
              "internalType": "uint256",
              "name": "K",
              "type": "uint256"
            },
            {
              "internalType": "uint256",
              "name": "B",
              "type": "uint256"
            },
            {
              "internalType": "uint256",
              "name": "Q",
              "type": "uint256"
            },
            {
              "internalType": "uint256",
              "name": "B0",
              "type": "uint256"
            },
            {
              "internalType": "uint256",
              "name": "Q0",
              "type": "uint256"
            },
            {
              "internalType": "enum PMMPricing.RState",
              "name": "R",
              "type": "uint8"
            }
          ],
          "internalType": "struct PMMPricing.PMMState",
          "name": "state",
          "type": "tuple"
        }
      ],
      "stateMutability": "view",
      "type": "function"
    },
    {
      "inputs": [],
      "name": "getPMMStateForCall",
      "outputs": [
        {
          "internalType": "uint256",
          "name": "i",
          "type": "uint256"
        },
        {
          "internalType": "uint256",
          "name": "K",
          "type": "uint256"
        },
        {
          "internalType": "uint256",
          "name": "B",
          "type": "uint256"
        },
        {
          "internalType": "uint256",
          "name": "Q",
          "type": "uint256"
        },
        {
          "internalType": "uint256",
          "name": "B0",
          "type": "uint256"
        },
        {
          "internalType": "uint256",
          "name": "Q0",
          "type": "uint256"
        },
        {
          "internalType": "uint256",
          "name": "R",
          "type": "uint256"
        }
      ],
      "stateMutability": "view",
      "type": "function"
    },
    {
      "inputs": [],
      "name": "getQuoteInput",
      "outputs": [
        {
          "internalType": "uint256",
          "name": "input",
          "type": "uint256"
        }
      ],
      "stateMutability": "view",
      "type": "function"
    },
    {
      "inputs": [
        {
          "internalType": "address",
          "name": "user",
          "type": "address"
        }
      ],
      "name": "getUserFeeRate",
      "outputs": [
        {
          "internalType": "uint256",
          "name": "lpFeeRate",
          "type": "uint256"
        },
        {
          "internalType": "uint256",
          "name": "mtFeeRate",
          "type": "uint256"
        }
      ],
      "stateMutability": "view",
      "type": "function"
    },
    {
      "inputs": [],
      "name": "getVaultReserve",
      "outputs": [
        {
          "internalType": "uint256",
          "name": "baseReserve",
          "type": "uint256"
        },
        {
          "internalType": "uint256",
          "name": "quoteReserve",
          "type": "uint256"
        }
      ],
      "stateMutability": "view",
      "type": "function"
    },
    {
      "inputs": [],
      "name": "name",
      "outputs": [
        {
          "internalType": "string",
          "name": "",
          "type": "string"
        }
      ],
      "stateMutability": "view",
      "type": "function"
    },
    {
      "inputs": [
        {
          "internalType": "address",
          "name": "",
          "type": "address"
        }
      ],
      "name": "nonces",
      "outputs": [
        {
          "internalType": "uint256",
          "name": "",
          "type": "uint256"
        }
      ],
      "stateMutability": "view",
      "type": "function"
    },
    {
      "inputs": [
        {
          "internalType": "address",
          "name": "owner",
          "type": "address"
        },
        {
          "internalType": "address",
          "name": "spender",
          "type": "address"
        },
        {
          "internalType": "uint256",
          "name": "value",
          "type": "uint256"
        },
        {
          "internalType": "uint256",
          "name": "deadline",
          "type": "uint256"
        },
        {
          "internalType": "uint8",
          "name": "v",
          "type": "uint8"
        },
        {
          "internalType": "bytes32",
          "name": "r",
          "type": "bytes32"
        },
        {
          "internalType": "bytes32",
          "name": "s",
          "type": "bytes32"
        }
      ],
      "name": "permit",
      "outputs": [],
      "stateMutability": "nonpayable",
      "type": "function"
    },
    {
      "inputs": [
        {
          "internalType": "address",
          "name": "trader",
          "type": "address"
        },
        {
          "internalType": "uint256",
          "name": "payBaseAmount",
          "type": "uint256"
        }
      ],
      "name": "querySellBase",
      "outputs": [
        {
          "internalType": "uint256",
          "name": "receiveQuoteAmount",
          "type": "uint256"
        },
        {
          "internalType": "uint256",
          "name": "mtFee",
          "type": "uint256"
        },
        {
          "internalType": "enum PMMPricing.RState",
          "name": "newRState",
          "type": "uint8"
        },
        {
          "internalType": "uint256",
          "name": "newBaseTarget",
          "type": "uint256"
        }
      ],
      "stateMutability": "view",
      "type": "function"
    },
    {
      "inputs": [
        {
          "internalType": "address",
          "name": "trader",
          "type": "address"
        },
        {
          "internalType": "uint256",
          "name": "payQuoteAmount",
          "type": "uint256"
        }
      ],
      "name": "querySellQuote",
      "outputs": [
        {
          "internalType": "uint256",
          "name": "receiveBaseAmount",
          "type": "uint256"
        },
        {
          "internalType": "uint256",
          "name": "mtFee",
          "type": "uint256"
        },
        {
          "internalType": "enum PMMPricing.RState",
          "name": "newRState",
          "type": "uint8"
        },
        {
          "internalType": "uint256",
          "name": "newQuoteTarget",
          "type": "uint256"
        }
      ],
      "stateMutability": "view",
      "type": "function"
    },
    {
      "inputs": [
        {
          "internalType": "address",
          "name": "to",
          "type": "address"
        }
      ],
      "name": "sellBase",
      "outputs": [
        {
          "internalType": "uint256",
          "name": "receiveQuoteAmount",
          "type": "uint256"
        }
      ],
      "stateMutability": "nonpayable",
      "type": "function"
    },
    {
      "inputs": [
        {
          "internalType": "address",
          "name": "to",
          "type": "address"
        }
      ],
      "name": "sellQuote",
      "outputs": [
        {
          "internalType": "uint256",
          "name": "receiveBaseAmount",
          "type": "uint256"
        }
      ],
      "stateMutability": "nonpayable",
      "type": "function"
    },
    {
      "inputs": [
        {
          "internalType": "uint256",
          "name": "shareAmount",
          "type": "uint256"
        },
        {
          "internalType": "address",
          "name": "to",
          "type": "address"
        },
        {
          "internalType": "uint256",
          "name": "baseMinAmount",
          "type": "uint256"
        },
        {
          "internalType": "uint256",
          "name": "quoteMinAmount",
          "type": "uint256"
        },
        {
          "internalType": "bytes",
          "name": "data",
          "type": "bytes"
        },
        {
          "internalType": "uint256",
          "name": "deadline",
          "type": "uint256"
        }
      ],
      "name": "sellShares",
      "outputs": [
        {
          "internalType": "uint256",
          "name": "baseAmount",
          "type": "uint256"
        },
        {
          "internalType": "uint256",
          "name": "quoteAmount",
          "type": "uint256"
        }
      ],
      "stateMutability": "nonpayable",
      "type": "function"
    },
    {
      "inputs": [],
      "name": "symbol",
      "outputs": [
        {
          "internalType": "string",
          "name": "",
          "type": "string"
        }
      ],
      "stateMutability": "view",
      "type": "function"
    },
    {
      "inputs": [],
      "name": "sync",
      "outputs": [],
      "stateMutability": "nonpayable",
      "type": "function"
    },
    {
      "inputs": [],
      "name": "totalSupply",
      "outputs": [
        {
          "internalType": "uint256",
          "name": "",
          "type": "uint256"
        }
      ],
      "stateMutability": "view",
      "type": "function"
    },
    {
      "inputs": [
        {
          "internalType": "address",
          "name": "to",
          "type": "address"
        },
        {
          "internalType": "uint256",
          "name": "amount",
          "type": "uint256"
        }
      ],
      "name": "transfer",
      "outputs": [
        {
          "internalType": "bool",
          "name": "",
          "type": "bool"
        }
      ],
      "stateMutability": "nonpayable",
      "type": "function"
    },
    {
      "inputs": [
        {
          "internalType": "address",
          "name": "from",
          "type": "address"
        },
        {
          "internalType": "address",
          "name": "to",
          "type": "address"
        },
        {
          "internalType": "uint256",
          "name": "amount",
          "type": "uint256"
        }
      ],
      "name": "transferFrom",
      "outputs": [
        {
          "internalType": "bool",
          "name": "",
          "type": "bool"
        }
      ],
      "stateMutability": "nonpayable",
      "type": "function"
    },
    {
      "inputs": [
        {
          "internalType": "address",
          "name": "maintainer",
          "type": "address"
        },
        {
          "internalType": "address",
          "name": "baseTokenAddress",
          "type": "address"
        },
        {
          "internalType": "address",
          "name": "quoteTokenAddress",
          "type": "address"
        },
        {
          "internalType": "uint256",
          "name": "lpFeeRate",
          "type": "uint256"
        },
        {
          "internalType": "address",
          "name": "mtFeeRateModel",
          "type": "address"
        },
        {
          "internalType": "uint256",
          "name": "i",
          "type": "uint256"
        },
        {
          "internalType": "uint256",
          "name": "k",
          "type": "uint256"
        },
        {
          "internalType": "bool",
          "name": "isOpenTWAP",
          "type": "bool"
        }
      ],
      "name": "init",
      "outputs": [],
      "stateMutability": "nonpayable",
      "type": "function"
    },
    {
      "inputs": [
        {
          "internalType": "address",
          "name": "_addr",
          "type": "address"
        }
      ],
      "name": "addressToShortString",
      "outputs": [
        {
          "internalType": "string",
          "name": "",
          "type": "string"
        }
      ],
      "stateMutability": "pure",
      "type": "function"
    },
    {
      "inputs": [],
      "name": "version",
      "outputs": [
        {
          "internalType": "string",
          "name": "",
          "type": "string"
        }
      ],
      "stateMutability": "pure",
      "type": "function"
    }
  ],
  "bytecode": "0x60806040526000805462ff00001916905534801561001c57600080fd5b5061459d8061002c6000396000f3fe608060405234801561001057600080fd5b506004361061028a5760003560e01c80637ecebe001161015c578063d4b97046116100ce578063ee27c68911610087578063ee27c6891461052a578063f6b06e7014610532578063f811d6921461053a578063fd1ed7e914610542578063fe24cb7f1461055d578063fff6cae9146105655761028a565b8063d4b97046146104d9578063d505accf146104e1578063dd62ed3e146104f4578063dd93f59a14610507578063e539ef491461051a578063ec2fd46d146105225761028a565b8063ab44a7a311610120578063ab44a7a314610488578063b56ceaa614610490578063bbf5ce78146104a3578063bd6015b4146104ab578063bf357dae146104be578063d0a494e4146104c65761028a565b80637ecebe0014610430578063880a4d871461044357806395d89b4114610458578063a382d1b914610460578063a9059cbb146104755761028a565b8063440966091161020057806366410a21116101b957806366410a21146103c257806370a08231146103e557806371f9100c146103f857806377f586571461040057806379a04876146104155780637d721504146104285761028a565b806344096609146103605780634a248d2a146103735780634c85b4251461037b5780635039972a1461039d57806354fd4d50146103b257806365f6fcbb146103ba5761028a565b80632df6cb48116102525780632df6cb481461030857806330adf81f14610310578063313ce5671461031857806336223ce91461032d5780633644e515146103435780634322ec831461034b5761028a565b806306fdde031461028f578063095ea7b3146102ad57806317101940146102cd57806318160ddd146102e057806323b872dd146102f5575b600080fd5b61029761056d565b6040516102a49190613fcb565b60405180910390f35b6102c06102bb366004613b89565b6105fb565b6040516102a49190613f24565b6102976102db366004613a03565b610612565b6102e861073c565b6040516102a49190613f2f565b6102c0610303366004613adb565b610742565b6102c06108c6565b6102e86108d5565b6103206108f9565b6040516102a49190614490565b610335610902565b6040516102a4929190614401565b6102e861091d565b610353610923565b6040516102a49190613dfa565b61033561036e366004613a03565b610939565b6103536109c4565b61038e610389366004613a03565b6109d3565b6040516102a493929190614439565b6103b06103ab366004613a52565b610d68565b005b6102976110a5565b6102e86110c9565b6103d56103d0366004613b89565b611170565b6040516102a4949392919061440f565b6102e86103f3366004613a03565b61125e565b6102e8611279565b6104086112c5565b6040516102a491906143ed565b6103d5610423366004613b89565b6112db565b6104086113bc565b6102e861043e366004613a03565b6113cb565b61044b6113dd565b6040516102a4919061447f565b6102976113f0565b61046861144b565b6040516102a49190614397565b6102c0610483366004613b89565b6114d8565b6102e86115a7565b61033561049e366004613be7565b6115ad565b6104086119ab565b6102e86104b9366004613a03565b6119c1565b61044b611c72565b6103b06104d4366004613c61565b611c85565b610353612272565b6103b06104ef366004613b1b565b612281565b6102e8610502366004613a1e565b6123f0565b6102e8610515366004613a03565b61241b565b6104086126b6565b6102e86126c5565b6102e86126cb565b6103536126dd565b6102e86126ec565b61054a6126f2565b6040516102a4979695949392919061444f565b6102e8612755565b6103b061275b565b6008805460408051602060026001851615610100026000190190941693909304601f810184900484028201840190925281815292918301828280156105f35780601f106105c8576101008083540402835291602001916105f3565b820191906000526020600020905b8154815290600101906020018083116105d657829003601f168201915b505050505081565b600061060833848461279f565b5060015b92915050565b604080518082018252601081526f181899199a1a9b1b9c1cb0b131b232b360811b6020820152815160088082528184019093526060926001600160a01b0385169291849160208201818036833701905050905060005b6004811015610731578260048583600c016020811061068357fe5b1a60f81b6001600160f81b031916901c60f81c60ff16815181106106a357fe5b602001015160f81c60f81b8282600202815181106106bd57fe5b60200101906001600160f81b031916908160001a905350828482600c01602081106106e457fe5b825191901a600f169081106106f557fe5b602001015160f81c60f81b82826002026001018151811061071257fe5b60200101906001600160f81b031916908160001a905350600101610668565b50925050505b919050565b60095481565b6001600160a01b0383166000908152600a60205260408120548211156107835760405162461bcd60e51b815260040161077a90614265565b60405180910390fd5b6001600160a01b0384166000908152600b602090815260408083203384529091529020548211156107c65760405162461bcd60e51b815260040161077a90614082565b6001600160a01b0384166000908152600a60205260409020546107ef908363ffffffff61280716565b6001600160a01b038086166000908152600a60205260408082209390935590851681522054610824908363ffffffff61282f16565b6001600160a01b038085166000908152600a60209081526040808320949094559187168152600b82528281203382529091522054610868908363ffffffff61280716565b6001600160a01b038086166000818152600b60209081526040808320338452909152908190209390935591519085169190600080516020614508833981519152906108b4908690613f2f565b60405180910390a35060019392505050565b60005462010000900460ff1681565b7f6e71edae12b1b97f4d1f60370fef10105fa2faae0126114a169c64845d6126c981565b60075460ff1681565b6003546001600160701b0380821692600160701b9092041690565b600c5481565b600054630100000090046001600160a01b031681565b600f54600e54604051638198edbf60e01b81526000916001600160a01b031690638198edbf9061096d908690600401613dfa565b60206040518083038186803b15801561098557600080fd5b505afa158015610999573d6000803e3d6000fd5b505050506040513d601f19601f820116820180604052508101906109bd9190613bcf565b9050915091565b6001546001600160a01b031681565b600080548190819060ff16156109fb5760405162461bcd60e51b815260040161077a9061410f565b6000805460ff191660019081178255546040516370a0823160e01b81526001600160a01b03909116906370a0823190610a38903090600401613dfa565b60206040518083038186803b158015610a5057600080fd5b505afa158015610a64573d6000803e3d6000fd5b505050506040513d601f19601f82011682018060405250810190610a889190613bcf565b6002546040516370a0823160e01b81529192506000916001600160a01b03909116906370a0823190610abe903090600401613dfa565b60206040518083038186803b158015610ad657600080fd5b505afa158015610aea573d6000803e3d6000fd5b505050506040513d601f19601f82011682018060405250810190610b0e9190613bcf565b6003549091506001600160701b0380821691600160701b900416610b38848363ffffffff61280716565b9550610b4a838263ffffffff61280716565b945060008611610b6c5760405162461bcd60e51b815260040161077a9061419e565b600954610bee57610b7f8460115461285b565b8310610b8b5783610b97565b610b9783601154612885565b600580546001600160701b0319166001600160701b038316179055601154909750610bc390889061285b565b6005600e6101000a8154816001600160701b0302191690836001600160701b03160217905550610cea565b600082118015610bfe5750600081115b15610cea576000610c0f8784612885565b90506000610c1d8784612885565b90506000828210610c2e5782610c30565b815b9050610c3e6009548261285b565b600554909a50610c7390610c5b906001600160701b03168361285b565b6005546001600160701b03169063ffffffff61282f16565b600580546001600160701b0319166001600160701b039283161790819055610cc091610ca791600160701b9004168361285b565b600554600160701b90046001600160701b03169061282f565b6005600e6101000a8154816001600160701b0302191690836001600160701b031602179055505050505b610cf488886128a3565b610cfe848461299d565b6001600160a01b0388166000908152600a6020526040908190205490517f1c172440bdebb59cd92a7f08f4227903a3305ab6f880cb25f93eddb66843a10291610d4a918b918b91613f03565b60405180910390a150506000805460ff191690555092949193509150565b600054610100900460ff1615610d905760405162461bcd60e51b815260040161077a90613ffe565b6000805461ff0019166101001790556001600160a01b038781169087161415610dcb5760405162461bcd60e51b815260040161077a90614132565b600180546001600160a01b03808a166001600160a01b03199283161790925560028054928916929091169190911790558215801590610e1957506ec097ce7bc90715b34b9f10000000008311155b610e2257600080fd5b6011839055670de0b6b3a7640000821115610e3c57600080fd5b6010829055600f859055600e80546001600160a01b038087166001600160a01b0319909216919091179091556000805483158015620100000262ff000019948d166301000000026301000000600160b81b03199093169290921793909316179055610ebf57600380546001600160e01b03164263ffffffff16600160e01b021790555b60408051808201825260018152605f60f81b602080830191909152825180840190935260038352620444c560ec1b90830152908082610efd30610612565b604051602001610f0f93929190613d9a565b60405160208183030381529060405260089080519060200190610f339291906138cd565b50604080518082019091526003808252620444c560ec1b6020909201918252610f5e916006916138cd565b50600160009054906101000a90046001600160a01b03166001600160a01b031663313ce5676040518163ffffffff1660e01b815260040160206040518083038186803b158015610fad57600080fd5b505afa158015610fc1573d6000803e3d6000fd5b505050506040513d601f19601f82011682018060405250810190610fe59190613cc8565b6007805460ff191660ff9290921691909117905560405146907f8b73c3c69bb8fe3d512ecc4cf759cc79239f7b179b0ffacaa9a75d522b39400f9061102c90600890613d2a565b60408051918290038220828201825260018352603160f81b602093840152905161107d93927fc89efdaa54c0f20c7adf612882df0950f5a951637e0307cdcb4c672f298b8bc6918691309101613f9f565b60408051601f198184030181529190528051602090910120600c555050505050505050505050565b604080518082019091526009815268044535020312e302e360bc1b60208201525b90565b6003546001546040516370a0823160e01b815260009261116b926001600160701b03909116916001600160a01b03909116906370a082319061110f903090600401613dfa565b60206040518083038186803b15801561112757600080fd5b505afa15801561113b573d6000803e3d6000fd5b505050506040513d601f19601f8201168201806040525081019061115f9190613bcf565b9063ffffffff61280716565b905090565b60008060008061117e61394b565b61118661144b565b90506111928187612a2d565b600f54600e54604051638198edbf60e01b8152939850919550916000916001600160a01b031690638198edbf906111cd908c90600401613dfa565b60206040518083038186803b1580156111e557600080fd5b505afa1580156111f9573d6000803e3d6000fd5b505050506040513d601f19601f8201168201806040525081019061121d9190613bcf565b9050611229878261285b565b95506112498661115f61123c8a8661285b565b8a9063ffffffff61280716565b96508260a00151935050505092959194509250565b6001600160a01b03166000908152600a602052604090205490565b6003546002546040516370a0823160e01b815260009261116b92600160701b9091046001600160701b0316916001600160a01b03909116906370a082319061110f903090600401613dfa565b600554600160701b90046001600160701b031681565b6000806000806112e961394b565b6112f161144b565b90506112fd8187612b33565b600f54600e54604051638198edbf60e01b8152939850919550916000916001600160a01b031690638198edbf90611338908c90600401613dfa565b60206040518083038186803b15801561135057600080fd5b505afa158015611364573d6000803e3d6000fd5b505050506040513d601f19601f820116820180604052508101906113889190613bcf565b9050611394878261285b565b95506113a78661115f61123c8a8661285b565b96508260800151935050505092959194509250565b6003546001600160701b031681565b600d6020526000908152604090205481565b600354600160e01b900463ffffffff1681565b6006805460408051602060026001851615610100026000190190941693909304601f810184900484028201840190925281815292918301828280156105f35780601f106105c8576101008083540402835291602001916105f3565b61145361394b565b601154815260105460208201526003546001600160701b038082166040840152600160701b918290048116606084015260055480821660808501529182041660a0830152600160e01b900463ffffffff1660028111156114af57fe5b8160c0019060028111156114bf57fe5b908160028111156114cc57fe5b9052506110c681612c34565b336000908152600a60205260408120548211156115075760405162461bcd60e51b815260040161077a90614265565b336000908152600a6020526040902054611527908363ffffffff61280716565b336000908152600a6020526040808220929092556001600160a01b03851681522054611559908363ffffffff61282f16565b6001600160a01b0384166000818152600a602052604090819020929092559051339060008051602061450883398151915290611596908690613f2f565b60405180910390a350600192915050565b600f5481565b60008054819060ff16156115d35760405162461bcd60e51b815260040161077a9061410f565b6000805460ff19166001179055428310156116005760405162461bcd60e51b815260040161077a9061434e565b336000908152600a602052604090205489111561162f5760405162461bcd60e51b815260040161077a9061423d565b6001546040516370a0823160e01b81526000916001600160a01b0316906370a0823190611660903090600401613dfa565b60206040518083038186803b15801561167857600080fd5b505afa15801561168c573d6000803e3d6000fd5b505050506040513d601f19601f820116820180604052508101906116b09190613bcf565b6002546040516370a0823160e01b81529192506000916001600160a01b03909116906370a08231906116e6903090600401613dfa565b60206040518083038186803b1580156116fe57600080fd5b505afa158015611712573d6000803e3d6000fd5b505050506040513d601f19601f820116820180604052508101906117369190613bcf565b60095490915061175c81611750858f63ffffffff612cde16565b9063ffffffff612d1816565b945061177281611750848f63ffffffff612cde16565b93506117d06117b8826117ac8f600560009054906101000a90046001600160701b03166001600160701b0316612cde90919063ffffffff16565b9063ffffffff612d4216565b6005546001600160701b03169063ffffffff61280716565b600560006101000a8154816001600160701b0302191690836001600160701b0316021790555061184761182e826117ac8f6005600e9054906101000a90046001600160701b03166001600160701b0316612cde90919063ffffffff16565b600554600160701b90046001600160701b031690612807565b6005600e6101000a8154816001600160701b0302191690836001600160701b0316021790555089851015801561187d5750888410155b6118995760405162461bcd60e51b815260040161077a90614210565b6118a3338d612d6f565b6118ad8b86612e3c565b6118b78b85612e5f565b6118bf612e82565b861561192e578a6001600160a01b0316632411d338338e88888d8d6040518763ffffffff1660e01b81526004016118fb96959493929190613e70565b600060405180830381600087803b15801561191557600080fd5b505af1158015611929573d6000803e3d6000fd5b505050505b7f55caccde83781f39bfc1296eff45655b6496729443a7d48958b18b3b685600a5338c8e600a6000336001600160a01b03166001600160a01b03168152602001908152602001600020546040516119889493929190613e0e565b60405180910390a150506000805460ff1916905550909890975095505050505050565b600354600160701b90046001600160701b031681565b6000805460ff16156119e55760405162461bcd60e51b815260040161077a9061410f565b6000805460ff191660019081178255546040516370a0823160e01b81526001600160a01b03909116906370a0823190611a22903090600401613dfa565b60206040518083038186803b158015611a3a57600080fd5b505afa158015611a4e573d6000803e3d6000fd5b505050506040513d601f19601f82011682018060405250810190611a729190613bcf565b600354909150600090611a959083906001600160701b031663ffffffff61280716565b90506000806000611aa632856112db565b9298509094509092509050611abb8787612e5f565b600054611ad890630100000090046001600160a01b031684612e5f565b806002811115611ae457fe5b600554600160e01b900463ffffffff908116911614611b91576001600160701b03821115611b245760405162461bcd60e51b815260040161077a90614291565b600580546001600160701b0319166001600160701b038416179055806002811115611b4b57fe5b6005601c6101000a81548163ffffffff021916908363ffffffff16021790555060008051602061452883398151915281604051611b889190613f8a565b60405180910390a15b6002546040516370a0823160e01b8152611c1c9187916001600160a01b03909116906370a0823190611bc7903090600401613dfa565b60206040518083038186803b158015611bdf57600080fd5b505afa158015611bf3573d6000803e3d6000fd5b505050506040513d601f19601f82011682018060405250810190611c179190613bcf565b61299d565b60015460025460405160008051602061454883398151915292611c55926001600160a01b039182169291169088908b9033908e90613eb0565b60405180910390a150506000805460ff1916905550919392505050565b600554600160e01b900463ffffffff1681565b60005460ff1615611ca85760405162461bcd60e51b815260040161077a9061410f565b6000805460ff19166001179055611cbf8386612e3c565b611cc98385612e5f565b8015611d365760405163d5b9979760e01b81526001600160a01b0384169063d5b9979790611d039033908990899088908890600401613e37565b600060405180830381600087803b158015611d1d57600080fd5b505af1158015611d31573d6000803e3d6000fd5b505050505b6001546040516370a0823160e01b81526000916001600160a01b0316906370a0823190611d67903090600401613dfa565b60206040518083038186803b158015611d7f57600080fd5b505afa158015611d93573d6000803e3d6000fd5b505050506040513d601f19601f82011682018060405250810190611db79190613bcf565b6002546040516370a0823160e01b81529192506000916001600160a01b03909116906370a0823190611ded903090600401613dfa565b60206040518083038186803b158015611e0557600080fd5b505afa158015611e19573d6000803e3d6000fd5b505050506040513d601f19601f82011682018060405250810190611e3d9190613bcf565b6003549091506001600160701b031682101580611e6c5750600354600160701b90046001600160701b03168110155b611e885760405162461bcd60e51b815260040161077a90614027565b6003546001600160701b031682101561205257600354600090611ebc908390600160701b90046001600160701b0316612807565b9050600080600080611ece3286611170565b600354939750919550935091508490611ef6906001600160701b03168963ffffffff61280716565b1115611f145760405162461bcd60e51b815260040161077a90614027565b600054611f3190630100000090046001600160a01b031684612e3c565b816002811115611f3d57fe5b600554600160e01b900463ffffffff908116911614611ff3576001600160701b03811115611f7d5760405162461bcd60e51b815260040161077a90614291565b60058054600160701b600160e01b031916600160701b6001600160701b03841602179055816002811115611fad57fe5b6005601c6101000a81548163ffffffff021916908363ffffffff16021790555060008051602061452883398151915282604051611fea9190613f8a565b60405180910390a15b600080516020614548833981519152600260009054906101000a90046001600160a01b0316600160009054906101000a90046001600160a01b03168787338f60405161204496959493929190613eb0565b60405180910390a150505050505b600354600160701b90046001600160701b031681101561221a5760035460009061208c9084906001600160701b031663ffffffff61280716565b905060008060008061209e32866112db565b6003549397509195509350915084906120c790600160701b90046001600160701b031688612807565b11156120e55760405162461bcd60e51b815260040161077a90614027565b60005461210290630100000090046001600160a01b031684612e5f565b81600281111561210e57fe5b600554600160e01b900463ffffffff9081169116146121bb576001600160701b0381111561214e5760405162461bcd60e51b815260040161077a90614291565b600580546001600160701b0319166001600160701b03831617905581600281111561217557fe5b6005601c6101000a81548163ffffffff021916908363ffffffff160217905550600080516020614528833981519152826040516121b29190613f8a565b60405180910390a15b600080516020614548833981519152600160009054906101000a90046001600160a01b0316600260009054906101000a90046001600160a01b03168787338f60405161220c96959493929190613eb0565b60405180910390a150505050505b612222612e82565b7f0b82e93068db15abd9fbb2682c65462ea8a0a10582dce93a5664818e296f54eb338689896040516122579493929190613e0e565b60405180910390a150506000805460ff191690555050505050565b6002546001600160a01b031681565b428410156122a15760405162461bcd60e51b815260040161077a906142b3565b600c546001600160a01b0388166000908152600d602090815260408083208054600181019091559051929392612302927f6e71edae12b1b97f4d1f60370fef10105fa2faae0126114a169c64845d6126c9928d928d928d92918d9101613f38565b60405160208183030381529060405280519060200120604051602001612329929190613ddf565b6040516020818303038152906040528051906020012090506000600182868686604051600081526020016040526040516123669493929190613f6c565b6020604051602081039080840390855afa158015612388573d6000803e3d6000fd5b5050604051601f1901519150506001600160a01b038116158015906123be5750886001600160a01b0316816001600160a01b0316145b6123da5760405162461bcd60e51b815260040161077a906140d8565b6123e589898961279f565b505050505050505050565b6001600160a01b039182166000908152600b6020908152604080832093909416825291909152205490565b6000805460ff161561243f5760405162461bcd60e51b815260040161077a9061410f565b6000805460ff191660011781556002546040516370a0823160e01b81526001600160a01b03909116906370a082319061247c903090600401613dfa565b60206040518083038186803b15801561249457600080fd5b505afa1580156124a8573d6000803e3d6000fd5b505050506040513d601f19601f820116820180604052508101906124cc9190613bcf565b6003549091506000906124f0908390600160701b90046001600160701b0316612807565b905060008060006125013285611170565b92985090945090925090506125168787612e3c565b60005461253390630100000090046001600160a01b031684612e3c565b80600281111561253f57fe5b600554600160e01b900463ffffffff9081169116146125f5576001600160701b0382111561257f5760405162461bcd60e51b815260040161077a90614291565b60058054600160701b600160e01b031916600160701b6001600160701b038516021790558060028111156125af57fe5b6005601c6101000a81548163ffffffff021916908363ffffffff160217905550600080516020614528833981519152816040516125ec9190613f8a565b60405180910390a15b6001546040516370a0823160e01b815261267d916001600160a01b0316906370a0823190612627903090600401613dfa565b60206040518083038186803b15801561263f57600080fd5b505afa158015612653573d6000803e3d6000fd5b505050506040513d601f19601f820116820180604052508101906126779190613bcf565b8661299d565b60025460015460405160008051602061454883398151915292611c55926001600160a01b039182169291169088908b9033908e90613eb0565b6005546001600160701b031681565b60105481565b600061116b6126d861144b565b61304a565b600e546001600160a01b031681565b60115481565b600080600080600080600061270561394b565b61270d61144b565b905080600001519750806020015196508060400151955080606001519450806080015193508060a0015192508060c00151600281111561274957fe5b91505090919293949596565b60045481565b60005460ff161561277e5760405162461bcd60e51b815260040161077a9061410f565b6000805460ff19166001179055612793612e82565b6000805460ff19169055565b6001600160a01b038084166000818152600b602090815260408083209487168084529490915290819020849055517f8c5be1e5ebec7d5bd14f71427d1e84f3dd0314c0f7b2291e5b200ac8c7c3b925906127fa908590613f2f565b60405180910390a3505050565b6000828211156128295760405162461bcd60e51b815260040161077a906141ed565b50900390565b6000828201838110156128545760405162461bcd60e51b815260040161077a906142e1565b9392505050565b6000670de0b6b3a7640000612876848463ffffffff612cde16565b8161287d57fe5b049392505050565b60006128548261175085670de0b6b3a764000063ffffffff612cde16565b6103e881116128c45760405162461bcd60e51b815260040161077a90614052565b6001600160a01b0382166000908152600a60205260409020546128ed908263ffffffff61282f16565b6001600160a01b0383166000908152600a6020526040902055600954612919908263ffffffff61282f16565b6009556040516001600160a01b038316907f0f6798a560793a54c3bcfe86a93cde1e73087d944c0ea20544137d412139688590612957908490613f2f565b60405180910390a2816001600160a01b031660006001600160a01b0316600080516020614508833981519152836040516129919190613f2f565b60405180910390a35050565b6001600160701b0382118015906129bb57506001600160701b038111155b6129d75760405162461bcd60e51b815260040161077a90614291565b600380546001600160701b03838116600160701b02600160701b600160e01b03199186166001600160701b0319909316929092171617905560005460ff620100009091041615612a2957612a2961313c565b5050565b600080808460c001516002811115612a4157fe5b1415612a5c57612a5184846131d1565b915060019050612b2c565b60018460c001516002811115612a6e57fe5b1415612a7e57612a5184846131f8565b6000612a9b85606001518660a0015161280790919063ffffffff16565b90506000612aba8660800151876040015161280790919063ffffffff16565b905081851015612ae557612ace8686613215565b93506002925080841115612ae0578093505b612b29565b81851415612af95780935060009250612b29565b612b22612b1587612b10888663ffffffff61280716565b6131d1565b829063ffffffff61282f16565b9350600192505b50505b9250929050565b600080808460c001516002811115612b4757fe5b1415612b6257612b578484613250565b915060029050612b2c565b60018460c001516002811115612b7457fe5b1415612c1f576000612b978560400151866080015161280790919063ffffffff16565b90506000612bb68660a00151876060015161280790919063ffffffff16565b905081851015612be157612bca868661326f565b93506001925080841115612bdc578093505b612c18565b81851415612bf55780935060009250612c18565b612c11612b1587612c0c888663ffffffff61280716565b613250565b9350600292505b5050612b2c565b612c2984846132a1565b946002945092505050565b60028160c001516002811115612c4657fe5b1415612c8557612c7b8160600151612c6f8360800151846040015161280790919063ffffffff16565b835160208501516132c0565b60a0820152612cdb565b60018160c001516002811115612c9757fe5b1415612cdb57612cd58160400151612cc08360a00151846060015161280790919063ffffffff16565b8351612ccb906133e6565b84602001516132c0565b60808201525b50565b600082612ced5750600061060c565b82820282848281612cfa57fe5b04146128545760405162461bcd60e51b815260040161077a90614374565b6000808211612d395760405162461bcd60e51b815260040161077a906141c5565b81838161287d57fe5b600080612d4f8484612d18565b905082810284038015612d675750600101905061060c565b50905061060c565b6001600160a01b0382166000908152600a6020526040902054612d98908263ffffffff61280716565b6001600160a01b0383166000908152600a6020526040902055600954612dc4908263ffffffff61280716565b6009556040516001600160a01b038316907fcc16f5dbb4873280815c1ee09dbd06736cffcc184412cf7a71a0fdb75d397ca590612e02908490613f2f565b60405180910390a260006001600160a01b0316826001600160a01b0316600080516020614508833981519152836040516129919190613f2f565b8015612a2957600154612a29906001600160a01b0316838363ffffffff61340716565b8015612a2957600254612a29906001600160a01b0316838363ffffffff61340716565b6001546040516370a0823160e01b81526000916001600160a01b0316906370a0823190612eb3903090600401613dfa565b60206040518083038186803b158015612ecb57600080fd5b505afa158015612edf573d6000803e3d6000fd5b505050506040513d601f19601f82011682018060405250810190612f039190613bcf565b6002546040516370a0823160e01b81529192506000916001600160a01b03909116906370a0823190612f39903090600401613dfa565b60206040518083038186803b158015612f5157600080fd5b505afa158015612f65573d6000803e3d6000fd5b505050506040513d601f19601f82011682018060405250810190612f899190613bcf565b90506001600160701b038211801590612fa957506001600160701b038111155b612fc55760405162461bcd60e51b815260040161077a90614291565b6003546001600160701b03168214612ff357600380546001600160701b0319166001600160701b0384161790555b600354600160701b90046001600160701b031681146130315760038054600160701b600160e01b031916600160701b6001600160701b038416021790555b60005462010000900460ff1615612a2957612a2961313c565b600060028260c00151600281111561305e57fe5b14156130e957606082015160a08301516000916130949161308a9190611750908063ffffffff612cde16565b8460600151612885565b90506130d16130a784602001518361285b565b60208501516130c590670de0b6b3a76400009063ffffffff61280716565b9063ffffffff61282f16565b90506130e1836000015182612885565b915050610737565b604082015160808301516000916131199161310f9190611750908063ffffffff612cde16565b8460400151612885565b905061312c6130a784602001518361285b565b90506130e183600001518261285b565b60035463ffffffff42811691600160e01b9004811682039081161580159061316e57506003546001600160701b031615155b801561318b5750600354600160701b90046001600160701b031615155b156131ab578063ffffffff1661319f6126cb565b60048054919092020190555b506003805463ffffffff909216600160e01b026001600160e01b03909216919091179055565b600061285483608001518460800151846131ee87600001516133e6565b8760200151613462565b600061285483608001518460400151846131ee87600001516133e6565b60006128548360a0015161323684866060015161282f90919063ffffffff16565b60608601518651613246906133e6565b87602001516136e2565b60006128548360a001518460a001518486600001518760200151613462565b6000612854836080015161329084866040015161282f90919063ffffffff16565b6040860151865160208801516136e2565b60006128548360a0015184606001518486600001518760200151613462565b6000846132cf575060006133de565b816132f5576132ee6132e1848661285b565b869063ffffffff61282f16565b90506133de565b60008061330b600485028663ffffffff612cde16565b90508061332257670de0b6b3a764000091506133a2565b85818783028161332e57fe5b0414156133695761336261335d6ec097ce7bc90715b34b9f10000000006130c5848a028b63ffffffff612d1816565b6137bb565b91506133a2565b61339f61335d6ec097ce7bc90715b34b9f10000000006130c589613393868d63ffffffff612d1816565b9063ffffffff612cde16565b91505b60006133cc670de0b6b3a76400006130c56133c3868363ffffffff61280716565b88600202612885565b90506133d8888261285b565b93505050505b949350505050565b600061060c6ec097ce7bc90715b34b9f10000000008363ffffffff612d1816565b61345d8363a9059cbb60e01b8484604051602401613426929190613eea565b60408051601f198184030181529190526020810180516001600160e01b03166001600160e01b0319909316929092179091526137f2565b505050565b60008086116134835760405162461bcd60e51b815260040161077a906140b0565b83613490575060006136d9565b816134bd57846134a0848661285b565b116134b4576134af838561285b565b6134b6565b845b90506136d9565b670de0b6b3a764000082141561357d576000806134e0858763ffffffff612cde16565b9050806134f05760009150613549565b8681888302816134fc57fe5b04141561352c57613525613516898063ffffffff612cde16565b8289029063ffffffff612d1816565b9150613549565b613546886117508761339383838c8e63ffffffff612cde16565b91505b61357461356483670de0b6b3a764000063ffffffff61282f16565b611750898563ffffffff612cde16565b925050506136d9565b60006135aa613592858763ffffffff612cde16565b6130c5896133938a611750898463ffffffff612cde16565b905060006135ca87613393670de0b6b3a76400008763ffffffff61280716565b905060008282106135e0575081900360006135e6565b50810360015b6135fe82670de0b6b3a764000063ffffffff612d1816565b915060006136356136226004613393670de0b6b3a76400008a63ffffffff61280716565b6136308c6133938a8f61285b565b61285b565b905061364e61335d826130c5868063ffffffff612cde16565b9050600061366f6002613393670de0b6b3a76400008a63ffffffff61280716565b90506000831561369057613689838663ffffffff61280716565b90506136a3565b6136a0858463ffffffff61282f16565b90505b60006136af82846138af565b90508b8111156136c95760009750505050505050506136d9565b8b0396506136d995505050505050565b95945050505050565b60008086116137035760405162461bcd60e51b815260040161077a906140b0565b6000613725613718878763ffffffff61280716565b859063ffffffff612cde16565b90508261374c5761374481670de0b6b3a764000063ffffffff612d1816565b9150506136d9565b600061376b613765886117508b8063ffffffff612cde16565b87612885565b90506000613779858361285b565b90506137ae6ec097ce7bc90715b34b9f100000000061175085613393856130c5670de0b6b3a76400008c63ffffffff61280716565b9998505050505050505050565b80600160028204015b818110156137ec578091506002818285816137db57fe5b0401816137e457fe5b0490506137c4565b50919050565b60006060836001600160a01b03168360405161380e9190613d0e565b6000604051808303816000865af19150503d806000811461384b576040519150601f19603f3d011682016040523d82523d6000602084013e613850565b606091505b5091509150816138725760405162461bcd60e51b815260040161077a90614169565b8051156138a9578080602001905181019061388d9190613bb3565b6138a95760405162461bcd60e51b815260040161077a90614304565b50505050565b6000612854826117ac85670de0b6b3a764000063ffffffff612cde16565b828054600181600116156101000203166002900490600052602060002090601f016020900481019282601f1061390e57805160ff191683800117855561393b565b8280016001018555821561393b579182015b8281111561393b578251825591602001919060010190613920565b50613947929150613992565b5090565b6040518060e001604052806000815260200160008152602001600081526020016000815260200160008152602001600081526020016000600281111561398d57fe5b905290565b6110c691905b808211156139475760008155600101613998565b80356001600160a01b038116811461060c57600080fd5b60008083601f8401126139d4578182fd5b50813567ffffffffffffffff8111156139eb578182fd5b602083019150836020828501011115612b2c57600080fd5b600060208284031215613a14578081fd5b61285483836139ac565b60008060408385031215613a30578081fd5b613a3a84846139ac565b9150613a4984602085016139ac565b90509250929050565b600080600080600080600080610100898b031215613a6e578384fd5b613a788a8a6139ac565b9750613a878a60208b016139ac565b9650613a968a60408b016139ac565b955060608901359450613aac8a60808b016139ac565b935060a0890135925060c0890135915060e0890135613aca816144ea565b809150509295985092959890939650565b600080600060608486031215613aef578283fd5b8335613afa816144d5565b92506020840135613b0a816144d5565b929592945050506040919091013590565b600080600080600080600060e0888a031215613b35578283fd5b613b3f89896139ac565b9650613b4e8960208a016139ac565b955060408801359450606088013593506080880135613b6c816144f8565b9699959850939692959460a0840135945060c09093013592915050565b60008060408385031215613b9b578182fd5b613ba584846139ac565b946020939093013593505050565b600060208284031215613bc4578081fd5b8151612854816144ea565b600060208284031215613be0578081fd5b5051919050565b600080600080600080600060c0888a031215613c01578283fd5b873596506020880135613c13816144d5565b95506040880135945060608801359350608088013567ffffffffffffffff811115613c3c578384fd5b613c488a828b016139c3565b989b979a5095989497959660a090950135949350505050565b600080600080600060808688031215613c78578081fd5b8535945060208601359350613c9087604088016139ac565b9250606086013567ffffffffffffffff811115613cab578182fd5b613cb7888289016139c3565b969995985093965092949392505050565b600060208284031215613cd9578081fd5b8151612854816144f8565b60008284528282602086013780602084860101526020601f19601f85011685010190509392505050565b60008251613d208184602087016144a9565b9190910192915050565b6000808354600180821660008114613d495760018114613d6057613d8f565b60ff198316865260028304607f1686019350613d8f565b600283048786526020808720875b83811015613d875781548a820152908501908201613d6e565b505050860193505b509195945050505050565b60008451613dac8184602089016144a9565b8451908301613dbf8282602089016144a9565b8451918101613dd28382602089016144a9565b9091019695505050505050565b61190160f01b81526002810192909252602282015260420190565b6001600160a01b0391909116815260200190565b6001600160a01b0394851681529290931660208301526040820152606081019190915260800190565b600060018060a01b038716825285602083015284604083015260806060830152613e65608083018486613ce4565b979650505050505050565b600060018060a01b038816825286602083015285604083015284606083015260a06080830152613ea460a083018486613ce4565b98975050505050505050565b6001600160a01b0396871681529486166020860152604085019390935260608401919091528316608083015290911660a082015260c00190565b6001600160a01b03929092168252602082015260400190565b6001600160a01b039390931683526020830191909152604082015260600190565b901515815260200190565b90815260200190565b9586526001600160a01b0394851660208701529290931660408501526060840152608083019190915260a082015260c00190565b93845260ff9290921660208401526040830152606082015260800190565b60208101613f978361449e565b825292915050565b9485526020850193909352604084019190915260608301526001600160a01b0316608082015260a00190565b6000602082528251806020840152613fea8160408501602087016144a9565b601f01601f19169190910160400192915050565b6020808252600f908201526e1114d417d253925512505312569151608a1b604082015260600190565b60208082526011908201527011931054d217d313d05397d19052531151607a1b604082015260600190565b60208082526016908201527509a929ca8be829a9eaa9ca8be9c9ea8be8a9c9eaa8e960531b604082015260600190565b60208082526014908201527308298989eae829c868abe9c9ea8be8a9c9eaa8e960631b604082015260600190565b6020808252600e908201526d5441524745545f49535f5a45524f60901b604082015260600190565b6020808252601e908201527f444f444f5f4453505f4c503a20494e56414c49445f5349474e41545552450000604082015260600190565b60208082526009908201526814915153951490539560ba1b604082015260600190565b6020808252601a908201527f424153455f51554f54455f43414e5f4e4f545f42455f53414d45000000000000604082015260600190565b6020808252818101527f5361666545524332303a206c6f772d6c6576656c2063616c6c206661696c6564604082015260600190565b6020808252600d908201526c1393d7d09054d157d253941555609a1b604082015260600190565b6020808252600e908201526d2224ab24a224a723afa2a92927a960911b604082015260600190565b60208082526009908201526829aaa12fa2a92927a960b91b604082015260600190565b6020808252601390820152720ae92a89088a482aebe9c9ea8be8a9c9eaa8e9606b1b604082015260600190565b6020808252600e908201526d08898a0be9c9ea8be8a9c9eaa8e960931b604082015260600190565b6020808252601290820152710848298829c868abe9c9ea8be8a9c9eaa8e960731b604082015260600190565b6020808252600890820152674f564552464c4f5760c01b604082015260600190565b6020808252601490820152731113d113d7d114d417d3140e881156141254915160621b604082015260600190565b60208082526009908201526820a2222fa2a92927a960b91b604082015260600190565b6020808252602a908201527f5361666545524332303a204552433230206f7065726174696f6e20646964206e6040820152691bdd081cdd58d8d9595960b21b606082015260800190565b6020808252600c908201526b1512535157d156141254915160a21b604082015260600190565b60208082526009908201526826aaa62fa2a92927a960b91b604082015260600190565b600060e082019050825182526020830151602083015260408301516040830152606083015160608301526080830151608083015260a083015160a08301526143e260c084015161449e565b60c083015292915050565b6001600160701b0391909116815260200190565b918252602082015260400190565b84815260208101849052608081016003841061442757fe5b60408201939093526060015292915050565b9283526020830191909152604082015260600190565b968752602087019590955260408601939093526060850191909152608084015260a083015260c082015260e00190565b63ffffffff91909116815260200190565b60ff91909116815260200190565b806003811061073757fe5b60005b838110156144c45781810151838201526020016144ac565b838111156138a95750506000910152565b6001600160a01b0381168114612cdb57600080fd5b8015158114612cdb57600080fd5b60ff81168114612cdb57600080fdfeddf252ad1be2c89b69c2b068fc378daa952ba7f163c4a11628f55a4df523b3efdf176ad18be4f9f32efaa32f06e9d1175476504739a745f1399a6d3fa4b75917c2c0245e056d5fb095f04cd6373bc770802ebd1e6c918eb78fdef843cdb37b0fa2646970667358221220eb6071060a6b4c3a4e42ded95cbe725f37dc4cb667dbe30e0c97708226b6a7ad64736f6c63430006090033",
  "immutableReferences": {},
  "source": "/*\n\n    Copyright 2020 DODO ZOO.\n    SPDX-License-Identifier: Apache-2.0\n\n*/\n\npragma solidity 0.6.9;\npragma experimental ABIEncoderV2;\n\nimport {IFeeRateModel} from \"../../lib/FeeRateModel.sol\";\nimport {IERC20} from \"../../intf/IERC20.sol\";\nimport {DSPTrader} from \"./DSPTrader.sol\";\nimport {DSPFunding} from \"./DSPFunding.sol\";\nimport {DSPVault} from \"./DSPVault.sol\";\n\n/**\n * @title DODO StablePool\n * @author DODO Breeder\n *\n * @notice DODOStablePool initialization\n */\ncontract DSP is DSPTrader, DSPFunding {\n    function init(\n        address maintainer,\n        address baseTokenAddress,\n        address quoteTokenAddress,\n        uint256 lpFeeRate,\n        address mtFeeRateModel,\n        uint256 i,\n        uint256 k,\n        bool isOpenTWAP\n    ) external {\n        require(!_DSP_INITIALIZED_, \"DSP_INITIALIZED\");\n        _DSP_INITIALIZED_ = true;\n        \n        require(baseTokenAddress != quoteTokenAddress, \"BASE_QUOTE_CAN_NOT_BE_SAME\");\n        _BASE_TOKEN_ = IERC20(baseTokenAddress);\n        _QUOTE_TOKEN_ = IERC20(quoteTokenAddress);\n\n        require(i > 0 && i <= 10**36);\n        _I_ = i;\n\n        require(k <= 10**18);\n        _K_ = k;\n\n        _LP_FEE_RATE_ = lpFeeRate;\n        _MT_FEE_RATE_MODEL_ = IFeeRateModel(mtFeeRateModel);\n        _MAINTAINER_ = maintainer;\n\n        _IS_OPEN_TWAP_ = isOpenTWAP;\n        if (isOpenTWAP) _BLOCK_TIMESTAMP_LAST_ = uint32(block.timestamp % 2**32);\n\n        string memory connect = \"_\";\n        string memory suffix = \"DLP\";\n\n        name = string(abi.encodePacked(suffix, connect, addressToShortString(address(this))));\n        symbol = \"DLP\";\n        decimals = _BASE_TOKEN_.decimals();\n\n        // ============================== Permit ====================================\n        uint256 chainId;\n        assembly {\n            chainId := chainid()\n        }\n        DOMAIN_SEPARATOR = keccak256(\n            abi.encode(\n                // keccak256('EIP712Domain(string name,string version,uint256 chainId,address verifyingContract)'),\n                0x8b73c3c69bb8fe3d512ecc4cf759cc79239f7b179b0ffacaa9a75d522b39400f,\n                keccak256(bytes(name)),\n                keccak256(bytes(\"1\")),\n                chainId,\n                address(this)\n            )\n        );\n        // ==========================================================================\n    }\n\n    function addressToShortString(address _addr) public pure returns (string memory) {\n        bytes32 value = bytes32(uint256(_addr));\n        bytes memory alphabet = \"0123456789abcdef\";\n\n        bytes memory str = new bytes(8);\n        for (uint256 i = 0; i < 4; i++) {\n            str[i * 2] = alphabet[uint8(value[i + 12] >> 4)];\n            str[1 + i * 2] = alphabet[uint8(value[i + 12] & 0x0f)];\n        }\n        return string(str);\n    }\n\n    // ============ Version Control ============\n\n    function version() external pure returns (string memory) {\n        return \"DSP 1.0.0\";\n    }\n}\n",
  "sourcePath": "/Users/niutaotao/projects/dodo/contractV2/contracts/DODOStablePool/impl/DSP.sol",
  "compiler": {
    "name": "solc",
    "version": "0.6.9+commit.3e3065ac.Emscripten.clang"
  },
  "schemaVersion": "3.3.2",
  "updatedAt": "2021-04-19T16:50:29.609Z",
  "devdoc": {
    "author": "DODO Breeder",
    "methods": {
      "allowance(address,address)": {
        "details": "Function to check the amount of tokens that an owner _ALLOWED_ to a spender.",
        "params": {
          "owner": "address The address which owns the funds.",
          "spender": "address The address which will spend the funds."
        },
        "returns": {
          "_0": "A uint256 specifying the amount of tokens still available for the spender."
        }
      },
      "approve(address,uint256)": {
        "details": "Approve the passed address to spend the specified amount of tokens on behalf of msg.sender.",
        "params": {
          "amount": "The amount of tokens to be spent.",
          "spender": "The address which will spend the funds."
        }
      },
      "balanceOf(address)": {
        "details": "Gets the balance of the specified address.",
        "params": {
          "owner": "The address to query the the balance of."
        },
        "returns": {
          "balance": "An uint256 representing the amount owned by the passed address."
        }
      },
      "transfer(address,uint256)": {
        "details": "transfer token for a specified address",
        "params": {
          "amount": "The amount to be transferred.",
          "to": "The address to transfer to."
        }
      },
      "transferFrom(address,address,uint256)": {
        "details": "Transfer tokens from one address to another",
        "params": {
          "amount": "uint256 the amount of tokens to be transferred",
          "from": "address The address which you want to send tokens from",
          "to": "address The address which you want to transfer to"
        }
      }
    },
    "title": "DODO StablePool"
  },
  "userdoc": {
    "methods": {},
    "notice": "DODOStablePool initialization"
  }
}