{
  "contractName": "DSPFactory",
  "abi": [
    {
      "inputs": [
        {
          "internalType": "address",
          "name": "cloneFactory",
          "type": "address"
        },
        {
          "internalType": "address",
          "name": "DSPTemplate",
          "type": "address"
        },
        {
          "internalType": "address",
          "name": "defaultMaintainer",
          "type": "address"
        },
        {
          "internalType": "address",
          "name": "defaultMtFeeRateModel",
          "type": "address"
        }
      ],
      "stateMutability": "nonpayable",
      "type": "constructor"
    },
    {
      "anonymous": false,
      "inputs": [
        {
          "indexed": false,
          "internalType": "address",
          "name": "baseToken",
          "type": "address"
        },
        {
          "indexed": false,
          "internalType": "address",
          "name": "quoteToken",
          "type": "address"
        },
        {
          "indexed": false,
          "internalType": "address",
          "name": "creator",
          "type": "address"
        },
        {
          "indexed": false,
          "internalType": "address",
          "name": "DSP",
          "type": "address"
        }
      ],
      "name": "NewDSP",
      "type": "event"
    },
    {
      "anonymous": false,
      "inputs": [
        {
          "indexed": true,
          "internalType": "address",
          "name": "previousOwner",
          "type": "address"
        },
        {
          "indexed": true,
          "internalType": "address",
          "name": "newOwner",
          "type": "address"
        }
      ],
      "name": "OwnershipTransferPrepared",
      "type": "event"
    },
    {
      "anonymous": false,
      "inputs": [
        {
          "indexed": true,
          "internalType": "address",
          "name": "previousOwner",
          "type": "address"
        },
        {
          "indexed": true,
          "internalType": "address",
          "name": "newOwner",
          "type": "address"
        }
      ],
      "name": "OwnershipTransferred",
      "type": "event"
    },
    {
      "anonymous": false,
      "inputs": [
        {
          "indexed": false,
          "internalType": "address",
          "name": "DSP",
          "type": "address"
        }
      ],
      "name": "RemoveDSP",
      "type": "event"
    },
    {
      "inputs": [],
      "name": "_CLONE_FACTORY_",
      "outputs": [
        {
          "internalType": "address",
          "name": "",
          "type": "address"
        }
      ],
      "stateMutability": "view",
      "type": "function"
    },
    {
      "inputs": [],
      "name": "_DEFAULT_MAINTAINER_",
      "outputs": [
        {
          "internalType": "address",
          "name": "",
          "type": "address"
        }
      ],
      "stateMutability": "view",
      "type": "function"
    },
    {
      "inputs": [],
      "name": "_DEFAULT_MT_FEE_RATE_MODEL_",
      "outputs": [
        {
          "internalType": "address",
          "name": "",
          "type": "address"
        }
      ],
      "stateMutability": "view",
      "type": "function"
    },
    {
      "inputs": [],
      "name": "_DSP_TEMPLATE_",
      "outputs": [
        {
          "internalType": "address",
          "name": "",
          "type": "address"
        }
      ],
      "stateMutability": "view",
      "type": "function"
    },
    {
      "inputs": [],
      "name": "_NEW_OWNER_",
      "outputs": [
        {
          "internalType": "address",
          "name": "",
          "type": "address"
        }
      ],
      "stateMutability": "view",
      "type": "function"
    },
    {
      "inputs": [],
      "name": "_OWNER_",
      "outputs": [
        {
          "internalType": "address",
          "name": "",
          "type": "address"
        }
      ],
      "stateMutability": "view",
      "type": "function"
    },
    {
      "inputs": [
        {
          "internalType": "address",
          "name": "",
          "type": "address"
        },
        {
          "internalType": "address",
          "name": "",
          "type": "address"
        },
        {
          "internalType": "uint256",
          "name": "",
          "type": "uint256"
        }
      ],
      "name": "_REGISTRY_",
      "outputs": [
        {
          "internalType": "address",
          "name": "",
          "type": "address"
        }
      ],
      "stateMutability": "view",
      "type": "function"
    },
    {
      "inputs": [
        {
          "internalType": "address",
          "name": "",
          "type": "address"
        },
        {
          "internalType": "uint256",
          "name": "",
          "type": "uint256"
        }
      ],
      "name": "_USER_REGISTRY_",
      "outputs": [
        {
          "internalType": "address",
          "name": "",
          "type": "address"
        }
      ],
      "stateMutability": "view",
      "type": "function"
    },
    {
      "inputs": [],
      "name": "claimOwnership",
      "outputs": [],
      "stateMutability": "nonpayable",
      "type": "function"
    },
    {
      "inputs": [
        {
          "internalType": "address",
          "name": "newOwner",
          "type": "address"
        }
      ],
      "name": "initOwner",
      "outputs": [],
      "stateMutability": "nonpayable",
      "type": "function"
    },
    {
      "inputs": [
        {
          "internalType": "address",
          "name": "newOwner",
          "type": "address"
        }
      ],
      "name": "transferOwnership",
      "outputs": [],
      "stateMutability": "nonpayable",
      "type": "function"
    },
    {
      "inputs": [
        {
          "internalType": "address",
          "name": "baseToken",
          "type": "address"
        },
        {
          "internalType": "address",
          "name": "quoteToken",
          "type": "address"
        },
        {
          "internalType": "uint256",
          "name": "lpFeeRate",
          "type": "uint256"
        },
        {
          "internalType": "uint256",
          "name": "i",
          "type": "uint256"
        },
        {
          "internalType": "uint256",
          "name": "k",
          "type": "uint256"
        },
        {
          "internalType": "bool",
          "name": "isOpenTWAP",
          "type": "bool"
        }
      ],
      "name": "createDODOStablePool",
      "outputs": [
        {
          "internalType": "address",
          "name": "newStablePool",
          "type": "address"
        }
      ],
      "stateMutability": "nonpayable",
      "type": "function"
    },
    {
      "inputs": [
        {
          "internalType": "address",
          "name": "_newDSPTemplate",
          "type": "address"
        }
      ],
      "name": "updateDSPTemplate",
      "outputs": [],
      "stateMutability": "nonpayable",
      "type": "function"
    },
    {
      "inputs": [
        {
          "internalType": "address",
          "name": "creator",
          "type": "address"
        },
        {
          "internalType": "address",
          "name": "baseToken",
          "type": "address"
        },
        {
          "internalType": "address",
          "name": "quoteToken",
          "type": "address"
        },
        {
          "internalType": "address",
          "name": "pool",
          "type": "address"
        }
      ],
      "name": "addPoolByAdmin",
      "outputs": [],
      "stateMutability": "nonpayable",
      "type": "function"
    },
    {
      "inputs": [
        {
          "internalType": "address",
          "name": "creator",
          "type": "address"
        },
        {
          "internalType": "address",
          "name": "baseToken",
          "type": "address"
        },
        {
          "internalType": "address",
          "name": "quoteToken",
          "type": "address"
        },
        {
          "internalType": "address",
          "name": "pool",
          "type": "address"
        }
      ],
      "name": "removePoolByAdmin",
      "outputs": [],
      "stateMutability": "nonpayable",
      "type": "function"
    },
    {
      "inputs": [
        {
          "internalType": "address",
          "name": "baseToken",
          "type": "address"
        },
        {
          "internalType": "address",
          "name": "quoteToken",
          "type": "address"
        }
      ],
      "name": "getDODOPool",
      "outputs": [
        {
          "internalType": "address[]",
          "name": "machines",
          "type": "address[]"
        }
      ],
      "stateMutability": "view",
      "type": "function"
    },
    {
      "inputs": [
        {
          "internalType": "address",
          "name": "token0",
          "type": "address"
        },
        {
          "internalType": "address",
          "name": "token1",
          "type": "address"
        }
      ],
      "name": "getDODOPoolBidirection",
      "outputs": [
        {
          "internalType": "address[]",
          "name": "baseToken0Machines",
          "type": "address[]"
        },
        {
          "internalType": "address[]",
          "name": "baseToken1Machines",
          "type": "address[]"
        }
      ],
      "stateMutability": "view",
      "type": "function"
    },
    {
      "inputs": [
        {
          "internalType": "address",
          "name": "user",
          "type": "address"
        }
      ],
      "name": "getDODOPoolByUser",
      "outputs": [
        {
          "internalType": "address[]",
          "name": "machines",
          "type": "address[]"
        }
      ],
      "stateMutability": "view",
      "type": "function"
    }
  ],
  "bytecode": "0x60e06040523480156200001157600080fd5b50604051620012ad380380620012ad83398101604081905262000034916200009c565b606093841b6001600160601b0319908116608052600280546001600160a01b0319166001600160a01b03959095169490941790935590831b821660a05290911b1660c052620000fc565b80516001600160a01b03811681146200009657600080fd5b92915050565b60008060008060808587031215620000b2578384fd5b620000be86866200007e565b9350620000cf86602087016200007e565b9250620000e086604087016200007e565b9150620000f186606087016200007e565b905092959194509250565b60805160601c60a05160601c60c05160601c61116c620001416000398061087d5280610b355250806109995280610b0d525080610a5e5280610cc2525061116c6000f3fe608060405234801561001057600080fd5b50600436106101165760003560e01c8063794e5538116100a2578063bdeb0a9111610071578063bdeb0a9114610203578063cf5c2f1014610216578063e65f702914610229578063eb774d051461023c578063f2fde38b1461024457610116565b8063794e5538146101bf57806381ab4d0a146101e05780638456db15146101e8578063a58888db146101f057610116565b806343274b82116100e957806343274b82146101745780634e71e0c81461018757806357a281dc1461018f57806359358068146101af5780636c5ccb9b146101b757610116565b80630d0092971461011b57806316048bc4146101305780631cdd50941461014e57806339d00ef914610161575b600080fd5b61012e610129366004610df5565b610257565b005b6101386102c0565b6040516101459190610fdf565b60405180910390f35b61012e61015c366004610df5565b6102cf565b61012e61016f366004610e6c565b61031b565b61012e610182366004610e6c565b6103f8565b61012e61075b565b6101a261019d366004610e34565b6107e9565b6040516101459190611069565b61013861086c565b61013861087b565b6101d26101cd366004610e34565b61089f565b60405161014592919061107c565b610138610997565b6101386109bb565b6101386101fe366004610f71565b6109ca565b610138610211366004610ec7565b6109ff565b610138610224366004610f07565b610a41565b6101a2610237366004610df5565b610c4a565b610138610cc0565b61012e610252366004610df5565b610ce4565b600154600160a01b900460ff161561028a5760405162461bcd60e51b8152600401610281906110d1565b60405180910390fd5b6001805460ff60a01b1916600160a01b179055600080546001600160a01b039092166001600160a01b0319909216919091179055565b6000546001600160a01b031681565b6000546001600160a01b031633146102f95760405162461bcd60e51b8152600401610281906110fb565b600280546001600160a01b0319166001600160a01b0392909216919091179055565b6000546001600160a01b031633146103455760405162461bcd60e51b8152600401610281906110fb565b6001600160a01b038084166000908152600360209081526040808320868516845282528083208054600181810183559185528385200180548787166001600160a01b03199182168117909255958a1685526004845282852080549283018155855292909320909201805490931617909155517fbc1083a2c1c5ef31e13fb436953d22b47880cf7db279c2c5666b16083afd6b9d906103ea908590859088908690610ff3565b60405180910390a150505050565b6000546001600160a01b031633146104225760405162461bcd60e51b8152600401610281906110fb565b6001600160a01b03808416600090815260036020908152604080832093861683529281529082902080548351818402810184019094528084526060939283018282801561049857602002820191906000526020600020905b81546001600160a01b0316815260019091019060200180831161047a575b50939450600093505050505b815181101561052b57826001600160a01b03168282815181106104c357fe5b60200260200101516001600160a01b0316141561052357816001835103815181106104ea57fe5b60200260200101518282815181106104fe57fe5b60200260200101906001600160a01b031690816001600160a01b03168152505061052b565b6001016104a4565b506001600160a01b0380851660009081526003602090815260408083209387168352928152919020825161056192840190610d69565b506001600160a01b03808516600090815260036020908152604080832093871683529290522080548061059057fe5b60008281526020808220830160001990810180546001600160a01b03191690559092019092556001600160a01b03871682526004815260409182902080548351818402810184019094528084526060939283018282801561061a57602002820191906000526020600020905b81546001600160a01b031681526001909101906020018083116105fc575b50939450600093505050505b81518110156106ad57836001600160a01b031682828151811061064557fe5b60200260200101516001600160a01b031614156106a5578160018351038151811061066c57fe5b602002602001015182828151811061068057fe5b60200260200101906001600160a01b031690816001600160a01b0316815250506106ad565b600101610626565b506001600160a01b038616600090815260046020908152604090912082516106d792840190610d69565b506001600160a01b03861660009081526004602052604090208054806106f957fe5b600082815260209020810160001990810180546001600160a01b03191690550190556040517f896d6f4e7068e6d194a5b84bf222d513973a0dc5ae9687123d5c61329d4489f29061074b908590610fdf565b60405180910390a1505050505050565b6001546001600160a01b031633146107855760405162461bcd60e51b8152600401610281906110aa565b600154600080546040516001600160a01b0393841693909116917f8be0079c531659141344cd1fd0a4f28419497f9722a3daafe3b4186f6b6457e091a360018054600080546001600160a01b03199081166001600160a01b03841617909155169055565b6001600160a01b03808316600090815260036020908152604080832093851683529281529082902080548351818402810184019094528084526060939283018282801561085f57602002820191906000526020600020905b81546001600160a01b03168152600190910190602001808311610841575b5050505050905092915050565b6002546001600160a01b031681565b7f000000000000000000000000000000000000000000000000000000000000000081565b6001600160a01b038083166000818152600360208181526040808420958716845294815284832091815284832093835292835290839020815484518185028101850190955280855260609485949091849183018282801561092957602002820191906000526020600020905b81546001600160a01b0316815260019091019060200180831161090b575b505050505091508080548060200260200160405190810160405280929190818152602001828054801561098557602002820191906000526020600020905b81546001600160a01b03168152600190910190602001808311610967575b50505050509050915091509250929050565b7f000000000000000000000000000000000000000000000000000000000000000081565b6001546001600160a01b031681565b600460205281600052604060002081815481106109e357fe5b6000918252602090912001546001600160a01b03169150829050565b60036020528260005260406000206020528160005260406000208181548110610a2457fe5b6000918252602090912001546001600160a01b0316925083915050565b6002546040516340925bc760e11b81526000916001600160a01b037f0000000000000000000000000000000000000000000000000000000000000000811692638124b78e92610a94921690600401610fdf565b602060405180830381600087803b158015610aae57600080fd5b505af1158015610ac2573d6000803e3d6000fd5b505050506040513d601f19601f82011682018060405250810190610ae69190610e18565b60405163281ccb9560e11b81529091506001600160a01b03821690635039972a90610b63907f0000000000000000000000000000000000000000000000000000000000000000908b908b908b907f0000000000000000000000000000000000000000000000000000000000000000908c908c908c9060040161101e565b600060405180830381600087803b158015610b7d57600080fd5b505af1158015610b91573d6000803e3d6000fd5b5050506001600160a01b0380891660009081526003602090815260408083208b8516845282528083208054600181810183559185528385200180549588166001600160a01b03199687168117909155328086526004855283862080549384018155865293909420018054909416909217909255517fbc1083a2c1c5ef31e13fb436953d22b47880cf7db279c2c5666b16083afd6b9d9250610c38918a918a91908690610ff3565b60405180910390a19695505050505050565b6001600160a01b038116600090815260046020908152604091829020805483518184028101840190945280845260609392830182828015610cb457602002820191906000526020600020905b81546001600160a01b03168152600190910190602001808311610c96575b50505050509050919050565b7f000000000000000000000000000000000000000000000000000000000000000081565b6000546001600160a01b03163314610d0e5760405162461bcd60e51b8152600401610281906110fb565b600080546040516001600160a01b03808516939216917fdcf55418cee3220104fef63f979ff3c4097ad240c0c43dcb33ce837748983e6291a3600180546001600160a01b0319166001600160a01b0392909216919091179055565b828054828255906000526020600020908101928215610dbe579160200282015b82811115610dbe57825182546001600160a01b0319166001600160a01b03909116178255602090920191600190910190610d89565b50610dca929150610dce565b5090565b610df291905b80821115610dca5780546001600160a01b0319168155600101610dd4565b90565b600060208284031215610e06578081fd5b8135610e118161111e565b9392505050565b600060208284031215610e29578081fd5b8151610e118161111e565b60008060408385031215610e46578081fd5b8235610e518161111e565b91506020830135610e618161111e565b809150509250929050565b60008060008060808587031215610e81578182fd5b8435610e8c8161111e565b93506020850135610e9c8161111e565b92506040850135610eac8161111e565b91506060850135610ebc8161111e565b939692955090935050565b600080600060608486031215610edb578283fd5b8335610ee68161111e565b92506020840135610ef68161111e565b929592945050506040919091013590565b60008060008060008060c08789031215610f1f578182fd5b8635610f2a8161111e565b95506020870135610f3a8161111e565b945060408701359350606087013592506080870135915060a08701358015158114610f63578182fd5b809150509295509295509295565b60008060408385031215610f83578182fd5b8235610f8e8161111e565b946020939093013593505050565b6000815180845260208085019450808401835b83811015610fd45781516001600160a01b031687529582019590820190600101610faf565b509495945050505050565b6001600160a01b0391909116815260200190565b6001600160a01b03948516815292841660208401529083166040830152909116606082015260800190565b6001600160a01b0398891681529688166020880152948716604087015260608601939093529416608084015260a083019390935260c082019290925290151560e08201526101000190565b600060208252610e116020830184610f9c565b60006040825261108f6040830185610f9c565b82810360208401526110a18185610f9c565b95945050505050565b6020808252600d908201526c494e56414c49445f434c41494d60981b604082015260600190565b60208082526010908201526f1113d113d7d25392551250531256915160821b604082015260600190565b6020808252600990820152682727aa2fa7aba722a960b91b604082015260600190565b6001600160a01b038116811461113357600080fd5b5056fea26469706673582212209566f80a64f2402bcf1b48cdba27f25507c518c10d5a55a80dc1cab652cb45e264736f6c63430006090033",
  "immutableReferences": {
    "16965": [
      {
        "length": 32,
        "start": 2654
      },
      {
        "length": 32,
        "start": 3266
      }
    ],
    "16967": [
      {
        "length": 32,
        "start": 2457
      },
      {
        "length": 32,
        "start": 2829
      }
    ],
    "16969": [
      {
        "length": 32,
        "start": 2173
      },
      {
        "length": 32,
        "start": 2869
      }
    ]
  },
  "source": "/*\n\n    Copyright 2020 DODO ZOO.\n    SPDX-License-Identifier: Apache-2.0\n\n*/\n\npragma solidity 0.6.9;\npragma experimental ABIEncoderV2;\n\nimport {InitializableOwnable} from \"../lib/InitializableOwnable.sol\";\nimport {ICloneFactory} from \"../lib/CloneFactory.sol\";\nimport {IDSP} from \"../DODOStablePool/intf/IDSP.sol\";\n\ninterface IDSPFactory {\n    function createDODOStablePool(\n        address baseToken,\n        address quoteToken,\n        uint256 lpFeeRate,\n        uint256 i,\n        uint256 k,\n        bool isOpenTWAP\n    ) external returns (address newStablePool);\n}\n\n/**\n * @title DODO StablePool Factory\n * @author DODO Breeder\n *\n * @notice Create And Register DSP Pools\n */\ncontract DSPFactory is InitializableOwnable {\n    // ============ Templates ============\n\n    address public immutable _CLONE_FACTORY_;\n    address public immutable _DEFAULT_MAINTAINER_;\n    address public immutable _DEFAULT_MT_FEE_RATE_MODEL_;\n    address public _DSP_TEMPLATE_;\n\n    // ============ Registry ============\n\n    // base -> quote -> DSP address list\n    mapping(address => mapping(address => address[])) public _REGISTRY_;\n    // creator -> DSP address list\n    mapping(address => address[]) public _USER_REGISTRY_;\n\n    // ============ Events ============\n\n    event NewDSP(address baseToken, address quoteToken, address creator, address DSP);\n\n    event RemoveDSP(address DSP);\n\n    // ============ Functions ============\n\n    constructor(\n        address cloneFactory,\n        address DSPTemplate,\n        address defaultMaintainer,\n        address defaultMtFeeRateModel\n    ) public {\n        _CLONE_FACTORY_ = cloneFactory;\n        _DSP_TEMPLATE_ = DSPTemplate;\n        _DEFAULT_MAINTAINER_ = defaultMaintainer;\n        _DEFAULT_MT_FEE_RATE_MODEL_ = defaultMtFeeRateModel;\n    }\n\n    function createDODOStablePool(\n        address baseToken,\n        address quoteToken,\n        uint256 lpFeeRate,\n        uint256 i,\n        uint256 k,\n        bool isOpenTWAP\n    ) external returns (address newStablePool) {\n        newStablePool = ICloneFactory(_CLONE_FACTORY_).clone(_DSP_TEMPLATE_);\n        {\n            IDSP(newStablePool).init(\n                _DEFAULT_MAINTAINER_,\n                baseToken,\n                quoteToken,\n                lpFeeRate,\n                _DEFAULT_MT_FEE_RATE_MODEL_,\n                i,\n                k,\n                isOpenTWAP\n            );\n        }\n        _REGISTRY_[baseToken][quoteToken].push(newStablePool);\n        _USER_REGISTRY_[tx.origin].push(newStablePool);\n        emit NewDSP(baseToken, quoteToken, tx.origin, newStablePool);\n    }\n\n    // ============ Admin Operation Functions ============\n\n    function updateDSPTemplate(address _newDSPTemplate) external onlyOwner {\n        _DSP_TEMPLATE_ = _newDSPTemplate;\n    }\n\n    function addPoolByAdmin(\n        address creator,\n        address baseToken,\n        address quoteToken,\n        address pool\n    ) external onlyOwner {\n        _REGISTRY_[baseToken][quoteToken].push(pool);\n        _USER_REGISTRY_[creator].push(pool);\n        emit NewDSP(baseToken, quoteToken, creator, pool);\n    }\n\n    function removePoolByAdmin(\n        address creator,\n        address baseToken,\n        address quoteToken,\n        address pool\n    ) external onlyOwner {\n        address[] memory registryList = _REGISTRY_[baseToken][quoteToken];\n        for (uint256 i = 0; i < registryList.length; i++) {\n            if (registryList[i] == pool) {\n                registryList[i] = registryList[registryList.length - 1];\n                break;\n            }\n        }\n        _REGISTRY_[baseToken][quoteToken] = registryList;\n        _REGISTRY_[baseToken][quoteToken].pop();\n        address[] memory userRegistryList = _USER_REGISTRY_[creator];\n        for (uint256 i = 0; i < userRegistryList.length; i++) {\n            if (userRegistryList[i] == pool) {\n                userRegistryList[i] = userRegistryList[userRegistryList.length - 1];\n                break;\n            }\n        }\n        _USER_REGISTRY_[creator] = userRegistryList;\n        _USER_REGISTRY_[creator].pop();\n        emit RemoveDSP(pool);\n    }\n\n    // ============ View Functions ============\n\n    function getDODOPool(address baseToken, address quoteToken)\n        external\n        view\n        returns (address[] memory machines)\n    {\n        return _REGISTRY_[baseToken][quoteToken];\n    }\n\n    function getDODOPoolBidirection(address token0, address token1)\n        external\n        view\n        returns (address[] memory baseToken0Machines, address[] memory baseToken1Machines)\n    {\n        return (_REGISTRY_[token0][token1], _REGISTRY_[token1][token0]);\n    }\n\n    function getDODOPoolByUser(address user) external view returns (address[] memory machines) {\n        return _USER_REGISTRY_[user];\n    }\n}\n",
  "sourcePath": "/Users/niutaotao/projects/dodo/contractV2/contracts/Factory/DSPFactory.sol",
  "compiler": {
    "name": "solc",
    "version": "0.6.9+commit.3e3065ac.Emscripten.clang"
  },
  "schemaVersion": "3.3.2",
  "updatedAt": "2021-04-19T16:50:29.769Z",
  "devdoc": {
    "author": "DODO Breeder",
    "methods": {},
    "title": "DODO StablePool Factory"
  },
  "userdoc": {
    "methods": {},
    "notice": "Create And Register DSP Pools"
  }
}