{
  "contractName": "DVM",
  "abi": [
    {
      "anonymous": false,
      "inputs": [
        {
          "indexed": true,
          "internalType": "address",
          "name": "owner",
          "type": "address"
        },
        {
          "indexed": true,
          "internalType": "address",
          "name": "spender",
          "type": "address"
        },
        {
          "indexed": false,
          "internalType": "uint256",
          "name": "amount",
          "type": "uint256"
        }
      ],
      "name": "Approval",
      "type": "event"
    },
    {
      "anonymous": false,
      "inputs": [
        {
          "indexed": true,
          "internalType": "address",
          "name": "user",
          "type": "address"
        },
        {
          "indexed": false,
          "internalType": "uint256",
          "name": "value",
          "type": "uint256"
        }
      ],
      "name": "Burn",
      "type": "event"
    },
    {
      "anonymous": false,
      "inputs": [
        {
          "indexed": false,
          "internalType": "address",
          "name": "to",
          "type": "address"
        },
        {
          "indexed": false,
          "internalType": "uint256",
          "name": "increaseShares",
          "type": "uint256"
        },
        {
          "indexed": false,
          "internalType": "uint256",
          "name": "totalShares",
          "type": "uint256"
        }
      ],
      "name": "BuyShares",
      "type": "event"
    },
    {
      "anonymous": false,
      "inputs": [
        {
          "indexed": false,
          "internalType": "address",
          "name": "borrower",
          "type": "address"
        },
        {
          "indexed": false,
          "internalType": "address",
          "name": "assetTo",
          "type": "address"
        },
        {
          "indexed": false,
          "internalType": "uint256",
          "name": "baseAmount",
          "type": "uint256"
        },
        {
          "indexed": false,
          "internalType": "uint256",
          "name": "quoteAmount",
          "type": "uint256"
        }
      ],
      "name": "DODOFlashLoan",
      "type": "event"
    },
    {
      "anonymous": false,
      "inputs": [
        {
          "indexed": false,
          "internalType": "address",
          "name": "fromToken",
          "type": "address"
        },
        {
          "indexed": false,
          "internalType": "address",
          "name": "toToken",
          "type": "address"
        },
        {
          "indexed": false,
          "internalType": "uint256",
          "name": "fromAmount",
          "type": "uint256"
        },
        {
          "indexed": false,
          "internalType": "uint256",
          "name": "toAmount",
          "type": "uint256"
        },
        {
          "indexed": false,
          "internalType": "address",
          "name": "trader",
          "type": "address"
        }
      ],
      "name": "DODOSwap",
      "type": "event"
    },
    {
      "anonymous": false,
      "inputs": [
        {
          "indexed": true,
          "internalType": "address",
          "name": "user",
          "type": "address"
        },
        {
          "indexed": false,
          "internalType": "uint256",
          "name": "value",
          "type": "uint256"
        }
      ],
      "name": "Mint",
      "type": "event"
    },
    {
      "anonymous": false,
      "inputs": [
        {
          "indexed": true,
          "internalType": "address",
          "name": "previousOwner",
          "type": "address"
        },
        {
          "indexed": true,
          "internalType": "address",
          "name": "newOwner",
          "type": "address"
        }
      ],
      "name": "OwnershipTransferPrepared",
      "type": "event"
    },
    {
      "anonymous": false,
      "inputs": [
        {
          "indexed": true,
          "internalType": "address",
          "name": "previousOwner",
          "type": "address"
        },
        {
          "indexed": true,
          "internalType": "address",
          "name": "newOwner",
          "type": "address"
        }
      ],
      "name": "OwnershipTransferred",
      "type": "event"
    },
    {
      "anonymous": false,
      "inputs": [
        {
          "indexed": false,
          "internalType": "address",
          "name": "payer",
          "type": "address"
        },
        {
          "indexed": false,
          "internalType": "address",
          "name": "to",
          "type": "address"
        },
        {
          "indexed": false,
          "internalType": "uint256",
          "name": "decreaseShares",
          "type": "uint256"
        },
        {
          "indexed": false,
          "internalType": "uint256",
          "name": "totalShares",
          "type": "uint256"
        }
      ],
      "name": "SellShares",
      "type": "event"
    },
    {
      "anonymous": false,
      "inputs": [
        {
          "indexed": false,
          "internalType": "bool",
          "name": "allow",
          "type": "bool"
        }
      ],
      "name": "SetBuy",
      "type": "event"
    },
    {
      "anonymous": false,
      "inputs": [
        {
          "indexed": false,
          "internalType": "address",
          "name": "oldAddr",
          "type": "address"
        },
        {
          "indexed": false,
          "internalType": "address",
          "name": "newAddr",
          "type": "address"
        }
      ],
      "name": "SetGasPriceSource",
      "type": "event"
    },
    {
      "anonymous": false,
      "inputs": [
        {
          "indexed": false,
          "internalType": "uint256",
          "name": "newValue",
          "type": "uint256"
        }
      ],
      "name": "SetLpFeeRate",
      "type": "event"
    },
    {
      "anonymous": false,
      "inputs": [
        {
          "indexed": false,
          "internalType": "address",
          "name": "oldAddr",
          "type": "address"
        },
        {
          "indexed": false,
          "internalType": "address",
          "name": "newAddr",
          "type": "address"
        }
      ],
      "name": "SetLpFeeRateModel",
      "type": "event"
    },
    {
      "anonymous": false,
      "inputs": [
        {
          "indexed": false,
          "internalType": "address",
          "name": "oldAddr",
          "type": "address"
        },
        {
          "indexed": false,
          "internalType": "address",
          "name": "newAddr",
          "type": "address"
        }
      ],
      "name": "SetMaintainer",
      "type": "event"
    },
    {
      "anonymous": false,
      "inputs": [
        {
          "indexed": false,
          "internalType": "uint256",
          "name": "newValue",
          "type": "uint256"
        }
      ],
      "name": "SetMtFeeRate",
      "type": "event"
    },
    {
      "anonymous": false,
      "inputs": [
        {
          "indexed": false,
          "internalType": "address",
          "name": "oldAddr",
          "type": "address"
        },
        {
          "indexed": false,
          "internalType": "address",
          "name": "newAddr",
          "type": "address"
        }
      ],
      "name": "SetMtFeeRateModel",
      "type": "event"
    },
    {
      "anonymous": false,
      "inputs": [
        {
          "indexed": false,
          "internalType": "bool",
          "name": "allow",
          "type": "bool"
        }
      ],
      "name": "SetSell",
      "type": "event"
    },
    {
      "anonymous": false,
      "inputs": [
        {
          "indexed": false,
          "internalType": "address",
          "name": "oldAddr",
          "type": "address"
        },
        {
          "indexed": false,
          "internalType": "address",
          "name": "newAddr",
          "type": "address"
        }
      ],
      "name": "SetTradePermissionManager",
      "type": "event"
    },
    {
      "anonymous": false,
      "inputs": [
        {
          "indexed": true,
          "internalType": "address",
          "name": "from",
          "type": "address"
        },
        {
          "indexed": true,
          "internalType": "address",
          "name": "to",
          "type": "address"
        },
        {
          "indexed": false,
          "internalType": "uint256",
          "name": "amount",
          "type": "uint256"
        }
      ],
      "name": "Transfer",
      "type": "event"
    },
    {
      "inputs": [],
      "name": "DOMAIN_SEPARATOR",
      "outputs": [
        {
          "internalType": "bytes32",
          "name": "",
          "type": "bytes32"
        }
      ],
      "stateMutability": "view",
      "type": "function"
    },
    {
      "inputs": [],
      "name": "PERMIT_TYPEHASH",
      "outputs": [
        {
          "internalType": "bytes32",
          "name": "",
          "type": "bytes32"
        }
      ],
      "stateMutability": "view",
      "type": "function"
    },
    {
      "inputs": [],
      "name": "_BASE_RESERVE_",
      "outputs": [
        {
          "internalType": "uint256",
          "name": "",
          "type": "uint256"
        }
      ],
      "stateMutability": "view",
      "type": "function"
    },
    {
      "inputs": [],
      "name": "_BASE_TOKEN_",
      "outputs": [
        {
          "internalType": "contract IERC20",
          "name": "",
          "type": "address"
        }
      ],
      "stateMutability": "view",
      "type": "function"
    },
    {
      "inputs": [],
      "name": "_BUYING_CLOSE_",
      "outputs": [
        {
          "internalType": "bool",
          "name": "",
          "type": "bool"
        }
      ],
      "stateMutability": "view",
      "type": "function"
    },
    {
      "inputs": [],
      "name": "_GAS_PRICE_LIMIT_",
      "outputs": [
        {
          "internalType": "contract IExternalValue",
          "name": "",
          "type": "address"
        }
      ],
      "stateMutability": "view",
      "type": "function"
    },
    {
      "inputs": [],
      "name": "_I_",
      "outputs": [
        {
          "internalType": "uint256",
          "name": "",
          "type": "uint256"
        }
      ],
      "stateMutability": "view",
      "type": "function"
    },
    {
      "inputs": [],
      "name": "_K_",
      "outputs": [
        {
          "internalType": "uint256",
          "name": "",
          "type": "uint256"
        }
      ],
      "stateMutability": "view",
      "type": "function"
    },
    {
      "inputs": [],
      "name": "_LP_FEE_RATE_MODEL_",
      "outputs": [
        {
          "internalType": "contract IFeeRateModel",
          "name": "",
          "type": "address"
        }
      ],
      "stateMutability": "view",
      "type": "function"
    },
    {
      "inputs": [],
      "name": "_MAINTAINER_",
      "outputs": [
        {
          "internalType": "address",
          "name": "",
          "type": "address"
        }
      ],
      "stateMutability": "view",
      "type": "function"
    },
    {
      "inputs": [],
      "name": "_MT_FEE_RATE_MODEL_",
      "outputs": [
        {
          "internalType": "contract IFeeRateModel",
          "name": "",
          "type": "address"
        }
      ],
      "stateMutability": "view",
      "type": "function"
    },
    {
      "inputs": [],
      "name": "_NEW_OWNER_",
      "outputs": [
        {
          "internalType": "address",
          "name": "",
          "type": "address"
        }
      ],
      "stateMutability": "view",
      "type": "function"
    },
    {
      "inputs": [],
      "name": "_OWNER_",
      "outputs": [
        {
          "internalType": "address",
          "name": "",
          "type": "address"
        }
      ],
      "stateMutability": "view",
      "type": "function"
    },
    {
      "inputs": [],
      "name": "_QUOTE_RESERVE_",
      "outputs": [
        {
          "internalType": "uint256",
          "name": "",
          "type": "uint256"
        }
      ],
      "stateMutability": "view",
      "type": "function"
    },
    {
      "inputs": [],
      "name": "_QUOTE_TOKEN_",
      "outputs": [
        {
          "internalType": "contract IERC20",
          "name": "",
          "type": "address"
        }
      ],
      "stateMutability": "view",
      "type": "function"
    },
    {
      "inputs": [],
      "name": "_SELLING_CLOSE_",
      "outputs": [
        {
          "internalType": "bool",
          "name": "",
          "type": "bool"
        }
      ],
      "stateMutability": "view",
      "type": "function"
    },
    {
      "inputs": [],
      "name": "_TRADE_PERMISSION_",
      "outputs": [
        {
          "internalType": "contract IPermissionManager",
          "name": "",
          "type": "address"
        }
      ],
      "stateMutability": "view",
      "type": "function"
    },
    {
      "inputs": [
        {
          "internalType": "address",
          "name": "owner",
          "type": "address"
        },
        {
          "internalType": "address",
          "name": "spender",
          "type": "address"
        }
      ],
      "name": "allowance",
      "outputs": [
        {
          "internalType": "uint256",
          "name": "",
          "type": "uint256"
        }
      ],
      "stateMutability": "view",
      "type": "function"
    },
    {
      "inputs": [
        {
          "internalType": "address",
          "name": "spender",
          "type": "address"
        },
        {
          "internalType": "uint256",
          "name": "amount",
          "type": "uint256"
        }
      ],
      "name": "approve",
      "outputs": [
        {
          "internalType": "bool",
          "name": "",
          "type": "bool"
        }
      ],
      "stateMutability": "nonpayable",
      "type": "function"
    },
    {
      "inputs": [
        {
          "internalType": "address",
          "name": "owner",
          "type": "address"
        }
      ],
      "name": "balanceOf",
      "outputs": [
        {
          "internalType": "uint256",
          "name": "balance",
          "type": "uint256"
        }
      ],
      "stateMutability": "view",
      "type": "function"
    },
    {
      "inputs": [
        {
          "internalType": "address",
          "name": "to",
          "type": "address"
        }
      ],
      "name": "buyShares",
      "outputs": [
        {
          "internalType": "uint256",
          "name": "shares",
          "type": "uint256"
        },
        {
          "internalType": "uint256",
          "name": "baseInput",
          "type": "uint256"
        },
        {
          "internalType": "uint256",
          "name": "quoteInput",
          "type": "uint256"
        }
      ],
      "stateMutability": "nonpayable",
      "type": "function"
    },
    {
      "inputs": [],
      "name": "claimOwnership",
      "outputs": [],
      "stateMutability": "nonpayable",
      "type": "function"
    },
    {
      "inputs": [],
      "name": "decimals",
      "outputs": [
        {
          "internalType": "uint8",
          "name": "",
          "type": "uint8"
        }
      ],
      "stateMutability": "view",
      "type": "function"
    },
    {
      "inputs": [
        {
          "internalType": "uint256",
          "name": "baseAmount",
          "type": "uint256"
        },
        {
          "internalType": "uint256",
          "name": "quoteAmount",
          "type": "uint256"
        },
        {
          "internalType": "address",
          "name": "assetTo",
          "type": "address"
        },
        {
          "internalType": "bytes",
          "name": "data",
          "type": "bytes"
        }
      ],
      "name": "flashLoan",
      "outputs": [],
      "stateMutability": "nonpayable",
      "type": "function"
    },
    {
      "inputs": [],
      "name": "getBaseInput",
      "outputs": [
        {
          "internalType": "uint256",
          "name": "input",
          "type": "uint256"
        }
      ],
      "stateMutability": "view",
      "type": "function"
    },
    {
      "inputs": [],
      "name": "getMidPrice",
      "outputs": [
        {
          "internalType": "uint256",
          "name": "midPrice",
          "type": "uint256"
        }
      ],
      "stateMutability": "view",
      "type": "function"
    },
    {
      "inputs": [],
      "name": "getPMMState",
      "outputs": [
        {
          "components": [
            {
              "internalType": "uint256",
              "name": "i",
              "type": "uint256"
            },
            {
              "internalType": "uint256",
              "name": "K",
              "type": "uint256"
            },
            {
              "internalType": "uint256",
              "name": "B",
              "type": "uint256"
            },
            {
              "internalType": "uint256",
              "name": "Q",
              "type": "uint256"
            },
            {
              "internalType": "uint256",
              "name": "B0",
              "type": "uint256"
            },
            {
              "internalType": "uint256",
              "name": "Q0",
              "type": "uint256"
            },
            {
              "internalType": "enum PMMPricing.RState",
              "name": "R",
              "type": "uint8"
            }
          ],
          "internalType": "struct PMMPricing.PMMState",
          "name": "state",
          "type": "tuple"
        }
      ],
      "stateMutability": "view",
      "type": "function"
    },
    {
      "inputs": [],
      "name": "getPMMStateForCall",
      "outputs": [
        {
          "internalType": "uint256",
          "name": "i",
          "type": "uint256"
        },
        {
          "internalType": "uint256",
          "name": "K",
          "type": "uint256"
        },
        {
          "internalType": "uint256",
          "name": "B",
          "type": "uint256"
        },
        {
          "internalType": "uint256",
          "name": "Q",
          "type": "uint256"
        },
        {
          "internalType": "uint256",
          "name": "B0",
          "type": "uint256"
        },
        {
          "internalType": "uint256",
          "name": "Q0",
          "type": "uint256"
        },
        {
          "internalType": "uint8",
          "name": "R",
          "type": "uint8"
        }
      ],
      "stateMutability": "view",
      "type": "function"
    },
    {
      "inputs": [],
      "name": "getQuoteInput",
      "outputs": [
        {
          "internalType": "uint256",
          "name": "input",
          "type": "uint256"
        }
      ],
      "stateMutability": "view",
      "type": "function"
    },
    {
      "inputs": [
        {
          "internalType": "address",
          "name": "user",
          "type": "address"
        }
      ],
      "name": "getUserFeeRate",
      "outputs": [
        {
          "internalType": "uint256",
          "name": "lpFeeRate",
          "type": "uint256"
        },
        {
          "internalType": "uint256",
          "name": "mtFeeRate",
          "type": "uint256"
        }
      ],
      "stateMutability": "view",
      "type": "function"
    },
    {
      "inputs": [
        {
          "internalType": "address",
          "name": "user",
          "type": "address"
        }
      ],
      "name": "getUserTradePermission",
      "outputs": [
        {
          "internalType": "bool",
          "name": "isBuyAllow",
          "type": "bool"
        },
        {
          "internalType": "bool",
          "name": "isSellAllow",
          "type": "bool"
        }
      ],
      "stateMutability": "view",
      "type": "function"
    },
    {
      "inputs": [],
      "name": "getVaultReserve",
      "outputs": [
        {
          "internalType": "uint256",
          "name": "baseReserve",
          "type": "uint256"
        },
        {
          "internalType": "uint256",
          "name": "quoteReserve",
          "type": "uint256"
        }
      ],
      "stateMutability": "view",
      "type": "function"
    },
    {
      "inputs": [
        {
          "internalType": "address",
          "name": "newOwner",
          "type": "address"
        }
      ],
      "name": "initOwner",
      "outputs": [],
      "stateMutability": "nonpayable",
      "type": "function"
    },
    {
      "inputs": [],
      "name": "name",
      "outputs": [
        {
          "internalType": "string",
          "name": "",
          "type": "string"
        }
      ],
      "stateMutability": "view",
      "type": "function"
    },
    {
      "inputs": [
        {
          "internalType": "address",
          "name": "",
          "type": "address"
        }
      ],
      "name": "nonces",
      "outputs": [
        {
          "internalType": "uint256",
          "name": "",
          "type": "uint256"
        }
      ],
      "stateMutability": "view",
      "type": "function"
    },
    {
      "inputs": [
        {
          "internalType": "address",
          "name": "owner",
          "type": "address"
        },
        {
          "internalType": "address",
          "name": "spender",
          "type": "address"
        },
        {
          "internalType": "uint256",
          "name": "value",
          "type": "uint256"
        },
        {
          "internalType": "uint256",
          "name": "deadline",
          "type": "uint256"
        },
        {
          "internalType": "uint8",
          "name": "v",
          "type": "uint8"
        },
        {
          "internalType": "bytes32",
          "name": "r",
          "type": "bytes32"
        },
        {
          "internalType": "bytes32",
          "name": "s",
          "type": "bytes32"
        }
      ],
      "name": "permit",
      "outputs": [],
      "stateMutability": "nonpayable",
      "type": "function"
    },
    {
      "inputs": [
        {
          "internalType": "address",
          "name": "trader",
          "type": "address"
        },
        {
          "internalType": "uint256",
          "name": "payBaseAmount",
          "type": "uint256"
        }
      ],
      "name": "querySellBase",
      "outputs": [
        {
          "internalType": "uint256",
          "name": "receiveQuoteAmount",
          "type": "uint256"
        },
        {
          "internalType": "uint256",
          "name": "mtFee",
          "type": "uint256"
        }
      ],
      "stateMutability": "view",
      "type": "function"
    },
    {
      "inputs": [
        {
          "internalType": "address",
          "name": "trader",
          "type": "address"
        },
        {
          "internalType": "uint256",
          "name": "payQuoteAmount",
          "type": "uint256"
        }
      ],
      "name": "querySellQuote",
      "outputs": [
        {
          "internalType": "uint256",
          "name": "receiveBaseAmount",
          "type": "uint256"
        },
        {
          "internalType": "uint256",
          "name": "mtFee",
          "type": "uint256"
        }
      ],
      "stateMutability": "view",
      "type": "function"
    },
    {
      "inputs": [
        {
          "internalType": "address",
          "name": "to",
          "type": "address"
        }
      ],
      "name": "sellBase",
      "outputs": [
        {
          "internalType": "uint256",
          "name": "receiveQuoteAmount",
          "type": "uint256"
        }
      ],
      "stateMutability": "nonpayable",
      "type": "function"
    },
    {
      "inputs": [
        {
          "internalType": "address",
          "name": "to",
          "type": "address"
        }
      ],
      "name": "sellQuote",
      "outputs": [
        {
          "internalType": "uint256",
          "name": "receiveBaseAmount",
          "type": "uint256"
        }
      ],
      "stateMutability": "nonpayable",
      "type": "function"
    },
    {
      "inputs": [
        {
          "internalType": "uint256",
          "name": "shareAmount",
          "type": "uint256"
        },
        {
          "internalType": "address",
          "name": "to",
          "type": "address"
        },
        {
          "internalType": "uint256",
          "name": "baseMinAmount",
          "type": "uint256"
        },
        {
          "internalType": "uint256",
          "name": "quoteMinAmount",
          "type": "uint256"
        },
        {
          "internalType": "bytes",
          "name": "data",
          "type": "bytes"
        },
        {
          "internalType": "uint256",
          "name": "deadline",
          "type": "uint256"
        }
      ],
      "name": "sellShares",
      "outputs": [
        {
          "internalType": "uint256",
          "name": "baseAmount",
          "type": "uint256"
        },
        {
          "internalType": "uint256",
          "name": "quoteAmount",
          "type": "uint256"
        }
      ],
      "stateMutability": "nonpayable",
      "type": "function"
    },
    {
      "inputs": [
        {
          "internalType": "bool",
          "name": "open",
          "type": "bool"
        }
      ],
      "name": "setBuy",
      "outputs": [],
      "stateMutability": "nonpayable",
      "type": "function"
    },
    {
      "inputs": [
        {
          "internalType": "address",
          "name": "newGasPriceLimitSource",
          "type": "address"
        }
      ],
      "name": "setGasPriceSource",
      "outputs": [],
      "stateMutability": "nonpayable",
      "type": "function"
    },
    {
      "inputs": [
        {
          "internalType": "address",
          "name": "newLpFeeRateModel",
          "type": "address"
        }
      ],
      "name": "setLpFeeRateModel",
      "outputs": [],
      "stateMutability": "nonpayable",
      "type": "function"
    },
    {
      "inputs": [
        {
          "internalType": "uint256",
          "name": "newLpFeeRate",
          "type": "uint256"
        }
      ],
      "name": "setLpFeeRateValue",
      "outputs": [],
      "stateMutability": "nonpayable",
      "type": "function"
    },
    {
      "inputs": [
        {
          "internalType": "address",
          "name": "newMaintainer",
          "type": "address"
        }
      ],
      "name": "setMaintainer",
      "outputs": [],
      "stateMutability": "nonpayable",
      "type": "function"
    },
    {
      "inputs": [
        {
          "internalType": "address",
          "name": "newMtFeeRateModel",
          "type": "address"
        }
      ],
      "name": "setMtFeeRateModel",
      "outputs": [],
      "stateMutability": "nonpayable",
      "type": "function"
    },
    {
      "inputs": [
        {
          "internalType": "uint256",
          "name": "newMtFeeRate",
          "type": "uint256"
        }
      ],
      "name": "setMtFeeRateValue",
      "outputs": [],
      "stateMutability": "nonpayable",
      "type": "function"
    },
    {
      "inputs": [
        {
          "internalType": "bool",
          "name": "open",
          "type": "bool"
        }
      ],
      "name": "setSell",
      "outputs": [],
      "stateMutability": "nonpayable",
      "type": "function"
    },
    {
      "inputs": [
        {
          "internalType": "address",
          "name": "newTradePermissionManager",
          "type": "address"
        }
      ],
      "name": "setTradePermissionManager",
      "outputs": [],
      "stateMutability": "nonpayable",
      "type": "function"
    },
    {
      "inputs": [],
      "name": "symbol",
      "outputs": [
        {
          "internalType": "string",
          "name": "",
          "type": "string"
        }
      ],
      "stateMutability": "view",
      "type": "function"
    },
    {
      "inputs": [],
      "name": "sync",
      "outputs": [],
      "stateMutability": "nonpayable",
      "type": "function"
    },
    {
      "inputs": [],
      "name": "totalSupply",
      "outputs": [
        {
          "internalType": "uint256",
          "name": "",
          "type": "uint256"
        }
      ],
      "stateMutability": "view",
      "type": "function"
    },
    {
      "inputs": [
        {
          "internalType": "address",
          "name": "to",
          "type": "address"
        },
        {
          "internalType": "uint256",
          "name": "amount",
          "type": "uint256"
        }
      ],
      "name": "transfer",
      "outputs": [
        {
          "internalType": "bool",
          "name": "",
          "type": "bool"
        }
      ],
      "stateMutability": "nonpayable",
      "type": "function"
    },
    {
      "inputs": [
        {
          "internalType": "address",
          "name": "from",
          "type": "address"
        },
        {
          "internalType": "address",
          "name": "to",
          "type": "address"
        },
        {
          "internalType": "uint256",
          "name": "amount",
          "type": "uint256"
        }
      ],
      "name": "transferFrom",
      "outputs": [
        {
          "internalType": "bool",
          "name": "",
          "type": "bool"
        }
      ],
      "stateMutability": "nonpayable",
      "type": "function"
    },
    {
      "inputs": [
        {
          "internalType": "address",
          "name": "newOwner",
          "type": "address"
        }
      ],
      "name": "transferOwnership",
      "outputs": [],
      "stateMutability": "nonpayable",
      "type": "function"
    },
    {
      "inputs": [
        {
          "internalType": "address",
          "name": "owner",
          "type": "address"
        },
        {
          "internalType": "address",
          "name": "maintainer",
          "type": "address"
        },
        {
          "internalType": "address",
          "name": "baseTokenAddress",
          "type": "address"
        },
        {
          "internalType": "address",
          "name": "quoteTokenAddress",
          "type": "address"
        },
        {
          "internalType": "address",
          "name": "lpFeeRateModel",
          "type": "address"
        },
        {
          "internalType": "address",
          "name": "mtFeeRateModel",
          "type": "address"
        },
        {
          "internalType": "address",
          "name": "tradePermissionManager",
          "type": "address"
        },
        {
          "internalType": "address",
          "name": "gasPriceSource",
          "type": "address"
        },
        {
          "internalType": "uint256",
          "name": "i",
          "type": "uint256"
        },
        {
          "internalType": "uint256",
          "name": "k",
          "type": "uint256"
        }
      ],
      "name": "init",
      "outputs": [],
      "stateMutability": "nonpayable",
      "type": "function"
    },
    {
      "inputs": [
        {
          "internalType": "address",
          "name": "_addr",
          "type": "address"
        }
      ],
      "name": "addressToShortString",
      "outputs": [
        {
          "internalType": "string",
          "name": "",
          "type": "string"
        }
      ],
      "stateMutability": "pure",
      "type": "function"
    },
    {
      "inputs": [],
      "name": "version",
      "outputs": [
        {
          "internalType": "string",
          "name": "",
          "type": "string"
        }
      ],
      "stateMutability": "pure",
      "type": "function"
    }
  ],
  "bytecode": "0x608060405234801561001057600080fd5b5061497d806100206000396000f3fe608060405234801561001057600080fd5b50600436106103995760003560e01c80637ecebe00116101e9578063d266d2981161010f578063ec2fd46d116100ad578063f6b06e701161007c578063f6b06e7014610719578063f811d69214610721578063fd1ed7e914610729578063fff6cae91461074457610399565b8063ec2fd46d146106e3578063ee27c689146106eb578063f2fde38b146106f3578063f685debf1461070657610399565b8063dd62ed3e116100e9578063dd62ed3e14610697578063dd93f59a146106aa578063e6064519146106bd578063eae8054e146106d057610399565b8063d266d29814610669578063d4b970461461067c578063d505accf1461068457610399565b8063a9059cbb11610187578063bbf5ce7811610156578063bbf5ce7814610628578063bd6015b414610630578063c8985ec314610643578063d0a494e41461065657610399565b8063a9059cbb146105e7578063b076a53a146105fa578063b441ef1a1461060d578063b56ceaa61461061557610399565b80638456db15116101c35780638456db15146105af57806395d89b41146105b7578063a382d1b9146105bf578063a8a4e9a4146105d457610399565b80637ecebe001461058c57806380b4105f1461059f578063812700ab146105a757610399565b806344096609116102ce57806365f6fcbb1161026c57806371f9100c1161023b57806371f9100c1461054857806379a04876146105505780637c8135b4146105635780637d7215041461058457610399565b806365f6fcbb1461050757806366410a211461050f57806369c407ff1461052257806370a082311461053557610399565b80634cc6cf4e116102a85780634cc6cf4e146104e75780634de4527e146104ef5780634e71e0c8146104f757806354fd4d50146104ff57610399565b806344096609146104aa5780634a248d2a146104bd5780634c85b425146104c557610399565b806318160ddd1161033b578063313ce56711610315578063313ce5671461046f57806336223ce9146104845780633644e5151461049a5780634322ec83146104a257610399565b806318160ddd1461043f57806323b872dd1461045457806330adf81f1461046757610399565b80630d009297116103775780630d009297146103f157806313ea5d291461040457806316048bc414610417578063171019401461042c57610399565b8063030ceb1d1461039e57806306fdde03146103b3578063095ea7b3146103d1575b600080fd5b6103b16103ac366004613d24565b61074c565b005b6103bb6107e8565b6040516103c8919061435d565b60405180910390f35b6103e46103df366004613eda565b610876565b6040516103c891906142b9565b6103b16103ff366004613d24565b61088d565b6103b1610412366004613d24565b6108ed565b61041f610980565b6040516103c8919061417f565b6103bb61043a366004613d24565b61098f565b610447610ab9565b6040516103c891906142d6565b6103e4610462366004613e2c565b610abf565b610447610c3a565b610477610c5e565b6040516103c8919061489b565b61048c610c67565b6040516103c8929190614844565b610447610c71565b61041f610c77565b61048c6104b8366004613d24565b610c86565b61041f610d93565b6104d86104d3366004613d24565b610da2565b6040516103c893929190614852565b61041f611081565b61041f611090565b6103b161109f565b6103bb61112d565b610447611151565b61048c61051d366004613eda565b6111ee565b6103b1610530366004613d73565b611346565b610447610543366004613d24565b611636565b610447611651565b61048c61055e366004613eda565b61168d565b610576610571366004613d24565b6116a1565b6040516103c89291906142c4565b6104476117d3565b61044761059a366004613d24565b6117d9565b61041f6117eb565b6103e46117fa565b61041f61180a565b6103bb611819565b6105c7611874565b6040516103c891906147ea565b6103b16105e2366004613d24565b6118b7565b6103e46105f5366004613eda565b61194a565b6103b1610608366004613f04565b611a19565b6103e4611a95565b61048c610623366004613f6c565b611aa5565b610447611db0565b61044761063e366004613d24565b611db6565b6103b1610651366004613f3c565b611fde565b6103b1610664366004613fe6565b6120a4565b6103b1610677366004613d24565b6125de565b61041f612671565b6103b1610692366004613e6c565b612680565b6104476106a5366004613d3f565b6127ef565b6104476106b8366004613d24565b61281a565b6103b16106cb366004613f04565b612a25565b6103b16106de366004613d24565b612aa1565b610447612b34565b610447612b3a565b6103b1610701366004613d24565b612b4c565b6103b1610714366004613f3c565b612bd1565b61041f612c8c565b610447612c9b565b610731612ca1565b6040516103c89796959493929190614868565b6103b1612d04565b6000546001600160a01b0316331461077f5760405162461bcd60e51b815260040161077690614680565b60405180910390fd5b6011546040517fcf5d25c0bfc3116f92ae66ef383cb1711740b7d63bc9a398dcea81db50b14867916107be916001600160a01b03909116908490614235565b60405180910390a1601180546001600160a01b0319166001600160a01b0392909216919091179055565b600b805460408051602060026001851615610100026000190190941693909304601f8101849004840282018401909252818152929183018282801561086e5780601f106108435761010080835404028352916020019161086e565b820191906000526020600020905b81548152906001019060200180831161085157829003601f168201915b505050505081565b6000610883338484612d58565b5060015b92915050565b600154600160a01b900460ff16156108b75760405162461bcd60e51b815260040161077690614539565b6001805460ff60a01b1916600160a01b179055600080546001600160a01b039092166001600160a01b0319909216919091179055565b6000546001600160a01b031633146109175760405162461bcd60e51b815260040161077690614680565b6004546040517f4a0b4f56d51e80b4326f54a5c49a82dd619e7f6f936f3f381de080d05dcbab1b91610956916001600160a01b03909116908490614235565b60405180910390a1600480546001600160a01b0319166001600160a01b0392909216919091179055565b6000546001600160a01b031681565b604080518082018252601081526f181899199a1a9b1b9c1cb0b131b232b360811b6020820152815160088082528184019093526060926001600160a01b0385169291849160208201818036833701905050905060005b6004811015610aae578260048583600c0160208110610a0057fe5b1a60f81b6001600160f81b031916901c60f81c60ff1681518110610a2057fe5b602001015160f81c60f81b828260020281518110610a3a57fe5b60200101906001600160f81b031916908160001a905350828482600c0160208110610a6157fe5b825191901a600f16908110610a7257fe5b602001015160f81c60f81b828260020260010181518110610a8f57fe5b60200101906001600160f81b031916908160001a9053506001016109e5565b50925050505b919050565b600c5481565b6001600160a01b0383166000908152600d6020526040812054821115610af75760405162461bcd60e51b81526004016107769061461d565b6001600160a01b0384166000908152600e60209081526040808320338452909152902054821115610b3a5760405162461bcd60e51b8152600401610776906143e2565b6001600160a01b0384166000908152600d6020526040902054610b63908363ffffffff612dc016565b6001600160a01b038086166000908152600d60205260408082209390935590851681522054610b98908363ffffffff612de816565b6001600160a01b038085166000908152600d60209081526040808320949094559187168152600e82528281203382529091522054610bdc908363ffffffff612dc016565b6001600160a01b038086166000818152600e6020908152604080832033845290915290819020939093559151908516919060008051602061492883398151915290610c289086906142d6565b60405180910390a35060019392505050565b7f6e71edae12b1b97f4d1f60370fef10105fa2faae0126114a169c64845d6126c981565b600a5460ff1681565b6007546008549091565b600f5481565b6004546001600160a01b031681565b601154604051638198edbf60e01b815260009182916001600160a01b0390911690638198edbf90610cbb90869060040161417f565b60206040518083038186803b158015610cd357600080fd5b505afa158015610ce7573d6000803e3d6000fd5b505050506040513d601f19601f82011682018060405250810190610d0b9190613f54565b601254604051638198edbf60e01b81529193506001600160a01b031690638198edbf90610d3c90869060040161417f565b60206040518083038186803b158015610d5457600080fd5b505afa158015610d68573d6000803e3d6000fd5b505050506040513d601f19601f82011682018060405250810190610d8c9190613f54565b9050915091565b6005546001600160a01b031681565b6000806000600160159054906101000a900460ff1615610dd45760405162461bcd60e51b815260040161077690614438565b6001805460ff60a81b1916600160a81b1790556005546040516370a0823160e01b81526000916001600160a01b0316906370a0823190610e1890309060040161417f565b60206040518083038186803b158015610e3057600080fd5b505afa158015610e44573d6000803e3d6000fd5b505050506040513d601f19601f82011682018060405250810190610e689190613f54565b6006546040516370a0823160e01b81529192506000916001600160a01b03909116906370a0823190610e9e90309060040161417f565b60206040518083038186803b158015610eb657600080fd5b505afa158015610eca573d6000803e3d6000fd5b505050506040513d601f19601f82011682018060405250810190610eee9190613f54565b60075460085491925090610f08848363ffffffff612dc016565b9550610f1a838263ffffffff612dc016565b945060008611610f3c5760405162461bcd60e51b8152600401610776906144c7565b600c54610f6d576103e8841015610f655760405162461bcd60e51b8152600401610776906145e6565b839650611002565b600082118015610f7b575080155b15610fac57610fa582610f99600c5489612e1490919063ffffffff16565b9063ffffffff612e4e16565b9650611002565b600082118015610fbc5750600081115b15611002576000610fcd8784612e80565b90506000610fdb8784612e80565b90506000828210610fec5782610fee565b815b9050610ffc600c5482612e9e565b99505050505b61100c8888612ec0565b611014612f99565b6001600160a01b0388166000908152600d6020526040908190205490517f1c172440bdebb59cd92a7f08f4227903a3305ab6f880cb25f93eddb66843a10291611060918b918b91614298565b60405180910390a150506001805460ff60a81b191690555092949193509150565b6011546001600160a01b031681565b6003546001600160a01b031681565b6001546001600160a01b031633146110c95760405162461bcd60e51b8152600401610776906143bb565b600154600080546040516001600160a01b0393841693909116917f8be0079c531659141344cd1fd0a4f28419497f9722a3daafe3b4186f6b6457e091a360018054600080546001600160a01b03199081166001600160a01b03841617909155169055565b604080518082019091526009815268044564d20312e302e360bc1b60208201525b90565b6007546005546040516370a0823160e01b81526000926111e99290916001600160a01b03909116906370a082319061118d90309060040161417f565b60206040518083038186803b1580156111a557600080fd5b505afa1580156111b9573d6000803e3d6000fd5b505050506040513d601f19601f820116820180604052508101906111dd9190613f54565b9063ffffffff612dc016565b905090565b6000806112026111fc611874565b846130c4565b50601154604051638198edbf60e01b81529193506000916001600160a01b0390911690638198edbf9061123990889060040161417f565b60206040518083038186803b15801561125157600080fd5b505afa158015611265573d6000803e3d6000fd5b505050506040513d601f19601f820116820180604052508101906112899190613f54565b601254604051638198edbf60e01b81529192506000916001600160a01b0390911690638198edbf906112bf90899060040161417f565b60206040518083038186803b1580156112d757600080fd5b505afa1580156112eb573d6000803e3d6000fd5b505050506040513d601f19601f8201168201806040525081019061130f9190613f54565b905061131b8482612e9e565b925061133b836111dd61132e8786612e9e565b879063ffffffff612dc016565b935050509250929050565b61134f8a61088d565b866001600160a01b0316886001600160a01b031614156113815760405162461bcd60e51b81526004016107769061445b565b600580546001600160a01b03808b166001600160a01b03199283161790925560068054928a169290911691909117905581158015906113cf57506ec097ce7bc90715b34b9f10000000008211155b6113d857600080fd5b6014829055670de0b6b3a76400008111156113f257600080fd5b6013819055601180546001600160a01b03199081166001600160a01b038981169190911790925560128054821688841617905560028054821687841617905560038054821686841617815560048054909216928c1692909217905560408051808201825260018152605f60f81b6020808301919091528251808401909352928252620444c560ec1b92820192909252808261148c3061098f565b60405160200161149e9392919061411f565b604051602081830303815290604052600b90805190602001906114c2929190613bee565b50604080518082019091526003808252620444c560ec1b60209092019182526114ed91600991613bee565b50600560009054906101000a90046001600160a01b03166001600160a01b031663313ce5676040518163ffffffff1660e01b815260040160206040518083038186803b15801561153c57600080fd5b505afa158015611550573d6000803e3d6000fd5b505050506040513d601f19601f82011682018060405250810190611574919061404d565b600a805460ff191660ff9290921691909117905560405146907f8b73c3c69bb8fe3d512ecc4cf759cc79239f7b179b0ffacaa9a75d522b39400f906115bb90600b906140af565b60408051918290038220828201825260018352603160f81b602093840152905161160c93927fc89efdaa54c0f20c7adf612882df0950f5a951637e0307cdcb4c672f298b8bc6918691309101614331565b60408051601f198184030181529190528051602090910120600f5550505050505050505050505050565b6001600160a01b03166000908152600d602052604090205490565b6008546006546040516370a0823160e01b81526000926111e99290916001600160a01b03909116906370a082319061118d90309060040161417f565b60008061120261169b611874565b846131ca565b6001546000908190600160b01b900460ff1615801561173b575060025460405163babcc53960e01b81526001600160a01b039091169063babcc539906116eb90869060040161417f565b60206040518083038186803b15801561170357600080fd5b505afa158015611717573d6000803e3d6000fd5b505050506040513d601f19601f8201168201806040525081019061173b9190613f20565b600154909250600160b81b900460ff16158015610d8c575060025460405163babcc53960e01b81526001600160a01b039091169063babcc5399061178390869060040161417f565b60206040518083038186803b15801561179b57600080fd5b505afa1580156117af573d6000803e3d6000fd5b505050506040513d601f19601f82011682018060405250810190610d8c9190613f20565b60075481565b60106020526000908152604090205481565b6002546001600160a01b031681565b600154600160b81b900460ff1681565b6001546001600160a01b031681565b6009805460408051602060026001851615610100026000190190941693909304601f8101849004840282018401909252818152929183018282801561086e5780601f106108435761010080835404028352916020019161086e565b61187c613c6c565b601454815260135460208201526007546040820152600854606082015260006080820181905260a0820152600160c082015261114e816132cb565b6000546001600160a01b031633146118e15760405162461bcd60e51b815260040161077690614680565b6012546040517fe968821edb3ccf820ae1a0362f3908c52be12dee0bde48a6b98adf57c3277d3e91611920916001600160a01b03909116908490614235565b60405180910390a1601280546001600160a01b0319166001600160a01b0392909216919091179055565b336000908152600d60205260408120548211156119795760405162461bcd60e51b81526004016107769061461d565b336000908152600d6020526040902054611999908363ffffffff612dc016565b336000908152600d6020526040808220929092556001600160a01b038516815220546119cb908363ffffffff612de816565b6001600160a01b0384166000818152600d602052604090819020929092559051339060008051602061492883398151915290611a089086906142d6565b60405180910390a350600192915050565b6000546001600160a01b03163314611a435760405162461bcd60e51b815260040161077690614680565b7fc2e7debb07fdaffbfccbf1e1473673167b6a960decabe5d1dbf22b4597d5577781604051611a7291906142b9565b60405180910390a16001805460ff60b81b19169115600160b81b02919091179055565b600154600160b01b900460ff1681565b6001546000908190600160a81b900460ff1615611ad45760405162461bcd60e51b815260040161077690614438565b6001805460ff60a81b1916600160a81b17905542831015611b075760405162461bcd60e51b815260040161077690614777565b336000908152600d6020526040902054891115611b365760405162461bcd60e51b8152600401610776906145be565b6005546040516370a0823160e01b81526000916001600160a01b0316906370a0823190611b6790309060040161417f565b60206040518083038186803b158015611b7f57600080fd5b505afa158015611b93573d6000803e3d6000fd5b505050506040513d601f19601f82011682018060405250810190611bb79190613f54565b6006546040516370a0823160e01b81529192506000916001600160a01b03909116906370a0823190611bed90309060040161417f565b60206040518083038186803b158015611c0557600080fd5b505afa158015611c19573d6000803e3d6000fd5b505050506040513d601f19601f82011682018060405250810190611c3d9190613f54565b600c54909150611c5781610f99858f63ffffffff612e1416565b9450611c6d81610f99848f63ffffffff612e1416565b9350898510158015611c7f5750888410155b611c9b5760405162461bcd60e51b815260040161077690614591565b611ca5338d613375565b611caf8b86613442565b611cb98b85613465565b611cc1612f99565b8615611d30578a6001600160a01b0316632411d338338e88888d8d6040518763ffffffff1660e01b8152600401611cfd969594939291906141f5565b600060405180830381600087803b158015611d1757600080fd5b505af1158015611d2b573d6000803e3d6000fd5b505050505b7f55caccde83781f39bfc1296eff45655b6496729443a7d48958b18b3b685600a5338c8e600d6000336001600160a01b03166001600160a01b0316815260200190815260200160002054604051611d8a9493929190614193565b60405180910390a150506001805460ff60a81b1916905550909890975095505050505050565b60085481565b600154600090600160a81b900460ff1615611de35760405162461bcd60e51b815260040161077690614438565b6001805460ff60a81b1916600160a81b17905560035460408051631b53398f60e21b815290516001600160a01b0390921691636d4ce63c91600480820192602092909190829003018186803b158015611e3b57600080fd5b505afa158015611e4f573d6000803e3d6000fd5b505050506040513d601f19601f82011682018060405250810190611e739190613f54565b3a1115611e925760405162461bcd60e51b8152600401610776906147c0565b6001548290600160b81b900460ff16158015611f29575060025460405163babcc53960e01b81526001600160a01b039091169063babcc53990611ed990849060040161417f565b60206040518083038186803b158015611ef157600080fd5b505afa158015611f05573d6000803e3d6000fd5b505050506040513d601f19601f82011682018060405250810190611f299190613f20565b611f455760405162461bcd60e51b815260040161077690614649565b6000611f4f611151565b90506000611f5d328361168d565b9094509050611f6c8585613465565b600454611f82906001600160a01b031682613465565b611f8a612f99565b60055460065460405160008051602061490883398151915292611fc1926001600160a01b039182169291169086908990339061424f565b60405180910390a150506001805460ff60a81b1916905550919050565b6000546001600160a01b031633146120085760405162461bcd60e51b815260040161077690614680565b6011546040516322acb71760e11b81526001600160a01b03909116906345596e2e906120389084906004016142d6565b600060405180830381600087803b15801561205257600080fd5b505af1158015612066573d6000803e3d6000fd5b505050507f022e893863a4a378b4cfd168cf2efc0856ad6c98f72a7d2a75f86d3a597ba8218160405161209991906142d6565b60405180910390a150565b600154600160a81b900460ff16156120ce5760405162461bcd60e51b815260040161077690614438565b6001805460ff60a81b1916600160a81b17908190558390600160b81b900460ff16158015612177575060025460405163babcc53960e01b81526001600160a01b039091169063babcc5399061212790849060040161417f565b60206040518083038186803b15801561213f57600080fd5b505afa158015612153573d6000803e3d6000fd5b505050506040513d601f19601f820116820180604052508101906121779190613f20565b6121935760405162461bcd60e51b815260040161077690614649565b6001548490600160b01b900460ff1615801561222a575060025460405163babcc53960e01b81526001600160a01b039091169063babcc539906121da90849060040161417f565b60206040518083038186803b1580156121f257600080fd5b505afa158015612206573d6000803e3d6000fd5b505050506040513d601f19601f8201168201806040525081019061222a9190613f20565b6122465760405162461bcd60e51b815260040161077690614747565b6122508588613442565b61225a8587613465565b82156122c75760405163eb2021c360e01b81526001600160a01b0386169063eb2021c3906122949033908b908b908a908a906004016141bc565b600060405180830381600087803b1580156122ae57600080fd5b505af11580156122c2573d6000803e3d6000fd5b505050505b6005546040516370a0823160e01b81526000916001600160a01b0316906370a08231906122f890309060040161417f565b60206040518083038186803b15801561231057600080fd5b505afa158015612324573d6000803e3d6000fd5b505050506040513d601f19601f820116820180604052508101906123489190613f54565b6006546040516370a0823160e01b81529192506000916001600160a01b03909116906370a082319061237e90309060040161417f565b60206040518083038186803b15801561239657600080fd5b505afa1580156123aa573d6000803e3d6000fd5b505050506040513d601f19601f820116820180604052508101906123ce9190613f54565b9050600754821015806123e357506008548110155b6123ff5760405162461bcd60e51b815260040161077690614390565b6007548210156124c057600061242060085483612dc090919063ffffffff16565b905060008061242f32846111ee565b915091508161244986600754612dc090919063ffffffff16565b11156124675760405162461bcd60e51b815260040161077690614390565b60045461247d906001600160a01b031682613442565b600654600554604051600080516020614908833981519152926124b4926001600160a01b039182169291169087908790329061424f565b60405180910390a15050505b6008548110156125815760006124e160075484612dc090919063ffffffff16565b90506000806124f0328461168d565b915091508161250a85600854612dc090919063ffffffff16565b11156125285760405162461bcd60e51b815260040161077690614390565b60045461253e906001600160a01b031682613465565b60055460065460405160008051602061490883398151915292612575926001600160a01b039182169291169087908790339061424f565b60405180910390a15050505b612589612f99565b7f0b82e93068db15abd9fbb2682c65462ea8a0a10582dce93a5664818e296f54eb33888b8b6040516125be9493929190614193565b60405180910390a150506001805460ff60a81b1916905550505050505050565b6000546001600160a01b031633146126085760405162461bcd60e51b815260040161077690614680565b6003546040517fe71e5f179a8230ba59e5796a124135ebe7a4c9ba66e777a77dd67f0f5085871e91612647916001600160a01b03909116908490614235565b60405180910390a1600380546001600160a01b0319166001600160a01b0392909216919091179055565b6006546001600160a01b031681565b428410156126a05760405162461bcd60e51b815260040161077690614563565b600f546001600160a01b03881660009081526010602090815260408083208054600181019091559051929392612701927f6e71edae12b1b97f4d1f60370fef10105fa2faae0126114a169c64845d6126c9928d928d928d92918d91016142df565b60405160208183030381529060405280519060200120604051602001612728929190614164565b6040516020818303038152906040528051906020012090506000600182868686604051600081526020016040526040516127659493929190614313565b6020604051602081039080840390855afa158015612787573d6000803e3d6000fd5b5050604051601f1901519150506001600160a01b038116158015906127bd5750886001600160a01b0316816001600160a01b0316145b6127d95760405162461bcd60e51b815260040161077690614710565b6127e4898989612d58565b505050505050505050565b6001600160a01b039182166000908152600e6020908152604080832093909416825291909152205490565b600154600090600160a81b900460ff16156128475760405162461bcd60e51b815260040161077690614438565b6001805460ff60a81b1916600160a81b17905560035460408051631b53398f60e21b815290516001600160a01b0390921691636d4ce63c91600480820192602092909190829003018186803b15801561289f57600080fd5b505afa1580156128b3573d6000803e3d6000fd5b505050506040513d601f19601f820116820180604052508101906128d79190613f54565b3a11156128f65760405162461bcd60e51b8152600401610776906147c0565b6001548290600160b01b900460ff1615801561298d575060025460405163babcc53960e01b81526001600160a01b039091169063babcc5399061293d90849060040161417f565b60206040518083038186803b15801561295557600080fd5b505afa158015612969573d6000803e3d6000fd5b505050506040513d601f19601f8201168201806040525081019061298d9190613f20565b6129a95760405162461bcd60e51b815260040161077690614747565b60006129b3611651565b905060006129c132836111ee565b90945090506129d08585613442565b6004546129e6906001600160a01b031682613442565b6129ee612f99565b60065460055460405160008051602061490883398151915292611fc1926001600160a01b039182169291169086908990339061424f565b6000546001600160a01b03163314612a4f5760405162461bcd60e51b815260040161077690614680565b7f783ddcbb9605b3a4e2249c445cee962edf1b7c5e40eef0571e0a45311ac1cec181604051612a7e91906142b9565b60405180910390a16001805460ff60b01b19169115600160b01b02919091179055565b6000546001600160a01b03163314612acb5760405162461bcd60e51b815260040161077690614680565b6002546040517f0bec6c367a89b143790909eb85c607d6b4661114e71f4855130d0a78c4613f5691612b0a916001600160a01b03909116908490614235565b60405180910390a1600280546001600160a01b0319166001600160a01b0392909216919091179055565b60135481565b60006111e9612b47611874565b613488565b6000546001600160a01b03163314612b765760405162461bcd60e51b815260040161077690614680565b600080546040516001600160a01b03808516939216917fdcf55418cee3220104fef63f979ff3c4097ad240c0c43dcb33ce837748983e6291a3600180546001600160a01b0319166001600160a01b0392909216919091179055565b6000546001600160a01b03163314612bfb5760405162461bcd60e51b815260040161077690614680565b6012546040516322acb71760e11b81526001600160a01b03909116906345596e2e90612c2b9084906004016142d6565b600060405180830381600087803b158015612c4557600080fd5b505af1158015612c59573d6000803e3d6000fd5b505050507f0942f12294d9d5c9b4f2f2f77357e46eefa2acabb3fc2dbfb96b436f3ffc538c8160405161209991906142d6565b6012546001600160a01b031681565b60145481565b6000806000806000806000612cb4613c6c565b612cbc611874565b905080600001519750806020015196508060400151955080606001519450806080015193508060a0015192508060c001516002811115612cf857fe5b91505090919293949596565b600154600160a81b900460ff1615612d2e5760405162461bcd60e51b815260040161077690614438565b6001805460ff60a81b1916600160a81b179055612d49612f99565b6001805460ff60a81b19169055565b6001600160a01b038084166000818152600e602090815260408083209487168084529490915290819020849055517f8c5be1e5ebec7d5bd14f71427d1e84f3dd0314c0f7b2291e5b200ac8c7c3b92590612db39085906142d6565b60405180910390a3505050565b600082821115612de25760405162461bcd60e51b815260040161077690614516565b50900390565b600082820183811015612e0d5760405162461bcd60e51b8152600401610776906146a3565b9392505050565b600082612e2357506000610887565b82820282848281612e3057fe5b0414612e0d5760405162461bcd60e51b81526004016107769061479d565b6000808211612e6f5760405162461bcd60e51b8152600401610776906144ee565b818381612e7857fe5b049392505050565b6000612e0d82610f9985670de0b6b3a764000063ffffffff612e1416565b6000670de0b6b3a7640000612eb9848463ffffffff612e1416565b81612e7857fe5b6001600160a01b0382166000908152600d6020526040902054612ee9908263ffffffff612de816565b6001600160a01b0383166000908152600d6020526040902055600c54612f15908263ffffffff612de816565b600c556040516001600160a01b038316907f0f6798a560793a54c3bcfe86a93cde1e73087d944c0ea20544137d412139688590612f539084906142d6565b60405180910390a2816001600160a01b031660006001600160a01b031660008051602061492883398151915283604051612f8d91906142d6565b60405180910390a35050565b6005546040516370a0823160e01b81526000916001600160a01b0316906370a0823190612fca90309060040161417f565b60206040518083038186803b158015612fe257600080fd5b505afa158015612ff6573d6000803e3d6000fd5b505050506040513d601f19601f8201168201806040525081019061301a9190613f54565b6006546040516370a0823160e01b81529192506000916001600160a01b03909116906370a082319061305090309060040161417f565b60206040518083038186803b15801561306857600080fd5b505afa15801561307c573d6000803e3d6000fd5b505050506040513d601f19601f820116820180604052508101906130a09190613f54565b905060075482146130b15760078290555b60085481146130c05760088190555b5050565b600080808460c0015160028111156130d857fe5b14156130f3576130e8848461357a565b9150600190506131c3565b60018460c00151600281111561310557fe5b1415613115576130e884846135a1565b600061313285606001518660a00151612dc090919063ffffffff16565b9050600061315186608001518760400151612dc090919063ffffffff16565b90508185101561317c5761316586866135be565b93506002925080841115613177578093505b6131c0565b8185141561319057809350600092506131c0565b6131b96131ac876131a7888663ffffffff612dc016565b61357a565b829063ffffffff612de816565b9350600192505b50505b9250929050565b600080808460c0015160028111156131de57fe5b14156131f9576131ee84846135f9565b9150600290506131c3565b60018460c00151600281111561320b57fe5b14156132b657600061322e85604001518660800151612dc090919063ffffffff16565b9050600061324d8660a001518760600151612dc090919063ffffffff16565b905081851015613278576132618686613618565b93506001925080841115613273578093505b6132af565b8185141561328c57809350600092506132af565b6132a86131ac876132a3888663ffffffff612dc016565b6135f9565b9350600292505b50506131c3565b6132c0848461364a565b946002945092505050565b60028160c0015160028111156132dd57fe5b141561331c57613312816060015161330683608001518460400151612dc090919063ffffffff16565b83516020850151613669565b60a0820152613372565b60018160c00151600281111561332e57fe5b14156133725761336c81604001516133578360a001518460600151612dc090919063ffffffff16565b83516133629061371a565b8460200151613669565b60808201525b50565b6001600160a01b0382166000908152600d602052604090205461339e908263ffffffff612dc016565b6001600160a01b0383166000908152600d6020526040902055600c546133ca908263ffffffff612dc016565b600c556040516001600160a01b038316907fcc16f5dbb4873280815c1ee09dbd06736cffcc184412cf7a71a0fdb75d397ca5906134089084906142d6565b60405180910390a260006001600160a01b0316826001600160a01b031660008051602061492883398151915283604051612f8d91906142d6565b80156130c0576005546130c0906001600160a01b0316838363ffffffff61373b16565b80156130c0576006546130c0906001600160a01b0316838363ffffffff61373b16565b600060028260c00151600281111561349c57fe5b141561352757606082015160a08301516000916134d2916134c89190610f99908063ffffffff612e1416565b8460600151612e80565b905061350f6134e5846020015183612e9e565b602085015161350390670de0b6b3a76400009063ffffffff612dc016565b9063ffffffff612de816565b905061351f836000015182612e80565b915050610ab4565b604082015160808301516000916135579161354d9190610f99908063ffffffff612e1416565b8460400151612e80565b905061356a6134e5846020015183612e9e565b905061351f836000015182612e9e565b6000612e0d8360800151846080015184613597876000015161371a565b8760200151613796565b6000612e0d8360800151846040015184613597876000015161371a565b6000612e0d8360a001516135df848660600151612de890919063ffffffff16565b606086015186516135ef9061371a565b87602001516139d2565b6000612e0d8360a001518460a001518486600001518760200151613796565b6000612e0d8360800151613639848660400151612de890919063ffffffff16565b6040860151865160208801516139d2565b6000612e0d8360a0015184606001518486600001518760200151613796565b6000816136915761368a61367d8486612e9e565b869063ffffffff612de816565b9050613712565b60006136d56136d06ec097ce7bc90715b34b9f100000000061350389610f998a6136c460048b028c63ffffffff612e1416565b9063ffffffff612e1416565b613aa3565b90506000613701670de0b6b3a76400006135036136f8858363ffffffff612dc016565b87600202612e80565b905061370d8782612e9e565b925050505b949350505050565b60006108876ec097ce7bc90715b34b9f10000000008363ffffffff612e4e16565b6137918363a9059cbb60e01b848460405160240161375a92919061427f565b60408051601f198184030181529190526020810180516001600160e01b03166001600160e01b031990931692909217909152613ada565b505050565b60008086116137b75760405162461bcd60e51b815260040161077690614410565b836137c4575060006139c9565b816137f157846137d48486612e9e565b116137e8576137e38385612e9e565b6137ea565b845b90506139c9565b670de0b6b3a764000082141561385f57600061382a613816888063ffffffff612e1416565b610f99886136c4888a63ffffffff612e1416565b905061385761384782670de0b6b3a764000063ffffffff612de816565b610f99888463ffffffff612e1416565b9150506139c9565b600061388c613874858763ffffffff612e1416565b613503896136c48a610f99898463ffffffff612e1416565b905060006138ac876136c4670de0b6b3a76400008763ffffffff612dc016565b905060008282106138d2576138c7828463ffffffff612dc016565b9150600090506138e9565b6138e2838363ffffffff612dc016565b9150600190505b61390182670de0b6b3a764000063ffffffff612e4e16565b9150600061393861392560046136c4670de0b6b3a76400008a63ffffffff612dc016565b6139338c6136c48a8f612e9e565b612e9e565b90506139516136d082613503868063ffffffff612e1416565b9050600061397260026136c4670de0b6b3a76400008a63ffffffff612dc016565b9050600083156139935761398c838663ffffffff612dc016565b90506139a6565b6139a3858463ffffffff612de816565b90505b6139c06139b38284613b97565b8c9063ffffffff612dc016565b96505050505050505b95945050505050565b60008086116139f35760405162461bcd60e51b815260040161077690614410565b6000613a15613a08878763ffffffff612dc016565b859063ffffffff612e1416565b905082613a345761385781670de0b6b3a764000063ffffffff612e4e16565b6000613a53613a4d88610f998b8063ffffffff612e1416565b87612e80565b90506000613a618583612e9e565b9050613a966ec097ce7bc90715b34b9f1000000000610f99856136c485613503670de0b6b3a76400008c63ffffffff612dc016565b9998505050505050505050565b80600160028204015b81811015613ad457809150600281828581613ac357fe5b040181613acc57fe5b049050613aac565b50919050565b60006060836001600160a01b031683604051613af69190614093565b6000604051808303816000865af19150503d8060008114613b33576040519150601f19603f3d011682016040523d82523d6000602084013e613b38565b606091505b509150915081613b5a5760405162461bcd60e51b815260040161077690614492565b805115613b915780806020019051810190613b759190613f20565b613b915760405162461bcd60e51b8152600401610776906146c6565b50505050565b6000612e0d82613bb585670de0b6b3a764000063ffffffff612e1416565b9063ffffffff613bc116565b600080613bce8484612e4e565b905082810284038015613be657506001019050610887565b509050610887565b828054600181600116156101000203166002900490600052602060002090601f016020900481019282601f10613c2f57805160ff1916838001178555613c5c565b82800160010185558215613c5c579182015b82811115613c5c578251825591602001919060010190613c41565b50613c68929150613cb3565b5090565b6040518060e0016040528060008152602001600081526020016000815260200160008152602001600081526020016000815260200160006002811115613cae57fe5b905290565b61114e91905b80821115613c685760008155600101613cb9565b80356001600160a01b038116811461088757600080fd5b60008083601f840112613cf5578182fd5b50813567ffffffffffffffff811115613d0c578182fd5b6020830191508360208285010111156131c357600080fd5b600060208284031215613d35578081fd5b612e0d8383613ccd565b60008060408385031215613d51578081fd5b613d5b8484613ccd565b9150613d6a8460208501613ccd565b90509250929050565b6000806000806000806000806000806101408b8d031215613d92578586fd5b8a35613d9d816148d5565b995060208b0135613dad816148d5565b985060408b0135613dbd816148d5565b975060608b0135613dcd816148d5565b965060808b0135613ddd816148d5565b955060a08b0135613ded816148d5565b9450613dfc8c60c08d01613ccd565b9350613e0b8c60e08d01613ccd565b92506101008b013591506101208b013590509295989b9194979a5092959850565b600080600060608486031215613e40578283fd5b8335613e4b816148d5565b92506020840135613e5b816148d5565b929592945050506040919091013590565b600080600080600080600060e0888a031215613e86578283fd5b613e908989613ccd565b9650613e9f8960208a01613ccd565b955060408801359450606088013593506080880135613ebd816148f8565b9699959850939692959460a0840135945060c09093013592915050565b60008060408385031215613eec578182fd5b613ef68484613ccd565b946020939093013593505050565b600060208284031215613f15578081fd5b8135612e0d816148ea565b600060208284031215613f31578081fd5b8151612e0d816148ea565b600060208284031215613f4d578081fd5b5035919050565b600060208284031215613f65578081fd5b5051919050565b600080600080600080600060c0888a031215613f86578283fd5b873596506020880135613f98816148d5565b95506040880135945060608801359350608088013567ffffffffffffffff811115613fc1578384fd5b613fcd8a828b01613ce4565b989b979a5095989497959660a090950135949350505050565b600080600080600060808688031215613ffd578283fd5b85359450602086013593506140158760408801613ccd565b9250606086013567ffffffffffffffff811115614030578182fd5b61403c88828901613ce4565b969995985093965092949392505050565b60006020828403121561405e578081fd5b8151612e0d816148f8565b60008284528282602086013780602084860101526020601f19601f85011685010190509392505050565b600082516140a58184602087016148a9565b9190910192915050565b60008083546001808216600081146140ce57600181146140e557614114565b60ff198316865260028304607f1686019350614114565b600283048786526020808720875b8381101561410c5781548a8201529085019082016140f3565b505050860193505b509195945050505050565b600084516141318184602089016148a9565b84519083016141448282602089016148a9565b84519181016141578382602089016148a9565b9091019695505050505050565b61190160f01b81526002810192909252602282015260420190565b6001600160a01b0391909116815260200190565b6001600160a01b0394851681529290931660208301526040820152606081019190915260800190565b600060018060a01b0387168252856020830152846040830152608060608301526141ea608083018486614069565b979650505050505050565b600060018060a01b038816825286602083015285604083015284606083015260a0608083015261422960a083018486614069565b98975050505050505050565b6001600160a01b0392831681529116602082015260400190565b6001600160a01b039586168152938516602085015260408401929092526060830152909116608082015260a00190565b6001600160a01b03929092168252602082015260400190565b6001600160a01b039390931683526020830191909152604082015260600190565b901515815260200190565b91151582521515602082015260400190565b90815260200190565b9586526001600160a01b0394851660208701529290931660408501526060840152608083019190915260a082015260c00190565b93845260ff9290921660208401526040830152606082015260800190565b9485526020850193909352604084019190915260608301526001600160a01b0316608082015260a00190565b600060208252825180602084015261437c8160408501602087016148a9565b601f01601f19169190910160400192915050565b60208082526011908201527011931054d217d313d05397d19052531151607a1b604082015260600190565b6020808252600d908201526c494e56414c49445f434c41494d60981b604082015260600190565b60208082526014908201527308298989eae829c868abe9c9ea8be8a9c9eaa8e960631b604082015260600190565b6020808252600e908201526d5441524745545f49535f5a45524f60901b604082015260600190565b60208082526009908201526814915153951490539560ba1b604082015260600190565b6020808252601a908201527f424153455f51554f54455f43414e5f4e4f545f42455f53414d45000000000000604082015260600190565b6020808252818101527f5361666545524332303a206c6f772d6c6576656c2063616c6c206661696c6564604082015260600190565b6020808252600d908201526c1393d7d09054d157d253941555609a1b604082015260600190565b6020808252600e908201526d2224ab24a224a723afa2a92927a960911b604082015260600190565b60208082526009908201526829aaa12fa2a92927a960b91b604082015260600190565b60208082526010908201526f1113d113d7d25392551250531256915160821b604082015260600190565b6020808252601490820152731113d113d7d1159357d3140e881156141254915160621b604082015260600190565b6020808252601390820152720ae92a89088a482aebe9c9ea8be8a9c9eaa8e9606b1b604082015260600190565b6020808252600e908201526d08898a0be9c9ea8be8a9c9eaa8e960931b604082015260600190565b6020808252601c908201527f494e53554646494349454e545f4c49515549444954595f4d494e454400000000604082015260600190565b6020808252601290820152710848298829c868abe9c9ea8be8a9c9eaa8e960731b604082015260600190565b60208082526017908201527f5452414445525f53454c4c5f4e4f545f414c4c4f574544000000000000000000604082015260600190565b6020808252600990820152682727aa2fa7aba722a960b91b604082015260600190565b60208082526009908201526820a2222fa2a92927a960b91b604082015260600190565b6020808252602a908201527f5361666545524332303a204552433230206f7065726174696f6e20646964206e6040820152691bdd081cdd58d8d9595960b21b606082015260800190565b6020808252601e908201527f444f444f5f44564d5f4c503a20494e56414c49445f5349474e41545552450000604082015260600190565b60208082526016908201527515149051115497d0955657d393d517d0531313d5d15160521b604082015260600190565b6020808252600c908201526b1512535157d156141254915160a21b604082015260600190565b60208082526009908201526826aaa62fa2a92927a960b91b604082015260600190565b60208082526010908201526f11d054d7d4149250d157d15610d1515160821b604082015260600190565b600060e082019050825182526020830151602083015260408301516040830152606083015160608301526080830151608083015260a083015160a083015260c08301516003811061483757fe5b8060c08401525092915050565b918252602082015260400190565b9283526020830191909152604082015260600190565b968752602087019590955260408601939093526060850191909152608084015260a083015260ff1660c082015260e00190565b60ff91909116815260200190565b60005b838110156148c45781810151838201526020016148ac565b83811115613b915750506000910152565b6001600160a01b038116811461337257600080fd5b801515811461337257600080fd5b60ff8116811461337257600080fdfeaab6d03ea36f5f89ed87167c37cd684594ee4d483b7d8b82cef6c3fcc54dc24cddf252ad1be2c89b69c2b068fc378daa952ba7f163c4a11628f55a4df523b3efa2646970667358221220a09f68115d952ddacc354efa7096ac3dfff3d8d1a45a6d23ecf1392ec7e75a1064736f6c63430006090033",
  "immutableReferences": {},
  "source": "/*\n\n    Copyright 2020 DODO ZOO.\n    SPDX-License-Identifier: Apache-2.0\n\n*/\n\npragma solidity 0.6.9;\npragma experimental ABIEncoderV2;\n\nimport {IFeeRateModel} from \"../../lib/FeeRateModel.sol\";\nimport {IPermissionManager} from \"../../lib/PermissionManager.sol\";\nimport {IExternalValue} from \"../../lib/ExternalValue.sol\";\nimport {IERC20} from \"../../intf/IERC20.sol\";\nimport {DVMTrader} from \"./DVMTrader.sol\";\nimport {DVMFunding} from \"./DVMFunding.sol\";\nimport {DVMVault} from \"./DVMVault.sol\";\n\ncontract DVM is DVMTrader, DVMFunding {\n    function init(\n        address owner,\n        address maintainer,\n        address baseTokenAddress,\n        address quoteTokenAddress,\n        address lpFeeRateModel,\n        address mtFeeRateModel,\n        address tradePermissionManager,\n        address gasPriceSource,\n        uint256 i,\n        uint256 k\n    ) external {\n        initOwner(owner);\n\n        require(baseTokenAddress != quoteTokenAddress, \"BASE_QUOTE_CAN_NOT_BE_SAME\");\n        _BASE_TOKEN_ = IERC20(baseTokenAddress);\n        _QUOTE_TOKEN_ = IERC20(quoteTokenAddress);\n\n        require(i > 0 && i <= 10**36);\n        _I_ = i;\n\n        require(k <= 10**18);\n        _K_ = k;\n\n        _LP_FEE_RATE_MODEL_ = IFeeRateModel(lpFeeRateModel);\n        _MT_FEE_RATE_MODEL_ = IFeeRateModel(mtFeeRateModel);\n        _TRADE_PERMISSION_ = IPermissionManager(tradePermissionManager);\n        _GAS_PRICE_LIMIT_ = IExternalValue(gasPriceSource);\n        _MAINTAINER_ = maintainer;\n\n        string memory connect = \"_\";\n        string memory suffix = \"DLP\";\n\n        name = string(abi.encodePacked(suffix, connect, addressToShortString(address(this))));\n        symbol = \"DLP\";\n        decimals = _BASE_TOKEN_.decimals();\n\n        // ============================== Permit ====================================\n        uint256 chainId;\n        assembly {\n            chainId := chainid()\n        }\n        DOMAIN_SEPARATOR = keccak256(\n            abi.encode(\n                // keccak256('EIP712Domain(string name,string version,uint256 chainId,address verifyingContract)'),\n                0x8b73c3c69bb8fe3d512ecc4cf759cc79239f7b179b0ffacaa9a75d522b39400f,\n                keccak256(bytes(name)),\n                keccak256(bytes(\"1\")),\n                chainId,\n                address(this)\n            )\n        );\n        // ==========================================================================\n    }\n\n    function addressToShortString(address _addr) public pure returns (string memory) {\n        bytes32 value = bytes32(uint256(_addr));\n        bytes memory alphabet = \"0123456789abcdef\";\n\n        bytes memory str = new bytes(8);\n        for (uint256 i = 0; i < 4; i++) {\n            str[i * 2] = alphabet[uint8(value[i + 12] >> 4)];\n            str[1 + i * 2] = alphabet[uint8(value[i + 12] & 0x0f)];\n        }\n        return string(str);\n    }\n\n    // ============ Version Control ============\n    function version() external pure returns (string memory) {\n        return \"DVM 1.0.0\";\n    }\n}\n",
  "sourcePath": "/Users/niutaotao/projects/dodo/contractV2/contracts/DODOVendingMachine/impl/DVM.sol",
  "compiler": {
    "name": "solc",
    "version": "0.6.9+commit.3e3065ac.Emscripten.clang"
  },
  "schemaVersion": "3.3.2",
  "updatedAt": "2020-12-24T13:41:25.702Z",
  "devdoc": {
    "methods": {
      "allowance(address,address)": {
        "details": "Function to check the amount of tokens that an owner _ALLOWED_ to a spender.",
        "params": {
          "owner": "address The address which owns the funds.",
          "spender": "address The address which will spend the funds."
        },
        "returns": {
          "_0": "A uint256 specifying the amount of tokens still available for the spender."
        }
      },
      "approve(address,uint256)": {
        "details": "Approve the passed address to spend the specified amount of tokens on behalf of msg.sender.",
        "params": {
          "amount": "The amount of tokens to be spent.",
          "spender": "The address which will spend the funds."
        }
      },
      "balanceOf(address)": {
        "details": "Gets the balance of the specified address.",
        "params": {
          "owner": "The address to query the the balance of."
        },
        "returns": {
          "balance": "An uint256 representing the amount owned by the passed address."
        }
      },
      "transfer(address,uint256)": {
        "details": "transfer token for a specified address",
        "params": {
          "amount": "The amount to be transferred.",
          "to": "The address to transfer to."
        }
      },
      "transferFrom(address,address,uint256)": {
        "details": "Transfer tokens from one address to another",
        "params": {
          "amount": "uint256 the amount of tokens to be transferred",
          "from": "address The address which you want to send tokens from",
          "to": "address The address which you want to transfer to"
        }
      }
    }
  },
  "userdoc": {
    "methods": {}
  }
}