{
  "contractName": "DVM",
  "abi": [
    {
      "anonymous": false,
      "inputs": [
        {
          "indexed": true,
          "internalType": "address",
          "name": "owner",
          "type": "address"
        },
        {
          "indexed": true,
          "internalType": "address",
          "name": "spender",
          "type": "address"
        },
        {
          "indexed": false,
          "internalType": "uint256",
          "name": "amount",
          "type": "uint256"
        }
      ],
      "name": "Approval",
      "type": "event"
    },
    {
      "anonymous": false,
      "inputs": [
        {
          "indexed": true,
          "internalType": "address",
          "name": "user",
          "type": "address"
        },
        {
          "indexed": false,
          "internalType": "uint256",
          "name": "value",
          "type": "uint256"
        }
      ],
      "name": "Burn",
      "type": "event"
    },
    {
      "anonymous": false,
      "inputs": [
        {
          "indexed": false,
          "internalType": "address",
          "name": "to",
          "type": "address"
        },
        {
          "indexed": false,
          "internalType": "uint256",
          "name": "increaseShares",
          "type": "uint256"
        },
        {
          "indexed": false,
          "internalType": "uint256",
          "name": "totalShares",
          "type": "uint256"
        }
      ],
      "name": "BuyShares",
      "type": "event"
    },
    {
      "anonymous": false,
      "inputs": [
        {
          "indexed": false,
          "internalType": "address",
          "name": "borrower",
          "type": "address"
        },
        {
          "indexed": false,
          "internalType": "address",
          "name": "assetTo",
          "type": "address"
        },
        {
          "indexed": false,
          "internalType": "uint256",
          "name": "baseAmount",
          "type": "uint256"
        },
        {
          "indexed": false,
          "internalType": "uint256",
          "name": "quoteAmount",
          "type": "uint256"
        }
      ],
      "name": "DODOFlashLoan",
      "type": "event"
    },
    {
      "anonymous": false,
      "inputs": [
        {
          "indexed": false,
          "internalType": "address",
          "name": "fromToken",
          "type": "address"
        },
        {
          "indexed": false,
          "internalType": "address",
          "name": "toToken",
          "type": "address"
        },
        {
          "indexed": false,
          "internalType": "uint256",
          "name": "fromAmount",
          "type": "uint256"
        },
        {
          "indexed": false,
          "internalType": "uint256",
          "name": "toAmount",
          "type": "uint256"
        },
        {
          "indexed": false,
          "internalType": "address",
          "name": "trader",
          "type": "address"
        }
      ],
      "name": "DODOSwap",
      "type": "event"
    },
    {
      "anonymous": false,
      "inputs": [
        {
          "indexed": true,
          "internalType": "address",
          "name": "user",
          "type": "address"
        },
        {
          "indexed": false,
          "internalType": "uint256",
          "name": "value",
          "type": "uint256"
        }
      ],
      "name": "Mint",
      "type": "event"
    },
    {
      "anonymous": false,
      "inputs": [
        {
          "indexed": false,
          "internalType": "address",
          "name": "payer",
          "type": "address"
        },
        {
          "indexed": false,
          "internalType": "address",
          "name": "to",
          "type": "address"
        },
        {
          "indexed": false,
          "internalType": "uint256",
          "name": "decreaseShares",
          "type": "uint256"
        },
        {
          "indexed": false,
          "internalType": "uint256",
          "name": "totalShares",
          "type": "uint256"
        }
      ],
      "name": "SellShares",
      "type": "event"
    },
    {
      "anonymous": false,
      "inputs": [
        {
          "indexed": true,
          "internalType": "address",
          "name": "from",
          "type": "address"
        },
        {
          "indexed": true,
          "internalType": "address",
          "name": "to",
          "type": "address"
        },
        {
          "indexed": false,
          "internalType": "uint256",
          "name": "amount",
          "type": "uint256"
        }
      ],
      "name": "Transfer",
      "type": "event"
    },
    {
      "inputs": [],
      "name": "DOMAIN_SEPARATOR",
      "outputs": [
        {
          "internalType": "bytes32",
          "name": "",
          "type": "bytes32"
        }
      ],
      "stateMutability": "view",
      "type": "function"
    },
    {
      "inputs": [],
      "name": "PERMIT_TYPEHASH",
      "outputs": [
        {
          "internalType": "bytes32",
          "name": "",
          "type": "bytes32"
        }
      ],
      "stateMutability": "view",
      "type": "function"
    },
    {
      "inputs": [],
      "name": "_BASE_RESERVE_",
      "outputs": [
        {
          "internalType": "uint128",
          "name": "",
          "type": "uint128"
        }
      ],
      "stateMutability": "view",
      "type": "function"
    },
    {
      "inputs": [],
      "name": "_BASE_TOKEN_",
      "outputs": [
        {
          "internalType": "contract IERC20",
          "name": "",
          "type": "address"
        }
      ],
      "stateMutability": "view",
      "type": "function"
    },
    {
      "inputs": [],
      "name": "_I_",
      "outputs": [
        {
          "internalType": "uint256",
          "name": "",
          "type": "uint256"
        }
      ],
      "stateMutability": "view",
      "type": "function"
    },
    {
      "inputs": [],
      "name": "_K_",
      "outputs": [
        {
          "internalType": "uint256",
          "name": "",
          "type": "uint256"
        }
      ],
      "stateMutability": "view",
      "type": "function"
    },
    {
      "inputs": [],
      "name": "_LP_FEE_RATE_",
      "outputs": [
        {
          "internalType": "uint256",
          "name": "",
          "type": "uint256"
        }
      ],
      "stateMutability": "view",
      "type": "function"
    },
    {
      "inputs": [],
      "name": "_MAINTAINER_",
      "outputs": [
        {
          "internalType": "address",
          "name": "",
          "type": "address"
        }
      ],
      "stateMutability": "view",
      "type": "function"
    },
    {
      "inputs": [],
      "name": "_MT_FEE_RATE_MODEL_",
      "outputs": [
        {
          "internalType": "contract IFeeRateModel",
          "name": "",
          "type": "address"
        }
      ],
      "stateMutability": "view",
      "type": "function"
    },
    {
      "inputs": [],
      "name": "_QUOTE_RESERVE_",
      "outputs": [
        {
          "internalType": "uint128",
          "name": "",
          "type": "uint128"
        }
      ],
      "stateMutability": "view",
      "type": "function"
    },
    {
      "inputs": [],
      "name": "_QUOTE_TOKEN_",
      "outputs": [
        {
          "internalType": "contract IERC20",
          "name": "",
          "type": "address"
        }
      ],
      "stateMutability": "view",
      "type": "function"
    },
    {
      "inputs": [
        {
          "internalType": "address",
          "name": "owner",
          "type": "address"
        },
        {
          "internalType": "address",
          "name": "spender",
          "type": "address"
        }
      ],
      "name": "allowance",
      "outputs": [
        {
          "internalType": "uint256",
          "name": "",
          "type": "uint256"
        }
      ],
      "stateMutability": "view",
      "type": "function"
    },
    {
      "inputs": [
        {
          "internalType": "address",
          "name": "spender",
          "type": "address"
        },
        {
          "internalType": "uint256",
          "name": "amount",
          "type": "uint256"
        }
      ],
      "name": "approve",
      "outputs": [
        {
          "internalType": "bool",
          "name": "",
          "type": "bool"
        }
      ],
      "stateMutability": "nonpayable",
      "type": "function"
    },
    {
      "inputs": [
        {
          "internalType": "address",
          "name": "owner",
          "type": "address"
        }
      ],
      "name": "balanceOf",
      "outputs": [
        {
          "internalType": "uint256",
          "name": "balance",
          "type": "uint256"
        }
      ],
      "stateMutability": "view",
      "type": "function"
    },
    {
      "inputs": [
        {
          "internalType": "address",
          "name": "to",
          "type": "address"
        }
      ],
      "name": "buyShares",
      "outputs": [
        {
          "internalType": "uint256",
          "name": "shares",
          "type": "uint256"
        },
        {
          "internalType": "uint256",
          "name": "baseInput",
          "type": "uint256"
        },
        {
          "internalType": "uint256",
          "name": "quoteInput",
          "type": "uint256"
        }
      ],
      "stateMutability": "nonpayable",
      "type": "function"
    },
    {
      "inputs": [],
      "name": "decimals",
      "outputs": [
        {
          "internalType": "uint8",
          "name": "",
          "type": "uint8"
        }
      ],
      "stateMutability": "view",
      "type": "function"
    },
    {
      "inputs": [
        {
          "internalType": "uint256",
          "name": "baseAmount",
          "type": "uint256"
        },
        {
          "internalType": "uint256",
          "name": "quoteAmount",
          "type": "uint256"
        },
        {
          "internalType": "address",
          "name": "assetTo",
          "type": "address"
        },
        {
          "internalType": "bytes",
          "name": "data",
          "type": "bytes"
        }
      ],
      "name": "flashLoan",
      "outputs": [],
      "stateMutability": "nonpayable",
      "type": "function"
    },
    {
      "inputs": [],
      "name": "getBaseInput",
      "outputs": [
        {
          "internalType": "uint256",
          "name": "input",
          "type": "uint256"
        }
      ],
      "stateMutability": "view",
      "type": "function"
    },
    {
      "inputs": [],
      "name": "getMidPrice",
      "outputs": [
        {
          "internalType": "uint256",
          "name": "midPrice",
          "type": "uint256"
        }
      ],
      "stateMutability": "view",
      "type": "function"
    },
    {
      "inputs": [],
      "name": "getPMMState",
      "outputs": [
        {
          "components": [
            {
              "internalType": "uint256",
              "name": "i",
              "type": "uint256"
            },
            {
              "internalType": "uint256",
              "name": "K",
              "type": "uint256"
            },
            {
              "internalType": "uint256",
              "name": "B",
              "type": "uint256"
            },
            {
              "internalType": "uint256",
              "name": "Q",
              "type": "uint256"
            },
            {
              "internalType": "uint256",
              "name": "B0",
              "type": "uint256"
            },
            {
              "internalType": "uint256",
              "name": "Q0",
              "type": "uint256"
            },
            {
              "internalType": "enum PMMPricing.RState",
              "name": "R",
              "type": "uint8"
            }
          ],
          "internalType": "struct PMMPricing.PMMState",
          "name": "state",
          "type": "tuple"
        }
      ],
      "stateMutability": "view",
      "type": "function"
    },
    {
      "inputs": [],
      "name": "getPMMStateForCall",
      "outputs": [
        {
          "internalType": "uint256",
          "name": "i",
          "type": "uint256"
        },
        {
          "internalType": "uint256",
          "name": "K",
          "type": "uint256"
        },
        {
          "internalType": "uint256",
          "name": "B",
          "type": "uint256"
        },
        {
          "internalType": "uint256",
          "name": "Q",
          "type": "uint256"
        },
        {
          "internalType": "uint256",
          "name": "B0",
          "type": "uint256"
        },
        {
          "internalType": "uint256",
          "name": "Q0",
          "type": "uint256"
        },
        {
          "internalType": "uint256",
          "name": "R",
          "type": "uint256"
        }
      ],
      "stateMutability": "view",
      "type": "function"
    },
    {
      "inputs": [],
      "name": "getQuoteInput",
      "outputs": [
        {
          "internalType": "uint256",
          "name": "input",
          "type": "uint256"
        }
      ],
      "stateMutability": "view",
      "type": "function"
    },
    {
      "inputs": [
        {
          "internalType": "address",
          "name": "user",
          "type": "address"
        }
      ],
      "name": "getUserFeeRate",
      "outputs": [
        {
          "internalType": "uint256",
          "name": "lpFeeRate",
          "type": "uint256"
        },
        {
          "internalType": "uint256",
          "name": "mtFeeRate",
          "type": "uint256"
        }
      ],
      "stateMutability": "view",
      "type": "function"
    },
    {
      "inputs": [],
      "name": "getVaultReserve",
      "outputs": [
        {
          "internalType": "uint256",
          "name": "baseReserve",
          "type": "uint256"
        },
        {
          "internalType": "uint256",
          "name": "quoteReserve",
          "type": "uint256"
        }
      ],
      "stateMutability": "view",
      "type": "function"
    },
    {
      "inputs": [],
      "name": "name",
      "outputs": [
        {
          "internalType": "string",
          "name": "",
          "type": "string"
        }
      ],
      "stateMutability": "view",
      "type": "function"
    },
    {
      "inputs": [
        {
          "internalType": "address",
          "name": "",
          "type": "address"
        }
      ],
      "name": "nonces",
      "outputs": [
        {
          "internalType": "uint256",
          "name": "",
          "type": "uint256"
        }
      ],
      "stateMutability": "view",
      "type": "function"
    },
    {
      "inputs": [
        {
          "internalType": "address",
          "name": "owner",
          "type": "address"
        },
        {
          "internalType": "address",
          "name": "spender",
          "type": "address"
        },
        {
          "internalType": "uint256",
          "name": "value",
          "type": "uint256"
        },
        {
          "internalType": "uint256",
          "name": "deadline",
          "type": "uint256"
        },
        {
          "internalType": "uint8",
          "name": "v",
          "type": "uint8"
        },
        {
          "internalType": "bytes32",
          "name": "r",
          "type": "bytes32"
        },
        {
          "internalType": "bytes32",
          "name": "s",
          "type": "bytes32"
        }
      ],
      "name": "permit",
      "outputs": [],
      "stateMutability": "nonpayable",
      "type": "function"
    },
    {
      "inputs": [
        {
          "internalType": "address",
          "name": "trader",
          "type": "address"
        },
        {
          "internalType": "uint256",
          "name": "payBaseAmount",
          "type": "uint256"
        }
      ],
      "name": "querySellBase",
      "outputs": [
        {
          "internalType": "uint256",
          "name": "receiveQuoteAmount",
          "type": "uint256"
        },
        {
          "internalType": "uint256",
          "name": "mtFee",
          "type": "uint256"
        }
      ],
      "stateMutability": "view",
      "type": "function"
    },
    {
      "inputs": [
        {
          "internalType": "address",
          "name": "trader",
          "type": "address"
        },
        {
          "internalType": "uint256",
          "name": "payQuoteAmount",
          "type": "uint256"
        }
      ],
      "name": "querySellQuote",
      "outputs": [
        {
          "internalType": "uint256",
          "name": "receiveBaseAmount",
          "type": "uint256"
        },
        {
          "internalType": "uint256",
          "name": "mtFee",
          "type": "uint256"
        }
      ],
      "stateMutability": "view",
      "type": "function"
    },
    {
      "inputs": [
        {
          "internalType": "address",
          "name": "to",
          "type": "address"
        }
      ],
      "name": "sellBase",
      "outputs": [
        {
          "internalType": "uint256",
          "name": "receiveQuoteAmount",
          "type": "uint256"
        }
      ],
      "stateMutability": "nonpayable",
      "type": "function"
    },
    {
      "inputs": [
        {
          "internalType": "address",
          "name": "to",
          "type": "address"
        }
      ],
      "name": "sellQuote",
      "outputs": [
        {
          "internalType": "uint256",
          "name": "receiveBaseAmount",
          "type": "uint256"
        }
      ],
      "stateMutability": "nonpayable",
      "type": "function"
    },
    {
      "inputs": [
        {
          "internalType": "uint256",
          "name": "shareAmount",
          "type": "uint256"
        },
        {
          "internalType": "address",
          "name": "to",
          "type": "address"
        },
        {
          "internalType": "uint256",
          "name": "baseMinAmount",
          "type": "uint256"
        },
        {
          "internalType": "uint256",
          "name": "quoteMinAmount",
          "type": "uint256"
        },
        {
          "internalType": "bytes",
          "name": "data",
          "type": "bytes"
        },
        {
          "internalType": "uint256",
          "name": "deadline",
          "type": "uint256"
        }
      ],
      "name": "sellShares",
      "outputs": [
        {
          "internalType": "uint256",
          "name": "baseAmount",
          "type": "uint256"
        },
        {
          "internalType": "uint256",
          "name": "quoteAmount",
          "type": "uint256"
        }
      ],
      "stateMutability": "nonpayable",
      "type": "function"
    },
    {
      "inputs": [],
      "name": "symbol",
      "outputs": [
        {
          "internalType": "string",
          "name": "",
          "type": "string"
        }
      ],
      "stateMutability": "view",
      "type": "function"
    },
    {
      "inputs": [],
      "name": "sync",
      "outputs": [],
      "stateMutability": "nonpayable",
      "type": "function"
    },
    {
      "inputs": [],
      "name": "totalSupply",
      "outputs": [
        {
          "internalType": "uint256",
          "name": "",
          "type": "uint256"
        }
      ],
      "stateMutability": "view",
      "type": "function"
    },
    {
      "inputs": [
        {
          "internalType": "address",
          "name": "to",
          "type": "address"
        },
        {
          "internalType": "uint256",
          "name": "amount",
          "type": "uint256"
        }
      ],
      "name": "transfer",
      "outputs": [
        {
          "internalType": "bool",
          "name": "",
          "type": "bool"
        }
      ],
      "stateMutability": "nonpayable",
      "type": "function"
    },
    {
      "inputs": [
        {
          "internalType": "address",
          "name": "from",
          "type": "address"
        },
        {
          "internalType": "address",
          "name": "to",
          "type": "address"
        },
        {
          "internalType": "uint256",
          "name": "amount",
          "type": "uint256"
        }
      ],
      "name": "transferFrom",
      "outputs": [
        {
          "internalType": "bool",
          "name": "",
          "type": "bool"
        }
      ],
      "stateMutability": "nonpayable",
      "type": "function"
    },
    {
      "inputs": [
        {
          "internalType": "address",
          "name": "maintainer",
          "type": "address"
        },
        {
          "internalType": "address",
          "name": "baseTokenAddress",
          "type": "address"
        },
        {
          "internalType": "address",
          "name": "quoteTokenAddress",
          "type": "address"
        },
        {
          "internalType": "uint256",
          "name": "lpFeeRate",
          "type": "uint256"
        },
        {
          "internalType": "address",
          "name": "mtFeeRateModel",
          "type": "address"
        },
        {
          "internalType": "uint256",
          "name": "i",
          "type": "uint256"
        },
        {
          "internalType": "uint256",
          "name": "k",
          "type": "uint256"
        }
      ],
      "name": "init",
      "outputs": [],
      "stateMutability": "nonpayable",
      "type": "function"
    },
    {
      "inputs": [
        {
          "internalType": "address",
          "name": "_addr",
          "type": "address"
        }
      ],
      "name": "addressToShortString",
      "outputs": [
        {
          "internalType": "string",
          "name": "",
          "type": "string"
        }
      ],
      "stateMutability": "pure",
      "type": "function"
    },
    {
      "inputs": [],
      "name": "version",
      "outputs": [
        {
          "internalType": "string",
          "name": "",
          "type": "string"
        }
      ],
      "stateMutability": "pure",
      "type": "function"
    }
  ],
  "bytecode": "0x608060405234801561001057600080fd5b50613c65806100206000396000f3fe608060405234801561001057600080fd5b50600436106102485760003560e01c80637d7215041161013b578063d4b97046116100b8578063ee27c6891161007c578063ee27c689146104a3578063f6b06e70146104ab578063f811d692146104b3578063fd1ed7e9146104bb578063fff6cae9146104d657610248565b8063d4b970461461045a578063d505accf14610462578063dd62ed3e14610475578063dd93f59a14610488578063ec2fd46d1461049b57610248565b8063ab44a7a3116100ff578063ab44a7a314610411578063b56ceaa614610419578063bbf5ce781461042c578063bd6015b414610434578063d0a494e41461044757610248565b80637d721504146103b95780637ecebe00146103ce57806395d89b41146103e1578063a382d1b9146103e9578063a9059cbb146103fe57610248565b80634322ec83116101c957806365f6fcbb1161018d57806365f6fcbb1461037057806366410a211461037857806370a082311461038b57806371f9100c1461039e57806379a04876146103a657610248565b80634322ec8314610316578063440966091461032b5780634a248d2a1461033e5780634c85b4251461034657806354fd4d501461036857610248565b806330adf81f1161021057806330adf81f146102c6578063313ce567146102ce57806336223ce9146102e35780633644e515146102f95780633f28b0071461030157610248565b806306fdde031461024d578063095ea7b31461026b578063171019401461028b57806318160ddd1461029e57806323b872dd146102b3575b600080fd5b6102556104de565b6040516102629190613725565b60405180910390f35b61027e6102793660046132fe565b61056c565b6040516102629190613693565b61025561029936600461318d565b610583565b6102a66106ad565b604051610262919061369e565b61027e6102c1366004613250565b6106b3565b6102a6610837565b6102d661085b565b6040516102629190613b91565b6102eb610864565b604051610262929190613b3d565b6102a661087f565b61031461030f3660046131dc565b610885565b005b61031e610b56565b6040516102629190613573565b6102eb61033936600461318d565b610b6a565b61031e610bf5565b61035961035436600461318d565b610c04565b60405161026293929190613b4b565b610255610ee1565b6102a6610f05565b6102eb6103863660046132fe565b610fac565b6102a661039936600461318d565b611081565b6102a661109c565b6102eb6103b43660046132fe565b6110e8565b6103c16110fc565b6040516102629190613b29565b6102a66103dc36600461318d565b61110b565b61025561111d565b6103f1611178565b6040516102629190613acf565b61027e61040c3660046132fe565b6111cc565b6102a661129b565b6102eb610427366004613360565b6112a1565b6103c161159a565b6102a661044236600461318d565b6115b0565b6103146104553660046133da565b611798565b61031e611bbe565b610314610470366004613290565b611bcd565b6102a66104833660046131a8565b611d3c565b6102a661049636600461318d565b611d67565b6102a6611f33565b6102a6611f39565b61031e611f4b565b6102a6611f5a565b6104c3611f60565b6040516102629796959493929190613b61565b610314611fc3565b6006805460408051602060026001851615610100026000190190941693909304601f810184900484028201840190925281815292918301828280156105645780601f1061053957610100808354040283529160200191610564565b820191906000526020600020905b81548152906001019060200180831161054757829003601f168201915b505050505081565b6000610579338484612007565b5060015b92915050565b604080518082018252601081526f181899199a1a9b1b9c1cb0b131b232b360811b6020820152815160088082528184019093526060926001600160a01b0385169291849160208201818036833701905050905060005b60048110156106a2578260048583600c01602081106105f457fe5b1a60f81b6001600160f81b031916901c60f81c60ff168151811061061457fe5b602001015160f81c60f81b82826002028151811061062e57fe5b60200101906001600160f81b031916908160001a905350828482600c016020811061065557fe5b825191901a600f1690811061066657fe5b602001015160f81c60f81b82826002026001018151811061068357fe5b60200101906001600160f81b031916908160001a9053506001016105d9565b50925050505b919050565b60075481565b6001600160a01b0383166000908152600860205260408120548211156106f45760405162461bcd60e51b81526004016106eb90613994565b60405180910390fd5b6001600160a01b03841660009081526009602090815260408083203384529091529020548211156107375760405162461bcd60e51b81526004016106eb90613783565b6001600160a01b038416600090815260086020526040902054610760908363ffffffff61206f16565b6001600160a01b038086166000908152600860205260408082209390935590851681522054610795908363ffffffff61209716565b6001600160a01b0380851660009081526008602090815260408083209490945591871681526009825282812033825290915220546107d9908363ffffffff61206f16565b6001600160a01b038086166000818152600960209081526040808320338452909152908190209390935591519085169190600080516020613c108339815191529061082590869061369e565b60405180910390a35060019392505050565b7f6e71edae12b1b97f4d1f60370fef10105fa2faae0126114a169c64845d6126c981565b60055460ff1681565b6003546001600160801b0380821692600160801b9092041690565b600a5481565b846001600160a01b0316866001600160a01b031614156108b75760405162461bcd60e51b81526004016106eb906137fc565b600180546001600160a01b038089166001600160a01b0319928316179092556002805492881692909116919091179055811580159061090557506ec097ce7bc90715b34b9f10000000008211155b61090e57600080fd5b600f829055670de0b6b3a764000081111561092857600080fd5b600e819055600c849055600d80546001600160a01b0319166001600160a01b038581169190911790915560008054610100600160a81b031916610100928a169290920291909117905560408051808201825260018152605f60f81b602080830191909152825180840190935260038352620444c560ec1b908301529080826109af30610583565b6040516020016109c193929190613513565b604051602081830303815290604052600690805190602001906109e5929190613057565b50604080518082019091526003808252620444c560ec1b6020909201918252610a1091600491613057565b50600160009054906101000a90046001600160a01b03166001600160a01b031663313ce5676040518163ffffffff1660e01b815260040160206040518083038186803b158015610a5f57600080fd5b505afa158015610a73573d6000803e3d6000fd5b505050506040513d601f19601f82011682018060405250810190610a979190613441565b6005805460ff191660ff9290921691909117905560405146907f8b73c3c69bb8fe3d512ecc4cf759cc79239f7b179b0ffacaa9a75d522b39400f90610ade906006906134a3565b60408051918290038220828201825260018352603160f81b6020938401529051610b2f93927fc89efdaa54c0f20c7adf612882df0950f5a951637e0307cdcb4c672f298b8bc69186913091016136f9565b60408051601f198184030181529190528051602090910120600a5550505050505050505050565b60005461010090046001600160a01b031681565b600c54600d54604051638198edbf60e01b81526000916001600160a01b031690638198edbf90610b9e908690600401613573565b60206040518083038186803b158015610bb657600080fd5b505afa158015610bca573d6000803e3d6000fd5b505050506040513d601f19601f82011682018060405250810190610bee9190613348565b9050915091565b6001546001600160a01b031681565b600080548190819060ff1615610c2c5760405162461bcd60e51b81526004016106eb906137d9565b6000805460ff191660019081178255546040516370a0823160e01b81526001600160a01b03909116906370a0823190610c69903090600401613573565b60206040518083038186803b158015610c8157600080fd5b505afa158015610c95573d6000803e3d6000fd5b505050506040513d601f19601f82011682018060405250810190610cb99190613348565b6002546040516370a0823160e01b81529192506000916001600160a01b03909116906370a0823190610cef903090600401613573565b60206040518083038186803b158015610d0757600080fd5b505afa158015610d1b573d6000803e3d6000fd5b505050506040513d601f19601f82011682018060405250810190610d3f9190613348565b6003549091506001600160801b0380821691600160801b900416610d69848363ffffffff61206f16565b9550610d7b838263ffffffff61206f16565b945060008611610d9d5760405162461bcd60e51b81526004016106eb90613868565b600754610dce576103e8841015610dc65760405162461bcd60e51b81526004016106eb9061395d565b839650610e63565b600082118015610ddc575080155b15610e0d57610e0682610dfa600754896120c390919063ffffffff16565b9063ffffffff6120fd16565b9650610e63565b600082118015610e1d5750600081115b15610e63576000610e2e878461212f565b90506000610e3c878461212f565b90506000828210610e4d5782610e4f565b815b9050610e5d6007548261214d565b99505050505b610e6d888861216f565b610e778484612248565b6001600160a01b038816600090815260086020526040908190205490517f1c172440bdebb59cd92a7f08f4227903a3305ab6f880cb25f93eddb66843a10291610ec3918b918b91613672565b60405180910390a150506000805460ff191690555092949193509150565b604080518082019091526009815268044564d20312e302e360bc1b60208201525b90565b6003546001546040516370a0823160e01b8152600092610fa7926001600160801b03909116916001600160a01b03909116906370a0823190610f4b903090600401613573565b60206040518083038186803b158015610f6357600080fd5b505afa158015610f77573d6000803e3d6000fd5b505050506040513d601f19601f82011682018060405250810190610f9b9190613348565b9063ffffffff61206f16565b905090565b600080610fc0610fba611178565b846122b2565b50600c54600d54604051638198edbf60e01b815292945090916000916001600160a01b031690638198edbf90610ffa908990600401613573565b60206040518083038186803b15801561101257600080fd5b505afa158015611026573d6000803e3d6000fd5b505050506040513d601f19601f8201168201806040525081019061104a9190613348565b9050611056848261214d565b925061107683610f9b611069878661214d565b879063ffffffff61206f16565b935050509250929050565b6001600160a01b031660009081526008602052604090205490565b6003546002546040516370a0823160e01b8152600092610fa792600160801b9091046001600160801b0316916001600160a01b03909116906370a0823190610f4b903090600401613573565b600080610fc06110f6611178565b846123b8565b6003546001600160801b031681565b600b6020526000908152604090205481565b6004805460408051602060026001851615610100026000190190941693909304601f810184900484028201840190925281815292918301828280156105645780601f1061053957610100808354040283529160200191610564565b6111806130d5565b600f548152600e5460208201526003546001600160801b038082166040840152600160801b90910416606082015260006080820181905260a0820152600160c0820152610f02816124b9565b336000908152600860205260408120548211156111fb5760405162461bcd60e51b81526004016106eb90613994565b3360009081526008602052604090205461121b908363ffffffff61206f16565b33600090815260086020526040808220929092556001600160a01b0385168152205461124d908363ffffffff61209716565b6001600160a01b038416600081815260086020526040908190209290925590513390600080516020613c108339815191529061128a90869061369e565b60405180910390a350600192915050565b600c5481565b60008054819060ff16156112c75760405162461bcd60e51b81526004016106eb906137d9565b6000805460ff19166001179055428310156112f45760405162461bcd60e51b81526004016106eb90613a86565b336000908152600860205260409020548911156113235760405162461bcd60e51b81526004016106eb90613935565b6001546040516370a0823160e01b81526000916001600160a01b0316906370a0823190611354903090600401613573565b60206040518083038186803b15801561136c57600080fd5b505afa158015611380573d6000803e3d6000fd5b505050506040513d601f19601f820116820180604052508101906113a49190613348565b6002546040516370a0823160e01b81529192506000916001600160a01b03909116906370a08231906113da903090600401613573565b60206040518083038186803b1580156113f257600080fd5b505afa158015611406573d6000803e3d6000fd5b505050506040513d601f19601f8201168201806040525081019061142a9190613348565b60075490915061144481610dfa858f63ffffffff6120c316565b945061145a81610dfa848f63ffffffff6120c316565b935089851015801561146c5750888410155b6114885760405162461bcd60e51b81526004016106eb90613908565b611492338d612563565b61149c8b86612630565b6114a68b85612657565b6114ae61267a565b861561151d578a6001600160a01b0316632411d338338e88888d8d6040518763ffffffff1660e01b81526004016114ea969594939291906135e9565b600060405180830381600087803b15801561150457600080fd5b505af1158015611518573d6000803e3d6000fd5b505050505b7f55caccde83781f39bfc1296eff45655b6496729443a7d48958b18b3b685600a5338c8e60086000336001600160a01b03166001600160a01b03168152602001908152602001600020546040516115779493929190613587565b60405180910390a150506000805460ff1916905550909890975095505050505050565b600354600160801b90046001600160801b031681565b6000805460ff16156115d45760405162461bcd60e51b81526004016106eb906137d9565b6000805460ff191660019081178255546040516370a0823160e01b81526001600160a01b03909116906370a0823190611611903090600401613573565b60206040518083038186803b15801561162957600080fd5b505afa15801561163d573d6000803e3d6000fd5b505050506040513d601f19601f820116820180604052508101906116619190613348565b6003549091506000906116849083906001600160801b031663ffffffff61206f16565b9050600061169232836110e8565b90945090506116a18585612657565b6000546116bc9061010090046001600160a01b031682612657565b6002546040516370a0823160e01b81526117479185916001600160a01b03909116906370a08231906116f2903090600401613573565b60206040518083038186803b15801561170a57600080fd5b505afa15801561171e573d6000803e3d6000fd5b505050506040513d601f19601f820116820180604052508101906117429190613348565b612248565b600154600254604051600080516020613bf08339815191529261177e926001600160a01b0391821692911690869089903390613629565b60405180910390a150506000805460ff1916905550919050565b60005460ff16156117bb5760405162461bcd60e51b81526004016106eb906137d9565b6000805460ff191660011790556117d28386612630565b6117dc8385612657565b80156118495760405163eb2021c360e01b81526001600160a01b0384169063eb2021c39061181690339089908990889088906004016135b0565b600060405180830381600087803b15801561183057600080fd5b505af1158015611844573d6000803e3d6000fd5b505050505b6001546040516370a0823160e01b81526000916001600160a01b0316906370a082319061187a903090600401613573565b60206040518083038186803b15801561189257600080fd5b505afa1580156118a6573d6000803e3d6000fd5b505050506040513d601f19601f820116820180604052508101906118ca9190613348565b6002546040516370a0823160e01b81529192506000916001600160a01b03909116906370a0823190611900903090600401613573565b60206040518083038186803b15801561191857600080fd5b505afa15801561192c573d6000803e3d6000fd5b505050506040513d601f19601f820116820180604052508101906119509190613348565b6003549091506001600160801b03168210158061197f5750600354600160801b90046001600160801b03168110155b61199b5760405162461bcd60e51b81526004016106eb90613758565b6003546001600160801b0316821015611a7d576003546000906119cf908390600160801b90046001600160801b031661206f565b90506000806119de3284610fac565b60035491935091508290611a01906001600160801b03168763ffffffff61206f16565b1115611a1f5760405162461bcd60e51b81526004016106eb90613758565b600054611a3a9061010090046001600160a01b031682612630565b600254600154604051600080516020613bf083398151915292611a71926001600160a01b0391821692911690879087903390613629565b60405180910390a15050505b600354600160801b90046001600160801b0316811015611b6657600354600090611ab79084906001600160801b031663ffffffff61206f16565b9050600080611ac632846110e8565b60035491935091508290611aea90600160801b90046001600160801b03168661206f565b1115611b085760405162461bcd60e51b81526004016106eb90613758565b600054611b239061010090046001600160a01b031682612657565b600154600254604051600080516020613bf083398151915292611b5a926001600160a01b0391821692911690879087903390613629565b60405180910390a15050505b611b6e61267a565b7f0b82e93068db15abd9fbb2682c65462ea8a0a10582dce93a5664818e296f54eb33868989604051611ba39493929190613587565b60405180910390a150506000805460ff191690555050505050565b6002546001600160a01b031681565b42841015611bed5760405162461bcd60e51b81526004016106eb906138da565b600a546001600160a01b0388166000908152600b602090815260408083208054600181019091559051929392611c4e927f6e71edae12b1b97f4d1f60370fef10105fa2faae0126114a169c64845d6126c9928d928d928d92918d91016136a7565b60405160208183030381529060405280519060200120604051602001611c75929190613558565b604051602081830303815290604052805190602001209050600060018286868660405160008152602001604052604051611cb294939291906136db565b6020604051602081039080840390855afa158015611cd4573d6000803e3d6000fd5b5050604051601f1901519150506001600160a01b03811615801590611d0a5750886001600160a01b0316816001600160a01b0316145b611d265760405162461bcd60e51b81526004016106eb90613a4f565b611d31898989612007565b505050505050505050565b6001600160a01b03918216600090815260096020908152604080832093909416825291909152205490565b6000805460ff1615611d8b5760405162461bcd60e51b81526004016106eb906137d9565b6000805460ff191660011781556002546040516370a0823160e01b81526001600160a01b03909116906370a0823190611dc8903090600401613573565b60206040518083038186803b158015611de057600080fd5b505afa158015611df4573d6000803e3d6000fd5b505050506040513d601f19601f82011682018060405250810190611e189190613348565b600354909150600090611e3c908390600160801b90046001600160801b031661206f565b90506000611e4a3283610fac565b9094509050611e598585612630565b600054611e749061010090046001600160a01b031682612630565b6001546040516370a0823160e01b8152611efc916001600160a01b0316906370a0823190611ea6903090600401613573565b60206040518083038186803b158015611ebe57600080fd5b505afa158015611ed2573d6000803e3d6000fd5b505050506040513d601f19601f82011682018060405250810190611ef69190613348565b84612248565b600254600154604051600080516020613bf08339815191529261177e926001600160a01b0391821692911690869089903390613629565b600e5481565b6000610fa7611f46611178565b612822565b600d546001600160a01b031681565b600f5481565b6000806000806000806000611f736130d5565b611f7b611178565b905080600001519750806020015196508060400151955080606001519450806080015193508060a0015192508060c001516002811115611fb757fe5b91505090919293949596565b60005460ff1615611fe65760405162461bcd60e51b81526004016106eb906137d9565b6000805460ff19166001179055611ffb61267a565b6000805460ff19169055565b6001600160a01b0380841660008181526009602090815260408083209487168084529490915290819020849055517f8c5be1e5ebec7d5bd14f71427d1e84f3dd0314c0f7b2291e5b200ac8c7c3b9259061206290859061369e565b60405180910390a3505050565b6000828211156120915760405162461bcd60e51b81526004016106eb906138b7565b50900390565b6000828201838110156120bc5760405162461bcd60e51b81526004016106eb906139e2565b9392505050565b6000826120d25750600061057d565b828202828482816120df57fe5b04146120bc5760405162461bcd60e51b81526004016106eb90613aac565b600080821161211e5760405162461bcd60e51b81526004016106eb9061388f565b81838161212757fe5b049392505050565b60006120bc82610dfa85670de0b6b3a764000063ffffffff6120c316565b6000670de0b6b3a7640000612168848463ffffffff6120c316565b8161212757fe5b6001600160a01b038216600090815260086020526040902054612198908263ffffffff61209716565b6001600160a01b0383166000908152600860205260409020556007546121c4908263ffffffff61209716565b6007556040516001600160a01b038316907f0f6798a560793a54c3bcfe86a93cde1e73087d944c0ea20544137d41213968859061220290849061369e565b60405180910390a2816001600160a01b031660006001600160a01b0316600080516020613c108339815191528360405161223c919061369e565b60405180910390a35050565b6001600160801b03821180159061226657506001600160801b038111155b6122825760405162461bcd60e51b81526004016106eb906139c0565b600380546001600160801b03928316600160801b029383166001600160801b031990911617909116919091179055565b600080808460c0015160028111156122c657fe5b14156122e1576122d68484612914565b9150600190506123b1565b60018460c0015160028111156122f357fe5b1415612303576122d6848461293b565b600061232085606001518660a0015161206f90919063ffffffff16565b9050600061233f8660800151876040015161206f90919063ffffffff16565b90508185101561236a576123538686612958565b93506002925080841115612365578093505b6123ae565b8185141561237e57809350600092506123ae565b6123a761239a87612395888663ffffffff61206f16565b612914565b829063ffffffff61209716565b9350600192505b50505b9250929050565b600080808460c0015160028111156123cc57fe5b14156123e7576123dc8484612993565b9150600290506123b1565b60018460c0015160028111156123f957fe5b14156124a457600061241c8560400151866080015161206f90919063ffffffff16565b9050600061243b8660a00151876060015161206f90919063ffffffff16565b9050818510156124665761244f86866129b2565b93506001925080841115612461578093505b61249d565b8185141561247a578093506000925061249d565b61249661239a87612491888663ffffffff61206f16565b612993565b9350600292505b50506123b1565b6124ae84846129e4565b946002945092505050565b60028160c0015160028111156124cb57fe5b141561250a5761250081606001516124f48360800151846040015161206f90919063ffffffff16565b83516020850151612a03565b60a0820152612560565b60018160c00151600281111561251c57fe5b14156125605761255a81604001516125458360a00151846060015161206f90919063ffffffff16565b835161255090612b29565b8460200151612a03565b60808201525b50565b6001600160a01b03821660009081526008602052604090205461258c908263ffffffff61206f16565b6001600160a01b0383166000908152600860205260409020556007546125b8908263ffffffff61206f16565b6007556040516001600160a01b038316907fcc16f5dbb4873280815c1ee09dbd06736cffcc184412cf7a71a0fdb75d397ca5906125f690849061369e565b60405180910390a260006001600160a01b0316826001600160a01b0316600080516020613c108339815191528360405161223c919061369e565b801561265357600154612653906001600160a01b0316838363ffffffff612b4a16565b5050565b801561265357600254612653906001600160a01b0316838363ffffffff612b4a16565b6001546040516370a0823160e01b81526000916001600160a01b0316906370a08231906126ab903090600401613573565b60206040518083038186803b1580156126c357600080fd5b505afa1580156126d7573d6000803e3d6000fd5b505050506040513d601f19601f820116820180604052508101906126fb9190613348565b6002546040516370a0823160e01b81529192506000916001600160a01b03909116906370a0823190612731903090600401613573565b60206040518083038186803b15801561274957600080fd5b505afa15801561275d573d6000803e3d6000fd5b505050506040513d601f19601f820116820180604052508101906127819190613348565b90506001600160801b0382118015906127a157506001600160801b038111155b6127bd5760405162461bcd60e51b81526004016106eb906139c0565b6003546001600160801b031682146127eb57600380546001600160801b0319166001600160801b0384161790555b600354600160801b90046001600160801b0316811461265357600380546001600160801b03808416600160801b0291161790555050565b600060028260c00151600281111561283657fe5b14156128c157606082015160a083015160009161286c916128629190610dfa908063ffffffff6120c316565b846060015161212f565b90506128a961287f84602001518361214d565b602085015161289d90670de0b6b3a76400009063ffffffff61206f16565b9063ffffffff61209716565b90506128b983600001518261212f565b9150506106a8565b604082015160808301516000916128f1916128e79190610dfa908063ffffffff6120c316565b846040015161212f565b905061290461287f84602001518361214d565b90506128b983600001518261214d565b60006120bc83608001518460800151846129318760000151612b29565b8760200151612ba5565b60006120bc83608001518460400151846129318760000151612b29565b60006120bc8360a0015161297984866060015161209790919063ffffffff16565b6060860151865161298990612b29565b8760200151612e33565b60006120bc8360a001518460a001518486600001518760200151612ba5565b60006120bc83608001516129d384866040015161209790919063ffffffff16565b604086015186516020880151612e33565b60006120bc8360a0015184606001518486600001518760200151612ba5565b600084612a1257506000612b21565b81612a3857612a31612a24848661214d565b869063ffffffff61209716565b9050612b21565b600080612a4e600485028663ffffffff6120c316565b905080612a6557670de0b6b3a76400009150612ae5565b858187830281612a7157fe5b041415612aac57612aa5612aa06ec097ce7bc90715b34b9f100000000061289d848a028b63ffffffff6120fd16565b612f0c565b9150612ae5565b612ae2612aa06ec097ce7bc90715b34b9f100000000061289d89612ad6868d63ffffffff6120fd16565b9063ffffffff6120c316565b91505b6000612b0f670de0b6b3a764000061289d612b06868363ffffffff61206f16565b8860020261212f565b9050612b1b888261214d565b93505050505b949350505050565b600061057d6ec097ce7bc90715b34b9f10000000008363ffffffff6120fd16565b612ba08363a9059cbb60e01b8484604051602401612b69929190613659565b60408051601f198184030181529190526020810180516001600160e01b03166001600160e01b031990931692909217909152612f43565b505050565b6000808611612bc65760405162461bcd60e51b81526004016106eb906137b1565b83612bd357506000612e2a565b81612c005784612be3848661214d565b11612bf757612bf2838561214d565b612bf9565b845b9050612e2a565b670de0b6b3a7640000821415612cc057600080612c23858763ffffffff6120c316565b905080612c335760009150612c8c565b868188830281612c3f57fe5b041415612c6f57612c68612c59898063ffffffff6120c316565b8289029063ffffffff6120fd16565b9150612c8c565b612c8988610dfa87612ad683838c8e63ffffffff6120c316565b91505b612cb7612ca783670de0b6b3a764000063ffffffff61209716565b610dfa898563ffffffff6120c316565b92505050612e2a565b6000612ced612cd5858763ffffffff6120c316565b61289d89612ad68a610dfa898463ffffffff6120c316565b90506000612d0d87612ad6670de0b6b3a76400008763ffffffff61206f16565b90506000828210612d3357612d28828463ffffffff61206f16565b915060009050612d4a565b612d43838363ffffffff61206f16565b9150600190505b612d6282670de0b6b3a764000063ffffffff6120fd16565b91506000612d99612d866004612ad6670de0b6b3a76400008a63ffffffff61206f16565b612d948c612ad68a8f61214d565b61214d565b9050612db2612aa08261289d868063ffffffff6120c316565b90506000612dd36002612ad6670de0b6b3a76400008a63ffffffff61206f16565b905060008315612df457612ded838663ffffffff61206f16565b9050612e07565b612e04858463ffffffff61209716565b90505b612e21612e148284613000565b8c9063ffffffff61206f16565b96505050505050505b95945050505050565b6000808611612e545760405162461bcd60e51b81526004016106eb906137b1565b6000612e76612e69878763ffffffff61206f16565b859063ffffffff6120c316565b905082612e9d57612e9581670de0b6b3a764000063ffffffff6120fd16565b915050612e2a565b6000612ebc612eb688610dfa8b8063ffffffff6120c316565b8761212f565b90506000612eca858361214d565b9050612eff6ec097ce7bc90715b34b9f1000000000610dfa85612ad68561289d670de0b6b3a76400008c63ffffffff61206f16565b9998505050505050505050565b80600160028204015b81811015612f3d57809150600281828581612f2c57fe5b040181612f3557fe5b049050612f15565b50919050565b60006060836001600160a01b031683604051612f5f9190613487565b6000604051808303816000865af19150503d8060008114612f9c576040519150601f19603f3d011682016040523d82523d6000602084013e612fa1565b606091505b509150915081612fc35760405162461bcd60e51b81526004016106eb90613833565b805115612ffa5780806020019051810190612fde9190613328565b612ffa5760405162461bcd60e51b81526004016106eb90613a05565b50505050565b60006120bc8261301e85670de0b6b3a764000063ffffffff6120c316565b9063ffffffff61302a16565b60008061303784846120fd565b90508281028403801561304f5750600101905061057d565b50905061057d565b828054600181600116156101000203166002900490600052602060002090601f016020900481019282601f1061309857805160ff19168380011785556130c5565b828001600101855582156130c5579182015b828111156130c55782518255916020019190600101906130aa565b506130d192915061311c565b5090565b6040518060e001604052806000815260200160008152602001600081526020016000815260200160008152602001600081526020016000600281111561311757fe5b905290565b610f0291905b808211156130d15760008155600101613122565b80356001600160a01b038116811461057d57600080fd5b60008083601f84011261315e578182fd5b50813567ffffffffffffffff811115613175578182fd5b6020830191508360208285010111156123b157600080fd5b60006020828403121561319e578081fd5b6120bc8383613136565b600080604083850312156131ba578081fd5b6131c48484613136565b91506131d38460208501613136565b90509250929050565b600080600080600080600060e0888a0312156131f6578283fd5b6132008989613136565b965061320f8960208a01613136565b955061321e8960408a01613136565b9450606088013593506132348960808a01613136565b925060a0880135915060c0880135905092959891949750929550565b600080600060608486031215613264578283fd5b833561326f81613bcb565b9250602084013561327f81613bcb565b929592945050506040919091013590565b600080600080600080600060e0888a0312156132aa578283fd5b6132b48989613136565b96506132c38960208a01613136565b9550604088013594506060880135935060808801356132e181613be0565b9699959850939692959460a0840135945060c09093013592915050565b60008060408385031215613310578182fd5b61331a8484613136565b946020939093013593505050565b600060208284031215613339578081fd5b815180151581146120bc578182fd5b600060208284031215613359578081fd5b5051919050565b600080600080600080600060c0888a03121561337a578283fd5b87359650602088013561338c81613bcb565b95506040880135945060608801359350608088013567ffffffffffffffff8111156133b5578384fd5b6133c18a828b0161314d565b989b979a5095989497959660a090950135949350505050565b6000806000806000608086880312156133f1578081fd5b85359450602086013593506134098760408801613136565b9250606086013567ffffffffffffffff811115613424578182fd5b6134308882890161314d565b969995985093965092949392505050565b600060208284031215613452578081fd5b81516120bc81613be0565b60008284528282602086013780602084860101526020601f19601f85011685010190509392505050565b60008251613499818460208701613b9f565b9190910192915050565b60008083546001808216600081146134c257600181146134d957613508565b60ff198316865260028304607f1686019350613508565b600283048786526020808720875b838110156135005781548a8201529085019082016134e7565b505050860193505b509195945050505050565b60008451613525818460208901613b9f565b8451908301613538828260208901613b9f565b845191810161354b838260208901613b9f565b9091019695505050505050565b61190160f01b81526002810192909252602282015260420190565b6001600160a01b0391909116815260200190565b6001600160a01b0394851681529290931660208301526040820152606081019190915260800190565b600060018060a01b0387168252856020830152846040830152608060608301526135de60808301848661345d565b979650505050505050565b600060018060a01b038816825286602083015285604083015284606083015260a0608083015261361d60a08301848661345d565b98975050505050505050565b6001600160a01b039586168152938516602085015260408401929092526060830152909116608082015260a00190565b6001600160a01b03929092168252602082015260400190565b6001600160a01b039390931683526020830191909152604082015260600190565b901515815260200190565b90815260200190565b9586526001600160a01b0394851660208701529290931660408501526060840152608083019190915260a082015260c00190565b93845260ff9290921660208401526040830152606082015260800190565b9485526020850193909352604084019190915260608301526001600160a01b0316608082015260a00190565b6000602082528251806020840152613744816040850160208701613b9f565b601f01601f19169190910160400192915050565b60208082526011908201527011931054d217d313d05397d19052531151607a1b604082015260600190565b60208082526014908201527308298989eae829c868abe9c9ea8be8a9c9eaa8e960631b604082015260600190565b6020808252600e908201526d5441524745545f49535f5a45524f60901b604082015260600190565b60208082526009908201526814915153951490539560ba1b604082015260600190565b6020808252601a908201527f424153455f51554f54455f43414e5f4e4f545f42455f53414d45000000000000604082015260600190565b6020808252818101527f5361666545524332303a206c6f772d6c6576656c2063616c6c206661696c6564604082015260600190565b6020808252600d908201526c1393d7d09054d157d253941555609a1b604082015260600190565b6020808252600e908201526d2224ab24a224a723afa2a92927a960911b604082015260600190565b60208082526009908201526829aaa12fa2a92927a960b91b604082015260600190565b6020808252601490820152731113d113d7d1159357d3140e881156141254915160621b604082015260600190565b6020808252601390820152720ae92a89088a482aebe9c9ea8be8a9c9eaa8e9606b1b604082015260600190565b6020808252600e908201526d08898a0be9c9ea8be8a9c9eaa8e960931b604082015260600190565b6020808252601c908201527f494e53554646494349454e545f4c49515549444954595f4d494e454400000000604082015260600190565b6020808252601290820152710848298829c868abe9c9ea8be8a9c9eaa8e960731b604082015260600190565b6020808252600890820152674f564552464c4f5760c01b604082015260600190565b60208082526009908201526820a2222fa2a92927a960b91b604082015260600190565b6020808252602a908201527f5361666545524332303a204552433230206f7065726174696f6e20646964206e6040820152691bdd081cdd58d8d9595960b21b606082015260800190565b6020808252601e908201527f444f444f5f44564d5f4c503a20494e56414c49445f5349474e41545552450000604082015260600190565b6020808252600c908201526b1512535157d156141254915160a21b604082015260600190565b60208082526009908201526826aaa62fa2a92927a960b91b604082015260600190565b600060e082019050825182526020830151602083015260408301516040830152606083015160608301526080830151608083015260a083015160a083015260c083015160038110613b1c57fe5b8060c08401525092915050565b6001600160801b0391909116815260200190565b918252602082015260400190565b9283526020830191909152604082015260600190565b968752602087019590955260408601939093526060850191909152608084015260a083015260c082015260e00190565b60ff91909116815260200190565b60005b83811015613bba578181015183820152602001613ba2565b83811115612ffa5750506000910152565b6001600160a01b038116811461256057600080fd5b60ff8116811461256057600080fdfeaab6d03ea36f5f89ed87167c37cd684594ee4d483b7d8b82cef6c3fcc54dc24cddf252ad1be2c89b69c2b068fc378daa952ba7f163c4a11628f55a4df523b3efa264697066735822122024b250c23dcf0d1ccdec09804cc8d0e799569b0212bf2c4b6b752bf0f310981664736f6c63430006090033",
  "immutableReferences": {},
  "source": "/*\n\n    Copyright 2020 DODO ZOO.\n    SPDX-License-Identifier: Apache-2.0\n\n*/\n\npragma solidity 0.6.9;\npragma experimental ABIEncoderV2;\n\nimport {IFeeRateModel} from \"../../lib/FeeRateModel.sol\";\nimport {IERC20} from \"../../intf/IERC20.sol\";\nimport {DVMTrader} from \"./DVMTrader.sol\";\nimport {DVMFunding} from \"./DVMFunding.sol\";\nimport {DVMVault} from \"./DVMVault.sol\";\n\n/**\n * @title DODO VendingMachine\n * @author DODO Breeder\n *\n * @notice DODOVendingMachine initialization\n */\ncontract DVM is DVMTrader, DVMFunding {\n    function init(\n        address maintainer,\n        address baseTokenAddress,\n        address quoteTokenAddress,\n        uint256 lpFeeRate,\n        address mtFeeRateModel,\n        uint256 i,\n        uint256 k\n    ) external {\n        require(baseTokenAddress != quoteTokenAddress, \"BASE_QUOTE_CAN_NOT_BE_SAME\");\n        _BASE_TOKEN_ = IERC20(baseTokenAddress);\n        _QUOTE_TOKEN_ = IERC20(quoteTokenAddress);\n\n        require(i > 0 && i <= 10**36);\n        _I_ = i;\n\n        require(k <= 10**18);\n        _K_ = k;\n\n        _LP_FEE_RATE_ = lpFeeRate;\n        _MT_FEE_RATE_MODEL_ = IFeeRateModel(mtFeeRateModel);\n        _MAINTAINER_ = maintainer;\n\n        string memory connect = \"_\";\n        string memory suffix = \"DLP\";\n\n        name = string(abi.encodePacked(suffix, connect, addressToShortString(address(this))));\n        symbol = \"DLP\";\n        decimals = _BASE_TOKEN_.decimals();\n\n        // ============================== Permit ====================================\n        uint256 chainId;\n        assembly {\n            chainId := chainid()\n        }\n        DOMAIN_SEPARATOR = keccak256(\n            abi.encode(\n                // keccak256('EIP712Domain(string name,string version,uint256 chainId,address verifyingContract)'),\n                0x8b73c3c69bb8fe3d512ecc4cf759cc79239f7b179b0ffacaa9a75d522b39400f,\n                keccak256(bytes(name)),\n                keccak256(bytes(\"1\")),\n                chainId,\n                address(this)\n            )\n        );\n        // ==========================================================================\n    }\n\n    function addressToShortString(address _addr) public pure returns (string memory) {\n        bytes32 value = bytes32(uint256(_addr));\n        bytes memory alphabet = \"0123456789abcdef\";\n\n        bytes memory str = new bytes(8);\n        for (uint256 i = 0; i < 4; i++) {\n            str[i * 2] = alphabet[uint8(value[i + 12] >> 4)];\n            str[1 + i * 2] = alphabet[uint8(value[i + 12] & 0x0f)];\n        }\n        return string(str);\n    }\n\n    // ============ Version Control ============\n    \n    function version() external pure returns (string memory) {\n        return \"DVM 1.0.0\";\n    }\n}\n",
  "sourcePath": "/Users/niutaotao/projects/dodo/contractV2/contracts/DODOVendingMachine/impl/DVM.sol",
  "compiler": {
    "name": "solc",
    "version": "0.6.9+commit.3e3065ac.Emscripten.clang"
  },
  "schemaVersion": "3.3.2",
  "updatedAt": "2021-01-13T13:03:23.731Z",
  "devdoc": {
    "author": "DODO Breeder",
    "methods": {
      "allowance(address,address)": {
        "details": "Function to check the amount of tokens that an owner _ALLOWED_ to a spender.",
        "params": {
          "owner": "address The address which owns the funds.",
          "spender": "address The address which will spend the funds."
        },
        "returns": {
          "_0": "A uint256 specifying the amount of tokens still available for the spender."
        }
      },
      "approve(address,uint256)": {
        "details": "Approve the passed address to spend the specified amount of tokens on behalf of msg.sender.",
        "params": {
          "amount": "The amount of tokens to be spent.",
          "spender": "The address which will spend the funds."
        }
      },
      "balanceOf(address)": {
        "details": "Gets the balance of the specified address.",
        "params": {
          "owner": "The address to query the the balance of."
        },
        "returns": {
          "balance": "An uint256 representing the amount owned by the passed address."
        }
      },
      "transfer(address,uint256)": {
        "details": "transfer token for a specified address",
        "params": {
          "amount": "The amount to be transferred.",
          "to": "The address to transfer to."
        }
      },
      "transferFrom(address,address,uint256)": {
        "details": "Transfer tokens from one address to another",
        "params": {
          "amount": "uint256 the amount of tokens to be transferred",
          "from": "address The address which you want to send tokens from",
          "to": "address The address which you want to transfer to"
        }
      }
    },
    "title": "DODO VendingMachine"
  },
  "userdoc": {
    "methods": {},
    "notice": "DODOVendingMachine initialization"
  }
}