{
  "contractName": "DVMFactory",
  "abi": [
    {
      "inputs": [
        {
          "internalType": "address",
          "name": "cloneFactory",
          "type": "address"
        },
        {
          "internalType": "address",
          "name": "dvmTemplate",
          "type": "address"
        },
        {
          "internalType": "address",
          "name": "defaultMaintainer",
          "type": "address"
        },
        {
          "internalType": "address",
          "name": "defaultMtFeeRateModel",
          "type": "address"
        }
      ],
      "stateMutability": "nonpayable",
      "type": "constructor"
    },
    {
      "anonymous": false,
      "inputs": [
        {
          "indexed": false,
          "internalType": "address",
          "name": "baseToken",
          "type": "address"
        },
        {
          "indexed": false,
          "internalType": "address",
          "name": "quoteToken",
          "type": "address"
        },
        {
          "indexed": false,
          "internalType": "address",
          "name": "creator",
          "type": "address"
        },
        {
          "indexed": false,
          "internalType": "address",
          "name": "dvm",
          "type": "address"
        }
      ],
      "name": "NewDVM",
      "type": "event"
    },
    {
      "anonymous": false,
      "inputs": [
        {
          "indexed": true,
          "internalType": "address",
          "name": "previousOwner",
          "type": "address"
        },
        {
          "indexed": true,
          "internalType": "address",
          "name": "newOwner",
          "type": "address"
        }
      ],
      "name": "OwnershipTransferPrepared",
      "type": "event"
    },
    {
      "anonymous": false,
      "inputs": [
        {
          "indexed": true,
          "internalType": "address",
          "name": "previousOwner",
          "type": "address"
        },
        {
          "indexed": true,
          "internalType": "address",
          "name": "newOwner",
          "type": "address"
        }
      ],
      "name": "OwnershipTransferred",
      "type": "event"
    },
    {
      "anonymous": false,
      "inputs": [
        {
          "indexed": false,
          "internalType": "address",
          "name": "dvm",
          "type": "address"
        }
      ],
      "name": "RemoveDVM",
      "type": "event"
    },
    {
      "inputs": [],
      "name": "_CLONE_FACTORY_",
      "outputs": [
        {
          "internalType": "address",
          "name": "",
          "type": "address"
        }
      ],
      "stateMutability": "view",
      "type": "function"
    },
    {
      "inputs": [],
      "name": "_DEFAULT_MAINTAINER_",
      "outputs": [
        {
          "internalType": "address",
          "name": "",
          "type": "address"
        }
      ],
      "stateMutability": "view",
      "type": "function"
    },
    {
      "inputs": [],
      "name": "_DEFAULT_MT_FEE_RATE_MODEL_",
      "outputs": [
        {
          "internalType": "address",
          "name": "",
          "type": "address"
        }
      ],
      "stateMutability": "view",
      "type": "function"
    },
    {
      "inputs": [],
      "name": "_DVM_TEMPLATE_",
      "outputs": [
        {
          "internalType": "address",
          "name": "",
          "type": "address"
        }
      ],
      "stateMutability": "view",
      "type": "function"
    },
    {
      "inputs": [],
      "name": "_NEW_OWNER_",
      "outputs": [
        {
          "internalType": "address",
          "name": "",
          "type": "address"
        }
      ],
      "stateMutability": "view",
      "type": "function"
    },
    {
      "inputs": [],
      "name": "_OWNER_",
      "outputs": [
        {
          "internalType": "address",
          "name": "",
          "type": "address"
        }
      ],
      "stateMutability": "view",
      "type": "function"
    },
    {
      "inputs": [
        {
          "internalType": "address",
          "name": "",
          "type": "address"
        },
        {
          "internalType": "address",
          "name": "",
          "type": "address"
        },
        {
          "internalType": "uint256",
          "name": "",
          "type": "uint256"
        }
      ],
      "name": "_REGISTRY_",
      "outputs": [
        {
          "internalType": "address",
          "name": "",
          "type": "address"
        }
      ],
      "stateMutability": "view",
      "type": "function"
    },
    {
      "inputs": [
        {
          "internalType": "address",
          "name": "",
          "type": "address"
        },
        {
          "internalType": "uint256",
          "name": "",
          "type": "uint256"
        }
      ],
      "name": "_USER_REGISTRY_",
      "outputs": [
        {
          "internalType": "address",
          "name": "",
          "type": "address"
        }
      ],
      "stateMutability": "view",
      "type": "function"
    },
    {
      "inputs": [],
      "name": "claimOwnership",
      "outputs": [],
      "stateMutability": "nonpayable",
      "type": "function"
    },
    {
      "inputs": [
        {
          "internalType": "address",
          "name": "newOwner",
          "type": "address"
        }
      ],
      "name": "initOwner",
      "outputs": [],
      "stateMutability": "nonpayable",
      "type": "function"
    },
    {
      "inputs": [
        {
          "internalType": "address",
          "name": "newOwner",
          "type": "address"
        }
      ],
      "name": "transferOwnership",
      "outputs": [],
      "stateMutability": "nonpayable",
      "type": "function"
    },
    {
      "inputs": [
        {
          "internalType": "address",
          "name": "baseToken",
          "type": "address"
        },
        {
          "internalType": "address",
          "name": "quoteToken",
          "type": "address"
        },
        {
          "internalType": "uint256",
          "name": "lpFeeRate",
          "type": "uint256"
        },
        {
          "internalType": "uint256",
          "name": "i",
          "type": "uint256"
        },
        {
          "internalType": "uint256",
          "name": "k",
          "type": "uint256"
        }
      ],
      "name": "createDODOVendingMachine",
      "outputs": [
        {
          "internalType": "address",
          "name": "newVendingMachine",
          "type": "address"
        }
      ],
      "stateMutability": "nonpayable",
      "type": "function"
    },
    {
      "inputs": [
        {
          "internalType": "address",
          "name": "_newDVMTemplate",
          "type": "address"
        }
      ],
      "name": "updateDvmTemplate",
      "outputs": [],
      "stateMutability": "nonpayable",
      "type": "function"
    },
    {
      "inputs": [
        {
          "internalType": "address",
          "name": "creator",
          "type": "address"
        },
        {
          "internalType": "address",
          "name": "baseToken",
          "type": "address"
        },
        {
          "internalType": "address",
          "name": "quoteToken",
          "type": "address"
        },
        {
          "internalType": "address",
          "name": "pool",
          "type": "address"
        }
      ],
      "name": "addPoolByAdmin",
      "outputs": [],
      "stateMutability": "nonpayable",
      "type": "function"
    },
    {
      "inputs": [
        {
          "internalType": "address",
          "name": "creator",
          "type": "address"
        },
        {
          "internalType": "address",
          "name": "baseToken",
          "type": "address"
        },
        {
          "internalType": "address",
          "name": "quoteToken",
          "type": "address"
        },
        {
          "internalType": "address",
          "name": "pool",
          "type": "address"
        }
      ],
      "name": "removePoolByAdmin",
      "outputs": [],
      "stateMutability": "nonpayable",
      "type": "function"
    },
    {
      "inputs": [
        {
          "internalType": "address",
          "name": "baseToken",
          "type": "address"
        },
        {
          "internalType": "address",
          "name": "quoteToken",
          "type": "address"
        }
      ],
      "name": "getVendingMachine",
      "outputs": [
        {
          "internalType": "address[]",
          "name": "machines",
          "type": "address[]"
        }
      ],
      "stateMutability": "view",
      "type": "function"
    },
    {
      "inputs": [
        {
          "internalType": "address",
          "name": "token0",
          "type": "address"
        },
        {
          "internalType": "address",
          "name": "token1",
          "type": "address"
        }
      ],
      "name": "getVendingMachineBidirection",
      "outputs": [
        {
          "internalType": "address[]",
          "name": "baseToken0Machines",
          "type": "address[]"
        },
        {
          "internalType": "address[]",
          "name": "baseToken1Machines",
          "type": "address[]"
        }
      ],
      "stateMutability": "view",
      "type": "function"
    },
    {
      "inputs": [
        {
          "internalType": "address",
          "name": "user",
          "type": "address"
        }
      ],
      "name": "getVendingMachineByUser",
      "outputs": [
        {
          "internalType": "address[]",
          "name": "machines",
          "type": "address[]"
        }
      ],
      "stateMutability": "view",
      "type": "function"
    }
  ],
  "bytecode": "0x60e06040523480156200001157600080fd5b50604051620012883803806200128883398101604081905262000034916200009c565b606093841b6001600160601b0319908116608052600280546001600160a01b0319166001600160a01b03959095169490941790935590831b821660a05290911b1660c052620000fc565b80516001600160a01b03811681146200009657600080fd5b92915050565b60008060008060808587031215620000b2578384fd5b620000be86866200007e565b9350620000cf86602087016200007e565b9250620000e086604087016200007e565b9150620000f186606087016200007e565b905092959194509250565b60805160601c60a05160601c60c05160601c61114762000141600039806108985280610a165250806108bc52806109ee52508061093f5280610cbf52506111476000f3fe608060405234801561001057600080fd5b50600436106101165760003560e01c80638456db15116100a2578063ccf0c05911610071578063ccf0c05914610200578063d36cf10a14610208578063d99b8ad414610229578063eb774d051461023c578063f2fde38b1461024457610116565b80638456db15146101bf578063a58888db146101c7578063a69dcfd6146101da578063bdeb0a91146101ed57610116565b806343274b82116100e957806343274b82146101815780634e71e0c814610194578063600e45ab1461019c5780636c5ccb9b146101af57806381ab4d0a146101b757610116565b80630d0092971461011b57806316048bc4146101305780632308f0ff1461014e57806339d00ef91461016e575b600080fd5b61012e610129366004610df2565b610257565b005b6101386102c0565b6040516101459190610fc2565b60405180910390f35b61016161015c366004610df2565b6102cf565b6040516101459190611044565b61012e61017c366004610e69565b610345565b61012e61018f366004610e69565b610422565b61012e610785565b6101616101aa366004610e31565b610813565b610138610896565b6101386108ba565b6101386108de565b6101386101d5366004610f54565b6108ed565b6101386101e8366004610f04565b610922565b6101386101fb366004610ec4565b610b28565b610138610b6a565b61021b610216366004610e31565b610b79565b604051610145929190611057565b61012e610237366004610df2565b610c71565b610138610cbd565b61012e610252366004610df2565b610ce1565b600154600160a01b900460ff161561028a5760405162461bcd60e51b8152600401610281906110ac565b60405180910390fd5b6001805460ff60a01b1916600160a01b179055600080546001600160a01b039092166001600160a01b0319909216919091179055565b6000546001600160a01b031681565b6001600160a01b03811660009081526004602090815260409182902080548351818402810184019094528084526060939283018282801561033957602002820191906000526020600020905b81546001600160a01b0316815260019091019060200180831161031b575b50505050509050919050565b6000546001600160a01b0316331461036f5760405162461bcd60e51b8152600401610281906110d6565b6001600160a01b038084166000908152600360209081526040808320868516845282528083208054600181810183559185528385200180548787166001600160a01b03199182168117909255958a1685526004845282852080549283018155855292909320909201805490931617909155517faf5c5f12a80fc937520df6fcaed66262a4cc775e0f3fceaf7a7cfe476d9a751d90610414908590859088908690610fd6565b60405180910390a150505050565b6000546001600160a01b0316331461044c5760405162461bcd60e51b8152600401610281906110d6565b6001600160a01b0380841660009081526003602090815260408083209386168352928152908290208054835181840281018401909452808452606093928301828280156104c257602002820191906000526020600020905b81546001600160a01b031681526001909101906020018083116104a4575b50939450600093505050505b815181101561055557826001600160a01b03168282815181106104ed57fe5b60200260200101516001600160a01b0316141561054d578160018351038151811061051457fe5b602002602001015182828151811061052857fe5b60200260200101906001600160a01b031690816001600160a01b031681525050610555565b6001016104ce565b506001600160a01b0380851660009081526003602090815260408083209387168352928152919020825161058b92840190610d66565b506001600160a01b0380851660009081526003602090815260408083209387168352929052208054806105ba57fe5b60008281526020808220830160001990810180546001600160a01b03191690559092019092556001600160a01b03871682526004815260409182902080548351818402810184019094528084526060939283018282801561064457602002820191906000526020600020905b81546001600160a01b03168152600190910190602001808311610626575b50939450600093505050505b81518110156106d757836001600160a01b031682828151811061066f57fe5b60200260200101516001600160a01b031614156106cf578160018351038151811061069657fe5b60200260200101518282815181106106aa57fe5b60200260200101906001600160a01b031690816001600160a01b0316815250506106d7565b600101610650565b506001600160a01b0386166000908152600460209081526040909120825161070192840190610d66565b506001600160a01b038616600090815260046020526040902080548061072357fe5b600082815260209020810160001990810180546001600160a01b03191690550190556040517f63971a172c674ce2e9da5e027e9e81a54fd3aa74a2c246a2eb473dc0aa7f5cdd90610775908590610fc2565b60405180910390a1505050505050565b6001546001600160a01b031633146107af5760405162461bcd60e51b815260040161028190611085565b600154600080546040516001600160a01b0393841693909116917f8be0079c531659141344cd1fd0a4f28419497f9722a3daafe3b4186f6b6457e091a360018054600080546001600160a01b03199081166001600160a01b03841617909155169055565b6001600160a01b03808316600090815260036020908152604080832093851683529281529082902080548351818402810184019094528084526060939283018282801561088957602002820191906000526020600020905b81546001600160a01b0316815260019091019060200180831161086b575b5050505050905092915050565b7f000000000000000000000000000000000000000000000000000000000000000081565b7f000000000000000000000000000000000000000000000000000000000000000081565b6001546001600160a01b031681565b6004602052816000526040600020818154811061090657fe5b6000918252602090912001546001600160a01b03169150829050565b6002546040516340925bc760e11b81526000916001600160a01b037f0000000000000000000000000000000000000000000000000000000000000000811692638124b78e92610975921690600401610fc2565b602060405180830381600087803b15801561098f57600080fd5b505af11580156109a3573d6000803e3d6000fd5b505050506040513d601f19601f820116820180604052508101906109c79190610e15565b604051633f28b00760e01b81529091506001600160a01b03821690633f28b00790610a42907f0000000000000000000000000000000000000000000000000000000000000000908a908a908a907f0000000000000000000000000000000000000000000000000000000000000000908b908b90600401611001565b600060405180830381600087803b158015610a5c57600080fd5b505af1158015610a70573d6000803e3d6000fd5b5050506001600160a01b0380881660009081526003602090815260408083208a8516845282528083208054600181810183559185528385200180549588166001600160a01b03199687168117909155328086526004855283862080549384018155865293909420018054909416909217909255517faf5c5f12a80fc937520df6fcaed66262a4cc775e0f3fceaf7a7cfe476d9a751d9250610b179189918991908690610fd6565b60405180910390a195945050505050565b60036020528260005260406000206020528160005260406000208181548110610b4d57fe5b6000918252602090912001546001600160a01b0316925083915050565b6002546001600160a01b031681565b6001600160a01b0380831660008181526003602081815260408084209587168452948152848320918152848320938352928352908390208154845181850281018501909552808552606094859490918491830182828015610c0357602002820191906000526020600020905b81546001600160a01b03168152600190910190602001808311610be5575b5050505050915080805480602002602001604051908101604052809291908181526020018280548015610c5f57602002820191906000526020600020905b81546001600160a01b03168152600190910190602001808311610c41575b50505050509050915091509250929050565b6000546001600160a01b03163314610c9b5760405162461bcd60e51b8152600401610281906110d6565b600280546001600160a01b0319166001600160a01b0392909216919091179055565b7f000000000000000000000000000000000000000000000000000000000000000081565b6000546001600160a01b03163314610d0b5760405162461bcd60e51b8152600401610281906110d6565b600080546040516001600160a01b03808516939216917fdcf55418cee3220104fef63f979ff3c4097ad240c0c43dcb33ce837748983e6291a3600180546001600160a01b0319166001600160a01b0392909216919091179055565b828054828255906000526020600020908101928215610dbb579160200282015b82811115610dbb57825182546001600160a01b0319166001600160a01b03909116178255602090920191600190910190610d86565b50610dc7929150610dcb565b5090565b610def91905b80821115610dc75780546001600160a01b0319168155600101610dd1565b90565b600060208284031215610e03578081fd5b8135610e0e816110f9565b9392505050565b600060208284031215610e26578081fd5b8151610e0e816110f9565b60008060408385031215610e43578081fd5b8235610e4e816110f9565b91506020830135610e5e816110f9565b809150509250929050565b60008060008060808587031215610e7e578182fd5b8435610e89816110f9565b93506020850135610e99816110f9565b92506040850135610ea9816110f9565b91506060850135610eb9816110f9565b939692955090935050565b600080600060608486031215610ed8578283fd5b8335610ee3816110f9565b92506020840135610ef3816110f9565b929592945050506040919091013590565b600080600080600060a08688031215610f1b578081fd5b8535610f26816110f9565b94506020860135610f36816110f9565b94979496505050506040830135926060810135926080909101359150565b60008060408385031215610f66578182fd5b8235610f71816110f9565b946020939093013593505050565b6000815180845260208085019450808401835b83811015610fb75781516001600160a01b031687529582019590820190600101610f92565b509495945050505050565b6001600160a01b0391909116815260200190565b6001600160a01b03948516815292841660208401529083166040830152909116606082015260800190565b6001600160a01b039788168152958716602087015293861660408601526060850192909252909316608083015260a082019290925260c081019190915260e00190565b600060208252610e0e6020830184610f7f565b60006040825261106a6040830185610f7f565b828103602084015261107c8185610f7f565b95945050505050565b6020808252600d908201526c494e56414c49445f434c41494d60981b604082015260600190565b60208082526010908201526f1113d113d7d25392551250531256915160821b604082015260600190565b6020808252600990820152682727aa2fa7aba722a960b91b604082015260600190565b6001600160a01b038116811461110e57600080fd5b5056fea26469706673582212203f2a52361ecbe12c6138579da1682304496669f4181e203cac0c7edb69d2519f64736f6c63430006090033",
  "immutableReferences": {
    "8856": [
      {
        "length": 32,
        "start": 2367
      },
      {
        "length": 32,
        "start": 3263
      }
    ],
    "8858": [
      {
        "length": 32,
        "start": 2236
      },
      {
        "length": 32,
        "start": 2542
      }
    ],
    "8860": [
      {
        "length": 32,
        "start": 2200
      },
      {
        "length": 32,
        "start": 2582
      }
    ]
  },
  "source": "/*\n\n    Copyright 2020 DODO ZOO.\n    SPDX-License-Identifier: Apache-2.0\n\n*/\n\npragma solidity 0.6.9;\npragma experimental ABIEncoderV2;\n\nimport {InitializableOwnable} from \"../lib/InitializableOwnable.sol\";\nimport {ICloneFactory} from \"../lib/CloneFactory.sol\";\nimport {IDVM} from \"../DODOVendingMachine/intf/IDVM.sol\";\n\ninterface IDVMFactory {\n    function createDODOVendingMachine(\n        address baseToken,\n        address quoteToken,\n        uint256 lpFeeRate,\n        uint256 i,\n        uint256 k\n    ) external returns (address newVendingMachine);\n}\n\n\n/**\n * @title DODO VendingMachine Factory\n * @author DODO Breeder\n *\n * @notice Create And Register DVM Pools \n */\ncontract DVMFactory is InitializableOwnable {\n    // ============ Templates ============\n\n    address public immutable _CLONE_FACTORY_;\n    address public immutable _DEFAULT_MAINTAINER_;\n    address public immutable _DEFAULT_MT_FEE_RATE_MODEL_;\n    address public _DVM_TEMPLATE_;\n\n    // ============ Registry ============\n\n    // base -> quote -> DVM address list\n    mapping(address => mapping(address => address[])) public _REGISTRY_;\n    // creator -> DVM address list\n    mapping(address => address[]) public _USER_REGISTRY_;\n\n    // ============ Events ============\n\n    event NewDVM(\n        address baseToken,\n        address quoteToken,\n        address creator,\n        address dvm\n    );\n\n    event RemoveDVM(address dvm);\n\n    // ============ Functions ============\n\n    constructor(\n        address cloneFactory,\n        address dvmTemplate,\n        address defaultMaintainer,\n        address defaultMtFeeRateModel\n    ) public {\n        _CLONE_FACTORY_ = cloneFactory;\n        _DVM_TEMPLATE_ = dvmTemplate;\n        _DEFAULT_MAINTAINER_ = defaultMaintainer;\n        _DEFAULT_MT_FEE_RATE_MODEL_ = defaultMtFeeRateModel;\n    }\n\n    function createDODOVendingMachine(\n        address baseToken,\n        address quoteToken,\n        uint256 lpFeeRate,\n        uint256 i,\n        uint256 k\n    ) external returns (address newVendingMachine) {\n        newVendingMachine = ICloneFactory(_CLONE_FACTORY_).clone(_DVM_TEMPLATE_);\n        {\n            IDVM(newVendingMachine).init(\n                _DEFAULT_MAINTAINER_,\n                baseToken,\n                quoteToken,\n                lpFeeRate,\n                _DEFAULT_MT_FEE_RATE_MODEL_,\n                i,\n                k\n            );\n        }\n        _REGISTRY_[baseToken][quoteToken].push(newVendingMachine);\n        _USER_REGISTRY_[tx.origin].push(newVendingMachine);\n        emit NewDVM(baseToken, quoteToken, tx.origin, newVendingMachine);\n    }\n\n    // ============ Admin Operation Functions ============\n\n    function updateDvmTemplate(address _newDVMTemplate) external onlyOwner {\n        _DVM_TEMPLATE_ = _newDVMTemplate;\n    }\n\n    function addPoolByAdmin(\n        address creator,\n        address baseToken, \n        address quoteToken,\n        address pool\n    ) external onlyOwner {\n        _REGISTRY_[baseToken][quoteToken].push(pool);\n        _USER_REGISTRY_[creator].push(pool);\n        emit NewDVM(baseToken, quoteToken, creator, pool);\n    }\n\n    function removePoolByAdmin(\n        address creator,\n        address baseToken, \n        address quoteToken,\n        address pool\n    ) external onlyOwner {\n        address[] memory registryList = _REGISTRY_[baseToken][quoteToken];\n        for (uint256 i = 0; i < registryList.length; i++) {\n            if (registryList[i] == pool) {\n                registryList[i] = registryList[registryList.length - 1];\n                break;\n            }\n        }\n        _REGISTRY_[baseToken][quoteToken] = registryList;\n        _REGISTRY_[baseToken][quoteToken].pop();\n        address[] memory userRegistryList = _USER_REGISTRY_[creator];\n        for (uint256 i = 0; i < userRegistryList.length; i++) {\n            if (userRegistryList[i] == pool) {\n                userRegistryList[i] = userRegistryList[userRegistryList.length - 1];\n                break;\n            }\n        }\n        _USER_REGISTRY_[creator] = userRegistryList;\n        _USER_REGISTRY_[creator].pop();\n        emit RemoveDVM(pool);\n    }\n\n    // ============ View Functions ============\n\n    function getVendingMachine(address baseToken, address quoteToken)\n        external\n        view\n        returns (address[] memory machines)\n    {\n        return _REGISTRY_[baseToken][quoteToken];\n    }\n\n    function getVendingMachineBidirection(address token0, address token1)\n        external\n        view\n        returns (address[] memory baseToken0Machines, address[] memory baseToken1Machines)\n    {\n        return (_REGISTRY_[token0][token1], _REGISTRY_[token1][token0]);\n    }\n\n    function getVendingMachineByUser(address user)\n        external\n        view\n        returns (address[] memory machines)\n    {\n        return _USER_REGISTRY_[user];\n    }\n}\n",
  "sourcePath": "/Users/niutaotao/projects/dodo/contractV2/contracts/Factory/DVMFactory.sol",
  "compiler": {
    "name": "solc",
    "version": "0.6.9+commit.3e3065ac.Emscripten.clang"
  },
  "schemaVersion": "3.3.2",
  "updatedAt": "2021-01-13T13:03:23.770Z",
  "devdoc": {
    "author": "DODO Breeder",
    "methods": {},
    "title": "DODO VendingMachine Factory"
  },
  "userdoc": {
    "methods": {},
    "notice": "Create And Register DVM Pools "
  }
}