{
  "contractName": "DVMFactory",
  "abi": [
    {
      "inputs": [
        {
          "internalType": "address",
          "name": "cloneFactory",
          "type": "address"
        },
        {
          "internalType": "address",
          "name": "dvmTemplate",
          "type": "address"
        },
        {
          "internalType": "address",
          "name": "dvmAdminTemplate",
          "type": "address"
        },
        {
          "internalType": "address",
          "name": "feeRateModelTemplate",
          "type": "address"
        },
        {
          "internalType": "address",
          "name": "permissionManagerTemplate",
          "type": "address"
        },
        {
          "internalType": "address",
          "name": "defaultGasPriceSource",
          "type": "address"
        },
        {
          "internalType": "address",
          "name": "defaultMaintainer",
          "type": "address"
        },
        {
          "internalType": "address",
          "name": "defaultMtFeeRateModel",
          "type": "address"
        },
        {
          "internalType": "address",
          "name": "defaultPermissionManager",
          "type": "address"
        }
      ],
      "stateMutability": "nonpayable",
      "type": "constructor"
    },
    {
      "anonymous": false,
      "inputs": [
        {
          "indexed": false,
          "internalType": "address",
          "name": "baseToken",
          "type": "address"
        },
        {
          "indexed": false,
          "internalType": "address",
          "name": "quoteToken",
          "type": "address"
        },
        {
          "indexed": false,
          "internalType": "address",
          "name": "creator",
          "type": "address"
        },
        {
          "indexed": false,
          "internalType": "address",
          "name": "dvm",
          "type": "address"
        }
      ],
      "name": "NewDVM",
      "type": "event"
    },
    {
      "anonymous": false,
      "inputs": [
        {
          "indexed": true,
          "internalType": "address",
          "name": "previousOwner",
          "type": "address"
        },
        {
          "indexed": true,
          "internalType": "address",
          "name": "newOwner",
          "type": "address"
        }
      ],
      "name": "OwnershipTransferPrepared",
      "type": "event"
    },
    {
      "anonymous": false,
      "inputs": [
        {
          "indexed": true,
          "internalType": "address",
          "name": "previousOwner",
          "type": "address"
        },
        {
          "indexed": true,
          "internalType": "address",
          "name": "newOwner",
          "type": "address"
        }
      ],
      "name": "OwnershipTransferred",
      "type": "event"
    },
    {
      "anonymous": false,
      "inputs": [
        {
          "indexed": false,
          "internalType": "address",
          "name": "dvm",
          "type": "address"
        }
      ],
      "name": "RemoveDVM",
      "type": "event"
    },
    {
      "inputs": [],
      "name": "_CLONE_FACTORY_",
      "outputs": [
        {
          "internalType": "address",
          "name": "",
          "type": "address"
        }
      ],
      "stateMutability": "view",
      "type": "function"
    },
    {
      "inputs": [],
      "name": "_DEFAULT_GAS_PRICE_SOURCE_",
      "outputs": [
        {
          "internalType": "address",
          "name": "",
          "type": "address"
        }
      ],
      "stateMutability": "view",
      "type": "function"
    },
    {
      "inputs": [],
      "name": "_DEFAULT_MAINTAINER_",
      "outputs": [
        {
          "internalType": "address",
          "name": "",
          "type": "address"
        }
      ],
      "stateMutability": "view",
      "type": "function"
    },
    {
      "inputs": [],
      "name": "_DEFAULT_MT_FEE_RATE_MODEL_",
      "outputs": [
        {
          "internalType": "address",
          "name": "",
          "type": "address"
        }
      ],
      "stateMutability": "view",
      "type": "function"
    },
    {
      "inputs": [],
      "name": "_DEFAULT_PERMISSION_MANAGER_",
      "outputs": [
        {
          "internalType": "address",
          "name": "",
          "type": "address"
        }
      ],
      "stateMutability": "view",
      "type": "function"
    },
    {
      "inputs": [],
      "name": "_DVM_ADMIN_TEMPLATE_",
      "outputs": [
        {
          "internalType": "address",
          "name": "",
          "type": "address"
        }
      ],
      "stateMutability": "view",
      "type": "function"
    },
    {
      "inputs": [],
      "name": "_DVM_TEMPLATE_",
      "outputs": [
        {
          "internalType": "address",
          "name": "",
          "type": "address"
        }
      ],
      "stateMutability": "view",
      "type": "function"
    },
    {
      "inputs": [],
      "name": "_FEE_RATE_MODEL_TEMPLATE_",
      "outputs": [
        {
          "internalType": "address",
          "name": "",
          "type": "address"
        }
      ],
      "stateMutability": "view",
      "type": "function"
    },
    {
      "inputs": [],
      "name": "_NEW_OWNER_",
      "outputs": [
        {
          "internalType": "address",
          "name": "",
          "type": "address"
        }
      ],
      "stateMutability": "view",
      "type": "function"
    },
    {
      "inputs": [],
      "name": "_OWNER_",
      "outputs": [
        {
          "internalType": "address",
          "name": "",
          "type": "address"
        }
      ],
      "stateMutability": "view",
      "type": "function"
    },
    {
      "inputs": [],
      "name": "_PERMISSION_MANAGER_TEMPLATE_",
      "outputs": [
        {
          "internalType": "address",
          "name": "",
          "type": "address"
        }
      ],
      "stateMutability": "view",
      "type": "function"
    },
    {
      "inputs": [
        {
          "internalType": "address",
          "name": "",
          "type": "address"
        },
        {
          "internalType": "address",
          "name": "",
          "type": "address"
        },
        {
          "internalType": "uint256",
          "name": "",
          "type": "uint256"
        }
      ],
      "name": "_REGISTRY_",
      "outputs": [
        {
          "internalType": "address",
          "name": "",
          "type": "address"
        }
      ],
      "stateMutability": "view",
      "type": "function"
    },
    {
      "inputs": [
        {
          "internalType": "address",
          "name": "",
          "type": "address"
        },
        {
          "internalType": "uint256",
          "name": "",
          "type": "uint256"
        }
      ],
      "name": "_USER_REGISTRY_",
      "outputs": [
        {
          "internalType": "address",
          "name": "",
          "type": "address"
        }
      ],
      "stateMutability": "view",
      "type": "function"
    },
    {
      "inputs": [],
      "name": "claimOwnership",
      "outputs": [],
      "stateMutability": "nonpayable",
      "type": "function"
    },
    {
      "inputs": [
        {
          "internalType": "address",
          "name": "newOwner",
          "type": "address"
        }
      ],
      "name": "initOwner",
      "outputs": [],
      "stateMutability": "nonpayable",
      "type": "function"
    },
    {
      "inputs": [
        {
          "internalType": "address",
          "name": "newOwner",
          "type": "address"
        }
      ],
      "name": "transferOwnership",
      "outputs": [],
      "stateMutability": "nonpayable",
      "type": "function"
    },
    {
      "inputs": [
        {
          "internalType": "address",
          "name": "creator",
          "type": "address"
        },
        {
          "internalType": "address",
          "name": "baseToken",
          "type": "address"
        },
        {
          "internalType": "address",
          "name": "quoteToken",
          "type": "address"
        },
        {
          "internalType": "uint256",
          "name": "lpFeeRate",
          "type": "uint256"
        },
        {
          "internalType": "uint256",
          "name": "mtFeeRate",
          "type": "uint256"
        },
        {
          "internalType": "uint256",
          "name": "i",
          "type": "uint256"
        },
        {
          "internalType": "uint256",
          "name": "k",
          "type": "uint256"
        }
      ],
      "name": "createDODOVendingMachine",
      "outputs": [
        {
          "internalType": "address",
          "name": "newVendingMachine",
          "type": "address"
        }
      ],
      "stateMutability": "nonpayable",
      "type": "function"
    },
    {
      "inputs": [
        {
          "internalType": "address",
          "name": "creator",
          "type": "address"
        },
        {
          "internalType": "address",
          "name": "baseToken",
          "type": "address"
        },
        {
          "internalType": "address",
          "name": "quoteToken",
          "type": "address"
        },
        {
          "internalType": "uint256",
          "name": "lpFeeRate",
          "type": "uint256"
        },
        {
          "internalType": "uint256",
          "name": "i",
          "type": "uint256"
        },
        {
          "internalType": "uint256",
          "name": "k",
          "type": "uint256"
        }
      ],
      "name": "createUnOwnedDODOVendingMachine",
      "outputs": [
        {
          "internalType": "address",
          "name": "newVendingMachine",
          "type": "address"
        }
      ],
      "stateMutability": "nonpayable",
      "type": "function"
    },
    {
      "inputs": [
        {
          "internalType": "address",
          "name": "_newDVMAdminTemplate",
          "type": "address"
        }
      ],
      "name": "updateAdminTemplate",
      "outputs": [],
      "stateMutability": "nonpayable",
      "type": "function"
    },
    {
      "inputs": [
        {
          "internalType": "address",
          "name": "creator",
          "type": "address"
        },
        {
          "internalType": "address",
          "name": "baseToken",
          "type": "address"
        },
        {
          "internalType": "address",
          "name": "quoteToken",
          "type": "address"
        },
        {
          "internalType": "address",
          "name": "pool",
          "type": "address"
        }
      ],
      "name": "addPoolByAdmin",
      "outputs": [],
      "stateMutability": "nonpayable",
      "type": "function"
    },
    {
      "inputs": [
        {
          "internalType": "address",
          "name": "creator",
          "type": "address"
        },
        {
          "internalType": "address",
          "name": "baseToken",
          "type": "address"
        },
        {
          "internalType": "address",
          "name": "quoteToken",
          "type": "address"
        },
        {
          "internalType": "address",
          "name": "pool",
          "type": "address"
        }
      ],
      "name": "removePoolByAdmin",
      "outputs": [],
      "stateMutability": "nonpayable",
      "type": "function"
    },
    {
      "inputs": [
        {
          "internalType": "address",
          "name": "baseToken",
          "type": "address"
        },
        {
          "internalType": "address",
          "name": "quoteToken",
          "type": "address"
        }
      ],
      "name": "getVendingMachine",
      "outputs": [
        {
          "internalType": "address[]",
          "name": "machines",
          "type": "address[]"
        }
      ],
      "stateMutability": "view",
      "type": "function"
    },
    {
      "inputs": [
        {
          "internalType": "address",
          "name": "token0",
          "type": "address"
        },
        {
          "internalType": "address",
          "name": "token1",
          "type": "address"
        }
      ],
      "name": "getVendingMachineBidirection",
      "outputs": [
        {
          "internalType": "address[]",
          "name": "baseToken0Machines",
          "type": "address[]"
        },
        {
          "internalType": "address[]",
          "name": "baseToken1Machines",
          "type": "address[]"
        }
      ],
      "stateMutability": "view",
      "type": "function"
    },
    {
      "inputs": [
        {
          "internalType": "address",
          "name": "user",
          "type": "address"
        }
      ],
      "name": "getVendingMachineByUser",
      "outputs": [
        {
          "internalType": "address[]",
          "name": "machines",
          "type": "address[]"
        }
      ],
      "stateMutability": "view",
      "type": "function"
    }
  ],
  "bytecode": "0x6101806040523480156200001257600080fd5b5060405162001be338038062001be38339810160408190526200003591620000c9565b606098891b6001600160601b031990811660805297891b881660a052600280546001600160a01b0319166001600160a01b03989098169790971790965593871b861660c05291861b851660e05290851b84166101005290841b83166101205290831b82166101405290911b16610160526200018c565b80516001600160a01b0381168114620000c357600080fd5b92915050565b60008060008060008060008060006101208a8c031215620000e8578485fd5b620000f48b8b620000ab565b9850620001058b60208c01620000ab565b9750620001168b60408c01620000ab565b9650620001278b60608c01620000ab565b9550620001388b60808c01620000ab565b9450620001498b60a08c01620000ab565b93506200015a8b60c08c01620000ab565b92506200016b8b60e08c01620000ab565b91506200017d8b6101008c01620000ab565b90509295985092959850929598565b60805160601c60a05160601c60c05160601c60e05160601c6101005160601c6101205160601c6101405160601c6101605160601c61199b62000248600039806109b75280610bf85280610e27525080610e0652806110eb525080610c405280610de5525080610cb05280610db7525080610c1c528061140c5250806103c4528061131a5250806108fb5280610d285280610fcf5250806108ce5280610cfb528061111e52806111e252806112ed52806113df525061199b6000f3fe608060405234801561001057600080fd5b50600436106101585760003560e01c80637d2c82d7116100c3578063ccf0c0591161007c578063ccf0c05914610280578063d36cf10a14610288578063e0f5d89e146102a9578063e9436f2c146102b1578063eb774d05146102b9578063f2fde38b146102c157610158565b80637d2c82d71461022457806381ab4d0a146102375780638456db151461023f578063a2a3e3c014610247578063a58888db1461025a578063bdeb0a911461026d57610158565b80634e71e0c8116101155780634e71e0c8146101de5780635fcfc0d8146101e6578063600e45ab146101f9578063658ba1a91461020c5780636acbb1b4146102145780636c5ccb9b1461021c57610158565b80630d0092971461015d57806316048bc4146101725780632308f0ff14610190578063378ac467146101b057806339d00ef9146101b857806343274b82146101cb575b600080fd5b61017061016b366004611578565b6102d4565b005b61017a61033d565b60405161018791906117c9565b60405180910390f35b6101a361019e366004611578565b61034c565b6040516101879190611898565b61017a6103c2565b6101706101c63660046115ef565b6103e6565b6101706101d93660046115ef565b6104c3565b610170610826565b61017a6101f43660046116ae565b6108b4565b6101a36102073660046115b7565b610b73565b61017a610bf6565b61017a610c1a565b61017a610c3e565b610170610232366004611578565b610c62565b61017a610cae565b61017a610cd2565b61017a61025536600461164a565b610ce1565b61017a61026836600461175b565b610f56565b61017a61027b36600461171b565b610f8b565b61017a610fcd565b61029b6102963660046115b7565b610ff1565b6040516101879291906118ab565b61017a6110e9565b61017a61110d565b61017a61111c565b6101706102cf366004611578565b611140565b600154600160a01b900460ff16156103075760405162461bcd60e51b81526004016102fe90611900565b60405180910390fd5b6001805460ff60a01b1916600160a01b179055600080546001600160a01b039092166001600160a01b0319909216919091179055565b6000546001600160a01b031681565b6001600160a01b0381166000908152600460209081526040918290208054835181840281018401909452808452606093928301828280156103b657602002820191906000526020600020905b81546001600160a01b03168152600190910190602001808311610398575b50505050509050919050565b7f000000000000000000000000000000000000000000000000000000000000000081565b6000546001600160a01b031633146104105760405162461bcd60e51b81526004016102fe9061192a565b6001600160a01b038084166000908152600360209081526040808320868516845282528083208054600181810183559185528385200180548787166001600160a01b03199182168117909255958a1685526004845282852080549283018155855292909320909201805490931617909155517faf5c5f12a80fc937520df6fcaed66262a4cc775e0f3fceaf7a7cfe476d9a751d906104b59085908590889086906117f7565b60405180910390a150505050565b6000546001600160a01b031633146104ed5760405162461bcd60e51b81526004016102fe9061192a565b6001600160a01b03808416600090815260036020908152604080832093861683529281529082902080548351818402810184019094528084526060939283018282801561056357602002820191906000526020600020905b81546001600160a01b03168152600190910190602001808311610545575b50939450600093505050505b81518110156105f657826001600160a01b031682828151811061058e57fe5b60200260200101516001600160a01b031614156105ee57816001835103815181106105b557fe5b60200260200101518282815181106105c957fe5b60200260200101906001600160a01b031690816001600160a01b0316815250506105f6565b60010161056f565b506001600160a01b0380851660009081526003602090815260408083209387168352928152919020825161062c928401906114ec565b506001600160a01b03808516600090815260036020908152604080832093871683529290522080548061065b57fe5b60008281526020808220830160001990810180546001600160a01b03191690559092019092556001600160a01b0387168252600481526040918290208054835181840281018401909452808452606093928301828280156106e557602002820191906000526020600020905b81546001600160a01b031681526001909101906020018083116106c7575b50939450600093505050505b815181101561077857836001600160a01b031682828151811061071057fe5b60200260200101516001600160a01b03161415610770578160018351038151811061073757fe5b602002602001015182828151811061074b57fe5b60200260200101906001600160a01b031690816001600160a01b031681525050610778565b6001016106f1565b506001600160a01b038616600090815260046020908152604090912082516107a2928401906114ec565b506001600160a01b03861660009081526004602052604090208054806107c457fe5b600082815260209020810160001990810180546001600160a01b03191690550190556040517f63971a172c674ce2e9da5e027e9e81a54fd3aa74a2c246a2eb473dc0aa7f5cdd906108169085906117c9565b60405180910390a1505050505050565b6001546001600160a01b031633146108505760405162461bcd60e51b81526004016102fe906118d9565b600154600080546040516001600160a01b0393841693909116917f8be0079c531659141344cd1fd0a4f28419497f9722a3daafe3b4186f6b6457e091a360018054600080546001600160a01b03199081166001600160a01b03841617909155169055565b6040516340925bc760e11b81526000906001600160a01b037f00000000000000000000000000000000000000000000000000000000000000001690638124b78e90610923907f0000000000000000000000000000000000000000000000000000000000000000906004016117c9565b602060405180830381600087803b15801561093d57600080fd5b505af1158015610951573d6000803e3d6000fd5b505050506040513d601f19601f82011682018060405250810190610975919061159b565b9050600061098389836111c5565b9050816001600160a01b03166369c407ff828b8b8b6109a2878d6112d3565b6109ac888d6112d3565b6109b5896113c5565b7f00000000000000000000000000000000000000000000000000000000000000008d8d6040518b63ffffffff1660e01b81526004016109fd9a99989796959493929190611822565b600060405180830381600087803b158015610a1757600080fd5b505af1158015610a2b573d6000803e3d6000fd5b505050505060036000886001600160a01b03166001600160a01b031681526020019081526020016000206000876001600160a01b03166001600160a01b03168152602001908152602001600020819080600181540180825580915050600190039060005260206000200160009091909190916101000a8154816001600160a01b0302191690836001600160a01b0316021790555060046000896001600160a01b03166001600160a01b03168152602001908152602001600020819080600181540180825580915050600190039060005260206000200160009091909190916101000a8154816001600160a01b0302191690836001600160a01b031602179055507faf5c5f12a80fc937520df6fcaed66262a4cc775e0f3fceaf7a7cfe476d9a751d87878a84604051610b6094939291906117f7565b60405180910390a1979650505050505050565b6001600160a01b038083166000908152600360209081526040808320938516835292815290829020805483518184028101840190945280845260609392830182828015610be957602002820191906000526020600020905b81546001600160a01b03168152600190910190602001808311610bcb575b5050505050905092915050565b7f000000000000000000000000000000000000000000000000000000000000000081565b7f000000000000000000000000000000000000000000000000000000000000000081565b7f000000000000000000000000000000000000000000000000000000000000000081565b6000546001600160a01b03163314610c8c5760405162461bcd60e51b81526004016102fe9061192a565b600280546001600160a01b0319166001600160a01b0392909216919091179055565b7f000000000000000000000000000000000000000000000000000000000000000081565b6001546001600160a01b031681565b6040516340925bc760e11b81526000906001600160a01b037f00000000000000000000000000000000000000000000000000000000000000001690638124b78e90610d50907f0000000000000000000000000000000000000000000000000000000000000000906004016117c9565b602060405180830381600087803b158015610d6a57600080fd5b505af1158015610d7e573d6000803e3d6000fd5b505050506040513d601f19601f82011682018060405250810190610da2919061159b565b9050806001600160a01b03166369c407ff60007f00000000000000000000000000000000000000000000000000000000000000008989610de360008b6112d3565b7f00000000000000000000000000000000000000000000000000000000000000007f00000000000000000000000000000000000000000000000000000000000000007f00000000000000000000000000000000000000000000000000000000000000008c8c6040518b63ffffffff1660e01b8152600401610e6d9a99989796959493929190611822565b600060405180830381600087803b158015610e8757600080fd5b505af1158015610e9b573d6000803e3d6000fd5b5050506001600160a01b0380881660009081526003602090815260408083208a8516845282528083208054600181810183559185528385200180548887166001600160a01b03199182168117909255958e1685526004845282852080549283018155855292909320909201805490931617909155517faf5c5f12a80fc937520df6fcaed66262a4cc775e0f3fceaf7a7cfe476d9a751d9150610f4490889088908b9086906117f7565b60405180910390a19695505050505050565b60046020528160005260406000208181548110610f6f57fe5b6000918252602090912001546001600160a01b03169150829050565b60036020528260005260406000206020528160005260406000208181548110610fb057fe5b6000918252602090912001546001600160a01b0316925083915050565b7f000000000000000000000000000000000000000000000000000000000000000081565b6001600160a01b038083166000818152600360208181526040808420958716845294815284832091815284832093835292835290839020815484518185028101850190955280855260609485949091849183018282801561107b57602002820191906000526020600020905b81546001600160a01b0316815260019091019060200180831161105d575b50505050509150808054806020026020016040519081016040528092919081815260200182805480156110d757602002820191906000526020600020905b81546001600160a01b031681526001909101906020018083116110b9575b50505050509050915091509250929050565b7f000000000000000000000000000000000000000000000000000000000000000081565b6002546001600160a01b031681565b7f000000000000000000000000000000000000000000000000000000000000000081565b6000546001600160a01b0316331461116a5760405162461bcd60e51b81526004016102fe9061192a565b600080546040516001600160a01b03808516939216917fdcf55418cee3220104fef63f979ff3c4097ad240c0c43dcb33ce837748983e6291a3600180546001600160a01b0319166001600160a01b0392909216919091179055565b6002546040516340925bc760e11b81526000916001600160a01b037f0000000000000000000000000000000000000000000000000000000000000000811692638124b78e926112189216906004016117c9565b602060405180830381600087803b15801561123257600080fd5b505af1158015611246573d6000803e3d6000fd5b505050506040513d601f19601f8201168201806040525081019061126a919061159b565b60405163784d200b60e11b81529091506001600160a01b0382169063f09a40169061129b90869086906004016117dd565b600060405180830381600087803b1580156112b557600080fd5b505af11580156112c9573d6000803e3d6000fd5b5050505092915050565b6040516340925bc760e11b81526000906001600160a01b037f00000000000000000000000000000000000000000000000000000000000000001690638124b78e90611342907f0000000000000000000000000000000000000000000000000000000000000000906004016117c9565b602060405180830381600087803b15801561135c57600080fd5b505af1158015611370573d6000803e3d6000fd5b505050506040513d601f19601f82011682018060405250810190611394919061159b565b604051630e66b9c960e21b81529091506001600160a01b0382169063399ae7249061129b908690869060040161187f565b6040516340925bc760e11b81526000906001600160a01b037f00000000000000000000000000000000000000000000000000000000000000001690638124b78e90611434907f0000000000000000000000000000000000000000000000000000000000000000906004016117c9565b602060405180830381600087803b15801561144e57600080fd5b505af1158015611462573d6000803e3d6000fd5b505050506040513d601f19601f82011682018060405250810190611486919061159b565b604051630d00929760e01b81529091506001600160a01b03821690630d009297906114b59085906004016117c9565b600060405180830381600087803b1580156114cf57600080fd5b505af11580156114e3573d6000803e3d6000fd5b50505050919050565b828054828255906000526020600020908101928215611541579160200282015b8281111561154157825182546001600160a01b0319166001600160a01b0390911617825560209092019160019091019061150c565b5061154d929150611551565b5090565b61157591905b8082111561154d5780546001600160a01b0319168155600101611557565b90565b600060208284031215611589578081fd5b81356115948161194d565b9392505050565b6000602082840312156115ac578081fd5b81516115948161194d565b600080604083850312156115c9578081fd5b82356115d48161194d565b915060208301356115e48161194d565b809150509250929050565b60008060008060808587031215611604578182fd5b843561160f8161194d565b9350602085013561161f8161194d565b9250604085013561162f8161194d565b9150606085013561163f8161194d565b939692955090935050565b60008060008060008060c08789031215611662578182fd5b863561166d8161194d565b9550602087013561167d8161194d565b9450604087013561168d8161194d565b959894975094956060810135955060808101359460a0909101359350915050565b600080600080600080600060e0888a0312156116c8578081fd5b87356116d38161194d565b965060208801356116e38161194d565b955060408801356116f38161194d565b969995985095966060810135965060808101359560a0820135955060c0909101359350915050565b60008060006060848603121561172f578283fd5b833561173a8161194d565b9250602084013561174a8161194d565b929592945050506040919091013590565b6000806040838503121561176d578182fd5b82356117788161194d565b946020939093013593505050565b6000815180845260208085019450808401835b838110156117be5781516001600160a01b031687529582019590820190600101611799565b509495945050505050565b6001600160a01b0391909116815260200190565b6001600160a01b0392831681529116602082015260400190565b6001600160a01b03948516815292841660208401529083166040830152909116606082015260800190565b6001600160a01b039a8b168152988a1660208a015296891660408901529488166060880152928716608087015290861660a0860152851660c085015290931660e08301526101008201929092526101208101919091526101400190565b6001600160a01b03929092168252602082015260400190565b6000602082526115946020830184611786565b6000604082526118be6040830185611786565b82810360208401526118d08185611786565b95945050505050565b6020808252600d908201526c494e56414c49445f434c41494d60981b604082015260600190565b60208082526010908201526f1113d113d7d25392551250531256915160821b604082015260600190565b6020808252600990820152682727aa2fa7aba722a960b91b604082015260600190565b6001600160a01b038116811461196257600080fd5b5056fea26469706673582212209aaecaad088b1c40c71745b26f2dadd64c5537d7a44b4e5e659e30be22f618b164736f6c63430006090033",
  "immutableReferences": {
    "9530": [
      {
        "length": 32,
        "start": 2254
      },
      {
        "length": 32,
        "start": 3323
      },
      {
        "length": 32,
        "start": 4382
      },
      {
        "length": 32,
        "start": 4578
      },
      {
        "length": 32,
        "start": 4845
      },
      {
        "length": 32,
        "start": 5087
      }
    ],
    "9532": [
      {
        "length": 32,
        "start": 2299
      },
      {
        "length": 32,
        "start": 3368
      },
      {
        "length": 32,
        "start": 4047
      }
    ],
    "9534": [
      {
        "length": 32,
        "start": 964
      },
      {
        "length": 32,
        "start": 4890
      }
    ],
    "9536": [
      {
        "length": 32,
        "start": 3100
      },
      {
        "length": 32,
        "start": 5132
      }
    ],
    "9540": [
      {
        "length": 32,
        "start": 3248
      },
      {
        "length": 32,
        "start": 3511
      }
    ],
    "9542": [
      {
        "length": 32,
        "start": 3136
      },
      {
        "length": 32,
        "start": 3557
      }
    ],
    "9544": [
      {
        "length": 32,
        "start": 3590
      },
      {
        "length": 32,
        "start": 4331
      }
    ],
    "9546": [
      {
        "length": 32,
        "start": 2487
      },
      {
        "length": 32,
        "start": 3064
      },
      {
        "length": 32,
        "start": 3623
      }
    ]
  },
  "source": "/*\n\n    Copyright 2020 DODO ZOO.\n    SPDX-License-Identifier: Apache-2.0\n\n*/\n\npragma solidity 0.6.9;\npragma experimental ABIEncoderV2;\n\nimport {InitializableOwnable} from \"../lib/InitializableOwnable.sol\";\nimport {ICloneFactory} from \"../lib/CloneFactory.sol\";\nimport {IFeeRateModel} from \"../lib/FeeRateModel.sol\";\nimport {IDVM} from \"../DODOVendingMachine/intf/IDVM.sol\";\nimport {IDVMAdmin} from \"../DODOVendingMachine/intf/IDVMAdmin.sol\";\nimport {IPermissionManager} from \"../lib/PermissionManager.sol\";\n\ninterface IDVMFactory {\n    function createDODOVendingMachine(\n        address creator,\n        address baseToken,\n        address quoteToken,\n        uint256 lpFeeRate,\n        uint256 mtFeeRate,\n        uint256 i,\n        uint256 k\n    ) external returns (address newVendingMachine);\n    \n    function createUnOwnedDODOVendingMachine(\n        address creator,\n        address baseToken,\n        address quoteToken,\n        uint256 lpFeeRate,\n        uint256 i,\n        uint256 k\n    ) external returns (address newVendingMachine);\n}\n\ncontract DVMFactory is InitializableOwnable {\n    // ============ Templates ============\n\n    address public immutable _CLONE_FACTORY_;\n    address public immutable _DVM_TEMPLATE_;\n    address public immutable _FEE_RATE_MODEL_TEMPLATE_;\n    address public immutable _PERMISSION_MANAGER_TEMPLATE_;\n    address public _DVM_ADMIN_TEMPLATE_;\n    \n    address public immutable _DEFAULT_MAINTAINER_;\n    address public immutable _DEFAULT_MT_FEE_RATE_MODEL_;\n    address public immutable _DEFAULT_PERMISSION_MANAGER_;\n    address public immutable _DEFAULT_GAS_PRICE_SOURCE_;\n\n    address internal constant _EMPTY_ = 0x0000000000000000000000000000000000000000;\n\n    // ============ Registry ============\n\n    // base -> quote -> DVM address list\n    mapping(address => mapping(address => address[])) public _REGISTRY_;\n    // creator -> DVM address list\n    mapping(address => address[]) public _USER_REGISTRY_;\n\n    // ============ Events ============\n\n    event NewDVM(\n        address baseToken,\n        address quoteToken,\n        address creator,\n        address dvm\n    );\n\n    event RemoveDVM(address dvm);\n\n    // ============ Functions ============\n\n    constructor(\n        address cloneFactory,\n        address dvmTemplate,\n        address dvmAdminTemplate,\n        address feeRateModelTemplate,\n        address permissionManagerTemplate,\n        address defaultGasPriceSource,\n        address defaultMaintainer,\n        address defaultMtFeeRateModel,\n        address defaultPermissionManager\n    ) public {\n        _CLONE_FACTORY_ = cloneFactory;\n        _DVM_TEMPLATE_ = dvmTemplate;\n        _DVM_ADMIN_TEMPLATE_ = dvmAdminTemplate;\n        _FEE_RATE_MODEL_TEMPLATE_ = feeRateModelTemplate;\n        _PERMISSION_MANAGER_TEMPLATE_ = permissionManagerTemplate;\n        \n        _DEFAULT_MAINTAINER_ = defaultMaintainer;\n        _DEFAULT_MT_FEE_RATE_MODEL_ = defaultMtFeeRateModel;\n        _DEFAULT_PERMISSION_MANAGER_ = defaultPermissionManager;\n        _DEFAULT_GAS_PRICE_SOURCE_ = defaultGasPriceSource;\n    }\n\n    function createDODOVendingMachine(\n        address creator,\n        address baseToken,\n        address quoteToken,\n        uint256 lpFeeRate,\n        uint256 mtFeeRate,\n        uint256 i,\n        uint256 k\n    ) external returns (address newVendingMachine) {\n        newVendingMachine = ICloneFactory(_CLONE_FACTORY_).clone(_DVM_TEMPLATE_);\n        {\n            address adminModel = _createDVMAdminModel(creator, newVendingMachine);\n            IDVM(newVendingMachine).init(\n                adminModel,\n                creator,\n                baseToken,\n                quoteToken,\n                _createFeeRateModel(adminModel, lpFeeRate),\n                _createFeeRateModel(adminModel, mtFeeRate),\n                _createPermissionManager(adminModel),\n                _DEFAULT_GAS_PRICE_SOURCE_,\n                i,\n                k\n            );\n        }\n        _REGISTRY_[baseToken][quoteToken].push(newVendingMachine);\n        _USER_REGISTRY_[creator].push(newVendingMachine);\n        emit NewDVM(baseToken, quoteToken, creator, newVendingMachine);\n    }\n\n\n    function createUnOwnedDODOVendingMachine(\n        address creator,\n        address baseToken,\n        address quoteToken,\n        uint256 lpFeeRate,\n        uint256 i,\n        uint256 k\n    ) external returns (address newVendingMachine) {\n        newVendingMachine = ICloneFactory(_CLONE_FACTORY_).clone(_DVM_TEMPLATE_);\n        {\n            IDVM(newVendingMachine).init(\n                _EMPTY_,\n                _DEFAULT_MAINTAINER_,\n                baseToken,\n                quoteToken,\n                _createFeeRateModel(_EMPTY_, lpFeeRate),\n                _DEFAULT_MT_FEE_RATE_MODEL_,\n                _DEFAULT_PERMISSION_MANAGER_,\n                _DEFAULT_GAS_PRICE_SOURCE_,\n                i,\n                k\n            );\n        }\n        _REGISTRY_[baseToken][quoteToken].push(newVendingMachine);\n        _USER_REGISTRY_[creator].push(newVendingMachine);\n        emit NewDVM(baseToken, quoteToken, creator, newVendingMachine);\n    }\n\n\n    function _createFeeRateModel(address owner, uint256 feeRate)\n        internal\n        returns (address feeRateModel)\n    {\n        feeRateModel = ICloneFactory(_CLONE_FACTORY_).clone(_FEE_RATE_MODEL_TEMPLATE_);\n        IFeeRateModel(feeRateModel).init(owner, feeRate);\n    }\n\n    function _createPermissionManager(address owner) internal returns (address permissionManager) {\n        permissionManager = ICloneFactory(_CLONE_FACTORY_).clone(_PERMISSION_MANAGER_TEMPLATE_);\n        IPermissionManager(permissionManager).initOwner(owner);\n    }\n\n    function _createDVMAdminModel(address owner, address dvm)\n        internal\n        returns (address adminModel)\n    {\n        adminModel = ICloneFactory(_CLONE_FACTORY_).clone(_DVM_ADMIN_TEMPLATE_);\n        IDVMAdmin(adminModel).init(owner, dvm);\n    }\n\n    // ============ Admin Operation Functions ============\n    function updateAdminTemplate(address _newDVMAdminTemplate) external onlyOwner {\n        _DVM_ADMIN_TEMPLATE_ = _newDVMAdminTemplate;\n    }\n\n    function addPoolByAdmin(\n        address creator,\n        address baseToken, \n        address quoteToken,\n        address pool\n    ) external onlyOwner {\n        _REGISTRY_[baseToken][quoteToken].push(pool);\n        _USER_REGISTRY_[creator].push(pool);\n        emit NewDVM(baseToken, quoteToken, creator, pool);\n    }\n\n    function removePoolByAdmin(\n        address creator,\n        address baseToken, \n        address quoteToken,\n        address pool\n    ) external onlyOwner {\n        address[] memory registryList = _REGISTRY_[baseToken][quoteToken];\n        for (uint256 i = 0; i < registryList.length; i++) {\n            if (registryList[i] == pool) {\n                registryList[i] = registryList[registryList.length - 1];\n                break;\n            }\n        }\n        _REGISTRY_[baseToken][quoteToken] = registryList;\n        _REGISTRY_[baseToken][quoteToken].pop();\n        address[] memory userRegistryList = _USER_REGISTRY_[creator];\n        for (uint256 i = 0; i < userRegistryList.length; i++) {\n            if (userRegistryList[i] == pool) {\n                userRegistryList[i] = userRegistryList[userRegistryList.length - 1];\n                break;\n            }\n        }\n        _USER_REGISTRY_[creator] = userRegistryList;\n        _USER_REGISTRY_[creator].pop();\n        emit RemoveDVM(pool);\n    }\n\n    // ============ View Functions ============\n\n    function getVendingMachine(address baseToken, address quoteToken)\n        external\n        view\n        returns (address[] memory machines)\n    {\n        return _REGISTRY_[baseToken][quoteToken];\n    }\n\n    function getVendingMachineBidirection(address token0, address token1)\n        external\n        view\n        returns (address[] memory baseToken0Machines, address[] memory baseToken1Machines)\n    {\n        return (_REGISTRY_[token0][token1], _REGISTRY_[token1][token0]);\n    }\n\n    function getVendingMachineByUser(address user)\n        external\n        view\n        returns (address[] memory machines)\n    {\n        return _USER_REGISTRY_[user];\n    }\n}\n",
  "sourcePath": "/Users/niutaotao/projects/dodo/contractV2/contracts/Factory/DVMFactory.sol",
  "compiler": {
    "name": "solc",
    "version": "0.6.9+commit.3e3065ac.Emscripten.clang"
  },
  "schemaVersion": "3.3.2",
  "updatedAt": "2020-12-24T13:41:25.749Z",
  "devdoc": {
    "methods": {}
  },
  "userdoc": {
    "methods": {}
  }
}