{
  "contractName": "ERC20Factory",
  "abi": [
    {
      "inputs": [
        {
          "internalType": "address",
          "name": "cloneFactory",
          "type": "address"
        },
        {
          "internalType": "address",
          "name": "erc20Template",
          "type": "address"
        },
        {
          "internalType": "address",
          "name": "mintableErc20Template",
          "type": "address"
        }
      ],
      "stateMutability": "nonpayable",
      "type": "constructor"
    },
    {
      "anonymous": false,
      "inputs": [
        {
          "indexed": false,
          "internalType": "address",
          "name": "erc20",
          "type": "address"
        },
        {
          "indexed": false,
          "internalType": "address",
          "name": "creator",
          "type": "address"
        },
        {
          "indexed": false,
          "internalType": "bool",
          "name": "isMintable",
          "type": "bool"
        }
      ],
      "name": "NewERC20",
      "type": "event"
    },
    {
      "inputs": [],
      "name": "_CLONE_FACTORY_",
      "outputs": [
        {
          "internalType": "address",
          "name": "",
          "type": "address"
        }
      ],
      "stateMutability": "view",
      "type": "function"
    },
    {
      "inputs": [],
      "name": "_ERC20_TEMPLATE_",
      "outputs": [
        {
          "internalType": "address",
          "name": "",
          "type": "address"
        }
      ],
      "stateMutability": "view",
      "type": "function"
    },
    {
      "inputs": [],
      "name": "_MINTABLE_ERC20_TEMPLATE_",
      "outputs": [
        {
          "internalType": "address",
          "name": "",
          "type": "address"
        }
      ],
      "stateMutability": "view",
      "type": "function"
    },
    {
      "inputs": [
        {
          "internalType": "uint256",
          "name": "totalSupply",
          "type": "uint256"
        },
        {
          "internalType": "string",
          "name": "name",
          "type": "string"
        },
        {
          "internalType": "string",
          "name": "symbol",
          "type": "string"
        },
        {
          "internalType": "uint256",
          "name": "decimals",
          "type": "uint256"
        }
      ],
      "name": "createStdERC20",
      "outputs": [
        {
          "internalType": "address",
          "name": "newERC20",
          "type": "address"
        }
      ],
      "stateMutability": "nonpayable",
      "type": "function"
    },
    {
      "inputs": [
        {
          "internalType": "uint256",
          "name": "initSupply",
          "type": "uint256"
        },
        {
          "internalType": "string",
          "name": "name",
          "type": "string"
        },
        {
          "internalType": "string",
          "name": "symbol",
          "type": "string"
        },
        {
          "internalType": "uint256",
          "name": "decimals",
          "type": "uint256"
        }
      ],
      "name": "createMintableERC20",
      "outputs": [
        {
          "internalType": "address",
          "name": "newMintableERC20",
          "type": "address"
        }
      ],
      "stateMutability": "nonpayable",
      "type": "function"
    }
  ],
  "bytecode": "0x60e060405234801561001057600080fd5b5060405161070c38038061070c83398101604081905261002f91610056565b6001600160601b0319606093841b811660805291831b821660a05290911b1660c0526100ba565b60008060006060848603121561006a578283fd5b8351610075816100a2565b6020850151909350610086816100a2565b6040850151909250610097816100a2565b809150509250925092565b6001600160a01b03811681146100b757600080fd5b50565b60805160601c60a05160601c60c05160601c61060b6101016000398060b2528061028952508061011b52806103a252508060ee528061025c52806103c6525061060b6000f3fe608060405234801561001057600080fd5b50600436106100575760003560e01c80634bd1efca1461005c5780634de3847e1461007a5780637d0df67a1461008d57806397381760146100a0578063eb774d05146100a8575b600080fd5b6100646100b0565b6040516100719190610551565b60405180910390f35b610064610088366004610494565b6100d4565b61006461009b366004610494565b610242565b6100646103a0565b6100646103c4565b7f000000000000000000000000000000000000000000000000000000000000000081565b6040516340925bc760e11b81526000906001600160a01b037f00000000000000000000000000000000000000000000000000000000000000001690638124b78e90610143907f000000000000000000000000000000000000000000000000000000000000000090600401610551565b602060405180830381600087803b15801561015d57600080fd5b505af1158015610171573d6000803e3d6000fd5b505050506040513d601f19601f820116820180604052508101906101959190610466565b604051631f893e4160e21b81529091506001600160a01b03821690637e24f904906101cc9033908990899089908990600401610565565b600060405180830381600087803b1580156101e657600080fd5b505af11580156101fa573d6000803e3d6000fd5b505050507faecaa4e876141d4736ce29c208d03e487e49cc05cae31663c3edaf1fdfbf5ef081336000604051610232939291906105b1565b60405180910390a1949350505050565b6040516340925bc760e11b81526000906001600160a01b037f00000000000000000000000000000000000000000000000000000000000000001690638124b78e906102b1907f000000000000000000000000000000000000000000000000000000000000000090600401610551565b602060405180830381600087803b1580156102cb57600080fd5b505af11580156102df573d6000803e3d6000fd5b505050506040513d601f19601f820116820180604052508101906103039190610466565b604051631f893e4160e21b81529091506001600160a01b03821690637e24f9049061033a9033908990899089908990600401610565565b600060405180830381600087803b15801561035457600080fd5b505af1158015610368573d6000803e3d6000fd5b505050507faecaa4e876141d4736ce29c208d03e487e49cc05cae31663c3edaf1fdfbf5ef081336001604051610232939291906105b1565b7f000000000000000000000000000000000000000000000000000000000000000081565b7f000000000000000000000000000000000000000000000000000000000000000081565b600082601f8301126103f8578081fd5b813567ffffffffffffffff8082111561040f578283fd5b604051601f8301601f19168101602001828111828210171561042f578485fd5b60405282815292508284830160200186101561044a57600080fd5b8260208601602083013760006020848301015250505092915050565b600060208284031215610477578081fd5b81516001600160a01b038116811461048d578182fd5b9392505050565b600080600080608085870312156104a9578283fd5b84359350602085013567ffffffffffffffff808211156104c7578485fd5b6104d3888389016103e8565b945060408701359150808211156104e8578384fd5b506104f5878288016103e8565b949793965093946060013593505050565b60008151808452815b8181101561052b5760208185018101518683018201520161050f565b8181111561053c5782602083870101525b50601f01601f19169290920160200192915050565b6001600160a01b0391909116815260200190565b600060018060a01b038716825285602083015260a0604083015261058c60a0830186610506565b828103606084015261059e8186610506565b9150508260808301529695505050505050565b6001600160a01b03938416815291909216602082015290151560408201526060019056fea264697066735822122048c7d9f4553a978e598715b2b8a3f541f795a99003705003516f4cbbe27ad6de64736f6c63430006090033",
  "immutableReferences": {
    "9982": [
      {
        "length": 32,
        "start": 238
      },
      {
        "length": 32,
        "start": 604
      },
      {
        "length": 32,
        "start": 966
      }
    ],
    "9984": [
      {
        "length": 32,
        "start": 283
      },
      {
        "length": 32,
        "start": 930
      }
    ],
    "9986": [
      {
        "length": 32,
        "start": 178
      },
      {
        "length": 32,
        "start": 649
      }
    ]
  },
  "source": "/*\n\n    Copyright 2020 DODO ZOO.\n    SPDX-License-Identifier: Apache-2.0\n\n*/\n\npragma solidity 0.6.9;\npragma experimental ABIEncoderV2;\n\nimport {ICloneFactory} from \"../lib/CloneFactory.sol\";\nimport {InitializableERC20} from \"../external/ERC20/InitializableERC20.sol\";\nimport {InitializableMintableERC20} from \"../external/ERC20/InitializableMintableERC20.sol\";\n\n\n/**\n * @title DODO ERC20Factory\n * @author DODO Breeder\n *\n * @notice Help user to create erc20 token\n */\ncontract ERC20Factory {\n    // ============ Templates ============\n\n    address public immutable _CLONE_FACTORY_;\n    address public immutable _ERC20_TEMPLATE_;\n    address public immutable _MINTABLE_ERC20_TEMPLATE_;\n\n    // ============ Events ============\n\n    event NewERC20(address erc20, address creator, bool isMintable);\n\n    // ============ Functions ============\n\n    constructor(\n        address cloneFactory,\n        address erc20Template,\n        address mintableErc20Template\n    ) public {\n        _CLONE_FACTORY_ = cloneFactory;\n        _ERC20_TEMPLATE_ = erc20Template;\n        _MINTABLE_ERC20_TEMPLATE_ = mintableErc20Template;\n    }\n\n    function createStdERC20(\n        uint256 totalSupply,\n        string memory name,\n        string memory symbol,\n        uint256 decimals\n    ) external returns (address newERC20) {\n        newERC20 = ICloneFactory(_CLONE_FACTORY_).clone(_ERC20_TEMPLATE_);\n        InitializableERC20(newERC20).init(msg.sender, totalSupply, name, symbol, decimals);\n        emit NewERC20(newERC20, msg.sender, false);\n    }\n\n    function createMintableERC20(\n        uint256 initSupply,\n        string memory name,\n        string memory symbol,\n        uint256 decimals\n    ) external returns (address newMintableERC20) {\n        newMintableERC20 = ICloneFactory(_CLONE_FACTORY_).clone(_MINTABLE_ERC20_TEMPLATE_);\n        InitializableMintableERC20(newMintableERC20).init(\n            msg.sender,\n            initSupply,\n            name,\n            symbol,\n            decimals\n        );\n        emit NewERC20(newMintableERC20, msg.sender, true);\n    }\n}\n",
  "sourcePath": "/Users/niutaotao/projects/dodo/contractV2/contracts/Factory/ERC20Factory.sol",
  "compiler": {
    "name": "solc",
    "version": "0.6.9+commit.3e3065ac.Emscripten.clang"
  },
  "schemaVersion": "3.3.2",
  "updatedAt": "2021-01-29T02:32:05.743Z",
  "devdoc": {
    "author": "DODO Breeder",
    "methods": {},
    "title": "DODO ERC20Factory"
  },
  "userdoc": {
    "methods": {},
    "notice": "Help user to create erc20 token"
  }
}