{
  "contractName": "FeeRateModel",
  "abi": [
    {
      "anonymous": false,
      "inputs": [
        {
          "indexed": true,
          "internalType": "address",
          "name": "previousOwner",
          "type": "address"
        },
        {
          "indexed": true,
          "internalType": "address",
          "name": "newOwner",
          "type": "address"
        }
      ],
      "name": "OwnershipTransferPrepared",
      "type": "event"
    },
    {
      "anonymous": false,
      "inputs": [
        {
          "indexed": true,
          "internalType": "address",
          "name": "previousOwner",
          "type": "address"
        },
        {
          "indexed": true,
          "internalType": "address",
          "name": "newOwner",
          "type": "address"
        }
      ],
      "name": "OwnershipTransferred",
      "type": "event"
    },
    {
      "inputs": [],
      "name": "_FEE_RATE_",
      "outputs": [
        {
          "internalType": "uint256",
          "name": "",
          "type": "uint256"
        }
      ],
      "stateMutability": "view",
      "type": "function"
    },
    {
      "inputs": [],
      "name": "_NEW_OWNER_",
      "outputs": [
        {
          "internalType": "address",
          "name": "",
          "type": "address"
        }
      ],
      "stateMutability": "view",
      "type": "function"
    },
    {
      "inputs": [],
      "name": "_OWNER_",
      "outputs": [
        {
          "internalType": "address",
          "name": "",
          "type": "address"
        }
      ],
      "stateMutability": "view",
      "type": "function"
    },
    {
      "inputs": [],
      "name": "claimOwnership",
      "outputs": [],
      "stateMutability": "nonpayable",
      "type": "function"
    },
    {
      "inputs": [
        {
          "internalType": "address",
          "name": "newOwner",
          "type": "address"
        }
      ],
      "name": "initOwner",
      "outputs": [],
      "stateMutability": "nonpayable",
      "type": "function"
    },
    {
      "inputs": [
        {
          "internalType": "address",
          "name": "newOwner",
          "type": "address"
        }
      ],
      "name": "transferOwnership",
      "outputs": [],
      "stateMutability": "nonpayable",
      "type": "function"
    },
    {
      "inputs": [
        {
          "internalType": "address",
          "name": "owner",
          "type": "address"
        },
        {
          "internalType": "uint256",
          "name": "feeRate",
          "type": "uint256"
        }
      ],
      "name": "init",
      "outputs": [],
      "stateMutability": "nonpayable",
      "type": "function"
    },
    {
      "inputs": [
        {
          "internalType": "address",
          "name": "trader",
          "type": "address"
        },
        {
          "internalType": "uint256",
          "name": "feeRate",
          "type": "uint256"
        }
      ],
      "name": "setSpecificFeeRate",
      "outputs": [],
      "stateMutability": "nonpayable",
      "type": "function"
    },
    {
      "inputs": [
        {
          "internalType": "uint256",
          "name": "newFeeRate",
          "type": "uint256"
        }
      ],
      "name": "setFeeRate",
      "outputs": [],
      "stateMutability": "nonpayable",
      "type": "function"
    },
    {
      "inputs": [
        {
          "internalType": "address",
          "name": "trader",
          "type": "address"
        }
      ],
      "name": "getFeeRate",
      "outputs": [
        {
          "internalType": "uint256",
          "name": "",
          "type": "uint256"
        }
      ],
      "stateMutability": "view",
      "type": "function"
    }
  ],
  "bytecode": "0x608060405234801561001057600080fd5b50610546806100206000396000f3fe608060405234801561001057600080fd5b506004361061009e5760003560e01c80638198edbf116100665780638198edbf146101045780638456db1514610124578063bd2e6ca31461012c578063c673ef7614610134578063f2fde38b146101475761009e565b80630d009297146100a357806316048bc4146100b8578063399ae724146100d657806345596e2e146100e95780634e71e0c8146100fc575b600080fd5b6100b66100b13660046103f1565b61015a565b005b6100c06101c3565b6040516100cd9190610455565b60405180910390f35b6100b66100e4366004610413565b6101d2565b6100b66100f736600461043d565b6101e1565b6100b6610210565b6101176101123660046103f1565b61029e565b6040516100cd9190610507565b6100c06102ce565b6101176102dd565b6100b6610142366004610413565b6102e3565b6100b66101553660046103f1565b61034f565b600154600160a01b900460ff161561018d5760405162461bcd60e51b8152600401610184906104ba565b60405180910390fd5b6001805460ff60a01b1916600160a01b179055600080546001600160a01b039092166001600160a01b0319909216919091179055565b6000546001600160a01b031681565b6101db8261015a565b60025550565b6000546001600160a01b0316331461020b5760405162461bcd60e51b8152600401610184906104e4565b600255565b6001546001600160a01b0316331461023a5760405162461bcd60e51b815260040161018490610469565b600154600080546040516001600160a01b0393841693909116917f8be0079c531659141344cd1fd0a4f28419497f9722a3daafe3b4186f6b6457e091a360018054600080546001600160a01b03199081166001600160a01b03841617909155169055565b6001600160a01b038116600090815260036020526040812054806102c65750506002546102c9565b90505b919050565b6001546001600160a01b031681565b60025481565b6000546001600160a01b0316331461030d5760405162461bcd60e51b8152600401610184906104e4565b6001600160a01b0382166103335760405162461bcd60e51b815260040161018490610490565b6001600160a01b03909116600090815260036020526040902055565b6000546001600160a01b031633146103795760405162461bcd60e51b8152600401610184906104e4565b600080546040516001600160a01b03808516939216917fdcf55418cee3220104fef63f979ff3c4097ad240c0c43dcb33ce837748983e6291a3600180546001600160a01b0319166001600160a01b0392909216919091179055565b80356001600160a01b03811681146103eb57600080fd5b92915050565b600060208284031215610402578081fd5b61040c83836103d4565b9392505050565b60008060408385031215610425578081fd5b61042f84846103d4565b946020939093013593505050565b60006020828403121561044e578081fd5b5035919050565b6001600160a01b0391909116815260200190565b6020808252600d908201526c494e56414c49445f434c41494d60981b604082015260600190565b60208082526010908201526f494e56414c494420414444524553532160801b604082015260600190565b60208082526010908201526f1113d113d7d25392551250531256915160821b604082015260600190565b6020808252600990820152682727aa2fa7aba722a960b91b604082015260600190565b9081526020019056fea2646970667358221220ab073856e85cc310bb3af070b166b0663d26e3c570e5d7749fc9ddf861c98c9e64736f6c63430006090033",
  "immutableReferences": {},
  "source": "/*\n\n    Copyright 2020 DODO ZOO.\n    SPDX-License-Identifier: Apache-2.0\n\n*/\n\npragma solidity 0.6.9;\npragma experimental ABIEncoderV2;\n\nimport {InitializableOwnable} from \"../lib/InitializableOwnable.sol\";\n\ninterface IFeeRateModel {\n    function getFeeRate(address trader) external view returns (uint256);\n    function init(address owner, uint256 feeRate) external;\n    function setFeeRate(uint256 newFeeRate) external;\n}\n\ncontract FeeRateModel is InitializableOwnable {\n    //DEFAULT\n    uint256 public _FEE_RATE_;\n    mapping(address => uint256) feeMapping;\n\n    function init(address owner, uint256 feeRate) external {\n        initOwner(owner);\n        _FEE_RATE_ = feeRate;\n    }\n\n    function setSpecificFeeRate(address trader, uint256 feeRate) external onlyOwner {\n        require(trader != address(0), \"INVALID ADDRESS!\");\n        feeMapping[trader] = feeRate;\n    }\n\n    function setFeeRate(uint256 newFeeRate) external onlyOwner {\n        _FEE_RATE_ = newFeeRate;\n    }\n\n    function getFeeRate(address trader) external view returns (uint256) {\n        uint256 feeRate = feeMapping[trader];\n        if(feeRate == 0)\n            return _FEE_RATE_;\n        return feeRate;\n    }\n}\n",
  "sourcePath": "/Users/niutaotao/projects/dodo/contractV2/contracts/lib/FeeRateModel.sol",
  "compiler": {
    "name": "solc",
    "version": "0.6.9+commit.3e3065ac.Emscripten.clang"
  },
  "schemaVersion": "3.3.2",
  "updatedAt": "2020-12-21T15:24:36.760Z",
  "networkType": "ethereum",
  "devdoc": {
    "methods": {}
  },
  "userdoc": {
    "methods": {}
  }
}