{
  "contractName": "Fragment",
  "abi": [
    {
      "anonymous": false,
      "inputs": [
        {
          "indexed": false,
          "internalType": "address",
          "name": "nftContract",
          "type": "address"
        },
        {
          "indexed": false,
          "internalType": "uint256",
          "name": "tokenId",
          "type": "uint256"
        },
        {
          "indexed": false,
          "internalType": "uint256",
          "name": "amount",
          "type": "uint256"
        }
      ],
      "name": "AddNftToken",
      "type": "event"
    },
    {
      "anonymous": false,
      "inputs": [
        {
          "indexed": true,
          "internalType": "address",
          "name": "owner",
          "type": "address"
        },
        {
          "indexed": true,
          "internalType": "address",
          "name": "spender",
          "type": "address"
        },
        {
          "indexed": false,
          "internalType": "uint256",
          "name": "amount",
          "type": "uint256"
        }
      ],
      "name": "Approval",
      "type": "event"
    },
    {
      "anonymous": false,
      "inputs": [
        {
          "indexed": false,
          "internalType": "address",
          "name": "newOwner",
          "type": "address"
        }
      ],
      "name": "Buyout",
      "type": "event"
    },
    {
      "anonymous": false,
      "inputs": [],
      "name": "CreateFragment",
      "type": "event"
    },
    {
      "anonymous": false,
      "inputs": [
        {
          "indexed": false,
          "internalType": "address",
          "name": "vault",
          "type": "address"
        },
        {
          "indexed": false,
          "internalType": "string",
          "name": "name",
          "type": "string"
        },
        {
          "indexed": false,
          "internalType": "string",
          "name": "baseURI",
          "type": "string"
        }
      ],
      "name": "InitInfo",
      "type": "event"
    },
    {
      "anonymous": false,
      "inputs": [
        {
          "indexed": false,
          "internalType": "address",
          "name": "sender",
          "type": "address"
        },
        {
          "indexed": false,
          "internalType": "uint256",
          "name": "baseAmount",
          "type": "uint256"
        },
        {
          "indexed": false,
          "internalType": "uint256",
          "name": "quoteAmount",
          "type": "uint256"
        }
      ],
      "name": "Redeem",
      "type": "event"
    },
    {
      "anonymous": false,
      "inputs": [
        {
          "indexed": false,
          "internalType": "address",
          "name": "nftContract",
          "type": "address"
        },
        {
          "indexed": false,
          "internalType": "uint256",
          "name": "tokenId",
          "type": "uint256"
        },
        {
          "indexed": false,
          "internalType": "uint256",
          "name": "amount",
          "type": "uint256"
        }
      ],
      "name": "RemoveNftToken",
      "type": "event"
    },
    {
      "anonymous": false,
      "inputs": [
        {
          "indexed": true,
          "internalType": "address",
          "name": "from",
          "type": "address"
        },
        {
          "indexed": true,
          "internalType": "address",
          "name": "to",
          "type": "address"
        },
        {
          "indexed": false,
          "internalType": "uint256",
          "name": "amount",
          "type": "uint256"
        }
      ],
      "name": "Transfer",
      "type": "event"
    },
    {
      "inputs": [],
      "name": "_BUYOUT_PRICE_",
      "outputs": [
        {
          "internalType": "uint256",
          "name": "",
          "type": "uint256"
        }
      ],
      "stateMutability": "view",
      "type": "function"
    },
    {
      "inputs": [],
      "name": "_BUYOUT_TIMESTAMP_",
      "outputs": [
        {
          "internalType": "uint256",
          "name": "",
          "type": "uint256"
        }
      ],
      "stateMutability": "view",
      "type": "function"
    },
    {
      "inputs": [],
      "name": "_COLLATERAL_VAULT_",
      "outputs": [
        {
          "internalType": "address",
          "name": "",
          "type": "address"
        }
      ],
      "stateMutability": "view",
      "type": "function"
    },
    {
      "inputs": [],
      "name": "_DVM_",
      "outputs": [
        {
          "internalType": "address",
          "name": "",
          "type": "address"
        }
      ],
      "stateMutability": "view",
      "type": "function"
    },
    {
      "inputs": [],
      "name": "_IS_BUYOUT_",
      "outputs": [
        {
          "internalType": "bool",
          "name": "",
          "type": "bool"
        }
      ],
      "stateMutability": "view",
      "type": "function"
    },
    {
      "inputs": [],
      "name": "_IS_OPEN_BUYOUT_",
      "outputs": [
        {
          "internalType": "bool",
          "name": "",
          "type": "bool"
        }
      ],
      "stateMutability": "view",
      "type": "function"
    },
    {
      "inputs": [],
      "name": "_QUOTE_",
      "outputs": [
        {
          "internalType": "address",
          "name": "",
          "type": "address"
        }
      ],
      "stateMutability": "view",
      "type": "function"
    },
    {
      "inputs": [],
      "name": "_VAULT_PRE_OWNER_",
      "outputs": [
        {
          "internalType": "address",
          "name": "",
          "type": "address"
        }
      ],
      "stateMutability": "view",
      "type": "function"
    },
    {
      "inputs": [
        {
          "internalType": "address",
          "name": "owner",
          "type": "address"
        },
        {
          "internalType": "address",
          "name": "spender",
          "type": "address"
        }
      ],
      "name": "allowance",
      "outputs": [
        {
          "internalType": "uint256",
          "name": "",
          "type": "uint256"
        }
      ],
      "stateMutability": "view",
      "type": "function"
    },
    {
      "inputs": [
        {
          "internalType": "address",
          "name": "spender",
          "type": "address"
        },
        {
          "internalType": "uint256",
          "name": "amount",
          "type": "uint256"
        }
      ],
      "name": "approve",
      "outputs": [
        {
          "internalType": "bool",
          "name": "",
          "type": "bool"
        }
      ],
      "stateMutability": "nonpayable",
      "type": "function"
    },
    {
      "inputs": [
        {
          "internalType": "address",
          "name": "owner",
          "type": "address"
        }
      ],
      "name": "balanceOf",
      "outputs": [
        {
          "internalType": "uint256",
          "name": "balance",
          "type": "uint256"
        }
      ],
      "stateMutability": "view",
      "type": "function"
    },
    {
      "inputs": [],
      "name": "decimals",
      "outputs": [
        {
          "internalType": "uint256",
          "name": "",
          "type": "uint256"
        }
      ],
      "stateMutability": "view",
      "type": "function"
    },
    {
      "inputs": [],
      "name": "initialized",
      "outputs": [
        {
          "internalType": "bool",
          "name": "",
          "type": "bool"
        }
      ],
      "stateMutability": "view",
      "type": "function"
    },
    {
      "inputs": [],
      "name": "name",
      "outputs": [
        {
          "internalType": "string",
          "name": "",
          "type": "string"
        }
      ],
      "stateMutability": "view",
      "type": "function"
    },
    {
      "inputs": [],
      "name": "symbol",
      "outputs": [
        {
          "internalType": "string",
          "name": "",
          "type": "string"
        }
      ],
      "stateMutability": "view",
      "type": "function"
    },
    {
      "inputs": [],
      "name": "totalSupply",
      "outputs": [
        {
          "internalType": "uint256",
          "name": "",
          "type": "uint256"
        }
      ],
      "stateMutability": "view",
      "type": "function"
    },
    {
      "inputs": [
        {
          "internalType": "address",
          "name": "to",
          "type": "address"
        },
        {
          "internalType": "uint256",
          "name": "amount",
          "type": "uint256"
        }
      ],
      "name": "transfer",
      "outputs": [
        {
          "internalType": "bool",
          "name": "",
          "type": "bool"
        }
      ],
      "stateMutability": "nonpayable",
      "type": "function"
    },
    {
      "inputs": [
        {
          "internalType": "address",
          "name": "from",
          "type": "address"
        },
        {
          "internalType": "address",
          "name": "to",
          "type": "address"
        },
        {
          "internalType": "uint256",
          "name": "amount",
          "type": "uint256"
        }
      ],
      "name": "transferFrom",
      "outputs": [
        {
          "internalType": "bool",
          "name": "",
          "type": "bool"
        }
      ],
      "stateMutability": "nonpayable",
      "type": "function"
    },
    {
      "inputs": [
        {
          "internalType": "address",
          "name": "_creator",
          "type": "address"
        },
        {
          "internalType": "uint256",
          "name": "_totalSupply",
          "type": "uint256"
        },
        {
          "internalType": "string",
          "name": "_name",
          "type": "string"
        },
        {
          "internalType": "string",
          "name": "_symbol",
          "type": "string"
        },
        {
          "internalType": "uint256",
          "name": "_decimals",
          "type": "uint256"
        }
      ],
      "name": "init",
      "outputs": [],
      "stateMutability": "nonpayable",
      "type": "function"
    },
    {
      "inputs": [
        {
          "internalType": "address",
          "name": "dvm",
          "type": "address"
        },
        {
          "internalType": "address",
          "name": "vaultPreOwner",
          "type": "address"
        },
        {
          "internalType": "address",
          "name": "collateralVault",
          "type": "address"
        },
        {
          "internalType": "uint256",
          "name": "totalSupply",
          "type": "uint256"
        },
        {
          "internalType": "uint256",
          "name": "ownerRatio",
          "type": "uint256"
        },
        {
          "internalType": "uint256",
          "name": "buyoutTimestamp",
          "type": "uint256"
        },
        {
          "internalType": "bool",
          "name": "isOpenBuyout",
          "type": "bool"
        }
      ],
      "name": "init",
      "outputs": [],
      "stateMutability": "nonpayable",
      "type": "function"
    },
    {
      "inputs": [
        {
          "internalType": "address",
          "name": "newVaultOwner",
          "type": "address"
        }
      ],
      "name": "buyout",
      "outputs": [],
      "stateMutability": "nonpayable",
      "type": "function"
    },
    {
      "inputs": [
        {
          "internalType": "address",
          "name": "to",
          "type": "address"
        },
        {
          "internalType": "bytes",
          "name": "data",
          "type": "bytes"
        }
      ],
      "name": "redeem",
      "outputs": [],
      "stateMutability": "nonpayable",
      "type": "function"
    },
    {
      "inputs": [],
      "name": "getBuyoutRequirement",
      "outputs": [
        {
          "internalType": "uint256",
          "name": "requireQuote",
          "type": "uint256"
        }
      ],
      "stateMutability": "view",
      "type": "function"
    }
  ],
  "bytecode": "0x608060405234801561001057600080fd5b50611e01806100206000396000f3fe608060405234801561001057600080fd5b506004361061014d5760003560e01c80637a1fa0dd116100c3578063a9059cbb1161007c578063a9059cbb14610517578063ca436ea414610543578063da7d5aa41461054b578063dd62ed3e14610553578063dea34e9314610581578063ffd50adb146105895761014d565b80637a1fa0dd1461034b5780637e24f9041461036f578063909b9dc1146104af57806395d89b41146104b7578063a0d5e288146104bf578063a52501ca1461050f5761014d565b8063313ce56711610115578063313ce567146102675780633841185e1461026f57806365f0b949146102ef57806367e9bdad146102f757806370a082311461031d57806378c8eb08146103435761014d565b806306fdde0314610152578063095ea7b3146101cf578063158ef93e1461020f57806318160ddd1461021757806323b872dd14610231575b600080fd5b61015a610591565b6040805160208082528351818301528351919283929083019185019080838360005b8381101561019457818101518382015260200161017c565b50505050905090810190601f1680156101c15780820380516001836020036101000a031916815260200191505b509250505060405180910390f35b6101fb600480360360408110156101e557600080fd5b506001600160a01b03813516906020013561061f565b604080519115158252519081900360200190f35b6101fb610686565b61021f61068f565b60408051918252519081900360200190f35b6101fb6004803603606081101561024757600080fd5b506001600160a01b03813581169160208101359091169060400135610695565b61021f6108b4565b6102ed6004803603604081101561028557600080fd5b6001600160a01b038235169190810190604081016020820135600160201b8111156102af57600080fd5b8201836020820111156102c157600080fd5b803590602001918460018302840111600160201b831117156102e257600080fd5b5090925090506108ba565b005b61021f610a47565b6102ed6004803603602081101561030d57600080fd5b50356001600160a01b0316610a4d565b61021f6004803603602081101561033357600080fd5b50356001600160a01b0316610f2b565b61021f610f46565b61035361106b565b604080516001600160a01b039092168252519081900360200190f35b6102ed600480360360a081101561038557600080fd5b6001600160a01b0382351691602081013591810190606081016040820135600160201b8111156103b457600080fd5b8201836020820111156103c657600080fd5b803590602001918460018302840111600160201b831117156103e757600080fd5b91908080601f0160208091040260200160405190810160405280939291908181526020018383808284376000920191909152509295949360208101935035915050600160201b81111561043957600080fd5b82018360208201111561044b57600080fd5b803590602001918460018302840111600160201b8311171561046c57600080fd5b91908080601f016020809104026020016040519081016040528093929190818152602001838380828437600092019190915250929550509135925061107a915050565b610353611154565b61015a611163565b6102ed600480360360e08110156104d557600080fd5b506001600160a01b03813581169160208101358216916040820135169060608101359060808101359060a08101359060c0013515156111bb565b6101fb611735565b6101fb6004803603604081101561052d57600080fd5b506001600160a01b03813516906020013561173e565b610353611888565b61021f611897565b61021f6004803603604081101561056957600080fd5b506001600160a01b038135811691602001351661189d565b6101fb6118c8565b6103536118d6565b6000805460408051602060026001851615610100026000190190941693909304601f810184900484028201840190925281815292918301828280156106175780601f106105ec57610100808354040283529160200191610617565b820191906000526020600020905b8154815290600101906020018083116105fa57829003601f168201915b505050505081565b3360008181526006602090815260408083206001600160a01b038716808552908352818420869055815186815291519394909390927f8c5be1e5ebec7d5bd14f71427d1e84f3dd0314c0f7b2291e5b200ac8c7c3b925928290030190a35060015b92915050565b60045460ff1681565b60035481565b60006001600160a01b0383166106e8576040805162461bcd60e51b8152602060048201526013602482015272544f5f414444524553535f49535f454d50545960681b604482015290519081900360640190fd5b6001600160a01b03841660009081526005602052604090205482111561074a576040805162461bcd60e51b81526020600482015260126024820152710848298829c868abe9c9ea8be8a9c9eaa8e960731b604482015290519081900360640190fd5b6001600160a01b03841660009081526006602090815260408083203384529091529020548211156107b9576040805162461bcd60e51b815260206004820152601460248201527308298989eae829c868abe9c9ea8be8a9c9eaa8e960631b604482015290519081900360640190fd5b6001600160a01b0384166000908152600560205260409020546107e2908363ffffffff6118e516565b6001600160a01b038086166000908152600560205260408082209390935590851681522054610817908363ffffffff61192e16565b6001600160a01b03808516600090815260056020908152604080832094909455918716815260068252828120338252909152205461085b908363ffffffff6118e516565b6001600160a01b0380861660008181526006602090815260408083203384528252918290209490945580518681529051928716939192600080516020611d82833981519152929181900390910190a35060019392505050565b60015481565b60075460ff16610911576040805162461bcd60e51b815260206004820152601960248201527f444f444f467261676d656e743a204e4545445f4255594f555400000000000000604482015290519081900360640190fd5b33600090815260056020526040812054600954909190610931908361197b565b600c54909150610951906001600160a01b0316868363ffffffff6119a516565b61095a336119fc565b8215610a005760405163029e031b60e51b8152336004820181815260248301849052606060448401908152606484018790526001600160a01b038916936353c06360939286928a928a929190608401848480828437600081840152601f19601f82011690508083019250505095505050505050600060405180830381600087803b1580156109e757600080fd5b505af11580156109fb573d6000803e3d6000fd5b505050505b604080513381526020810184905280820183905290517fe5b754fb1abb7f01b499791d0b820ae3b6af3424ac1c59768edb53f4ec31a9299181900360600190a15050505050565b60095481565b600754610100900460ff16610aa9576040805162461bcd60e51b815260206004820181905260248201527f444f444f467261676d656e743a204e4f545f535550504f52545f4255594f5554604482015290519081900360640190fd5b6008544211610aff576040805162461bcd60e51b815260206004820152601e60248201527f444f444f467261676d656e743a204255594f55545f4e4f545f53544152540000604482015290519081900360640190fd5b60075460ff1615610b57576040805162461bcd60e51b815260206004820152601c60248201527f444f444f467261676d656e743a20414c52454144595f4255594f555400000000604482015290519081900360640190fd5b6007805460ff19166001179055600d546040805163ee27c68960e01b815290516001600160a01b039092169163ee27c68991600480820192602092909190829003018186803b158015610ba957600080fd5b505afa158015610bbd573d6000803e3d6000fd5b505050506040513d6020811015610bd357600080fd5b50516009819055600354600091610be991611a68565b600c54604080516370a0823160e01b8152306004820152905192935083926001600160a01b03909216916370a0823191602480820192602092909190829003018186803b158015610c3957600080fd5b505afa158015610c4d573d6000803e3d6000fd5b505050506040513d6020811015610c6357600080fd5b50511015610cb8576040805162461bcd60e51b815260206004820152601e60248201527f444f444f467261676d656e743a2051554f54455f4e4f545f454e4f5547480000604482015290519081900360640190fd5b600d54604080516370a0823160e01b815230600482015290516001600160a01b039092169163b56ceaa69183916370a0823191602480820192602092909190829003018186803b158015610d0b57600080fd5b505afa158015610d1f573d6000803e3d6000fd5b505050506040513d6020811015610d3557600080fd5b5051604080516001600160e01b031960e085901b16815260048101929092523060248301526000604483018190526064830181905260001960a484015260c0608484015260c483018190528151610104808501949192918390030190829087803b158015610da257600080fd5b505af1158015610db6573d6000803e3d6000fd5b505050506040513d6040811015610dcc57600080fd5b5050600954600b546001600160a01b03166000908152600560205260408120549091610df79161197b565b600b54600c54919250610e1d916001600160a01b0390811691168363ffffffff6119a516565b600b54610e32906001600160a01b03166119fc565b6009546001600160a01b0384166000908152600560205260408120549091610e599161197b565b600c54909150610e79906001600160a01b0316858363ffffffff6119a516565b610e82846119fc565b600a5460408051635ee9bee360e11b81526001600160a01b0387811660048301529151919092169163bdd37dc691602480830192600092919082900301818387803b158015610ed057600080fd5b505af1158015610ee4573d6000803e3d6000fd5b5050604080516001600160a01b038816815290517f3fb10f906eaa8bd871562f329e4f361a7e9ed6cd8eccf4f2a15933cbc86122d79350908190036020019150a150505050565b6001600160a01b031660009081526005602052604090205490565b600754600090610100900460ff16610f9a576040805162461bcd60e51b81526020600482015260126024820152711393d50814d5541413d4950810955653d55560721b604482015290519081900360640190fd5b60075460ff1615610fe3576040805162461bcd60e51b815260206004820152600e60248201526d105314915051164810955653d55560921b604482015290519081900360640190fd5b600d546040805163ee27c68960e01b815290516000926001600160a01b03169163ee27c689916004808301926020929190829003018186803b15801561102857600080fd5b505afa15801561103c573d6000803e3d6000fd5b505050506040513d602081101561105257600080fd5b5051600354909150611065908290611a68565b91505090565b600d546001600160a01b031681565b60045460ff16156110c6576040805162461bcd60e51b81526020600482015260116024820152701513d2d15397d253925512505312569151607a1b604482015290519081900360640190fd5b6004805460ff1916600117905560038490556001600160a01b0385166000908152600560209081526040822086905584516111049291860190611cc5565b508151611118906002906020850190611cc5565b5060018190556040805185815290516001600160a01b03871691600091600080516020611d828339815191529181900360200190a35050505050565b600a546001600160a01b031681565b6002805460408051602060018416156101000260001901909316849004601f810184900484028201840190925281815292918301828280156106175780601f106105ec57610100808354040283529160200191610617565b600d54600160a01b900460ff16156112045760405162461bcd60e51b8152600401808060200182810382526021815260200180611d616021913960400191505060405180910390fd5b600d8054600160a01b60ff60a01b19909116176001600160a01b0319166001600160a01b03898116919091179182905560408051636a5cb82360e11b81529051929091169163d4b97046916004808201926020929091908290030181600087803b15801561127157600080fd5b505af1158015611285573d6000803e3d6000fd5b505050506040513d602081101561129b57600080fd5b5051600c80546001600160a01b03199081166001600160a01b0393841617909155600b80548216898416179055600a8054909116878316179081905560088490556007805461ff001916610100851515021790556040805180820182526005815264465241475f60d81b6020820152600d548251625c406560e61b815293851660048501529151909384939216916317101940916024808301926000929190829003018186803b15801561134e57600080fd5b505afa158015611362573d6000803e3d6000fd5b505050506040513d6000823e601f3d908101601f19168201604052602081101561138b57600080fd5b8101908080516040519392919084600160201b8211156113aa57600080fd5b9083019060208201858111156113bf57600080fd5b8251600160201b8111828201881017156113d857600080fd5b82525081516020918201929091019080838360005b838110156114055781810151838201526020016113ed565b50505050905090810190601f1680156114325780820380516001836020036101000a031916815260200191505b506040525050506040516020018083805190602001908083835b6020831061146b5780518252601f19909201916020918201910161144c565b51815160209384036101000a600019018019909216911617905285519190930192850191508083835b602083106114b35780518252601f199092019160209182019101611494565b6001836020036101000a03801982511681845116808217855250505050505090500192505050604051602081830303815290604052600090805190602001906114fd929190611cc5565b50604080518082019091526004808252634652414760e01b602090920191825261152991600291611cc5565b506012600181905550611665308660008054600181600116156101000203166002900480601f0160208091040260200160405190810160405280929190818152602001828054600181600116156101000203166002900480156115cd5780601f106115a2576101008083540402835291602001916115cd565b820191906000526020600020905b8154815290600101906020018083116115b057829003601f168201915b505060028054604080516020601f60001961010060018716150201909416859004938401819004810282018101909252828152955091935091508301828280156116585780601f1061162d57610100808354040283529160200191611658565b820191906000526020600020905b81548152906001019060200180831161163b57829003601f168201915b505050505060015461107a565b6000611671868661197b565b600b5490915061168a906001600160a01b03168261173e565b50600d546116b0906001600160a01b03166116ab888463ffffffff6118e516565b61173e565b50600d5460408051634c85b42560e01b815230600482015290516001600160a01b0390921691634c85b425916024808201926060929091908290030181600087803b1580156116fe57600080fd5b505af1158015611712573d6000803e3d6000fd5b505050506040513d606081101561172857600080fd5b5050505050505050505050565b60075460ff1681565b60006001600160a01b038316611791576040805162461bcd60e51b8152602060048201526013602482015272544f5f414444524553535f49535f454d50545960681b604482015290519081900360640190fd5b336000908152600560205260409020548211156117ea576040805162461bcd60e51b81526020600482015260126024820152710848298829c868abe9c9ea8be8a9c9eaa8e960731b604482015290519081900360640190fd5b3360009081526005602052604090205461180a908363ffffffff6118e516565b33600090815260056020526040808220929092556001600160a01b0385168152205461183c908363ffffffff61192e16565b6001600160a01b038416600081815260056020908152604091829020939093558051858152905191923392600080516020611d828339815191529281900390910190a350600192915050565b600c546001600160a01b031681565b60085481565b6001600160a01b03918216600090815260066020908152604080832093909416825291909152205490565b600754610100900460ff1681565b600b546001600160a01b031681565b600082821115611928576040805162461bcd60e51b815260206004820152600960248201526829aaa12fa2a92927a960b91b604482015290519081900360640190fd5b50900390565b600082820183811015611974576040805162461bcd60e51b815260206004820152600960248201526820a2222fa2a92927a960b91b604482015290519081900360640190fd5b9392505050565b6000670de0b6b3a7640000611996848463ffffffff611a9216565b8161199d57fe5b049392505050565b604080516001600160a01b038416602482015260448082018490528251808303909101815260649091019091526020810180516001600160e01b031663a9059cbb60e01b1790526119f7908490611aed565b505050565b6001600160a01b03811660008181526005602090815260408083208054908490558380527f05b8ccbb9d4d8fb16ea74ce3c29a41f1b461fbdaff4714a0d9a8eb05499746bc81905581518181529151909492600080516020611d82833981519152928290030190a35050565b6000611974670de0b6b3a7640000611a86858563ffffffff611a9216565b9063ffffffff611c4816565b600082611aa157506000610680565b82820282848281611aae57fe5b0414611974576040805162461bcd60e51b815260206004820152600960248201526826aaa62fa2a92927a960b91b604482015290519081900360640190fd5b60006060836001600160a01b0316836040518082805190602001908083835b60208310611b2b5780518252601f199092019160209182019101611b0c565b6001836020036101000a0380198251168184511680821785525050505050509050019150506000604051808303816000865af19150503d8060008114611b8d576040519150601f19603f3d011682016040523d82523d6000602084013e611b92565b606091505b509150915081611be9576040805162461bcd60e51b815260206004820181905260248201527f5361666545524332303a206c6f772d6c6576656c2063616c6c206661696c6564604482015290519081900360640190fd5b805115611c4257808060200190516020811015611c0557600080fd5b5051611c425760405162461bcd60e51b815260040180806020018281038252602a815260200180611da2602a913960400191505060405180910390fd5b50505050565b600080611c558484611c75565b905082810284038015611c6d57506001019050610680565b509050610680565b6000808211611cbc576040805162461bcd60e51b815260206004820152600e60248201526d2224ab24a224a723afa2a92927a960911b604482015290519081900360640190fd5b81838161199d57fe5b828054600181600116156101000203166002900490600052602060002090601f016020900481019282601f10611d0657805160ff1916838001178555611d33565b82800160010185558215611d33579182015b82811115611d33578251825591602001919060010190611d18565b50611d3f929150611d43565b5090565b611d5d91905b80821115611d3f5760008155600101611d49565b9056fe444f444f467261676d656e743a20414c52454144595f494e495449414c495a4544ddf252ad1be2c89b69c2b068fc378daa952ba7f163c4a11628f55a4df523b3ef5361666545524332303a204552433230206f7065726174696f6e20646964206e6f742073756363656564a264697066735822122022abe912afaf1daf350149b333a44f9205b99ba14e8726a8800b62b8d0b3a89f64736f6c63430006090033",
  "immutableReferences": {},
  "source": "/*\n\n    Copyright 2020 DODO ZOO.\n    SPDX-License-Identifier: Apache-2.0\n\n*/\n\npragma solidity 0.6.9;\n\nimport {SafeMath} from \"../../lib/SafeMath.sol\";\nimport {SafeERC20} from \"../../lib/SafeERC20.sol\";\nimport {DecimalMath} from \"../../lib/DecimalMath.sol\";\nimport {IDVM} from \"../../DODOVendingMachine/intf/IDVM.sol\";\nimport {IDODOCallee} from \"../../intf/IDODOCallee.sol\";\nimport {IERC20} from \"../../intf/IERC20.sol\";\nimport {InitializableERC20} from \"../../external/ERC20/InitializableERC20.sol\";\nimport {ICollateralVault} from \"../../CollateralVault/intf/ICollateralVault.sol\";\n\ncontract Fragment is InitializableERC20 {\n    using SafeMath for uint256;\n    using SafeERC20 for IERC20;\n\n    // ============ Storage ============\n    \n    bool public _IS_BUYOUT_;\n    bool public _IS_OPEN_BUYOUT_;\n    uint256 public _BUYOUT_TIMESTAMP_;\n    uint256 public _BUYOUT_PRICE_;\n\n    address public _COLLATERAL_VAULT_;\n    address public _VAULT_PRE_OWNER_;\n    address public _QUOTE_;\n    address public _DVM_;\n\n    bool internal _FRAG_INITIALIZED_;\n\n    // ============ Event ============\n    event RemoveNftToken(address nftContract, uint256 tokenId, uint256 amount);\n    event AddNftToken(address nftContract, uint256 tokenId, uint256 amount);\n    event InitInfo(address vault, string name, string baseURI);\n    event CreateFragment();\n    event Buyout(address newOwner);\n    event Redeem(address sender, uint256 baseAmount, uint256 quoteAmount);\n\n\n    function init(\n      address dvm, \n      address vaultPreOwner,\n      address collateralVault,\n      uint256 totalSupply, \n      uint256 ownerRatio,\n      uint256 buyoutTimestamp,\n      bool isOpenBuyout\n    ) external {\n        require(!_FRAG_INITIALIZED_, \"DODOFragment: ALREADY_INITIALIZED\");\n        _FRAG_INITIALIZED_ = true;\n\n        // init local variables\n        _DVM_ = dvm;\n        _QUOTE_ = IDVM(_DVM_)._QUOTE_TOKEN_();\n        _VAULT_PRE_OWNER_ = vaultPreOwner;\n        _COLLATERAL_VAULT_ = collateralVault;\n        _BUYOUT_TIMESTAMP_ = buyoutTimestamp;\n        _IS_OPEN_BUYOUT_ = isOpenBuyout;\n\n        // init FRAG meta data\n        string memory prefix = \"FRAG_\";\n        name = string(abi.encodePacked(prefix, IDVM(_DVM_).addressToShortString(_COLLATERAL_VAULT_)));\n        symbol = \"FRAG\";\n        decimals = 18;\n        super.init(address(this), totalSupply, name, symbol, decimals);\n\n        // init FRAG distribution\n        uint256 vaultPreOwnerBalance = DecimalMath.mulFloor(totalSupply, ownerRatio);\n        transfer(_VAULT_PRE_OWNER_,vaultPreOwnerBalance);\n        transfer(_DVM_,totalSupply.sub(vaultPreOwnerBalance));\n\n        // init DVM liquidity\n        IDVM(_DVM_).buyShares(address(this));\n    }\n\n\n    function buyout(address newVaultOwner) external {\n      require(_IS_OPEN_BUYOUT_, \"DODOFragment: NOT_SUPPORT_BUYOUT\");\n      require(block.timestamp > _BUYOUT_TIMESTAMP_, \"DODOFragment: BUYOUT_NOT_START\");\n      require(!_IS_BUYOUT_, \"DODOFragment: ALREADY_BUYOUT\");\n      _IS_BUYOUT_ = true;\n      \n      _BUYOUT_PRICE_ = IDVM(_DVM_).getMidPrice();\n      uint256 requireQuote = DecimalMath.mulCeil(_BUYOUT_PRICE_, totalSupply);\n      require(IERC20(_QUOTE_).balanceOf(address(this)) >= requireQuote, \"DODOFragment: QUOTE_NOT_ENOUGH\");\n\n      IDVM(_DVM_).sellShares(\n        IERC20(_DVM_).balanceOf(address(this)),\n        address(this),\n        0,\n        0,\n        \"\",\n        uint256(-1)\n      );  \n\n      uint256 preOwnerQuote = DecimalMath.mulFloor(_BUYOUT_PRICE_, balances[_VAULT_PRE_OWNER_]);\n      IERC20(_QUOTE_).safeTransfer(_VAULT_PRE_OWNER_, preOwnerQuote);\n      _clearBalance(_VAULT_PRE_OWNER_);\n\n      uint256 newOwnerQuote = DecimalMath.mulFloor(_BUYOUT_PRICE_, balances[newVaultOwner]);\n      IERC20(_QUOTE_).safeTransfer(newVaultOwner, newOwnerQuote);\n      _clearBalance(newVaultOwner);\n\n      ICollateralVault(_COLLATERAL_VAULT_).directTransferOwnership(newVaultOwner);\n\n      emit Buyout(newVaultOwner);\n    }\n\n\n    function redeem(address to, bytes calldata data) external {\n      require(_IS_BUYOUT_, \"DODOFragment: NEED_BUYOUT\");\n\n      uint256 baseAmount = balances[msg.sender];\n      uint256 quoteAmount = DecimalMath.mulFloor(_BUYOUT_PRICE_, baseAmount);\n      IERC20(_QUOTE_).safeTransfer(to, quoteAmount);\n      _clearBalance(msg.sender);\n\n      if (data.length > 0) {\n        IDODOCallee(to).NFTRedeemCall(\n          msg.sender,\n          quoteAmount,\n          data\n        );\n      }\n\n      emit Redeem(msg.sender, baseAmount, quoteAmount);\n    }\n\n    function getBuyoutRequirement() external view returns (uint256 requireQuote){\n      require(_IS_OPEN_BUYOUT_, \"NOT SUPPORT BUYOUT\");\n      require(!_IS_BUYOUT_, \"ALREADY BUYOUT\");\n      uint256 price = IDVM(_DVM_).getMidPrice();\n      requireQuote = DecimalMath.mulCeil(price, totalSupply);\n    }\n\n    function _clearBalance(address account) internal {\n      uint256 clearBalance = balances[account];\n      balances[account] = 0;\n      balances[address(0)] = clearBalance;\n      emit Transfer(account, address(0), clearBalance);\n    }\n}\n",
  "sourcePath": "/Users/niutaotao/projects/dodo/contractV2/contracts/GeneralizedFragment/impl/Fragment.sol",
  "compiler": {
    "name": "solc",
    "version": "0.6.9+commit.3e3065ac.Emscripten.clang"
  },
  "schemaVersion": "3.3.2",
  "updatedAt": "2021-04-07T16:20:51.186Z",
  "devdoc": {
    "methods": {}
  },
  "userdoc": {
    "methods": {}
  }
}