{
  "contractName": "InitializableERC1155",
  "abi": [
    {
      "anonymous": false,
      "inputs": [
        {
          "indexed": true,
          "internalType": "address",
          "name": "account",
          "type": "address"
        },
        {
          "indexed": true,
          "internalType": "address",
          "name": "operator",
          "type": "address"
        },
        {
          "indexed": false,
          "internalType": "bool",
          "name": "approved",
          "type": "bool"
        }
      ],
      "name": "ApprovalForAll",
      "type": "event"
    },
    {
      "anonymous": false,
      "inputs": [
        {
          "indexed": true,
          "internalType": "address",
          "name": "operator",
          "type": "address"
        },
        {
          "indexed": true,
          "internalType": "address",
          "name": "from",
          "type": "address"
        },
        {
          "indexed": true,
          "internalType": "address",
          "name": "to",
          "type": "address"
        },
        {
          "indexed": false,
          "internalType": "uint256[]",
          "name": "ids",
          "type": "uint256[]"
        },
        {
          "indexed": false,
          "internalType": "uint256[]",
          "name": "values",
          "type": "uint256[]"
        }
      ],
      "name": "TransferBatch",
      "type": "event"
    },
    {
      "anonymous": false,
      "inputs": [
        {
          "indexed": true,
          "internalType": "address",
          "name": "operator",
          "type": "address"
        },
        {
          "indexed": true,
          "internalType": "address",
          "name": "from",
          "type": "address"
        },
        {
          "indexed": true,
          "internalType": "address",
          "name": "to",
          "type": "address"
        },
        {
          "indexed": false,
          "internalType": "uint256",
          "name": "id",
          "type": "uint256"
        },
        {
          "indexed": false,
          "internalType": "uint256",
          "name": "value",
          "type": "uint256"
        }
      ],
      "name": "TransferSingle",
      "type": "event"
    },
    {
      "anonymous": false,
      "inputs": [
        {
          "indexed": false,
          "internalType": "string",
          "name": "value",
          "type": "string"
        },
        {
          "indexed": true,
          "internalType": "uint256",
          "name": "id",
          "type": "uint256"
        }
      ],
      "name": "URI",
      "type": "event"
    },
    {
      "inputs": [
        {
          "internalType": "uint256",
          "name": "amount",
          "type": "uint256"
        },
        {
          "internalType": "string",
          "name": "baseUrI",
          "type": "string"
        }
      ],
      "name": "init",
      "outputs": [],
      "stateMutability": "nonpayable",
      "type": "function"
    },
    {
      "inputs": [
        {
          "internalType": "bytes4",
          "name": "interfaceId",
          "type": "bytes4"
        }
      ],
      "name": "supportsInterface",
      "outputs": [
        {
          "internalType": "bool",
          "name": "",
          "type": "bool"
        }
      ],
      "stateMutability": "view",
      "type": "function"
    },
    {
      "inputs": [
        {
          "internalType": "uint256",
          "name": "",
          "type": "uint256"
        }
      ],
      "name": "uri",
      "outputs": [
        {
          "internalType": "string",
          "name": "",
          "type": "string"
        }
      ],
      "stateMutability": "view",
      "type": "function"
    },
    {
      "inputs": [
        {
          "internalType": "address",
          "name": "account",
          "type": "address"
        },
        {
          "internalType": "uint256",
          "name": "id",
          "type": "uint256"
        }
      ],
      "name": "balanceOf",
      "outputs": [
        {
          "internalType": "uint256",
          "name": "",
          "type": "uint256"
        }
      ],
      "stateMutability": "view",
      "type": "function"
    },
    {
      "inputs": [
        {
          "internalType": "address[]",
          "name": "accounts",
          "type": "address[]"
        },
        {
          "internalType": "uint256[]",
          "name": "ids",
          "type": "uint256[]"
        }
      ],
      "name": "balanceOfBatch",
      "outputs": [
        {
          "internalType": "uint256[]",
          "name": "",
          "type": "uint256[]"
        }
      ],
      "stateMutability": "view",
      "type": "function"
    },
    {
      "inputs": [
        {
          "internalType": "address",
          "name": "operator",
          "type": "address"
        },
        {
          "internalType": "bool",
          "name": "approved",
          "type": "bool"
        }
      ],
      "name": "setApprovalForAll",
      "outputs": [],
      "stateMutability": "nonpayable",
      "type": "function"
    },
    {
      "inputs": [
        {
          "internalType": "address",
          "name": "account",
          "type": "address"
        },
        {
          "internalType": "address",
          "name": "operator",
          "type": "address"
        }
      ],
      "name": "isApprovedForAll",
      "outputs": [
        {
          "internalType": "bool",
          "name": "",
          "type": "bool"
        }
      ],
      "stateMutability": "view",
      "type": "function"
    },
    {
      "inputs": [
        {
          "internalType": "address",
          "name": "from",
          "type": "address"
        },
        {
          "internalType": "address",
          "name": "to",
          "type": "address"
        },
        {
          "internalType": "uint256",
          "name": "id",
          "type": "uint256"
        },
        {
          "internalType": "uint256",
          "name": "amount",
          "type": "uint256"
        },
        {
          "internalType": "bytes",
          "name": "data",
          "type": "bytes"
        }
      ],
      "name": "safeTransferFrom",
      "outputs": [],
      "stateMutability": "nonpayable",
      "type": "function"
    },
    {
      "inputs": [
        {
          "internalType": "address",
          "name": "from",
          "type": "address"
        },
        {
          "internalType": "address",
          "name": "to",
          "type": "address"
        },
        {
          "internalType": "uint256[]",
          "name": "ids",
          "type": "uint256[]"
        },
        {
          "internalType": "uint256[]",
          "name": "amounts",
          "type": "uint256[]"
        },
        {
          "internalType": "bytes",
          "name": "data",
          "type": "bytes"
        }
      ],
      "name": "safeBatchTransferFrom",
      "outputs": [],
      "stateMutability": "nonpayable",
      "type": "function"
    }
  ],
  "bytecode": "0x608060405234801561001057600080fd5b506116fd806100206000396000f3fe608060405234801561001057600080fd5b50600436106100925760003560e01c80632eb2c2d6116100665780632eb2c2d61461024f5780634e1273f414610410578063a22cb46514610583578063e985e9c5146105b1578063f242432a146105df57610092565b8062fdd58e1461009757806301ffc9a7146100d55780630e89341c1461011057806326ec6088146101a2575b600080fd5b6100c3600480360360408110156100ad57600080fd5b506001600160a01b0381351690602001356106a8565b60408051918252519081900360200190f35b6100fc600480360360208110156100eb57600080fd5b50356001600160e01b031916610715565b604080519115158252519081900360200190f35b61012d6004803603602081101561012657600080fd5b503561074c565b6040805160208082528351818301528351919283929083019185019080838360005b8381101561016757818101518382015260200161014f565b50505050905090810190601f1680156101945780820380516001836020036101000a031916815260200191505b509250505060405180910390f35b61024d600480360360408110156101b857600080fd5b81359190810190604081016020820135600160201b8111156101d957600080fd5b8201836020820111156101eb57600080fd5b803590602001918460018302840111600160201b8311171561020c57600080fd5b91908080601f0160208091040260200160405190810160405280939291908181526020018383808284376000920191909152509295506107e1945050505050565b005b61024d600480360360a081101561026557600080fd5b6001600160a01b038235811692602081013590911691810190606081016040820135600160201b81111561029857600080fd5b8201836020820111156102aa57600080fd5b803590602001918460208302840111600160201b831117156102cb57600080fd5b9190808060200260200160405190810160405280939291908181526020018383602002808284376000920191909152509295949360208101935035915050600160201b81111561031a57600080fd5b82018360208201111561032c57600080fd5b803590602001918460208302840111600160201b8311171561034d57600080fd5b9190808060200260200160405190810160405280939291908181526020018383602002808284376000920191909152509295949360208101935035915050600160201b81111561039c57600080fd5b8201836020820111156103ae57600080fd5b803590602001918460018302840111600160201b831117156103cf57600080fd5b91908080601f01602080910402602001604051908101604052809392919081815260200183838082843760009201919091525092955061080a945050505050565b6105336004803603604081101561042657600080fd5b810190602081018135600160201b81111561044057600080fd5b82018360208201111561045257600080fd5b803590602001918460208302840111600160201b8311171561047357600080fd5b9190808060200260200160405190810160405280939291908181526020018383602002808284376000920191909152509295949360208101935035915050600160201b8111156104c257600080fd5b8201836020820111156104d457600080fd5b803590602001918460208302840111600160201b831117156104f557600080fd5b919080806020026020016040519081016040528093929190818152602001838360200280828437600092019190915250929550610ac4945050505050565b60408051602080825283518183015283519192839290830191858101910280838360005b8381101561056f578181015183820152602001610557565b505050509050019250505060405180910390f35b61024d6004803603604081101561059957600080fd5b506001600160a01b0381351690602001351515610bb0565b6100fc600480360360408110156105c757600080fd5b506001600160a01b0381358116916020013516610c66565b61024d600480360360a08110156105f557600080fd5b6001600160a01b03823581169260208101359091169160408201359160608101359181019060a081016080820135600160201b81111561063457600080fd5b82018360208201111561064657600080fd5b803590602001918460018302840111600160201b8311171561066757600080fd5b91908080601f016020809104026020016040519081016040528093929190818152602001838380828437600092019190915250929550610c94945050505050565b60006001600160a01b0383166106ef5760405162461bcd60e51b815260040180806020018281038252602b815260200180611558602b913960400191505060405180910390fd5b506000908152602081815260408083206001600160a01b03949094168352929052205490565b60006001600160e01b03198216636cdb3d1360e11b148061074657506001600160e01b031982166303a24d0760e21b145b92915050565b60028054604080516020601f60001961010060018716150201909416859004938401819004810282018101909252828152606093909290918301828280156107d55780601f106107aa576101008083540402835291602001916107d5565b820191906000526020600020905b8154815290600101906020018083116107b857829003601f168201915b50505050509050919050565b6107ea81610e3a565b6108063360008460405180602001604052806000815250610e4d565b5050565b815183511461084a5760405162461bcd60e51b815260040180806020018281038252602881526020018061167f6028913960400191505060405180910390fd5b6001600160a01b03841661088f5760405162461bcd60e51b81526004018080602001828103825260258152602001806115ac6025913960400191505060405180910390fd5b6001600160a01b0385163314806108ab57506108ab8533610c66565b6108e65760405162461bcd60e51b81526004018080602001828103825260328152602001806115d16032913960400191505060405180910390fd5b336108f5818787878787610abc565b60005b84518110156109d457600085828151811061090f57fe5b60200260200101519050600085838151811061092757fe5b602090810291909101810151600084815280835260408082206001600160a01b038e1683529093529190912054909150818110156109965760405162461bcd60e51b815260040180806020018281038252602a815260200180611603602a913960400191505060405180910390fd5b6000928352602083815260408085206001600160a01b038d8116875292528085209284900390925589168352909120805490910190556001016108f8565b50846001600160a01b0316866001600160a01b0316826001600160a01b03167f4a39dc06d4c0dbc64b70af90fd698a233a518aa5d07e595d983b8c0526c8f7fb8787604051808060200180602001838103835285818151815260200191508051906020019060200280838360005b83811015610a5a578181015183820152602001610a42565b50505050905001838103825284818151815260200191508051906020019060200280838360005b83811015610a99578181015183820152602001610a81565b5050505090500194505050505060405180910390a4610abc818787878787610f1f565b505050505050565b60608151835114610b065760405162461bcd60e51b81526004018080602001828103825260298152602001806116566029913960400191505060405180910390fd5b6060835167ffffffffffffffff81118015610b2057600080fd5b50604051908082528060200260200182016040528015610b4a578160200160208202803683370190505b50905060005b8451811015610ba857610b89858281518110610b6857fe5b6020026020010151858381518110610b7c57fe5b60200260200101516106a8565b828281518110610b9557fe5b6020908102919091010152600101610b50565b509392505050565b336001600160a01b0383161415610bf85760405162461bcd60e51b815260040180806020018281038252602981526020018061162d6029913960400191505060405180910390fd5b3360008181526001602090815260408083206001600160a01b03871680855290835292819020805460ff1916861515908117909155815190815290519293927f17307eab39ab6107e8899845ad3d59bd9653f200f220920489ca2b5937696c31929181900390910190a35050565b6001600160a01b03918216600090815260016020908152604080832093909416825291909152205460ff1690565b6001600160a01b038416610cd95760405162461bcd60e51b81526004018080602001828103825260258152602001806115ac6025913960400191505060405180910390fd5b6001600160a01b038516331480610cf55750610cf58533610c66565b610d305760405162461bcd60e51b81526004018080602001828103825260298152602001806115836029913960400191505060405180910390fd5b33610d4f818787610d40886111e5565b610d49886111e5565b87610abc565b6000848152602081815260408083206001600160a01b038a16845290915290205483811015610daf5760405162461bcd60e51b815260040180806020018281038252602a815260200180611603602a913960400191505060405180910390fd5b6000858152602081815260408083206001600160a01b038b811680865291845282852089870390558a81168086529483902080548a01905582518a815293840189905282519193908716927fc3d58168c5ae7397731d063d5bbf3d657854427343f4c083240f7aacaa2d0f6292918290030190a4610e31828888888888611229565b50505050505050565b80516108069060029060208401906113b2565b6001600160a01b038416610e925760405162461bcd60e51b81526004018080602001828103825260218152602001806116a76021913960400191505060405180910390fd5b33610ea381600087610d40886111e5565b6000848152602081815260408083206001600160a01b03808a1680865291845282852080548901905582518981529384018890528251919493908616927fc3d58168c5ae7397731d063d5bbf3d657854427343f4c083240f7aacaa2d0f6292918290030190a4610f1881600087878787611229565b5050505050565b610f31846001600160a01b03166113ac565b15610abc57836001600160a01b031663bc197c8187878686866040518663ffffffff1660e01b815260040180866001600160a01b03166001600160a01b03168152602001856001600160a01b03166001600160a01b03168152602001806020018060200180602001848103845287818151815260200191508051906020019060200280838360005b83811015610fd1578181015183820152602001610fb9565b50505050905001848103835286818151815260200191508051906020019060200280838360005b83811015611010578181015183820152602001610ff8565b50505050905001848103825285818151815260200191508051906020019080838360005b8381101561104c578181015183820152602001611034565b50505050905090810190601f1680156110795780820380516001836020036101000a031916815260200191505b5098505050505050505050602060405180830381600087803b15801561109e57600080fd5b505af19250505080156110c357506040513d60208110156110be57600080fd5b505160015b611196576110cf611453565b806110da575061115f565b8060405162461bcd60e51b81526004018080602001828103825283818151815260200191508051906020019080838360005b8381101561112457818101518382015260200161110c565b50505050905090810190601f1680156111515780820380516001836020036101000a031916815260200191505b509250505060405180910390fd5b60405162461bcd60e51b81526004018080602001828103825260348152602001806114fc6034913960400191505060405180910390fd5b6001600160e01b0319811663bc197c8160e01b14610e315760405162461bcd60e51b81526004018080602001828103825260288152602001806115306028913960400191505060405180910390fd5b60408051600180825281830190925260609182919060208083019080368337019050509050828160008151811061121857fe5b602090810291909101015292915050565b61123b846001600160a01b03166113ac565b15610abc57836001600160a01b031663f23a6e6187878686866040518663ffffffff1660e01b815260040180866001600160a01b03166001600160a01b03168152602001856001600160a01b03166001600160a01b0316815260200184815260200183815260200180602001828103825283818151815260200191508051906020019080838360005b838110156112dc5781810151838201526020016112c4565b50505050905090810190601f1680156113095780820380516001836020036101000a031916815260200191505b509650505050505050602060405180830381600087803b15801561132c57600080fd5b505af192505050801561135157506040513d602081101561134c57600080fd5b505160015b61135d576110cf611453565b6001600160e01b0319811663f23a6e6160e01b14610e315760405162461bcd60e51b81526004018080602001828103825260288152602001806115306028913960400191505060405180910390fd5b3b151590565b828054600181600116156101000203166002900490600052602060002090601f016020900481019282601f106113f357805160ff1916838001178555611420565b82800160010185558215611420579182015b82811115611420578251825591602001919060010190611405565b5061142c929150611430565b5090565b61144a91905b8082111561142c5760008155600101611436565b90565b60e01c90565b600060443d10156114635761144a565b600481823e6308c379a0611477825161144d565b146114815761144a565b6040513d600319016004823e80513d67ffffffffffffffff81602484011181841117156114b1575050505061144a565b828401915081519250808311156114cb575050505061144a565b503d830160208383010111156114e35750505061144a565b601f91909101601f191681016020016040529150509056fe455243313135353a207472616e7366657220746f206e6f6e2045524331313535526563656976657220696d706c656d656e746572455243313135353a204552433131353552656365697665722072656a656374656420746f6b656e73455243313135353a2062616c616e636520717565727920666f7220746865207a65726f2061646472657373455243313135353a2063616c6c6572206973206e6f74206f776e6572206e6f7220617070726f766564455243313135353a207472616e7366657220746f20746865207a65726f2061646472657373455243313135353a207472616e736665722063616c6c6572206973206e6f74206f776e6572206e6f7220617070726f766564455243313135353a20696e73756666696369656e742062616c616e636520666f72207472616e73666572455243313135353a2073657474696e6720617070726f76616c2073746174757320666f722073656c66455243313135353a206163636f756e747320616e6420696473206c656e677468206d69736d61746368455243313135353a2069647320616e6420616d6f756e7473206c656e677468206d69736d61746368455243313135353a206d696e7420746f20746865207a65726f2061646472657373a2646970667358221220bffd16d706e22822fb58c292620e6bb3f5cabaa4eea5a5ea9ed6c5adbd175c6e64736f6c63430006090033",
  "immutableReferences": {},
  "source": "/*\n\n    Copyright 2020 DODO ZOO.\n    SPDX-License-Identifier: Apache-2.0\n\n*/\n\npragma solidity 0.6.9;\n\nimport {IERC1155} from \"../../intf/IERC1155.sol\";\nimport {IERC1155Receiver} from \"../../intf/IERC1155Receiver.sol\";\nimport {IERC1155MetadataURI} from \"../../intf/IERC1155MetadataURI.sol\";\nimport {IERC165} from \"../../intf/IERC165.sol\";\nimport {Strings} from \"../../lib/Strings.sol\";\nimport {Address} from \"../../lib/Address.sol\";\n\n\ncontract InitializableERC1155 is IERC165, IERC1155, IERC1155MetadataURI {\n    using Address for address;\n\n    mapping (uint256 => mapping(address => uint256)) private _balances;\n\n    mapping (address => mapping(address => bool)) private _operatorApprovals;\n\n    string private _uri;\n\n\n    function init(\n        uint256 amount,\n        string memory baseUrI\n    ) public {\n        _setURI(baseUrI);\n        _mint(msg.sender, 0, amount ,\"\");\n    }\n\n    function supportsInterface(bytes4 interfaceId) public view override returns (bool) {\n        return interfaceId == type(IERC1155).interfaceId\n            || interfaceId == type(IERC1155MetadataURI).interfaceId;\n    }\n\n    function uri(uint256) public view virtual override returns (string memory) {\n        return _uri;\n    }\n\n    function balanceOf(address account, uint256 id) public view virtual override returns (uint256) {\n        require(account != address(0), \"ERC1155: balance query for the zero address\");\n        return _balances[id][account];\n    }\n\n    function balanceOfBatch(\n        address[] memory accounts,\n        uint256[] memory ids\n    )\n        public\n        view\n        virtual\n        override\n        returns (uint256[] memory)\n    {\n        require(accounts.length == ids.length, \"ERC1155: accounts and ids length mismatch\");\n\n        uint256[] memory batchBalances = new uint256[](accounts.length);\n\n        for (uint256 i = 0; i < accounts.length; ++i) {\n            batchBalances[i] = balanceOf(accounts[i], ids[i]);\n        }\n\n        return batchBalances;\n    }\n\n    function setApprovalForAll(address operator, bool approved) public virtual override {\n        require(msg.sender != operator, \"ERC1155: setting approval status for self\");\n\n        _operatorApprovals[msg.sender][operator] = approved;\n        emit ApprovalForAll(msg.sender, operator, approved);\n    }\n\n    function isApprovedForAll(address account, address operator) public view virtual override returns (bool) {\n        return _operatorApprovals[account][operator];\n    }\n\n    function safeTransferFrom(\n        address from,\n        address to,\n        uint256 id,\n        uint256 amount,\n        bytes memory data\n    )\n        public\n        virtual\n        override\n    {\n        require(to != address(0), \"ERC1155: transfer to the zero address\");\n        require(\n            from == msg.sender || isApprovedForAll(from, msg.sender),\n            \"ERC1155: caller is not owner nor approved\"\n        );\n\n        address operator = msg.sender;\n\n        _beforeTokenTransfer(operator, from, to, _asSingletonArray(id), _asSingletonArray(amount), data);\n\n        uint256 fromBalance = _balances[id][from];\n        require(fromBalance >= amount, \"ERC1155: insufficient balance for transfer\");\n        _balances[id][from] = fromBalance - amount;\n        _balances[id][to] += amount;\n\n        emit TransferSingle(operator, from, to, id, amount);\n\n        _doSafeTransferAcceptanceCheck(operator, from, to, id, amount, data);\n    }\n\n    function safeBatchTransferFrom(\n        address from,\n        address to,\n        uint256[] memory ids,\n        uint256[] memory amounts,\n        bytes memory data\n    )\n        public\n        virtual\n        override\n    {\n        require(ids.length == amounts.length, \"ERC1155: ids and amounts length mismatch\");\n        require(to != address(0), \"ERC1155: transfer to the zero address\");\n        require(\n            from == msg.sender || isApprovedForAll(from, msg.sender),\n            \"ERC1155: transfer caller is not owner nor approved\"\n        );\n\n        address operator = msg.sender;\n\n        _beforeTokenTransfer(operator, from, to, ids, amounts, data);\n\n        for (uint256 i = 0; i < ids.length; ++i) {\n            uint256 id = ids[i];\n            uint256 amount = amounts[i];\n\n            uint256 fromBalance = _balances[id][from];\n            require(fromBalance >= amount, \"ERC1155: insufficient balance for transfer\");\n            _balances[id][from] = fromBalance - amount;\n            _balances[id][to] += amount;\n        }\n\n        emit TransferBatch(operator, from, to, ids, amounts);\n\n        _doSafeBatchTransferAcceptanceCheck(operator, from, to, ids, amounts, data);\n    }\n\n    function _setURI(string memory newuri) internal virtual {\n        _uri = newuri;\n    }\n\n    function _mint(address account, uint256 id, uint256 amount, bytes memory data) internal virtual {\n        require(account != address(0), \"ERC1155: mint to the zero address\");\n\n        address operator = msg.sender;\n\n        _beforeTokenTransfer(operator, address(0), account, _asSingletonArray(id), _asSingletonArray(amount), data);\n\n        _balances[id][account] += amount;\n        emit TransferSingle(operator, address(0), account, id, amount);\n\n        _doSafeTransferAcceptanceCheck(operator, address(0), account, id, amount, data);\n    }\n\n    function _mintBatch(address to, uint256[] memory ids, uint256[] memory amounts, bytes memory data) internal virtual {\n        require(to != address(0), \"ERC1155: mint to the zero address\");\n        require(ids.length == amounts.length, \"ERC1155: ids and amounts length mismatch\");\n\n        address operator = msg.sender;\n\n        _beforeTokenTransfer(operator, address(0), to, ids, amounts, data);\n\n        for (uint i = 0; i < ids.length; i++) {\n            _balances[ids[i]][to] += amounts[i];\n        }\n\n        emit TransferBatch(operator, address(0), to, ids, amounts);\n\n        _doSafeBatchTransferAcceptanceCheck(operator, address(0), to, ids, amounts, data);\n    }\n\n    function _burn(address account, uint256 id, uint256 amount) internal virtual {\n        require(account != address(0), \"ERC1155: burn from the zero address\");\n\n        address operator = msg.sender;\n\n        _beforeTokenTransfer(operator, account, address(0), _asSingletonArray(id), _asSingletonArray(amount), \"\");\n\n        uint256 accountBalance = _balances[id][account];\n        require(accountBalance >= amount, \"ERC1155: burn amount exceeds balance\");\n        _balances[id][account] = accountBalance - amount;\n\n        emit TransferSingle(operator, account, address(0), id, amount);\n    }\n\n    function _burnBatch(address account, uint256[] memory ids, uint256[] memory amounts) internal virtual {\n        require(account != address(0), \"ERC1155: burn from the zero address\");\n        require(ids.length == amounts.length, \"ERC1155: ids and amounts length mismatch\");\n\n        address operator = msg.sender;\n\n        _beforeTokenTransfer(operator, account, address(0), ids, amounts, \"\");\n\n        for (uint i = 0; i < ids.length; i++) {\n            uint256 id = ids[i];\n            uint256 amount = amounts[i];\n\n            uint256 accountBalance = _balances[id][account];\n            require(accountBalance >= amount, \"ERC1155: burn amount exceeds balance\");\n            _balances[id][account] = accountBalance - amount;\n        }\n\n        emit TransferBatch(operator, account, address(0), ids, amounts);\n    }\n\n    function _beforeTokenTransfer(\n        address operator,\n        address from,\n        address to,\n        uint256[] memory ids,\n        uint256[] memory amounts,\n        bytes memory data\n    )\n        internal\n        virtual\n    { }\n\n    function _doSafeTransferAcceptanceCheck(\n        address operator,\n        address from,\n        address to,\n        uint256 id,\n        uint256 amount,\n        bytes memory data\n    )\n        private\n    {\n        if (to.isContract()) {\n            try IERC1155Receiver(to).onERC1155Received(operator, from, id, amount, data) returns (bytes4 response) {\n                if (response != IERC1155Receiver(to).onERC1155Received.selector) {\n                    revert(\"ERC1155: ERC1155Receiver rejected tokens\");\n                }\n            } catch Error(string memory reason) {\n                revert(reason);\n            } catch {\n                revert(\"ERC1155: transfer to non ERC1155Receiver implementer\");\n            }\n        }\n    }\n\n    function _doSafeBatchTransferAcceptanceCheck(\n        address operator,\n        address from,\n        address to,\n        uint256[] memory ids,\n        uint256[] memory amounts,\n        bytes memory data\n    )\n        private\n    {\n        if (to.isContract()) {\n            try IERC1155Receiver(to).onERC1155BatchReceived(operator, from, ids, amounts, data) returns (bytes4 response) {\n                if (response != IERC1155Receiver(to).onERC1155BatchReceived.selector) {\n                    revert(\"ERC1155: ERC1155Receiver rejected tokens\");\n                }\n            } catch Error(string memory reason) {\n                revert(reason);\n            } catch {\n                revert(\"ERC1155: transfer to non ERC1155Receiver implementer\");\n            }\n        }\n    }\n\n    function _asSingletonArray(uint256 element) private pure returns (uint256[] memory) {\n        uint256[] memory array = new uint256[](1);\n        array[0] = element;\n\n        return array;\n    }\n}\n",
  "sourcePath": "/Users/niutaotao/projects/dodo/contractV2/contracts/external/ERC1155/InitializableERC1155.sol",
  "compiler": {
    "name": "solc",
    "version": "0.6.9+commit.3e3065ac.Emscripten.clang"
  },
  "schemaVersion": "3.3.2",
  "updatedAt": "2021-04-07T16:20:51.244Z",
  "devdoc": {
    "methods": {}
  },
  "userdoc": {
    "methods": {}
  }
}