{
  "contractName": "InitializableERC1155",
  "abi": [
    {
      "anonymous": false,
      "inputs": [
        {
          "indexed": true,
          "internalType": "address",
          "name": "account",
          "type": "address"
        },
        {
          "indexed": true,
          "internalType": "address",
          "name": "operator",
          "type": "address"
        },
        {
          "indexed": false,
          "internalType": "bool",
          "name": "approved",
          "type": "bool"
        }
      ],
      "name": "ApprovalForAll",
      "type": "event"
    },
    {
      "anonymous": false,
      "inputs": [
        {
          "indexed": true,
          "internalType": "address",
          "name": "operator",
          "type": "address"
        },
        {
          "indexed": true,
          "internalType": "address",
          "name": "from",
          "type": "address"
        },
        {
          "indexed": true,
          "internalType": "address",
          "name": "to",
          "type": "address"
        },
        {
          "indexed": false,
          "internalType": "uint256[]",
          "name": "ids",
          "type": "uint256[]"
        },
        {
          "indexed": false,
          "internalType": "uint256[]",
          "name": "values",
          "type": "uint256[]"
        }
      ],
      "name": "TransferBatch",
      "type": "event"
    },
    {
      "anonymous": false,
      "inputs": [
        {
          "indexed": true,
          "internalType": "address",
          "name": "operator",
          "type": "address"
        },
        {
          "indexed": true,
          "internalType": "address",
          "name": "from",
          "type": "address"
        },
        {
          "indexed": true,
          "internalType": "address",
          "name": "to",
          "type": "address"
        },
        {
          "indexed": false,
          "internalType": "uint256",
          "name": "id",
          "type": "uint256"
        },
        {
          "indexed": false,
          "internalType": "uint256",
          "name": "value",
          "type": "uint256"
        }
      ],
      "name": "TransferSingle",
      "type": "event"
    },
    {
      "anonymous": false,
      "inputs": [
        {
          "indexed": false,
          "internalType": "string",
          "name": "value",
          "type": "string"
        },
        {
          "indexed": true,
          "internalType": "uint256",
          "name": "id",
          "type": "uint256"
        }
      ],
      "name": "URI",
      "type": "event"
    },
    {
      "inputs": [
        {
          "internalType": "address",
          "name": "account",
          "type": "address"
        },
        {
          "internalType": "uint256",
          "name": "id",
          "type": "uint256"
        }
      ],
      "name": "balanceOf",
      "outputs": [
        {
          "internalType": "uint256",
          "name": "",
          "type": "uint256"
        }
      ],
      "stateMutability": "view",
      "type": "function"
    },
    {
      "inputs": [
        {
          "internalType": "address[]",
          "name": "accounts",
          "type": "address[]"
        },
        {
          "internalType": "uint256[]",
          "name": "ids",
          "type": "uint256[]"
        }
      ],
      "name": "balanceOfBatch",
      "outputs": [
        {
          "internalType": "uint256[]",
          "name": "",
          "type": "uint256[]"
        }
      ],
      "stateMutability": "view",
      "type": "function"
    },
    {
      "inputs": [
        {
          "internalType": "address",
          "name": "account",
          "type": "address"
        },
        {
          "internalType": "address",
          "name": "operator",
          "type": "address"
        }
      ],
      "name": "isApprovedForAll",
      "outputs": [
        {
          "internalType": "bool",
          "name": "",
          "type": "bool"
        }
      ],
      "stateMutability": "view",
      "type": "function"
    },
    {
      "inputs": [
        {
          "internalType": "address",
          "name": "from",
          "type": "address"
        },
        {
          "internalType": "address",
          "name": "to",
          "type": "address"
        },
        {
          "internalType": "uint256[]",
          "name": "ids",
          "type": "uint256[]"
        },
        {
          "internalType": "uint256[]",
          "name": "amounts",
          "type": "uint256[]"
        },
        {
          "internalType": "bytes",
          "name": "data",
          "type": "bytes"
        }
      ],
      "name": "safeBatchTransferFrom",
      "outputs": [],
      "stateMutability": "nonpayable",
      "type": "function"
    },
    {
      "inputs": [
        {
          "internalType": "address",
          "name": "from",
          "type": "address"
        },
        {
          "internalType": "address",
          "name": "to",
          "type": "address"
        },
        {
          "internalType": "uint256",
          "name": "id",
          "type": "uint256"
        },
        {
          "internalType": "uint256",
          "name": "amount",
          "type": "uint256"
        },
        {
          "internalType": "bytes",
          "name": "data",
          "type": "bytes"
        }
      ],
      "name": "safeTransferFrom",
      "outputs": [],
      "stateMutability": "nonpayable",
      "type": "function"
    },
    {
      "inputs": [
        {
          "internalType": "address",
          "name": "operator",
          "type": "address"
        },
        {
          "internalType": "bool",
          "name": "approved",
          "type": "bool"
        }
      ],
      "name": "setApprovalForAll",
      "outputs": [],
      "stateMutability": "nonpayable",
      "type": "function"
    },
    {
      "inputs": [
        {
          "internalType": "bytes4",
          "name": "interfaceId",
          "type": "bytes4"
        }
      ],
      "name": "supportsInterface",
      "outputs": [
        {
          "internalType": "bool",
          "name": "",
          "type": "bool"
        }
      ],
      "stateMutability": "view",
      "type": "function"
    },
    {
      "inputs": [
        {
          "internalType": "address",
          "name": "creator",
          "type": "address"
        },
        {
          "internalType": "uint256",
          "name": "amount",
          "type": "uint256"
        },
        {
          "internalType": "string",
          "name": "uri",
          "type": "string"
        }
      ],
      "name": "init",
      "outputs": [],
      "stateMutability": "nonpayable",
      "type": "function"
    },
    {
      "inputs": [
        {
          "internalType": "uint256",
          "name": "tokenId",
          "type": "uint256"
        }
      ],
      "name": "uri",
      "outputs": [
        {
          "internalType": "string",
          "name": "",
          "type": "string"
        }
      ],
      "stateMutability": "view",
      "type": "function"
    }
  ],
  "bytecode": "0x60a06040819052600060808190526200001b9160049162000030565b503480156200002957600080fd5b50620000d5565b828054600181600116156101000203166002900490600052602060002090601f016020900481019282601f106200007357805160ff1916838001178555620000a3565b82800160010185558215620000a3579182015b82811115620000a357825182559160200191906001019062000086565b50620000b1929150620000b5565b5090565b620000d291905b80821115620000b15760008155600101620000bc565b90565b611a3580620000e56000396000f3fe608060405234801561001057600080fd5b50600436106100925760003560e01c80634e1273f4116100665780634e1273f414610365578063573c1855146104d8578063a22cb46514610591578063e985e9c5146105bf578063f242432a146105ed57610092565b8062fdd58e1461009757806301ffc9a7146100d55780630e89341c146101105780632eb2c2d6146101a2575b600080fd5b6100c3600480360360408110156100ad57600080fd5b506001600160a01b0381351690602001356106b6565b60408051918252519081900360200190f35b6100fc600480360360208110156100eb57600080fd5b50356001600160e01b031916610723565b604080519115158252519081900360200190f35b61012d6004803603602081101561012657600080fd5b503561076b565b6040805160208082528351818301528351919283929083019185019080838360005b8381101561016757818101518382015260200161014f565b50505050905090810190601f1680156101945780820380516001836020036101000a031916815260200191505b509250505060405180910390f35b610363600480360360a08110156101b857600080fd5b6001600160a01b038235811692602081013590911691810190606081016040820135600160201b8111156101eb57600080fd5b8201836020820111156101fd57600080fd5b803590602001918460208302840111600160201b8311171561021e57600080fd5b9190808060200260200160405190810160405280939291908181526020018383602002808284376000920191909152509295949360208101935035915050600160201b81111561026d57600080fd5b82018360208201111561027f57600080fd5b803590602001918460208302840111600160201b831117156102a057600080fd5b9190808060200260200160405190810160405280939291908181526020018383602002808284376000920191909152509295949360208101935035915050600160201b8111156102ef57600080fd5b82018360208201111561030157600080fd5b803590602001918460018302840111600160201b8311171561032257600080fd5b91908080601f016020809104026020016040519081016040528093929190818152602001838380828437600092019190915250929550610982945050505050565b005b6104886004803603604081101561037b57600080fd5b810190602081018135600160201b81111561039557600080fd5b8201836020820111156103a757600080fd5b803590602001918460208302840111600160201b831117156103c857600080fd5b9190808060200260200160405190810160405280939291908181526020018383602002808284376000920191909152509295949360208101935035915050600160201b81111561041757600080fd5b82018360208201111561042957600080fd5b803590602001918460208302840111600160201b8311171561044a57600080fd5b919080806020026020016040519081016040528093929190818152602001838360200280828437600092019190915250929550610c5e945050505050565b60408051602080825283518183015283519192839290830191858101910280838360005b838110156104c45781810151838201526020016104ac565b505050509050019250505060405180910390f35b610363600480360360608110156104ee57600080fd5b6001600160a01b0382351691602081013591810190606081016040820135600160201b81111561051d57600080fd5b82018360208201111561052f57600080fd5b803590602001918460018302840111600160201b8311171561055057600080fd5b91908080601f016020809104026020016040519081016040528093929190818152602001838380828437600092019190915250929550610d4a945050505050565b610363600480360360408110156105a757600080fd5b506001600160a01b0381351690602001351515610dcb565b6100fc600480360360408110156105d557600080fd5b506001600160a01b0381358116916020013516610eba565b610363600480360360a081101561060357600080fd5b6001600160a01b03823581169260208101359091169160408201359160608101359181019060a081016080820135600160201b81111561064257600080fd5b82018360208201111561065457600080fd5b803590602001918460018302840111600160201b8311171561067557600080fd5b91908080601f016020809104026020016040519081016040528093929190818152602001838380828437600092019190915250929550610ee8945050505050565b60006001600160a01b0383166106fd5760405162461bcd60e51b815260040180806020018281038252602b815260200180611890602b913960400191505060405180910390fd5b506000908152602081815260408083206001600160a01b03949094168352929052205490565b60006001600160e01b03198216636cdb3d1360e11b148061075457506001600160e01b031982166303a24d0760e21b145b806107635750610763826110ab565b90505b919050565b6000818152600360209081526040918290208054835160026001831615610100026000190190921691909104601f810184900484028201840190945283815260609384939192918301828280156108035780601f106107d857610100808354040283529160200191610803565b820191906000526020600020905b8154815290600101906020018083116107e657829003601f168201915b505060048054604080516020601f60026000196101006001881615020190951694909404938401819004810282018101909252828152969750606096955091935091508301828280156108975780601f1061086c57610100808354040283529160200191610897565b820191906000526020600020905b81548152906001019060200180831161087a57829003601f168201915b505050505090508051600014156108b057509050610766565b8151156109715780826040516020018083805190602001908083835b602083106108eb5780518252601f1990920191602091820191016108cc565b51815160209384036101000a600019018019909216911617905285519190930192850191508083835b602083106109335780518252601f199092019160209182019101610914565b6001836020036101000a0380198251168184511680821785525050505050509050019250505060405160208183030381529060405292505050610766565b61097a846110c4565b949350505050565b81518351146109c25760405162461bcd60e51b81526004018080602001828103825260288152602001806119b76028913960400191505060405180910390fd5b6001600160a01b038416610a075760405162461bcd60e51b81526004018080602001828103825260258152602001806118e46025913960400191505060405180910390fd5b610a0f611159565b6001600160a01b0316856001600160a01b03161480610a3a5750610a3a85610a35611159565b610eba565b610a755760405162461bcd60e51b81526004018080602001828103825260328152602001806119096032913960400191505060405180910390fd5b6000610a7f611159565b9050610a8f818787878787610c56565b60005b8451811015610b6e576000858281518110610aa957fe5b602002602001015190506000858381518110610ac157fe5b602090810291909101810151600084815280835260408082206001600160a01b038e168352909352919091205490915081811015610b305760405162461bcd60e51b815260040180806020018281038252602a81526020018061193b602a913960400191505060405180910390fd5b6000928352602083815260408085206001600160a01b038d811687529252808520928490039092558916835290912080549091019055600101610a92565b50846001600160a01b0316866001600160a01b0316826001600160a01b03167f4a39dc06d4c0dbc64b70af90fd698a233a518aa5d07e595d983b8c0526c8f7fb8787604051808060200180602001838103835285818151815260200191508051906020019060200280838360005b83811015610bf4578181015183820152602001610bdc565b50505050905001838103825284818151815260200191508051906020019060200280838360005b83811015610c33578181015183820152602001610c1b565b5050505090500194505050505060405180910390a4610c5681878787878761115e565b505050505050565b60608151835114610ca05760405162461bcd60e51b815260040180806020018281038252602981526020018061198e6029913960400191505060405180910390fd5b6060835167ffffffffffffffff81118015610cba57600080fd5b50604051908082528060200260200182016040528015610ce4578160200160208202803683370190505b50905060005b8451811015610d4257610d23858281518110610d0257fe5b6020026020010151858381518110610d1657fe5b60200260200101516106b6565b828281518110610d2f57fe5b6020908102919091010152600101610cea565b509392505050565b60055460ff1615610d90576040805162461bcd60e51b815260206004820152600b60248201526a125392551250531256915160aa1b604482015290519081900360640190fd5b6005805460ff1916600117905560408051602081019091526000808252610dbb918591908590611424565b610dc6600082611501565b505050565b816001600160a01b0316610ddd611159565b6001600160a01b03161415610e235760405162461bcd60e51b81526004018080602001828103825260298152602001806119656029913960400191505060405180910390fd5b8060016000610e30611159565b6001600160a01b03908116825260208083019390935260409182016000908120918716808252919093529120805460ff191692151592909217909155610e74611159565b60408051841515815290516001600160a01b0392909216917f17307eab39ab6107e8899845ad3d59bd9653f200f220920489ca2b5937696c319181900360200190a35050565b6001600160a01b03918216600090815260016020908152604080832093909416825291909152205460ff1690565b6001600160a01b038416610f2d5760405162461bcd60e51b81526004018080602001828103825260258152602001806118e46025913960400191505060405180910390fd5b610f35611159565b6001600160a01b0316856001600160a01b03161480610f5b5750610f5b85610a35611159565b610f965760405162461bcd60e51b81526004018080602001828103825260298152602001806118bb6029913960400191505060405180910390fd5b6000610fa0611159565b9050610fc0818787610fb188611520565b610fba88611520565b87610c56565b6000848152602081815260408083206001600160a01b038a168452909152902054838110156110205760405162461bcd60e51b815260040180806020018281038252602a81526020018061193b602a913960400191505060405180910390fd5b6000858152602081815260408083206001600160a01b038b811680865291845282852089870390558a81168086529483902080548a01905582518a815293840189905282519193908716927fc3d58168c5ae7397731d063d5bbf3d657854427343f4c083240f7aacaa2d0f6292918290030190a46110a2828888888888611564565b50505050505050565b6001600160e01b031981166301ffc9a760e01b14919050565b60028054604080516020601f600019610100600187161502019094168590049384018190048102820181019092528281526060939092909183018282801561114d5780601f106111225761010080835404028352916020019161114d565b820191906000526020600020905b81548152906001019060200180831161113057829003601f168201915b50505050509050919050565b335b90565b611170846001600160a01b03166116e7565b15610c5657836001600160a01b031663bc197c8187878686866040518663ffffffff1660e01b815260040180866001600160a01b03166001600160a01b03168152602001856001600160a01b03166001600160a01b03168152602001806020018060200180602001848103845287818151815260200191508051906020019060200280838360005b838110156112105781810151838201526020016111f8565b50505050905001848103835286818151815260200191508051906020019060200280838360005b8381101561124f578181015183820152602001611237565b50505050905001848103825285818151815260200191508051906020019080838360005b8381101561128b578181015183820152602001611273565b50505050905090810190601f1680156112b85780820380516001836020036101000a031916815260200191505b5098505050505050505050602060405180830381600087803b1580156112dd57600080fd5b505af192505050801561130257506040513d60208110156112fd57600080fd5b505160015b6113d55761130e61178b565b80611319575061139e565b8060405162461bcd60e51b81526004018080602001828103825283818151815260200191508051906020019080838360005b8381101561136357818101518382015260200161134b565b50505050905090810190601f1680156113905780820380516001836020036101000a031916815260200191505b509250505060405180910390fd5b60405162461bcd60e51b81526004018080602001828103825260348152602001806118346034913960400191505060405180910390fd5b6001600160e01b0319811663bc197c8160e01b146110a25760405162461bcd60e51b81526004018080602001828103825260288152602001806118686028913960400191505060405180910390fd5b6001600160a01b0384166114695760405162461bcd60e51b81526004018080602001828103825260218152602001806119df6021913960400191505060405180910390fd5b6000611473611159565b905061148581600087610fb188611520565b6000848152602081815260408083206001600160a01b03808a1680865291845282852080548901905582518981529384018890528251919493908616927fc3d58168c5ae7397731d063d5bbf3d657854427343f4c083240f7aacaa2d0f6292918290030190a46114fa81600087878787611564565b5050505050565b60008281526003602090815260409091208251610dc6928401906116ed565b60408051600180825281830190925260609182919060208083019080368337019050509050828160008151811061155357fe5b602090810291909101015292915050565b611576846001600160a01b03166116e7565b15610c5657836001600160a01b031663f23a6e6187878686866040518663ffffffff1660e01b815260040180866001600160a01b03166001600160a01b03168152602001856001600160a01b03166001600160a01b0316815260200184815260200183815260200180602001828103825283818151815260200191508051906020019080838360005b838110156116175781810151838201526020016115ff565b50505050905090810190601f1680156116445780820380516001836020036101000a031916815260200191505b509650505050505050602060405180830381600087803b15801561166757600080fd5b505af192505050801561168c57506040513d602081101561168757600080fd5b505160015b6116985761130e61178b565b6001600160e01b0319811663f23a6e6160e01b146110a25760405162461bcd60e51b81526004018080602001828103825260288152602001806118686028913960400191505060405180910390fd5b3b151590565b828054600181600116156101000203166002900490600052602060002090601f016020900481019282601f1061172e57805160ff191683800117855561175b565b8280016001018555821561175b579182015b8281111561175b578251825591602001919060010190611740565b5061176792915061176b565b5090565b61115b91905b808211156117675760008155600101611771565b60e01c90565b600060443d101561179b5761115b565b600481823e6308c379a06117af8251611785565b146117b95761115b565b6040513d600319016004823e80513d67ffffffffffffffff81602484011181841117156117e9575050505061115b565b82840191508151925080831115611803575050505061115b565b503d8301602083830101111561181b5750505061115b565b601f91909101601f191681016020016040529150509056fe455243313135353a207472616e7366657220746f206e6f6e2045524331313535526563656976657220696d706c656d656e746572455243313135353a204552433131353552656365697665722072656a656374656420746f6b656e73455243313135353a2062616c616e636520717565727920666f7220746865207a65726f2061646472657373455243313135353a2063616c6c6572206973206e6f74206f776e6572206e6f7220617070726f766564455243313135353a207472616e7366657220746f20746865207a65726f2061646472657373455243313135353a207472616e736665722063616c6c6572206973206e6f74206f776e6572206e6f7220617070726f766564455243313135353a20696e73756666696369656e742062616c616e636520666f72207472616e73666572455243313135353a2073657474696e6720617070726f76616c2073746174757320666f722073656c66455243313135353a206163636f756e747320616e6420696473206c656e677468206d69736d61746368455243313135353a2069647320616e6420616d6f756e7473206c656e677468206d69736d61746368455243313135353a206d696e7420746f20746865207a65726f2061646472657373a2646970667358221220273f1acee27e9221db5b0c6040b9fb339be70234c57d6861909b1a1220395fb964736f6c63430006090033",
  "immutableReferences": {},
  "source": "/*\n\n    Copyright 2020 DODO ZOO.\n    SPDX-License-Identifier: Apache-2.0\n\n*/\n\npragma solidity 0.6.9;\n\nimport {ERC1155} from \"./ERC1155.sol\";\nimport {Strings} from \"../utils/Strings.sol\";\n\ncontract InitializableERC1155 is ERC1155 {\n    using Strings for uint256;\n    \n    mapping (uint256 => string) private _tokenURIs;\n    string internal _baseUri = \"\";\n    bool internal _INITIALIZED_;\n    \n    function init(\n        address creator,\n        uint256 amount,\n        string memory uri\n    ) public {\n        require(!_INITIALIZED_, \"INITIALIZED\");\n        _INITIALIZED_ = true;\n        _mint(creator, 0, amount ,\"\");\n        _setTokenURI(0, uri);\n    }\n\n    function uri(uint256 tokenId) public view override returns (string memory) {\n        string memory _tokenURI = _tokenURIs[tokenId];\n        string memory base = _baseUri;\n\n        if (bytes(base).length == 0) {\n            return _tokenURI;\n        }\n\n        if (bytes(_tokenURI).length > 0) {\n            return string(abi.encodePacked(base, _tokenURI));\n        }\n\n        return super.uri(tokenId);\n    }\n\n    function _setTokenURI(uint256 tokenId, string memory _tokenURI) internal {\n        _tokenURIs[tokenId] = _tokenURI;\n    }\n\n}\n",
  "sourcePath": "/Users/niutaotao/projects/dodo/contractV2/contracts/external/ERC1155/InitializableERC1155.sol",
  "compiler": {
    "name": "solc",
    "version": "0.6.9+commit.3e3065ac.Emscripten.clang"
  },
  "schemaVersion": "3.3.2",
  "updatedAt": "2021-05-24T11:04:29.955Z",
  "devdoc": {
    "methods": {
      "balanceOf(address,uint256)": {
        "details": "See {IERC1155-balanceOf}. Requirements: - `account` cannot be the zero address."
      },
      "balanceOfBatch(address[],uint256[])": {
        "details": "See {IERC1155-balanceOfBatch}. Requirements: - `accounts` and `ids` must have the same length."
      },
      "isApprovedForAll(address,address)": {
        "details": "See {IERC1155-isApprovedForAll}."
      },
      "safeBatchTransferFrom(address,address,uint256[],uint256[],bytes)": {
        "details": "See {IERC1155-safeBatchTransferFrom}."
      },
      "safeTransferFrom(address,address,uint256,uint256,bytes)": {
        "details": "See {IERC1155-safeTransferFrom}."
      },
      "setApprovalForAll(address,bool)": {
        "details": "See {IERC1155-setApprovalForAll}."
      },
      "supportsInterface(bytes4)": {
        "details": "See {IERC165-supportsInterface}."
      }
    }
  },
  "userdoc": {
    "methods": {}
  }
}