{
  "contractName": "InitializableERC721",
  "abi": [
    {
      "anonymous": false,
      "inputs": [
        {
          "indexed": true,
          "internalType": "address",
          "name": "owner",
          "type": "address"
        },
        {
          "indexed": true,
          "internalType": "address",
          "name": "approved",
          "type": "address"
        },
        {
          "indexed": true,
          "internalType": "uint256",
          "name": "tokenId",
          "type": "uint256"
        }
      ],
      "name": "Approval",
      "type": "event"
    },
    {
      "anonymous": false,
      "inputs": [
        {
          "indexed": true,
          "internalType": "address",
          "name": "owner",
          "type": "address"
        },
        {
          "indexed": true,
          "internalType": "address",
          "name": "operator",
          "type": "address"
        },
        {
          "indexed": false,
          "internalType": "bool",
          "name": "approved",
          "type": "bool"
        }
      ],
      "name": "ApprovalForAll",
      "type": "event"
    },
    {
      "anonymous": false,
      "inputs": [
        {
          "indexed": true,
          "internalType": "address",
          "name": "from",
          "type": "address"
        },
        {
          "indexed": true,
          "internalType": "address",
          "name": "to",
          "type": "address"
        },
        {
          "indexed": true,
          "internalType": "uint256",
          "name": "tokenId",
          "type": "uint256"
        }
      ],
      "name": "Transfer",
      "type": "event"
    },
    {
      "inputs": [
        {
          "internalType": "address",
          "name": "to",
          "type": "address"
        },
        {
          "internalType": "uint256",
          "name": "tokenId",
          "type": "uint256"
        }
      ],
      "name": "approve",
      "outputs": [],
      "stateMutability": "nonpayable",
      "type": "function"
    },
    {
      "inputs": [
        {
          "internalType": "address",
          "name": "owner",
          "type": "address"
        }
      ],
      "name": "balanceOf",
      "outputs": [
        {
          "internalType": "uint256",
          "name": "",
          "type": "uint256"
        }
      ],
      "stateMutability": "view",
      "type": "function"
    },
    {
      "inputs": [
        {
          "internalType": "uint256",
          "name": "tokenId",
          "type": "uint256"
        }
      ],
      "name": "getApproved",
      "outputs": [
        {
          "internalType": "address",
          "name": "",
          "type": "address"
        }
      ],
      "stateMutability": "view",
      "type": "function"
    },
    {
      "inputs": [
        {
          "internalType": "address",
          "name": "owner",
          "type": "address"
        },
        {
          "internalType": "address",
          "name": "operator",
          "type": "address"
        }
      ],
      "name": "isApprovedForAll",
      "outputs": [
        {
          "internalType": "bool",
          "name": "",
          "type": "bool"
        }
      ],
      "stateMutability": "view",
      "type": "function"
    },
    {
      "inputs": [],
      "name": "name",
      "outputs": [
        {
          "internalType": "string",
          "name": "",
          "type": "string"
        }
      ],
      "stateMutability": "view",
      "type": "function"
    },
    {
      "inputs": [
        {
          "internalType": "uint256",
          "name": "tokenId",
          "type": "uint256"
        }
      ],
      "name": "ownerOf",
      "outputs": [
        {
          "internalType": "address",
          "name": "",
          "type": "address"
        }
      ],
      "stateMutability": "view",
      "type": "function"
    },
    {
      "inputs": [
        {
          "internalType": "address",
          "name": "from",
          "type": "address"
        },
        {
          "internalType": "address",
          "name": "to",
          "type": "address"
        },
        {
          "internalType": "uint256",
          "name": "tokenId",
          "type": "uint256"
        }
      ],
      "name": "safeTransferFrom",
      "outputs": [],
      "stateMutability": "nonpayable",
      "type": "function"
    },
    {
      "inputs": [
        {
          "internalType": "address",
          "name": "from",
          "type": "address"
        },
        {
          "internalType": "address",
          "name": "to",
          "type": "address"
        },
        {
          "internalType": "uint256",
          "name": "tokenId",
          "type": "uint256"
        },
        {
          "internalType": "bytes",
          "name": "_data",
          "type": "bytes"
        }
      ],
      "name": "safeTransferFrom",
      "outputs": [],
      "stateMutability": "nonpayable",
      "type": "function"
    },
    {
      "inputs": [
        {
          "internalType": "address",
          "name": "operator",
          "type": "address"
        },
        {
          "internalType": "bool",
          "name": "approved",
          "type": "bool"
        }
      ],
      "name": "setApprovalForAll",
      "outputs": [],
      "stateMutability": "nonpayable",
      "type": "function"
    },
    {
      "inputs": [
        {
          "internalType": "bytes4",
          "name": "interfaceId",
          "type": "bytes4"
        }
      ],
      "name": "supportsInterface",
      "outputs": [
        {
          "internalType": "bool",
          "name": "",
          "type": "bool"
        }
      ],
      "stateMutability": "view",
      "type": "function"
    },
    {
      "inputs": [],
      "name": "symbol",
      "outputs": [
        {
          "internalType": "string",
          "name": "",
          "type": "string"
        }
      ],
      "stateMutability": "view",
      "type": "function"
    },
    {
      "inputs": [
        {
          "internalType": "uint256",
          "name": "index",
          "type": "uint256"
        }
      ],
      "name": "tokenByIndex",
      "outputs": [
        {
          "internalType": "uint256",
          "name": "",
          "type": "uint256"
        }
      ],
      "stateMutability": "view",
      "type": "function"
    },
    {
      "inputs": [
        {
          "internalType": "address",
          "name": "owner",
          "type": "address"
        },
        {
          "internalType": "uint256",
          "name": "index",
          "type": "uint256"
        }
      ],
      "name": "tokenOfOwnerByIndex",
      "outputs": [
        {
          "internalType": "uint256",
          "name": "",
          "type": "uint256"
        }
      ],
      "stateMutability": "view",
      "type": "function"
    },
    {
      "inputs": [
        {
          "internalType": "uint256",
          "name": "tokenId",
          "type": "uint256"
        }
      ],
      "name": "tokenURI",
      "outputs": [
        {
          "internalType": "string",
          "name": "",
          "type": "string"
        }
      ],
      "stateMutability": "view",
      "type": "function"
    },
    {
      "inputs": [],
      "name": "totalSupply",
      "outputs": [
        {
          "internalType": "uint256",
          "name": "",
          "type": "uint256"
        }
      ],
      "stateMutability": "view",
      "type": "function"
    },
    {
      "inputs": [
        {
          "internalType": "address",
          "name": "from",
          "type": "address"
        },
        {
          "internalType": "address",
          "name": "to",
          "type": "address"
        },
        {
          "internalType": "uint256",
          "name": "tokenId",
          "type": "uint256"
        }
      ],
      "name": "transferFrom",
      "outputs": [],
      "stateMutability": "nonpayable",
      "type": "function"
    },
    {
      "inputs": [
        {
          "internalType": "address",
          "name": "creator",
          "type": "address"
        },
        {
          "internalType": "string",
          "name": "name",
          "type": "string"
        },
        {
          "internalType": "string",
          "name": "symbol",
          "type": "string"
        },
        {
          "internalType": "string",
          "name": "uri",
          "type": "string"
        }
      ],
      "name": "init",
      "outputs": [],
      "stateMutability": "nonpayable",
      "type": "function"
    }
  ],
  "bytecode": "0x60a06040819052600060808190526200001b9160029162000030565b503480156200002957600080fd5b50620000d5565b828054600181600116156101000203166002900490600052602060002090601f016020900481019282601f106200007357805160ff1916838001178555620000a3565b82800160010185558215620000a3579182015b82811115620000a357825182559160200191906001019062000086565b50620000b1929150620000b5565b5090565b620000d291905b80821115620000b15760008155600101620000bc565b90565b611ca380620000e56000396000f3fe608060405234801561001057600080fd5b506004361061010b5760003560e01c80634f6ccce7116100a2578063a22cb46511610071578063a22cb46514610349578063b88d4fde14610377578063c87b56dd1461043b578063e985e9c514610458578063fcbdbaaa146104865761010b565b80634f6ccce7146102e15780636352211e146102fe57806370a082311461031b57806395d89b41146103415761010b565b806318160ddd116100de57806318160ddd1461022f57806323b872dd146102495780632f745c591461027f57806342842e0e146102ab5761010b565b806301ffc9a71461011057806306fdde031461014b578063081812fc146101c8578063095ea7b314610201575b600080fd5b6101376004803603602081101561012657600080fd5b50356001600160e01b031916610644565b604080519115158252519081900360200190f35b610153610671565b6040805160208082528351818301528351919283929083019185019080838360005b8381101561018d578181015183820152602001610175565b50505050905090810190601f1680156101ba5780820380516001836020036101000a031916815260200191505b509250505060405180910390f35b6101e5600480360360208110156101de57600080fd5b5035610708565b604080516001600160a01b039092168252519081900360200190f35b61022d6004803603604081101561021757600080fd5b506001600160a01b03813516906020013561076a565b005b610237610845565b60408051918252519081900360200190f35b61022d6004803603606081101561025f57600080fd5b506001600160a01b0381358116916020810135909116906040013561084b565b6102376004803603604081101561029557600080fd5b506001600160a01b0381351690602001356108a2565b61022d600480360360608110156102c157600080fd5b506001600160a01b03813581169160208101359091169060400135610913565b610237600480360360208110156102f757600080fd5b503561092e565b6101e56004803603602081101561031457600080fd5b5035610994565b6102376004803603602081101561033157600080fd5b50356001600160a01b03166109e8565b610153610a4b565b61022d6004803603604081101561035f57600080fd5b506001600160a01b0381351690602001351515610aab565b61022d6004803603608081101561038d57600080fd5b6001600160a01b03823581169260208101359091169160408201359190810190608081016060820135600160201b8111156103c757600080fd5b8201836020820111156103d957600080fd5b803590602001918460018302840111600160201b831117156103fa57600080fd5b91908080601f016020809104026020016040519081016040528093929190818152602001838380828437600092019190915250929550610bb0945050505050565b6101536004803603602081101561045157600080fd5b5035610c0e565b6101376004803603604081101561046e57600080fd5b506001600160a01b0381358116916020013516610de0565b61022d6004803603608081101561049c57600080fd5b6001600160a01b038235169190810190604081016020820135600160201b8111156104c657600080fd5b8201836020820111156104d857600080fd5b803590602001918460018302840111600160201b831117156104f957600080fd5b91908080601f0160208091040260200160405190810160405280939291908181526020018383808284376000920191909152509295949360208101935035915050600160201b81111561054b57600080fd5b82018360208201111561055d57600080fd5b803590602001918460018302840111600160201b8311171561057e57600080fd5b91908080601f0160208091040260200160405190810160405280939291908181526020018383808284376000920191909152509295949360208101935035915050600160201b8111156105d057600080fd5b8201836020820111156105e257600080fd5b803590602001918460018302840111600160201b8311171561060357600080fd5b91908080601f016020809104026020016040519081016040528093929190818152602001838380828437600092019190915250929550610e0e945050505050565b60006001600160e01b0319821663780e9d6360e01b1480610669575061066982610e4c565b90505b919050565b60008054604080516020601f60026000196101006001881615020190951694909404938401819004810282018101909252828152606093909290918301828280156106fd5780601f106106d2576101008083540402835291602001916106fd565b820191906000526020600020905b8154815290600101906020018083116106e057829003601f168201915b505050505090505b90565b600061071382610e8c565b61074e5760405162461bcd60e51b815260040180806020018281038252602c815260200180611b6c602c913960400191505060405180910390fd5b506000908152600560205260409020546001600160a01b031690565b600061077582610994565b9050806001600160a01b0316836001600160a01b031614156107c85760405162461bcd60e51b8152600401808060200182810382526021815260200180611bf06021913960400191505060405180910390fd5b806001600160a01b03166107da610ea9565b6001600160a01b031614806107fb57506107fb816107f6610ea9565b610de0565b6108365760405162461bcd60e51b8152600401808060200182810382526038815260200180611a826038913960400191505060405180910390fd5b6108408383610ead565b505050565b60095490565b61085c610856610ea9565b82610f1b565b6108975760405162461bcd60e51b8152600401808060200182810382526031815260200180611c116031913960400191505060405180910390fd5b610840838383610fb7565b60006108ad836109e8565b82106108ea5760405162461bcd60e51b815260040180806020018281038252602b8152602001806119d5602b913960400191505060405180910390fd5b506001600160a01b03919091166000908152600760209081526040808320938352929052205490565b61084083838360405180602001604052806000815250610bb0565b6000610938610845565b82106109755760405162461bcd60e51b815260040180806020018281038252602c815260200180611c42602c913960400191505060405180910390fd5b6009828154811061098257fe5b90600052602060002001549050919050565b6000818152600360205260408120546001600160a01b0316806106695760405162461bcd60e51b8152600401808060200182810382526029815260200180611ae46029913960400191505060405180910390fd5b60006001600160a01b038216610a2f5760405162461bcd60e51b815260040180806020018281038252602a815260200180611aba602a913960400191505060405180910390fd5b506001600160a01b031660009081526004602052604090205490565b60018054604080516020601f600260001961010087891615020190951694909404938401819004810282018101909252828152606093909290918301828280156106fd5780601f106106d2576101008083540402835291602001916106fd565b610ab3610ea9565b6001600160a01b0316826001600160a01b03161415610b19576040805162461bcd60e51b815260206004820152601960248201527f4552433732313a20617070726f766520746f2063616c6c657200000000000000604482015290519081900360640190fd5b8060066000610b26610ea9565b6001600160a01b03908116825260208083019390935260409182016000908120918716808252919093529120805460ff191692151592909217909155610b6a610ea9565b60408051841515815290516001600160a01b0392909216917f17307eab39ab6107e8899845ad3d59bd9653f200f220920489ca2b5937696c319181900360200190a35050565b610bc1610bbb610ea9565b83610f1b565b610bfc5760405162461bcd60e51b8152600401808060200182810382526031815260200180611c116031913960400191505060405180910390fd5b610c08848484846110e7565b50505050565b6060610c1982610e8c565b610c545760405162461bcd60e51b8152600401808060200182810382526031815260200180611b3b6031913960400191505060405180910390fd5b6000828152600b602090815260409182902080548351601f6002600019610100600186161502019093169290920491820184900484028101840190945280845260609392830182828015610ce95780601f10610cbe57610100808354040283529160200191610ce9565b820191906000526020600020905b815481529060010190602001808311610ccc57829003601f168201915b505050505090506060610cfa611139565b9050805160001415610d0e5750905061066c565b815115610dcf5780826040516020018083805190602001908083835b60208310610d495780518252601f199092019160209182019101610d2a565b51815160209384036101000a600019018019909216911617905285519190930192850191508083835b60208310610d915780518252601f199092019160209182019101610d72565b6001836020036101000a038019825116818451168082178552505050505050905001925050506040516020818303038152906040529250505061066c565b610dd884611197565b949350505050565b6001600160a01b03918216600090815260066020908152604080832093909416825291909152205460ff1690565b8251610e2190600090602086019061193c565b508151610e3590600190602085019061193c565b50610e418460006112c8565b610c086000826113f5565b60006001600160e01b031982166380ac58cd60e01b1480610e7d57506001600160e01b03198216635b5e139f60e01b145b80610669575061066982611458565b6000908152600360205260409020546001600160a01b0316151590565b3390565b600081815260056020526040902080546001600160a01b0319166001600160a01b0384169081179091558190610ee282610994565b6001600160a01b03167f8c5be1e5ebec7d5bd14f71427d1e84f3dd0314c0f7b2291e5b200ac8c7c3b92560405160405180910390a45050565b6000610f2682610e8c565b610f615760405162461bcd60e51b815260040180806020018281038252602c815260200180611a56602c913960400191505060405180910390fd5b6000610f6c83610994565b9050806001600160a01b0316846001600160a01b03161480610fa75750836001600160a01b0316610f9c84610708565b6001600160a01b0316145b80610dd85750610dd88185610de0565b826001600160a01b0316610fca82610994565b6001600160a01b03161461100f5760405162461bcd60e51b8152600401808060200182810382526029815260200180611b986029913960400191505060405180910390fd5b6001600160a01b0382166110545760405162461bcd60e51b8152600401808060200182810382526024815260200180611a326024913960400191505060405180910390fd5b61105f838383611471565b61106a600082610ead565b6001600160a01b038084166000818152600460209081526040808320805460001901905593861680835284832080546001019055858352600390915283822080546001600160a01b031916821790559251849392917fddf252ad1be2c89b69c2b068fc378daa952ba7f163c4a11628f55a4df523b3ef91a4505050565b6110f2848484610fb7565b6110fe848484846114fa565b610c085760405162461bcd60e51b8152600401808060200182810382526032815260200180611a006032913960400191505060405180910390fd5b60028054604080516020601f60001961010060018716150201909416859004938401819004810282018101909252828152606093909290918301828280156106fd5780601f106106d2576101008083540402835291602001916106fd565b60606111a282610e8c565b6111dd5760405162461bcd60e51b815260040180806020018281038252602f815260200180611bc1602f913960400191505060405180910390fd5b60606111e7611139565b9050600081511161120757604051806020016040528060008152506112c1565b80611211846116c1565b6040516020018083805190602001908083835b602083106112435780518252601f199092019160209182019101611224565b51815160209384036101000a600019018019909216911617905285519190930192850191508083835b6020831061128b5780518252601f19909201916020918201910161126c565b6001836020036101000a038019825116818451168082178552505050505050905001925050506040516020818303038152906040525b9392505050565b6001600160a01b038216611323576040805162461bcd60e51b815260206004820181905260248201527f4552433732313a206d696e7420746f20746865207a65726f2061646472657373604482015290519081900360640190fd5b61132c81610e8c565b1561137e576040805162461bcd60e51b815260206004820152601c60248201527f4552433732313a20746f6b656e20616c7265616479206d696e74656400000000604482015290519081900360640190fd5b61138a60008383611471565b6001600160a01b038216600081815260046020908152604080832080546001019055848352600390915280822080546001600160a01b0319168417905551839291907fddf252ad1be2c89b69c2b068fc378daa952ba7f163c4a11628f55a4df523b3ef908290a45050565b6113fe82610e8c565b6114395760405162461bcd60e51b815260040180806020018281038252602e815260200180611b0d602e913960400191505060405180910390fd5b6000828152600b6020908152604090912082516108409284019061193c565b6001600160e01b031981166301ffc9a760e01b14919050565b61147c838383610840565b6001600160a01b038316611498576114938161178b565b6114bb565b816001600160a01b0316836001600160a01b0316146114bb576114bb83826117cf565b6001600160a01b0382166114d7576114d281611864565b610840565b826001600160a01b0316826001600160a01b0316146108405761084082826118f2565b600061150e846001600160a01b0316611936565b156116b657836001600160a01b031663150b7a0261152a610ea9565b8786866040518563ffffffff1660e01b815260040180856001600160a01b03166001600160a01b03168152602001846001600160a01b03166001600160a01b0316815260200183815260200180602001828103825283818151815260200191508051906020019080838360005b838110156115af578181015183820152602001611597565b50505050905090810190601f1680156115dc5780820380516001836020036101000a031916815260200191505b5095505050505050602060405180830381600087803b1580156115fe57600080fd5b505af192505050801561162357506040513d602081101561161e57600080fd5b505160015b61169c573d808015611651576040519150601f19603f3d011682016040523d82523d6000602084013e611656565b606091505b5080516116945760405162461bcd60e51b8152600401808060200182810382526032815260200180611a006032913960400191505060405180910390fd5b805181602001fd5b6001600160e01b031916630a85bd0160e11b149050610dd8565b506001949350505050565b6060816116e657506040805180820190915260018152600360fc1b602082015261066c565b8160005b81156116fe57600101600a820491506116ea565b60608167ffffffffffffffff8111801561171757600080fd5b506040519080825280601f01601f191660200182016040528015611742576020820181803683370190505b5090505b8415610dd85760001990910190600a850660300160f81b81838151811061176957fe5b60200101906001600160f81b031916908160001a905350600a85049450611746565b600980546000838152600a60205260408120829055600182018355919091527f6e1540171b6c0c960b71a7020d9f60077f6af931a8bbf590da0223dacf75c7af0155565b600060016117dc846109e8565b6000848152600860205260409020549190039150808214611831576001600160a01b03841660009081526007602090815260408083208584528252808320548484528184208190558352600890915290208190555b5060009182526008602090815260408084208490556001600160a01b039094168352600781528383209183525290812055565b600980546000838152600a602052604081205460001983019390928490811061188957fe5b9060005260206000200154905080600983815481106118a457fe5b6000918252602080832090910192909255828152600a909152604080822084905585825281205560098054806118d657fe5b6001900381819060005260206000200160009055905550505050565b60006118fd836109e8565b6001600160a01b039093166000908152600760209081526040808320868452825280832085905593825260089052919091209190915550565b3b151590565b828054600181600116156101000203166002900490600052602060002090601f016020900481019282601f1061197d57805160ff19168380011785556119aa565b828001600101855582156119aa579182015b828111156119aa57825182559160200191906001019061198f565b506119b69291506119ba565b5090565b61070591905b808211156119b657600081556001016119c056fe455243373231456e756d657261626c653a206f776e657220696e646578206f7574206f6620626f756e64734552433732313a207472616e7366657220746f206e6f6e20455243373231526563656976657220696d706c656d656e7465724552433732313a207472616e7366657220746f20746865207a65726f20616464726573734552433732313a206f70657261746f7220717565727920666f72206e6f6e6578697374656e7420746f6b656e4552433732313a20617070726f76652063616c6c6572206973206e6f74206f776e6572206e6f7220617070726f76656420666f7220616c6c4552433732313a2062616c616e636520717565727920666f7220746865207a65726f20616464726573734552433732313a206f776e657220717565727920666f72206e6f6e6578697374656e7420746f6b656e45524337323155524953746f726167653a2055524920736574206f66206e6f6e6578697374656e7420746f6b656e45524337323155524953746f726167653a2055524920717565727920666f72206e6f6e6578697374656e7420746f6b656e4552433732313a20617070726f76656420717565727920666f72206e6f6e6578697374656e7420746f6b656e4552433732313a207472616e73666572206f6620746f6b656e2074686174206973206e6f74206f776e4552433732314d657461646174613a2055524920717565727920666f72206e6f6e6578697374656e7420746f6b656e4552433732313a20617070726f76616c20746f2063757272656e74206f776e65724552433732313a207472616e736665722063616c6c6572206973206e6f74206f776e6572206e6f7220617070726f766564455243373231456e756d657261626c653a20676c6f62616c20696e646578206f7574206f6620626f756e6473a26469706673582212206b3b647c5e712cb456a0566ffe9eb4198563d5df9a4c8a4595ee37f8ec4d1e8b64736f6c63430006090033",
  "immutableReferences": {},
  "source": "/*\n\n    Copyright 2020 DODO ZOO.\n    SPDX-License-Identifier: Apache-2.0\n\n*/\n\npragma solidity 0.6.9;\n\nimport {ERC721URIStorage} from \"./ERC721URIStorage.sol\";\n\ncontract InitializableERC721 is ERC721URIStorage {\n    function init(\n        address creator,\n        string memory name,\n        string memory symbol,\n        string memory uri\n    ) public {\n        _name = name;\n        _symbol = symbol;\n        _mint(creator, 0);\n        _setTokenURI(0, uri);\n    }\n}",
  "sourcePath": "/Users/niutaotao/projects/dodo/contractV2/contracts/external/ERC721/InitializableERC721.sol",
  "compiler": {
    "name": "solc",
    "version": "0.6.9+commit.3e3065ac.Emscripten.clang"
  },
  "schemaVersion": "3.3.2",
  "updatedAt": "2021-05-24T11:04:29.987Z",
  "devdoc": {
    "methods": {
      "approve(address,uint256)": {
        "details": "See {IERC721-approve}."
      },
      "balanceOf(address)": {
        "details": "See {IERC721-balanceOf}."
      },
      "getApproved(uint256)": {
        "details": "See {IERC721-getApproved}."
      },
      "isApprovedForAll(address,address)": {
        "details": "See {IERC721-isApprovedForAll}."
      },
      "name()": {
        "details": "See {IERC721Metadata-name}."
      },
      "ownerOf(uint256)": {
        "details": "See {IERC721-ownerOf}."
      },
      "safeTransferFrom(address,address,uint256)": {
        "details": "See {IERC721-safeTransferFrom}."
      },
      "safeTransferFrom(address,address,uint256,bytes)": {
        "details": "See {IERC721-safeTransferFrom}."
      },
      "setApprovalForAll(address,bool)": {
        "details": "See {IERC721-setApprovalForAll}."
      },
      "supportsInterface(bytes4)": {
        "details": "See {IERC165-supportsInterface}."
      },
      "symbol()": {
        "details": "See {IERC721Metadata-symbol}."
      },
      "tokenByIndex(uint256)": {
        "details": "See {IERC721Enumerable-tokenByIndex}."
      },
      "tokenOfOwnerByIndex(address,uint256)": {
        "details": "See {IERC721Enumerable-tokenOfOwnerByIndex}."
      },
      "tokenURI(uint256)": {
        "details": "See {IERC721Metadata-tokenURI}."
      },
      "totalSupply()": {
        "details": "See {IERC721Enumerable-totalSupply}."
      },
      "transferFrom(address,address,uint256)": {
        "details": "See {IERC721-transferFrom}."
      }
    }
  },
  "userdoc": {
    "methods": {}
  }
}