{
  "contractName": "MintableERC20",
  "abi": [
    {
      "anonymous": false,
      "inputs": [
        {
          "indexed": true,
          "internalType": "address",
          "name": "owner",
          "type": "address"
        },
        {
          "indexed": true,
          "internalType": "address",
          "name": "spender",
          "type": "address"
        },
        {
          "indexed": false,
          "internalType": "uint256",
          "name": "amount",
          "type": "uint256"
        }
      ],
      "name": "Approval",
      "type": "event"
    },
    {
      "anonymous": false,
      "inputs": [
        {
          "indexed": true,
          "internalType": "address",
          "name": "user",
          "type": "address"
        },
        {
          "indexed": false,
          "internalType": "uint256",
          "name": "value",
          "type": "uint256"
        }
      ],
      "name": "Burn",
      "type": "event"
    },
    {
      "anonymous": false,
      "inputs": [
        {
          "indexed": true,
          "internalType": "address",
          "name": "user",
          "type": "address"
        },
        {
          "indexed": false,
          "internalType": "uint256",
          "name": "value",
          "type": "uint256"
        }
      ],
      "name": "Mint",
      "type": "event"
    },
    {
      "anonymous": false,
      "inputs": [
        {
          "indexed": true,
          "internalType": "address",
          "name": "previousOwner",
          "type": "address"
        },
        {
          "indexed": true,
          "internalType": "address",
          "name": "newOwner",
          "type": "address"
        }
      ],
      "name": "OwnershipTransferPrepared",
      "type": "event"
    },
    {
      "anonymous": false,
      "inputs": [
        {
          "indexed": true,
          "internalType": "address",
          "name": "previousOwner",
          "type": "address"
        },
        {
          "indexed": true,
          "internalType": "address",
          "name": "newOwner",
          "type": "address"
        }
      ],
      "name": "OwnershipTransferred",
      "type": "event"
    },
    {
      "anonymous": false,
      "inputs": [
        {
          "indexed": true,
          "internalType": "address",
          "name": "from",
          "type": "address"
        },
        {
          "indexed": true,
          "internalType": "address",
          "name": "to",
          "type": "address"
        },
        {
          "indexed": false,
          "internalType": "uint256",
          "name": "amount",
          "type": "uint256"
        }
      ],
      "name": "Transfer",
      "type": "event"
    },
    {
      "inputs": [],
      "name": "_NEW_OWNER_",
      "outputs": [
        {
          "internalType": "address",
          "name": "",
          "type": "address"
        }
      ],
      "stateMutability": "view",
      "type": "function"
    },
    {
      "inputs": [],
      "name": "_OWNER_",
      "outputs": [
        {
          "internalType": "address",
          "name": "",
          "type": "address"
        }
      ],
      "stateMutability": "view",
      "type": "function"
    },
    {
      "inputs": [
        {
          "internalType": "address",
          "name": "owner",
          "type": "address"
        },
        {
          "internalType": "address",
          "name": "spender",
          "type": "address"
        }
      ],
      "name": "allowance",
      "outputs": [
        {
          "internalType": "uint256",
          "name": "",
          "type": "uint256"
        }
      ],
      "stateMutability": "view",
      "type": "function"
    },
    {
      "inputs": [
        {
          "internalType": "address",
          "name": "spender",
          "type": "address"
        },
        {
          "internalType": "uint256",
          "name": "amount",
          "type": "uint256"
        }
      ],
      "name": "approve",
      "outputs": [
        {
          "internalType": "bool",
          "name": "",
          "type": "bool"
        }
      ],
      "stateMutability": "nonpayable",
      "type": "function"
    },
    {
      "inputs": [
        {
          "internalType": "address",
          "name": "owner",
          "type": "address"
        }
      ],
      "name": "balanceOf",
      "outputs": [
        {
          "internalType": "uint256",
          "name": "balance",
          "type": "uint256"
        }
      ],
      "stateMutability": "view",
      "type": "function"
    },
    {
      "inputs": [
        {
          "internalType": "address",
          "name": "user",
          "type": "address"
        },
        {
          "internalType": "uint256",
          "name": "value",
          "type": "uint256"
        }
      ],
      "name": "burn",
      "outputs": [],
      "stateMutability": "nonpayable",
      "type": "function"
    },
    {
      "inputs": [],
      "name": "claimOwnership",
      "outputs": [],
      "stateMutability": "nonpayable",
      "type": "function"
    },
    {
      "inputs": [],
      "name": "decimals",
      "outputs": [
        {
          "internalType": "uint256",
          "name": "",
          "type": "uint256"
        }
      ],
      "stateMutability": "view",
      "type": "function"
    },
    {
      "inputs": [
        {
          "internalType": "address",
          "name": "_creator",
          "type": "address"
        },
        {
          "internalType": "uint256",
          "name": "_initSupply",
          "type": "uint256"
        },
        {
          "internalType": "string",
          "name": "_name",
          "type": "string"
        },
        {
          "internalType": "string",
          "name": "_symbol",
          "type": "string"
        },
        {
          "internalType": "uint256",
          "name": "_decimals",
          "type": "uint256"
        }
      ],
      "name": "init",
      "outputs": [],
      "stateMutability": "nonpayable",
      "type": "function"
    },
    {
      "inputs": [
        {
          "internalType": "address",
          "name": "newOwner",
          "type": "address"
        }
      ],
      "name": "initOwner",
      "outputs": [],
      "stateMutability": "nonpayable",
      "type": "function"
    },
    {
      "inputs": [
        {
          "internalType": "address",
          "name": "user",
          "type": "address"
        },
        {
          "internalType": "uint256",
          "name": "value",
          "type": "uint256"
        }
      ],
      "name": "mint",
      "outputs": [],
      "stateMutability": "nonpayable",
      "type": "function"
    },
    {
      "inputs": [],
      "name": "name",
      "outputs": [
        {
          "internalType": "string",
          "name": "",
          "type": "string"
        }
      ],
      "stateMutability": "view",
      "type": "function"
    },
    {
      "inputs": [],
      "name": "symbol",
      "outputs": [
        {
          "internalType": "string",
          "name": "",
          "type": "string"
        }
      ],
      "stateMutability": "view",
      "type": "function"
    },
    {
      "inputs": [],
      "name": "totalSupply",
      "outputs": [
        {
          "internalType": "uint256",
          "name": "",
          "type": "uint256"
        }
      ],
      "stateMutability": "view",
      "type": "function"
    },
    {
      "inputs": [
        {
          "internalType": "address",
          "name": "to",
          "type": "address"
        },
        {
          "internalType": "uint256",
          "name": "amount",
          "type": "uint256"
        }
      ],
      "name": "transfer",
      "outputs": [
        {
          "internalType": "bool",
          "name": "",
          "type": "bool"
        }
      ],
      "stateMutability": "nonpayable",
      "type": "function"
    },
    {
      "inputs": [
        {
          "internalType": "address",
          "name": "from",
          "type": "address"
        },
        {
          "internalType": "address",
          "name": "to",
          "type": "address"
        },
        {
          "internalType": "uint256",
          "name": "amount",
          "type": "uint256"
        }
      ],
      "name": "transferFrom",
      "outputs": [
        {
          "internalType": "bool",
          "name": "",
          "type": "bool"
        }
      ],
      "stateMutability": "nonpayable",
      "type": "function"
    },
    {
      "inputs": [
        {
          "internalType": "address",
          "name": "newOwner",
          "type": "address"
        }
      ],
      "name": "transferOwnership",
      "outputs": [],
      "stateMutability": "nonpayable",
      "type": "function"
    }
  ],
  "bytecode": "0x608060405234801561001057600080fd5b5060405162000b3538038062000b358339818101604052606081101561003557600080fd5b810190808051604051939291908464010000000082111561005557600080fd5b90830190602082018581111561006a57600080fd5b825164010000000081118282018810171561008457600080fd5b82525081516020918201929091019080838360005b838110156100b1578181015183820152602001610099565b50505050905090810190601f1680156100de5780820380516001836020036101000a031916815260200191505b506040526020018051604051939291908464010000000082111561010157600080fd5b90830190602082018581111561011657600080fd5b825164010000000081118282018810171561013057600080fd5b82525081516020918201929091019080838360005b8381101561015d578181015183820152602001610145565b50505050905090810190601f16801561018a5780820380516001836020036101000a031916815260200191505b5060405260209081015185519093506101a992506000918601906101da565b5081516101bd9060019060208501906101da565b506002805460ff191660ff92909216919091179055506102759050565b828054600181600116156101000203166002900490600052602060002090601f016020900481019282601f1061021b57805160ff1916838001178555610248565b82800160010185558215610248579182015b8281111561024857825182559160200191906001019061022d565b50610254929150610258565b5090565b61027291905b80821115610254576000815560010161025e565b90565b6108b080620002856000396000f3fe608060405234801561001057600080fd5b50600436106100935760003560e01c806340c10f191161006657806340c10f19146101a957806370a08231146101d757806395d89b411461020f578063a9059cbb14610217578063dd62ed3e1461024357610093565b806306fdde0314610098578063095ea7b31461011557806323b872dd14610155578063313ce5671461018b575b600080fd5b6100a0610271565b6040805160208082528351818301528351919283929083019185019080838360005b838110156100da5781810151838201526020016100c2565b50505050905090810190601f1680156101075780820380516001836020036101000a031916815260200191505b509250505060405180910390f35b6101416004803603604081101561012b57600080fd5b506001600160a01b0381351690602001356102ff565b604080519115158252519081900360200190f35b6101416004803603606081101561016b57600080fd5b506001600160a01b03813581169160208101359091169060400135610365565b610193610596565b6040805160ff9092168252519081900360200190f35b6101d5600480360360408110156101bf57600080fd5b506001600160a01b03813516906020013561059f565b005b6101fd600480360360208110156101ed57600080fd5b50356001600160a01b03166105e8565b60408051918252519081900360200190f35b6100a0610603565b6101416004803603604081101561022d57600080fd5b506001600160a01b03813516906020013561065d565b6101fd6004803603604081101561025957600080fd5b506001600160a01b03813581169160200135166107b9565b6000805460408051602060026001851615610100026000190190941693909304601f810184900484028201840190925281815292918301828280156102f75780601f106102cc576101008083540402835291602001916102f7565b820191906000526020600020905b8154815290600101906020018083116102da57829003601f168201915b505050505081565b3360008181526004602090815260408083206001600160a01b038716808552908352818420869055815186815291519394909390927f8c5be1e5ebec7d5bd14f71427d1e84f3dd0314c0f7b2291e5b200ac8c7c3b925928290030190a350600192915050565b60006001600160a01b0383166103b8576040805162461bcd60e51b8152602060048201526013602482015272544f5f414444524553535f49535f454d50545960681b604482015290519081900360640190fd5b6001600160a01b03841660009081526003602052604090205482111561041a576040805162461bcd60e51b81526020600482015260126024820152710848298829c868abe9c9ea8be8a9c9eaa8e960731b604482015290519081900360640190fd5b6001600160a01b0384166000908152600460209081526040808320338452909152902054821115610489576040805162461bcd60e51b815260206004820152601460248201527308298989eae829c868abe9c9ea8be8a9c9eaa8e960631b604482015290519081900360640190fd5b6001600160a01b0384166000908152600360205260409020546104b2908363ffffffff6107e416565b6001600160a01b0380861660009081526003602052604080822093909355908516815220546104e7908363ffffffff61082d16565b6001600160a01b03808516600090815260036020908152604080832094909455918716815260048252828120338252909152205461052b908363ffffffff6107e416565b6001600160a01b03808616600081815260046020908152604080832033845282529182902094909455805186815290519287169391927fddf252ad1be2c89b69c2b068fc378daa952ba7f163c4a11628f55a4df523b3ef929181900390910190a35060019392505050565b60025460ff1681565b6001600160a01b0382166000908152600360205260409020546105c8908263ffffffff61082d16565b6001600160a01b0390921660009081526003602052604090209190915550565b6001600160a01b031660009081526003602052604090205490565b60018054604080516020600284861615610100026000190190941693909304601f810184900484028201840190925281815292918301828280156102f75780601f106102cc576101008083540402835291602001916102f7565b60006001600160a01b0383166106b0576040805162461bcd60e51b8152602060048201526013602482015272544f5f414444524553535f49535f454d50545960681b604482015290519081900360640190fd5b33600090815260036020526040902054821115610709576040805162461bcd60e51b81526020600482015260126024820152710848298829c868abe9c9ea8be8a9c9eaa8e960731b604482015290519081900360640190fd5b33600090815260036020526040902054610729908363ffffffff6107e416565b33600090815260036020526040808220929092556001600160a01b0385168152205461075b908363ffffffff61082d16565b6001600160a01b0384166000818152600360209081526040918290209390935580518581529051919233927fddf252ad1be2c89b69c2b068fc378daa952ba7f163c4a11628f55a4df523b3ef9281900390910190a350600192915050565b6001600160a01b03918216600090815260046020908152604080832093909416825291909152205490565b600082821115610827576040805162461bcd60e51b815260206004820152600960248201526829aaa12fa2a92927a960b91b604482015290519081900360640190fd5b50900390565b600082820183811015610873576040805162461bcd60e51b815260206004820152600960248201526820a2222fa2a92927a960b91b604482015290519081900360640190fd5b939250505056fea26469706673582212202f258fd807eeff90f8816552511422da22a782f8b59f470572443ec7b079f5b264736f6c63430006090033",
  "immutableReferences": {},
  "source": "/*\n\n    Copyright 2020 DODO ZOO.\n    SPDX-License-Identifier: Apache-2.0\n\n*/\n\npragma solidity 0.6.9;\n\nimport {SafeMath} from \"../../lib/SafeMath.sol\";\n\ncontract MintableERC20 {\n    using SafeMath for uint256;\n\n    string public name;\n    string public symbol;\n    uint8 public decimals;\n\n    mapping(address => uint256) balances;\n    mapping(address => mapping(address => uint256)) internal allowed;\n\n    event Transfer(address indexed from, address indexed to, uint256 amount);\n    event Approval(address indexed owner, address indexed spender, uint256 amount);\n\n    constructor(\n        string memory _name,\n        string memory _symbol,\n        uint8 _decimals\n    ) public {\n        name = _name;\n        symbol = _symbol;\n        decimals = _decimals;\n    }\n\n    function transfer(address to, uint256 amount) public returns (bool) {\n        require(to != address(0), \"TO_ADDRESS_IS_EMPTY\");\n        require(amount <= balances[msg.sender], \"BALANCE_NOT_ENOUGH\");\n\n        balances[msg.sender] = balances[msg.sender].sub(amount);\n        balances[to] = balances[to].add(amount);\n        emit Transfer(msg.sender, to, amount);\n        return true;\n    }\n\n    function balanceOf(address owner) public view returns (uint256 balance) {\n        return balances[owner];\n    }\n\n    function transferFrom(\n        address from,\n        address to,\n        uint256 amount\n    ) public returns (bool) {\n        require(to != address(0), \"TO_ADDRESS_IS_EMPTY\");\n        require(amount <= balances[from], \"BALANCE_NOT_ENOUGH\");\n        require(amount <= allowed[from][msg.sender], \"ALLOWANCE_NOT_ENOUGH\");\n\n        balances[from] = balances[from].sub(amount);\n        balances[to] = balances[to].add(amount);\n        allowed[from][msg.sender] = allowed[from][msg.sender].sub(amount);\n        emit Transfer(from, to, amount);\n        return true;\n    }\n\n    function approve(address spender, uint256 amount) public returns (bool) {\n        allowed[msg.sender][spender] = amount;\n        emit Approval(msg.sender, spender, amount);\n        return true;\n    }\n\n    function allowance(address owner, address spender) public view returns (uint256) {\n        return allowed[owner][spender];\n    }\n\n    function mint(address account, uint256 amount) external {\n        balances[account] = balances[account].add(amount);\n    }\n}\n",
  "sourcePath": "/Users/niutaotao/projects/dodo/contractV2/contracts/external/ERC20/MintableERC20.sol",
  "compiler": {
    "name": "solc",
    "version": "0.6.9+commit.3e3065ac.Emscripten.clang"
  },
  "schemaVersion": "3.3.2",
  "updatedAt": "2021-01-05T07:03:01.184Z",
  "devdoc": {
    "methods": {}
  },
  "userdoc": {
    "methods": {}
  }
}