{
  "contractName": "NFTCollateralVault",
  "abi": [
    {
      "anonymous": false,
      "inputs": [
        {
          "indexed": false,
          "internalType": "address",
          "name": "nftContract",
          "type": "address"
        },
        {
          "indexed": false,
          "internalType": "uint256",
          "name": "tokenId",
          "type": "uint256"
        },
        {
          "indexed": false,
          "internalType": "uint256",
          "name": "amount",
          "type": "uint256"
        }
      ],
      "name": "AddNftToken",
      "type": "event"
    },
    {
      "anonymous": false,
      "inputs": [
        {
          "indexed": true,
          "internalType": "address",
          "name": "previousOwner",
          "type": "address"
        },
        {
          "indexed": true,
          "internalType": "address",
          "name": "newOwner",
          "type": "address"
        }
      ],
      "name": "OwnershipTransferPrepared",
      "type": "event"
    },
    {
      "anonymous": false,
      "inputs": [
        {
          "indexed": true,
          "internalType": "address",
          "name": "previousOwner",
          "type": "address"
        },
        {
          "indexed": true,
          "internalType": "address",
          "name": "newOwner",
          "type": "address"
        }
      ],
      "name": "OwnershipTransferred",
      "type": "event"
    },
    {
      "anonymous": false,
      "inputs": [
        {
          "indexed": false,
          "internalType": "address",
          "name": "nftContract",
          "type": "address"
        },
        {
          "indexed": false,
          "internalType": "uint256",
          "name": "tokenId",
          "type": "uint256"
        },
        {
          "indexed": false,
          "internalType": "uint256",
          "name": "amount",
          "type": "uint256"
        }
      ],
      "name": "RemoveNftToken",
      "type": "event"
    },
    {
      "inputs": [],
      "name": "_NEW_OWNER_",
      "outputs": [
        {
          "internalType": "address",
          "name": "",
          "type": "address"
        }
      ],
      "stateMutability": "view",
      "type": "function"
    },
    {
      "inputs": [],
      "name": "_OWNER_",
      "outputs": [
        {
          "internalType": "address",
          "name": "",
          "type": "address"
        }
      ],
      "stateMutability": "view",
      "type": "function"
    },
    {
      "inputs": [],
      "name": "baseURI",
      "outputs": [
        {
          "internalType": "string",
          "name": "",
          "type": "string"
        }
      ],
      "stateMutability": "view",
      "type": "function"
    },
    {
      "inputs": [],
      "name": "claimOwnership",
      "outputs": [],
      "stateMutability": "nonpayable",
      "type": "function"
    },
    {
      "inputs": [
        {
          "internalType": "address",
          "name": "newOwner",
          "type": "address"
        }
      ],
      "name": "initOwner",
      "outputs": [],
      "stateMutability": "nonpayable",
      "type": "function"
    },
    {
      "inputs": [],
      "name": "name",
      "outputs": [
        {
          "internalType": "string",
          "name": "",
          "type": "string"
        }
      ],
      "stateMutability": "view",
      "type": "function"
    },
    {
      "inputs": [
        {
          "internalType": "address",
          "name": "newOwner",
          "type": "address"
        }
      ],
      "name": "transferOwnership",
      "outputs": [],
      "stateMutability": "nonpayable",
      "type": "function"
    },
    {
      "inputs": [
        {
          "internalType": "address",
          "name": "owner",
          "type": "address"
        },
        {
          "internalType": "string",
          "name": "_name",
          "type": "string"
        },
        {
          "internalType": "string",
          "name": "_baseURI",
          "type": "string"
        }
      ],
      "name": "init",
      "outputs": [],
      "stateMutability": "nonpayable",
      "type": "function"
    },
    {
      "inputs": [
        {
          "internalType": "address",
          "name": "newOwner",
          "type": "address"
        }
      ],
      "name": "directTransferOwnership",
      "outputs": [],
      "stateMutability": "nonpayable",
      "type": "function"
    },
    {
      "inputs": [
        {
          "internalType": "address",
          "name": "nftProxy",
          "type": "address"
        },
        {
          "internalType": "bytes",
          "name": "data",
          "type": "bytes"
        }
      ],
      "name": "createFragment",
      "outputs": [],
      "stateMutability": "nonpayable",
      "type": "function"
    },
    {
      "inputs": [
        {
          "internalType": "address",
          "name": "nftContract",
          "type": "address"
        },
        {
          "internalType": "uint256",
          "name": "tokenId",
          "type": "uint256"
        }
      ],
      "name": "withdrawERC721",
      "outputs": [],
      "stateMutability": "nonpayable",
      "type": "function"
    },
    {
      "inputs": [
        {
          "internalType": "address",
          "name": "nftContract",
          "type": "address"
        },
        {
          "internalType": "uint256[]",
          "name": "tokenIds",
          "type": "uint256[]"
        },
        {
          "internalType": "uint256[]",
          "name": "amounts",
          "type": "uint256[]"
        }
      ],
      "name": "withdrawERC1155",
      "outputs": [],
      "stateMutability": "nonpayable",
      "type": "function"
    },
    {
      "inputs": [
        {
          "internalType": "bytes4",
          "name": "interfaceId",
          "type": "bytes4"
        }
      ],
      "name": "supportsInterface",
      "outputs": [
        {
          "internalType": "bool",
          "name": "",
          "type": "bool"
        }
      ],
      "stateMutability": "view",
      "type": "function"
    },
    {
      "inputs": [
        {
          "internalType": "address",
          "name": "",
          "type": "address"
        },
        {
          "internalType": "address",
          "name": "",
          "type": "address"
        },
        {
          "internalType": "uint256",
          "name": "tokenId",
          "type": "uint256"
        },
        {
          "internalType": "bytes",
          "name": "",
          "type": "bytes"
        }
      ],
      "name": "onERC721Received",
      "outputs": [
        {
          "internalType": "bytes4",
          "name": "",
          "type": "bytes4"
        }
      ],
      "stateMutability": "nonpayable",
      "type": "function"
    },
    {
      "inputs": [
        {
          "internalType": "address",
          "name": "",
          "type": "address"
        },
        {
          "internalType": "address",
          "name": "",
          "type": "address"
        },
        {
          "internalType": "uint256",
          "name": "id",
          "type": "uint256"
        },
        {
          "internalType": "uint256",
          "name": "value",
          "type": "uint256"
        },
        {
          "internalType": "bytes",
          "name": "",
          "type": "bytes"
        }
      ],
      "name": "onERC1155Received",
      "outputs": [
        {
          "internalType": "bytes4",
          "name": "",
          "type": "bytes4"
        }
      ],
      "stateMutability": "nonpayable",
      "type": "function"
    },
    {
      "inputs": [
        {
          "internalType": "address",
          "name": "",
          "type": "address"
        },
        {
          "internalType": "address",
          "name": "",
          "type": "address"
        },
        {
          "internalType": "uint256[]",
          "name": "ids",
          "type": "uint256[]"
        },
        {
          "internalType": "uint256[]",
          "name": "values",
          "type": "uint256[]"
        },
        {
          "internalType": "bytes",
          "name": "",
          "type": "bytes"
        }
      ],
      "name": "onERC1155BatchReceived",
      "outputs": [
        {
          "internalType": "bytes4",
          "name": "",
          "type": "bytes4"
        }
      ],
      "stateMutability": "nonpayable",
      "type": "function"
    }
  ],
  "bytecode": "0x608060405234801561001057600080fd5b506114c8806100206000396000f3fe608060405234801561001057600080fd5b50600436106101005760003560e01c8063a5ceac9911610097578063cef3b6e411610066578063cef3b6e414610685578063f23a6e6114610703578063f2fde38b14610796578063f3e414f8146107bc57610100565b8063a5ceac99146102cc578063b2b45df5146103ff578063bc197c8114610538578063bdd37dc61461065f57610100565b806316048bc4116100d357806316048bc4146102905780634e71e0c8146102b45780636c0360eb146102bc5780638456db15146102c457610100565b806301ffc9a71461010557806306fdde03146101405780630d009297146101bd578063150b7a02146101e5575b600080fd5b61012c6004803603602081101561011b57600080fd5b50356001600160e01b0319166107e8565b604080519115158252519081900360200190f35b61014861081f565b6040805160208082528351818301528351919283929083019185019080838360005b8381101561018257818101518382015260200161016a565b50505050905090810190601f1680156101af5780820380516001836020036101000a031916815260200191505b509250505060405180910390f35b6101e3600480360360208110156101d357600080fd5b50356001600160a01b03166108aa565b005b610273600480360360808110156101fb57600080fd5b6001600160a01b03823581169260208101359091169160408201359190810190608081016060820135600160201b81111561023557600080fd5b82018360208201111561024757600080fd5b803590602001918460018302840111600160201b8311171561026857600080fd5b509092509050610932565b604080516001600160e01b03199092168252519081900360200190f35b610298610988565b604080516001600160a01b039092168252519081900360200190f35b6101e3610997565b610148610a4a565b610298610aa5565b6101e3600480360360608110156102e257600080fd5b6001600160a01b038235169190810190604081016020820135600160201b81111561030c57600080fd5b82018360208201111561031e57600080fd5b803590602001918460208302840111600160201b8311171561033f57600080fd5b9190808060200260200160405190810160405280939291908181526020018383602002808284376000920191909152509295949360208101935035915050600160201b81111561038e57600080fd5b8201836020820111156103a057600080fd5b803590602001918460208302840111600160201b831117156103c157600080fd5b919080806020026020016040519081016040528093929190818152602001838360200280828437600092019190915250929550610ab4945050505050565b6101e36004803603606081101561041557600080fd5b6001600160a01b038235169190810190604081016020820135600160201b81111561043f57600080fd5b82018360208201111561045157600080fd5b803590602001918460018302840111600160201b8311171561047257600080fd5b91908080601f0160208091040260200160405190810160405280939291908181526020018383808284376000920191909152509295949360208101935035915050600160201b8111156104c457600080fd5b8201836020820111156104d657600080fd5b803590602001918460018302840111600160201b831117156104f757600080fd5b91908080601f016020809104026020016040519081016040528093929190818152602001838380828437600092019190915250929550610d51945050505050565b610273600480360360a081101561054e57600080fd5b6001600160a01b038235811692602081013590911691810190606081016040820135600160201b81111561058157600080fd5b82018360208201111561059357600080fd5b803590602001918460208302840111600160201b831117156105b457600080fd5b919390929091602081019035600160201b8111156105d157600080fd5b8201836020820111156105e357600080fd5b803590602001918460208302840111600160201b8311171561060457600080fd5b919390929091602081019035600160201b81111561062157600080fd5b82018360208201111561063357600080fd5b803590602001918460018302840111600160201b8311171561065457600080fd5b509092509050610d81565b6101e36004803603602081101561067557600080fd5b50356001600160a01b0316610e64565b6101e36004803603604081101561069b57600080fd5b6001600160a01b038235169190810190604081016020820135600160201b8111156106c557600080fd5b8201836020820111156106d757600080fd5b803590602001918460018302840111600160201b831117156106f857600080fd5b509092509050610f62565b610273600480360360a081101561071957600080fd5b6001600160a01b03823581169260208101359091169160408201359160608101359181019060a081016080820135600160201b81111561075857600080fd5b82018360208201111561076a57600080fd5b803590602001918460018302840111600160201b8311171561078b57600080fd5b50909250905061116a565b6101e3600480360360208110156107ac57600080fd5b50356001600160a01b03166111c1565b6101e3600480360360408110156107d257600080fd5b506001600160a01b038135169060200135611267565b60006001600160e01b03198216630271189760e51b148061081957506001600160e01b03198216630a85bd0160e11b145b92915050565b6002805460408051602060018416156101000260001901909316849004601f810184900484028201840190925281815292918301828280156108a25780601f10610877576101008083540402835291602001916108a2565b820191906000526020600020905b81548152906001019060200180831161088557829003601f168201915b505050505081565b600154600160a01b900460ff16156108fc576040805162461bcd60e51b815260206004820152601060248201526f1113d113d7d25392551250531256915160821b604482015290519081900360640190fd5b6001805460ff60a01b1916600160a01b179055600080546001600160a01b039092166001600160a01b0319909216919091179055565b604080513381526020810185905260018183015290516000917f5c346ad6f12e0e3f200bf64520b78b1d97fb163ab3efaa4836cbf890eb7e7fbf919081900360600190a150630a85bd0160e11b95945050505050565b6000546001600160a01b031681565b6001546001600160a01b031633146109e6576040805162461bcd60e51b815260206004820152600d60248201526c494e56414c49445f434c41494d60981b604482015290519081900360640190fd5b600154600080546040516001600160a01b0393841693909116917f8be0079c531659141344cd1fd0a4f28419497f9722a3daafe3b4186f6b6457e091a360018054600080546001600160a01b03199081166001600160a01b03841617909155169055565b6003805460408051602060026001851615610100026000190190941693909304601f810184900484028201840190925281815292918301828280156108a25780601f10610877576101008083540402835291602001916108a2565b6001546001600160a01b031681565b6000546001600160a01b03163314610aff576040805162461bcd60e51b81526020600482015260096024820152682727aa2fa7aba722a960b91b604482015290519081900360640190fd5b6001600160a01b038316610b57576040805162461bcd60e51b815260206004820152601a602482015279444f444f4e66745661756c743a205a45524f5f4144445245535360301b604482015290519081900360640190fd5b8051825114610ba0576040805162461bcd60e51b815260206004820152601060248201526f0a082a4829aa6be9c9ea8be9a82a886960831b604482015290519081900360640190fd5b60008054604051631759616b60e11b815230600482018181526001600160a01b039384166024840181905260a060448501908152885160a48601528851958a1696632eb2c2d696949592948a948a949093926064820192608483019260c401916020808a019202908190849084905b83811015610c27578181015183820152602001610c0f565b50505050905001848103835285818151815260200191508051906020019060200280838360005b83811015610c66578181015183820152602001610c4e565b50505050905001848103825260008152602001602001975050505050505050600060405180830381600087803b158015610c9f57600080fd5b505af1158015610cb3573d6000803e3d6000fd5b506000925050505b8251811015610d4b577fe0e454c9aa8acd48d81a74bfc2f6e7246eef4d66efb1dc3dba8db0fb11188f2184848381518110610cf257fe5b6020026020010151848481518110610d0657fe5b602002602001015160405180846001600160a01b03166001600160a01b03168152602001838152602001828152602001935050505060405180910390a1600101610cbb565b50505050565b610d5a836108aa565b8151610d6d9060029060208501906113d4565b508051610d4b9060039060208401906113d4565b6000858414610dca576040805162461bcd60e51b815260206004820152601060248201526f0a082a4829aa6be9c9ea8be9a82a886960831b604482015290519081900360640190fd5b60005b86811015610e4e577f5c346ad6f12e0e3f200bf64520b78b1d97fb163ab3efaa4836cbf890eb7e7fbf33898984818110610e0357fe5b90506020020135888885818110610e1657fe5b604080516001600160a01b039096168652602086810195909552930291909101358383015250519081900360600190a1600101610dcd565b5063bc197c8160e01b9998505050505050505050565b6000546001600160a01b03163314610eaf576040805162461bcd60e51b81526020600482015260096024820152682727aa2fa7aba722a960b91b604482015290519081900360640190fd5b6001600160a01b038116610f07576040805162461bcd60e51b815260206004820152601a602482015279444f444f4e66745661756c743a205a45524f5f4144445245535360301b604482015290519081900360640190fd5b600080546040516001600160a01b03808516939216917f8be0079c531659141344cd1fd0a4f28419497f9722a3daafe3b4186f6b6457e091a3600080546001600160a01b0319166001600160a01b0392909216919091179055565b600154600160a81b900460ff1615610fad576040805162461bcd60e51b815260206004820152600960248201526814915153951490539560ba1b604482015290519081900360640190fd5b6001805460ff60a81b1916600160a81b179055600054336001600160a01b039091161461100d576040805162461bcd60e51b81526020600482015260096024820152682727aa2fa7aba722a960b91b604482015290519081900360640190fd5b6001600160a01b038316611068576040805162461bcd60e51b815260206004820152601b60248201527f444f444f4e66745661756c743a2050524f58595f494e56414c49440000000000604482015290519081900360640190fd5b600080546001600160a01b0319166001600160a01b038516908117825560405184908490808383808284376040519201945060009350909150508083038183865af19150503d80600081146110d9576040519150601f19603f3d011682016040523d82523d6000602084013e6110de565b606091505b505090508061111e5760405162461bcd60e51b81526004018080602001828103825260238152602001806114706023913960400191505060405180910390fd5b600080546040516001600160a01b03808816939216917f8be0079c531659141344cd1fd0a4f28419497f9722a3daafe3b4186f6b6457e091a350506001805460ff60a81b191690555050565b604080513381526020810186905280820185905290516000917f5c346ad6f12e0e3f200bf64520b78b1d97fb163ab3efaa4836cbf890eb7e7fbf919081900360600190a15063f23a6e6160e01b9695505050505050565b6000546001600160a01b0316331461120c576040805162461bcd60e51b81526020600482015260096024820152682727aa2fa7aba722a960b91b604482015290519081900360640190fd5b600080546040516001600160a01b03808516939216917fdcf55418cee3220104fef63f979ff3c4097ad240c0c43dcb33ce837748983e6291a3600180546001600160a01b0319166001600160a01b0392909216919091179055565b6000546001600160a01b031633146112b2576040805162461bcd60e51b81526020600482015260096024820152682727aa2fa7aba722a960b91b604482015290519081900360640190fd5b6001600160a01b03821661130a576040805162461bcd60e51b815260206004820152601a602482015279444f444f4e66745661756c743a205a45524f5f4144445245535360301b604482015290519081900360640190fd5b6000805460408051635c46a7ef60e11b81523060048201526001600160a01b03928316602482015260448101859052608060648201526084810184905290519185169263b88d4fde9260c48084019382900301818387803b15801561136e57600080fd5b505af1158015611382573d6000803e3d6000fd5b5050604080516001600160a01b03861681526020810185905260018183015290517fe0e454c9aa8acd48d81a74bfc2f6e7246eef4d66efb1dc3dba8db0fb11188f219350908190036060019150a15050565b828054600181600116156101000203166002900490600052602060002090601f016020900481019282601f1061141557805160ff1916838001178555611442565b82800160010185558215611442579182015b82811115611442578251825591602001919060010190611427565b5061144e929150611452565b5090565b61146c91905b8082111561144e5760008155600101611458565b9056fe444f444f4e66745661756c743a205452414e534645525f4f574e45525f4641494c4544a264697066735822122066220f0e0baa2a7bc33cd56e4bca21d388aa25128c608ac804f5cfa933f42d2764736f6c63430006090033",
  "immutableReferences": {},
  "source": "/*\n\n    Copyright 2020 DODO ZOO.\n    SPDX-License-Identifier: Apache-2.0\n\n*/\n\npragma solidity 0.6.9;\n\nimport {SafeMath} from \"../../lib/SafeMath.sol\";\nimport {InitializableOwnable} from \"../../lib/InitializableOwnable.sol\";\nimport {IERC721} from \"../../intf/IERC721.sol\";\nimport {IERC721Receiver} from \"../../intf/IERC721Receiver.sol\";\nimport {IERC1155} from \"../../intf/IERC1155.sol\";\nimport {IERC1155Receiver} from \"../../intf/IERC1155Receiver.sol\";\nimport {ReentrancyGuard} from \"../../lib/ReentrancyGuard.sol\";\n\n\ncontract NFTCollateralVault is InitializableOwnable, IERC721Receiver, IERC1155Receiver, ReentrancyGuard {\n    using SafeMath for uint256;\n\n    // ============ Storage ============\n    string public name;\n    string public baseURI;\n\n    function init(\n        address owner,\n        string memory _name,\n        string memory _baseURI\n    ) external {\n        initOwner(owner);\n        name = _name;\n        baseURI = _baseURI;\n    }\n\n    // ============ Event ============\n    event RemoveNftToken(address nftContract, uint256 tokenId, uint256 amount);\n    event AddNftToken(address nftContract, uint256 tokenId, uint256 amount);\n\n\n    // ============ Ownable ============\n    function directTransferOwnership(address newOwner) external onlyOwner {\n        require(newOwner != address(0), \"DODONftVault: ZERO_ADDRESS\");\n        emit OwnershipTransferred(_OWNER_, newOwner);\n        _OWNER_ = newOwner;\n    }\n\n    function createFragment(address nftProxy, bytes calldata data) external preventReentrant onlyOwner {\n        require(nftProxy != address(0), \"DODONftVault: PROXY_INVALID\");\n        _OWNER_ = nftProxy;\n        (bool success,) = nftProxy.call(data);\n        require(success, \"DODONftVault: TRANSFER_OWNER_FAILED\");\n        emit OwnershipTransferred(_OWNER_, nftProxy);\n    }\n\n    function withdrawERC721(address nftContract, uint256 tokenId) external onlyOwner {\n        require(nftContract != address(0), \"DODONftVault: ZERO_ADDRESS\");\n        IERC721(nftContract).safeTransferFrom(address(this), _OWNER_, tokenId, \"\");\n        emit RemoveNftToken(nftContract, tokenId, 1);\n    }\n\n    function withdrawERC1155(address nftContract, uint256[] memory tokenIds, uint256[] memory amounts) external onlyOwner {\n        require(nftContract != address(0), \"DODONftVault: ZERO_ADDRESS\");\n        require(tokenIds.length == amounts.length, \"PARAMS_NOT_MATCH\");\n        IERC1155(nftContract).safeBatchTransferFrom(address(this), _OWNER_, tokenIds, amounts, \"\");\n        for(uint256 i = 0; i < tokenIds.length; i++) {\n            emit RemoveNftToken(nftContract, tokenIds[i], amounts[i]);\n        }\n    }\n\n    function supportsInterface(bytes4 interfaceId) public override view returns (bool) {\n        return interfaceId == type(IERC1155Receiver).interfaceId\n            || interfaceId == type(IERC721Receiver).interfaceId;\n    }\n\n    // ============ Callback ============\n    function onERC721Received(\n        address,\n        address,\n        uint256 tokenId,\n        bytes calldata\n    ) external override returns (bytes4) {\n        emit AddNftToken(msg.sender, tokenId, 1);\n        return IERC721Receiver.onERC721Received.selector;\n    }\n\n    function onERC1155Received(\n        address,\n        address,\n        uint256 id,\n        uint256 value,\n        bytes calldata\n    ) external override returns (bytes4){\n        emit AddNftToken(msg.sender, id, value);\n        return IERC1155Receiver.onERC1155Received.selector;\n    }\n\n    function onERC1155BatchReceived(\n        address,\n        address,\n        uint256[] calldata ids,\n        uint256[] calldata values,\n        bytes calldata\n    ) external override returns (bytes4){\n        require(ids.length == values.length, \"PARAMS_NOT_MATCH\");\n        for(uint256 i = 0; i < ids.length; i++) {\n            emit AddNftToken(msg.sender, ids[i], values[i]);\n        }\n        return IERC1155Receiver.onERC1155BatchReceived.selector;\n    }\n}\n",
  "sourcePath": "/Users/niutaotao/projects/dodo/contractV2/contracts/CollateralVault/impl/NFTCollateralVault.sol",
  "compiler": {
    "name": "solc",
    "version": "0.6.9+commit.3e3065ac.Emscripten.clang"
  },
  "schemaVersion": "3.3.2",
  "updatedAt": "2021-05-12T06:17:15.448Z",
  "devdoc": {
    "methods": {}
  },
  "userdoc": {
    "methods": {}
  }
}