{
  "contractName": "NFTCollateralVault",
  "abi": [
    {
      "anonymous": false,
      "inputs": [
        {
          "indexed": false,
          "internalType": "address",
          "name": "nftContract",
          "type": "address"
        },
        {
          "indexed": false,
          "internalType": "uint256",
          "name": "tokenId",
          "type": "uint256"
        },
        {
          "indexed": false,
          "internalType": "uint256",
          "name": "amount",
          "type": "uint256"
        }
      ],
      "name": "AddNftToken",
      "type": "event"
    },
    {
      "anonymous": false,
      "inputs": [],
      "name": "CreateFragment",
      "type": "event"
    },
    {
      "anonymous": false,
      "inputs": [
        {
          "indexed": true,
          "internalType": "address",
          "name": "previousOwner",
          "type": "address"
        },
        {
          "indexed": true,
          "internalType": "address",
          "name": "newOwner",
          "type": "address"
        }
      ],
      "name": "OwnershipTransferPrepared",
      "type": "event"
    },
    {
      "anonymous": false,
      "inputs": [
        {
          "indexed": true,
          "internalType": "address",
          "name": "previousOwner",
          "type": "address"
        },
        {
          "indexed": true,
          "internalType": "address",
          "name": "newOwner",
          "type": "address"
        }
      ],
      "name": "OwnershipTransferred",
      "type": "event"
    },
    {
      "anonymous": false,
      "inputs": [
        {
          "indexed": false,
          "internalType": "address",
          "name": "nftContract",
          "type": "address"
        },
        {
          "indexed": false,
          "internalType": "uint256",
          "name": "tokenId",
          "type": "uint256"
        },
        {
          "indexed": false,
          "internalType": "uint256",
          "name": "amount",
          "type": "uint256"
        }
      ],
      "name": "RemoveNftToken",
      "type": "event"
    },
    {
      "inputs": [],
      "name": "_NEW_OWNER_",
      "outputs": [
        {
          "internalType": "address",
          "name": "",
          "type": "address"
        }
      ],
      "stateMutability": "view",
      "type": "function"
    },
    {
      "inputs": [],
      "name": "_OWNER_",
      "outputs": [
        {
          "internalType": "address",
          "name": "",
          "type": "address"
        }
      ],
      "stateMutability": "view",
      "type": "function"
    },
    {
      "inputs": [],
      "name": "baseURI",
      "outputs": [
        {
          "internalType": "string",
          "name": "",
          "type": "string"
        }
      ],
      "stateMutability": "view",
      "type": "function"
    },
    {
      "inputs": [],
      "name": "claimOwnership",
      "outputs": [],
      "stateMutability": "nonpayable",
      "type": "function"
    },
    {
      "inputs": [
        {
          "internalType": "address",
          "name": "newOwner",
          "type": "address"
        }
      ],
      "name": "initOwner",
      "outputs": [],
      "stateMutability": "nonpayable",
      "type": "function"
    },
    {
      "inputs": [],
      "name": "name",
      "outputs": [
        {
          "internalType": "string",
          "name": "",
          "type": "string"
        }
      ],
      "stateMutability": "view",
      "type": "function"
    },
    {
      "inputs": [
        {
          "internalType": "uint256",
          "name": "",
          "type": "uint256"
        }
      ],
      "name": "nftInfos",
      "outputs": [
        {
          "internalType": "uint256",
          "name": "tokenId",
          "type": "uint256"
        },
        {
          "internalType": "uint256",
          "name": "amount",
          "type": "uint256"
        },
        {
          "internalType": "address",
          "name": "nftContract",
          "type": "address"
        }
      ],
      "stateMutability": "view",
      "type": "function"
    },
    {
      "inputs": [
        {
          "internalType": "address",
          "name": "newOwner",
          "type": "address"
        }
      ],
      "name": "transferOwnership",
      "outputs": [],
      "stateMutability": "nonpayable",
      "type": "function"
    },
    {
      "inputs": [
        {
          "internalType": "address",
          "name": "owner",
          "type": "address"
        },
        {
          "internalType": "string",
          "name": "_name",
          "type": "string"
        },
        {
          "internalType": "string",
          "name": "_baseURI",
          "type": "string"
        }
      ],
      "name": "init",
      "outputs": [],
      "stateMutability": "nonpayable",
      "type": "function"
    },
    {
      "inputs": [
        {
          "internalType": "address",
          "name": "newOwner",
          "type": "address"
        }
      ],
      "name": "directTransferOwnership",
      "outputs": [],
      "stateMutability": "nonpayable",
      "type": "function"
    },
    {
      "inputs": [
        {
          "internalType": "address",
          "name": "nftProxy",
          "type": "address"
        },
        {
          "internalType": "bytes",
          "name": "data",
          "type": "bytes"
        }
      ],
      "name": "createFragment",
      "outputs": [],
      "stateMutability": "nonpayable",
      "type": "function"
    },
    {
      "inputs": [
        {
          "internalType": "address",
          "name": "nftContract",
          "type": "address"
        },
        {
          "internalType": "uint256",
          "name": "tokenId",
          "type": "uint256"
        }
      ],
      "name": "withdrawERC721",
      "outputs": [],
      "stateMutability": "nonpayable",
      "type": "function"
    },
    {
      "inputs": [
        {
          "internalType": "address",
          "name": "nftContract",
          "type": "address"
        },
        {
          "internalType": "uint256[]",
          "name": "tokenIds",
          "type": "uint256[]"
        },
        {
          "internalType": "uint256[]",
          "name": "amounts",
          "type": "uint256[]"
        }
      ],
      "name": "withdrawERC1155",
      "outputs": [],
      "stateMutability": "nonpayable",
      "type": "function"
    },
    {
      "inputs": [
        {
          "internalType": "uint256",
          "name": "i",
          "type": "uint256"
        }
      ],
      "name": "getNftInfoById",
      "outputs": [
        {
          "internalType": "address",
          "name": "nftContract",
          "type": "address"
        },
        {
          "internalType": "uint256",
          "name": "tokenId",
          "type": "uint256"
        },
        {
          "internalType": "uint256",
          "name": "amount",
          "type": "uint256"
        }
      ],
      "stateMutability": "view",
      "type": "function"
    },
    {
      "inputs": [
        {
          "internalType": "address",
          "name": "nftContract",
          "type": "address"
        },
        {
          "internalType": "uint256",
          "name": "tokenId",
          "type": "uint256"
        }
      ],
      "name": "getIdByTokenIdAndAddr",
      "outputs": [
        {
          "internalType": "uint256",
          "name": "",
          "type": "uint256"
        }
      ],
      "stateMutability": "view",
      "type": "function"
    },
    {
      "inputs": [
        {
          "internalType": "bytes4",
          "name": "interfaceId",
          "type": "bytes4"
        }
      ],
      "name": "supportsInterface",
      "outputs": [
        {
          "internalType": "bool",
          "name": "",
          "type": "bool"
        }
      ],
      "stateMutability": "view",
      "type": "function"
    },
    {
      "inputs": [
        {
          "internalType": "address",
          "name": "",
          "type": "address"
        },
        {
          "internalType": "address",
          "name": "",
          "type": "address"
        },
        {
          "internalType": "uint256",
          "name": "tokenId",
          "type": "uint256"
        },
        {
          "internalType": "bytes",
          "name": "",
          "type": "bytes"
        }
      ],
      "name": "onERC721Received",
      "outputs": [
        {
          "internalType": "bytes4",
          "name": "",
          "type": "bytes4"
        }
      ],
      "stateMutability": "nonpayable",
      "type": "function"
    },
    {
      "inputs": [
        {
          "internalType": "address",
          "name": "",
          "type": "address"
        },
        {
          "internalType": "address",
          "name": "",
          "type": "address"
        },
        {
          "internalType": "uint256",
          "name": "id",
          "type": "uint256"
        },
        {
          "internalType": "uint256",
          "name": "value",
          "type": "uint256"
        },
        {
          "internalType": "bytes",
          "name": "",
          "type": "bytes"
        }
      ],
      "name": "onERC1155Received",
      "outputs": [
        {
          "internalType": "bytes4",
          "name": "",
          "type": "bytes4"
        }
      ],
      "stateMutability": "nonpayable",
      "type": "function"
    },
    {
      "inputs": [
        {
          "internalType": "address",
          "name": "",
          "type": "address"
        },
        {
          "internalType": "address",
          "name": "",
          "type": "address"
        },
        {
          "internalType": "uint256[]",
          "name": "ids",
          "type": "uint256[]"
        },
        {
          "internalType": "uint256[]",
          "name": "values",
          "type": "uint256[]"
        },
        {
          "internalType": "bytes",
          "name": "",
          "type": "bytes"
        }
      ],
      "name": "onERC1155BatchReceived",
      "outputs": [
        {
          "internalType": "bytes4",
          "name": "",
          "type": "bytes4"
        }
      ],
      "stateMutability": "nonpayable",
      "type": "function"
    }
  ],
  "bytecode": "0x608060405234801561001057600080fd5b50611985806100206000396000f3fe608060405234801561001057600080fd5b50600436106101215760003560e01c80638456db15116100ad578063bdd37dc611610071578063bdd37dc614610747578063cef3b6e41461076d578063f23a6e61146107eb578063f2fde38b1461087e578063f3e414f8146108a457610121565b80638456db151461036e5780638e16ac4314610376578063a5ceac99146103b4578063b2b45df5146104e7578063bc197c811461062057610121565b8063150b7a02116100f4578063150b7a021461024b57806316048bc4146102f65780634bc834eb1461031a5780634e71e0c81461035e5780636c0360eb1461036657610121565b806301ffc9a71461012657806306fdde03146101615780630942ab35146101de5780630d00929714610223575b600080fd5b61014d6004803603602081101561013c57600080fd5b50356001600160e01b0319166108d0565b604080519115158252519081900360200190f35b610169610907565b6040805160208082528351818301528351919283929083019185019080838360005b838110156101a357818101518382015260200161018b565b50505050905090810190601f1680156101d05780820380516001836020036101000a031916815260200191505b509250505060405180910390f35b6101fb600480360360208110156101f457600080fd5b5035610992565b604080516001600160a01b039094168452602084019290925282820152519081900360600190f35b6102496004803603602081101561023957600080fd5b50356001600160a01b0316610a44565b005b6102d96004803603608081101561026157600080fd5b6001600160a01b03823581169260208101359091169160408201359190810190608081016060820135600160201b81111561029b57600080fd5b8201836020820111156102ad57600080fd5b803590602001918460018302840111600160201b831117156102ce57600080fd5b509092509050610acc565b604080516001600160e01b03199092168252519081900360200190f35b6102fe610aec565b604080516001600160a01b039092168252519081900360200190f35b6103376004803603602081101561033057600080fd5b5035610afb565b6040805193845260208401929092526001600160a01b031682820152519081900360600190f35b610249610b34565b610169610be7565b6102fe610c42565b6103a26004803603604081101561038c57600080fd5b506001600160a01b038135169060200135610c51565b60408051918252519081900360200190f35b610249600480360360608110156103ca57600080fd5b6001600160a01b038235169190810190604081016020820135600160201b8111156103f457600080fd5b82018360208201111561040657600080fd5b803590602001918460208302840111600160201b8311171561042757600080fd5b9190808060200260200160405190810160405280939291908181526020018383602002808284376000920191909152509295949360208101935035915050600160201b81111561047657600080fd5b82018360208201111561048857600080fd5b803590602001918460208302840111600160201b831117156104a957600080fd5b919080806020026020016040519081016040528093929190818152602001838360200280828437600092019190915250929550610d12945050505050565b610249600480360360608110156104fd57600080fd5b6001600160a01b038235169190810190604081016020820135600160201b81111561052757600080fd5b82018360208201111561053957600080fd5b803590602001918460018302840111600160201b8311171561055a57600080fd5b91908080601f0160208091040260200160405190810160405280939291908181526020018383808284376000920191909152509295949360208101935035915050600160201b8111156105ac57600080fd5b8201836020820111156105be57600080fd5b803590602001918460018302840111600160201b831117156105df57600080fd5b91908080601f016020809104026020016040519081016040528093929190818152602001838380828437600092019190915250929550610f08945050505050565b6102d9600480360360a081101561063657600080fd5b6001600160a01b038235811692602081013590911691810190606081016040820135600160201b81111561066957600080fd5b82018360208201111561067b57600080fd5b803590602001918460208302840111600160201b8311171561069c57600080fd5b919390929091602081019035600160201b8111156106b957600080fd5b8201836020820111156106cb57600080fd5b803590602001918460208302840111600160201b831117156106ec57600080fd5b919390929091602081019035600160201b81111561070957600080fd5b82018360208201111561071b57600080fd5b803590602001918460018302840111600160201b8311171561073c57600080fd5b509092509050610f3e565b6102496004803603602081101561075d57600080fd5b50356001600160a01b0316610fdf565b6102496004803603604081101561078357600080fd5b6001600160a01b038235169190810190604081016020820135600160201b8111156107ad57600080fd5b8201836020820111156107bf57600080fd5b803590602001918460018302840111600160201b831117156107e057600080fd5b509092509050611078565b6102d9600480360360a081101561080157600080fd5b6001600160a01b03823581169260208101359091169160408201359160608101359181019060a081016080820135600160201b81111561084057600080fd5b82018360208201111561085257600080fd5b803590602001918460018302840111600160201b8311171561087357600080fd5b50909250905061123c565b6102496004803603602081101561089457600080fd5b50356001600160a01b031661125c565b610249600480360360408110156108ba57600080fd5b506001600160a01b038135169060200135611302565b60006001600160e01b03198216630271189760e51b148061090157506001600160e01b03198216630a85bd0160e11b145b92915050565b6002805460408051602060018416156101000260001901909316849004601f8101849004840282018401909252818152929183018282801561098a5780601f1061095f5761010080835404028352916020019161098a565b820191906000526020600020905b81548152906001019060200180831161096d57829003601f168201915b505050505081565b600080600060048054905084106109de576040805162461bcd60e51b815260206004820152600b60248201526a49445f4f564552464c4f5760a81b604482015290519081900360640190fd5b6109e6611867565b600485815481106109f357fe5b6000918252602091829020604080516060810182526003909302909101805480845260018201549484018590526002909101546001600160a01b031692909101829052909790965090945092505050565b600154600160a01b900460ff1615610a96576040805162461bcd60e51b815260206004820152601060248201526f1113d113d7d25392551250531256915160821b604482015290519081900360640190fd5b6001805460ff60a01b1916600160a01b179055600080546001600160a01b039092166001600160a01b0319909216919091179055565b6000610ada338560016113d9565b50630a85bd0160e11b95945050505050565b6000546001600160a01b031681565b60048181548110610b0857fe5b60009182526020909120600390910201805460018201546002909201549092506001600160a01b031683565b6001546001600160a01b03163314610b83576040805162461bcd60e51b815260206004820152600d60248201526c494e56414c49445f434c41494d60981b604482015290519081900360640190fd5b600154600080546040516001600160a01b0393841693909116917f8be0079c531659141344cd1fd0a4f28419497f9722a3daafe3b4186f6b6457e091a360018054600080546001600160a01b03199081166001600160a01b03841617909155169055565b6003805460408051602060026001851615610100026000190190941693909304601f8101849004840282018401909252818152929183018282801561098a5780601f1061095f5761010080835404028352916020019161098a565b6001546001600160a01b031681565b600454600090815b81811015610ccf5760048181548110610c6e57fe5b60009182526020909120600260039092020101546001600160a01b038681169116148015610cb9575060048181548110610ca457fe5b90600052602060002090600302016000015484145b15610cc75791506109019050565b600101610c59565b506040805162461bcd60e51b81526020600482015260126024820152711513d2d15397d25117d393d517d193d5539160721b604482015290519081900360640190fd5b6000546001600160a01b03163314610d5d576040805162461bcd60e51b81526020600482015260096024820152682727aa2fa7aba722a960b91b604482015290519081900360640190fd5b8051825114610da6576040805162461bcd60e51b815260206004820152601060248201526f0a082a4829aa6be9c9ea8be9a82a886960831b604482015290519081900360640190fd5b60005b8251811015610deb57610de384848381518110610dc257fe5b6020026020010151848481518110610dd657fe5b60200260200101516115f4565b600101610da9565b5060008054604051631759616b60e11b815230600482018181526001600160a01b039384166024840181905260a060448501908152885160a48601528851958a1696632eb2c2d696949592948a948a949093926064820192608483019260c401916020808a019202908190849084905b83811015610e73578181015183820152602001610e5b565b50505050905001848103835285818151815260200191508051906020019060200280838360005b83811015610eb2578181015183820152602001610e9a565b50505050905001848103825260008152602001602001975050505050505050600060405180830381600087803b158015610eeb57600080fd5b505af1158015610eff573d6000803e3d6000fd5b50505050505050565b610f1183610a44565b8151610f24906002906020850190611891565b508051610f38906003906020840190611891565b50505050565b6000858414610f87576040805162461bcd60e51b815260206004820152601060248201526f0a082a4829aa6be9c9ea8be9a82a886960831b604482015290519081900360640190fd5b60005b86811015610fc957610fc133898984818110610fa257fe5b90506020020135888885818110610fb557fe5b905060200201356113d9565b600101610f8a565b5063bc197c8160e01b9998505050505050505050565b6000546001600160a01b0316331461102a576040805162461bcd60e51b81526020600482015260096024820152682727aa2fa7aba722a960b91b604482015290519081900360640190fd5b600080546001600160a01b0319166001600160a01b0383811691821780845560405192939116917f8be0079c531659141344cd1fd0a4f28419497f9722a3daafe3b4186f6b6457e09190a350565b6000546001600160a01b031633146110c3576040805162461bcd60e51b81526020600482015260096024820152682727aa2fa7aba722a960b91b604482015290519081900360640190fd5b6001600160a01b03831661111e576040805162461bcd60e51b815260206004820152601b60248201527f444f444f4e66745661756c743a2050524f58595f494e56414c49440000000000604482015290519081900360640190fd5b600080546001600160a01b0319166001600160a01b038516908117825560405184908490808383808284376040519201945060009350909150508083038183865af19150503d806000811461118f576040519150601f19603f3d011682016040523d82523d6000602084013e611194565b606091505b50509050806111d45760405162461bcd60e51b815260040180806020018281038252602381526020018061192d6023913960400191505060405180910390fd5b600080546040516001600160a01b03808816939216917f8be0079c531659141344cd1fd0a4f28419497f9722a3daafe3b4186f6b6457e091a36040517f76b5e739b5fc495a86d03a754086a705d09591bccf94e4722786e36bef8d885d90600090a150505050565b60006112493386866113d9565b5063f23a6e6160e01b9695505050505050565b6000546001600160a01b031633146112a7576040805162461bcd60e51b81526020600482015260096024820152682727aa2fa7aba722a960b91b604482015290519081900360640190fd5b600080546040516001600160a01b03808516939216917fdcf55418cee3220104fef63f979ff3c4097ad240c0c43dcb33ce837748983e6291a3600180546001600160a01b0319166001600160a01b0392909216919091179055565b6000546001600160a01b0316331461134d576040805162461bcd60e51b81526020600482015260096024820152682727aa2fa7aba722a960b91b604482015290519081900360640190fd5b611359828260016115f4565b6000805460408051635c46a7ef60e11b81523060048201526001600160a01b03928316602482015260448101859052608060648201526084810184905290519185169263b88d4fde9260c48084019382900301818387803b1580156113bd57600080fd5b505af11580156113d1573d6000803e3d6000fd5b505050505050565b60045460005b818110156114e9576113ef611867565b600482815481106113fc57fe5b6000918252602091829020604080516060810182526003909302909101805483526001810154938301939093526002909201546001600160a01b0390811692820183905290925087161480156114525750805185145b156114e057602081015161146c908563ffffffff6117d116565b6004838154811061147957fe5b600091825260209182902060016003909202010191909155604080516001600160a01b0389168152918201879052818101869052517f5c346ad6f12e0e3f200bf64520b78b1d97fb163ab3efaa4836cbf890eb7e7fbf9181900360600190a15050506115ef565b506001016113df565b50604080516060808201835285825260208083018681526001600160a01b038981168587018181526004805460018101825560009190915296517f8a35acfbc15ff81a39ae7d344fd709f28e8600b4aa8c65c6b64bfe7fe36bd19b60039098029788015592517f8a35acfbc15ff81a39ae7d344fd709f28e8600b4aa8c65c6b64bfe7fe36bd19c87015591517f8a35acfbc15ff81a39ae7d344fd709f28e8600b4aa8c65c6b64bfe7fe36bd19d90950180546001600160a01b03191695909116949094179093558351928352820186905281830185905291517f5c346ad6f12e0e3f200bf64520b78b1d97fb163ab3efaa4836cbf890eb7e7fbf929181900390910190a1505b505050565b60045460005b818110156117ca5761160a611867565b6004828154811061161757fe5b6000918252602091829020604080516060810182526003909302909101805483526001810154938301939093526002909201546001600160a01b03908116928201839052909250871614801561166d5750805185145b156117c1578060200151841061173a576001830382146116f7576004600184038154811061169757fe5b9060005260206000209060030201600483815481106116b257fe5b60009182526020909120825460039092020190815560018083015490820155600291820154910180546001600160a01b0319166001600160a01b039092169190911790555b600480548061170257fe5b600082815260208120600360001990930192830201818155600181019190915560020180546001600160a01b03191690559055611772565b602081015161174f908563ffffffff61181e16565b6004838154811061175c57fe5b9060005260206000209060030201600101819055505b604080516001600160a01b03881681526020810187905280820186905290517fe0e454c9aa8acd48d81a74bfc2f6e7246eef4d66efb1dc3dba8db0fb11188f219181900360600190a1506117ca565b506001016115fa565b5050505050565b600082820183811015611817576040805162461bcd60e51b815260206004820152600960248201526820a2222fa2a92927a960b91b604482015290519081900360640190fd5b9392505050565b600082821115611861576040805162461bcd60e51b815260206004820152600960248201526829aaa12fa2a92927a960b91b604482015290519081900360640190fd5b50900390565b6040518060600160405280600081526020016000815260200160006001600160a01b031681525090565b828054600181600116156101000203166002900490600052602060002090601f016020900481019282601f106118d257805160ff19168380011785556118ff565b828001600101855582156118ff579182015b828111156118ff5782518255916020019190600101906118e4565b5061190b92915061190f565b5090565b61192991905b8082111561190b5760008155600101611915565b9056fe444f444f4e66745661756c743a205452414e534645525f4f574e45525f4641494c4544a2646970667358221220a8865d854338c423b0f6dde1f90b9a670dea308d598ad3f56f30aa430fbfb0f064736f6c63430006090033",
  "immutableReferences": {},
  "source": "/*\n\n    Copyright 2020 DODO ZOO.\n    SPDX-License-Identifier: Apache-2.0\n\n*/\n\npragma solidity 0.6.9;\n\nimport {SafeMath} from \"../../lib/SafeMath.sol\";\nimport {InitializableOwnable} from \"../../lib/InitializableOwnable.sol\";\nimport {IERC721} from \"../../intf/IERC721.sol\";\nimport {IERC721Receiver} from \"../../intf/IERC721Receiver.sol\";\nimport {IERC1155} from \"../../intf/IERC1155.sol\";\nimport {IERC1155Receiver} from \"../../intf/IERC1155Receiver.sol\";\n\n\ncontract NFTCollateralVault is InitializableOwnable, IERC721Receiver, IERC1155Receiver {\n    using SafeMath for uint256;\n\n    // ============ Storage ============\n    string public name;\n    string public baseURI;\n\n    struct NftInfo {\n        uint256 tokenId; \n        uint256 amount;\n        address nftContract;\n    }\n    NftInfo[] public nftInfos;\n\n    function init(\n        address owner,\n        string memory _name,\n        string memory _baseURI\n    ) external {\n        initOwner(owner);\n        name = _name;\n        baseURI = _baseURI;\n    }\n\n    // ============ Event ============\n    event RemoveNftToken(address nftContract, uint256 tokenId, uint256 amount);\n    event AddNftToken(address nftContract, uint256 tokenId, uint256 amount);\n    event CreateFragment();\n\n\n    // ============ Ownable ============\n    function directTransferOwnership(address newOwner) external onlyOwner {\n        _OWNER_ = newOwner;\n        emit OwnershipTransferred(_OWNER_, newOwner);\n    }\n\n    function createFragment(address nftProxy, bytes calldata data) external onlyOwner {\n        require(nftProxy != address(0), \"DODONftVault: PROXY_INVALID\");\n        _OWNER_ = nftProxy;\n        (bool success, ) = nftProxy.call(data);\n        require(success, \"DODONftVault: TRANSFER_OWNER_FAILED\");\n        emit OwnershipTransferred(_OWNER_, nftProxy);\n        emit CreateFragment();\n    }\n\n    function withdrawERC721(address nftContract, uint256 tokenId) external onlyOwner {\n        _removeNftInfo(nftContract, tokenId, 1);\n        IERC721(nftContract).safeTransferFrom(address(this), _OWNER_, tokenId, \"\");\n    }\n\n    function withdrawERC1155(address nftContract, uint256[] memory tokenIds, uint256[] memory amounts) external onlyOwner {\n        require(tokenIds.length == amounts.length, \"PARAMS_NOT_MATCH\");\n        for(uint256 i = 0; i < tokenIds.length; i++) {\n            _removeNftInfo(nftContract, tokenIds[i], amounts[i]);\n        }\n        IERC1155(nftContract).safeBatchTransferFrom(address(this), _OWNER_, tokenIds, amounts, \"\");\n    }\n\n    // ============ View ============\n    \n    function getNftInfoById(uint256 i) external view returns (address nftContract, uint256 tokenId, uint256 amount) {\n        require(i < nftInfos.length, \"ID_OVERFLOW\");\n        NftInfo memory ni = nftInfos[i];\n        nftContract = ni.nftContract;\n        tokenId = ni.tokenId;\n        amount = ni.amount;\n    }\n\n    function getIdByTokenIdAndAddr(address nftContract, uint256 tokenId) external view returns(uint256) {\n        uint256 len = nftInfos.length;\n        for (uint256 i = 0; i < len; i++) {\n            if (nftContract == nftInfos[i].nftContract && tokenId == nftInfos[i].tokenId) {\n                return i;\n            }\n        }\n        require(false, \"TOKEN_ID_NOT_FOUND\");\n    }\n\n    function supportsInterface(bytes4 interfaceId) public override view returns (bool) {\n        return interfaceId == type(IERC1155Receiver).interfaceId\n            || interfaceId == type(IERC721Receiver).interfaceId;\n    }\n\n    // ============ Callback ============\n    function onERC721Received(\n        address,\n        address,\n        uint256 tokenId,\n        bytes calldata\n    ) external override returns (bytes4) {\n        _addNftInfo(msg.sender, tokenId, 1);\n        return IERC721Receiver.onERC721Received.selector;\n    }\n\n    function onERC1155Received(\n        address,\n        address,\n        uint256 id,\n        uint256 value,\n        bytes calldata\n    ) external override returns (bytes4){\n        _addNftInfo(msg.sender, id, value);\n        return IERC1155Receiver.onERC1155Received.selector;\n    }\n\n    function onERC1155BatchReceived(\n        address,\n        address,\n        uint256[] calldata ids,\n        uint256[] calldata values,\n        bytes calldata\n    ) external override returns (bytes4){\n        require(ids.length == values.length, \"PARAMS_NOT_MATCH\");\n        for(uint256 i = 0; i < ids.length; i++) {\n            _addNftInfo(msg.sender, ids[i], values[i]);\n        }\n        return IERC1155Receiver.onERC1155BatchReceived.selector;\n    }\n\n    // ========== internal ===============\n    function _addNftInfo(address nftContract, uint256 tokenId, uint256 addAmount) internal {\n        uint256 len = nftInfos.length;\n        for(uint256 i = 0; i < len; i++) {\n            NftInfo memory nftInfo = nftInfos[i];\n            if (nftContract == nftInfo.nftContract && tokenId == nftInfo.tokenId) {\n                nftInfos[i].amount = nftInfo.amount.add(addAmount);\n                emit AddNftToken(nftContract, tokenId, addAmount);\n                return;\n            }\n        }\n        nftInfos.push(\n            NftInfo({   \n                tokenId: tokenId,\n                amount: addAmount,\n                nftContract: nftContract\n            })\n        );\n        emit AddNftToken(nftContract, tokenId, addAmount);\n    }\n\n    function _removeNftInfo(address nftContract, uint256 tokenId, uint256 removeAmount) internal {\n        uint256 len = nftInfos.length;\n        for (uint256 i = 0; i < len; i++) {\n            NftInfo memory nftInfo = nftInfos[i];\n            if (nftContract == nftInfo.nftContract && tokenId == nftInfo.tokenId) {\n                if(removeAmount >= nftInfo.amount) {\n                    if(i != len - 1) {\n                        nftInfos[i] = nftInfos[len - 1];\n                    }\n                    nftInfos.pop();\n                }else {\n                    nftInfos[i].amount = nftInfo.amount.sub(removeAmount);\n                }\n                emit RemoveNftToken(nftContract, tokenId, removeAmount);\n                break;\n            }\n        }\n    }\n}\n",
  "sourcePath": "/Users/niutaotao/projects/dodo/contractV2/contracts/CollateralVault/impl/NFTCollateralVault.sol",
  "compiler": {
    "name": "solc",
    "version": "0.6.9+commit.3e3065ac.Emscripten.clang"
  },
  "schemaVersion": "3.3.2",
  "updatedAt": "2021-04-07T16:20:50.913Z",
  "devdoc": {
    "methods": {}
  },
  "userdoc": {
    "methods": {}
  }
}