{
  "contractName": "NFTTokenFactory",
  "abi": [
    {
      "inputs": [
        {
          "internalType": "address",
          "name": "cloneFactory",
          "type": "address"
        },
        {
          "internalType": "address",
          "name": "erc721Template",
          "type": "address"
        },
        {
          "internalType": "address",
          "name": "erc1155Tempalte",
          "type": "address"
        }
      ],
      "stateMutability": "nonpayable",
      "type": "constructor"
    },
    {
      "anonymous": false,
      "inputs": [
        {
          "indexed": false,
          "internalType": "address",
          "name": "erc1155",
          "type": "address"
        },
        {
          "indexed": false,
          "internalType": "address",
          "name": "creator",
          "type": "address"
        }
      ],
      "name": "NewERC1155",
      "type": "event"
    },
    {
      "anonymous": false,
      "inputs": [
        {
          "indexed": false,
          "internalType": "address",
          "name": "erc721",
          "type": "address"
        },
        {
          "indexed": false,
          "internalType": "address",
          "name": "creator",
          "type": "address"
        }
      ],
      "name": "NewERC721",
      "type": "event"
    },
    {
      "inputs": [],
      "name": "_CLONE_FACTORY_",
      "outputs": [
        {
          "internalType": "address",
          "name": "",
          "type": "address"
        }
      ],
      "stateMutability": "view",
      "type": "function"
    },
    {
      "inputs": [],
      "name": "_ERC1155_TEMPLATE_",
      "outputs": [
        {
          "internalType": "address",
          "name": "",
          "type": "address"
        }
      ],
      "stateMutability": "view",
      "type": "function"
    },
    {
      "inputs": [],
      "name": "_ERC721_TEMPLATE_",
      "outputs": [
        {
          "internalType": "address",
          "name": "",
          "type": "address"
        }
      ],
      "stateMutability": "view",
      "type": "function"
    },
    {
      "inputs": [
        {
          "internalType": "address",
          "name": "",
          "type": "address"
        },
        {
          "internalType": "uint256",
          "name": "",
          "type": "uint256"
        }
      ],
      "name": "_USER_ERC1155_REGISTRY_",
      "outputs": [
        {
          "internalType": "address",
          "name": "",
          "type": "address"
        }
      ],
      "stateMutability": "view",
      "type": "function"
    },
    {
      "inputs": [
        {
          "internalType": "address",
          "name": "",
          "type": "address"
        },
        {
          "internalType": "uint256",
          "name": "",
          "type": "uint256"
        }
      ],
      "name": "_USER_ERC721_REGISTRY_",
      "outputs": [
        {
          "internalType": "address",
          "name": "",
          "type": "address"
        }
      ],
      "stateMutability": "view",
      "type": "function"
    },
    {
      "inputs": [
        {
          "internalType": "string",
          "name": "baseUrl",
          "type": "string"
        }
      ],
      "name": "createERC721",
      "outputs": [
        {
          "internalType": "address",
          "name": "newERC721",
          "type": "address"
        }
      ],
      "stateMutability": "nonpayable",
      "type": "function"
    },
    {
      "inputs": [
        {
          "internalType": "uint256",
          "name": "amount",
          "type": "uint256"
        },
        {
          "internalType": "string",
          "name": "baseUrl",
          "type": "string"
        }
      ],
      "name": "createERC1155",
      "outputs": [
        {
          "internalType": "address",
          "name": "newERC1155",
          "type": "address"
        }
      ],
      "stateMutability": "nonpayable",
      "type": "function"
    },
    {
      "inputs": [
        {
          "internalType": "address",
          "name": "user",
          "type": "address"
        }
      ],
      "name": "getERC721TokenByUser",
      "outputs": [
        {
          "internalType": "address[]",
          "name": "tokens",
          "type": "address[]"
        }
      ],
      "stateMutability": "view",
      "type": "function"
    }
  ],
  "bytecode": "0x60e060405234801561001057600080fd5b5060405161097438038061097483398101604081905261002f91610056565b6001600160601b0319606093841b811660805291831b821660a05290911b1660c0526100ba565b60008060006060848603121561006a578283fd5b8351610075816100a2565b6020850151909350610086816100a2565b6040850151909250610097816100a2565b809150509250925092565b6001600160a01b03811681146100b757600080fd5b50565b60805160601c60a05160601c60c05160601c6108716101036000398061012952806103c152508061014d52806101b65250806101895280610394528061056252506108716000f3fe608060405234801561001057600080fd5b50600436106100885760003560e01c8063c53fb49e1161005b578063c53fb49e146100e6578063cca10ad0146100f9578063cd4006321461010c578063eb774d051461011f57610088565b80637a61dd681461008d57806380d93c6c146100ab57806385bcb3e9146100b3578063acd348f7146100c6575b600080fd5b610095610127565b6040516100a29190610751565b60405180910390f35b61009561014b565b6100956100c136600461066c565b61016f565b6100d96100d4366004610602565b610306565b6040516100a2919061077f565b6100956100f43660046106a7565b61037a565b610095610107366004610641565b610512565b61009561011a366004610641565b610547565b610095610560565b7f000000000000000000000000000000000000000000000000000000000000000081565b7f000000000000000000000000000000000000000000000000000000000000000081565b6040516340925bc760e11b81526000906001600160a01b037f00000000000000000000000000000000000000000000000000000000000000001690638124b78e906101de907f000000000000000000000000000000000000000000000000000000000000000090600401610751565b602060405180830381600087803b1580156101f857600080fd5b505af115801561020c573d6000803e3d6000fd5b505050506040513d601f19601f820116820180604052508101906102309190610625565b60405163020f230d60e51b81529091506001600160a01b038216906341e461a09061025f9085906004016107cc565b600060405180830381600087803b15801561027957600080fd5b505af115801561028d573d6000803e3d6000fd5b5050336000818152602081815260408083208054600181018255908452919092200180546001600160a01b0319166001600160a01b038716179055517f02cbfd74534cb6cda369829b2c6e28af51c0b3c49e07b930169be360f045477b93506102f99250849190610765565b60405180910390a1919050565b6001600160a01b0381166000908152602081815260409182902080548351818402810184019094528084526060939283018282801561036e57602002820191906000526020600020905b81546001600160a01b03168152600190910190602001808311610350575b50505050509050919050565b6040516340925bc760e11b81526000906001600160a01b037f00000000000000000000000000000000000000000000000000000000000000001690638124b78e906103e9907f000000000000000000000000000000000000000000000000000000000000000090600401610751565b602060405180830381600087803b15801561040357600080fd5b505af1158015610417573d6000803e3d6000fd5b505050506040513d601f19601f8201168201806040525081019061043b9190610625565b6040516304dd8c1160e31b81529091506001600160a01b038216906326ec60889061046c908690869060040161080a565b600060405180830381600087803b15801561048657600080fd5b505af115801561049a573d6000803e3d6000fd5b505033600081815260016020818152604080842080549384018155845292200180546001600160a01b0319166001600160a01b038716179055517ff565798798eaa0be2182657f7e41d45f9591a0113bbe9af203cb91f6bd376a4193506105049250849190610765565b60405180910390a192915050565b6001602052816000526040600020818154811061052b57fe5b6000918252602090912001546001600160a01b03169150829050565b6000602052816000526040600020818154811061052b57fe5b7f000000000000000000000000000000000000000000000000000000000000000081565b600082601f830112610594578081fd5b813567ffffffffffffffff808211156105ab578283fd5b604051601f8301601f1916810160200182811182821017156105cb578485fd5b6040528281529250828483016020018610156105e657600080fd5b8260208601602083013760006020848301015250505092915050565b600060208284031215610613578081fd5b813561061e81610823565b9392505050565b600060208284031215610636578081fd5b815161061e81610823565b60008060408385031215610653578081fd5b823561065e81610823565b946020939093013593505050565b60006020828403121561067d578081fd5b813567ffffffffffffffff811115610693578182fd5b61069f84828501610584565b949350505050565b600080604083850312156106b9578182fd5b82359150602083013567ffffffffffffffff8111156106d6578182fd5b6106e285828601610584565b9150509250929050565b60008151808452815b81811015610711576020818501810151868301820152016106f5565b818111156107225782602083870101525b50601f01601f19169290920160200192915050565b60078152661113d113d3919560ca1b602082015260400190565b6001600160a01b0391909116815260200190565b6001600160a01b0392831681529116602082015260400190565b6020808252825182820181905260009190848201906040850190845b818110156107c05783516001600160a01b03168352928401929184019160010161079b565b50909695505050505050565b6000606082526107de60608301610737565b82810360208401526107ef81610737565b838103604085015261080181866106ec565b95945050505050565b60008382526040602083015261069f60408301846106ec565b6001600160a01b038116811461083857600080fd5b5056fea26469706673582212207bba428ccc8e0efc3f288e4c3d9ff0483ae634d080ee121529b98949861c0c2564736f6c63430006090033",
  "immutableReferences": {
    "14647": [
      {
        "length": 32,
        "start": 393
      },
      {
        "length": 32,
        "start": 916
      },
      {
        "length": 32,
        "start": 1378
      }
    ],
    "14649": [
      {
        "length": 32,
        "start": 333
      },
      {
        "length": 32,
        "start": 438
      }
    ],
    "14651": [
      {
        "length": 32,
        "start": 297
      },
      {
        "length": 32,
        "start": 961
      }
    ]
  },
  "source": "/*\n\n    Copyright 2020 DODO ZOO.\n    SPDX-License-Identifier: Apache-2.0\n\n*/\npragma solidity 0.6.9;\npragma experimental ABIEncoderV2;\n\nimport {ICloneFactory} from \"../lib/CloneFactory.sol\";\nimport {InitializableERC721} from \"../external/ERC721/InitializableERC721.sol\";\nimport {InitializableERC1155} from \"../external/ERC1155/InitializableERC1155.sol\";\n\n/**\n * @title DODO NFTTokenFactory\n * @author DODO Breeder\n *\n * @notice Help user to create erc721 && erc1155 token\n */\ncontract NFTTokenFactory {\n    // ============ Templates ============\n\n    address public immutable _CLONE_FACTORY_;\n    address public immutable _ERC721_TEMPLATE_;\n    address public immutable _ERC1155_TEMPLATE_;\n\n    // ============ Events ============\n\n    event NewERC721(address erc721, address creator);\n    event NewERC1155(address erc1155, address creator);\n\n    // ============ Registry ============\n    mapping(address => address[]) public _USER_ERC721_REGISTRY_;\n    mapping(address => address[]) public _USER_ERC1155_REGISTRY_;\n\n    // ============ Functions ============\n\n    constructor(\n        address cloneFactory,\n        address erc721Template,\n        address erc1155Tempalte\n    ) public {\n        _CLONE_FACTORY_ = cloneFactory;\n        _ERC721_TEMPLATE_ = erc721Template;\n        _ERC1155_TEMPLATE_ = erc1155Tempalte;\n    }\n\n    function createERC721(\n        string memory baseUrl\n    ) external returns (address newERC721) {\n        newERC721 = ICloneFactory(_CLONE_FACTORY_).clone(_ERC721_TEMPLATE_);\n        InitializableERC721(newERC721).init(\"DODONFT\", \"DODONFT\", baseUrl);\n        _USER_ERC721_REGISTRY_[msg.sender].push(newERC721);\n        emit NewERC721(newERC721, msg.sender);\n    }\n\n    function createERC1155(\n        uint256 amount,\n        string memory baseUrl\n    ) external returns (address newERC1155) {\n        newERC1155 = ICloneFactory(_CLONE_FACTORY_).clone(_ERC1155_TEMPLATE_);\n        InitializableERC1155(newERC1155).init(amount, baseUrl);\n        _USER_ERC1155_REGISTRY_[msg.sender].push(newERC1155);\n        emit NewERC1155(newERC1155, msg.sender);\n    }\n\n\n    function getERC721TokenByUser(address user) \n        external\n        view\n        returns (address[] memory tokens)\n    {\n        return _USER_ERC721_REGISTRY_[user];\n    }\n}\n",
  "sourcePath": "/Users/niutaotao/projects/dodo/contractV2/contracts/Factory/NFTTokenFactory.sol",
  "compiler": {
    "name": "solc",
    "version": "0.6.9+commit.3e3065ac.Emscripten.clang"
  },
  "schemaVersion": "3.3.2",
  "updatedAt": "2021-04-07T16:20:51.178Z",
  "devdoc": {
    "author": "DODO Breeder",
    "methods": {},
    "title": "DODO NFTTokenFactory"
  },
  "userdoc": {
    "methods": {},
    "notice": "Help user to create erc721 && erc1155 token"
  }
}