{
  "contractName": "CrowdPoolingFactory",
  "abi": [
    {
      "inputs": [
        {
          "internalType": "address",
          "name": "cloneFactory",
          "type": "address"
        },
        {
          "internalType": "address",
          "name": "cpTemplate",
          "type": "address"
        },
        {
          "internalType": "address",
          "name": "dvmFactory",
          "type": "address"
        },
        {
          "internalType": "address",
          "name": "defaultMaintainer",
          "type": "address"
        },
        {
          "internalType": "address",
          "name": "defaultMtFeeRateModel",
          "type": "address"
        },
        {
          "internalType": "address",
          "name": "defaultPermissionManager",
          "type": "address"
        }
      ],
      "stateMutability": "nonpayable",
      "type": "constructor"
    },
    {
      "anonymous": false,
      "inputs": [
        {
          "indexed": false,
          "internalType": "address",
          "name": "baseToken",
          "type": "address"
        },
        {
          "indexed": false,
          "internalType": "address",
          "name": "quoteToken",
          "type": "address"
        },
        {
          "indexed": false,
          "internalType": "address",
          "name": "creator",
          "type": "address"
        },
        {
          "indexed": false,
          "internalType": "address",
          "name": "cp",
          "type": "address"
        }
      ],
      "name": "NewCP",
      "type": "event"
    },
    {
      "anonymous": false,
      "inputs": [
        {
          "indexed": true,
          "internalType": "address",
          "name": "previousOwner",
          "type": "address"
        },
        {
          "indexed": true,
          "internalType": "address",
          "name": "newOwner",
          "type": "address"
        }
      ],
      "name": "OwnershipTransferPrepared",
      "type": "event"
    },
    {
      "anonymous": false,
      "inputs": [
        {
          "indexed": true,
          "internalType": "address",
          "name": "previousOwner",
          "type": "address"
        },
        {
          "indexed": true,
          "internalType": "address",
          "name": "newOwner",
          "type": "address"
        }
      ],
      "name": "OwnershipTransferred",
      "type": "event"
    },
    {
      "inputs": [],
      "name": "_CALM_DURATION_",
      "outputs": [
        {
          "internalType": "uint256",
          "name": "",
          "type": "uint256"
        }
      ],
      "stateMutability": "view",
      "type": "function"
    },
    {
      "inputs": [],
      "name": "_CLIFF_RATE_",
      "outputs": [
        {
          "internalType": "uint256",
          "name": "",
          "type": "uint256"
        }
      ],
      "stateMutability": "view",
      "type": "function"
    },
    {
      "inputs": [],
      "name": "_CLONE_FACTORY_",
      "outputs": [
        {
          "internalType": "address",
          "name": "",
          "type": "address"
        }
      ],
      "stateMutability": "view",
      "type": "function"
    },
    {
      "inputs": [],
      "name": "_CP_TEMPLATE_",
      "outputs": [
        {
          "internalType": "address",
          "name": "",
          "type": "address"
        }
      ],
      "stateMutability": "view",
      "type": "function"
    },
    {
      "inputs": [],
      "name": "_DEFAULT_MAINTAINER_",
      "outputs": [
        {
          "internalType": "address",
          "name": "",
          "type": "address"
        }
      ],
      "stateMutability": "view",
      "type": "function"
    },
    {
      "inputs": [],
      "name": "_DEFAULT_MT_FEE_RATE_MODEL_",
      "outputs": [
        {
          "internalType": "address",
          "name": "",
          "type": "address"
        }
      ],
      "stateMutability": "view",
      "type": "function"
    },
    {
      "inputs": [],
      "name": "_DEFAULT_PERMISSION_MANAGER_",
      "outputs": [
        {
          "internalType": "address",
          "name": "",
          "type": "address"
        }
      ],
      "stateMutability": "view",
      "type": "function"
    },
    {
      "inputs": [],
      "name": "_DVM_FACTORY_",
      "outputs": [
        {
          "internalType": "address",
          "name": "",
          "type": "address"
        }
      ],
      "stateMutability": "view",
      "type": "function"
    },
    {
      "inputs": [],
      "name": "_FREEZE_DURATION_",
      "outputs": [
        {
          "internalType": "uint256",
          "name": "",
          "type": "uint256"
        }
      ],
      "stateMutability": "view",
      "type": "function"
    },
    {
      "inputs": [],
      "name": "_K_",
      "outputs": [
        {
          "internalType": "uint256",
          "name": "",
          "type": "uint256"
        }
      ],
      "stateMutability": "view",
      "type": "function"
    },
    {
      "inputs": [],
      "name": "_NEW_OWNER_",
      "outputs": [
        {
          "internalType": "address",
          "name": "",
          "type": "address"
        }
      ],
      "stateMutability": "view",
      "type": "function"
    },
    {
      "inputs": [],
      "name": "_OWNER_",
      "outputs": [
        {
          "internalType": "address",
          "name": "",
          "type": "address"
        }
      ],
      "stateMutability": "view",
      "type": "function"
    },
    {
      "inputs": [
        {
          "internalType": "address",
          "name": "",
          "type": "address"
        },
        {
          "internalType": "address",
          "name": "",
          "type": "address"
        },
        {
          "internalType": "uint256",
          "name": "",
          "type": "uint256"
        }
      ],
      "name": "_REGISTRY_",
      "outputs": [
        {
          "internalType": "address",
          "name": "",
          "type": "address"
        }
      ],
      "stateMutability": "view",
      "type": "function"
    },
    {
      "inputs": [
        {
          "internalType": "address",
          "name": "",
          "type": "address"
        },
        {
          "internalType": "uint256",
          "name": "",
          "type": "uint256"
        }
      ],
      "name": "_USER_REGISTRY_",
      "outputs": [
        {
          "internalType": "address",
          "name": "",
          "type": "address"
        }
      ],
      "stateMutability": "view",
      "type": "function"
    },
    {
      "inputs": [],
      "name": "_VEST_DURATION_",
      "outputs": [
        {
          "internalType": "uint256",
          "name": "",
          "type": "uint256"
        }
      ],
      "stateMutability": "view",
      "type": "function"
    },
    {
      "inputs": [],
      "name": "claimOwnership",
      "outputs": [],
      "stateMutability": "nonpayable",
      "type": "function"
    },
    {
      "inputs": [],
      "name": "createCrowdPooling",
      "outputs": [
        {
          "internalType": "address",
          "name": "newCrowdPooling",
          "type": "address"
        }
      ],
      "stateMutability": "nonpayable",
      "type": "function"
    },
    {
      "inputs": [
        {
          "internalType": "address",
          "name": "baseToken",
          "type": "address"
        },
        {
          "internalType": "address",
          "name": "quoteToken",
          "type": "address"
        }
      ],
      "name": "getCrowdPooling",
      "outputs": [
        {
          "internalType": "address[]",
          "name": "pools",
          "type": "address[]"
        }
      ],
      "stateMutability": "view",
      "type": "function"
    },
    {
      "inputs": [
        {
          "internalType": "address",
          "name": "token0",
          "type": "address"
        },
        {
          "internalType": "address",
          "name": "token1",
          "type": "address"
        }
      ],
      "name": "getCrowdPoolingBidirection",
      "outputs": [
        {
          "internalType": "address[]",
          "name": "baseToken0Pools",
          "type": "address[]"
        },
        {
          "internalType": "address[]",
          "name": "baseToken1Pools",
          "type": "address[]"
        }
      ],
      "stateMutability": "view",
      "type": "function"
    },
    {
      "inputs": [
        {
          "internalType": "address",
          "name": "user",
          "type": "address"
        }
      ],
      "name": "getCrowdPoolingByUser",
      "outputs": [
        {
          "internalType": "address[]",
          "name": "pools",
          "type": "address[]"
        }
      ],
      "stateMutability": "view",
      "type": "function"
    },
    {
      "inputs": [
        {
          "internalType": "address",
          "name": "cpAddress",
          "type": "address"
        },
        {
          "internalType": "address",
          "name": "creator",
          "type": "address"
        },
        {
          "internalType": "address",
          "name": "baseToken",
          "type": "address"
        },
        {
          "internalType": "address",
          "name": "quoteToken",
          "type": "address"
        },
        {
          "internalType": "uint256[]",
          "name": "timeLine",
          "type": "uint256[]"
        },
        {
          "internalType": "uint256[]",
          "name": "valueList",
          "type": "uint256[]"
        },
        {
          "internalType": "bool",
          "name": "isOpenTWAP",
          "type": "bool"
        }
      ],
      "name": "initCrowdPooling",
      "outputs": [],
      "stateMutability": "nonpayable",
      "type": "function"
    },
    {
      "inputs": [
        {
          "internalType": "address",
          "name": "newOwner",
          "type": "address"
        }
      ],
      "name": "initOwner",
      "outputs": [],
      "stateMutability": "nonpayable",
      "type": "function"
    },
    {
      "inputs": [
        {
          "internalType": "uint256",
          "name": "_newCalmDuration",
          "type": "uint256"
        }
      ],
      "name": "setCalmDuration",
      "outputs": [],
      "stateMutability": "nonpayable",
      "type": "function"
    },
    {
      "inputs": [
        {
          "internalType": "uint256",
          "name": "_newCliffRate",
          "type": "uint256"
        }
      ],
      "name": "setCliffRate",
      "outputs": [],
      "stateMutability": "nonpayable",
      "type": "function"
    },
    {
      "inputs": [
        {
          "internalType": "uint256",
          "name": "_newFreeDuration",
          "type": "uint256"
        }
      ],
      "name": "setFreezeDuration",
      "outputs": [],
      "stateMutability": "nonpayable",
      "type": "function"
    },
    {
      "inputs": [
        {
          "internalType": "uint256",
          "name": "_newK",
          "type": "uint256"
        }
      ],
      "name": "setK",
      "outputs": [],
      "stateMutability": "nonpayable",
      "type": "function"
    },
    {
      "inputs": [
        {
          "internalType": "uint256",
          "name": "_newVestDuration",
          "type": "uint256"
        }
      ],
      "name": "setVestDuration",
      "outputs": [],
      "stateMutability": "nonpayable",
      "type": "function"
    },
    {
      "inputs": [
        {
          "internalType": "address",
          "name": "newOwner",
          "type": "address"
        }
      ],
      "name": "transferOwnership",
      "outputs": [],
      "stateMutability": "nonpayable",
      "type": "function"
    },
    {
      "inputs": [
        {
          "internalType": "address",
          "name": "_newCPTemplate",
          "type": "address"
        }
      ],
      "name": "updateCPTemplate",
      "outputs": [],
      "stateMutability": "nonpayable",
      "type": "function"
    }
  ],
  "bytecode": "0x610120604052603260035562278d00600455600060055560006006556000600755670de0b6b3a76400006008553480156200003957600080fd5b5060405162001942380380620019428339810160408190526200005c91620000d4565b606095861b6001600160601b0319908116608052600280546001600160a01b0319166001600160a01b03979097169690961790955592851b841660a05290841b831660c052831b821660e05290911b16610100526200015a565b80516001600160a01b0381168114620000ce57600080fd5b92915050565b60008060008060008060c08789031215620000ed578182fd5b620000f98888620000b6565b95506200010a8860208901620000b6565b94506200011b8860408901620000b6565b93506200012c8860608901620000b6565b92506200013d8860808901620000b6565b91506200014e8860a08901620000b6565b90509295509295509295565b60805160601c60a05160601c60c05160601c60e05160601c6101005160601c611780620001c260003980610ce552806110105250806107d35280610d3352508061082c5280610c3b5250806107af5280610d8152508061087a528061103452506117806000f3fe608060405234801561001057600080fd5b50600436106101e55760003560e01c8063792d793b1161010f578063bdeb0a91116100a2578063e0f5d89e11610071578063e0f5d89e1461039c578063eb774d05146103a4578063ec2fd46d146103ac578063f2fde38b146103b4576101e5565b8063bdeb0a9114610366578063c06fe4ab14610379578063c2c2757b1461038c578063ce90ea7414610394576101e5565b8063a58888db116100de578063a58888db14610325578063a6569b3f14610338578063a820636b14610340578063b67df33114610353576101e5565b8063792d793b1461030557806381ab4d0a1461030d5780638456db151461031557806389edcf141461031d576101e5565b80634e71e0c81161018757806367de8be91161015657806367de8be9146102cf57806369e4e417146102e25780636c5ccb9b146102ea5780636ca2aa95146102f2576101e5565b80634e71e0c8146102815780635568587a1461028957806364ddb0131461029c5780636556c7e5146102af576101e5565b8063294dafc0116101c3578063294dafc0146102305780633ff9b61e1461024557806341a1759c1461024d5780634c59de661461026e576101e5565b806307b8a636146101ea5780630d009297146101ff57806316048bc414610212575b600080fd5b6101fd6101f836600461136c565b6103c7565b005b6101fd61020d3660046111e7565b6103ff565b61021a61045f565b604051610227919061140e565b60405180910390f35b61023861046e565b6040516102279190611729565b610238610474565b61026061025b36600461121f565b61047a565b604051610227929190611460565b6101fd61027c36600461136c565b610572565b6101fd6105c9565b6101fd61029736600461136c565b610657565b6101fd6102aa3660046111e7565b610686565b6102c26102bd36600461121f565b6106d2565b604051610227919061144d565b6101fd6102dd36600461136c565b610756565b61021a6107ad565b61021a6107d1565b6101fd61030036600461136c565b6107f5565b610238610824565b61021a61082a565b61021a61084e565b61021a61085d565b61021a610333366004611341565b610907565b61021a61093c565b6102c261034e3660046111e7565b61094b565b6101fd610361366004611257565b6109c1565b61021a610374366004611301565b610f64565b6101fd61038736600461136c565b610fa6565b610238611002565b610238611008565b61021a61100e565b61021a611032565b610238611056565b6101fd6103c23660046111e7565b61105c565b6000546001600160a01b031633146103fa5760405162461bcd60e51b81526004016103f1906116e3565b60405180910390fd5b600555565b600154600160a01b900460ff16156104295760405162461bcd60e51b81526004016103f1906116b9565b6001805460ff60a01b1916600160a01b179055600080546001600160a01b039092166001600160a01b0319909216919091179055565b6000546001600160a01b031681565b60085481565b60065481565b6001600160a01b038083166000818152600960208181526040808420958716845294815284832091815284832093835292835290839020815484518185028101850190955280855260609485949091849183018282801561050457602002820191906000526020600020905b81546001600160a01b031681526001909101906020018083116104e6575b505050505091508080548060200260200160405190810160405280929190818152602001828054801561056057602002820191906000526020600020905b81546001600160a01b03168152600190910190602001808311610542575b50505050509050915091509250929050565b6000546001600160a01b0316331461059c5760405162461bcd60e51b81526004016103f1906116e3565b670de0b6b3a76400008111156105c45760405162461bcd60e51b81526004016103f1906114d0565b600855565b6001546001600160a01b031633146105f35760405162461bcd60e51b81526004016103f1906114fe565b600154600080546040516001600160a01b0393841693909116917f8be0079c531659141344cd1fd0a4f28419497f9722a3daafe3b4186f6b6457e091a360018054600080546001600160a01b03199081166001600160a01b03841617909155169055565b6000546001600160a01b031633146106815760405162461bcd60e51b81526004016103f1906116e3565b600655565b6000546001600160a01b031633146106b05760405162461bcd60e51b81526004016103f1906116e3565b600280546001600160a01b0319166001600160a01b0392909216919091179055565b6001600160a01b03808316600090815260096020908152604080832093851683529281529082902080548351818402810184019094528084526060939283018282801561074857602002820191906000526020600020905b81546001600160a01b0316815260019091019060200180831161072a575b505050505090505b92915050565b6000546001600160a01b031633146107805760405162461bcd60e51b81526004016103f1906116e3565b670de0b6b3a76400008111156107a85760405162461bcd60e51b81526004016103f1906114d0565b600755565b7f000000000000000000000000000000000000000000000000000000000000000081565b7f000000000000000000000000000000000000000000000000000000000000000081565b6000546001600160a01b0316331461081f5760405162461bcd60e51b81526004016103f1906116e3565b600455565b60035481565b7f000000000000000000000000000000000000000000000000000000000000000081565b6001546001600160a01b031681565b6002546040516340925bc760e11b81526000916001600160a01b037f0000000000000000000000000000000000000000000000000000000000000000811692638124b78e926108b092169060040161140e565b602060405180830381600087803b1580156108ca57600080fd5b505af11580156108de573d6000803e3d6000fd5b505050506040513d601f19601f820116820180604052508101906109029190611203565b905090565b600a602052816000526040600020818154811061092057fe5b6000918252602090912001546001600160a01b03169150829050565b6002546001600160a01b031681565b6001600160a01b0381166000908152600a60209081526040918290208054835181840281018401909452808452606093928301828280156109b557602002820191906000526020600020905b81546001600160a01b03168152600190910190602001808311610997575b50505050509050919050565b85848383600554826002815181106109d557fe5b6020026020010151146109fa5760405162461bcd60e51b81526004016103f19061162f565b60065482600481518110610a0a57fe5b602002602001015114610a2f5760405162461bcd60e51b81526004016103f190611677565b60075481600181518110610a3f57fe5b602002602001015114610a645760405162461bcd60e51b81526004016103f1906115c8565b60085481600381518110610a7457fe5b602002602001015114610a995760405162461bcd60e51b81526004016103f190611569565b6040516370a0823160e01b81526000906001600160a01b038516906370a0823190610ac890889060040161140e565b60206040518083038186803b158015610ae057600080fd5b505afa158015610af4573d6000803e3d6000fd5b505050506040513d601f19601f82011682018060405250810190610b189190611384565b9050610b6b600354610b5f670de0b6b3a7640000610b5386600281518110610b3c57fe5b6020026020010151866110e190919063ffffffff16565b9063ffffffff61112216565b9063ffffffff6110e116565b610b93606484600081518110610b7d57fe5b60200260200101516110e190919063ffffffff16565b1115610bb15760405162461bcd60e51b81526004016103f1906115f8565b60045483600381518110610bc157fe5b60200260200101511015610be75760405162461bcd60e51b81526004016103f190611525565b60408051600780825261010082019092526060916020820160e0803683370190505090508a81600081518110610c1957fe5b60200260200101906001600160a01b031690816001600160a01b0316815250507f000000000000000000000000000000000000000000000000000000000000000081600181518110610c6757fe5b60200260200101906001600160a01b031690816001600160a01b0316815250508981600281518110610c9557fe5b60200260200101906001600160a01b031690816001600160a01b0316815250508881600381518110610cc357fe5b60200260200101906001600160a01b031690816001600160a01b0316815250507f000000000000000000000000000000000000000000000000000000000000000081600481518110610d1157fe5b60200260200101906001600160a01b031690816001600160a01b0316815250507f000000000000000000000000000000000000000000000000000000000000000081600581518110610d5f57fe5b60200260200101906001600160a01b031690816001600160a01b0316815250507f000000000000000000000000000000000000000000000000000000000000000081600681518110610dad57fe5b6001600160a01b039283166020918202929092010152604051633dd11c6160e21b8152908d169063f744718490610dec9084908c908c9060040161148e565b600060405180830381600087803b158015610e0657600080fd5b505af1158015610e1a573d6000803e3d6000fd5b5050505050600960008a6001600160a01b03166001600160a01b031681526020019081526020016000206000896001600160a01b03166001600160a01b031681526020019081526020016000208b9080600181540180825580915050600190039060005260206000200160009091909190916101000a8154816001600160a01b0302191690836001600160a01b03160217905550600a60008b6001600160a01b03166001600160a01b031681526020019081526020016000208b9080600181540180825580915050600190039060005260206000200160009091909190916101000a8154816001600160a01b0302191690836001600160a01b031602179055507f0bd1e8ce555b4ec75d8b1c8113a8812659e0d94f0b4c67637dc049434604b45d89898c8e604051610f4f9493929190611422565b60405180910390a15050505050505050505050565b60096020528260005260406000206020528160005260406000208181548110610f8957fe5b6000918252602090912001546001600160a01b0316925083915050565b6000546001600160a01b03163314610fd05760405162461bcd60e51b81526004016103f1906116e3565b600081118015610fe1575060648111155b610ffd5760405162461bcd60e51b81526004016103f1906114d0565b600355565b60055481565b60045481565b7f000000000000000000000000000000000000000000000000000000000000000081565b7f000000000000000000000000000000000000000000000000000000000000000081565b60075481565b6000546001600160a01b031633146110865760405162461bcd60e51b81526004016103f1906116e3565b600080546040516001600160a01b03808516939216917fdcf55418cee3220104fef63f979ff3c4097ad240c0c43dcb33ce837748983e6291a3600180546001600160a01b0319166001600160a01b0392909216919091179055565b6000826110f057506000610750565b828202828482816110fd57fe5b041461111b5760405162461bcd60e51b81526004016103f190611706565b9392505050565b60008082116111435760405162461bcd60e51b81526004016103f1906115a0565b81838161114c57fe5b049392505050565b600082601f830112611164578081fd5b813567ffffffffffffffff8082111561117b578283fd5b602080830260405182828201018181108582111715611198578687fd5b6040528481529450818501925085820181870183018810156111b957600080fd5b600091505b848210156111dc5780358452928201926001919091019082016111be565b505050505092915050565b6000602082840312156111f8578081fd5b813561111b81611732565b600060208284031215611214578081fd5b815161111b81611732565b60008060408385031215611231578081fd5b823561123c81611732565b9150602083013561124c81611732565b809150509250929050565b60008060008060008060c0878903121561126f578182fd5b863561127a81611732565b9550602087013561128a81611732565b9450604087013561129a81611732565b935060608701356112aa81611732565b9250608087013567ffffffffffffffff808211156112c6578384fd5b6112d28a838b01611154565b935060a08901359150808211156112e7578283fd5b506112f489828a01611154565b9150509295509295509295565b600080600060608486031215611315578283fd5b833561132081611732565b9250602084013561133081611732565b929592945050506040919091013590565b60008060408385031215611353578182fd5b823561135e81611732565b946020939093013593505050565b60006020828403121561137d578081fd5b5035919050565b600060208284031215611395578081fd5b5051919050565b6000815180845260208085019450808401835b838110156113d45781516001600160a01b0316875295820195908201906001016113af565b509495945050505050565b6000815180845260208085019450808401835b838110156113d4578151875295820195908201906001016113f2565b6001600160a01b0391909116815260200190565b6001600160a01b03948516815292841660208401529083166040830152909116606082015260800190565b60006020825261111b602083018461139c565b600060408252611473604083018561139c565b8281036020840152611485818561139c565b95945050505050565b6000606082526114a1606083018661139c565b82810360208401526114b381866113df565b83810360408501526114c581866113df565b979650505050505050565b60208082526014908201527310d417d19050d513d496480e881253959053125160621b604082015260600190565b6020808252600d908201526c494e56414c49445f434c41494d60981b604082015260600190565b60208082526024908201527f43505f464143544f5259203a20465245455a455f4455524154494f4e5f494e566040820152631053125160e21b606082015260800190565b6020808252601f908201527f43505f464143544f5259203a20434c4946465f524154455f494e56414c494400604082015260600190565b6020808252600e908201526d2224ab24a224a723afa2a92927a960911b604082015260600190565b60208082526016908201527510d417d19050d513d496480e8812d7d253959053125160521b604082015260600190565b6020808252601e908201527f43505f464143544f5259203a2051554f54455f4341505f494e56414c49440000604082015260600190565b60208082526028908201527f43505f464143544f5259203a2050484153455f43414c4d5f4455524154494f4e60408201526717d253959053125160c21b606082015260800190565b60208082526022908201527f43505f464143544f5259203a20564553545f4455524154494f4e5f494e56414c604082015261125160f21b606082015260800190565b60208082526010908201526f1113d113d7d25392551250531256915160821b604082015260600190565b6020808252600990820152682727aa2fa7aba722a960b91b604082015260600190565b60208082526009908201526826aaa62fa2a92927a960b91b604082015260600190565b90815260200190565b6001600160a01b038116811461174757600080fd5b5056fea2646970667358221220ddf2a3652faab18570a2d5c918515a26ecde45a69c8972e6daa5e0a4f8c1b7a264736f6c63430006090033",
  "immutableReferences": {
    "7887": [
      {
        "length": 32,
        "start": 2170
      },
      {
        "length": 32,
        "start": 4148
      }
    ],
    "7889": [
      {
        "length": 32,
        "start": 1967
      },
      {
        "length": 32,
        "start": 3457
      }
    ],
    "7891": [
      {
        "length": 32,
        "start": 2092
      },
      {
        "length": 32,
        "start": 3131
      }
    ],
    "7893": [
      {
        "length": 32,
        "start": 2003
      },
      {
        "length": 32,
        "start": 3379
      }
    ],
    "7895": [
      {
        "length": 32,
        "start": 3301
      },
      {
        "length": 32,
        "start": 4112
      }
    ]
  },
  "source": "/*\n\n    Copyright 2020 DODO ZOO.\n    SPDX-License-Identifier: Apache-2.0\n\n*/\n\npragma solidity 0.6.9;\npragma experimental ABIEncoderV2;\n\nimport {InitializableOwnable} from \"../lib/InitializableOwnable.sol\";\nimport {ICloneFactory} from \"../lib/CloneFactory.sol\";\nimport {ICP} from \"../CrowdPooling/intf/ICP.sol\";\nimport {SafeMath} from \"../lib/SafeMath.sol\";\nimport {IERC20} from \"../intf/IERC20.sol\";\nimport {DecimalMath} from \"../lib/DecimalMath.sol\";\n\n/**\n * @title CrowdPoolingFacotry\n * @author DODO Breeder\n *\n * @notice Create And Register CP Pools \n */\ncontract CrowdPoolingFactory is InitializableOwnable {\n    using SafeMath for uint256;\n    // ============ Templates ============\n\n    address public immutable _CLONE_FACTORY_;\n    address public immutable _DVM_FACTORY_;\n    address public immutable _DEFAULT_MAINTAINER_;\n    address public immutable _DEFAULT_MT_FEE_RATE_MODEL_;\n    address public immutable _DEFAULT_PERMISSION_MANAGER_;\n    address public _CP_TEMPLATE_;\n\n    // ============ Settings =============\n\n    uint256 public _CAP_RATIO_ = 50; \n    uint256 public _FREEZE_DURATION_ =  30 days;\n    uint256 public _CALM_DURATION_ = 0;\n    uint256 public _VEST_DURATION_ = 0;\n    uint256 public _K_ = 0;\n    uint256 public _CLIFF_RATE_ = 10**18;\n\n\n    // ============ Registry ============\n\n    // base -> quote -> CP address list\n    mapping(address => mapping(address => address[])) public _REGISTRY_;\n    // creator -> CP address list\n    mapping(address => address[]) public _USER_REGISTRY_;\n\n    // ============ modifiers ===========\n\n    modifier valueCheck(\n        address cpAddress,\n        address baseToken,\n        uint256[] memory timeLine,\n        uint256[] memory valueList)\n    {\n        require(timeLine[2] == _CALM_DURATION_, \"CP_FACTORY : PHASE_CALM_DURATION_INVALID\");\n        require(timeLine[4] == _VEST_DURATION_, \"CP_FACTORY : VEST_DURATION_INVALID\");\n        require(valueList[1] == _K_, \"CP_FACTORY : K_INVALID\");\n        require(valueList[3] == _CLIFF_RATE_, \"CP_FACTORY : CLIFF_RATE_INVALID\");\n\n        uint256 baseTokenBalance = IERC20(baseToken).balanceOf(cpAddress);\n        require(valueList[0].mul(100) <= baseTokenBalance.mul(valueList[2]).div(10**18).mul(_CAP_RATIO_),\"CP_FACTORY : QUOTE_CAP_INVALID\");\n        require(timeLine[3]>= _FREEZE_DURATION_, \"CP_FACTORY : FREEZE_DURATION_INVALID\");\n        _;\n    }\n\n    // ============ Events ============\n\n    event NewCP(\n        address baseToken,\n        address quoteToken,\n        address creator,\n        address cp\n    );\n\n    constructor(\n        address cloneFactory,\n        address cpTemplate,\n        address dvmFactory,\n        address defaultMaintainer,\n        address defaultMtFeeRateModel,\n        address defaultPermissionManager\n    ) public {\n        _CLONE_FACTORY_ = cloneFactory;\n        _CP_TEMPLATE_ = cpTemplate;\n        _DVM_FACTORY_ = dvmFactory;\n        _DEFAULT_MAINTAINER_ = defaultMaintainer;\n        _DEFAULT_MT_FEE_RATE_MODEL_ = defaultMtFeeRateModel;\n        _DEFAULT_PERMISSION_MANAGER_ = defaultPermissionManager;\n    }\n\n    // ============ Functions ============\n\n    function createCrowdPooling() external returns (address newCrowdPooling) {\n        newCrowdPooling = ICloneFactory(_CLONE_FACTORY_).clone(_CP_TEMPLATE_);\n    }\n\n    function initCrowdPooling(\n        address cpAddress,\n        address creator,\n        address baseToken,\n        address quoteToken,\n        uint256[] memory timeLine,\n        uint256[] memory valueList\n    ) external valueCheck(cpAddress,baseToken,timeLine,valueList) {\n        {\n        address[] memory addressList = new address[](7);\n        addressList[0] = creator;\n        addressList[1] = _DEFAULT_MAINTAINER_;\n        addressList[2] = baseToken;\n        addressList[3] = quoteToken;\n        addressList[4] = _DEFAULT_PERMISSION_MANAGER_;\n        addressList[5] = _DEFAULT_MT_FEE_RATE_MODEL_;\n        addressList[6] = _DVM_FACTORY_;\n\n        ICP(cpAddress).init(\n            addressList,\n            timeLine,\n            valueList\n        );\n        }\n\n        _REGISTRY_[baseToken][quoteToken].push(cpAddress);\n        _USER_REGISTRY_[creator].push(cpAddress);\n\n        emit NewCP(baseToken, quoteToken, creator, cpAddress);\n    }\n\n    // ============ View Functions ============\n\n    function getCrowdPooling(address baseToken, address quoteToken)\n        external\n        view\n        returns (address[] memory pools)\n    {\n        return _REGISTRY_[baseToken][quoteToken];\n    }\n\n    function getCrowdPoolingBidirection(address token0, address token1)\n        external\n        view\n        returns (address[] memory baseToken0Pools, address[] memory baseToken1Pools)\n    {\n        return (_REGISTRY_[token0][token1], _REGISTRY_[token1][token0]);\n    }\n\n    function getCrowdPoolingByUser(address user)\n        external\n        view\n        returns (address[] memory pools)\n    {\n        return _USER_REGISTRY_[user];\n    }\n\n    // ============ Owner Functions ============\n    \n    function updateCPTemplate(address _newCPTemplate) external onlyOwner {\n        _CP_TEMPLATE_ = _newCPTemplate;\n    }\n\n    function setCapRatio(uint256 _newCapRatio) public onlyOwner {\n        require(_newCapRatio > 0 && _newCapRatio <= 100, \"CP_FACTORY : INVALID\");\n        _CAP_RATIO_ = _newCapRatio;\n    }\n\n    function setFreezeDuration(uint256 _newFreeDuration) public onlyOwner {\n        _FREEZE_DURATION_ = _newFreeDuration;\n    }\n\n    function setCalmDuration(uint256 _newCalmDuration) public onlyOwner {\n        _CALM_DURATION_ = _newCalmDuration;\n    }\n\n    function setVestDuration(uint256 _newVestDuration) public onlyOwner {\n        _VEST_DURATION_ = _newVestDuration;\n    }\n\n    function setK(uint256 _newK) public onlyOwner {\n        require(_newK <= 10**18, \"CP_FACTORY : INVALID\");\n        _K_ = _newK;\n    }\n\n    function setCliffRate(uint256 _newCliffRate) public onlyOwner {\n        require(_newCliffRate <= 10**18, \"CP_FACTORY : INVALID\");\n        _CLIFF_RATE_ = _newCliffRate;\n    }\n}\n",
  "sourcePath": "/Users/niutaotao/projects/dodo/contractV2/contracts/Factory/CrowdPoolingFactory.sol",
  "compiler": {
    "name": "solc",
    "version": "0.6.9+commit.3e3065ac.Emscripten.clang"
  },
  "schemaVersion": "3.3.2",
  "updatedAt": "2021-01-29T02:29:49.024Z",
  "devdoc": {
    "author": "DODO Breeder",
    "methods": {},
    "title": "CrowdPoolingFacotry"
  },
  "userdoc": {
    "methods": {},
    "notice": "Create And Register CP Pools "
  }
}