{
  "contractName": "vDODOToken",
  "abi": [
    {
      "inputs": [
        {
          "internalType": "address",
          "name": "dodoGov",
          "type": "address"
        },
        {
          "internalType": "address",
          "name": "dodoToken",
          "type": "address"
        },
        {
          "internalType": "address",
          "name": "dodoApproveProxy",
          "type": "address"
        },
        {
          "internalType": "address",
          "name": "dodoTeam",
          "type": "address"
        }
      ],
      "stateMutability": "nonpayable",
      "type": "constructor"
    },
    {
      "anonymous": false,
      "inputs": [
        {
          "indexed": true,
          "internalType": "address",
          "name": "owner",
          "type": "address"
        },
        {
          "indexed": true,
          "internalType": "address",
          "name": "spender",
          "type": "address"
        },
        {
          "indexed": false,
          "internalType": "uint256",
          "name": "amount",
          "type": "uint256"
        }
      ],
      "name": "Approval",
      "type": "event"
    },
    {
      "anonymous": false,
      "inputs": [
        {
          "indexed": false,
          "internalType": "uint256",
          "name": "dodoPerBlock",
          "type": "uint256"
        }
      ],
      "name": "ChangePerReward",
      "type": "event"
    },
    {
      "anonymous": false,
      "inputs": [
        {
          "indexed": false,
          "internalType": "address",
          "name": "user",
          "type": "address"
        },
        {
          "indexed": false,
          "internalType": "address",
          "name": "superior",
          "type": "address"
        },
        {
          "indexed": false,
          "internalType": "uint256",
          "name": "mintDODO",
          "type": "uint256"
        }
      ],
      "name": "MintVDODO",
      "type": "event"
    },
    {
      "anonymous": false,
      "inputs": [
        {
          "indexed": true,
          "internalType": "address",
          "name": "previousOwner",
          "type": "address"
        },
        {
          "indexed": true,
          "internalType": "address",
          "name": "newOwner",
          "type": "address"
        }
      ],
      "name": "OwnershipTransferPrepared",
      "type": "event"
    },
    {
      "anonymous": false,
      "inputs": [
        {
          "indexed": true,
          "internalType": "address",
          "name": "previousOwner",
          "type": "address"
        },
        {
          "indexed": true,
          "internalType": "address",
          "name": "newOwner",
          "type": "address"
        }
      ],
      "name": "OwnershipTransferred",
      "type": "event"
    },
    {
      "anonymous": false,
      "inputs": [
        {
          "indexed": false,
          "internalType": "address",
          "name": "user",
          "type": "address"
        },
        {
          "indexed": false,
          "internalType": "uint256",
          "name": "receiveDODO",
          "type": "uint256"
        },
        {
          "indexed": false,
          "internalType": "uint256",
          "name": "burnDODO",
          "type": "uint256"
        },
        {
          "indexed": false,
          "internalType": "uint256",
          "name": "feeDODO",
          "type": "uint256"
        }
      ],
      "name": "RedeemVDODO",
      "type": "event"
    },
    {
      "anonymous": false,
      "inputs": [
        {
          "indexed": false,
          "internalType": "bool",
          "name": "allowed",
          "type": "bool"
        }
      ],
      "name": "SetCantransfer",
      "type": "event"
    },
    {
      "anonymous": false,
      "inputs": [
        {
          "indexed": true,
          "internalType": "address",
          "name": "from",
          "type": "address"
        },
        {
          "indexed": true,
          "internalType": "address",
          "name": "to",
          "type": "address"
        },
        {
          "indexed": false,
          "internalType": "uint256",
          "name": "amount",
          "type": "uint256"
        }
      ],
      "name": "Transfer",
      "type": "event"
    },
    {
      "anonymous": false,
      "inputs": [
        {
          "indexed": false,
          "internalType": "uint256",
          "name": "dodoFeeBurnRatio",
          "type": "uint256"
        }
      ],
      "name": "UpdateDODOFeeBurnRatio",
      "type": "event"
    },
    {
      "inputs": [],
      "name": "_CAN_TRANSFER_",
      "outputs": [
        {
          "internalType": "bool",
          "name": "",
          "type": "bool"
        }
      ],
      "stateMutability": "view",
      "type": "function"
    },
    {
      "inputs": [],
      "name": "_DODO_CIRCULATION_HELPER_",
      "outputs": [
        {
          "internalType": "address",
          "name": "",
          "type": "address"
        }
      ],
      "stateMutability": "view",
      "type": "function"
    },
    {
      "inputs": [],
      "name": "_DODO_FEE_BURN_RATIO_",
      "outputs": [
        {
          "internalType": "uint256",
          "name": "",
          "type": "uint256"
        }
      ],
      "stateMutability": "view",
      "type": "function"
    },
    {
      "inputs": [],
      "name": "_DODO_PER_BLOCK_",
      "outputs": [
        {
          "internalType": "uint256",
          "name": "",
          "type": "uint256"
        }
      ],
      "stateMutability": "view",
      "type": "function"
    },
    {
      "inputs": [],
      "name": "_DODO_RATIO_",
      "outputs": [
        {
          "internalType": "uint256",
          "name": "",
          "type": "uint256"
        }
      ],
      "stateMutability": "view",
      "type": "function"
    },
    {
      "inputs": [],
      "name": "_DOOD_GOV_",
      "outputs": [
        {
          "internalType": "address",
          "name": "",
          "type": "address"
        }
      ],
      "stateMutability": "view",
      "type": "function"
    },
    {
      "inputs": [],
      "name": "_NEW_OWNER_",
      "outputs": [
        {
          "internalType": "address",
          "name": "",
          "type": "address"
        }
      ],
      "stateMutability": "view",
      "type": "function"
    },
    {
      "inputs": [],
      "name": "_OWNER_",
      "outputs": [
        {
          "internalType": "address",
          "name": "",
          "type": "address"
        }
      ],
      "stateMutability": "view",
      "type": "function"
    },
    {
      "inputs": [],
      "name": "_SUPERIOR_RATIO_",
      "outputs": [
        {
          "internalType": "uint256",
          "name": "",
          "type": "uint256"
        }
      ],
      "stateMutability": "view",
      "type": "function"
    },
    {
      "inputs": [],
      "name": "_TOTAL_STAKING_POWER_",
      "outputs": [
        {
          "internalType": "uint256",
          "name": "",
          "type": "uint256"
        }
      ],
      "stateMutability": "view",
      "type": "function"
    },
    {
      "inputs": [],
      "name": "alpha",
      "outputs": [
        {
          "internalType": "uint128",
          "name": "",
          "type": "uint128"
        }
      ],
      "stateMutability": "view",
      "type": "function"
    },
    {
      "inputs": [],
      "name": "claimOwnership",
      "outputs": [],
      "stateMutability": "nonpayable",
      "type": "function"
    },
    {
      "inputs": [],
      "name": "decimals",
      "outputs": [
        {
          "internalType": "uint8",
          "name": "",
          "type": "uint8"
        }
      ],
      "stateMutability": "view",
      "type": "function"
    },
    {
      "inputs": [
        {
          "internalType": "address",
          "name": "newOwner",
          "type": "address"
        }
      ],
      "name": "initOwner",
      "outputs": [],
      "stateMutability": "nonpayable",
      "type": "function"
    },
    {
      "inputs": [],
      "name": "lastRewardBlock",
      "outputs": [
        {
          "internalType": "uint128",
          "name": "",
          "type": "uint128"
        }
      ],
      "stateMutability": "view",
      "type": "function"
    },
    {
      "inputs": [],
      "name": "name",
      "outputs": [
        {
          "internalType": "string",
          "name": "",
          "type": "string"
        }
      ],
      "stateMutability": "view",
      "type": "function"
    },
    {
      "inputs": [],
      "name": "symbol",
      "outputs": [
        {
          "internalType": "string",
          "name": "",
          "type": "string"
        }
      ],
      "stateMutability": "view",
      "type": "function"
    },
    {
      "inputs": [
        {
          "internalType": "address",
          "name": "newOwner",
          "type": "address"
        }
      ],
      "name": "transferOwnership",
      "outputs": [],
      "stateMutability": "nonpayable",
      "type": "function"
    },
    {
      "inputs": [
        {
          "internalType": "address",
          "name": "",
          "type": "address"
        }
      ],
      "name": "userInfo",
      "outputs": [
        {
          "internalType": "uint128",
          "name": "stakingPower",
          "type": "uint128"
        },
        {
          "internalType": "uint128",
          "name": "superiorSP",
          "type": "uint128"
        },
        {
          "internalType": "address",
          "name": "superior",
          "type": "address"
        },
        {
          "internalType": "uint256",
          "name": "credit",
          "type": "uint256"
        }
      ],
      "stateMutability": "view",
      "type": "function"
    },
    {
      "inputs": [
        {
          "internalType": "bool",
          "name": "allowed",
          "type": "bool"
        }
      ],
      "name": "setCantransfer",
      "outputs": [],
      "stateMutability": "nonpayable",
      "type": "function"
    },
    {
      "inputs": [
        {
          "internalType": "uint256",
          "name": "dodoPerBlock",
          "type": "uint256"
        }
      ],
      "name": "changePerReward",
      "outputs": [],
      "stateMutability": "nonpayable",
      "type": "function"
    },
    {
      "inputs": [
        {
          "internalType": "uint256",
          "name": "dodoFeeBurnRatio",
          "type": "uint256"
        }
      ],
      "name": "updateDODOFeeBurnRatio",
      "outputs": [],
      "stateMutability": "nonpayable",
      "type": "function"
    },
    {
      "inputs": [
        {
          "internalType": "address",
          "name": "helper",
          "type": "address"
        }
      ],
      "name": "updateDODOCirculationHelper",
      "outputs": [],
      "stateMutability": "nonpayable",
      "type": "function"
    },
    {
      "inputs": [
        {
          "internalType": "address",
          "name": "governance",
          "type": "address"
        }
      ],
      "name": "updateGovernance",
      "outputs": [],
      "stateMutability": "nonpayable",
      "type": "function"
    },
    {
      "inputs": [],
      "name": "emergencyWithdraw",
      "outputs": [],
      "stateMutability": "nonpayable",
      "type": "function"
    },
    {
      "inputs": [
        {
          "internalType": "uint256",
          "name": "dodoAmount",
          "type": "uint256"
        },
        {
          "internalType": "address",
          "name": "superiorAddress",
          "type": "address"
        }
      ],
      "name": "mint",
      "outputs": [],
      "stateMutability": "nonpayable",
      "type": "function"
    },
    {
      "inputs": [
        {
          "internalType": "uint256",
          "name": "vdodoAmount",
          "type": "uint256"
        },
        {
          "internalType": "bool",
          "name": "all",
          "type": "bool"
        }
      ],
      "name": "redeem",
      "outputs": [],
      "stateMutability": "nonpayable",
      "type": "function"
    },
    {
      "inputs": [
        {
          "internalType": "uint256",
          "name": "dodoAmount",
          "type": "uint256"
        }
      ],
      "name": "donate",
      "outputs": [],
      "stateMutability": "nonpayable",
      "type": "function"
    },
    {
      "inputs": [],
      "name": "totalSupply",
      "outputs": [
        {
          "internalType": "uint256",
          "name": "vDODOSupply",
          "type": "uint256"
        }
      ],
      "stateMutability": "view",
      "type": "function"
    },
    {
      "inputs": [
        {
          "internalType": "address",
          "name": "account",
          "type": "address"
        }
      ],
      "name": "balanceOf",
      "outputs": [
        {
          "internalType": "uint256",
          "name": "vDODOAmount",
          "type": "uint256"
        }
      ],
      "stateMutability": "view",
      "type": "function"
    },
    {
      "inputs": [
        {
          "internalType": "address",
          "name": "to",
          "type": "address"
        },
        {
          "internalType": "uint256",
          "name": "vDODOAmount",
          "type": "uint256"
        }
      ],
      "name": "transfer",
      "outputs": [
        {
          "internalType": "bool",
          "name": "",
          "type": "bool"
        }
      ],
      "stateMutability": "nonpayable",
      "type": "function"
    },
    {
      "inputs": [
        {
          "internalType": "address",
          "name": "spender",
          "type": "address"
        },
        {
          "internalType": "uint256",
          "name": "vDODOAmount",
          "type": "uint256"
        }
      ],
      "name": "approve",
      "outputs": [
        {
          "internalType": "bool",
          "name": "",
          "type": "bool"
        }
      ],
      "stateMutability": "nonpayable",
      "type": "function"
    },
    {
      "inputs": [
        {
          "internalType": "address",
          "name": "from",
          "type": "address"
        },
        {
          "internalType": "address",
          "name": "to",
          "type": "address"
        },
        {
          "internalType": "uint256",
          "name": "vDODOAmount",
          "type": "uint256"
        }
      ],
      "name": "transferFrom",
      "outputs": [
        {
          "internalType": "bool",
          "name": "",
          "type": "bool"
        }
      ],
      "stateMutability": "nonpayable",
      "type": "function"
    },
    {
      "inputs": [
        {
          "internalType": "address",
          "name": "owner",
          "type": "address"
        },
        {
          "internalType": "address",
          "name": "spender",
          "type": "address"
        }
      ],
      "name": "allowance",
      "outputs": [
        {
          "internalType": "uint256",
          "name": "",
          "type": "uint256"
        }
      ],
      "stateMutability": "view",
      "type": "function"
    },
    {
      "inputs": [],
      "name": "getLatestAlpha",
      "outputs": [
        {
          "internalType": "uint256",
          "name": "",
          "type": "uint256"
        }
      ],
      "stateMutability": "view",
      "type": "function"
    },
    {
      "inputs": [
        {
          "internalType": "address",
          "name": "account",
          "type": "address"
        }
      ],
      "name": "availableBalanceOf",
      "outputs": [
        {
          "internalType": "uint256",
          "name": "balance",
          "type": "uint256"
        }
      ],
      "stateMutability": "view",
      "type": "function"
    },
    {
      "inputs": [
        {
          "internalType": "address",
          "name": "account",
          "type": "address"
        }
      ],
      "name": "dodoBalanceOf",
      "outputs": [
        {
          "internalType": "uint256",
          "name": "dodoAmount",
          "type": "uint256"
        }
      ],
      "stateMutability": "view",
      "type": "function"
    },
    {
      "inputs": [
        {
          "internalType": "uint256",
          "name": "dodoAmount",
          "type": "uint256"
        }
      ],
      "name": "getWithdrawResult",
      "outputs": [
        {
          "internalType": "uint256",
          "name": "dodoReceive",
          "type": "uint256"
        },
        {
          "internalType": "uint256",
          "name": "burnDodoAmount",
          "type": "uint256"
        },
        {
          "internalType": "uint256",
          "name": "withdrawFeeDodoAmount",
          "type": "uint256"
        }
      ],
      "stateMutability": "view",
      "type": "function"
    },
    {
      "inputs": [],
      "name": "getDODOWithdrawFeeRatio",
      "outputs": [
        {
          "internalType": "uint256",
          "name": "feeRatio",
          "type": "uint256"
        }
      ],
      "stateMutability": "view",
      "type": "function"
    },
    {
      "inputs": [
        {
          "internalType": "address",
          "name": "account",
          "type": "address"
        }
      ],
      "name": "getSuperior",
      "outputs": [
        {
          "internalType": "address",
          "name": "superior",
          "type": "address"
        }
      ],
      "stateMutability": "view",
      "type": "function"
    }
  ],
  "bytecode": "0x610120604052600b60e08190526a3b2227a227902a37b5b2b760a91b6101009081526200003091600291906200011b565b506040805180820190915260058082526476444f444f60d81b60209092019182526200005f916003916200011b565b506004805460ff19166012179055600a80546001600160801b031916670de0b6b3a76400001790553480156200009457600080fd5b50604051620025b8380380620025b8833981016040819052620000b791620001de565b600680546001600160a01b039095166001600160a01b0319909516949094179093556001600160601b0319606092831b811660805290821b811660a052600a80546001600160801b03438116600160801b02911617905591901b1660c0526200023e565b828054600181600116156101000203166002900490600052602060002090601f016020900481019282601f106200015e57805160ff19168380011785556200018e565b828001600101855582156200018e579182015b828111156200018e57825182559160200191906001019062000171565b506200019c929150620001a0565b5090565b620001bd91905b808211156200019c5760008155600101620001a7565b90565b80516001600160a01b0381168114620001d857600080fd5b92915050565b60008060008060808587031215620001f4578384fd5b620002008686620001c0565b9350620002118660208701620001c0565b9250620002228660408701620001c0565b9150620002338660608701620001c0565b905092959194509250565b60805160601c60a05160601c60c05160601c6123216200029760003980610aa9525080610b5c52806114735250806106555280610b895280610ff252806110ae528061122452806112c652806114a052506123216000f3fe608060405234801561001057600080fd5b50600436106102485760003560e01c8063a9059cbb1161013b578063db1d0fd5116100b8578063eec2cc501161007c578063eec2cc5014610498578063f14faf6f146104a0578063f2fde38b146104b3578063f3a37cd2146104c6578063f9eaa5df146104d957610248565b8063db1d0fd51461045a578063db2e21bc14610462578063db90c3181461046a578063dd62ed3e14610472578063e401b5ba1461048557610248565b8063bcb86052116100ff578063bcb860521461040d578063c39eabf51461042f578063ce71b65c14610437578063d2b5c5dd1461043f578063d65a06b01461044757610248565b8063a9059cbb146103b7578063a9f8d181146103ca578063b2561263146103df578063b420901a146103f2578063b6617a1a1461040557610248565b8063443355e5116101c957806374083bbf1161018d57806374083bbf146103795780638456db151461038157806394bf804d1461038957806395d89b411461039c57806396153967146103a457610248565b8063443355e51461033b5780634e71e0c81461034e5780635de65173146103565780636d401f711461035e57806370a082311461036657610248565b80631959a002116102105780631959a002146102ca57806323b872dd146102ed57806325d998bb14610300578063300773cd14610313578063313ce5671461032657610248565b806306fdde031461024d578063095ea7b31461026b5780630d0092971461028b57806316048bc4146102a057806318160ddd146102b5575b600080fd5b6102556104e1565b6040516102629190611eca565b60405180910390f35b61027e610279366004611d3a565b61056c565b6040516102629190611ebf565b61029e610299366004611cab565b6105d7565b005b6102a8610640565b6040516102629190611e1e565b6102bd61064f565b6040516102629190612298565b6102dd6102d8366004611cab565b6106fc565b6040516102629493929190612266565b61027e6102fb366004611cfa565b61073a565b6102bd61030e366004611cab565b6107f2565b61029e610321366004611d9c565b6108ba565b61032e61092c565b60405161026291906122b7565b6102a8610349366004611cab565b610935565b61029e610956565b6102a86109e4565b6102bd6109f3565b6102bd610374366004611cab565b6109f9565b6102bd610a14565b6102a8610a1a565b61029e610397366004611dcc565b610a29565b610255610c50565b6102bd6103b2366004611cab565b610cab565b61027e6103c5366004611d3a565b610d2c565b6103d2610d4a565b6040516102629190612252565b61029e6103ed366004611cab565b610d60565b61029e610400366004611d9c565b610dac565b6102bd610e0b565b61042061041b366004611d9c565b610e10565b604051610262939291906122a1565b61027e610ee3565b6102bd610ef3565b6102bd610ef9565b61029e610455366004611def565b610f05565b6103d26111d1565b61029e6111e0565b6102bd611354565b6102bd610480366004611cc6565b6113d6565b61029e610493366004611cab565b611401565b6102a861144d565b61029e6104ae366004611d9c565b61145c565b61029e6104c1366004611cab565b611532565b61029e6104d4366004611d64565b6115b7565b6102bd611628565b6002805460408051602060018416156101000260001901909316849004601f810184900484028201840190925281815292918301828280156105645780601f1061053957610100808354040283529160200191610564565b820191906000526020600020905b81548152906001019060200180831161054757829003601f168201915b505050505081565b3360008181526005602090815260408083206001600160a01b038716808552925280832085905551919290917f8c5be1e5ebec7d5bd14f71427d1e84f3dd0314c0f7b2291e5b200ac8c7c3b925906105c5908690612298565b60405180910390a35060015b92915050565b600154600160a01b900460ff161561060a5760405162461bcd60e51b81526004016106019061211f565b60405180910390fd5b6001805460ff60a01b1916600160a01b179055600080546001600160a01b039092166001600160a01b0319909216919091179055565b6000546001600160a01b031681565b600060647f00000000000000000000000000000000000000000000000000000000000000006001600160a01b03166370a08231306040518263ffffffff1660e01b815260040161069f9190611e1e565b60206040518083038186803b1580156106b757600080fd5b505afa1580156106cb573d6000803e3d6000fd5b505050506040513d601f19601f820116820180604052508101906106ef9190611db4565b816106f657fe5b04905090565b600c602052600090815260409020805460018201546002909201546001600160801b0380831693600160801b90930416916001600160a01b03169084565b6001600160a01b038316600090815260056020908152604080832033845290915281205482111561077d5760405162461bcd60e51b815260040161060190611fbf565b610785611678565b6107908484846116dd565b6001600160a01b03841660009081526005602090815260408083203384529091529020546107c4908363ffffffff61185916565b6001600160a01b03851660009081526005602090815260408083203384529091529020555060019392505050565b6006546000906001600160a01b03166108155761080e826109f9565b90506108b5565b6006546040516305ef02c760e31b81526000916001600160a01b031690632f78163890610846908690600401611e1e565b60206040518083038186803b15801561085e57600080fd5b505afa158015610872573d6000803e3d6000fd5b505050506040513d601f19601f820116820180604052508101906108969190611db4565b90506108b1816108a5856109f9565b9063ffffffff61185916565b9150505b919050565b6000546001600160a01b031633146108e45760405162461bcd60e51b8152600401610601906121b2565b6108ec611678565b60088190556040517feca81e4b546cfbc80883349ef5bdaca1c02dc7cb0bdb9e1183cb7698f90bbb8590610921908390612298565b60405180910390a150565b60045460ff1681565b6001600160a01b039081166000908152600c60205260409020600101541690565b6001546001600160a01b031633146109805760405162461bcd60e51b815260040161060190611f1d565b600154600080546040516001600160a01b0393841693909116917f8be0079c531659141344cd1fd0a4f28419497f9722a3daafe3b4186f6b6457e091a360018054600080546001600160a01b03199081166001600160a01b03841617909155169055565b6006546001600160a01b031681565b600b5481565b60006064610a0683610cab565b81610a0d57fe5b0492915050565b60085481565b6001546001600160a01b031681565b6001600160a01b03811615801590610a4a57506001600160a01b0381163314155b610a665760405162461bcd60e51b8152600401610601906121f8565b60008211610a865760405162461bcd60e51b81526004016106019061205b565b336000908152600c6020526040902060018101546001600160a01b0316610b3d577f00000000000000000000000000000000000000000000000000000000000000006001600160a01b0316826001600160a01b03161480610b0357506001600160a01b038281166000908152600c60205260409020600101541615155b610b1f5760405162461bcd60e51b815260040161060190611f44565b6001810180546001600160a01b0319166001600160a01b0384161790555b610b45611678565b60405163052f523360e11b81526001600160a01b037f00000000000000000000000000000000000000000000000000000000000000001690630a5ea46690610bb7907f000000000000000000000000000000000000000000000000000000000000000090339030908990600401611e95565b600060405180830381600087803b158015610bd157600080fd5b505af1158015610be5573d6000803e3d6000fd5b5050600a5460009250610c03915085906001600160801b0316611881565b9050610c0f82826118b2565b7fb299178f92646282937cbe7c9e854594cb5ef6330e03b43946086e9dc0ca9ecd338486604051610c4293929190611e32565b60405180910390a150505050565b6003805460408051602060026001851615610100026000190190941693909304601f810184900484028201840190925281815292918301828280156105645780601f1061053957610100808354040283529160200191610564565b6000610cb5611c6d565b506001600160a01b038083166000908152600c6020908152604091829020825160808101845281546001600160801b03808216808452600160801b9092041693820193909352600182015490941692840192909252600290910154606083018190526108b1916108a590610d27611628565b611a04565b6000610d36611678565b610d413384846116dd565b50600192915050565b600a54600160801b90046001600160801b031681565b6000546001600160a01b03163314610d8a5760405162461bcd60e51b8152600401610601906121b2565b600680546001600160a01b0319166001600160a01b0392909216919091179055565b6000546001600160a01b03163314610dd65760405162461bcd60e51b8152600401610601906121b2565b60098190556040517fff3692e8e3336aaee232986626f21d80be86e891d2122581acf795123af3e8a390610921908390612298565b606481565b600080600080600760009054906101000a90046001600160a01b03166001600160a01b031663def0d15d6040518163ffffffff1660e01b815260040160206040518083038186803b158015610e6457600080fd5b505afa158015610e78573d6000803e3d6000fd5b505050506040513d601f19601f82011682018060405250810190610e9c9190611db4565b9050610ea88582611a04565b9150610eba858363ffffffff61185916565b9350610ec882600954611a04565b9250610eda828463ffffffff61185916565b93959294505050565b600754600160a01b900460ff1681565b60095481565b67016345785d8a000081565b338280610f11836107f2565b1015610f2f5760405162461bcd60e51b815260040161060190612149565b610f37611678565b336000908152600c6020526040812090808515610fa4576002830154600a54610f8391610f6c916001600160801b0316611881565b84546001600160801b03169063ffffffff61185916565b600a54909150610f9d9082906001600160801b0316611a04565b9150610fd2565b610fb587606463ffffffff611a2e16565b600a54909250610fcf9083906001600160801b0316611881565b90505b610fdc8382611a68565b6000806000610fea85610e10565b9250925092507f00000000000000000000000000000000000000000000000000000000000000006001600160a01b031663a9059cbb33856040518363ffffffff1660e01b815260040161103e929190611e56565b602060405180830381600087803b15801561105857600080fd5b505af115801561106c573d6000803e3d6000fd5b505050506040513d601f19601f820116820180604052508101906110909190611d80565b50811561113a5760405163a9059cbb60e01b81526001600160a01b037f0000000000000000000000000000000000000000000000000000000000000000169063a9059cbb906110e6906000908690600401611e56565b602060405180830381600087803b15801561110057600080fd5b505af1158015611114573d6000803e3d6000fd5b505050506040513d601f19601f820116820180604052508101906111389190611d80565b505b80156111885761116761114f82600b54611881565b600a546001600160801b03169063ffffffff611c1e16565b600a80546001600160801b0319166001600160801b03929092169190911790555b7f10e8afa8e2aa45e6f179fcaa8538c699a53e253cda2b304d7fa46174527cedc3338484846040516111bd9493929190611e6f565b60405180910390a150505050505050505050565b600a546001600160801b031681565b6000546001600160a01b0316331461120a5760405162461bcd60e51b8152600401610601906121b2565b6040516370a0823160e01b81526000906001600160a01b037f000000000000000000000000000000000000000000000000000000000000000016906370a0823190611259903090600401611e1e565b60206040518083038186803b15801561127157600080fd5b505afa158015611285573d6000803e3d6000fd5b505050506040513d601f19601f820116820180604052508101906112a99190611db4565b60005460405163a9059cbb60e01b81529192506001600160a01b037f000000000000000000000000000000000000000000000000000000000000000081169263a9059cbb926112fe9216908590600401611e56565b602060405180830381600087803b15801561131857600080fd5b505af115801561132c573d6000803e3d6000fd5b505050506040513d601f19601f820116820180604052508101906113509190611d80565b5050565b6007546040805163def0d15d60e01b815290516000926001600160a01b03169163def0d15d916004808301926020929190829003018186803b15801561139957600080fd5b505afa1580156113ad573d6000803e3d6000fd5b505050506040513d601f19601f820116820180604052508101906113d19190611db4565b905090565b6001600160a01b03918216600090815260056020908152604080832093909416825291909152205490565b6000546001600160a01b0316331461142b5760405162461bcd60e51b8152600401610601906121b2565b600780546001600160a01b0319166001600160a01b0392909216919091179055565b6007546001600160a01b031681565b60405163052f523360e11b81526001600160a01b037f00000000000000000000000000000000000000000000000000000000000000001690630a5ea466906114ce907f000000000000000000000000000000000000000000000000000000000000000090339030908790600401611e95565b600060405180830381600087803b1580156114e857600080fd5b505af11580156114fc573d6000803e3d6000fd5b5050505061150f61114f82600b54611881565b600a80546001600160801b0319166001600160801b039290921691909117905550565b6000546001600160a01b0316331461155c5760405162461bcd60e51b8152600401610601906121b2565b600080546040516001600160a01b03808516939216917fdcf55418cee3220104fef63f979ff3c4097ad240c0c43dcb33ce837748983e6291a3600180546001600160a01b0319166001600160a01b0392909216919091179055565b6000546001600160a01b031633146115e15760405162461bcd60e51b8152600401610601906121b2565b6007805460ff60a01b1916600160a01b831515021790556040517f8faf67cb6de7f4aed6e2791474b60016b6cb2b4e756529701e7863892e46869490610921908390611ebf565b600a54600854600b54600092600160801b90046001600160801b0316430390910290156116665761165e61114f82600b54611881565b915050611675565b5050600a546001600160801b03165b90565b6000611682611628565b90506001600160801b038111156116ab5760405162461bcd60e51b815260040161060190612190565b600a8054436001600160801b03908116600160801b029381166001600160801b03199092169190911716919091179055565b600754600160a01b900460ff166117065760405162461bcd60e51b81526004016106019061209f565b828180611712836107f2565b10156117305760405162461bcd60e51b815260040161060190612149565b6001600160a01b0385166117565760405162461bcd60e51b815260040161060190611f88565b6001600160a01b03841661177c5760405162461bcd60e51b815260040161060190611fed565b836001600160a01b0316856001600160a01b031614156117ae5760405162461bcd60e51b815260040161060190612024565b600a546000906117cb9060648602906001600160801b0316611881565b6001600160a01b038088166000908152600c602052604080822092891682529020919250906117fa8284611a68565b61180481846118b2565b866001600160a01b0316886001600160a01b03167fddf252ad1be2c89b69c2b068fc378daa952ba7f163c4a11628f55a4df523b3ef886040516118479190612298565b60405180910390a35050505050505050565b60008282111561187b5760405162461bcd60e51b8152600401610601906120fc565b50900390565b60006118ab8261189f85670de0b6b3a764000063ffffffff611a2e16565b9063ffffffff611c4316565b9392505050565b6001600160801b038111156118d95760405162461bcd60e51b815260040161060190612190565b60018201546001600160a01b03166000908152600c60205260408120906119088367016345785d8a0000611a04565b600a549091506000906119259083906001600160801b0316611a04565b8554909150611943906001600160801b03168563ffffffff611c1e16565b85546001600160801b0319166001600160801b039182161780875561197191600160801b9091041683611c1e565b85546001600160801b03918216600160801b02908216178655835461199d91168363ffffffff611c1e16565b83546001600160801b0319166001600160801b039190911617835560028301546119c79082611c1e565b6001600160801b03166002840155600b546119fa9083906119ee908763ffffffff611c1e16565b9063ffffffff611c1e16565b600b555050505050565b6000670de0b6b3a7640000611a1f848463ffffffff611a2e16565b81611a2657fe5b049392505050565b600082611a3d575060006105d1565b82820282848281611a4a57fe5b04146118ab5760405162461bcd60e51b81526004016106019061222f565b8154611a83906001600160801b03168263ffffffff61185916565b82546001600160801b0319166001600160801b03919091161782556000611ab28267016345785d8a0000611a04565b8354909150600160801b90046001600160801b0316811015611ad45780611ae7565b8254600160801b90046001600160801b03165b8354909150611b0690600160801b90046001600160801b031682611859565b83546001600160801b03918216600160801b0290821617845560018401546001600160a01b03166000908152600c602052604081206002810154600a549193611b4f9216611881565b9050808310611b9a57600060028301558154611b7a906001600160801b03168263ffffffff61185916565b82546001600160801b0319166001600160801b0391909116178255611c05565b600a54611bc690611bb59085906001600160801b0316611a04565b60028401549063ffffffff61185916565b6001600160801b0390811660028401558254611be991168463ffffffff61185916565b82546001600160801b0319166001600160801b03919091161782555b6119fa836108a586600b5461185990919063ffffffff16565b6000828201838110156118ab5760405162461bcd60e51b8152600401610601906121d5565b6000808211611c645760405162461bcd60e51b8152600401610601906120d4565b818381611a2657fe5b60408051608081018252600080825260208201819052918101829052606081019190915290565b80356001600160a01b03811681146105d157600080fd5b600060208284031215611cbc578081fd5b6118ab8383611c94565b60008060408385031215611cd8578081fd5b611ce28484611c94565b9150611cf18460208501611c94565b90509250929050565b600080600060608486031215611d0e578081fd5b8335611d19816122c5565b92506020840135611d29816122c5565b929592945050506040919091013590565b60008060408385031215611d4c578182fd5b611d568484611c94565b946020939093013593505050565b600060208284031215611d75578081fd5b81356118ab816122dd565b600060208284031215611d91578081fd5b81516118ab816122dd565b600060208284031215611dad578081fd5b5035919050565b600060208284031215611dc5578081fd5b5051919050565b60008060408385031215611dde578182fd5b82359150611cf18460208501611c94565b60008060408385031215611e01578182fd5b823591506020830135611e13816122dd565b809150509250929050565b6001600160a01b0391909116815260200190565b6001600160a01b039384168152919092166020820152604081019190915260600190565b6001600160a01b03929092168252602082015260400190565b6001600160a01b0394909416845260208401929092526040830152606082015260800190565b6001600160a01b039485168152928416602084015292166040820152606081019190915260800190565b901515815260200190565b6000602080835283518082850152825b81811015611ef657858101830151858201604001528201611eda565b81811115611f075783604083870101525b50601f01601f1916929092016040019392505050565b6020808252600d908201526c494e56414c49445f434c41494d60981b604082015260600190565b60208082526024908201527f76444f444f546f6b656e3a20494e56414c49445f5355504552494f525f4144446040820152635245535360e01b606082015260800190565b6020808252601e908201527f7472616e736665722066726f6d20746865207a65726f20616464726573730000604082015260600190565b60208082526014908201527308298989eae829c868abe9c9ea8be8a9c9eaa8e960631b604082015260600190565b6020808252601c908201527f7472616e7366657220746f20746865207a65726f206164647265737300000000604082015260600190565b6020808252601a908201527f7472616e736665722066726f6d2073616d65207769746820746f000000000000604082015260600190565b60208082526024908201527f76444f444f546f6b656e3a206d757374206d696e7420677265617465722074686040820152630616e20360e41b606082015260800190565b6020808252818101527f76444f444f546f6b656e3a206e6f7420616c6c6f776564207472616e73666572604082015260600190565b6020808252600e908201526d2224ab24a224a723afa2a92927a960911b604082015260600190565b60208082526009908201526829aaa12fa2a92927a960b91b604082015260600190565b60208082526010908201526f1113d113d7d25392551250531256915160821b604082015260600190565b60208082526027908201527f76444f444f546f6b656e3a20617661696c61626c6520616d6f756e74206e6f74604082015266040cadcdeeaced60cb1b606082015260800190565b6020808252600890820152674f564552464c4f5760c01b604082015260600190565b6020808252600990820152682727aa2fa7aba722a960b91b604082015260600190565b60208082526009908201526820a2222fa2a92927a960b91b604082015260600190565b6020808252601c908201527f76444f444f546f6b656e3a205375706572696f7220494e56414c494400000000604082015260600190565b60208082526009908201526826aaa62fa2a92927a960b91b604082015260600190565b6001600160801b0391909116815260200190565b6001600160801b0394851681529290931660208301526001600160a01b03166040820152606081019190915260800190565b90815260200190565b9283526020830191909152604082015260600190565b60ff91909116815260200190565b6001600160a01b03811681146122da57600080fd5b50565b80151581146122da57600080fdfea26469706673582212204c28a45774225fcf75f06daab9aa136bbf52b3e6233c9c522b5f9a4c104fb31e64736f6c63430006090033",
  "immutableReferences": {
    "7400": [
      {
        "length": 32,
        "start": 1621
      },
      {
        "length": 32,
        "start": 2953
      },
      {
        "length": 32,
        "start": 4082
      },
      {
        "length": 32,
        "start": 4270
      },
      {
        "length": 32,
        "start": 4644
      },
      {
        "length": 32,
        "start": 4806
      },
      {
        "length": 32,
        "start": 5280
      }
    ],
    "7402": [
      {
        "length": 32,
        "start": 2908
      },
      {
        "length": 32,
        "start": 5235
      }
    ],
    "7404": [
      {
        "length": 32,
        "start": 2729
      }
    ]
  },
  "source": "/*\n\n    Copyright 2020 DODO ZOO.\n    SPDX-License-Identifier: Apache-2.0\n\n*/\npragma solidity 0.6.9;\npragma experimental ABIEncoderV2;\n\nimport {IERC20} from \"../intf/IERC20.sol\";\nimport {SafeMath} from \"../lib/SafeMath.sol\";\nimport {DecimalMath} from \"../lib/DecimalMath.sol\";\nimport {InitializableOwnable} from \"../lib/InitializableOwnable.sol\";\nimport {SafeERC20} from \"../lib/SafeERC20.sol\";\nimport {IDODOApproveProxy} from \"../SmartRoute/DODOApproveProxy.sol\";\n\ninterface IGovernance {\n    function getLockedvDODO(address account) external view returns (uint256);\n}\n\ninterface IDODOCirculationHelper {\n    // Locked vDOOD not counted in circulation\n    function getCirculation() external view returns (uint256);\n\n    function getDodoWithdrawFeeRatio() external view returns (uint256);\n}\n\ncontract vDODOToken is InitializableOwnable {\n    using SafeMath for uint256;\n\n    // ============ Storage(ERC20) ============\n\n    string public name = \"vDODO Token\";\n    string public symbol = \"vDODO\";\n    uint8 public decimals = 18;\n    mapping(address => mapping(address => uint256)) internal _ALLOWED_;\n\n    // ============ Storage ============\n\n    address immutable _DODO_TOKEN_;\n    address immutable _DODO_APPROVE_PROXY_;\n    address immutable _DODO_TEAM_;\n    address public _DOOD_GOV_;\n    address public _DODO_CIRCULATION_HELPER_;\n\n    bool public _CAN_TRANSFER_;\n\n    // staking reward parameters\n    uint256 public _DODO_PER_BLOCK_;\n    uint256 public constant _SUPERIOR_RATIO_ = 10**17; // 0.1\n    uint256 public constant _DODO_RATIO_ = 100; // 100\n    uint256 public _DODO_FEE_BURN_RATIO_;\n\n    // accounting\n    uint128 public alpha = 10**18; // 1\n    uint128 public lastRewardBlock;\n    uint256 public _TOTAL_STAKING_POWER_;\n    mapping(address => UserInfo) public userInfo;\n\n    struct UserInfo {\n        uint128 stakingPower;\n        uint128 superiorSP;\n        address superior;\n        uint256 credit;\n    }\n\n    // ============ Events ============\n\n    event MintVDODO(address user, address superior, uint256 mintDODO);\n    event RedeemVDODO(address user, uint256 receiveDODO, uint256 burnDODO, uint256 feeDODO);\n    event SetCantransfer(bool allowed);\n\n    event ChangePerReward(uint256 dodoPerBlock);\n    event UpdateDODOFeeBurnRatio(uint256 dodoFeeBurnRatio);\n\n    event Transfer(address indexed from, address indexed to, uint256 amount);\n    event Approval(address indexed owner, address indexed spender, uint256 amount);\n\n    // ============ Modifiers ============\n\n    modifier canTransfer() {\n        require(_CAN_TRANSFER_, \"vDODOToken: not allowed transfer\");\n        _;\n    }\n\n    modifier balanceEnough(address account, uint256 amount) {\n        require(availableBalanceOf(account) >= amount, \"vDODOToken: available amount not enough\");\n        _;\n    }\n\n    // ============ Constructor ============\n\n    constructor(\n        address dodoGov,\n        address dodoToken,\n        address dodoApproveProxy,\n        address dodoTeam\n    ) public {\n        _DOOD_GOV_ = dodoGov;\n        _DODO_TOKEN_ = dodoToken;\n        _DODO_APPROVE_PROXY_ = dodoApproveProxy;\n        lastRewardBlock = uint128(block.number);\n        _DODO_TEAM_ = dodoTeam;\n    }\n\n    // ============ Ownable Functions ============`\n\n    function setCantransfer(bool allowed) public onlyOwner {\n        _CAN_TRANSFER_ = allowed;\n        emit SetCantransfer(allowed);\n    }\n\n    function changePerReward(uint256 dodoPerBlock) public onlyOwner {\n        _updateAlpha();\n        _DODO_PER_BLOCK_ = dodoPerBlock;\n        emit ChangePerReward(dodoPerBlock);\n    }\n\n    function updateDODOFeeBurnRatio(uint256 dodoFeeBurnRatio) public onlyOwner {\n        _DODO_FEE_BURN_RATIO_ = dodoFeeBurnRatio;\n        emit UpdateDODOFeeBurnRatio(_DODO_FEE_BURN_RATIO_);\n    }\n\n    function updateDODOCirculationHelper(address helper) public onlyOwner {\n        _DODO_CIRCULATION_HELPER_ = helper;\n    }\n\n    function updateGovernance(address governance) public onlyOwner {\n        _DOOD_GOV_ = governance;\n    }\n\n    function emergencyWithdraw() public onlyOwner {\n        uint256 dodoBalance = IERC20(_DODO_TOKEN_).balanceOf(address(this));\n        IERC20(_DODO_TOKEN_).transfer(_OWNER_, dodoBalance);\n    }\n\n    // ============ Mint & Redeem & Donate ============\n\n    function mint(uint256 dodoAmount, address superiorAddress) public {\n        require(\n            superiorAddress != address(0) && superiorAddress != msg.sender,\n            \"vDODOToken: Superior INVALID\"\n        );\n        require(dodoAmount > 0, \"vDODOToken: must mint greater than 0\");\n\n        UserInfo storage user = userInfo[msg.sender];\n\n        if (user.superior == address(0)) {\n            require(\n                superiorAddress == _DODO_TEAM_ || userInfo[superiorAddress].superior != address(0),\n                \"vDODOToken: INVALID_SUPERIOR_ADDRESS\"\n            );\n            user.superior = superiorAddress;\n        }\n\n        _updateAlpha();\n\n        IDODOApproveProxy(_DODO_APPROVE_PROXY_).claimTokens(\n            _DODO_TOKEN_,\n            msg.sender,\n            address(this),\n            dodoAmount\n        );\n\n        uint256 newStakingPower = DecimalMath.divFloor(dodoAmount, alpha);\n\n        _mint(user, newStakingPower);\n\n        emit MintVDODO(msg.sender, superiorAddress, dodoAmount);\n    }\n\n    function redeem(uint256 vdodoAmount, bool all) public balanceEnough(msg.sender, vdodoAmount) {\n        _updateAlpha();\n        UserInfo storage user = userInfo[msg.sender];\n\n        uint256 dodoAmount;\n        uint256 stakingPower;\n\n        if (all) {\n            stakingPower = uint256(user.stakingPower).sub(DecimalMath.divFloor(user.credit, alpha));\n            dodoAmount = DecimalMath.mulFloor(stakingPower, alpha);\n        } else {\n            dodoAmount = vdodoAmount.mul(_DODO_RATIO_);\n            stakingPower = DecimalMath.divFloor(dodoAmount, alpha);\n        }\n\n        _redeem(user, stakingPower);\n\n        (uint256 dodoReceive, uint256 burnDodoAmount, uint256 withdrawFeeDodoAmount) =\n            getWithdrawResult(dodoAmount);\n        IERC20(_DODO_TOKEN_).transfer(msg.sender, dodoReceive);\n        if (burnDodoAmount > 0) {\n            IERC20(_DODO_TOKEN_).transfer(address(0), burnDodoAmount);\n        }\n        if (withdrawFeeDodoAmount > 0) {\n            alpha = uint128(\n                uint256(alpha).add(\n                    DecimalMath.divFloor(withdrawFeeDodoAmount, _TOTAL_STAKING_POWER_)\n                )\n            );\n        }\n\n        emit RedeemVDODO(msg.sender, dodoReceive, burnDodoAmount, withdrawFeeDodoAmount);\n    }\n\n    function donate(uint256 dodoAmount) public {\n        IDODOApproveProxy(_DODO_APPROVE_PROXY_).claimTokens(\n            _DODO_TOKEN_,\n            msg.sender,\n            address(this),\n            dodoAmount\n        );\n        alpha = uint128(\n            uint256(alpha).add(DecimalMath.divFloor(dodoAmount, _TOTAL_STAKING_POWER_))\n        );\n    }\n\n    // ============ ERC20 Functions ============\n\n    function totalSupply() public view returns (uint256 vDODOSupply) {\n        vDODOSupply = IERC20(_DODO_TOKEN_).balanceOf(address(this)) / _DODO_RATIO_;\n    }\n\n    function balanceOf(address account) public view returns (uint256 vDODOAmount) {\n        vDODOAmount = dodoBalanceOf(account) / _DODO_RATIO_;\n    }\n\n    function transfer(address to, uint256 vDODOAmount) public returns (bool) {\n        _updateAlpha();\n        _transfer(msg.sender, to, vDODOAmount);\n        return true;\n    }\n\n    function approve(address spender, uint256 vDODOAmount) public returns (bool) {\n        _ALLOWED_[msg.sender][spender] = vDODOAmount;\n        emit Approval(msg.sender, spender, vDODOAmount);\n        return true;\n    }\n\n    function transferFrom(\n        address from,\n        address to,\n        uint256 vDODOAmount\n    ) public returns (bool) {\n        require(vDODOAmount <= _ALLOWED_[from][msg.sender], \"ALLOWANCE_NOT_ENOUGH\");\n        _updateAlpha();\n        _transfer(from, to, vDODOAmount);\n        _ALLOWED_[from][msg.sender] = _ALLOWED_[from][msg.sender].sub(vDODOAmount);\n        return true;\n    }\n\n    function allowance(address owner, address spender) public view returns (uint256) {\n        return _ALLOWED_[owner][spender];\n    }\n\n    // ============ Helper Functions ============\n\n    function getLatestAlpha() public view returns (uint256) {\n        uint256 accuDODO = _DODO_PER_BLOCK_ * (block.number - lastRewardBlock);\n        if (_TOTAL_STAKING_POWER_ > 0) {\n            return uint256(alpha).add(DecimalMath.divFloor(accuDODO, _TOTAL_STAKING_POWER_));\n        } else {\n            return alpha;\n        }\n    }\n\n    function availableBalanceOf(address account) public view returns (uint256 balance) {\n        if (_DOOD_GOV_ == address(0)) {\n            balance = balanceOf(account);\n        } else {\n            uint256 lockedBalance = IGovernance(_DOOD_GOV_).getLockedvDODO(account);\n            balance = balanceOf(account).sub(lockedBalance);\n        }\n    }\n\n    function dodoBalanceOf(address account) public view returns (uint256 dodoAmount) {\n        UserInfo memory user = userInfo[account];\n        dodoAmount = DecimalMath.mulFloor(uint256(user.stakingPower), getLatestAlpha()).sub(\n            user.credit\n        );\n    }\n\n    function getWithdrawResult(uint256 dodoAmount)\n        public\n        view\n        returns (\n            uint256 dodoReceive,\n            uint256 burnDodoAmount,\n            uint256 withdrawFeeDodoAmount\n        )\n    {\n        uint256 feeRatio =\n            IDODOCirculationHelper(_DODO_CIRCULATION_HELPER_).getDodoWithdrawFeeRatio();\n\n        withdrawFeeDodoAmount = DecimalMath.mulFloor(dodoAmount, feeRatio);\n        dodoReceive = dodoAmount.sub(withdrawFeeDodoAmount);\n\n        burnDodoAmount = DecimalMath.mulFloor(withdrawFeeDodoAmount, _DODO_FEE_BURN_RATIO_);\n        withdrawFeeDodoAmount = withdrawFeeDodoAmount.sub(burnDodoAmount);\n    }\n\n    function getDODOWithdrawFeeRatio() public view returns (uint256 feeRatio) {\n        feeRatio = IDODOCirculationHelper(_DODO_CIRCULATION_HELPER_).getDodoWithdrawFeeRatio();\n    }\n\n    function getSuperior(address account) public view returns (address superior) {\n        return userInfo[account].superior;\n    }\n\n    // ============ Internal Functions ============\n\n    function _updateAlpha() internal {\n        uint256 newAlpha = getLatestAlpha();\n        require(newAlpha <= uint128(-1), \"OVERFLOW\");\n        alpha = uint128(newAlpha);\n        lastRewardBlock = uint128(block.number);\n    }\n\n    function _mint(UserInfo storage to, uint256 stakingPower) internal {\n        require(stakingPower <= uint128(-1), \"OVERFLOW\");\n        UserInfo storage superior = userInfo[to.superior];\n        uint256 superiorIncreSP = DecimalMath.mulFloor(stakingPower, _SUPERIOR_RATIO_);\n        uint256 superiorIncreCredit = DecimalMath.mulFloor(superiorIncreSP, alpha);\n\n        to.stakingPower = uint128(uint256(to.stakingPower).add(stakingPower));\n        to.superiorSP = uint128(uint256(to.superiorSP).add(superiorIncreSP));\n\n        superior.stakingPower = uint128(uint256(superior.stakingPower).add(superiorIncreSP));\n        superior.credit = uint128(uint256(superior.credit).add(superiorIncreCredit));\n\n        _TOTAL_STAKING_POWER_ = _TOTAL_STAKING_POWER_.add(stakingPower).add(superiorIncreSP);\n    }\n\n    function _redeem(UserInfo storage from, uint256 stakingPower) internal {\n        from.stakingPower = uint128(uint256(from.stakingPower).sub(stakingPower));\n\n        // superior decrease sp = min(stakingPower*0.1, from.superiorSP)\n        uint256 superiorDecreSP = DecimalMath.mulFloor(stakingPower, _SUPERIOR_RATIO_);\n        superiorDecreSP = from.superiorSP <= superiorDecreSP ? from.superiorSP : superiorDecreSP;\n        from.superiorSP = uint128(uint256(from.superiorSP).sub(superiorDecreSP));\n\n        UserInfo storage superior = userInfo[from.superior];\n        uint256 creditSP = DecimalMath.divFloor(superior.credit, alpha);\n\n        if (superiorDecreSP >= creditSP) {\n            superior.credit = 0;\n            superior.stakingPower = uint128(uint256(superior.stakingPower).sub(creditSP));\n        } else {\n            superior.credit = uint128(\n                uint256(superior.credit).sub(DecimalMath.mulFloor(superiorDecreSP, alpha))\n            );\n            superior.stakingPower = uint128(uint256(superior.stakingPower).sub(superiorDecreSP));\n        }\n\n        _TOTAL_STAKING_POWER_ = _TOTAL_STAKING_POWER_.sub(stakingPower).sub(superiorDecreSP);\n    }\n\n    function _transfer(\n        address from,\n        address to,\n        uint256 vDODOAmount\n    ) internal canTransfer balanceEnough(from, vDODOAmount) {\n        require(from != address(0), \"transfer from the zero address\");\n        require(to != address(0), \"transfer to the zero address\");\n        require(from != to, \"transfer from same with to\");\n\n        uint256 stakingPower = DecimalMath.divFloor(vDODOAmount * _DODO_RATIO_, alpha);\n\n        UserInfo storage fromUser = userInfo[from];\n        UserInfo storage toUser = userInfo[to];\n\n        _redeem(fromUser, stakingPower);\n        _mint(toUser, stakingPower);\n\n        emit Transfer(from, to, vDODOAmount);\n    }\n}\n",
  "sourcePath": "/Users/niutaotao/projects/dodo/contractV2/contracts/DODOToken/vDODOToken.sol",
  "compiler": {
    "name": "solc",
    "version": "0.6.9+commit.3e3065ac.Emscripten.clang"
  },
  "schemaVersion": "3.3.2",
  "updatedAt": "2021-02-07T14:06:35.247Z",
  "devdoc": {
    "methods": {}
  },
  "userdoc": {
    "methods": {}
  }
}