{
  "contractName": "vDODOToken",
  "abi": [
    {
      "inputs": [
        {
          "internalType": "address",
          "name": "dodoGov",
          "type": "address"
        },
        {
          "internalType": "address",
          "name": "dodoToken",
          "type": "address"
        },
        {
          "internalType": "address",
          "name": "dodoApproveProxy",
          "type": "address"
        },
        {
          "internalType": "address",
          "name": "dodoTeam",
          "type": "address"
        }
      ],
      "stateMutability": "nonpayable",
      "type": "constructor"
    },
    {
      "anonymous": false,
      "inputs": [
        {
          "indexed": true,
          "internalType": "address",
          "name": "owner",
          "type": "address"
        },
        {
          "indexed": true,
          "internalType": "address",
          "name": "spender",
          "type": "address"
        },
        {
          "indexed": false,
          "internalType": "uint256",
          "name": "amount",
          "type": "uint256"
        }
      ],
      "name": "Approval",
      "type": "event"
    },
    {
      "anonymous": false,
      "inputs": [
        {
          "indexed": false,
          "internalType": "uint256",
          "name": "dodoPerBlock",
          "type": "uint256"
        }
      ],
      "name": "ChangePerReward",
      "type": "event"
    },
    {
      "anonymous": false,
      "inputs": [
        {
          "indexed": false,
          "internalType": "address",
          "name": "user",
          "type": "address"
        },
        {
          "indexed": false,
          "internalType": "uint256",
          "name": "donateDODO",
          "type": "uint256"
        }
      ],
      "name": "DonateDODO",
      "type": "event"
    },
    {
      "anonymous": false,
      "inputs": [
        {
          "indexed": false,
          "internalType": "address",
          "name": "user",
          "type": "address"
        },
        {
          "indexed": false,
          "internalType": "address",
          "name": "superior",
          "type": "address"
        },
        {
          "indexed": false,
          "internalType": "uint256",
          "name": "mintDODO",
          "type": "uint256"
        }
      ],
      "name": "MintVDODO",
      "type": "event"
    },
    {
      "anonymous": false,
      "inputs": [
        {
          "indexed": true,
          "internalType": "address",
          "name": "previousOwner",
          "type": "address"
        },
        {
          "indexed": true,
          "internalType": "address",
          "name": "newOwner",
          "type": "address"
        }
      ],
      "name": "OwnershipTransferPrepared",
      "type": "event"
    },
    {
      "anonymous": false,
      "inputs": [
        {
          "indexed": true,
          "internalType": "address",
          "name": "previousOwner",
          "type": "address"
        },
        {
          "indexed": true,
          "internalType": "address",
          "name": "newOwner",
          "type": "address"
        }
      ],
      "name": "OwnershipTransferred",
      "type": "event"
    },
    {
      "anonymous": false,
      "inputs": [
        {
          "indexed": false,
          "internalType": "uint256",
          "name": "dodoAmount",
          "type": "uint256"
        }
      ],
      "name": "PreDeposit",
      "type": "event"
    },
    {
      "anonymous": false,
      "inputs": [
        {
          "indexed": false,
          "internalType": "address",
          "name": "user",
          "type": "address"
        },
        {
          "indexed": false,
          "internalType": "uint256",
          "name": "receiveDODO",
          "type": "uint256"
        },
        {
          "indexed": false,
          "internalType": "uint256",
          "name": "burnDODO",
          "type": "uint256"
        },
        {
          "indexed": false,
          "internalType": "uint256",
          "name": "feeDODO",
          "type": "uint256"
        }
      ],
      "name": "RedeemVDODO",
      "type": "event"
    },
    {
      "anonymous": false,
      "inputs": [
        {
          "indexed": false,
          "internalType": "bool",
          "name": "allowed",
          "type": "bool"
        }
      ],
      "name": "SetCantransfer",
      "type": "event"
    },
    {
      "anonymous": false,
      "inputs": [
        {
          "indexed": true,
          "internalType": "address",
          "name": "from",
          "type": "address"
        },
        {
          "indexed": true,
          "internalType": "address",
          "name": "to",
          "type": "address"
        },
        {
          "indexed": false,
          "internalType": "uint256",
          "name": "amount",
          "type": "uint256"
        }
      ],
      "name": "Transfer",
      "type": "event"
    },
    {
      "anonymous": false,
      "inputs": [
        {
          "indexed": false,
          "internalType": "uint256",
          "name": "dodoFeeBurnRatio",
          "type": "uint256"
        }
      ],
      "name": "UpdateDODOFeeBurnRatio",
      "type": "event"
    },
    {
      "inputs": [],
      "name": "_CAN_TRANSFER_",
      "outputs": [
        {
          "internalType": "bool",
          "name": "",
          "type": "bool"
        }
      ],
      "stateMutability": "view",
      "type": "function"
    },
    {
      "inputs": [],
      "name": "_DODO_APPROVE_PROXY_",
      "outputs": [
        {
          "internalType": "address",
          "name": "",
          "type": "address"
        }
      ],
      "stateMutability": "view",
      "type": "function"
    },
    {
      "inputs": [],
      "name": "_DODO_CIRCULATION_HELPER_",
      "outputs": [
        {
          "internalType": "address",
          "name": "",
          "type": "address"
        }
      ],
      "stateMutability": "view",
      "type": "function"
    },
    {
      "inputs": [],
      "name": "_DODO_FEE_BURN_RATIO_",
      "outputs": [
        {
          "internalType": "uint256",
          "name": "",
          "type": "uint256"
        }
      ],
      "stateMutability": "view",
      "type": "function"
    },
    {
      "inputs": [],
      "name": "_DODO_PER_BLOCK_",
      "outputs": [
        {
          "internalType": "uint256",
          "name": "",
          "type": "uint256"
        }
      ],
      "stateMutability": "view",
      "type": "function"
    },
    {
      "inputs": [],
      "name": "_DODO_RATIO_",
      "outputs": [
        {
          "internalType": "uint256",
          "name": "",
          "type": "uint256"
        }
      ],
      "stateMutability": "view",
      "type": "function"
    },
    {
      "inputs": [],
      "name": "_DODO_TEAM_",
      "outputs": [
        {
          "internalType": "address",
          "name": "",
          "type": "address"
        }
      ],
      "stateMutability": "view",
      "type": "function"
    },
    {
      "inputs": [],
      "name": "_DODO_TOKEN_",
      "outputs": [
        {
          "internalType": "address",
          "name": "",
          "type": "address"
        }
      ],
      "stateMutability": "view",
      "type": "function"
    },
    {
      "inputs": [],
      "name": "_DOOD_GOV_",
      "outputs": [
        {
          "internalType": "address",
          "name": "",
          "type": "address"
        }
      ],
      "stateMutability": "view",
      "type": "function"
    },
    {
      "inputs": [],
      "name": "_LAST_REWARD_BLOCK_",
      "outputs": [
        {
          "internalType": "uint32",
          "name": "",
          "type": "uint32"
        }
      ],
      "stateMutability": "view",
      "type": "function"
    },
    {
      "inputs": [],
      "name": "_NEW_OWNER_",
      "outputs": [
        {
          "internalType": "address",
          "name": "",
          "type": "address"
        }
      ],
      "stateMutability": "view",
      "type": "function"
    },
    {
      "inputs": [],
      "name": "_OWNER_",
      "outputs": [
        {
          "internalType": "address",
          "name": "",
          "type": "address"
        }
      ],
      "stateMutability": "view",
      "type": "function"
    },
    {
      "inputs": [],
      "name": "_SUPERIOR_RATIO_",
      "outputs": [
        {
          "internalType": "uint256",
          "name": "",
          "type": "uint256"
        }
      ],
      "stateMutability": "view",
      "type": "function"
    },
    {
      "inputs": [],
      "name": "_TOTAL_BLOCK_DISTRIBUTION_",
      "outputs": [
        {
          "internalType": "uint112",
          "name": "",
          "type": "uint112"
        }
      ],
      "stateMutability": "view",
      "type": "function"
    },
    {
      "inputs": [],
      "name": "_TOTAL_BLOCK_REWARD_",
      "outputs": [
        {
          "internalType": "uint256",
          "name": "",
          "type": "uint256"
        }
      ],
      "stateMutability": "view",
      "type": "function"
    },
    {
      "inputs": [],
      "name": "_TOTAL_STAKING_POWER_",
      "outputs": [
        {
          "internalType": "uint256",
          "name": "",
          "type": "uint256"
        }
      ],
      "stateMutability": "view",
      "type": "function"
    },
    {
      "inputs": [],
      "name": "alpha",
      "outputs": [
        {
          "internalType": "uint112",
          "name": "",
          "type": "uint112"
        }
      ],
      "stateMutability": "view",
      "type": "function"
    },
    {
      "inputs": [],
      "name": "claimOwnership",
      "outputs": [],
      "stateMutability": "nonpayable",
      "type": "function"
    },
    {
      "inputs": [],
      "name": "decimals",
      "outputs": [
        {
          "internalType": "uint8",
          "name": "",
          "type": "uint8"
        }
      ],
      "stateMutability": "view",
      "type": "function"
    },
    {
      "inputs": [
        {
          "internalType": "address",
          "name": "newOwner",
          "type": "address"
        }
      ],
      "name": "initOwner",
      "outputs": [],
      "stateMutability": "nonpayable",
      "type": "function"
    },
    {
      "inputs": [],
      "name": "name",
      "outputs": [
        {
          "internalType": "string",
          "name": "",
          "type": "string"
        }
      ],
      "stateMutability": "view",
      "type": "function"
    },
    {
      "inputs": [],
      "name": "symbol",
      "outputs": [
        {
          "internalType": "string",
          "name": "",
          "type": "string"
        }
      ],
      "stateMutability": "view",
      "type": "function"
    },
    {
      "inputs": [
        {
          "internalType": "address",
          "name": "newOwner",
          "type": "address"
        }
      ],
      "name": "transferOwnership",
      "outputs": [],
      "stateMutability": "nonpayable",
      "type": "function"
    },
    {
      "inputs": [
        {
          "internalType": "address",
          "name": "",
          "type": "address"
        }
      ],
      "name": "userInfo",
      "outputs": [
        {
          "internalType": "uint128",
          "name": "stakingPower",
          "type": "uint128"
        },
        {
          "internalType": "uint128",
          "name": "superiorSP",
          "type": "uint128"
        },
        {
          "internalType": "address",
          "name": "superior",
          "type": "address"
        },
        {
          "internalType": "uint256",
          "name": "credit",
          "type": "uint256"
        }
      ],
      "stateMutability": "view",
      "type": "function"
    },
    {
      "inputs": [
        {
          "internalType": "bool",
          "name": "allowed",
          "type": "bool"
        }
      ],
      "name": "setCantransfer",
      "outputs": [],
      "stateMutability": "nonpayable",
      "type": "function"
    },
    {
      "inputs": [
        {
          "internalType": "uint256",
          "name": "dodoPerBlock",
          "type": "uint256"
        }
      ],
      "name": "changePerReward",
      "outputs": [],
      "stateMutability": "nonpayable",
      "type": "function"
    },
    {
      "inputs": [
        {
          "internalType": "uint256",
          "name": "dodoFeeBurnRatio",
          "type": "uint256"
        }
      ],
      "name": "updateDODOFeeBurnRatio",
      "outputs": [],
      "stateMutability": "nonpayable",
      "type": "function"
    },
    {
      "inputs": [
        {
          "internalType": "address",
          "name": "helper",
          "type": "address"
        }
      ],
      "name": "updateDODOCirculationHelper",
      "outputs": [],
      "stateMutability": "nonpayable",
      "type": "function"
    },
    {
      "inputs": [
        {
          "internalType": "address",
          "name": "governance",
          "type": "address"
        }
      ],
      "name": "updateGovernance",
      "outputs": [],
      "stateMutability": "nonpayable",
      "type": "function"
    },
    {
      "inputs": [],
      "name": "emergencyWithdraw",
      "outputs": [],
      "stateMutability": "nonpayable",
      "type": "function"
    },
    {
      "inputs": [
        {
          "internalType": "uint256",
          "name": "dodoAmount",
          "type": "uint256"
        },
        {
          "internalType": "address",
          "name": "superiorAddress",
          "type": "address"
        }
      ],
      "name": "mint",
      "outputs": [],
      "stateMutability": "nonpayable",
      "type": "function"
    },
    {
      "inputs": [
        {
          "internalType": "uint256",
          "name": "vdodoAmount",
          "type": "uint256"
        },
        {
          "internalType": "bool",
          "name": "all",
          "type": "bool"
        }
      ],
      "name": "redeem",
      "outputs": [],
      "stateMutability": "nonpayable",
      "type": "function"
    },
    {
      "inputs": [
        {
          "internalType": "uint256",
          "name": "dodoAmount",
          "type": "uint256"
        }
      ],
      "name": "donate",
      "outputs": [],
      "stateMutability": "nonpayable",
      "type": "function"
    },
    {
      "inputs": [
        {
          "internalType": "uint256",
          "name": "dodoAmount",
          "type": "uint256"
        }
      ],
      "name": "preDepositedBlockReward",
      "outputs": [],
      "stateMutability": "nonpayable",
      "type": "function"
    },
    {
      "inputs": [],
      "name": "totalSupply",
      "outputs": [
        {
          "internalType": "uint256",
          "name": "vDODOSupply",
          "type": "uint256"
        }
      ],
      "stateMutability": "view",
      "type": "function"
    },
    {
      "inputs": [
        {
          "internalType": "address",
          "name": "account",
          "type": "address"
        }
      ],
      "name": "balanceOf",
      "outputs": [
        {
          "internalType": "uint256",
          "name": "vDODOAmount",
          "type": "uint256"
        }
      ],
      "stateMutability": "view",
      "type": "function"
    },
    {
      "inputs": [
        {
          "internalType": "address",
          "name": "to",
          "type": "address"
        },
        {
          "internalType": "uint256",
          "name": "vDODOAmount",
          "type": "uint256"
        }
      ],
      "name": "transfer",
      "outputs": [
        {
          "internalType": "bool",
          "name": "",
          "type": "bool"
        }
      ],
      "stateMutability": "nonpayable",
      "type": "function"
    },
    {
      "inputs": [
        {
          "internalType": "address",
          "name": "spender",
          "type": "address"
        },
        {
          "internalType": "uint256",
          "name": "vDODOAmount",
          "type": "uint256"
        }
      ],
      "name": "approve",
      "outputs": [
        {
          "internalType": "bool",
          "name": "",
          "type": "bool"
        }
      ],
      "stateMutability": "nonpayable",
      "type": "function"
    },
    {
      "inputs": [
        {
          "internalType": "address",
          "name": "from",
          "type": "address"
        },
        {
          "internalType": "address",
          "name": "to",
          "type": "address"
        },
        {
          "internalType": "uint256",
          "name": "vDODOAmount",
          "type": "uint256"
        }
      ],
      "name": "transferFrom",
      "outputs": [
        {
          "internalType": "bool",
          "name": "",
          "type": "bool"
        }
      ],
      "stateMutability": "nonpayable",
      "type": "function"
    },
    {
      "inputs": [
        {
          "internalType": "address",
          "name": "owner",
          "type": "address"
        },
        {
          "internalType": "address",
          "name": "spender",
          "type": "address"
        }
      ],
      "name": "allowance",
      "outputs": [
        {
          "internalType": "uint256",
          "name": "",
          "type": "uint256"
        }
      ],
      "stateMutability": "view",
      "type": "function"
    },
    {
      "inputs": [],
      "name": "getLatestAlpha",
      "outputs": [
        {
          "internalType": "uint256",
          "name": "newAlpha",
          "type": "uint256"
        },
        {
          "internalType": "uint256",
          "name": "curDistribution",
          "type": "uint256"
        }
      ],
      "stateMutability": "view",
      "type": "function"
    },
    {
      "inputs": [
        {
          "internalType": "address",
          "name": "account",
          "type": "address"
        }
      ],
      "name": "availableBalanceOf",
      "outputs": [
        {
          "internalType": "uint256",
          "name": "vDODOAmount",
          "type": "uint256"
        }
      ],
      "stateMutability": "view",
      "type": "function"
    },
    {
      "inputs": [
        {
          "internalType": "address",
          "name": "account",
          "type": "address"
        }
      ],
      "name": "dodoBalanceOf",
      "outputs": [
        {
          "internalType": "uint256",
          "name": "dodoAmount",
          "type": "uint256"
        }
      ],
      "stateMutability": "view",
      "type": "function"
    },
    {
      "inputs": [
        {
          "internalType": "uint256",
          "name": "dodoAmount",
          "type": "uint256"
        }
      ],
      "name": "getWithdrawResult",
      "outputs": [
        {
          "internalType": "uint256",
          "name": "dodoReceive",
          "type": "uint256"
        },
        {
          "internalType": "uint256",
          "name": "burnDodoAmount",
          "type": "uint256"
        },
        {
          "internalType": "uint256",
          "name": "withdrawFeeDodoAmount",
          "type": "uint256"
        }
      ],
      "stateMutability": "view",
      "type": "function"
    },
    {
      "inputs": [],
      "name": "getDODOWithdrawFeeRatio",
      "outputs": [
        {
          "internalType": "uint256",
          "name": "feeRatio",
          "type": "uint256"
        }
      ],
      "stateMutability": "view",
      "type": "function"
    },
    {
      "inputs": [
        {
          "internalType": "address",
          "name": "account",
          "type": "address"
        }
      ],
      "name": "getSuperior",
      "outputs": [
        {
          "internalType": "address",
          "name": "superior",
          "type": "address"
        }
      ],
      "stateMutability": "view",
      "type": "function"
    }
  ],
  "bytecode": "0x610120604052600b60e08190526a3b2227a227902a37b5b2b760a91b61010090815262000030916002919062000101565b506040805180820190915260058082526476444f444f60d81b60209092019182526200005f9160039162000101565b506004805460ff19166012179055600a80546001600160701b031916670de0b6b3a76400001790553480156200009457600080fd5b506040516200294638038062002946833981016040819052620000b791620001c4565b600680546001600160a01b039095166001600160a01b0319909516949094179093556001600160601b0319606092831b811660805290821b811660a05291901b1660c05262000224565b828054600181600116156101000203166002900490600052602060002090601f016020900481019282601f106200014457805160ff191683800117855562000174565b8280016001018555821562000174579182015b828111156200017457825182559160200191906001019062000157565b506200018292915062000186565b5090565b620001a391905b808211156200018257600081556001016200018d565b90565b80516001600160a01b0381168114620001be57600080fd5b92915050565b60008060008060808587031215620001da578384fd5b620001e68686620001a6565b9350620001f78660208701620001a6565b9250620002088660408701620001a6565b9150620002198660608701620001a6565b905092959194509250565b60805160601c60a05160601c60c05160601c6126b06200029660003980610cff5280611083525080610b375280610db252806116e4528061172c5250806107195280610a4f5280610b645280610ddf5280611287528061134352806114b9528061155b528061175952506126b06000f3fe608060405234801561001057600080fd5b506004361061028a5760003560e01c806395d89b411161015c578063d65a06b0116100ce578063eb99be1211610087578063eb99be121461051a578063eec2cc5014610522578063f14faf6f1461052a578063f2fde38b1461053d578063f3a37cd214610550578063f9eaa5df146105635761028a565b8063d65a06b0146104c9578063db1d0fd5146104dc578063db2e21bc146104e4578063db90c318146104ec578063dd62ed3e146104f4578063e401b5ba146105075761028a565b8063b6617a1a11610120578063b6617a1a1461047f578063b88c4f3314610487578063bcb860521461048f578063c39eabf5146104b1578063ce71b65c146104b9578063d2b5c5dd146104c15761028a565b806395d89b411461042b5780639615396714610433578063a9059cbb14610446578063b256126314610459578063b420901a1461046c5761028a565b8063443355e5116102005780636d401f71116101b95780636d401f71146103d857806370a08231146103e057806374083bbf146103f35780637cf834e1146103fb5780638456db151461041057806394bf804d146104185761028a565b8063443355e5146103855780634e71e0c8146103985780635400e36f146103a057806354015ea8146103b357806354087b21146103bb5780635de65173146103d05761028a565b80631959a002116102525780631959a0021461030c57806323b872dd1461032f57806325d998bb14610342578063300773cd14610355578063313ce5671461036857806334cf13321461037d5761028a565b806306fdde031461028f578063095ea7b3146102ad5780630d009297146102cd57806316048bc4146102e257806318160ddd146102f7575b600080fd5b610297610579565b6040516102a4919061223a565b60405180910390f35b6102c06102bb3660046120aa565b610604565b6040516102a4919061222f565b6102e06102db36600461201b565b6106a5565b005b6102ea610705565b6040516102a4919061218e565b6102ff610714565b6040516102a49190612608565b61031f61031a36600461201b565b610814565b6040516102a494939291906125d6565b6102c061033d36600461206a565b610852565b6102ff61035036600461201b565b61090a565b6102e061036336600461210c565b6109d2565b610370610a44565b6040516102a49190612646565b6102ea610a4d565b6102ea61039336600461201b565b610a71565b6102e0610a92565b6102e06103ae36600461210c565b610b20565b6102ff610c0b565b6103c3610c11565b6040516102a491906125c2565b6102ea610c27565b6102ff610c36565b6102ff6103ee36600461201b565b610c3c565b6102ff610c57565b610403610c5d565b6040516102a49190612635565b6102ea610c70565b6102e061042636600461213c565b610c7f565b610297610ea6565b6102ff61044136600461201b565b610f01565b6102c06104543660046120aa565b610fb3565b6102e061046736600461201b565b610fd1565b6102e061047a36600461210c565b61101d565b6102ff61107c565b6102ea611081565b6104a261049d36600461210c565b6110a5565b6040516102a49392919061261f565b6102c0611178565b6102ff611188565b6102ff61118e565b6102e06104d736600461215f565b61119a565b6103c3611466565b6102e0611475565b6102ff6115e9565b6102ff610502366004612036565b61166b565b6102e061051536600461201b565b611696565b6102ea6116e2565b6102ea611706565b6102e061053836600461210c565b611715565b6102e061054b36600461201b565b61181a565b6102e061055e3660046120d4565b61189f565b61056b611910565b6040516102a4929190612611565b6002805460408051602060018416156101000260001901909316849004601f810184900484028201840190925281815292918301828280156105fc5780601f106105d1576101008083540402835291602001916105fc565b820191906000526020600020905b8154815290600101906020018083116105df57829003601f168201915b505050505081565b600754600090600160a01b900460ff166106395760405162461bcd60e51b81526004016106309061240f565b60405180910390fd5b3360008181526005602090815260408083206001600160a01b03881680855292529182902085905590519091907f8c5be1e5ebec7d5bd14f71427d1e84f3dd0314c0f7b2291e5b200ac8c7c3b92590610693908690612608565b60405180910390a35060015b92915050565b600154600160a01b900460ff16156106cf5760405162461bcd60e51b81526004016106309061248f565b6001805460ff60a01b1916600160a01b179055600080546001600160a01b039092166001600160a01b0319909216919091179055565b6000546001600160a01b031681565b6000807f00000000000000000000000000000000000000000000000000000000000000006001600160a01b03166370a08231306040518263ffffffff1660e01b8152600401610763919061218e565b60206040518083038186803b15801561077b57600080fd5b505afa15801561078f573d6000803e3d6000fd5b505050506040513d601f19601f820116820180604052508101906107b39190612124565b905060006107bf611910565b600a5490925060009150610808906107fb906107ec908590600160701b90046001600160701b031661197b565b600b549063ffffffff6119a716565b849063ffffffff6119a716565b60649004949350505050565b600d602052600090815260409020805460018201546002909201546001600160801b0380831693600160801b90930416916001600160a01b03169084565b6001600160a01b03831660009081526005602090815260408083203384529091528120548211156108955760405162461bcd60e51b81526004016106309061232f565b61089d6119cf565b6108a8848484611a98565b6001600160a01b03841660009081526005602090815260408083203384529091529020546108dc908363ffffffff6119a716565b6001600160a01b03851660009081526005602090815260408083203384529091529020555060019392505050565b6006546000906001600160a01b031661092d5761092682610c3c565b90506109cd565b6006546040516305ef02c760e31b81526000916001600160a01b031690632f7816389061095e90869060040161218e565b60206040518083038186803b15801561097657600080fd5b505afa15801561098a573d6000803e3d6000fd5b505050506040513d601f19601f820116820180604052508101906109ae9190612124565b90506109c9816109bd85610c3c565b9063ffffffff6119a716565b9150505b919050565b6000546001600160a01b031633146109fc5760405162461bcd60e51b815260040161063090612522565b610a046119cf565b60088190556040517feca81e4b546cfbc80883349ef5bdaca1c02dc7cb0bdb9e1183cb7698f90bbb8590610a39908390612608565b60405180910390a150565b60045460ff1681565b7f000000000000000000000000000000000000000000000000000000000000000081565b6001600160a01b039081166000908152600d60205260409020600101541690565b6001546001600160a01b03163314610abc5760405162461bcd60e51b81526004016106309061228d565b600154600080546040516001600160a01b0393841693909116917f8be0079c531659141344cd1fd0a4f28419497f9722a3daafe3b4186f6b6457e091a360018054600080546001600160a01b03199081166001600160a01b03841617909155169055565b60405163052f523360e11b81526001600160a01b037f00000000000000000000000000000000000000000000000000000000000000001690630a5ea46690610b92907f000000000000000000000000000000000000000000000000000000000000000090339030908790600401612205565b600060405180830381600087803b158015610bac57600080fd5b505af1158015610bc0573d6000803e3d6000fd5b5050600b54610bd8925090508263ffffffff61197b16565b600b556040517fdee982458f84113ac3e32d44595820a6fa60cfbe80a1bdd444c26599ee5b7dd590610a39908390612608565b600b5481565b600a54600160701b90046001600160701b031681565b6006546001600160a01b031681565b600c5481565b60006064610c4983610f01565b81610c5057fe5b0492915050565b60085481565b600a54600160e01b900463ffffffff1681565b6001546001600160a01b031681565b6001600160a01b03811615801590610ca057506001600160a01b0381163314155b610cbc5760405162461bcd60e51b815260040161063090612568565b60008211610cdc5760405162461bcd60e51b8152600401610630906123cb565b336000908152600d6020526040902060018101546001600160a01b0316610d93577f00000000000000000000000000000000000000000000000000000000000000006001600160a01b0316826001600160a01b03161480610d5957506001600160a01b038281166000908152600d60205260409020600101541615155b610d755760405162461bcd60e51b8152600401610630906122b4565b6001810180546001600160a01b0319166001600160a01b0384161790555b610d9b6119cf565b60405163052f523360e11b81526001600160a01b037f00000000000000000000000000000000000000000000000000000000000000001690630a5ea46690610e0d907f000000000000000000000000000000000000000000000000000000000000000090339030908990600401612205565b600060405180830381600087803b158015610e2757600080fd5b505af1158015610e3b573d6000803e3d6000fd5b5050600a5460009250610e59915085906001600160701b0316611c14565b9050610e658282611c3e565b7fb299178f92646282937cbe7c9e854594cb5ef6330e03b43946086e9dc0ca9ecd338486604051610e98939291906121a2565b60405180910390a150505050565b6003805460408051602060026001851615610100026000190190941693909304601f810184900484028201840190925281815292918301828280156105fc5780601f106105d1576101008083540402835291602001916105fc565b6000610f0b611fdd565b506001600160a01b038083166000908152600d60209081526040808320815160808101835281546001600160801b038082168352600160801b90910416938101939093526001810154909416908201526002909201546060830152610f6e611910565b5090506000610f8a83600001516001600160801b031683611d90565b90508260600151811115610fa657826060015181039350610fab565b600093505b505050919050565b6000610fbd6119cf565b610fc8338484611a98565b50600192915050565b6000546001600160a01b03163314610ffb5760405162461bcd60e51b815260040161063090612522565b600680546001600160a01b0319166001600160a01b0392909216919091179055565b6000546001600160a01b031633146110475760405162461bcd60e51b815260040161063090612522565b60098190556040517fff3692e8e3336aaee232986626f21d80be86e891d2122581acf795123af3e8a390610a39908390612608565b606481565b7f000000000000000000000000000000000000000000000000000000000000000081565b600080600080600760009054906101000a90046001600160a01b03166001600160a01b031663def0d15d6040518163ffffffff1660e01b815260040160206040518083038186803b1580156110f957600080fd5b505afa15801561110d573d6000803e3d6000fd5b505050506040513d601f19601f820116820180604052508101906111319190612124565b905061113d8582611d90565b915061114f858363ffffffff6119a716565b935061115d82600954611d90565b925061116f828463ffffffff6119a716565b93959294505050565b600754600160a01b900460ff1681565b60095481565b67016345785d8a000081565b3382806111a68361090a565b10156111c45760405162461bcd60e51b8152600401610630906124b9565b6111cc6119cf565b336000908152600d6020526040812090808515611239576002830154600a5461121891611201916001600160701b0316611c14565b84546001600160801b03169063ffffffff6119a716565b600a549091506112329082906001600160701b0316611d90565b9150611267565b61124a87606463ffffffff611dba16565b600a549092506112649083906001600160701b0316611c14565b90505b6112718382611df4565b600080600061127f856110a5565b9250925092507f00000000000000000000000000000000000000000000000000000000000000006001600160a01b031663a9059cbb33856040518363ffffffff1660e01b81526004016112d39291906121c6565b602060405180830381600087803b1580156112ed57600080fd5b505af1158015611301573d6000803e3d6000fd5b505050506040513d601f19601f8201168201806040525081019061132591906120f0565b5081156113cf5760405163a9059cbb60e01b81526001600160a01b037f0000000000000000000000000000000000000000000000000000000000000000169063a9059cbb9061137b9060009086906004016121c6565b602060405180830381600087803b15801561139557600080fd5b505af11580156113a9573d6000803e3d6000fd5b505050506040513d601f19601f820116820180604052508101906113cd91906120f0565b505b801561141d576113fc6113e482600c54611c14565b600a546001600160701b03169063ffffffff61197b16565b600a80546001600160701b0319166001600160701b03929092169190911790555b7f10e8afa8e2aa45e6f179fcaa8538c699a53e253cda2b304d7fa46174527cedc33384848460405161145294939291906121df565b60405180910390a150505050505050505050565b600a546001600160701b031681565b6000546001600160a01b0316331461149f5760405162461bcd60e51b815260040161063090612522565b6040516370a0823160e01b81526000906001600160a01b037f000000000000000000000000000000000000000000000000000000000000000016906370a08231906114ee90309060040161218e565b60206040518083038186803b15801561150657600080fd5b505afa15801561151a573d6000803e3d6000fd5b505050506040513d601f19601f8201168201806040525081019061153e9190612124565b60005460405163a9059cbb60e01b81529192506001600160a01b037f000000000000000000000000000000000000000000000000000000000000000081169263a9059cbb9261159392169085906004016121c6565b602060405180830381600087803b1580156115ad57600080fd5b505af11580156115c1573d6000803e3d6000fd5b505050506040513d601f19601f820116820180604052508101906115e591906120f0565b5050565b6007546040805163def0d15d60e01b815290516000926001600160a01b03169163def0d15d916004808301926020929190829003018186803b15801561162e57600080fd5b505afa158015611642573d6000803e3d6000fd5b505050506040513d601f19601f820116820180604052508101906116669190612124565b905090565b6001600160a01b03918216600090815260056020908152604080832093909416825291909152205490565b6000546001600160a01b031633146116c05760405162461bcd60e51b815260040161063090612522565b600780546001600160a01b0319166001600160a01b0392909216919091179055565b7f000000000000000000000000000000000000000000000000000000000000000081565b6007546001600160a01b031681565b60405163052f523360e11b81526001600160a01b037f00000000000000000000000000000000000000000000000000000000000000001690630a5ea46690611787907f000000000000000000000000000000000000000000000000000000000000000090339030908790600401612205565b600060405180830381600087803b1580156117a157600080fd5b505af11580156117b5573d6000803e3d6000fd5b505050506117c86113e482600c54611c14565b600a80546001600160701b0319166001600160701b03929092169190911790556040517f3ed260d8e11a4e325861a1b184d8389e34339a456bc04d53f111e5d99ae22ac190610a3990339084906121c6565b6000546001600160a01b031633146118445760405162461bcd60e51b815260040161063090612522565b600080546040516001600160a01b03808516939216917fdcf55418cee3220104fef63f979ff3c4097ad240c0c43dcb33ce837748983e6291a3600180546001600160a01b0319166001600160a01b0392909216919091179055565b6000546001600160a01b031633146118c95760405162461bcd60e51b815260040161063090612522565b6007805460ff60a01b1916600160a01b831515021790556040517f8faf67cb6de7f4aed6e2791474b60016b6cb2b4e756529701e7863892e46869490610a3990839061222f565b600a546000908190600160e01b900463ffffffff166119315750600061194a565b50600a54600854600160e01b90910463ffffffff164303025b600c5415611968576119616113e482600c54611c14565b9150611977565b600a546001600160701b031691505b9091565b6000828201838110156119a05760405162461bcd60e51b815260040161063090612545565b9392505050565b6000828211156119c95760405162461bcd60e51b81526004016106309061246c565b50900390565b6000806119da611910565b600a549193509150600090611a00908390600160701b90046001600160701b031661197b565b90506001600160701b038311801590611a2057506001600160701b038111155b611a3c5760405162461bcd60e51b815260040161063090612500565b600a80546001600160701b0319166001600160701b03948516176dffffffffffffffffffffffffffff60701b1916600160701b9290941691909102929092176001600160e01b0316600160e01b4363ffffffff16021790915550565b600754600160a01b900460ff16611ac15760405162461bcd60e51b81526004016106309061240f565b828180611acd8361090a565b1015611aeb5760405162461bcd60e51b8152600401610630906124b9565b6001600160a01b038516611b115760405162461bcd60e51b8152600401610630906122f8565b6001600160a01b038416611b375760405162461bcd60e51b81526004016106309061235d565b836001600160a01b0316856001600160a01b03161415611b695760405162461bcd60e51b815260040161063090612394565b600a54600090611b869060648602906001600160701b0316611c14565b6001600160a01b038088166000908152600d60205260408082209289168252902091925090611bb58284611df4565b611bbf8184611c3e565b866001600160a01b0316886001600160a01b03167fddf252ad1be2c89b69c2b068fc378daa952ba7f163c4a11628f55a4df523b3ef88604051611c029190612608565b60405180910390a35050505050505050565b60006119a082611c3285670de0b6b3a764000063ffffffff611dba16565b9063ffffffff611fb316565b6001600160801b03811115611c655760405162461bcd60e51b815260040161063090612500565b60018201546001600160a01b03166000908152600d6020526040812090611c948367016345785d8a0000611d90565b600a54909150600090611cb19083906001600160701b0316611d90565b8554909150611ccf906001600160801b03168563ffffffff61197b16565b85546001600160801b0319166001600160801b0391821617808755611cfd91600160801b909104168361197b565b85546001600160801b03918216600160801b029082161786558354611d2991168363ffffffff61197b16565b83546001600160801b0319166001600160801b03919091161783556002830154611d53908261197b565b6001600160801b03166002840155600c54611d86908390611d7a908763ffffffff61197b16565b9063ffffffff61197b16565b600c555050505050565b6000670de0b6b3a7640000611dab848463ffffffff611dba16565b81611db257fe5b049392505050565b600082611dc95750600061069f565b82820282848281611dd657fe5b04146119a05760405162461bcd60e51b81526004016106309061259f565b8154611e0f906001600160801b03168263ffffffff6119a716565b82546001600160801b0319166001600160801b03919091161782556000611e3e8267016345785d8a0000611d90565b8354909150600160801b90046001600160801b0316811015611e605780611e73565b8254600160801b90046001600160801b03165b8354909150611e9290600160801b90046001600160801b0316826119a7565b83546001600160801b03918216600160801b02911617835560018301546001600160a01b03166000908152600d602052604081206002810154600a54919291611ee491906001600160701b0316611c14565b9050808310611f2f57600060028301558154611f0f906001600160801b03168263ffffffff6119a716565b82546001600160801b0319166001600160801b0391909116178255611f9a565b600a54611f5b90611f4a9085906001600160701b0316611d90565b60028401549063ffffffff6119a716565b6001600160801b0390811660028401558254611f7e91168463ffffffff6119a716565b82546001600160801b0319166001600160801b03919091161782555b611d86836109bd86600c546119a790919063ffffffff16565b6000808211611fd45760405162461bcd60e51b815260040161063090612444565b818381611db257fe5b60408051608081018252600080825260208201819052918101829052606081019190915290565b80356001600160a01b038116811461069f57600080fd5b60006020828403121561202c578081fd5b6119a08383612004565b60008060408385031215612048578081fd5b6120528484612004565b91506120618460208501612004565b90509250929050565b60008060006060848603121561207e578081fd5b833561208981612654565b9250602084013561209981612654565b929592945050506040919091013590565b600080604083850312156120bc578182fd5b6120c68484612004565b946020939093013593505050565b6000602082840312156120e5578081fd5b81356119a08161266c565b600060208284031215612101578081fd5b81516119a08161266c565b60006020828403121561211d578081fd5b5035919050565b600060208284031215612135578081fd5b5051919050565b6000806040838503121561214e578182fd5b823591506120618460208501612004565b60008060408385031215612171578182fd5b8235915060208301356121838161266c565b809150509250929050565b6001600160a01b0391909116815260200190565b6001600160a01b039384168152919092166020820152604081019190915260600190565b6001600160a01b03929092168252602082015260400190565b6001600160a01b0394909416845260208401929092526040830152606082015260800190565b6001600160a01b039485168152928416602084015292166040820152606081019190915260800190565b901515815260200190565b6000602080835283518082850152825b818110156122665785810183015185820160400152820161224a565b818111156122775783604083870101525b50601f01601f1916929092016040019392505050565b6020808252600d908201526c494e56414c49445f434c41494d60981b604082015260600190565b60208082526024908201527f76444f444f546f6b656e3a20494e56414c49445f5355504552494f525f4144446040820152635245535360e01b606082015260800190565b6020808252601e908201527f7472616e736665722066726f6d20746865207a65726f20616464726573730000604082015260600190565b60208082526014908201527308298989eae829c868abe9c9ea8be8a9c9eaa8e960631b604082015260600190565b6020808252601c908201527f7472616e7366657220746f20746865207a65726f206164647265737300000000604082015260600190565b6020808252601a908201527f7472616e736665722066726f6d2073616d65207769746820746f000000000000604082015260600190565b60208082526024908201527f76444f444f546f6b656e3a206d757374206d696e7420677265617465722074686040820152630616e20360e41b606082015260800190565b6020808252818101527f76444f444f546f6b656e3a206e6f7420616c6c6f776564207472616e73666572604082015260600190565b6020808252600e908201526d2224ab24a224a723afa2a92927a960911b604082015260600190565b60208082526009908201526829aaa12fa2a92927a960b91b604082015260600190565b60208082526010908201526f1113d113d7d25392551250531256915160821b604082015260600190565b60208082526027908201527f76444f444f546f6b656e3a20617661696c61626c6520616d6f756e74206e6f74604082015266040cadcdeeaced60cb1b606082015260800190565b6020808252600890820152674f564552464c4f5760c01b604082015260600190565b6020808252600990820152682727aa2fa7aba722a960b91b604082015260600190565b60208082526009908201526820a2222fa2a92927a960b91b604082015260600190565b6020808252601c908201527f76444f444f546f6b656e3a205375706572696f7220494e56414c494400000000604082015260600190565b60208082526009908201526826aaa62fa2a92927a960b91b604082015260600190565b6001600160701b0391909116815260200190565b6001600160801b0394851681529290931660208301526001600160a01b03166040820152606081019190915260800190565b90815260200190565b918252602082015260400190565b9283526020830191909152604082015260600190565b63ffffffff91909116815260200190565b60ff91909116815260200190565b6001600160a01b038116811461266957600080fd5b50565b801515811461266957600080fdfea2646970667358221220814de26c36210f99b5f3b69ab6cc13d7bbb8581e919b72d7572b23047f69323564736f6c63430006090033",
  "immutableReferences": {
    "7487": [
      {
        "length": 32,
        "start": 1817
      },
      {
        "length": 32,
        "start": 2639
      },
      {
        "length": 32,
        "start": 2916
      },
      {
        "length": 32,
        "start": 3551
      },
      {
        "length": 32,
        "start": 4743
      },
      {
        "length": 32,
        "start": 4931
      },
      {
        "length": 32,
        "start": 5305
      },
      {
        "length": 32,
        "start": 5467
      },
      {
        "length": 32,
        "start": 5977
      }
    ],
    "7489": [
      {
        "length": 32,
        "start": 2871
      },
      {
        "length": 32,
        "start": 3506
      },
      {
        "length": 32,
        "start": 5860
      },
      {
        "length": 32,
        "start": 5932
      }
    ],
    "7491": [
      {
        "length": 32,
        "start": 3327
      },
      {
        "length": 32,
        "start": 4227
      }
    ]
  },
  "source": "/*\n\n    Copyright 2020 DODO ZOO.\n    SPDX-License-Identifier: Apache-2.0\n\n*/\npragma solidity 0.6.9;\npragma experimental ABIEncoderV2;\n\nimport {IERC20} from \"../intf/IERC20.sol\";\nimport {SafeMath} from \"../lib/SafeMath.sol\";\nimport {DecimalMath} from \"../lib/DecimalMath.sol\";\nimport {InitializableOwnable} from \"../lib/InitializableOwnable.sol\";\nimport {SafeERC20} from \"../lib/SafeERC20.sol\";\nimport {IDODOApproveProxy} from \"../SmartRoute/DODOApproveProxy.sol\";\n\ninterface IGovernance {\n    function getLockedvDODO(address account) external view returns (uint256);\n}\n\ninterface IDODOCirculationHelper {\n    // Locked vDOOD not counted in circulation\n    function getCirculation() external view returns (uint256);\n\n    function getDodoWithdrawFeeRatio() external view returns (uint256);\n}\n\ncontract vDODOToken is InitializableOwnable {\n    using SafeMath for uint256;\n\n    // ============ Storage(ERC20) ============\n\n    string public name = \"vDODO Token\";\n    string public symbol = \"vDODO\";\n    uint8 public decimals = 18;\n    mapping(address => mapping(address => uint256)) internal _ALLOWED_;\n\n    // ============ Storage ============\n\n    address public immutable _DODO_TOKEN_;\n    address public immutable _DODO_APPROVE_PROXY_;\n    address public immutable _DODO_TEAM_;\n    address public _DOOD_GOV_;\n    address public _DODO_CIRCULATION_HELPER_;\n\n    bool public _CAN_TRANSFER_;\n\n    // staking reward parameters\n    uint256 public _DODO_PER_BLOCK_;\n    uint256 public constant _SUPERIOR_RATIO_ = 10**17; // 0.1\n    uint256 public constant _DODO_RATIO_ = 100; // 100\n    uint256 public _DODO_FEE_BURN_RATIO_;\n\n    // accounting\n    uint112 public alpha = 10**18; // 1\n    uint112 public _TOTAL_BLOCK_DISTRIBUTION_;\n    uint32 public _LAST_REWARD_BLOCK_;\n\n    uint256 public _TOTAL_BLOCK_REWARD_;\n    uint256 public _TOTAL_STAKING_POWER_;\n    mapping(address => UserInfo) public userInfo;\n\n    struct UserInfo {\n        uint128 stakingPower;\n        uint128 superiorSP;\n        address superior;\n        uint256 credit;\n    }\n\n    // ============ Events ============\n\n    event MintVDODO(address user, address superior, uint256 mintDODO);\n    event RedeemVDODO(address user, uint256 receiveDODO, uint256 burnDODO, uint256 feeDODO);\n    event DonateDODO(address user, uint256 donateDODO);\n    event SetCantransfer(bool allowed);\n\n    event PreDeposit(uint256 dodoAmount);\n    event ChangePerReward(uint256 dodoPerBlock);\n    event UpdateDODOFeeBurnRatio(uint256 dodoFeeBurnRatio);\n\n    event Transfer(address indexed from, address indexed to, uint256 amount);\n    event Approval(address indexed owner, address indexed spender, uint256 amount);\n\n    // ============ Modifiers ============\n\n    modifier canTransfer() {\n        require(_CAN_TRANSFER_, \"vDODOToken: not allowed transfer\");\n        _;\n    }\n\n    modifier balanceEnough(address account, uint256 amount) {\n        require(availableBalanceOf(account) >= amount, \"vDODOToken: available amount not enough\");\n        _;\n    }\n\n    // ============ Constructor ============\n\n    constructor(\n        address dodoGov,\n        address dodoToken,\n        address dodoApproveProxy,\n        address dodoTeam\n    ) public {\n        _DOOD_GOV_ = dodoGov;\n        _DODO_TOKEN_ = dodoToken;\n        _DODO_APPROVE_PROXY_ = dodoApproveProxy;\n        _DODO_TEAM_ = dodoTeam;\n    }\n\n    // ============ Ownable Functions ============`\n\n    function setCantransfer(bool allowed) public onlyOwner {\n        _CAN_TRANSFER_ = allowed;\n        emit SetCantransfer(allowed);\n    }\n\n    function changePerReward(uint256 dodoPerBlock) public onlyOwner {\n        _updateAlpha();\n        _DODO_PER_BLOCK_ = dodoPerBlock;\n        emit ChangePerReward(dodoPerBlock);\n    }\n\n    function updateDODOFeeBurnRatio(uint256 dodoFeeBurnRatio) public onlyOwner {\n        _DODO_FEE_BURN_RATIO_ = dodoFeeBurnRatio;\n        emit UpdateDODOFeeBurnRatio(_DODO_FEE_BURN_RATIO_);\n    }\n\n    function updateDODOCirculationHelper(address helper) public onlyOwner {\n        _DODO_CIRCULATION_HELPER_ = helper;\n    }\n\n    function updateGovernance(address governance) public onlyOwner {\n        _DOOD_GOV_ = governance;\n    }\n\n    function emergencyWithdraw() public onlyOwner {\n        uint256 dodoBalance = IERC20(_DODO_TOKEN_).balanceOf(address(this));\n        IERC20(_DODO_TOKEN_).transfer(_OWNER_, dodoBalance);\n    }\n\n    // ============ Mint & Redeem & Donate ============\n\n    function mint(uint256 dodoAmount, address superiorAddress) public {\n        require(\n            superiorAddress != address(0) && superiorAddress != msg.sender,\n            \"vDODOToken: Superior INVALID\"\n        );\n        require(dodoAmount > 0, \"vDODOToken: must mint greater than 0\");\n\n        UserInfo storage user = userInfo[msg.sender];\n\n        if (user.superior == address(0)) {\n            require(\n                superiorAddress == _DODO_TEAM_ || userInfo[superiorAddress].superior != address(0),\n                \"vDODOToken: INVALID_SUPERIOR_ADDRESS\"\n            );\n            user.superior = superiorAddress;\n        }\n\n        _updateAlpha();\n\n        IDODOApproveProxy(_DODO_APPROVE_PROXY_).claimTokens(\n            _DODO_TOKEN_,\n            msg.sender,\n            address(this),\n            dodoAmount\n        );\n\n        uint256 newStakingPower = DecimalMath.divFloor(dodoAmount, alpha);\n\n        _mint(user, newStakingPower);\n\n        emit MintVDODO(msg.sender, superiorAddress, dodoAmount);\n    }\n\n    function redeem(uint256 vdodoAmount, bool all) public balanceEnough(msg.sender, vdodoAmount) {\n        _updateAlpha();\n        UserInfo storage user = userInfo[msg.sender];\n\n        uint256 dodoAmount;\n        uint256 stakingPower;\n\n        if (all) {\n            stakingPower = uint256(user.stakingPower).sub(DecimalMath.divFloor(user.credit, alpha));\n            dodoAmount = DecimalMath.mulFloor(stakingPower, alpha);\n        } else {\n            dodoAmount = vdodoAmount.mul(_DODO_RATIO_);\n            stakingPower = DecimalMath.divFloor(dodoAmount, alpha);\n        }\n\n        _redeem(user, stakingPower);\n\n        (uint256 dodoReceive, uint256 burnDodoAmount, uint256 withdrawFeeDodoAmount) = getWithdrawResult(dodoAmount);\n\n        IERC20(_DODO_TOKEN_).transfer(msg.sender, dodoReceive);\n        \n        if (burnDodoAmount > 0) {\n            IERC20(_DODO_TOKEN_).transfer(address(0), burnDodoAmount);\n        }\n        \n        if (withdrawFeeDodoAmount > 0) {\n            alpha = uint112(\n                uint256(alpha).add(\n                    DecimalMath.divFloor(withdrawFeeDodoAmount, _TOTAL_STAKING_POWER_)\n                )\n            );\n        }\n\n        emit RedeemVDODO(msg.sender, dodoReceive, burnDodoAmount, withdrawFeeDodoAmount);\n    }\n\n    function donate(uint256 dodoAmount) public {\n        IDODOApproveProxy(_DODO_APPROVE_PROXY_).claimTokens(\n            _DODO_TOKEN_,\n            msg.sender,\n            address(this),\n            dodoAmount\n        );\n        alpha = uint112(\n            uint256(alpha).add(DecimalMath.divFloor(dodoAmount, _TOTAL_STAKING_POWER_))\n        );\n        emit DonateDODO(msg.sender, dodoAmount);\n    }\n\n    function preDepositedBlockReward(uint256 dodoAmount) public {\n        IDODOApproveProxy(_DODO_APPROVE_PROXY_).claimTokens(\n            _DODO_TOKEN_,\n            msg.sender,\n            address(this),\n            dodoAmount\n        );\n        _TOTAL_BLOCK_REWARD_ = _TOTAL_BLOCK_REWARD_.add(dodoAmount);\n        emit PreDeposit(dodoAmount);\n    }\n\n    // ============ ERC20 Functions ============\n\n    function totalSupply() public view returns (uint256 vDODOSupply) {\n        uint256 totalDODO = IERC20(_DODO_TOKEN_).balanceOf(address(this));\n        (,uint256 curDistribution) = getLatestAlpha();\n        uint256 actualDODO = totalDODO.sub(_TOTAL_BLOCK_REWARD_.sub(curDistribution.add(_TOTAL_BLOCK_DISTRIBUTION_)));\n        vDODOSupply = actualDODO / _DODO_RATIO_;\n    }\n    \n    function balanceOf(address account) public view returns (uint256 vDODOAmount) {\n        vDODOAmount = dodoBalanceOf(account) / _DODO_RATIO_;\n    }\n\n    function transfer(address to, uint256 vDODOAmount) public returns (bool) {\n        _updateAlpha();\n        _transfer(msg.sender, to, vDODOAmount);\n        return true;\n    }\n\n    function approve(address spender, uint256 vDODOAmount) canTransfer public returns (bool) {\n        _ALLOWED_[msg.sender][spender] = vDODOAmount;\n        emit Approval(msg.sender, spender, vDODOAmount);\n        return true;\n    }\n\n    function transferFrom(\n        address from,\n        address to,\n        uint256 vDODOAmount\n    ) public returns (bool) {\n        require(vDODOAmount <= _ALLOWED_[from][msg.sender], \"ALLOWANCE_NOT_ENOUGH\");\n        _updateAlpha();\n        _transfer(from, to, vDODOAmount);\n        _ALLOWED_[from][msg.sender] = _ALLOWED_[from][msg.sender].sub(vDODOAmount);\n        return true;\n    }\n\n    function allowance(address owner, address spender) public view returns (uint256) {\n        return _ALLOWED_[owner][spender];\n    }\n\n    // ============ Helper Functions ============\n\n    function getLatestAlpha() public view returns (uint256 newAlpha, uint256 curDistribution) {\n        if (_LAST_REWARD_BLOCK_ == 0) {\n            curDistribution = 0;\n        } else {\n            curDistribution = _DODO_PER_BLOCK_ * (block.number - _LAST_REWARD_BLOCK_);\n        }\n        if (_TOTAL_STAKING_POWER_ > 0) {\n            newAlpha = uint256(alpha).add(DecimalMath.divFloor(curDistribution, _TOTAL_STAKING_POWER_));\n        } else {\n            newAlpha = alpha;\n        }\n    }\n\n    function availableBalanceOf(address account) public view returns (uint256 vDODOAmount) {\n        if (_DOOD_GOV_ == address(0)) {\n            vDODOAmount = balanceOf(account);\n        } else {\n            uint256 lockedvDODOAmount = IGovernance(_DOOD_GOV_).getLockedvDODO(account);\n            vDODOAmount = balanceOf(account).sub(lockedvDODOAmount);\n        }\n    }\n\n    function dodoBalanceOf(address account) public view returns (uint256 dodoAmount) {\n        UserInfo memory user = userInfo[account];\n        (uint256 newAlpha,) = getLatestAlpha();\n        uint256 nominalDodo =  DecimalMath.mulFloor(uint256(user.stakingPower), newAlpha);\n        if(nominalDodo > user.credit) {\n            dodoAmount = nominalDodo - user.credit;\n        }else {\n            dodoAmount = 0;\n        }\n    }\n\n    function getWithdrawResult(uint256 dodoAmount)\n        public\n        view\n        returns (\n            uint256 dodoReceive,\n            uint256 burnDodoAmount,\n            uint256 withdrawFeeDodoAmount\n        )\n    {\n        uint256 feeRatio =\n            IDODOCirculationHelper(_DODO_CIRCULATION_HELPER_).getDodoWithdrawFeeRatio();\n\n        withdrawFeeDodoAmount = DecimalMath.mulFloor(dodoAmount, feeRatio);\n        dodoReceive = dodoAmount.sub(withdrawFeeDodoAmount);\n\n        burnDodoAmount = DecimalMath.mulFloor(withdrawFeeDodoAmount, _DODO_FEE_BURN_RATIO_);\n        withdrawFeeDodoAmount = withdrawFeeDodoAmount.sub(burnDodoAmount);\n    }\n\n    function getDODOWithdrawFeeRatio() public view returns (uint256 feeRatio) {\n        feeRatio = IDODOCirculationHelper(_DODO_CIRCULATION_HELPER_).getDodoWithdrawFeeRatio();\n    }\n\n    function getSuperior(address account) public view returns (address superior) {\n        return userInfo[account].superior;\n    }\n\n    // ============ Internal Functions ============\n\n    function _updateAlpha() internal {\n        (uint256 newAlpha, uint256 curDistribution) = getLatestAlpha();\n        uint256 newTotalDistribution = curDistribution.add(_TOTAL_BLOCK_DISTRIBUTION_);\n        require(newAlpha <= uint112(-1) && newTotalDistribution <= uint112(-1), \"OVERFLOW\");\n        alpha = uint112(newAlpha);\n        _TOTAL_BLOCK_DISTRIBUTION_ = uint112(newTotalDistribution);\n        _LAST_REWARD_BLOCK_ = uint32(block.number);\n    }\n\n    function _mint(UserInfo storage to, uint256 stakingPower) internal {\n        require(stakingPower <= uint128(-1), \"OVERFLOW\");\n        UserInfo storage superior = userInfo[to.superior];\n        uint256 superiorIncreSP = DecimalMath.mulFloor(stakingPower, _SUPERIOR_RATIO_);\n        uint256 superiorIncreCredit = DecimalMath.mulFloor(superiorIncreSP, alpha);\n\n        to.stakingPower = uint128(uint256(to.stakingPower).add(stakingPower));\n        to.superiorSP = uint128(uint256(to.superiorSP).add(superiorIncreSP));\n\n        superior.stakingPower = uint128(uint256(superior.stakingPower).add(superiorIncreSP));\n        superior.credit = uint128(uint256(superior.credit).add(superiorIncreCredit));\n\n        _TOTAL_STAKING_POWER_ = _TOTAL_STAKING_POWER_.add(stakingPower).add(superiorIncreSP);\n    }\n\n    function _redeem(UserInfo storage from, uint256 stakingPower) internal {\n        from.stakingPower = uint128(uint256(from.stakingPower).sub(stakingPower));\n\n        // superior decrease sp = min(stakingPower*0.1, from.superiorSP)\n        uint256 superiorDecreSP = DecimalMath.mulFloor(stakingPower, _SUPERIOR_RATIO_);\n        superiorDecreSP = from.superiorSP <= superiorDecreSP ? from.superiorSP : superiorDecreSP;\n        from.superiorSP = uint128(uint256(from.superiorSP).sub(superiorDecreSP));\n\n        UserInfo storage superior = userInfo[from.superior];\n        uint256 creditSP = DecimalMath.divFloor(superior.credit, alpha);\n\n        if (superiorDecreSP >= creditSP) {\n            superior.credit = 0;\n            superior.stakingPower = uint128(uint256(superior.stakingPower).sub(creditSP));\n        } else {\n            superior.credit = uint128(\n                uint256(superior.credit).sub(DecimalMath.mulFloor(superiorDecreSP, alpha))\n            );\n            superior.stakingPower = uint128(uint256(superior.stakingPower).sub(superiorDecreSP));\n        }\n\n        _TOTAL_STAKING_POWER_ = _TOTAL_STAKING_POWER_.sub(stakingPower).sub(superiorDecreSP);\n    }\n\n    function _transfer(\n        address from,\n        address to,\n        uint256 vDODOAmount\n    ) internal canTransfer balanceEnough(from, vDODOAmount) {\n        require(from != address(0), \"transfer from the zero address\");\n        require(to != address(0), \"transfer to the zero address\");\n        require(from != to, \"transfer from same with to\");\n\n        uint256 stakingPower = DecimalMath.divFloor(vDODOAmount * _DODO_RATIO_, alpha);\n\n        UserInfo storage fromUser = userInfo[from];\n        UserInfo storage toUser = userInfo[to];\n\n        _redeem(fromUser, stakingPower);\n        _mint(toUser, stakingPower);\n\n        emit Transfer(from, to, vDODOAmount);\n    }\n}\n",
  "sourcePath": "/Users/niutaotao/projects/dodo/contractV2/contracts/DODOToken/vDODOToken.sol",
  "compiler": {
    "name": "solc",
    "version": "0.6.9+commit.3e3065ac.Emscripten.clang"
  },
  "schemaVersion": "3.3.2",
  "updatedAt": "2021-02-14T06:36:28.584Z",
  "devdoc": {
    "methods": {}
  },
  "userdoc": {
    "methods": {}
  }
}